{
  "contractName": "AccessControlMixin",
  "abi": [
    {
      "anonymous": false,
      "inputs": [
        {
          "indexed": true,
          "internalType": "bytes32",
          "name": "role",
          "type": "bytes32"
        },
        {
          "indexed": true,
          "internalType": "bytes32",
          "name": "previousAdminRole",
          "type": "bytes32"
        },
        {
          "indexed": true,
          "internalType": "bytes32",
          "name": "newAdminRole",
          "type": "bytes32"
        }
      ],
      "name": "RoleAdminChanged",
      "type": "event"
    },
    {
      "anonymous": false,
      "inputs": [
        {
          "indexed": true,
          "internalType": "bytes32",
          "name": "role",
          "type": "bytes32"
        },
        {
          "indexed": true,
          "internalType": "address",
          "name": "account",
          "type": "address"
        },
        {
          "indexed": true,
          "internalType": "address",
          "name": "sender",
          "type": "address"
        }
      ],
      "name": "RoleGranted",
      "type": "event"
    },
    {
      "anonymous": false,
      "inputs": [
        {
          "indexed": true,
          "internalType": "bytes32",
          "name": "role",
          "type": "bytes32"
        },
        {
          "indexed": true,
          "internalType": "address",
          "name": "account",
          "type": "address"
        },
        {
          "indexed": true,
          "internalType": "address",
          "name": "sender",
          "type": "address"
        }
      ],
      "name": "RoleRevoked",
      "type": "event"
    },
    {
      "inputs": [],
      "name": "DEFAULT_ADMIN_ROLE",
      "outputs": [
        {
          "internalType": "bytes32",
          "name": "",
          "type": "bytes32"
        }
      ],
      "stateMutability": "view",
      "type": "function"
    },
    {
      "inputs": [
        {
          "internalType": "bytes32",
          "name": "role",
          "type": "bytes32"
        }
      ],
      "name": "getRoleAdmin",
      "outputs": [
        {
          "internalType": "bytes32",
          "name": "",
          "type": "bytes32"
        }
      ],
      "stateMutability": "view",
      "type": "function"
    },
    {
      "inputs": [
        {
          "internalType": "bytes32",
          "name": "role",
          "type": "bytes32"
        },
        {
          "internalType": "uint256",
          "name": "index",
          "type": "uint256"
        }
      ],
      "name": "getRoleMember",
      "outputs": [
        {
          "internalType": "address",
          "name": "",
          "type": "address"
        }
      ],
      "stateMutability": "view",
      "type": "function"
    },
    {
      "inputs": [
        {
          "internalType": "bytes32",
          "name": "role",
          "type": "bytes32"
        }
      ],
      "name": "getRoleMemberCount",
      "outputs": [
        {
          "internalType": "uint256",
          "name": "",
          "type": "uint256"
        }
      ],
      "stateMutability": "view",
      "type": "function"
    },
    {
      "inputs": [
        {
          "internalType": "bytes32",
          "name": "role",
          "type": "bytes32"
        },
        {
          "internalType": "address",
          "name": "account",
          "type": "address"
        }
      ],
      "name": "grantRole",
      "outputs": [],
      "stateMutability": "nonpayable",
      "type": "function"
    },
    {
      "inputs": [
        {
          "internalType": "bytes32",
          "name": "role",
          "type": "bytes32"
        },
        {
          "internalType": "address",
          "name": "account",
          "type": "address"
        }
      ],
      "name": "hasRole",
      "outputs": [
        {
          "internalType": "bool",
          "name": "",
          "type": "bool"
        }
      ],
      "stateMutability": "view",
      "type": "function"
    },
    {
      "inputs": [
        {
          "internalType": "bytes32",
          "name": "role",
          "type": "bytes32"
        },
        {
          "internalType": "address",
          "name": "account",
          "type": "address"
        }
      ],
      "name": "renounceRole",
      "outputs": [],
      "stateMutability": "nonpayable",
      "type": "function"
    },
    {
      "inputs": [
        {
          "internalType": "bytes32",
          "name": "role",
          "type": "bytes32"
        },
        {
          "internalType": "address",
          "name": "account",
          "type": "address"
        }
      ],
      "name": "revokeRole",
      "outputs": [],
      "stateMutability": "nonpayable",
      "type": "function"
    }
  ],
  "bytecode": "0x608060405234801561001057600080fd5b50610730806100206000396000f3fe608060405234801561001057600080fd5b50600436106100885760003560e01c806391d148541161005b57806391d1485414610155578063a217fddf14610195578063ca15c8731461019d578063d547741f146101ba57610088565b8063248a9ca31461008d5780632f2ff15d146100bc57806336568abe146100ea5780639010d07c14610116575b600080fd5b6100aa600480360360208110156100a357600080fd5b50356101e6565b60408051918252519081900360200190f35b6100e8600480360360408110156100d257600080fd5b50803590602001356001600160a01b03166101fb565b005b6100e86004803603604081101561010057600080fd5b50803590602001356001600160a01b0316610267565b6101396004803603604081101561012c57600080fd5b50803590602001356102c8565b604080516001600160a01b039092168252519081900360200190f35b6101816004803603604081101561016b57600080fd5b50803590602001356001600160a01b03166102ef565b604080519115158252519081900360200190f35b6100aa61030d565b6100aa600480360360208110156101b357600080fd5b5035610312565b6100e8600480360360408110156101d057600080fd5b50803590602001356001600160a01b0316610329565b60009081526020819052604090206002015490565b60008281526020819052604090206002015461021e90610219610382565b6102ef565b6102595760405162461bcd60e51b815260040180806020018281038252602f81526020018061066d602f913960400191505060405180910390fd5b6102638282610386565b5050565b61026f610382565b6001600160a01b0316816001600160a01b0316146102be5760405162461bcd60e51b815260040180806020018281038252602f8152602001806106cc602f913960400191505060405180910390fd5b61026382826103f5565b60008281526020819052604081206102e6908363ffffffff61046416565b90505b92915050565b60008281526020819052604081206102e6908363ffffffff61047016565b600081565b60008181526020819052604081206102e990610485565b60008281526020819052604090206002015461034790610219610382565b6102be5760405162461bcd60e51b815260040180806020018281038252603081526020018061069c6030913960400191505060405180910390fd5b3390565b60008281526020819052604090206103a4908263ffffffff61049016565b15610263576103b1610382565b6001600160a01b0316816001600160a01b0316837f2f8788117e7eff1d82e926ec794901d17c78024a50270940304540a733656f0d60405160405180910390a45050565b6000828152602081905260409020610413908263ffffffff6104a516565b1561026357610420610382565b6001600160a01b0316816001600160a01b0316837ff6391f5c32d9c69d2a47ea670b442974b53935d1edc7fd64eb21e047a839171b60405160405180910390a45050565b60006102e683836104ba565b60006102e6836001600160a01b03841661051e565b60006102e982610536565b60006102e6836001600160a01b03841661053a565b60006102e6836001600160a01b038416610584565b815460009082106104fc5760405162461bcd60e51b815260040180806020018281038252602281526020018061064b6022913960400191505060405180910390fd5b82600001828154811061050b57fe5b9060005260206000200154905092915050565b60009081526001919091016020526040902054151590565b5490565b6000610546838361051e565b61057c575081546001818101845560008481526020808220909301849055845484825282860190935260409020919091556102e9565b5060006102e9565b6000818152600183016020526040812054801561064057835460001980830191908101906000908790839081106105b757fe5b90600052602060002001549050808760000184815481106105d457fe5b60009182526020808320909101929092558281526001898101909252604090209084019055865487908061060457fe5b600190038181906000526020600020016000905590558660010160008781526020019081526020016000206000905560019450505050506102e9565b60009150506102e956fe456e756d657261626c655365743a20696e646578206f7574206f6620626f756e6473416363657373436f6e74726f6c3a2073656e646572206d75737420626520616e2061646d696e20746f206772616e74416363657373436f6e74726f6c3a2073656e646572206d75737420626520616e2061646d696e20746f207265766f6b65416363657373436f6e74726f6c3a2063616e206f6e6c792072656e6f756e636520726f6c657320666f722073656c66a26469706673582212206f27ac56f3ed1ab3cfa776320b984a2028bafb06f0768e6b1c6f11b34adddd6764736f6c63430006060033",
  "immutableReferences": {},
  "source": "pragma solidity 0.6.6;\n\nimport {AccessControl} from \"@openzeppelin/contracts/access/AccessControl.sol\";\n\ncontract AccessControlMixin is AccessControl {\n    string private _revertMsg;\n    function _setupContractId(string memory contractId) internal {\n        _revertMsg = string(abi.encodePacked(contractId, \": INSUFFICIENT_PERMISSIONS\"));\n    }\n\n    modifier only(bytes32 role) {\n        require(\n            hasRole(role, _msgSender()),\n            _revertMsg\n        );\n        _;\n    }\n}\n",
  "sourcePath": "/Users/ohm.jirapon/internal/layer-2/layer2-plasma-cli/devnet/code/pos-portal/contracts/common/AccessControlMixin.sol",
  "compiler": {
    "name": "solc",
    "version": "0.6.6+commit.6c089d02.Linux.g++"
  },
  "schemaVersion": "3.2.1",
  "updatedAt": "2022-09-14T10:03:22.741Z",
  "devdoc": {
    "methods": {
      "getRoleAdmin(bytes32)": {
        "details": "Returns the admin role that controls `role`. See {grantRole} and {revokeRole}.     * To change a role's admin, use {_setRoleAdmin}."
      },
      "getRoleMember(bytes32,uint256)": {
        "details": "Returns one of the accounts that have `role`. `index` must be a value between 0 and {getRoleMemberCount}, non-inclusive.     * Role bearers are not sorted in any particular way, and their ordering may change at any point.     * WARNING: When using {getRoleMember} and {getRoleMemberCount}, make sure you perform all queries on the same block. See the following https://forum.openzeppelin.com/t/iterating-over-elements-on-enumerableset-in-openzeppelin-contracts/2296[forum post] for more information."
      },
      "getRoleMemberCount(bytes32)": {
        "details": "Returns the number of accounts that have `role`. Can be used together with {getRoleMember} to enumerate all bearers of a role."
      },
      "grantRole(bytes32,address)": {
        "details": "Grants `role` to `account`.     * If `account` had not been already granted `role`, emits a {RoleGranted} event.     * Requirements:     * - the caller must have ``role``'s admin role."
      },
      "hasRole(bytes32,address)": {
        "details": "Returns `true` if `account` has been granted `role`."
      },
      "renounceRole(bytes32,address)": {
        "details": "Revokes `role` from the calling account.     * Roles are often managed via {grantRole} and {revokeRole}: this function's purpose is to provide a mechanism for accounts to lose their privileges if they are compromised (such as when a trusted device is misplaced).     * If the calling account had been granted `role`, emits a {RoleRevoked} event.     * Requirements:     * - the caller must be `account`."
      },
      "revokeRole(bytes32,address)": {
        "details": "Revokes `role` from `account`.     * If `account` had been granted `role`, emits a {RoleRevoked} event.     * Requirements:     * - the caller must have ``role``'s admin role."
      }
    }
  },
  "userdoc": {
    "methods": {}
  }
}