{
  "contractName": "ChainExitERC1155Predicate",
  "abi": [
    {
      "inputs": [],
      "stateMutability": "nonpayable",
      "type": "constructor"
    },
    {
      "anonymous": false,
      "inputs": [
        {
          "indexed": true,
          "internalType": "address",
          "name": "depositor",
          "type": "address"
        },
        {
          "indexed": true,
          "internalType": "address",
          "name": "depositReceiver",
          "type": "address"
        },
        {
          "indexed": true,
          "internalType": "address",
          "name": "rootToken",
          "type": "address"
        },
        {
          "indexed": false,
          "internalType": "uint256[]",
          "name": "ids",
          "type": "uint256[]"
        },
        {
          "indexed": false,
          "internalType": "uint256[]",
          "name": "amounts",
          "type": "uint256[]"
        }
      ],
      "name": "LockedBatchChainExitERC1155",
      "type": "event"
    },
    {
      "anonymous": false,
      "inputs": [
        {
          "indexed": true,
          "internalType": "bytes32",
          "name": "role",
          "type": "bytes32"
        },
        {
          "indexed": true,
          "internalType": "bytes32",
          "name": "previousAdminRole",
          "type": "bytes32"
        },
        {
          "indexed": true,
          "internalType": "bytes32",
          "name": "newAdminRole",
          "type": "bytes32"
        }
      ],
      "name": "RoleAdminChanged",
      "type": "event"
    },
    {
      "anonymous": false,
      "inputs": [
        {
          "indexed": true,
          "internalType": "bytes32",
          "name": "role",
          "type": "bytes32"
        },
        {
          "indexed": true,
          "internalType": "address",
          "name": "account",
          "type": "address"
        },
        {
          "indexed": true,
          "internalType": "address",
          "name": "sender",
          "type": "address"
        }
      ],
      "name": "RoleGranted",
      "type": "event"
    },
    {
      "anonymous": false,
      "inputs": [
        {
          "indexed": true,
          "internalType": "bytes32",
          "name": "role",
          "type": "bytes32"
        },
        {
          "indexed": true,
          "internalType": "address",
          "name": "account",
          "type": "address"
        },
        {
          "indexed": true,
          "internalType": "address",
          "name": "sender",
          "type": "address"
        }
      ],
      "name": "RoleRevoked",
      "type": "event"
    },
    {
      "inputs": [],
      "name": "CHAIN_EXIT_EVENT_SIG",
      "outputs": [
        {
          "internalType": "bytes32",
          "name": "",
          "type": "bytes32"
        }
      ],
      "stateMutability": "view",
      "type": "function"
    },
    {
      "inputs": [],
      "name": "DEFAULT_ADMIN_ROLE",
      "outputs": [
        {
          "internalType": "bytes32",
          "name": "",
          "type": "bytes32"
        }
      ],
      "stateMutability": "view",
      "type": "function"
    },
    {
      "inputs": [],
      "name": "MANAGER_ROLE",
      "outputs": [
        {
          "internalType": "bytes32",
          "name": "",
          "type": "bytes32"
        }
      ],
      "stateMutability": "view",
      "type": "function"
    },
    {
      "inputs": [],
      "name": "TOKEN_TYPE",
      "outputs": [
        {
          "internalType": "bytes32",
          "name": "",
          "type": "bytes32"
        }
      ],
      "stateMutability": "view",
      "type": "function"
    },
    {
      "inputs": [
        {
          "internalType": "bytes32",
          "name": "role",
          "type": "bytes32"
        }
      ],
      "name": "getRoleAdmin",
      "outputs": [
        {
          "internalType": "bytes32",
          "name": "",
          "type": "bytes32"
        }
      ],
      "stateMutability": "view",
      "type": "function"
    },
    {
      "inputs": [
        {
          "internalType": "bytes32",
          "name": "role",
          "type": "bytes32"
        },
        {
          "internalType": "uint256",
          "name": "index",
          "type": "uint256"
        }
      ],
      "name": "getRoleMember",
      "outputs": [
        {
          "internalType": "address",
          "name": "",
          "type": "address"
        }
      ],
      "stateMutability": "view",
      "type": "function"
    },
    {
      "inputs": [
        {
          "internalType": "bytes32",
          "name": "role",
          "type": "bytes32"
        }
      ],
      "name": "getRoleMemberCount",
      "outputs": [
        {
          "internalType": "uint256",
          "name": "",
          "type": "uint256"
        }
      ],
      "stateMutability": "view",
      "type": "function"
    },
    {
      "inputs": [
        {
          "internalType": "bytes32",
          "name": "role",
          "type": "bytes32"
        },
        {
          "internalType": "address",
          "name": "account",
          "type": "address"
        }
      ],
      "name": "grantRole",
      "outputs": [],
      "stateMutability": "nonpayable",
      "type": "function"
    },
    {
      "inputs": [
        {
          "internalType": "bytes32",
          "name": "role",
          "type": "bytes32"
        },
        {
          "internalType": "address",
          "name": "account",
          "type": "address"
        }
      ],
      "name": "hasRole",
      "outputs": [
        {
          "internalType": "bool",
          "name": "",
          "type": "bool"
        }
      ],
      "stateMutability": "view",
      "type": "function"
    },
    {
      "inputs": [
        {
          "internalType": "bytes32",
          "name": "role",
          "type": "bytes32"
        },
        {
          "internalType": "address",
          "name": "account",
          "type": "address"
        }
      ],
      "name": "renounceRole",
      "outputs": [],
      "stateMutability": "nonpayable",
      "type": "function"
    },
    {
      "inputs": [
        {
          "internalType": "bytes32",
          "name": "role",
          "type": "bytes32"
        },
        {
          "internalType": "address",
          "name": "account",
          "type": "address"
        }
      ],
      "name": "revokeRole",
      "outputs": [],
      "stateMutability": "nonpayable",
      "type": "function"
    },
    {
      "inputs": [
        {
          "internalType": "bytes4",
          "name": "interfaceId",
          "type": "bytes4"
        }
      ],
      "name": "supportsInterface",
      "outputs": [
        {
          "internalType": "bool",
          "name": "",
          "type": "bool"
        }
      ],
      "stateMutability": "view",
      "type": "function"
    },
    {
      "inputs": [
        {
          "internalType": "address",
          "name": "_owner",
          "type": "address"
        }
      ],
      "name": "initialize",
      "outputs": [],
      "stateMutability": "nonpayable",
      "type": "function"
    },
    {
      "inputs": [
        {
          "internalType": "address",
          "name": "",
          "type": "address"
        },
        {
          "internalType": "address",
          "name": "",
          "type": "address"
        },
        {
          "internalType": "uint256",
          "name": "",
          "type": "uint256"
        },
        {
          "internalType": "uint256",
          "name": "",
          "type": "uint256"
        },
        {
          "internalType": "bytes",
          "name": "",
          "type": "bytes"
        }
      ],
      "name": "onERC1155Received",
      "outputs": [
        {
          "internalType": "bytes4",
          "name": "",
          "type": "bytes4"
        }
      ],
      "stateMutability": "nonpayable",
      "type": "function"
    },
    {
      "inputs": [
        {
          "internalType": "address",
          "name": "",
          "type": "address"
        },
        {
          "internalType": "address",
          "name": "",
          "type": "address"
        },
        {
          "internalType": "uint256[]",
          "name": "",
          "type": "uint256[]"
        },
        {
          "internalType": "uint256[]",
          "name": "",
          "type": "uint256[]"
        },
        {
          "internalType": "bytes",
          "name": "",
          "type": "bytes"
        }
      ],
      "name": "onERC1155BatchReceived",
      "outputs": [
        {
          "internalType": "bytes4",
          "name": "",
          "type": "bytes4"
        }
      ],
      "stateMutability": "nonpayable",
      "type": "function"
    },
    {
      "inputs": [
        {
          "internalType": "address",
          "name": "depositor",
          "type": "address"
        },
        {
          "internalType": "address",
          "name": "depositReceiver",
          "type": "address"
        },
        {
          "internalType": "address",
          "name": "rootToken",
          "type": "address"
        },
        {
          "internalType": "bytes",
          "name": "depositData",
          "type": "bytes"
        }
      ],
      "name": "lockTokens",
      "outputs": [],
      "stateMutability": "nonpayable",
      "type": "function"
    },
    {
      "inputs": [
        {
          "internalType": "address",
          "name": "",
          "type": "address"
        },
        {
          "internalType": "address",
          "name": "rootToken",
          "type": "address"
        },
        {
          "internalType": "bytes",
          "name": "log",
          "type": "bytes"
        }
      ],
      "name": "exitTokens",
      "outputs": [],
      "stateMutability": "nonpayable",
      "type": "function"
    }
  ],
  "bytecode": "0x60806040526003805460ff191690553480156200001b57600080fd5b50620000376301ffc9a760e01b6001600160e01b036200005816565b62000052630271189760e51b6001600160e01b036200005816565b620000dd565b6001600160e01b03198082161415620000b8576040805162461bcd60e51b815260206004820152601c60248201527f4552433136353a20696e76616c696420696e7465726661636520696400000000604482015290519081900360640190fd5b6001600160e01b0319166000908152602081905260409020805460ff19166001179055565b61226080620000ed6000396000f3fe608060405234801561001057600080fd5b506004361061010b5760003560e01c8063a217fddf116100a2578063ca15c87311610071578063ca15c8731461047e578063d547741f1461049b578063e375b64e146104c7578063ec87621c14610556578063f23a6e611461055e5761010b565b8063a217fddf14610304578063bc197c811461030c578063c23ed3e714610450578063c4d66de8146104585761010b565b8063609c92b8116100de578063609c92b8146101d45780638274664f146101dc5780639010d07c1461029957806391d14854146102d85761010b565b806301ffc9a714610110578063248a9ca31461014b5780632f2ff15d1461017a57806336568abe146101a8575b600080fd5b6101376004803603602081101561012657600080fd5b50356001600160e01b0319166105f1565b604080519115158252519081900360200190f35b6101686004803603602081101561016157600080fd5b5035610614565b60408051918252519081900360200190f35b6101a66004803603604081101561019057600080fd5b50803590602001356001600160a01b0316610629565b005b6101a6600480360360408110156101be57600080fd5b50803590602001356001600160a01b0316610695565b6101686106f6565b6101a6600480360360608110156101f257600080fd5b6001600160a01b038235811692602081013590911691810190606081016040820135600160201b81111561022557600080fd5b82018360208201111561023757600080fd5b803590602001918460018302840111600160201b8311171561025857600080fd5b91908080601f01602080910402602001604051908101604052809392919081815260200183838082843760009201919091525092955061071e945050505050565b6102bc600480360360408110156102af57600080fd5b5080359060200135610f90565b604080516001600160a01b039092168252519081900360200190f35b610137600480360360408110156102ee57600080fd5b50803590602001356001600160a01b0316610fb7565b610168610fd5565b610433600480360360a081101561032257600080fd5b6001600160a01b038235811692602081013590911691810190606081016040820135600160201b81111561035557600080fd5b82018360208201111561036757600080fd5b803590602001918460208302840111600160201b8311171561038857600080fd5b919390929091602081019035600160201b8111156103a557600080fd5b8201836020820111156103b757600080fd5b803590602001918460208302840111600160201b831117156103d857600080fd5b919390929091602081019035600160201b8111156103f557600080fd5b82018360208201111561040757600080fd5b803590602001918460018302840111600160201b8311171561042857600080fd5b509092509050610fda565b604080516001600160e01b03199092168252519081900360200190f35b610168610fee565b6101a66004803603602081101561046e57600080fd5b50356001600160a01b0316611009565b6101686004803603602081101561049457600080fd5b50356110d6565b6101a6600480360360408110156104b157600080fd5b50803590602001356001600160a01b03166110ed565b6101a6600480360360808110156104dd57600080fd5b6001600160a01b0382358116926020810135821692604082013590921691810190608081016060820135600160201b81111561051857600080fd5b82018360208201111561052a57600080fd5b803590602001918460018302840111600160201b8311171561054b57600080fd5b509092509050611146565b6101686115dc565b610433600480360360a081101561057457600080fd5b6001600160a01b03823581169260208101359091169160408201359160608101359181019060a081016080820135600160201b8111156105b357600080fd5b8201836020820111156105c557600080fd5b803590602001918460018302840111600160201b831117156105e657600080fd5b509092509050611600565b6001600160e01b0319811660009081526020819052604090205460ff165b919050565b60009081526001602052604090206002015490565b60008281526001602052604090206002015461064c9061064761160c565b610fb7565b6106875760405162461bcd60e51b815260040180806020018281038252602f81526020018061207e602f913960400191505060405180910390fd5b6106918282611611565b5050565b61069d61160c565b6001600160a01b0316816001600160a01b0316146106ec5760405162461bcd60e51b815260040180806020018281038252602f8152602001806121fc602f913960400191505060405180910390fd5b6106918282611680565b604080516f436861696e457869744552433131353560801b8152905190819003601001902081565b604080516b4d414e414745525f524f4c4560a01b8152905190819003600c01902061074b8161064761160c565b6002906107eb5760405162461bcd60e51b81526020600482019081528254600260001961010060018416150201909116046024830181905290918291604490910190849080156107dc5780601f106107b1576101008083540402835291602001916107dc565b820191906000526020600020905b8154815290600101906020018083116107bf57829003601f168201915b50509250505060405180910390fd5b5060606107ff6107fa846116ef565b611714565b905060606108208260018151811061081357fe5b6020026020010151611714565b905060606108418360028151811061083457fe5b60200260200101516117fc565b90506040518080612170602c9139602c01905060405180910390206108798360008151811061086c57fe5b6020026020010151611879565b1415610f505760006108918360018151811061086c57fe5b90506001600160a01b0381166108d85760405162461bcd60e51b815260040180806020018281038252602b8152602001806120e6602b913960400191505060405180910390fd5b60608060608480602001905160608110156108f257600080fd5b8101908080516040519392919084600160201b82111561091157600080fd5b90830190602082018581111561092657600080fd5b82518660208202830111600160201b8211171561094257600080fd5b82525081516020918201928201910280838360005b8381101561096f578181015183820152602001610957565b5050505090500160405260200180516040519392919084600160201b82111561099757600080fd5b9083019060208201858111156109ac57600080fd5b82518660208202830111600160201b821117156109c857600080fd5b82525081516020918201928201910280838360005b838110156109f55781810151838201526020016109dd565b5050505090500160405260200180516040519392919084600160201b821115610a1d57600080fd5b908301906020820185811115610a3257600080fd5b8251600160201b811182820188101715610a4b57600080fd5b82525081516020918201929091019080838360005b83811015610a78578181015183820152602001610a60565b50505050905090810190601f168015610aa55780820380516001836020036101000a031916815260200191505b5060405250505092509250925060008a90506060816001600160a01b0316634e1273f4610ad33088516118c7565b876040518363ffffffff1660e01b8152600401808060200180602001838103835285818151815260200191508051906020019060200280838360005b83811015610b27578181015183820152602001610b0f565b50505050905001838103825284818151815260200191508051906020019060200280838360005b83811015610b66578181015183820152602001610b4e565b5050505090500194505050505060006040518083038186803b158015610b8b57600080fd5b505afa158015610b9f573d6000803e3d6000fd5b505050506040513d6000823e601f3d908101601f191682016040526020811015610bc857600080fd5b8101908080516040519392919084600160201b821115610be757600080fd5b908301906020820185811115610bfc57600080fd5b82518660208202830111600160201b82111715610c1857600080fd5b82525081516020918201928201910280838360005b83811015610c45578181015183820152602001610c2d565b5050505090500160405250505090506060600080610c6384886119d3565b9250925092508115610dd657846001600160a01b0316631f7fdffa8a8a868a6040518563ffffffff1660e01b815260040180856001600160a01b03166001600160a01b03168152602001806020018060200180602001848103845287818151815260200191508051906020019060200280838360005b83811015610cf1578181015183820152602001610cd9565b50505050905001848103835286818151815260200191508051906020019060200280838360005b83811015610d30578181015183820152602001610d18565b50505050905001848103825285818151815260200191508051906020019080838360005b83811015610d6c578181015183820152602001610d54565b50505050905090810190601f168015610d995780820380516001836020036101000a031916815260200191505b50975050505050505050600060405180830381600087803b158015610dbd57600080fd5b505af1158015610dd1573d6000803e3d6000fd5b505050505b8015610f4257604051631759616b60e11b815230600482018181526001600160a01b038c8116602485015260a0604485019081528c5160a48601528c51918a1694632eb2c2d694938f938f938c938f93926064820191608481019160c4909101906020808a01910280838360005b83811015610e5c578181015183820152602001610e44565b50505050905001848103835286818151815260200191508051906020019060200280838360005b83811015610e9b578181015183820152602001610e83565b50505050905001848103825285818151815260200191508051906020019080838360005b83811015610ed7578181015183820152602001610ebf565b50505050905090810190601f168015610f045780820380516001836020036101000a031916815260200191505b5098505050505050505050600060405180830381600087803b158015610f2957600080fd5b505af1158015610f3d573d6000803e3d6000fd5b505050505b505050505050505050610f87565b60405162461bcd60e51b815260040180806020018281038252602f815260200180612111602f913960400191505060405180910390fd5b50505050505050565b6000828152600160205260408120610fae908363ffffffff611b1c16565b90505b92915050565b6000828152600160205260408120610fae908363ffffffff611b2816565b600081565b63bc197c8160e01b98975050505050505050565b60405180602c6121708239602c019050604051809103902081565b60035460ff1615611052576040805162461bcd60e51b815260206004820152600e60248201526d185b1c9958591e481a5b9a5d195960921b604482015290519081900360640190fd5b6110906040518060400160405280601981526020017f436861696e457869744552433131353550726564696361746500000000000000815250611b3d565b61109b600082610687565b604080516b4d414e414745525f524f4c4560a01b8152905190819003600c0190206110c69082610687565b506003805460ff19166001179055565b6000818152600160205260408120610fb190611bdb565b60008281526001602052604090206002015461110b9061064761160c565b6106ec5760405162461bcd60e51b81526004018080602001828103825260308152602001806121406030913960400191505060405180910390fd5b604080516b4d414e414745525f524f4c4560a01b8152905190819003600c0190206111738161064761160c565b6002906111d95760405162461bcd60e51b81526020600482019081528254600260001961010060018416150201909116046024830181905290918291604490910190849080156107dc5780601f106107b1576101008083540402835291602001916107dc565b506060806060858560608110156111ef57600080fd5b810190602081018135600160201b81111561120957600080fd5b82018360208201111561121b57600080fd5b803590602001918460208302840111600160201b8311171561123c57600080fd5b9190808060200260200160405190810160405280939291908181526020018383602002808284376000920191909152509295949360208101935035915050600160201b81111561128b57600080fd5b82018360208201111561129d57600080fd5b803590602001918460208302840111600160201b831117156112be57600080fd5b9190808060200260200160405190810160405280939291908181526020018383602002808284376000920191909152509295949360208101935035915050600160201b81111561130d57600080fd5b82018360208201111561131f57600080fd5b803590602001918460018302840111600160201b8311171561134057600080fd5b91908080601f016020809104026020016040519081016040528093929190818152602001838380828437600081840152601f19601f820116905080830192505050505050509192919290505050925092509250866001600160a01b0316886001600160a01b03168a6001600160a01b03167fecf1f094c6a68f46c74b2e3aae719d6996bf2172e8bac7413a744748938da99e8686604051808060200180602001838103835285818151815260200191508051906020019060200280838360005b83811015611418578181015183820152602001611400565b50505050905001838103825284818151815260200191508051906020019060200280838360005b8381101561145757818101518382015260200161143f565b5050505090500194505050505060405180910390a4604051631759616b60e11b81526001600160a01b038a811660048301908152306024840181905260a060448501908152875160a48601528751938c1694632eb2c2d6948f948a938a938a936064820191608481019160c4909101906020808a01910280838360005b838110156114ec5781810151838201526020016114d4565b50505050905001848103835286818151815260200191508051906020019060200280838360005b8381101561152b578181015183820152602001611513565b50505050905001848103825285818151815260200191508051906020019080838360005b8381101561156757818101518382015260200161154f565b50505050905090810190601f1680156115945780820380516001836020036101000a031916815260200191505b5098505050505050505050600060405180830381600087803b1580156115b957600080fd5b505af11580156115cd573d6000803e3d6000fd5b50505050505050505050505050565b604080516b4d414e414745525f524f4c4560a01b8152905190819003600c01902081565b60009695505050505050565b335b90565b600082815260016020526040902061162f908263ffffffff611be616565b156106915761163c61160c565b6001600160a01b0316816001600160a01b0316837f2f8788117e7eff1d82e926ec794901d17c78024a50270940304540a733656f0d60405160405180910390a45050565b600082815260016020526040902061169e908263ffffffff611bfb16565b15610691576116ab61160c565b6001600160a01b0316816001600160a01b0316837ff6391f5c32d9c69d2a47ea670b442974b53935d1edc7fd64eb21e047a839171b60405160405180910390a45050565b6116f7611fa9565b506040805180820190915281518152602082810190820152919050565b606061171f82611c10565b61172857600080fd5b600061173383611c4a565b905060608167ffffffffffffffff8111801561174e57600080fd5b5060405190808252806020026020018201604052801561178857816020015b611775611fa9565b81526020019060019003908161176d5790505b509050600061179a8560200151611ca6565b60208601510190506000805b848110156117f1576117b783611d09565b91506040518060400160405280838152602001848152508482815181106117da57fe5b6020908102919091010152918101916001016117a6565b509195945050505050565b805160609061180a57600080fd5b60008061181684611da2565b9150915060608167ffffffffffffffff8111801561183357600080fd5b506040519080825280601f01601f19166020018201604052801561185e576020820181803683370190505b50905060208101611870848285611dc8565b50949350505050565b80516000901580159061188e57508151602110155b61189757600080fd5b6000806118a384611da2565b8151919350915060208210156118bf5760208290036101000a90045b949350505050565b60606001600160a01b03831661190e5760405162461bcd60e51b815260040180806020018281038252602a8152602001806121d2602a913960400191505060405180910390fd5b6000821161194d5760405162461bcd60e51b81526004018080602001828103825260398152602001806120ad6039913960400191505060405180910390fd5b60608267ffffffffffffffff8111801561196657600080fd5b50604051908082528060200260200182016040528015611990578160200160208202803683370190505b50905060005b838110156119cb57848282815181106119ab57fe5b6001600160a01b0390921660209283029190910190910152600101611996565b509392505050565b606060008060008551905084518114611a1d5760405162461bcd60e51b815260040180806020018281038252603681526020018061219c6036913960400191505060405180910390fd5b60608167ffffffffffffffff81118015611a3657600080fd5b50604051908082528060200260200182016040528015611a60578160200160208202803683370190505b509050600080805b84811015611b0c57888181518110611a7c57fe5b60200260200101518a8281518110611a9057fe5b60200260200101511015611ae457898181518110611aaa57fe5b6020026020010151898281518110611abe57fe5b602002602001015103848281518110611ad357fe5b602002602001018181525050600192505b898181518110611af057fe5b6020026020010151600014611b0457600191505b600101611a68565b5091955093509150509250925092565b6000610fae8383611e19565b6000610fae836001600160a01b038416611e7d565b806040516020018082805190602001908083835b60208310611b705780518252601f199092019160209182019101611b51565b51815160209384036101000a60001901801990921691161790527f3a20494e53554646494349454e545f5045524d495353494f4e530000000000009190930190815260408051808303600519018152601a909201905280516106919550600294509201919050611fc3565b6000610fb182611e95565b6000610fae836001600160a01b038416611e99565b6000610fae836001600160a01b038416611ee3565b8051600090611c215750600061060f565b6020820151805160001a9060c0821015611c405760009250505061060f565b5060019392505050565b8051600090611c5b5750600061060f565b60008090506000611c6f8460200151611ca6565b602085015185519181019250015b80821015611c9d57611c8e82611d09565b60019093019290910190611c7d565b50909392505050565b8051600090811a6080811015611cc057600091505061060f565b60b8811080611cdb575060c08110801590611cdb575060f881105b15611cea57600191505061060f565b60c0811015611cfe5760b51901905061060f565b60f51901905061060f565b80516000908190811a6080811015611d245760019150611d9b565b60b8811015611d3957607e1981019150611d9b565b60c0811015611d665760b78103600185019450806020036101000a85510460018201810193505050611d9b565b60f8811015611d7b5760be1981019150611d9b565b60f78103600185019450806020036101000a855104600182018101935050505b5092915050565b6000806000611db48460200151611ca6565b602085015194519481019594039392505050565b80611dd257611e14565b5b60208110611df2578251825260209283019290910190601f1901611dd3565b8015611e14578251825160208390036101000a60001901801990921691161782525b505050565b81546000908210611e5b5760405162461bcd60e51b815260040180806020018281038252602281526020018061205c6022913960400191505060405180910390fd5b826000018281548110611e6a57fe5b9060005260206000200154905092915050565b60009081526001919091016020526040902054151590565b5490565b6000611ea58383611e7d565b611edb57508154600181810184556000848152602080822090930184905584548482528286019093526040902091909155610fb1565b506000610fb1565b60008181526001830160205260408120548015611f9f5783546000198083019190810190600090879083908110611f1657fe5b9060005260206000200154905080876000018481548110611f3357fe5b600091825260208083209091019290925582815260018981019092526040902090840190558654879080611f6357fe5b60019003818190600052602060002001600090559055866001016000878152602001908152602001600020600090556001945050505050610fb1565b6000915050610fb1565b604051806040016040528060008152602001600081525090565b828054600181600116156101000203166002900490600052602060002090601f016020900481019282601f1061200457805160ff1916838001178555612031565b82800160010185558215612031579182015b82811115612031578251825591602001919060010190612016565b5061203d929150612041565b5090565b61160e91905b8082111561203d576000815560010161204756fe456e756d657261626c655365743a20696e646578206f7574206f6620626f756e6473416363657373436f6e74726f6c3a2073656e646572206d75737420626520616e2061646d696e20746f206772616e74436861696e45786974455243313135355072656469636174653a20496e76616c696420726573756c74696e67206172726179206c656e677468436861696e45786974455243313135355072656469636174653a20494e56414c49445f5245434549564552436861696e45786974455243313135355072656469636174653a20494e56414c49445f57495448445241575f534947416363657373436f6e74726f6c3a2073656e646572206d75737420626520616e2061646d696e20746f207265766f6b65436861696e4578697428616464726573732c75696e743235365b5d2c75696e743235365b5d2c627974657329436861696e45786974455243313135355072656469636174653a204172726179206c656e677468206d69736d6174636820666f756e64436861696e45786974455243313135355072656469636174653a20496e76616c69642061646472657373416363657373436f6e74726f6c3a2063616e206f6e6c792072656e6f756e636520726f6c657320666f722073656c66a2646970667358221220c63460b40384acddf045bff77e2715d31565a832b71b524a06eae9d85fa983a464736f6c63430006060033",
  "immutableReferences": {},
  "source": "pragma solidity 0.6.6;\n\nimport {IMintableERC1155} from \"../RootToken/IMintableERC1155.sol\";\nimport {\n    ERC1155Receiver\n} from \"@openzeppelin/contracts/token/ERC1155/ERC1155Receiver.sol\";\nimport {AccessControlMixin} from \"../../common/AccessControlMixin.sol\";\nimport {RLPReader} from \"../../lib/RLPReader.sol\";\nimport {ITokenPredicate} from \"./ITokenPredicate.sol\";\nimport {Initializable} from \"../../common/Initializable.sol\";\n\ncontract ChainExitERC1155Predicate is\n    ITokenPredicate,\n    ERC1155Receiver,\n    AccessControlMixin,\n    Initializable\n{\n    using RLPReader for bytes;\n    using RLPReader for RLPReader.RLPItem;\n\n    bytes32 public constant MANAGER_ROLE = keccak256(\"MANAGER_ROLE\");\n    bytes32 public constant TOKEN_TYPE = keccak256(\"ChainExitERC1155\");\n    // Only this event is considered in exit function : ChainExit(address indexed to, uint256[] tokenId, uint256[] amount, bytes data)\n    bytes32 public constant CHAIN_EXIT_EVENT_SIG = keccak256(\"ChainExit(address,uint256[],uint256[],bytes)\");\n\n    event LockedBatchChainExitERC1155(\n        address indexed depositor,\n        address indexed depositReceiver,\n        address indexed rootToken,\n        uint256[] ids,\n        uint256[] amounts\n    );\n\n    constructor() public {}\n\n    function initialize(address _owner) external initializer {\n        _setupContractId(\"ChainExitERC1155Predicate\");\n        _setupRole(DEFAULT_ADMIN_ROLE, _owner);\n        _setupRole(MANAGER_ROLE, _owner);\n    }\n\n    /**\n     * @notice rejects single transfer\n     */\n    function onERC1155Received(\n        address,\n        address,\n        uint256,\n        uint256,\n        bytes calldata\n    ) external override returns (bytes4) {\n        return 0;\n    }\n\n    /**\n     * @notice accepts batch transfer\n     */\n    function onERC1155BatchReceived(\n        address,\n        address,\n        uint256[] calldata,\n        uint256[] calldata,\n        bytes calldata\n    ) external override returns (bytes4) {\n        return ERC1155Receiver(0).onERC1155BatchReceived.selector;\n    }\n\n    /**\n     * @notice Lock ERC1155 tokens for deposit, callable only by manager\n     * @param depositor Address who wants to deposit tokens\n     * @param depositReceiver Address (address) who wants to receive tokens on child chain\n     * @param rootToken Token which gets deposited\n     * @param depositData ABI encoded id array and amount array\n     */\n    function lockTokens(\n        address depositor,\n        address depositReceiver,\n        address rootToken,\n        bytes calldata depositData\n    ) external override only(MANAGER_ROLE) {\n        // forcing batch deposit since supporting both single and batch deposit introduces too much complexity\n        (\n            uint256[] memory ids,\n            uint256[] memory amounts,\n            bytes memory data\n        ) = abi.decode(depositData, (uint256[], uint256[], bytes));\n\n        emit LockedBatchChainExitERC1155(\n            depositor,\n            depositReceiver,\n            rootToken,\n            ids,\n            amounts\n        );\n        IMintableERC1155(rootToken).safeBatchTransferFrom(\n            depositor,\n            address(this),\n            ids,\n            amounts,\n            data\n        );\n    }\n\n    /**\n     * @notice Creates an array of `size` by repeating provided address,\n     * to be required for passing to batched balance checking function of ERC1155 tokens.\n     * @param addr Address to be repeated `size` times in resulting array\n     * @param size Size of resulting array\n     */\n    function makeArrayWithAddress(address addr, uint256 size)\n        internal\n        pure\n        returns (address[] memory)\n    {\n        require(\n            addr != address(0),\n            \"ChainExitERC1155Predicate: Invalid address\"\n        );\n        require(\n            size > 0,\n            \"ChainExitERC1155Predicate: Invalid resulting array length\"\n        );\n\n        address[] memory addresses = new address[](size);\n\n        for (uint256 i = 0; i < size; i++) {\n            addresses[i] = addr;\n        }\n\n        return addresses;\n    }\n\n    /**\n     * @notice Calculates amount of tokens to be minted, by subtracting available\n     * token balances from amount of tokens to be exited\n     * @param balances Token balances this contract holds for some ordered token ids\n     * @param exitAmounts Amount of tokens being exited\n     */\n    function calculateAmountsToBeMinted(\n        uint256[] memory balances,\n        uint256[] memory exitAmounts\n    ) internal pure returns (uint256[] memory, bool, bool) {\n        uint256 count = balances.length;\n        require(\n            count == exitAmounts.length,\n            \"ChainExitERC1155Predicate: Array length mismatch found\"\n        );\n\n        uint256[] memory toBeMinted = new uint256[](count);\n        bool needMintStep;\n        bool needTransferStep;\n\n        for (uint256 i = 0; i < count; i++) {\n            if (balances[i] < exitAmounts[i]) {\n                toBeMinted[i] = exitAmounts[i] - balances[i];\n                needMintStep = true;\n            }\n\n            if(balances[i] != 0) {\n                needTransferStep = true;\n            }\n        }\n\n        return (toBeMinted, needMintStep, needTransferStep);\n    }\n\n    /**\n     * @notice Validates log signature, withdrawer address\n     * then sends the correct tokenId, amount to withdrawer\n     * callable only by manager\n     * @param rootToken Token which gets withdrawn\n     * @param log Valid ChainExit log from child chain\n     */\n    function exitTokens(\n        address,\n        address rootToken,\n        bytes memory log\n    ) public override only(MANAGER_ROLE) {\n        RLPReader.RLPItem[] memory logRLPList = log.toRlpItem().toList();\n        RLPReader.RLPItem[] memory logTopicRLPList = logRLPList[1].toList();\n        bytes memory logData = logRLPList[2].toBytes();\n\n        if (bytes32(logTopicRLPList[0].toUint()) == CHAIN_EXIT_EVENT_SIG) {\n\n            address withdrawer = address(logTopicRLPList[1].toUint());\n            require(withdrawer != address(0), \"ChainExitERC1155Predicate: INVALID_RECEIVER\");\n\n            (uint256[] memory ids, uint256[] memory amounts, bytes memory data) = abi.decode(\n                logData,\n                (uint256[], uint256[], bytes)\n            );\n\n            IMintableERC1155 token = IMintableERC1155(rootToken);\n\n            uint256[] memory balances = token.balanceOfBatch(makeArrayWithAddress(address(this), ids.length), ids);\n            (uint256[] memory toBeMinted, bool needMintStep, bool needTransferStep) = calculateAmountsToBeMinted(balances, amounts);\n\n            if(needMintStep) {\n                token.mintBatch(\n                    withdrawer,\n                    ids,\n                    toBeMinted,\n                    data // passing data when minting to withdrawer\n                );\n            }\n\n            if(needTransferStep) {\n                token.safeBatchTransferFrom(\n                    address(this),\n                    withdrawer,\n                    ids,\n                    balances,\n                    data // passing data when transferring unlocked tokens to withdrawer\n                );\n            }\n\n        } else {\n            revert(\"ChainExitERC1155Predicate: INVALID_WITHDRAW_SIG\");\n        }\n    }\n}\n",
  "sourcePath": "/Users/ohm.jirapon/playground/blockhain/layer-2/plasma-ploygon/matic-cli/devnet/code/pos-portal/contracts/root/TokenPredicates/ChainExitERC1155Predicate.sol",
  "compiler": {
    "name": "solc",
    "version": "0.6.6+commit.6c089d02.Linux.g++"
  },
  "schemaVersion": "3.4.9",
  "updatedAt": "2022-08-18T05:43:41.496Z",
  "devdoc": {
    "methods": {
      "exitTokens(address,address,bytes)": {
        "params": {
          "log": "Valid ChainExit log from child chain",
          "rootToken": "Token which gets withdrawn"
        }
      },
      "getRoleAdmin(bytes32)": {
        "details": "Returns the admin role that controls `role`. See {grantRole} and {revokeRole}.     * To change a role's admin, use {_setRoleAdmin}."
      },
      "getRoleMember(bytes32,uint256)": {
        "details": "Returns one of the accounts that have `role`. `index` must be a value between 0 and {getRoleMemberCount}, non-inclusive.     * Role bearers are not sorted in any particular way, and their ordering may change at any point.     * WARNING: When using {getRoleMember} and {getRoleMemberCount}, make sure you perform all queries on the same block. See the following https://forum.openzeppelin.com/t/iterating-over-elements-on-enumerableset-in-openzeppelin-contracts/2296[forum post] for more information."
      },
      "getRoleMemberCount(bytes32)": {
        "details": "Returns the number of accounts that have `role`. Can be used together with {getRoleMember} to enumerate all bearers of a role."
      },
      "grantRole(bytes32,address)": {
        "details": "Grants `role` to `account`.     * If `account` had not been already granted `role`, emits a {RoleGranted} event.     * Requirements:     * - the caller must have ``role``'s admin role."
      },
      "hasRole(bytes32,address)": {
        "details": "Returns `true` if `account` has been granted `role`."
      },
      "lockTokens(address,address,address,bytes)": {
        "params": {
          "depositData": "ABI encoded id array and amount array",
          "depositReceiver": "Address (address) who wants to receive tokens on child chain",
          "depositor": "Address who wants to deposit tokens",
          "rootToken": "Token which gets deposited"
        }
      },
      "renounceRole(bytes32,address)": {
        "details": "Revokes `role` from the calling account.     * Roles are often managed via {grantRole} and {revokeRole}: this function's purpose is to provide a mechanism for accounts to lose their privileges if they are compromised (such as when a trusted device is misplaced).     * If the calling account had been granted `role`, emits a {RoleRevoked} event.     * Requirements:     * - the caller must be `account`."
      },
      "revokeRole(bytes32,address)": {
        "details": "Revokes `role` from `account`.     * If `account` had been granted `role`, emits a {RoleRevoked} event.     * Requirements:     * - the caller must have ``role``'s admin role."
      },
      "supportsInterface(bytes4)": {
        "details": "See {IERC165-supportsInterface}.     * Time complexity O(1), guaranteed to always use less than 30 000 gas."
      }
    }
  },
  "userdoc": {
    "methods": {
      "exitTokens(address,address,bytes)": {
        "notice": "Validates log signature, withdrawer address then sends the correct tokenId, amount to withdrawer callable only by manager"
      },
      "lockTokens(address,address,address,bytes)": {
        "notice": "Lock ERC1155 tokens for deposit, callable only by manager"
      },
      "onERC1155BatchReceived(address,address,uint256[],uint256[],bytes)": {
        "notice": "accepts batch transfer"
      },
      "onERC1155Received(address,address,uint256,uint256,bytes)": {
        "notice": "rejects single transfer"
      }
    }
  }
}