{
  "contractName": "ChildMintableERC1155",
  "abi": [
    {
      "inputs": [
        {
          "internalType": "string",
          "name": "uri_",
          "type": "string"
        },
        {
          "internalType": "address",
          "name": "childChainManager",
          "type": "address"
        }
      ],
      "stateMutability": "nonpayable",
      "type": "constructor"
    },
    {
      "anonymous": false,
      "inputs": [
        {
          "indexed": true,
          "internalType": "address",
          "name": "account",
          "type": "address"
        },
        {
          "indexed": true,
          "internalType": "address",
          "name": "operator",
          "type": "address"
        },
        {
          "indexed": false,
          "internalType": "bool",
          "name": "approved",
          "type": "bool"
        }
      ],
      "name": "ApprovalForAll",
      "type": "event"
    },
    {
      "anonymous": false,
      "inputs": [
        {
          "indexed": false,
          "internalType": "address",
          "name": "userAddress",
          "type": "address"
        },
        {
          "indexed": false,
          "internalType": "address payable",
          "name": "relayerAddress",
          "type": "address"
        },
        {
          "indexed": false,
          "internalType": "bytes",
          "name": "functionSignature",
          "type": "bytes"
        }
      ],
      "name": "MetaTransactionExecuted",
      "type": "event"
    },
    {
      "anonymous": false,
      "inputs": [
        {
          "indexed": true,
          "internalType": "bytes32",
          "name": "role",
          "type": "bytes32"
        },
        {
          "indexed": true,
          "internalType": "bytes32",
          "name": "previousAdminRole",
          "type": "bytes32"
        },
        {
          "indexed": true,
          "internalType": "bytes32",
          "name": "newAdminRole",
          "type": "bytes32"
        }
      ],
      "name": "RoleAdminChanged",
      "type": "event"
    },
    {
      "anonymous": false,
      "inputs": [
        {
          "indexed": true,
          "internalType": "bytes32",
          "name": "role",
          "type": "bytes32"
        },
        {
          "indexed": true,
          "internalType": "address",
          "name": "account",
          "type": "address"
        },
        {
          "indexed": true,
          "internalType": "address",
          "name": "sender",
          "type": "address"
        }
      ],
      "name": "RoleGranted",
      "type": "event"
    },
    {
      "anonymous": false,
      "inputs": [
        {
          "indexed": true,
          "internalType": "bytes32",
          "name": "role",
          "type": "bytes32"
        },
        {
          "indexed": true,
          "internalType": "address",
          "name": "account",
          "type": "address"
        },
        {
          "indexed": true,
          "internalType": "address",
          "name": "sender",
          "type": "address"
        }
      ],
      "name": "RoleRevoked",
      "type": "event"
    },
    {
      "anonymous": false,
      "inputs": [
        {
          "indexed": true,
          "internalType": "address",
          "name": "operator",
          "type": "address"
        },
        {
          "indexed": true,
          "internalType": "address",
          "name": "from",
          "type": "address"
        },
        {
          "indexed": true,
          "internalType": "address",
          "name": "to",
          "type": "address"
        },
        {
          "indexed": false,
          "internalType": "uint256[]",
          "name": "ids",
          "type": "uint256[]"
        },
        {
          "indexed": false,
          "internalType": "uint256[]",
          "name": "values",
          "type": "uint256[]"
        }
      ],
      "name": "TransferBatch",
      "type": "event"
    },
    {
      "anonymous": false,
      "inputs": [
        {
          "indexed": true,
          "internalType": "address",
          "name": "operator",
          "type": "address"
        },
        {
          "indexed": true,
          "internalType": "address",
          "name": "from",
          "type": "address"
        },
        {
          "indexed": true,
          "internalType": "address",
          "name": "to",
          "type": "address"
        },
        {
          "indexed": false,
          "internalType": "uint256",
          "name": "id",
          "type": "uint256"
        },
        {
          "indexed": false,
          "internalType": "uint256",
          "name": "value",
          "type": "uint256"
        }
      ],
      "name": "TransferSingle",
      "type": "event"
    },
    {
      "anonymous": false,
      "inputs": [
        {
          "indexed": false,
          "internalType": "string",
          "name": "value",
          "type": "string"
        },
        {
          "indexed": true,
          "internalType": "uint256",
          "name": "id",
          "type": "uint256"
        }
      ],
      "name": "URI",
      "type": "event"
    },
    {
      "inputs": [],
      "name": "DEFAULT_ADMIN_ROLE",
      "outputs": [
        {
          "internalType": "bytes32",
          "name": "",
          "type": "bytes32"
        }
      ],
      "stateMutability": "view",
      "type": "function",
      "constant": true
    },
    {
      "inputs": [],
      "name": "DEPOSITOR_ROLE",
      "outputs": [
        {
          "internalType": "bytes32",
          "name": "",
          "type": "bytes32"
        }
      ],
      "stateMutability": "view",
      "type": "function",
      "constant": true
    },
    {
      "inputs": [],
      "name": "ERC712_VERSION",
      "outputs": [
        {
          "internalType": "string",
          "name": "",
          "type": "string"
        }
      ],
      "stateMutability": "view",
      "type": "function",
      "constant": true
    },
    {
      "inputs": [
        {
          "internalType": "address",
          "name": "account",
          "type": "address"
        },
        {
          "internalType": "uint256",
          "name": "id",
          "type": "uint256"
        }
      ],
      "name": "balanceOf",
      "outputs": [
        {
          "internalType": "uint256",
          "name": "",
          "type": "uint256"
        }
      ],
      "stateMutability": "view",
      "type": "function",
      "constant": true
    },
    {
      "inputs": [
        {
          "internalType": "address[]",
          "name": "accounts",
          "type": "address[]"
        },
        {
          "internalType": "uint256[]",
          "name": "ids",
          "type": "uint256[]"
        }
      ],
      "name": "balanceOfBatch",
      "outputs": [
        {
          "internalType": "uint256[]",
          "name": "",
          "type": "uint256[]"
        }
      ],
      "stateMutability": "view",
      "type": "function",
      "constant": true
    },
    {
      "inputs": [
        {
          "internalType": "address",
          "name": "userAddress",
          "type": "address"
        },
        {
          "internalType": "bytes",
          "name": "functionSignature",
          "type": "bytes"
        },
        {
          "internalType": "bytes32",
          "name": "sigR",
          "type": "bytes32"
        },
        {
          "internalType": "bytes32",
          "name": "sigS",
          "type": "bytes32"
        },
        {
          "internalType": "uint8",
          "name": "sigV",
          "type": "uint8"
        }
      ],
      "name": "executeMetaTransaction",
      "outputs": [
        {
          "internalType": "bytes",
          "name": "",
          "type": "bytes"
        }
      ],
      "stateMutability": "payable",
      "type": "function",
      "payable": true
    },
    {
      "inputs": [],
      "name": "getChainId",
      "outputs": [
        {
          "internalType": "uint256",
          "name": "",
          "type": "uint256"
        }
      ],
      "stateMutability": "pure",
      "type": "function",
      "constant": true
    },
    {
      "inputs": [],
      "name": "getDomainSeperator",
      "outputs": [
        {
          "internalType": "bytes32",
          "name": "",
          "type": "bytes32"
        }
      ],
      "stateMutability": "view",
      "type": "function",
      "constant": true
    },
    {
      "inputs": [
        {
          "internalType": "address",
          "name": "user",
          "type": "address"
        }
      ],
      "name": "getNonce",
      "outputs": [
        {
          "internalType": "uint256",
          "name": "nonce",
          "type": "uint256"
        }
      ],
      "stateMutability": "view",
      "type": "function",
      "constant": true
    },
    {
      "inputs": [
        {
          "internalType": "bytes32",
          "name": "role",
          "type": "bytes32"
        }
      ],
      "name": "getRoleAdmin",
      "outputs": [
        {
          "internalType": "bytes32",
          "name": "",
          "type": "bytes32"
        }
      ],
      "stateMutability": "view",
      "type": "function",
      "constant": true
    },
    {
      "inputs": [
        {
          "internalType": "bytes32",
          "name": "role",
          "type": "bytes32"
        },
        {
          "internalType": "uint256",
          "name": "index",
          "type": "uint256"
        }
      ],
      "name": "getRoleMember",
      "outputs": [
        {
          "internalType": "address",
          "name": "",
          "type": "address"
        }
      ],
      "stateMutability": "view",
      "type": "function",
      "constant": true
    },
    {
      "inputs": [
        {
          "internalType": "bytes32",
          "name": "role",
          "type": "bytes32"
        }
      ],
      "name": "getRoleMemberCount",
      "outputs": [
        {
          "internalType": "uint256",
          "name": "",
          "type": "uint256"
        }
      ],
      "stateMutability": "view",
      "type": "function",
      "constant": true
    },
    {
      "inputs": [
        {
          "internalType": "bytes32",
          "name": "role",
          "type": "bytes32"
        },
        {
          "internalType": "address",
          "name": "account",
          "type": "address"
        }
      ],
      "name": "grantRole",
      "outputs": [],
      "stateMutability": "nonpayable",
      "type": "function"
    },
    {
      "inputs": [
        {
          "internalType": "bytes32",
          "name": "role",
          "type": "bytes32"
        },
        {
          "internalType": "address",
          "name": "account",
          "type": "address"
        }
      ],
      "name": "hasRole",
      "outputs": [
        {
          "internalType": "bool",
          "name": "",
          "type": "bool"
        }
      ],
      "stateMutability": "view",
      "type": "function",
      "constant": true
    },
    {
      "inputs": [
        {
          "internalType": "address",
          "name": "account",
          "type": "address"
        },
        {
          "internalType": "address",
          "name": "operator",
          "type": "address"
        }
      ],
      "name": "isApprovedForAll",
      "outputs": [
        {
          "internalType": "bool",
          "name": "",
          "type": "bool"
        }
      ],
      "stateMutability": "view",
      "type": "function",
      "constant": true
    },
    {
      "inputs": [
        {
          "internalType": "bytes32",
          "name": "role",
          "type": "bytes32"
        },
        {
          "internalType": "address",
          "name": "account",
          "type": "address"
        }
      ],
      "name": "renounceRole",
      "outputs": [],
      "stateMutability": "nonpayable",
      "type": "function"
    },
    {
      "inputs": [
        {
          "internalType": "bytes32",
          "name": "role",
          "type": "bytes32"
        },
        {
          "internalType": "address",
          "name": "account",
          "type": "address"
        }
      ],
      "name": "revokeRole",
      "outputs": [],
      "stateMutability": "nonpayable",
      "type": "function"
    },
    {
      "inputs": [
        {
          "internalType": "address",
          "name": "from",
          "type": "address"
        },
        {
          "internalType": "address",
          "name": "to",
          "type": "address"
        },
        {
          "internalType": "uint256[]",
          "name": "ids",
          "type": "uint256[]"
        },
        {
          "internalType": "uint256[]",
          "name": "amounts",
          "type": "uint256[]"
        },
        {
          "internalType": "bytes",
          "name": "data",
          "type": "bytes"
        }
      ],
      "name": "safeBatchTransferFrom",
      "outputs": [],
      "stateMutability": "nonpayable",
      "type": "function"
    },
    {
      "inputs": [
        {
          "internalType": "address",
          "name": "from",
          "type": "address"
        },
        {
          "internalType": "address",
          "name": "to",
          "type": "address"
        },
        {
          "internalType": "uint256",
          "name": "id",
          "type": "uint256"
        },
        {
          "internalType": "uint256",
          "name": "amount",
          "type": "uint256"
        },
        {
          "internalType": "bytes",
          "name": "data",
          "type": "bytes"
        }
      ],
      "name": "safeTransferFrom",
      "outputs": [],
      "stateMutability": "nonpayable",
      "type": "function"
    },
    {
      "inputs": [
        {
          "internalType": "address",
          "name": "operator",
          "type": "address"
        },
        {
          "internalType": "bool",
          "name": "approved",
          "type": "bool"
        }
      ],
      "name": "setApprovalForAll",
      "outputs": [],
      "stateMutability": "nonpayable",
      "type": "function"
    },
    {
      "inputs": [
        {
          "internalType": "bytes4",
          "name": "interfaceId",
          "type": "bytes4"
        }
      ],
      "name": "supportsInterface",
      "outputs": [
        {
          "internalType": "bool",
          "name": "",
          "type": "bool"
        }
      ],
      "stateMutability": "view",
      "type": "function",
      "constant": true
    },
    {
      "inputs": [
        {
          "internalType": "uint256",
          "name": "",
          "type": "uint256"
        }
      ],
      "name": "uri",
      "outputs": [
        {
          "internalType": "string",
          "name": "",
          "type": "string"
        }
      ],
      "stateMutability": "view",
      "type": "function",
      "constant": true
    },
    {
      "inputs": [
        {
          "internalType": "address",
          "name": "user",
          "type": "address"
        },
        {
          "internalType": "bytes",
          "name": "depositData",
          "type": "bytes"
        }
      ],
      "name": "deposit",
      "outputs": [],
      "stateMutability": "nonpayable",
      "type": "function"
    },
    {
      "inputs": [
        {
          "internalType": "uint256",
          "name": "id",
          "type": "uint256"
        },
        {
          "internalType": "uint256",
          "name": "amount",
          "type": "uint256"
        }
      ],
      "name": "withdrawSingle",
      "outputs": [],
      "stateMutability": "nonpayable",
      "type": "function"
    },
    {
      "inputs": [
        {
          "internalType": "uint256[]",
          "name": "ids",
          "type": "uint256[]"
        },
        {
          "internalType": "uint256[]",
          "name": "amounts",
          "type": "uint256[]"
        }
      ],
      "name": "withdrawBatch",
      "outputs": [],
      "stateMutability": "nonpayable",
      "type": "function"
    },
    {
      "inputs": [
        {
          "internalType": "address",
          "name": "account",
          "type": "address"
        },
        {
          "internalType": "uint256",
          "name": "id",
          "type": "uint256"
        },
        {
          "internalType": "uint256",
          "name": "amount",
          "type": "uint256"
        },
        {
          "internalType": "bytes",
          "name": "data",
          "type": "bytes"
        }
      ],
      "name": "mint",
      "outputs": [],
      "stateMutability": "nonpayable",
      "type": "function"
    },
    {
      "inputs": [
        {
          "internalType": "address",
          "name": "to",
          "type": "address"
        },
        {
          "internalType": "uint256[]",
          "name": "ids",
          "type": "uint256[]"
        },
        {
          "internalType": "uint256[]",
          "name": "amounts",
          "type": "uint256[]"
        },
        {
          "internalType": "bytes",
          "name": "data",
          "type": "bytes"
        }
      ],
      "name": "mintBatch",
      "outputs": [],
      "stateMutability": "nonpayable",
      "type": "function"
    }
  ],
  "bytecode": "0x60806040526006805460ff191690553480156200001b57600080fd5b5060405162003de438038062003de4833981810160405260408110156200004157600080fd5b81019080805160405193929190846401000000008211156200006257600080fd5b9083019060208201858111156200007857600080fd5b82516401000000008111828201881017156200009357600080fd5b82525081516020918201929091019080838360005b83811015620000c2578181015183820152602001620000a8565b50505050905090810190601f168015620000f05780820380516001836020036101000a031916815260200191505b50604052602001519150829050620001186301ffc9a760e01b6001600160e01b036200022716565b6200012c816001600160e01b03620002ac16565b62000147636cdb3d1360e11b6001600160e01b036200022716565b620001626303a24d0760e21b6001600160e01b036200022716565b5060408051808201909152601481527f4368696c644d696e7461626c65455243313135350000000000000000000000006020820152620001ab906001600160e01b03620002c516565b620001d36000620001c46001600160e01b036200036716565b6001600160e01b036200038416565b604080516d4445504f5349544f525f524f4c4560901b8152905190819003600e0190206200020b90826001600160e01b036200038416565b6200021f826001600160e01b036200039916565b5050620006f1565b6001600160e01b0319808216141562000287576040805162461bcd60e51b815260206004820152601c60248201527f4552433136353a20696e76616c696420696e7465726661636520696400000000604482015290519081900360640190fd5b6001600160e01b0319166000908152602081905260409020805460ff19166001179055565b8051620002c19060039060208401906200064f565b5050565b806040516020018082805190602001908083835b60208310620002fa5780518252601f199092019160209182019101620002d9565b51815160209384036101000a60001901801990921691161790527f3a20494e53554646494349454e545f5045524d495353494f4e530000000000009190930190815260408051808303600519018152601a90920190528051620002c195506005945092019190506200064f565b60006200037e6200040760201b620030391760201c565b90505b90565b620002c182826001600160e01b036200046616565b60065460ff1615620003e3576040805162461bcd60e51b815260206004820152600e60248201526d185b1c9958591e481a5b9a5d195960921b604482015290519081900360640190fd5b620003f7816001600160e01b03620004ea16565b506006805460ff19166001179055565b600033301415620004615760606000368080601f0160208091040260200160405190810160405280939291908181526020018383808284376000920191909152505050503601516001600160a01b03169150620003819050565b503390565b60008281526004602090815260409091206200048d918390620030d3620005b2821b17901c565b15620002c157620004a66001600160e01b036200036716565b6001600160a01b0316816001600160a01b0316837f2f8788117e7eff1d82e926ec794901d17c78024a50270940304540a733656f0d60405160405180910390a45050565b6040518060800160405280604f815260200162003d95604f913980516020918201208251838301206040805180820190915260018152603160f81b930192909252907fc89efdaa54c0f20c7adf612882df0950f5a951637e0307cdcb4c672f298b8bc630620005616001600160e01b03620005db16565b604080516020808201979097528082019590955260608501939093526001600160a01b03909116608084015260a0808401919091528151808403909101815260c09092019052805191012060075550565b6000620005d2836001600160a01b0384166001600160e01b03620005df16565b90505b92915050565b4690565b6000620005f683836001600160e01b036200063716565b6200062e57508154600181810184556000848152602080822090930184905584548482528286019093526040902091909155620005d5565b506000620005d5565b60009081526001919091016020526040902054151590565b828054600181600116156101000203166002900490600052602060002090601f016020900481019282601f106200069257805160ff1916838001178555620006c2565b82800160010185558215620006c2579182015b82811115620006c2578251825591602001919060010190620006a5565b50620006d0929150620006d4565b5090565b6200038191905b80821115620006d05760008155600101620006db565b61369480620007016000396000f3fe60806040526004361061019b5760003560e01c806336568abe116100ec578063a22cb4651161008a578063cf2c52cb11610064578063cf2c52cb14610bc3578063d547741f14610c4e578063e985e9c514610c87578063f242432a14610cc25761019b565b8063a22cb46514610b49578063a3b0b5a314610b84578063ca15c87314610b995761019b565b8063731133e9116100c6578063731133e914610a185780639010d07c14610aaf57806391d1485414610afb578063a217fddf14610b345761019b565b806336568abe146107945780634e1273f4146107cd5780635c5fb5211461094d5761019b565b806320379ee5116101595780632d0335ab116101335780632d0335ab146105455780632eb2c2d6146105785780632f2ff15d146107465780633408e4701461077f5761019b565b806320379ee5146104d65780632262f53f146104eb578063248a9ca31461051b5761019b565b8062fdd58e146101a057806301ffc9a7146101eb5780630c53c51c146102335780630e89341c1461036a5780630f7e5970146103945780631f7fdffa146103a9575b600080fd5b3480156101ac57600080fd5b506101d9600480360360408110156101c357600080fd5b506001600160a01b038135169060200135610d98565b60408051918252519081900360200190f35b3480156101f757600080fd5b5061021f6004803603602081101561020e57600080fd5b50356001600160e01b031916610e0a565b604080519115158252519081900360200190f35b6102f5600480360360a081101561024957600080fd5b6001600160a01b038235169190810190604081016020820135600160201b81111561027357600080fd5b82018360208201111561028557600080fd5b803590602001918460018302840111600160201b831117156102a657600080fd5b91908080601f016020809104026020016040519081016040528093929190818152602001838380828437600092019190915250929550508235935050506020810135906040013560ff16610e29565b6040805160208082528351818301528351919283929083019185019080838360005b8381101561032f578181015183820152602001610317565b50505050905090810190601f16801561035c5780820380516001836020036101000a031916815260200191505b509250505060405180910390f35b34801561037657600080fd5b506102f56004803603602081101561038d57600080fd5b503561112c565b3480156103a057600080fd5b506102f56111c4565b3480156103b557600080fd5b506104d4600480360360808110156103cc57600080fd5b6001600160a01b038235169190810190604081016020820135600160201b8111156103f657600080fd5b82018360208201111561040857600080fd5b803590602001918460208302840111600160201b8311171561042957600080fd5b919390929091602081019035600160201b81111561044657600080fd5b82018360208201111561045857600080fd5b803590602001918460208302840111600160201b8311171561047957600080fd5b919390929091602081019035600160201b81111561049657600080fd5b8201836020820111156104a857600080fd5b803590602001918460018302840111600160201b831117156104c957600080fd5b5090925090506111e1565b005b3480156104e257600080fd5b506101d9611341565b3480156104f757600080fd5b506104d46004803603604081101561050e57600080fd5b5080359060200135611347565b34801561052757600080fd5b506101d96004803603602081101561053e57600080fd5b503561135d565b34801561055157600080fd5b506101d96004803603602081101561056857600080fd5b50356001600160a01b0316611372565b34801561058457600080fd5b506104d4600480360360a081101561059b57600080fd5b6001600160a01b038235811692602081013590911691810190606081016040820135600160201b8111156105ce57600080fd5b8201836020820111156105e057600080fd5b803590602001918460208302840111600160201b8311171561060157600080fd5b9190808060200260200160405190810160405280939291908181526020018383602002808284376000920191909152509295949360208101935035915050600160201b81111561065057600080fd5b82018360208201111561066257600080fd5b803590602001918460208302840111600160201b8311171561068357600080fd5b9190808060200260200160405190810160405280939291908181526020018383602002808284376000920191909152509295949360208101935035915050600160201b8111156106d257600080fd5b8201836020820111156106e457600080fd5b803590602001918460018302840111600160201b8311171561070557600080fd5b91908080601f01602080910402602001604051908101604052809392919081815260200183838082843760009201919091525092955061138d945050505050565b34801561075257600080fd5b506104d46004803603604081101561076957600080fd5b50803590602001356001600160a01b031661168b565b34801561078b57600080fd5b506101d96116ee565b3480156107a057600080fd5b506104d4600480360360408110156107b757600080fd5b50803590602001356001600160a01b03166116f2565b3480156107d957600080fd5b506108fd600480360360408110156107f057600080fd5b810190602081018135600160201b81111561080a57600080fd5b82018360208201111561081c57600080fd5b803590602001918460208302840111600160201b8311171561083d57600080fd5b9190808060200260200160405190810160405280939291908181526020018383602002808284376000920191909152509295949360208101935035915050600160201b81111561088c57600080fd5b82018360208201111561089e57600080fd5b803590602001918460208302840111600160201b831117156108bf57600080fd5b919080806020026020016040519081016040528093929190818152602001838360200280828437600092019190915250929550611753945050505050565b60408051602080825283518183015283519192839290830191858101910280838360005b83811015610939578181015183820152602001610921565b505050509050019250505060405180910390f35b34801561095957600080fd5b506104d46004803603604081101561097057600080fd5b810190602081018135600160201b81111561098a57600080fd5b82018360208201111561099c57600080fd5b803590602001918460208302840111600160201b831117156109bd57600080fd5b919390929091602081019035600160201b8111156109da57600080fd5b8201836020820111156109ec57600080fd5b803590602001918460208302840111600160201b83111715610a0d57600080fd5b5090925090506118d1565b348015610a2457600080fd5b506104d460048036036080811015610a3b57600080fd5b6001600160a01b038235169160208101359160408201359190810190608081016060820135600160201b811115610a7157600080fd5b820183602082011115610a8357600080fd5b803590602001918460018302840111600160201b83111715610aa457600080fd5b50909250905061194c565b348015610abb57600080fd5b50610adf60048036036040811015610ad257600080fd5b5080359060200135611a03565b604080516001600160a01b039092168252519081900360200190f35b348015610b0757600080fd5b5061021f60048036036040811015610b1e57600080fd5b50803590602001356001600160a01b0316611a28565b348015610b4057600080fd5b506101d9611a46565b348015610b5557600080fd5b506104d460048036036040811015610b6c57600080fd5b506001600160a01b0381351690602001351515611a4b565b348015610b9057600080fd5b506101d9611b3a565b348015610ba557600080fd5b506101d960048036036020811015610bbc57600080fd5b5035611b60565b348015610bcf57600080fd5b506104d460048036036040811015610be657600080fd5b6001600160a01b038235169190810190604081016020820135600160201b811115610c1057600080fd5b820183602082011115610c2257600080fd5b803590602001918460018302840111600160201b83111715610c4357600080fd5b509092509050611b77565b348015610c5a57600080fd5b506104d460048036036040811015610c7157600080fd5b50803590602001356001600160a01b0316611e13565b348015610c9357600080fd5b5061021f60048036036040811015610caa57600080fd5b506001600160a01b0381358116916020013516611e6c565b348015610cce57600080fd5b506104d4600480360360a0811015610ce557600080fd5b6001600160a01b03823581169260208101359091169160408201359160608101359181019060a081016080820135600160201b811115610d2457600080fd5b820183602082011115610d3657600080fd5b803590602001918460018302840111600160201b83111715610d5757600080fd5b91908080601f016020809104026020016040519081016040528093929190818152602001838380828437600092019190915250929550611e9a945050505050565b60006001600160a01b038316610ddf5760405162461bcd60e51b815260040180806020018281038252602b815260200180613365602b913960400191505060405180910390fd5b5060008181526001602090815260408083206001600160a01b03861684529091529020545b92915050565b6001600160e01b03191660009081526020819052604090205460ff1690565b6060610e3361328d565b50604080516060810182526001600160a01b03881660008181526008602090815290849020548352820152908101869052610e71878287878761206b565b610eac5760405162461bcd60e51b81526004018080602001828103825260218152602001806135746021913960400191505060405180910390fd5b6001600160a01b038716600090815260086020526040902054610ed690600163ffffffff61214816565b6001600160a01b03881660008181526008602090815260408083209490945583519283523383820181905260609484018581528b51958501959095528a517f5845892132946850460bff5a0083f71031bc5bf9aadcd40f1de79423eac9b10b958d9592948d94919260808501928601918190849084905b83811015610f65578181015183820152602001610f4d565b50505050905090810190601f168015610f925780820380516001836020036101000a031916815260200191505b5094505050505060405180910390a160006060306001600160a01b0316888a6040516020018083805190602001908083835b60208310610fe35780518252601f199092019160209182019101610fc4565b6001836020036101000a038019825116818451168082178552505050505050905001826001600160a01b03166001600160a01b031660601b8152601401925050506040516020818303038152906040526040518082805190602001908083835b602083106110625780518252601f199092019160209182019101611043565b6001836020036101000a0380198251168184511680821785525050505050509050019150506000604051808303816000865af19150503d80600081146110c4576040519150601f19603f3d011682016040523d82523d6000602084013e6110c9565b606091505b509150915081611120576040805162461bcd60e51b815260206004820152601c60248201527f46756e6374696f6e2063616c6c206e6f74207375636365737366756c00000000604482015290519081900360640190fd5b98975050505050505050565b60038054604080516020601f60026000196101006001881615020190951694909404938401819004810282018101909252828152606093909290918301828280156111b85780601f1061118d576101008083540402835291602001916111b8565b820191906000526020600020905b81548152906001019060200180831161119b57829003601f168201915b50505050509050919050565b604051806040016040528060018152602001603160f81b81525081565b60006111f4816111ef6121a2565b611a28565b6005906112945760405162461bcd60e51b81526020600482019081528254600260001961010060018416150201909116046024830181905290918291604490910190849080156112855780601f1061125a57610100808354040283529160200191611285565b820191906000526020600020905b81548152906001019060200180831161126857829003601f168201915b50509250505060405180910390fd5b506113378888888080602002602001604051908101604052809392919081815260200183836020028082843760009201919091525050604080516020808c0282810182019093528b82529093508b92508a91829185019084908082843760009201919091525050604080516020601f8b0181900481028201810190925289815292508991508890819084018382808284376000920191909152506121b192505050565b5050505050505050565b60075490565b6113596113526121a2565b8383612406565b5050565b60009081526004602052604090206002015490565b6001600160a01b031660009081526008602052604090205490565b81518351146113cd5760405162461bcd60e51b81526004018080602001828103825260288152602001806135e76028913960400191505060405180910390fd5b6001600160a01b0384166114125760405162461bcd60e51b81526004018080602001828103825260258152602001806134d06025913960400191505060405180910390fd5b61141a6121a2565b6001600160a01b0316856001600160a01b031614806114455750611445856114406121a2565b611e6c565b6114805760405162461bcd60e51b81526004018080602001828103825260328152602001806134f56032913960400191505060405180910390fd5b600061148a6121a2565b905061149a818787878787611683565b60005b845181101561159b5760008582815181106114b457fe5b6020026020010151905060008583815181106114cc57fe5b60200260200101519050611539816040518060600160405280602a815260200161354a602a91396001600086815260200190815260200160002060008d6001600160a01b03166001600160a01b031681526020019081526020016000205461253f9092919063ffffffff16565b60008381526001602090815260408083206001600160a01b038e811685529252808320939093558a16815220546115709082612148565b60009283526001602081815260408086206001600160a01b038d16875290915290932055500161149d565b50846001600160a01b0316866001600160a01b0316826001600160a01b03167f4a39dc06d4c0dbc64b70af90fd698a233a518aa5d07e595d983b8c0526c8f7fb8787604051808060200180602001838103835285818151815260200191508051906020019060200280838360005b83811015611621578181015183820152602001611609565b50505050905001838103825284818151815260200191508051906020019060200280838360005b83811015611660578181015183820152602001611648565b5050505090500194505050505060405180910390a46116838187878787876125d6565b505050505050565b6000828152600460205260409020600201546116a9906111ef6121a2565b6116e45760405162461bcd60e51b815260040180806020018281038252602f815260200180613336602f913960400191505060405180910390fd5b611359828261290b565b4690565b6116fa6121a2565b6001600160a01b0316816001600160a01b0316146117495760405162461bcd60e51b815260040180806020018281038252602f815260200180613630602f913960400191505060405180910390fd5b611359828261297a565b606081518351146117955760405162461bcd60e51b81526004018080602001828103825260298152602001806135be6029913960400191505060405180910390fd5b6060835167ffffffffffffffff811180156117af57600080fd5b506040519080825280602002602001820160405280156117d9578160200160208202803683370190505b50905060005b84518110156118c95760006001600160a01b03168582815181106117ff57fe5b60200260200101516001600160a01b0316141561184d5760405162461bcd60e51b81526004018080602001828103825260318152602001806133906031913960400191505060405180910390fd5b6001600085838151811061185d57fe5b60200260200101518152602001908152602001600020600086838151811061188157fe5b60200260200101516001600160a01b03166001600160a01b03168152602001908152602001600020548282815181106118b657fe5b60209081029190910101526001016117df565b509392505050565b6119466118dc6121a2565b858580806020026020016040519081016040528093929190818152602001838360200280828437600092019190915250506040805160208089028281018201909352888252909350889250879182918501908490808284376000920191909152506129e992505050565b50505050565b600061195a816111ef6121a2565b6005906119c05760405162461bcd60e51b81526020600482019081528254600260001961010060018416150201909116046024830181905290918291604490910190849080156112855780601f1061125a57610100808354040283529160200191611285565b5061168386868686868080601f016020809104026020016040519081016040528093929190818152602001838380828437600092019190915250612c5792505050565b6000828152600460205260408120611a21908363ffffffff612d5e16565b9392505050565b6000828152600460205260408120611a21908363ffffffff612d6a16565b600081565b816001600160a01b0316611a5d6121a2565b6001600160a01b03161415611aa35760405162461bcd60e51b81526004018080602001828103825260298152602001806135956029913960400191505060405180910390fd5b8060026000611ab06121a2565b6001600160a01b03908116825260208083019390935260409182016000908120918716808252919093529120805460ff191692151592909217909155611af46121a2565b60408051841515815290516001600160a01b0392909216917f17307eab39ab6107e8899845ad3d59bd9653f200f220920489ca2b5937696c319181900360200190a35050565b604080516d4445504f5349544f525f524f4c4560901b8152905190819003600e01902081565b6000818152600460205260408120610e0490612d7f565b604080516d4445504f5349544f525f524f4c4560901b8152905190819003600e019020611ba6816111ef6121a2565b600590611c0c5760405162461bcd60e51b81526020600482019081528254600260001961010060018416150201909116046024830181905290918291604490910190849080156112855780601f1061125a57610100808354040283529160200191611285565b50606080606085856060811015611c2257600080fd5b810190602081018135600160201b811115611c3c57600080fd5b820183602082011115611c4e57600080fd5b803590602001918460208302840111600160201b83111715611c6f57600080fd5b9190808060200260200160405190810160405280939291908181526020018383602002808284376000920191909152509295949360208101935035915050600160201b811115611cbe57600080fd5b820183602082011115611cd057600080fd5b803590602001918460208302840111600160201b83111715611cf157600080fd5b9190808060200260200160405190810160405280939291908181526020018383602002808284376000920191909152509295949360208101935035915050600160201b811115611d4057600080fd5b820183602082011115611d5257600080fd5b803590602001918460018302840111600160201b83111715611d7357600080fd5b91908080601f016020809104026020016040519081016040528093929190818152602001838380828437600092019190915250979a50959850909650505050506001600160a01b03891615159150611dfe90505760405162461bcd60e51b815260040180806020018281038252602a815260200180613451602a913960400191505060405180910390fd5b611e0a878484846121b1565b50505050505050565b600082815260046020526040902060020154611e31906111ef6121a2565b6117495760405162461bcd60e51b815260040180806020018281038252603081526020018061347b6030913960400191505060405180910390fd5b6001600160a01b03918216600090815260026020908152604080832093909416825291909152205460ff1690565b6001600160a01b038416611edf5760405162461bcd60e51b81526004018080602001828103825260258152602001806134d06025913960400191505060405180910390fd5b611ee76121a2565b6001600160a01b0316856001600160a01b03161480611f0d5750611f0d856114406121a2565b611f485760405162461bcd60e51b81526004018080602001828103825260298152602001806134286029913960400191505060405180910390fd5b6000611f526121a2565b9050611f72818787611f6388612d8a565b611f6c88612d8a565b87611683565b611fbf836040518060600160405280602a815260200161354a602a913960008781526001602090815260408083206001600160a01b038d168452909152902054919063ffffffff61253f16565b60008581526001602090815260408083206001600160a01b038b81168552925280832093909355871681522054611ff69084612148565b60008581526001602090815260408083206001600160a01b03808b168086529184529382902094909455805188815291820187905280518a8416938616927fc3d58168c5ae7397731d063d5bbf3d657854427343f4c083240f7aacaa2d0f6292908290030190a4611683818787878787612dce565b60006001600160a01b0386166120b25760405162461bcd60e51b81526004018080602001828103825260258152602001806134ab6025913960400191505060405180910390fd5b60016120c56120c087612f61565b612fed565b83868660405160008152602001604052604051808581526020018460ff1660ff1681526020018381526020018281526020019450505050506020604051602081039080840390855afa15801561211f573d6000803e3d6000fd5b505050602060405103516001600160a01b0316866001600160a01b031614905095945050505050565b600082820183811015611a21576040805162461bcd60e51b815260206004820152601b60248201527f536166654d6174683a206164646974696f6e206f766572666c6f770000000000604482015290519081900360640190fd5b60006121ac613039565b905090565b6001600160a01b0384166121f65760405162461bcd60e51b815260040180806020018281038252602181526020018061360f6021913960400191505060405180910390fd5b81518351146122365760405162461bcd60e51b81526004018080602001828103825260288152602001806135e76028913960400191505060405180910390fd5b60006122406121a2565b905061225181600087878787611683565b60005b8451811015612315576122cc6001600087848151811061227057fe5b602002602001015181526020019081526020016000206000886001600160a01b03166001600160a01b03168152602001908152602001600020548583815181106122b657fe5b602002602001015161214890919063ffffffff16565b600160008784815181106122dc57fe5b602090810291909101810151825281810192909252604090810160009081206001600160a01b038b168252909252902055600101612254565b50846001600160a01b031660006001600160a01b0316826001600160a01b03167f4a39dc06d4c0dbc64b70af90fd698a233a518aa5d07e595d983b8c0526c8f7fb8787604051808060200180602001838103835285818151815260200191508051906020019060200280838360005b8381101561239c578181015183820152602001612384565b50505050905001838103825284818151815260200191508051906020019060200280838360005b838110156123db5781810151838201526020016123c3565b5050505090500194505050505060405180910390a46123ff816000878787876125d6565b5050505050565b6001600160a01b03831661244b5760405162461bcd60e51b81526004018080602001828103825260238152602001806135276023913960400191505060405180910390fd5b60006124556121a2565b90506124858185600061246787612d8a565b61247087612d8a565b60405180602001604052806000815250611683565b6124d2826040518060600160405280602481526020016134046024913960008681526001602090815260408083206001600160a01b038b168452909152902054919063ffffffff61253f16565b60008481526001602090815260408083206001600160a01b03808a16808652918452828520959095558151888152928301879052815193949093908616927fc3d58168c5ae7397731d063d5bbf3d657854427343f4c083240f7aacaa2d0f6292908290030190a450505050565b600081848411156125ce5760405162461bcd60e51b81526004018080602001828103825283818151815260200191508051906020019080838360005b8381101561259357818101518382015260200161257b565b50505050905090810190601f1680156125c05780820380516001836020036101000a031916815260200191505b509250505060405180910390fd5b505050900390565b6125e8846001600160a01b0316613097565b1561168357836001600160a01b031663bc197c8187878686866040518663ffffffff1660e01b815260040180866001600160a01b03166001600160a01b03168152602001856001600160a01b03166001600160a01b03168152602001806020018060200180602001848103845287818151815260200191508051906020019060200280838360005b83811015612688578181015183820152602001612670565b50505050905001848103835286818151815260200191508051906020019060200280838360005b838110156126c75781810151838201526020016126af565b50505050905001848103825285818151815260200191508051906020019080838360005b838110156127035781810151838201526020016126eb565b50505050905090810190601f1680156127305780820380516001836020036101000a031916815260200191505b5098505050505050505050602060405180830381600087803b15801561275557600080fd5b505af192505050801561277a57506040513d602081101561277557600080fd5b505160015b6128bc576040516000815260443d101561279657506000612833565b60046000803e60005160e01c6308c379a081146127b7576000915050612833565b60043d036004833e81513d602482011167ffffffffffffffff821117156127e357600092505050612833565b808301805167ffffffffffffffff811115612805576000945050505050612833565b8060208301013d860181111561282357600095505050505050612833565b601f01601f191660405250925050505b8061283e5750612885565b60405162461bcd60e51b815260206004820181815283516024840152835184939192839260440191908501908083836000831561259357818101518382015260200161257b565b60405162461bcd60e51b81526004018080602001828103825260348152602001806132b86034913960400191505060405180910390fd5b6001600160e01b0319811663bc197c8160e01b14611e0a5760405162461bcd60e51b815260040180806020018281038252602881526020018061330e6028913960400191505060405180910390fd5b6000828152600460205260409020612929908263ffffffff6130d316565b15611359576129366121a2565b6001600160a01b0316816001600160a01b0316837f2f8788117e7eff1d82e926ec794901d17c78024a50270940304540a733656f0d60405160405180910390a45050565b6000828152600460205260409020612998908263ffffffff6130e816565b15611359576129a56121a2565b6001600160a01b0316816001600160a01b0316837ff6391f5c32d9c69d2a47ea670b442974b53935d1edc7fd64eb21e047a839171b60405160405180910390a45050565b6001600160a01b038316612a2e5760405162461bcd60e51b81526004018080602001828103825260238152602001806135276023913960400191505060405180910390fd5b8051825114612a6e5760405162461bcd60e51b81526004018080602001828103825260288152602001806135e76028913960400191505060405180910390fd5b6000612a786121a2565b9050612a9881856000868660405180602001604052806000815250611683565b60005b8351811015612b7657612b2d838281518110612ab357fe5b60200260200101516040518060600160405280602481526020016134046024913960016000888681518110612ae457fe5b602002602001015181526020019081526020016000206000896001600160a01b03166001600160a01b031681526020019081526020016000205461253f9092919063ffffffff16565b60016000868481518110612b3d57fe5b602090810291909101810151825281810192909252604090810160009081206001600160a01b038a168252909252902055600101612a9b565b5060006001600160a01b0316846001600160a01b0316826001600160a01b03167f4a39dc06d4c0dbc64b70af90fd698a233a518aa5d07e595d983b8c0526c8f7fb8686604051808060200180602001838103835285818151815260200191508051906020019060200280838360005b83811015612bfd578181015183820152602001612be5565b50505050905001838103825284818151815260200191508051906020019060200280838360005b83811015612c3c578181015183820152602001612c24565b5050505090500194505050505060405180910390a450505050565b6001600160a01b038416612c9c5760405162461bcd60e51b815260040180806020018281038252602181526020018061360f6021913960400191505060405180910390fd5b6000612ca66121a2565b9050612cb881600087611f6388612d8a565b60008481526001602090815260408083206001600160a01b0389168452909152902054612ceb908463ffffffff61214816565b60008581526001602090815260408083206001600160a01b03808b16808652918452828520959095558151898152928301889052815190948616927fc3d58168c5ae7397731d063d5bbf3d657854427343f4c083240f7aacaa2d0f6292908290030190a46123ff81600087878787612dce565b6000611a2183836130fd565b6000611a21836001600160a01b038416613161565b6000610e0482613179565b604080516001808252818301909252606091829190602080830190803683370190505090508281600081518110612dbd57fe5b602090810291909101015292915050565b612de0846001600160a01b0316613097565b1561168357836001600160a01b031663f23a6e6187878686866040518663ffffffff1660e01b815260040180866001600160a01b03166001600160a01b03168152602001856001600160a01b03166001600160a01b0316815260200184815260200183815260200180602001828103825283818151815260200191508051906020019080838360005b83811015612e81578181015183820152602001612e69565b50505050905090810190601f168015612eae5780820380516001836020036101000a031916815260200191505b509650505050505050602060405180830381600087803b158015612ed157600080fd5b505af1925050508015612ef657506040513d6020811015612ef157600080fd5b505160015b612f12576040516000815260443d101561279657506000612833565b6001600160e01b0319811663f23a6e6160e01b14611e0a5760405162461bcd60e51b815260040180806020018281038252602881526020018061330e6028913960400191505060405180910390fd5b60006040518060800160405280604381526020016133c160439139805190602001208260000151836020015184604001518051906020012060405160200180858152602001848152602001836001600160a01b03166001600160a01b03168152602001828152602001945050505050604051602081830303815290604052805190602001209050919050565b6000612ff7611341565b82604051602001808061190160f01b81525060020183815260200182815260200192505050604051602081830303815290604052805190602001209050919050565b6000333014156130915760606000368080601f0160208091040260200160405190810160405280939291908181526020018383808284376000920191909152505050503601516001600160a01b031691506130949050565b50335b90565b6000813f7fc5d2460186f7233c927e7db2dcc703c0e500b653ca82273b7bfad8045d85a4708181148015906130cb57508115155b949350505050565b6000611a21836001600160a01b03841661317d565b6000611a21836001600160a01b0384166131c7565b8154600090821061313f5760405162461bcd60e51b81526004018080602001828103825260228152602001806132ec6022913960400191505060405180910390fd5b82600001828154811061314e57fe5b9060005260206000200154905092915050565b60009081526001919091016020526040902054151590565b5490565b60006131898383613161565b6131bf57508154600181810184556000848152602080822090930184905584548482528286019093526040902091909155610e04565b506000610e04565b6000818152600183016020526040812054801561328357835460001980830191908101906000908790839081106131fa57fe5b906000526020600020015490508087600001848154811061321757fe5b60009182526020808320909101929092558281526001898101909252604090209084019055865487908061324757fe5b60019003818190600052602060002001600090559055866001016000878152602001908152602001600020600090556001945050505050610e04565b6000915050610e04565b60405180606001604052806000815260200160006001600160a01b0316815260200160608152509056fe455243313135353a207472616e7366657220746f206e6f6e2045524331313535526563656976657220696d706c656d656e746572456e756d657261626c655365743a20696e646578206f7574206f6620626f756e6473455243313135353a204552433131353552656365697665722072656a656374656420746f6b656e73416363657373436f6e74726f6c3a2073656e646572206d75737420626520616e2061646d696e20746f206772616e74455243313135353a2062616c616e636520717565727920666f7220746865207a65726f2061646472657373455243313135353a2062617463682062616c616e636520717565727920666f7220746865207a65726f20616464726573734d6574615472616e73616374696f6e2875696e74323536206e6f6e63652c616464726573732066726f6d2c62797465732066756e6374696f6e5369676e617475726529455243313135353a206275726e20616d6f756e7420657863656564732062616c616e6365455243313135353a2063616c6c6572206973206e6f74206f776e6572206e6f7220617070726f7665644368696c644d696e7461626c65455243313135353a20494e56414c49445f4445504f5349545f55534552416363657373436f6e74726f6c3a2073656e646572206d75737420626520616e2061646d696e20746f207265766f6b654e61746976654d6574615472616e73616374696f6e3a20494e56414c49445f5349474e4552455243313135353a207472616e7366657220746f20746865207a65726f2061646472657373455243313135353a207472616e736665722063616c6c6572206973206e6f74206f776e6572206e6f7220617070726f766564455243313135353a206275726e2066726f6d20746865207a65726f2061646472657373455243313135353a20696e73756666696369656e742062616c616e636520666f72207472616e736665725369676e657220616e64207369676e617475726520646f206e6f74206d61746368455243313135353a2073657474696e6720617070726f76616c2073746174757320666f722073656c66455243313135353a206163636f756e747320616e6420696473206c656e677468206d69736d61746368455243313135353a2069647320616e6420616d6f756e7473206c656e677468206d69736d61746368455243313135353a206d696e7420746f20746865207a65726f2061646472657373416363657373436f6e74726f6c3a2063616e206f6e6c792072656e6f756e636520726f6c657320666f722073656c66a26469706673582212202f87a02c0ae805aabe953a19c9e0bf49eca4d2b83c0905e718e94e38a38ed73f64736f6c63430006060033454950373132446f6d61696e28737472696e67206e616d652c737472696e672076657273696f6e2c6164647265737320766572696679696e67436f6e74726163742c627974657333322073616c7429",
  "immutableReferences": {},
  "source": "pragma solidity 0.6.6;\n\nimport {ERC1155} from \"@openzeppelin/contracts/token/ERC1155/ERC1155.sol\";\nimport {AccessControlMixin} from \"../../common/AccessControlMixin.sol\";\nimport {IChildToken} from \"./IChildToken.sol\";\nimport {NativeMetaTransaction} from \"../../common/NativeMetaTransaction.sol\";\nimport {ContextMixin} from \"../../common/ContextMixin.sol\";\n\ncontract ChildMintableERC1155 is\n    ERC1155,\n    IChildToken,\n    AccessControlMixin,\n    NativeMetaTransaction,\n    ContextMixin\n{\n    bytes32 public constant DEPOSITOR_ROLE = keccak256(\"DEPOSITOR_ROLE\");\n\n    constructor(string memory uri_, address childChainManager)\n        public\n        ERC1155(uri_)\n    {\n        _setupContractId(\"ChildMintableERC1155\");\n        _setupRole(DEFAULT_ADMIN_ROLE, _msgSender());\n        _setupRole(DEPOSITOR_ROLE, childChainManager);\n        _initializeEIP712(uri_);\n    }\n\n    // This is to support Native meta transactions\n    // never use msg.sender directly, use _msgSender() instead\n    function _msgSender()\n        internal\n        override\n        view\n        returns (address payable sender)\n    {\n        return ContextMixin.msgSender();\n    }\n\n    /**\n     * @notice called when tokens are deposited on root chain\n     * @dev Should be callable only by ChildChainManager\n     * Should handle deposit by minting the required tokens for user\n     * Make sure minting is done only by this function\n     * @param user user address for whom deposit is being done\n     * @param depositData abi encoded ids array and amounts array\n     */\n    function deposit(address user, bytes calldata depositData)\n        external\n        override\n        only(DEPOSITOR_ROLE)\n    {\n        (\n            uint256[] memory ids,\n            uint256[] memory amounts,\n            bytes memory data\n        ) = abi.decode(depositData, (uint256[], uint256[], bytes));\n\n        require(\n            user != address(0),\n            \"ChildMintableERC1155: INVALID_DEPOSIT_USER\"\n        );\n\n        _mintBatch(user, ids, amounts, data);\n    }\n\n    /**\n     * @notice called when user wants to withdraw single token back to root chain\n     * @dev Should burn user's tokens. This transaction will be verified when exiting on root chain\n     * @param id id to withdraw\n     * @param amount amount to withdraw\n     */\n    function withdrawSingle(uint256 id, uint256 amount) external {\n        _burn(_msgSender(), id, amount);\n    }\n\n    /**\n     * @notice called when user wants to batch withdraw tokens back to root chain\n     * @dev Should burn user's tokens. This transaction will be verified when exiting on root chain\n     * @param ids ids to withdraw\n     * @param amounts amounts to withdraw\n     */\n    function withdrawBatch(uint256[] calldata ids, uint256[] calldata amounts)\n        external\n    {\n        _burnBatch(_msgSender(), ids, amounts);\n    }\n\n    /**\n     * @notice See definition of `_mint` in ERC1155 contract\n     * @dev This implementation only allows admins to mint tokens\n     * but can be changed as per requirement\n     */\n    function mint(\n        address account,\n        uint256 id,\n        uint256 amount,\n        bytes calldata data\n    ) external only(DEFAULT_ADMIN_ROLE) {\n        _mint(account, id, amount, data);\n    }\n\n    /**\n     * @notice See definition of `_mintBatch` in ERC1155 contract\n     * @dev This implementation only allows admins to mint tokens\n     * but can be changed as per requirement\n     */\n    function mintBatch(\n        address to,\n        uint256[] calldata ids,\n        uint256[] calldata amounts,\n        bytes calldata data\n    ) external only(DEFAULT_ADMIN_ROLE) {\n        _mintBatch(to, ids, amounts, data);\n    }\n}\n",
  "sourcePath": "/Users/ohm.jirapon/internal/layer-2/layer2-plasma-cli/devnet/code/pos-portal/contracts/child/ChildToken/ChildMintableERC1155.sol",
  "compiler": {
    "name": "solc",
    "version": "0.6.6+commit.6c089d02.Linux.g++"
  },
  "schemaVersion": "3.2.1",
  "updatedAt": "2022-09-15T05:55:57.471Z",
  "networkType": "ethereum",
  "devdoc": {
    "methods": {
      "balanceOf(address,uint256)": {
        "details": "See {IERC1155-balanceOf}.     * Requirements:     * - `account` cannot be the zero address."
      },
      "balanceOfBatch(address[],uint256[])": {
        "details": "See {IERC1155-balanceOfBatch}.     * Requirements:     * - `accounts` and `ids` must have the same length."
      },
      "deposit(address,bytes)": {
        "details": "Should be callable only by ChildChainManager Should handle deposit by minting the required tokens for user Make sure minting is done only by this function",
        "params": {
          "depositData": "abi encoded ids array and amounts array",
          "user": "user address for whom deposit is being done"
        }
      },
      "getRoleAdmin(bytes32)": {
        "details": "Returns the admin role that controls `role`. See {grantRole} and {revokeRole}.     * To change a role's admin, use {_setRoleAdmin}."
      },
      "getRoleMember(bytes32,uint256)": {
        "details": "Returns one of the accounts that have `role`. `index` must be a value between 0 and {getRoleMemberCount}, non-inclusive.     * Role bearers are not sorted in any particular way, and their ordering may change at any point.     * WARNING: When using {getRoleMember} and {getRoleMemberCount}, make sure you perform all queries on the same block. See the following https://forum.openzeppelin.com/t/iterating-over-elements-on-enumerableset-in-openzeppelin-contracts/2296[forum post] for more information."
      },
      "getRoleMemberCount(bytes32)": {
        "details": "Returns the number of accounts that have `role`. Can be used together with {getRoleMember} to enumerate all bearers of a role."
      },
      "grantRole(bytes32,address)": {
        "details": "Grants `role` to `account`.     * If `account` had not been already granted `role`, emits a {RoleGranted} event.     * Requirements:     * - the caller must have ``role``'s admin role."
      },
      "hasRole(bytes32,address)": {
        "details": "Returns `true` if `account` has been granted `role`."
      },
      "isApprovedForAll(address,address)": {
        "details": "See {IERC1155-isApprovedForAll}."
      },
      "mint(address,uint256,uint256,bytes)": {
        "details": "This implementation only allows admins to mint tokens but can be changed as per requirement"
      },
      "mintBatch(address,uint256[],uint256[],bytes)": {
        "details": "This implementation only allows admins to mint tokens but can be changed as per requirement"
      },
      "renounceRole(bytes32,address)": {
        "details": "Revokes `role` from the calling account.     * Roles are often managed via {grantRole} and {revokeRole}: this function's purpose is to provide a mechanism for accounts to lose their privileges if they are compromised (such as when a trusted device is misplaced).     * If the calling account had been granted `role`, emits a {RoleRevoked} event.     * Requirements:     * - the caller must be `account`."
      },
      "revokeRole(bytes32,address)": {
        "details": "Revokes `role` from `account`.     * If `account` had been granted `role`, emits a {RoleRevoked} event.     * Requirements:     * - the caller must have ``role``'s admin role."
      },
      "safeBatchTransferFrom(address,address,uint256[],uint256[],bytes)": {
        "details": "See {IERC1155-safeBatchTransferFrom}."
      },
      "safeTransferFrom(address,address,uint256,uint256,bytes)": {
        "details": "See {IERC1155-safeTransferFrom}."
      },
      "setApprovalForAll(address,bool)": {
        "details": "See {IERC1155-setApprovalForAll}."
      },
      "supportsInterface(bytes4)": {
        "details": "See {IERC165-supportsInterface}.     * Time complexity O(1), guaranteed to always use less than 30 000 gas."
      },
      "uri(uint256)": {
        "details": "See {IERC1155MetadataURI-uri}.     * This implementation returns the same URI for *all* token types. It relies on the token type ID substituion mechanism https://eips.ethereum.org/EIPS/eip-1155#metadata[defined in the EIP].     * Clients calling this function must replace the `\\{id\\}` substring with the actual token type ID."
      },
      "withdrawBatch(uint256[],uint256[])": {
        "details": "Should burn user's tokens. This transaction will be verified when exiting on root chain",
        "params": {
          "amounts": "amounts to withdraw",
          "ids": "ids to withdraw"
        }
      },
      "withdrawSingle(uint256,uint256)": {
        "details": "Should burn user's tokens. This transaction will be verified when exiting on root chain",
        "params": {
          "amount": "amount to withdraw",
          "id": "id to withdraw"
        }
      }
    }
  },
  "userdoc": {
    "methods": {
      "deposit(address,bytes)": {
        "notice": "called when tokens are deposited on root chain"
      },
      "mint(address,uint256,uint256,bytes)": {
        "notice": "See definition of `_mint` in ERC1155 contract"
      },
      "mintBatch(address,uint256[],uint256[],bytes)": {
        "notice": "See definition of `_mintBatch` in ERC1155 contract"
      },
      "withdrawBatch(uint256[],uint256[])": {
        "notice": "called when user wants to batch withdraw tokens back to root chain"
      },
      "withdrawSingle(uint256,uint256)": {
        "notice": "called when user wants to withdraw single token back to root chain"
      }
    }
  }
}