{
  "contractName": "ChildERC1155",
  "abi": [
    {
      "inputs": [
        {
          "internalType": "string",
          "name": "uri_",
          "type": "string"
        },
        {
          "internalType": "address",
          "name": "childChainManager",
          "type": "address"
        }
      ],
      "stateMutability": "nonpayable",
      "type": "constructor"
    },
    {
      "anonymous": false,
      "inputs": [
        {
          "indexed": true,
          "internalType": "address",
          "name": "account",
          "type": "address"
        },
        {
          "indexed": true,
          "internalType": "address",
          "name": "operator",
          "type": "address"
        },
        {
          "indexed": false,
          "internalType": "bool",
          "name": "approved",
          "type": "bool"
        }
      ],
      "name": "ApprovalForAll",
      "type": "event"
    },
    {
      "anonymous": false,
      "inputs": [
        {
          "indexed": false,
          "internalType": "address",
          "name": "userAddress",
          "type": "address"
        },
        {
          "indexed": false,
          "internalType": "address payable",
          "name": "relayerAddress",
          "type": "address"
        },
        {
          "indexed": false,
          "internalType": "bytes",
          "name": "functionSignature",
          "type": "bytes"
        }
      ],
      "name": "MetaTransactionExecuted",
      "type": "event"
    },
    {
      "anonymous": false,
      "inputs": [
        {
          "indexed": true,
          "internalType": "bytes32",
          "name": "role",
          "type": "bytes32"
        },
        {
          "indexed": true,
          "internalType": "bytes32",
          "name": "previousAdminRole",
          "type": "bytes32"
        },
        {
          "indexed": true,
          "internalType": "bytes32",
          "name": "newAdminRole",
          "type": "bytes32"
        }
      ],
      "name": "RoleAdminChanged",
      "type": "event"
    },
    {
      "anonymous": false,
      "inputs": [
        {
          "indexed": true,
          "internalType": "bytes32",
          "name": "role",
          "type": "bytes32"
        },
        {
          "indexed": true,
          "internalType": "address",
          "name": "account",
          "type": "address"
        },
        {
          "indexed": true,
          "internalType": "address",
          "name": "sender",
          "type": "address"
        }
      ],
      "name": "RoleGranted",
      "type": "event"
    },
    {
      "anonymous": false,
      "inputs": [
        {
          "indexed": true,
          "internalType": "bytes32",
          "name": "role",
          "type": "bytes32"
        },
        {
          "indexed": true,
          "internalType": "address",
          "name": "account",
          "type": "address"
        },
        {
          "indexed": true,
          "internalType": "address",
          "name": "sender",
          "type": "address"
        }
      ],
      "name": "RoleRevoked",
      "type": "event"
    },
    {
      "anonymous": false,
      "inputs": [
        {
          "indexed": true,
          "internalType": "address",
          "name": "operator",
          "type": "address"
        },
        {
          "indexed": true,
          "internalType": "address",
          "name": "from",
          "type": "address"
        },
        {
          "indexed": true,
          "internalType": "address",
          "name": "to",
          "type": "address"
        },
        {
          "indexed": false,
          "internalType": "uint256[]",
          "name": "ids",
          "type": "uint256[]"
        },
        {
          "indexed": false,
          "internalType": "uint256[]",
          "name": "values",
          "type": "uint256[]"
        }
      ],
      "name": "TransferBatch",
      "type": "event"
    },
    {
      "anonymous": false,
      "inputs": [
        {
          "indexed": true,
          "internalType": "address",
          "name": "operator",
          "type": "address"
        },
        {
          "indexed": true,
          "internalType": "address",
          "name": "from",
          "type": "address"
        },
        {
          "indexed": true,
          "internalType": "address",
          "name": "to",
          "type": "address"
        },
        {
          "indexed": false,
          "internalType": "uint256",
          "name": "id",
          "type": "uint256"
        },
        {
          "indexed": false,
          "internalType": "uint256",
          "name": "value",
          "type": "uint256"
        }
      ],
      "name": "TransferSingle",
      "type": "event"
    },
    {
      "anonymous": false,
      "inputs": [
        {
          "indexed": false,
          "internalType": "string",
          "name": "value",
          "type": "string"
        },
        {
          "indexed": true,
          "internalType": "uint256",
          "name": "id",
          "type": "uint256"
        }
      ],
      "name": "URI",
      "type": "event"
    },
    {
      "inputs": [],
      "name": "DEFAULT_ADMIN_ROLE",
      "outputs": [
        {
          "internalType": "bytes32",
          "name": "",
          "type": "bytes32"
        }
      ],
      "stateMutability": "view",
      "type": "function",
      "constant": true
    },
    {
      "inputs": [],
      "name": "DEPOSITOR_ROLE",
      "outputs": [
        {
          "internalType": "bytes32",
          "name": "",
          "type": "bytes32"
        }
      ],
      "stateMutability": "view",
      "type": "function",
      "constant": true
    },
    {
      "inputs": [],
      "name": "ERC712_VERSION",
      "outputs": [
        {
          "internalType": "string",
          "name": "",
          "type": "string"
        }
      ],
      "stateMutability": "view",
      "type": "function",
      "constant": true
    },
    {
      "inputs": [
        {
          "internalType": "address",
          "name": "account",
          "type": "address"
        },
        {
          "internalType": "uint256",
          "name": "id",
          "type": "uint256"
        }
      ],
      "name": "balanceOf",
      "outputs": [
        {
          "internalType": "uint256",
          "name": "",
          "type": "uint256"
        }
      ],
      "stateMutability": "view",
      "type": "function",
      "constant": true
    },
    {
      "inputs": [
        {
          "internalType": "address[]",
          "name": "accounts",
          "type": "address[]"
        },
        {
          "internalType": "uint256[]",
          "name": "ids",
          "type": "uint256[]"
        }
      ],
      "name": "balanceOfBatch",
      "outputs": [
        {
          "internalType": "uint256[]",
          "name": "",
          "type": "uint256[]"
        }
      ],
      "stateMutability": "view",
      "type": "function",
      "constant": true
    },
    {
      "inputs": [
        {
          "internalType": "address",
          "name": "userAddress",
          "type": "address"
        },
        {
          "internalType": "bytes",
          "name": "functionSignature",
          "type": "bytes"
        },
        {
          "internalType": "bytes32",
          "name": "sigR",
          "type": "bytes32"
        },
        {
          "internalType": "bytes32",
          "name": "sigS",
          "type": "bytes32"
        },
        {
          "internalType": "uint8",
          "name": "sigV",
          "type": "uint8"
        }
      ],
      "name": "executeMetaTransaction",
      "outputs": [
        {
          "internalType": "bytes",
          "name": "",
          "type": "bytes"
        }
      ],
      "stateMutability": "payable",
      "type": "function",
      "payable": true
    },
    {
      "inputs": [],
      "name": "getChainId",
      "outputs": [
        {
          "internalType": "uint256",
          "name": "",
          "type": "uint256"
        }
      ],
      "stateMutability": "pure",
      "type": "function",
      "constant": true
    },
    {
      "inputs": [],
      "name": "getDomainSeperator",
      "outputs": [
        {
          "internalType": "bytes32",
          "name": "",
          "type": "bytes32"
        }
      ],
      "stateMutability": "view",
      "type": "function",
      "constant": true
    },
    {
      "inputs": [
        {
          "internalType": "address",
          "name": "user",
          "type": "address"
        }
      ],
      "name": "getNonce",
      "outputs": [
        {
          "internalType": "uint256",
          "name": "nonce",
          "type": "uint256"
        }
      ],
      "stateMutability": "view",
      "type": "function",
      "constant": true
    },
    {
      "inputs": [
        {
          "internalType": "bytes32",
          "name": "role",
          "type": "bytes32"
        }
      ],
      "name": "getRoleAdmin",
      "outputs": [
        {
          "internalType": "bytes32",
          "name": "",
          "type": "bytes32"
        }
      ],
      "stateMutability": "view",
      "type": "function",
      "constant": true
    },
    {
      "inputs": [
        {
          "internalType": "bytes32",
          "name": "role",
          "type": "bytes32"
        },
        {
          "internalType": "uint256",
          "name": "index",
          "type": "uint256"
        }
      ],
      "name": "getRoleMember",
      "outputs": [
        {
          "internalType": "address",
          "name": "",
          "type": "address"
        }
      ],
      "stateMutability": "view",
      "type": "function",
      "constant": true
    },
    {
      "inputs": [
        {
          "internalType": "bytes32",
          "name": "role",
          "type": "bytes32"
        }
      ],
      "name": "getRoleMemberCount",
      "outputs": [
        {
          "internalType": "uint256",
          "name": "",
          "type": "uint256"
        }
      ],
      "stateMutability": "view",
      "type": "function",
      "constant": true
    },
    {
      "inputs": [
        {
          "internalType": "bytes32",
          "name": "role",
          "type": "bytes32"
        },
        {
          "internalType": "address",
          "name": "account",
          "type": "address"
        }
      ],
      "name": "grantRole",
      "outputs": [],
      "stateMutability": "nonpayable",
      "type": "function"
    },
    {
      "inputs": [
        {
          "internalType": "bytes32",
          "name": "role",
          "type": "bytes32"
        },
        {
          "internalType": "address",
          "name": "account",
          "type": "address"
        }
      ],
      "name": "hasRole",
      "outputs": [
        {
          "internalType": "bool",
          "name": "",
          "type": "bool"
        }
      ],
      "stateMutability": "view",
      "type": "function",
      "constant": true
    },
    {
      "inputs": [
        {
          "internalType": "address",
          "name": "account",
          "type": "address"
        },
        {
          "internalType": "address",
          "name": "operator",
          "type": "address"
        }
      ],
      "name": "isApprovedForAll",
      "outputs": [
        {
          "internalType": "bool",
          "name": "",
          "type": "bool"
        }
      ],
      "stateMutability": "view",
      "type": "function",
      "constant": true
    },
    {
      "inputs": [
        {
          "internalType": "bytes32",
          "name": "role",
          "type": "bytes32"
        },
        {
          "internalType": "address",
          "name": "account",
          "type": "address"
        }
      ],
      "name": "renounceRole",
      "outputs": [],
      "stateMutability": "nonpayable",
      "type": "function"
    },
    {
      "inputs": [
        {
          "internalType": "bytes32",
          "name": "role",
          "type": "bytes32"
        },
        {
          "internalType": "address",
          "name": "account",
          "type": "address"
        }
      ],
      "name": "revokeRole",
      "outputs": [],
      "stateMutability": "nonpayable",
      "type": "function"
    },
    {
      "inputs": [
        {
          "internalType": "address",
          "name": "from",
          "type": "address"
        },
        {
          "internalType": "address",
          "name": "to",
          "type": "address"
        },
        {
          "internalType": "uint256[]",
          "name": "ids",
          "type": "uint256[]"
        },
        {
          "internalType": "uint256[]",
          "name": "amounts",
          "type": "uint256[]"
        },
        {
          "internalType": "bytes",
          "name": "data",
          "type": "bytes"
        }
      ],
      "name": "safeBatchTransferFrom",
      "outputs": [],
      "stateMutability": "nonpayable",
      "type": "function"
    },
    {
      "inputs": [
        {
          "internalType": "address",
          "name": "from",
          "type": "address"
        },
        {
          "internalType": "address",
          "name": "to",
          "type": "address"
        },
        {
          "internalType": "uint256",
          "name": "id",
          "type": "uint256"
        },
        {
          "internalType": "uint256",
          "name": "amount",
          "type": "uint256"
        },
        {
          "internalType": "bytes",
          "name": "data",
          "type": "bytes"
        }
      ],
      "name": "safeTransferFrom",
      "outputs": [],
      "stateMutability": "nonpayable",
      "type": "function"
    },
    {
      "inputs": [
        {
          "internalType": "address",
          "name": "operator",
          "type": "address"
        },
        {
          "internalType": "bool",
          "name": "approved",
          "type": "bool"
        }
      ],
      "name": "setApprovalForAll",
      "outputs": [],
      "stateMutability": "nonpayable",
      "type": "function"
    },
    {
      "inputs": [
        {
          "internalType": "bytes4",
          "name": "interfaceId",
          "type": "bytes4"
        }
      ],
      "name": "supportsInterface",
      "outputs": [
        {
          "internalType": "bool",
          "name": "",
          "type": "bool"
        }
      ],
      "stateMutability": "view",
      "type": "function",
      "constant": true
    },
    {
      "inputs": [
        {
          "internalType": "uint256",
          "name": "",
          "type": "uint256"
        }
      ],
      "name": "uri",
      "outputs": [
        {
          "internalType": "string",
          "name": "",
          "type": "string"
        }
      ],
      "stateMutability": "view",
      "type": "function",
      "constant": true
    },
    {
      "inputs": [
        {
          "internalType": "address",
          "name": "user",
          "type": "address"
        },
        {
          "internalType": "bytes",
          "name": "depositData",
          "type": "bytes"
        }
      ],
      "name": "deposit",
      "outputs": [],
      "stateMutability": "nonpayable",
      "type": "function"
    },
    {
      "inputs": [
        {
          "internalType": "uint256",
          "name": "id",
          "type": "uint256"
        },
        {
          "internalType": "uint256",
          "name": "amount",
          "type": "uint256"
        }
      ],
      "name": "withdrawSingle",
      "outputs": [],
      "stateMutability": "nonpayable",
      "type": "function"
    },
    {
      "inputs": [
        {
          "internalType": "uint256[]",
          "name": "ids",
          "type": "uint256[]"
        },
        {
          "internalType": "uint256[]",
          "name": "amounts",
          "type": "uint256[]"
        }
      ],
      "name": "withdrawBatch",
      "outputs": [],
      "stateMutability": "nonpayable",
      "type": "function"
    }
  ],
  "bytecode": "0x60806040526006805460ff191690553480156200001b57600080fd5b50604051620038f4380380620038f4833981810160405260408110156200004157600080fd5b81019080805160405193929190846401000000008211156200006257600080fd5b9083019060208201858111156200007857600080fd5b82516401000000008111828201881017156200009357600080fd5b82525081516020918201929091019080838360005b83811015620000c2578181015183820152602001620000a8565b50505050905090810190601f168015620000f05780820380516001836020036101000a031916815260200191505b50604052602001519150829050620001186301ffc9a760e01b6001600160e01b036200021616565b6200012c816001600160e01b036200029b16565b62000147636cdb3d1360e11b6001600160e01b036200021616565b620001626303a24d0760e21b6001600160e01b036200021616565b5060408051808201909152600c81526b4368696c644552433131353560a01b60208201526200019a906001600160e01b03620002b416565b620001c26000620001b36001600160e01b036200035616565b6001600160e01b036200037316565b604080516d4445504f5349544f525f524f4c4560901b8152905190819003600e019020620001fa90826001600160e01b036200037316565b6200020e826001600160e01b036200038816565b5050620006e0565b6001600160e01b0319808216141562000276576040805162461bcd60e51b815260206004820152601c60248201527f4552433136353a20696e76616c696420696e7465726661636520696400000000604482015290519081900360640190fd5b6001600160e01b0319166000908152602081905260409020805460ff19166001179055565b8051620002b09060039060208401906200063e565b5050565b806040516020018082805190602001908083835b60208310620002e95780518252601f199092019160209182019101620002c8565b51815160209384036101000a60001901801990921691161790527f3a20494e53554646494349454e545f5045524d495353494f4e530000000000009190930190815260408051808303600519018152601a90920190528051620002b095506005945092019190506200063e565b60006200036d620003f660201b62002b621760201c565b90505b90565b620002b082826001600160e01b036200045516565b60065460ff1615620003d2576040805162461bcd60e51b815260206004820152600e60248201526d185b1c9958591e481a5b9a5d195960921b604482015290519081900360640190fd5b620003e6816001600160e01b03620004d916565b506006805460ff19166001179055565b600033301415620004505760606000368080601f0160208091040260200160405190810160405280939291908181526020018383808284376000920191909152505050503601516001600160a01b03169150620003709050565b503390565b60008281526004602090815260409091206200047c91839062002bfc620005a1821b17901c565b15620002b057620004956001600160e01b036200035616565b6001600160a01b0316816001600160a01b0316837f2f8788117e7eff1d82e926ec794901d17c78024a50270940304540a733656f0d60405160405180910390a45050565b6040518060800160405280604f8152602001620038a5604f913980516020918201208251838301206040805180820190915260018152603160f81b930192909252907fc89efdaa54c0f20c7adf612882df0950f5a951637e0307cdcb4c672f298b8bc630620005506001600160e01b03620005ca16565b604080516020808201979097528082019590955260608501939093526001600160a01b03909116608084015260a0808401919091528151808403909101815260c09092019052805191012060075550565b6000620005c1836001600160a01b0384166001600160e01b03620005ce16565b90505b92915050565b4690565b6000620005e583836001600160e01b036200062616565b6200061d57508154600181810184556000848152602080822090930184905584548482528286019093526040902091909155620005c4565b506000620005c4565b60009081526001919091016020526040902054151590565b828054600181600116156101000203166002900490600052602060002090601f016020900481019282601f106200068157805160ff1916838001178555620006b1565b82800160010185558215620006b1579182015b82811115620006b157825182559160200191906001019062000694565b50620006bf929150620006c3565b5090565b6200037091905b80821115620006bf5760008155600101620006ca565b6131b580620006f06000396000f3fe6080604052600436106101655760003560e01c806336568abe116100d1578063a22cb4651161008a578063cf2c52cb11610064578063cf2c52cb146109cb578063d547741f14610a56578063e985e9c514610a8f578063f242432a14610aca57610165565b8063a22cb46514610951578063a3b0b5a31461098c578063ca15c873146109a157610165565b806336568abe146106335780634e1273f41461066c5780635c5fb521146107ec5780639010d07c146108b757806391d1485414610903578063a217fddf1461093c57610165565b80632262f53f116101235780632262f53f14610388578063248a9ca3146103ba5780632d0335ab146103e45780632eb2c2d6146104175780632f2ff15d146105e55780633408e4701461061e57610165565b8062fdd58e1461016a57806301ffc9a7146101b55780630c53c51c146101fd5780630e89341c146103345780630f7e59701461035e57806320379ee514610373575b600080fd5b34801561017657600080fd5b506101a36004803603604081101561018d57600080fd5b506001600160a01b038135169060200135610ba0565b60408051918252519081900360200190f35b3480156101c157600080fd5b506101e9600480360360208110156101d857600080fd5b50356001600160e01b031916610c12565b604080519115158252519081900360200190f35b6102bf600480360360a081101561021357600080fd5b6001600160a01b038235169190810190604081016020820135600160201b81111561023d57600080fd5b82018360208201111561024f57600080fd5b803590602001918460018302840111600160201b8311171561027057600080fd5b91908080601f016020809104026020016040519081016040528093929190818152602001838380828437600092019190915250929550508235935050506020810135906040013560ff16610c31565b6040805160208082528351818301528351919283929083019185019080838360005b838110156102f95781810151838201526020016102e1565b50505050905090810190601f1680156103265780820380516001836020036101000a031916815260200191505b509250505060405180910390f35b34801561034057600080fd5b506102bf6004803603602081101561035757600080fd5b5035610f34565b34801561036a57600080fd5b506102bf610fcc565b34801561037f57600080fd5b506101a3610fe9565b34801561039457600080fd5b506103b8600480360360408110156103ab57600080fd5b5080359060200135610fef565b005b3480156103c657600080fd5b506101a3600480360360208110156103dd57600080fd5b5035611005565b3480156103f057600080fd5b506101a36004803603602081101561040757600080fd5b50356001600160a01b031661101a565b34801561042357600080fd5b506103b8600480360360a081101561043a57600080fd5b6001600160a01b038235811692602081013590911691810190606081016040820135600160201b81111561046d57600080fd5b82018360208201111561047f57600080fd5b803590602001918460208302840111600160201b831117156104a057600080fd5b9190808060200260200160405190810160405280939291908181526020018383602002808284376000920191909152509295949360208101935035915050600160201b8111156104ef57600080fd5b82018360208201111561050157600080fd5b803590602001918460208302840111600160201b8311171561052257600080fd5b9190808060200260200160405190810160405280939291908181526020018383602002808284376000920191909152509295949360208101935035915050600160201b81111561057157600080fd5b82018360208201111561058357600080fd5b803590602001918460018302840111600160201b831117156105a457600080fd5b91908080601f016020809104026020016040519081016040528093929190818152602001838380828437600092019190915250929550611035945050505050565b3480156105f157600080fd5b506103b86004803603604081101561060857600080fd5b50803590602001356001600160a01b0316611333565b34801561062a57600080fd5b506101a361139b565b34801561063f57600080fd5b506103b86004803603604081101561065657600080fd5b50803590602001356001600160a01b031661139f565b34801561067857600080fd5b5061079c6004803603604081101561068f57600080fd5b810190602081018135600160201b8111156106a957600080fd5b8201836020820111156106bb57600080fd5b803590602001918460208302840111600160201b831117156106dc57600080fd5b9190808060200260200160405190810160405280939291908181526020018383602002808284376000920191909152509295949360208101935035915050600160201b81111561072b57600080fd5b82018360208201111561073d57600080fd5b803590602001918460208302840111600160201b8311171561075e57600080fd5b919080806020026020016040519081016040528093929190818152602001838360200280828437600092019190915250929550611400945050505050565b60408051602080825283518183015283519192839290830191858101910280838360005b838110156107d85781810151838201526020016107c0565b505050509050019250505060405180910390f35b3480156107f857600080fd5b506103b86004803603604081101561080f57600080fd5b810190602081018135600160201b81111561082957600080fd5b82018360208201111561083b57600080fd5b803590602001918460208302840111600160201b8311171561085c57600080fd5b919390929091602081019035600160201b81111561087957600080fd5b82018360208201111561088b57600080fd5b803590602001918460208302840111600160201b831117156108ac57600080fd5b50909250905061157e565b3480156108c357600080fd5b506108e7600480360360408110156108da57600080fd5b50803590602001356115f9565b604080516001600160a01b039092168252519081900360200190f35b34801561090f57600080fd5b506101e96004803603604081101561092657600080fd5b50803590602001356001600160a01b031661161e565b34801561094857600080fd5b506101a361163c565b34801561095d57600080fd5b506103b86004803603604081101561097457600080fd5b506001600160a01b0381351690602001351515611641565b34801561099857600080fd5b506101a3611730565b3480156109ad57600080fd5b506101a3600480360360208110156109c457600080fd5b5035611756565b3480156109d757600080fd5b506103b8600480360360408110156109ee57600080fd5b6001600160a01b038235169190810190604081016020820135600160201b811115610a1857600080fd5b820183602082011115610a2a57600080fd5b803590602001918460018302840111600160201b83111715610a4b57600080fd5b50909250905061176d565b348015610a6257600080fd5b506103b860048036036040811015610a7957600080fd5b50803590602001356001600160a01b0316611a43565b348015610a9b57600080fd5b506101e960048036036040811015610ab257600080fd5b506001600160a01b0381358116916020013516611a9c565b348015610ad657600080fd5b506103b8600480360360a0811015610aed57600080fd5b6001600160a01b03823581169260208101359091169160408201359160608101359181019060a081016080820135600160201b811115610b2c57600080fd5b820183602082011115610b3e57600080fd5b803590602001918460018302840111600160201b83111715610b5f57600080fd5b91908080601f016020809104026020016040519081016040528093929190818152602001838380828437600092019190915250929550611aca945050505050565b60006001600160a01b038316610be75760405162461bcd60e51b815260040180806020018281038252602b815260200180612e8e602b913960400191505060405180910390fd5b5060008181526001602090815260408083206001600160a01b03861684529091529020545b92915050565b6001600160e01b03191660009081526020819052604090205460ff1690565b6060610c3b612db6565b50604080516060810182526001600160a01b03881660008181526008602090815290849020548352820152908101869052610c798782878787611c9b565b610cb45760405162461bcd60e51b81526004018080602001828103825260218152602001806130956021913960400191505060405180910390fd5b6001600160a01b038716600090815260086020526040902054610cde90600163ffffffff611d7816565b6001600160a01b03881660008181526008602090815260408083209490945583519283523383820181905260609484018581528b51958501959095528a517f5845892132946850460bff5a0083f71031bc5bf9aadcd40f1de79423eac9b10b958d9592948d94919260808501928601918190849084905b83811015610d6d578181015183820152602001610d55565b50505050905090810190601f168015610d9a5780820380516001836020036101000a031916815260200191505b5094505050505060405180910390a160006060306001600160a01b0316888a6040516020018083805190602001908083835b60208310610deb5780518252601f199092019160209182019101610dcc565b6001836020036101000a038019825116818451168082178552505050505050905001826001600160a01b03166001600160a01b031660601b8152601401925050506040516020818303038152906040526040518082805190602001908083835b60208310610e6a5780518252601f199092019160209182019101610e4b565b6001836020036101000a0380198251168184511680821785525050505050509050019150506000604051808303816000865af19150503d8060008114610ecc576040519150601f19603f3d011682016040523d82523d6000602084013e610ed1565b606091505b509150915081610f28576040805162461bcd60e51b815260206004820152601c60248201527f46756e6374696f6e2063616c6c206e6f74207375636365737366756c00000000604482015290519081900360640190fd5b98975050505050505050565b60038054604080516020601f6002600019610100600188161502019095169490940493840181900481028201810190925282815260609390929091830182828015610fc05780601f10610f9557610100808354040283529160200191610fc0565b820191906000526020600020905b815481529060010190602001808311610fa357829003601f168201915b50505050509050919050565b604051806040016040528060018152602001603160f81b81525081565b60075490565b611001610ffa611dd2565b8383611de1565b5050565b60009081526004602052604090206002015490565b6001600160a01b031660009081526008602052604090205490565b81518351146110755760405162461bcd60e51b81526004018080602001828103825260288152602001806131086028913960400191505060405180910390fd5b6001600160a01b0384166110ba5760405162461bcd60e51b8152600401808060200182810382526025815260200180612ff16025913960400191505060405180910390fd5b6110c2611dd2565b6001600160a01b0316856001600160a01b031614806110ed57506110ed856110e8611dd2565b611a9c565b6111285760405162461bcd60e51b81526004018080602001828103825260328152602001806130166032913960400191505060405180910390fd5b6000611132611dd2565b905061114281878787878761132b565b60005b845181101561124357600085828151811061115c57fe5b60200260200101519050600085838151811061117457fe5b602002602001015190506111e1816040518060600160405280602a815260200161306b602a91396001600086815260200190815260200160002060008d6001600160a01b03166001600160a01b0316815260200190815260200160002054611f1a9092919063ffffffff16565b60008381526001602090815260408083206001600160a01b038e811685529252808320939093558a16815220546112189082611d78565b60009283526001602081815260408086206001600160a01b038d168752909152909320555001611145565b50846001600160a01b0316866001600160a01b0316826001600160a01b03167f4a39dc06d4c0dbc64b70af90fd698a233a518aa5d07e595d983b8c0526c8f7fb8787604051808060200180602001838103835285818151815260200191508051906020019060200280838360005b838110156112c95781810151838201526020016112b1565b50505050905001838103825284818151815260200191508051906020019060200280838360005b838110156113085781810151838201526020016112f0565b5050505090500194505050505060405180910390a461132b818787878787611fb1565b505050505050565b60008281526004602052604090206002015461135690611351611dd2565b61161e565b6113915760405162461bcd60e51b815260040180806020018281038252602f815260200180612e5f602f913960400191505060405180910390fd5b61100182826122e6565b4690565b6113a7611dd2565b6001600160a01b0316816001600160a01b0316146113f65760405162461bcd60e51b815260040180806020018281038252602f815260200180613151602f913960400191505060405180910390fd5b6110018282612355565b606081518351146114425760405162461bcd60e51b81526004018080602001828103825260298152602001806130df6029913960400191505060405180910390fd5b6060835167ffffffffffffffff8111801561145c57600080fd5b50604051908082528060200260200182016040528015611486578160200160208202803683370190505b50905060005b84518110156115765760006001600160a01b03168582815181106114ac57fe5b60200260200101516001600160a01b031614156114fa5760405162461bcd60e51b8152600401808060200182810382526031815260200180612eb96031913960400191505060405180910390fd5b6001600085838151811061150a57fe5b60200260200101518152602001908152602001600020600086838151811061152e57fe5b60200260200101516001600160a01b03166001600160a01b031681526020019081526020016000205482828151811061156357fe5b602090810291909101015260010161148c565b509392505050565b6115f3611589611dd2565b858580806020026020016040519081016040528093929190818152602001838360200280828437600092019190915250506040805160208089028281018201909352888252909350889250879182918501908490808284376000920191909152506123c492505050565b50505050565b6000828152600460205260408120611617908363ffffffff61263216565b9392505050565b6000828152600460205260408120611617908363ffffffff61263e16565b600081565b816001600160a01b0316611653611dd2565b6001600160a01b031614156116995760405162461bcd60e51b81526004018080602001828103825260298152602001806130b66029913960400191505060405180910390fd5b80600260006116a6611dd2565b6001600160a01b03908116825260208083019390935260409182016000908120918716808252919093529120805460ff1916921515929092179091556116ea611dd2565b60408051841515815290516001600160a01b0392909216917f17307eab39ab6107e8899845ad3d59bd9653f200f220920489ca2b5937696c319181900360200190a35050565b604080516d4445504f5349544f525f524f4c4560901b8152905190819003600e01902081565b6000818152600460205260408120610c0c90612653565b604080516d4445504f5349544f525f524f4c4560901b8152905190819003600e01902061179c81611351611dd2565b60059061183c5760405162461bcd60e51b815260206004820190815282546002600019610100600184161502019091160460248301819052909182916044909101908490801561182d5780601f106118025761010080835404028352916020019161182d565b820191906000526020600020905b81548152906001019060200180831161181057829003601f168201915b50509250505060405180910390fd5b5060608060608585606081101561185257600080fd5b810190602081018135600160201b81111561186c57600080fd5b82018360208201111561187e57600080fd5b803590602001918460208302840111600160201b8311171561189f57600080fd5b9190808060200260200160405190810160405280939291908181526020018383602002808284376000920191909152509295949360208101935035915050600160201b8111156118ee57600080fd5b82018360208201111561190057600080fd5b803590602001918460208302840111600160201b8311171561192157600080fd5b9190808060200260200160405190810160405280939291908181526020018383602002808284376000920191909152509295949360208101935035915050600160201b81111561197057600080fd5b82018360208201111561198257600080fd5b803590602001918460018302840111600160201b831117156119a357600080fd5b91908080601f016020809104026020016040519081016040528093929190818152602001838380828437600092019190915250979a50959850909650505050506001600160a01b03891615159150611a2e90505760405162461bcd60e51b8152600401808060200182810382526022815260200180612f516022913960400191505060405180910390fd5b611a3a8784848461265e565b50505050505050565b600082815260046020526040902060020154611a6190611351611dd2565b6113f65760405162461bcd60e51b8152600401808060200182810382526030815260200180612f9c6030913960400191505060405180910390fd5b6001600160a01b03918216600090815260026020908152604080832093909416825291909152205460ff1690565b6001600160a01b038416611b0f5760405162461bcd60e51b8152600401808060200182810382526025815260200180612ff16025913960400191505060405180910390fd5b611b17611dd2565b6001600160a01b0316856001600160a01b03161480611b3d5750611b3d856110e8611dd2565b611b785760405162461bcd60e51b8152600401808060200182810382526029815260200180612f736029913960400191505060405180910390fd5b6000611b82611dd2565b9050611ba2818787611b93886128b3565b611b9c886128b3565b8761132b565b611bef836040518060600160405280602a815260200161306b602a913960008781526001602090815260408083206001600160a01b038d168452909152902054919063ffffffff611f1a16565b60008581526001602090815260408083206001600160a01b038b81168552925280832093909355871681522054611c269084611d78565b60008581526001602090815260408083206001600160a01b03808b168086529184529382902094909455805188815291820187905280518a8416938616927fc3d58168c5ae7397731d063d5bbf3d657854427343f4c083240f7aacaa2d0f6292908290030190a461132b8187878787876128f7565b60006001600160a01b038616611ce25760405162461bcd60e51b8152600401808060200182810382526025815260200180612fcc6025913960400191505060405180910390fd5b6001611cf5611cf087612a8a565b612b16565b83868660405160008152602001604052604051808581526020018460ff1660ff1681526020018381526020018281526020019450505050506020604051602081039080840390855afa158015611d4f573d6000803e3d6000fd5b505050602060405103516001600160a01b0316866001600160a01b031614905095945050505050565b600082820183811015611617576040805162461bcd60e51b815260206004820152601b60248201527f536166654d6174683a206164646974696f6e206f766572666c6f770000000000604482015290519081900360640190fd5b6000611ddc612b62565b905090565b6001600160a01b038316611e265760405162461bcd60e51b81526004018080602001828103825260238152602001806130486023913960400191505060405180910390fd5b6000611e30611dd2565b9050611e6081856000611e42876128b3565b611e4b876128b3565b6040518060200160405280600081525061132b565b611ead82604051806060016040528060248152602001612f2d6024913960008681526001602090815260408083206001600160a01b038b168452909152902054919063ffffffff611f1a16565b60008481526001602090815260408083206001600160a01b03808a16808652918452828520959095558151888152928301879052815193949093908616927fc3d58168c5ae7397731d063d5bbf3d657854427343f4c083240f7aacaa2d0f6292908290030190a450505050565b60008184841115611fa95760405162461bcd60e51b81526004018080602001828103825283818151815260200191508051906020019080838360005b83811015611f6e578181015183820152602001611f56565b50505050905090810190601f168015611f9b5780820380516001836020036101000a031916815260200191505b509250505060405180910390fd5b505050900390565b611fc3846001600160a01b0316612bc0565b1561132b57836001600160a01b031663bc197c8187878686866040518663ffffffff1660e01b815260040180866001600160a01b03166001600160a01b03168152602001856001600160a01b03166001600160a01b03168152602001806020018060200180602001848103845287818151815260200191508051906020019060200280838360005b8381101561206357818101518382015260200161204b565b50505050905001848103835286818151815260200191508051906020019060200280838360005b838110156120a257818101518382015260200161208a565b50505050905001848103825285818151815260200191508051906020019080838360005b838110156120de5781810151838201526020016120c6565b50505050905090810190601f16801561210b5780820380516001836020036101000a031916815260200191505b5098505050505050505050602060405180830381600087803b15801561213057600080fd5b505af192505050801561215557506040513d602081101561215057600080fd5b505160015b612297576040516000815260443d10156121715750600061220e565b60046000803e60005160e01c6308c379a0811461219257600091505061220e565b60043d036004833e81513d602482011167ffffffffffffffff821117156121be5760009250505061220e565b808301805167ffffffffffffffff8111156121e057600094505050505061220e565b8060208301013d86018111156121fe5760009550505050505061220e565b601f01601f191660405250925050505b806122195750612260565b60405162461bcd60e51b8152602060048201818152835160248401528351849391928392604401919085019080838360008315611f6e578181015183820152602001611f56565b60405162461bcd60e51b8152600401808060200182810382526034815260200180612de16034913960400191505060405180910390fd5b6001600160e01b0319811663bc197c8160e01b14611a3a5760405162461bcd60e51b8152600401808060200182810382526028815260200180612e376028913960400191505060405180910390fd5b6000828152600460205260409020612304908263ffffffff612bfc16565b1561100157612311611dd2565b6001600160a01b0316816001600160a01b0316837f2f8788117e7eff1d82e926ec794901d17c78024a50270940304540a733656f0d60405160405180910390a45050565b6000828152600460205260409020612373908263ffffffff612c1116565b1561100157612380611dd2565b6001600160a01b0316816001600160a01b0316837ff6391f5c32d9c69d2a47ea670b442974b53935d1edc7fd64eb21e047a839171b60405160405180910390a45050565b6001600160a01b0383166124095760405162461bcd60e51b81526004018080602001828103825260238152602001806130486023913960400191505060405180910390fd5b80518251146124495760405162461bcd60e51b81526004018080602001828103825260288152602001806131086028913960400191505060405180910390fd5b6000612453611dd2565b90506124738185600086866040518060200160405280600081525061132b565b60005b83518110156125515761250883828151811061248e57fe5b6020026020010151604051806060016040528060248152602001612f2d60249139600160008886815181106124bf57fe5b602002602001015181526020019081526020016000206000896001600160a01b03166001600160a01b0316815260200190815260200160002054611f1a9092919063ffffffff16565b6001600086848151811061251857fe5b602090810291909101810151825281810192909252604090810160009081206001600160a01b038a168252909252902055600101612476565b5060006001600160a01b0316846001600160a01b0316826001600160a01b03167f4a39dc06d4c0dbc64b70af90fd698a233a518aa5d07e595d983b8c0526c8f7fb8686604051808060200180602001838103835285818151815260200191508051906020019060200280838360005b838110156125d85781810151838201526020016125c0565b50505050905001838103825284818151815260200191508051906020019060200280838360005b838110156126175781810151838201526020016125ff565b5050505090500194505050505060405180910390a450505050565b60006116178383612c26565b6000611617836001600160a01b038416612c8a565b6000610c0c82612ca2565b6001600160a01b0384166126a35760405162461bcd60e51b81526004018080602001828103825260218152602001806131306021913960400191505060405180910390fd5b81518351146126e35760405162461bcd60e51b81526004018080602001828103825260288152602001806131086028913960400191505060405180910390fd5b60006126ed611dd2565b90506126fe8160008787878761132b565b60005b84518110156127c2576127796001600087848151811061271d57fe5b602002602001015181526020019081526020016000206000886001600160a01b03166001600160a01b031681526020019081526020016000205485838151811061276357fe5b6020026020010151611d7890919063ffffffff16565b6001600087848151811061278957fe5b602090810291909101810151825281810192909252604090810160009081206001600160a01b038b168252909252902055600101612701565b50846001600160a01b031660006001600160a01b0316826001600160a01b03167f4a39dc06d4c0dbc64b70af90fd698a233a518aa5d07e595d983b8c0526c8f7fb8787604051808060200180602001838103835285818151815260200191508051906020019060200280838360005b83811015612849578181015183820152602001612831565b50505050905001838103825284818151815260200191508051906020019060200280838360005b83811015612888578181015183820152602001612870565b5050505090500194505050505060405180910390a46128ac81600087878787611fb1565b5050505050565b6040805160018082528183019092526060918291906020808301908036833701905050905082816000815181106128e657fe5b602090810291909101015292915050565b612909846001600160a01b0316612bc0565b1561132b57836001600160a01b031663f23a6e6187878686866040518663ffffffff1660e01b815260040180866001600160a01b03166001600160a01b03168152602001856001600160a01b03166001600160a01b0316815260200184815260200183815260200180602001828103825283818151815260200191508051906020019080838360005b838110156129aa578181015183820152602001612992565b50505050905090810190601f1680156129d75780820380516001836020036101000a031916815260200191505b509650505050505050602060405180830381600087803b1580156129fa57600080fd5b505af1925050508015612a1f57506040513d6020811015612a1a57600080fd5b505160015b612a3b576040516000815260443d10156121715750600061220e565b6001600160e01b0319811663f23a6e6160e01b14611a3a5760405162461bcd60e51b8152600401808060200182810382526028815260200180612e376028913960400191505060405180910390fd5b6000604051806080016040528060438152602001612eea60439139805190602001208260000151836020015184604001518051906020012060405160200180858152602001848152602001836001600160a01b03166001600160a01b03168152602001828152602001945050505050604051602081830303815290604052805190602001209050919050565b6000612b20610fe9565b82604051602001808061190160f01b81525060020183815260200182815260200192505050604051602081830303815290604052805190602001209050919050565b600033301415612bba5760606000368080601f0160208091040260200160405190810160405280939291908181526020018383808284376000920191909152505050503601516001600160a01b03169150612bbd9050565b50335b90565b6000813f7fc5d2460186f7233c927e7db2dcc703c0e500b653ca82273b7bfad8045d85a470818114801590612bf457508115155b949350505050565b6000611617836001600160a01b038416612ca6565b6000611617836001600160a01b038416612cf0565b81546000908210612c685760405162461bcd60e51b8152600401808060200182810382526022815260200180612e156022913960400191505060405180910390fd5b826000018281548110612c7757fe5b9060005260206000200154905092915050565b60009081526001919091016020526040902054151590565b5490565b6000612cb28383612c8a565b612ce857508154600181810184556000848152602080822090930184905584548482528286019093526040902091909155610c0c565b506000610c0c565b60008181526001830160205260408120548015612dac5783546000198083019190810190600090879083908110612d2357fe5b9060005260206000200154905080876000018481548110612d4057fe5b600091825260208083209091019290925582815260018981019092526040902090840190558654879080612d7057fe5b60019003818190600052602060002001600090559055866001016000878152602001908152602001600020600090556001945050505050610c0c565b6000915050610c0c565b60405180606001604052806000815260200160006001600160a01b0316815260200160608152509056fe455243313135353a207472616e7366657220746f206e6f6e2045524331313535526563656976657220696d706c656d656e746572456e756d657261626c655365743a20696e646578206f7574206f6620626f756e6473455243313135353a204552433131353552656365697665722072656a656374656420746f6b656e73416363657373436f6e74726f6c3a2073656e646572206d75737420626520616e2061646d696e20746f206772616e74455243313135353a2062616c616e636520717565727920666f7220746865207a65726f2061646472657373455243313135353a2062617463682062616c616e636520717565727920666f7220746865207a65726f20616464726573734d6574615472616e73616374696f6e2875696e74323536206e6f6e63652c616464726573732066726f6d2c62797465732066756e6374696f6e5369676e617475726529455243313135353a206275726e20616d6f756e7420657863656564732062616c616e63654368696c64455243313135353a20494e56414c49445f4445504f5349545f55534552455243313135353a2063616c6c6572206973206e6f74206f776e6572206e6f7220617070726f766564416363657373436f6e74726f6c3a2073656e646572206d75737420626520616e2061646d696e20746f207265766f6b654e61746976654d6574615472616e73616374696f6e3a20494e56414c49445f5349474e4552455243313135353a207472616e7366657220746f20746865207a65726f2061646472657373455243313135353a207472616e736665722063616c6c6572206973206e6f74206f776e6572206e6f7220617070726f766564455243313135353a206275726e2066726f6d20746865207a65726f2061646472657373455243313135353a20696e73756666696369656e742062616c616e636520666f72207472616e736665725369676e657220616e64207369676e617475726520646f206e6f74206d61746368455243313135353a2073657474696e6720617070726f76616c2073746174757320666f722073656c66455243313135353a206163636f756e747320616e6420696473206c656e677468206d69736d61746368455243313135353a2069647320616e6420616d6f756e7473206c656e677468206d69736d61746368455243313135353a206d696e7420746f20746865207a65726f2061646472657373416363657373436f6e74726f6c3a2063616e206f6e6c792072656e6f756e636520726f6c657320666f722073656c66a26469706673582212202d01bf08708c409ccf1bf7e0df1f4bd9ea2477a05205e73b8fb9d2bd8621492264736f6c63430006060033454950373132446f6d61696e28737472696e67206e616d652c737472696e672076657273696f6e2c6164647265737320766572696679696e67436f6e74726163742c627974657333322073616c7429",
  "immutableReferences": {},
  "source": "pragma solidity 0.6.6;\n\nimport {ERC1155} from \"@openzeppelin/contracts/token/ERC1155/ERC1155.sol\";\nimport {AccessControlMixin} from \"../../common/AccessControlMixin.sol\";\nimport {IChildToken} from \"./IChildToken.sol\";\nimport {NativeMetaTransaction} from \"../../common/NativeMetaTransaction.sol\";\nimport {ContextMixin} from \"../../common/ContextMixin.sol\";\n\ncontract ChildERC1155 is\n    ERC1155,\n    IChildToken,\n    AccessControlMixin,\n    NativeMetaTransaction,\n    ContextMixin\n{\n    bytes32 public constant DEPOSITOR_ROLE = keccak256(\"DEPOSITOR_ROLE\");\n\n    constructor(string memory uri_, address childChainManager)\n        public\n        ERC1155(uri_)\n    {\n        _setupContractId(\"ChildERC1155\");\n        _setupRole(DEFAULT_ADMIN_ROLE, _msgSender());\n        _setupRole(DEPOSITOR_ROLE, childChainManager);\n        _initializeEIP712(uri_);\n    }\n\n    // This is to support Native meta transactions\n    // never use msg.sender directly, use _msgSender() instead\n    function _msgSender()\n        internal\n        override\n        view\n        returns (address payable sender)\n    {\n        return ContextMixin.msgSender();\n    }\n\n    /**\n     * @notice called when tokens are deposited on root chain\n     * @dev Should be callable only by ChildChainManager\n     * Should handle deposit by minting the required tokens for user\n     * Make sure minting is done only by this function\n     * @param user user address for whom deposit is being done\n     * @param depositData abi encoded ids array and amounts array\n     */\n    function deposit(address user, bytes calldata depositData)\n        external\n        override\n        only(DEPOSITOR_ROLE)\n    {\n        (\n            uint256[] memory ids,\n            uint256[] memory amounts,\n            bytes memory data\n        ) = abi.decode(depositData, (uint256[], uint256[], bytes));\n        require(user != address(0x0), \"ChildERC1155: INVALID_DEPOSIT_USER\");\n        _mintBatch(user, ids, amounts, data);\n    }\n\n    /**\n     * @notice called when user wants to withdraw single token back to root chain\n     * @dev Should burn user's tokens. This transaction will be verified when exiting on root chain\n     * @param id id to withdraw\n     * @param amount amount to withdraw\n     */\n    function withdrawSingle(uint256 id, uint256 amount) external {\n        _burn(_msgSender(), id, amount);\n    }\n\n    /**\n     * @notice called when user wants to batch withdraw tokens back to root chain\n     * @dev Should burn user's tokens. This transaction will be verified when exiting on root chain\n     * @param ids ids to withdraw\n     * @param amounts amounts to withdraw\n     */\n    function withdrawBatch(uint256[] calldata ids, uint256[] calldata amounts)\n        external\n    {\n        _burnBatch(_msgSender(), ids, amounts);\n    }\n}\n",
  "sourcePath": "/Users/ohm.jirapon/playground/blockhain/layer-2/plasma-ploygon/matic-cli/devnet/code/pos-portal/contracts/child/ChildToken/ChildERC1155.sol",
  "compiler": {
    "name": "solc",
    "version": "0.6.6+commit.6c089d02.Linux.g++"
  },
  "schemaVersion": "3.4.9",
  "updatedAt": "2022-08-22T08:25:01.476Z",
  "networkType": "ethereum",
  "devdoc": {
    "methods": {
      "balanceOf(address,uint256)": {
        "details": "See {IERC1155-balanceOf}.     * Requirements:     * - `account` cannot be the zero address."
      },
      "balanceOfBatch(address[],uint256[])": {
        "details": "See {IERC1155-balanceOfBatch}.     * Requirements:     * - `accounts` and `ids` must have the same length."
      },
      "deposit(address,bytes)": {
        "details": "Should be callable only by ChildChainManager Should handle deposit by minting the required tokens for user Make sure minting is done only by this function",
        "params": {
          "depositData": "abi encoded ids array and amounts array",
          "user": "user address for whom deposit is being done"
        }
      },
      "getRoleAdmin(bytes32)": {
        "details": "Returns the admin role that controls `role`. See {grantRole} and {revokeRole}.     * To change a role's admin, use {_setRoleAdmin}."
      },
      "getRoleMember(bytes32,uint256)": {
        "details": "Returns one of the accounts that have `role`. `index` must be a value between 0 and {getRoleMemberCount}, non-inclusive.     * Role bearers are not sorted in any particular way, and their ordering may change at any point.     * WARNING: When using {getRoleMember} and {getRoleMemberCount}, make sure you perform all queries on the same block. See the following https://forum.openzeppelin.com/t/iterating-over-elements-on-enumerableset-in-openzeppelin-contracts/2296[forum post] for more information."
      },
      "getRoleMemberCount(bytes32)": {
        "details": "Returns the number of accounts that have `role`. Can be used together with {getRoleMember} to enumerate all bearers of a role."
      },
      "grantRole(bytes32,address)": {
        "details": "Grants `role` to `account`.     * If `account` had not been already granted `role`, emits a {RoleGranted} event.     * Requirements:     * - the caller must have ``role``'s admin role."
      },
      "hasRole(bytes32,address)": {
        "details": "Returns `true` if `account` has been granted `role`."
      },
      "isApprovedForAll(address,address)": {
        "details": "See {IERC1155-isApprovedForAll}."
      },
      "renounceRole(bytes32,address)": {
        "details": "Revokes `role` from the calling account.     * Roles are often managed via {grantRole} and {revokeRole}: this function's purpose is to provide a mechanism for accounts to lose their privileges if they are compromised (such as when a trusted device is misplaced).     * If the calling account had been granted `role`, emits a {RoleRevoked} event.     * Requirements:     * - the caller must be `account`."
      },
      "revokeRole(bytes32,address)": {
        "details": "Revokes `role` from `account`.     * If `account` had been granted `role`, emits a {RoleRevoked} event.     * Requirements:     * - the caller must have ``role``'s admin role."
      },
      "safeBatchTransferFrom(address,address,uint256[],uint256[],bytes)": {
        "details": "See {IERC1155-safeBatchTransferFrom}."
      },
      "safeTransferFrom(address,address,uint256,uint256,bytes)": {
        "details": "See {IERC1155-safeTransferFrom}."
      },
      "setApprovalForAll(address,bool)": {
        "details": "See {IERC1155-setApprovalForAll}."
      },
      "supportsInterface(bytes4)": {
        "details": "See {IERC165-supportsInterface}.     * Time complexity O(1), guaranteed to always use less than 30 000 gas."
      },
      "uri(uint256)": {
        "details": "See {IERC1155MetadataURI-uri}.     * This implementation returns the same URI for *all* token types. It relies on the token type ID substituion mechanism https://eips.ethereum.org/EIPS/eip-1155#metadata[defined in the EIP].     * Clients calling this function must replace the `\\{id\\}` substring with the actual token type ID."
      },
      "withdrawBatch(uint256[],uint256[])": {
        "details": "Should burn user's tokens. This transaction will be verified when exiting on root chain",
        "params": {
          "amounts": "amounts to withdraw",
          "ids": "ids to withdraw"
        }
      },
      "withdrawSingle(uint256,uint256)": {
        "details": "Should burn user's tokens. This transaction will be verified when exiting on root chain",
        "params": {
          "amount": "amount to withdraw",
          "id": "id to withdraw"
        }
      }
    }
  },
  "userdoc": {
    "methods": {
      "deposit(address,bytes)": {
        "notice": "called when tokens are deposited on root chain"
      },
      "withdrawBatch(uint256[],uint256[])": {
        "notice": "called when user wants to batch withdraw tokens back to root chain"
      },
      "withdrawSingle(uint256,uint256)": {
        "notice": "called when user wants to withdraw single token back to root chain"
      }
    }
  }
}