{
  "contractName": "ChildMintableERC721",
  "abi": [
    {
      "inputs": [
        {
          "internalType": "string",
          "name": "name_",
          "type": "string"
        },
        {
          "internalType": "string",
          "name": "symbol_",
          "type": "string"
        },
        {
          "internalType": "address",
          "name": "childChainManager",
          "type": "address"
        }
      ],
      "stateMutability": "nonpayable",
      "type": "constructor"
    },
    {
      "anonymous": false,
      "inputs": [
        {
          "indexed": true,
          "internalType": "address",
          "name": "owner",
          "type": "address"
        },
        {
          "indexed": true,
          "internalType": "address",
          "name": "approved",
          "type": "address"
        },
        {
          "indexed": true,
          "internalType": "uint256",
          "name": "tokenId",
          "type": "uint256"
        }
      ],
      "name": "Approval",
      "type": "event"
    },
    {
      "anonymous": false,
      "inputs": [
        {
          "indexed": true,
          "internalType": "address",
          "name": "owner",
          "type": "address"
        },
        {
          "indexed": true,
          "internalType": "address",
          "name": "operator",
          "type": "address"
        },
        {
          "indexed": false,
          "internalType": "bool",
          "name": "approved",
          "type": "bool"
        }
      ],
      "name": "ApprovalForAll",
      "type": "event"
    },
    {
      "anonymous": false,
      "inputs": [
        {
          "indexed": false,
          "internalType": "address",
          "name": "userAddress",
          "type": "address"
        },
        {
          "indexed": false,
          "internalType": "address payable",
          "name": "relayerAddress",
          "type": "address"
        },
        {
          "indexed": false,
          "internalType": "bytes",
          "name": "functionSignature",
          "type": "bytes"
        }
      ],
      "name": "MetaTransactionExecuted",
      "type": "event"
    },
    {
      "anonymous": false,
      "inputs": [
        {
          "indexed": true,
          "internalType": "bytes32",
          "name": "role",
          "type": "bytes32"
        },
        {
          "indexed": true,
          "internalType": "bytes32",
          "name": "previousAdminRole",
          "type": "bytes32"
        },
        {
          "indexed": true,
          "internalType": "bytes32",
          "name": "newAdminRole",
          "type": "bytes32"
        }
      ],
      "name": "RoleAdminChanged",
      "type": "event"
    },
    {
      "anonymous": false,
      "inputs": [
        {
          "indexed": true,
          "internalType": "bytes32",
          "name": "role",
          "type": "bytes32"
        },
        {
          "indexed": true,
          "internalType": "address",
          "name": "account",
          "type": "address"
        },
        {
          "indexed": true,
          "internalType": "address",
          "name": "sender",
          "type": "address"
        }
      ],
      "name": "RoleGranted",
      "type": "event"
    },
    {
      "anonymous": false,
      "inputs": [
        {
          "indexed": true,
          "internalType": "bytes32",
          "name": "role",
          "type": "bytes32"
        },
        {
          "indexed": true,
          "internalType": "address",
          "name": "account",
          "type": "address"
        },
        {
          "indexed": true,
          "internalType": "address",
          "name": "sender",
          "type": "address"
        }
      ],
      "name": "RoleRevoked",
      "type": "event"
    },
    {
      "anonymous": false,
      "inputs": [
        {
          "indexed": true,
          "internalType": "address",
          "name": "from",
          "type": "address"
        },
        {
          "indexed": true,
          "internalType": "address",
          "name": "to",
          "type": "address"
        },
        {
          "indexed": true,
          "internalType": "uint256",
          "name": "tokenId",
          "type": "uint256"
        }
      ],
      "name": "Transfer",
      "type": "event"
    },
    {
      "anonymous": false,
      "inputs": [
        {
          "indexed": true,
          "internalType": "address",
          "name": "from",
          "type": "address"
        },
        {
          "indexed": true,
          "internalType": "address",
          "name": "to",
          "type": "address"
        },
        {
          "indexed": true,
          "internalType": "uint256",
          "name": "tokenId",
          "type": "uint256"
        },
        {
          "indexed": false,
          "internalType": "bytes",
          "name": "metaData",
          "type": "bytes"
        }
      ],
      "name": "TransferWithMetadata",
      "type": "event"
    },
    {
      "anonymous": false,
      "inputs": [
        {
          "indexed": true,
          "internalType": "address",
          "name": "user",
          "type": "address"
        },
        {
          "indexed": false,
          "internalType": "uint256[]",
          "name": "tokenIds",
          "type": "uint256[]"
        }
      ],
      "name": "WithdrawnBatch",
      "type": "event"
    },
    {
      "inputs": [],
      "name": "BATCH_LIMIT",
      "outputs": [
        {
          "internalType": "uint256",
          "name": "",
          "type": "uint256"
        }
      ],
      "stateMutability": "view",
      "type": "function",
      "constant": true
    },
    {
      "inputs": [],
      "name": "DEFAULT_ADMIN_ROLE",
      "outputs": [
        {
          "internalType": "bytes32",
          "name": "",
          "type": "bytes32"
        }
      ],
      "stateMutability": "view",
      "type": "function",
      "constant": true
    },
    {
      "inputs": [],
      "name": "DEPOSITOR_ROLE",
      "outputs": [
        {
          "internalType": "bytes32",
          "name": "",
          "type": "bytes32"
        }
      ],
      "stateMutability": "view",
      "type": "function",
      "constant": true
    },
    {
      "inputs": [],
      "name": "ERC712_VERSION",
      "outputs": [
        {
          "internalType": "string",
          "name": "",
          "type": "string"
        }
      ],
      "stateMutability": "view",
      "type": "function",
      "constant": true
    },
    {
      "inputs": [
        {
          "internalType": "address",
          "name": "to",
          "type": "address"
        },
        {
          "internalType": "uint256",
          "name": "tokenId",
          "type": "uint256"
        }
      ],
      "name": "approve",
      "outputs": [],
      "stateMutability": "nonpayable",
      "type": "function"
    },
    {
      "inputs": [
        {
          "internalType": "address",
          "name": "owner",
          "type": "address"
        }
      ],
      "name": "balanceOf",
      "outputs": [
        {
          "internalType": "uint256",
          "name": "",
          "type": "uint256"
        }
      ],
      "stateMutability": "view",
      "type": "function",
      "constant": true
    },
    {
      "inputs": [],
      "name": "baseURI",
      "outputs": [
        {
          "internalType": "string",
          "name": "",
          "type": "string"
        }
      ],
      "stateMutability": "view",
      "type": "function",
      "constant": true
    },
    {
      "inputs": [
        {
          "internalType": "address",
          "name": "userAddress",
          "type": "address"
        },
        {
          "internalType": "bytes",
          "name": "functionSignature",
          "type": "bytes"
        },
        {
          "internalType": "bytes32",
          "name": "sigR",
          "type": "bytes32"
        },
        {
          "internalType": "bytes32",
          "name": "sigS",
          "type": "bytes32"
        },
        {
          "internalType": "uint8",
          "name": "sigV",
          "type": "uint8"
        }
      ],
      "name": "executeMetaTransaction",
      "outputs": [
        {
          "internalType": "bytes",
          "name": "",
          "type": "bytes"
        }
      ],
      "stateMutability": "payable",
      "type": "function",
      "payable": true
    },
    {
      "inputs": [
        {
          "internalType": "uint256",
          "name": "tokenId",
          "type": "uint256"
        }
      ],
      "name": "getApproved",
      "outputs": [
        {
          "internalType": "address",
          "name": "",
          "type": "address"
        }
      ],
      "stateMutability": "view",
      "type": "function",
      "constant": true
    },
    {
      "inputs": [],
      "name": "getChainId",
      "outputs": [
        {
          "internalType": "uint256",
          "name": "",
          "type": "uint256"
        }
      ],
      "stateMutability": "pure",
      "type": "function",
      "constant": true
    },
    {
      "inputs": [],
      "name": "getDomainSeperator",
      "outputs": [
        {
          "internalType": "bytes32",
          "name": "",
          "type": "bytes32"
        }
      ],
      "stateMutability": "view",
      "type": "function",
      "constant": true
    },
    {
      "inputs": [
        {
          "internalType": "address",
          "name": "user",
          "type": "address"
        }
      ],
      "name": "getNonce",
      "outputs": [
        {
          "internalType": "uint256",
          "name": "nonce",
          "type": "uint256"
        }
      ],
      "stateMutability": "view",
      "type": "function",
      "constant": true
    },
    {
      "inputs": [
        {
          "internalType": "bytes32",
          "name": "role",
          "type": "bytes32"
        }
      ],
      "name": "getRoleAdmin",
      "outputs": [
        {
          "internalType": "bytes32",
          "name": "",
          "type": "bytes32"
        }
      ],
      "stateMutability": "view",
      "type": "function",
      "constant": true
    },
    {
      "inputs": [
        {
          "internalType": "bytes32",
          "name": "role",
          "type": "bytes32"
        },
        {
          "internalType": "uint256",
          "name": "index",
          "type": "uint256"
        }
      ],
      "name": "getRoleMember",
      "outputs": [
        {
          "internalType": "address",
          "name": "",
          "type": "address"
        }
      ],
      "stateMutability": "view",
      "type": "function",
      "constant": true
    },
    {
      "inputs": [
        {
          "internalType": "bytes32",
          "name": "role",
          "type": "bytes32"
        }
      ],
      "name": "getRoleMemberCount",
      "outputs": [
        {
          "internalType": "uint256",
          "name": "",
          "type": "uint256"
        }
      ],
      "stateMutability": "view",
      "type": "function",
      "constant": true
    },
    {
      "inputs": [
        {
          "internalType": "bytes32",
          "name": "role",
          "type": "bytes32"
        },
        {
          "internalType": "address",
          "name": "account",
          "type": "address"
        }
      ],
      "name": "grantRole",
      "outputs": [],
      "stateMutability": "nonpayable",
      "type": "function"
    },
    {
      "inputs": [
        {
          "internalType": "bytes32",
          "name": "role",
          "type": "bytes32"
        },
        {
          "internalType": "address",
          "name": "account",
          "type": "address"
        }
      ],
      "name": "hasRole",
      "outputs": [
        {
          "internalType": "bool",
          "name": "",
          "type": "bool"
        }
      ],
      "stateMutability": "view",
      "type": "function",
      "constant": true
    },
    {
      "inputs": [
        {
          "internalType": "address",
          "name": "owner",
          "type": "address"
        },
        {
          "internalType": "address",
          "name": "operator",
          "type": "address"
        }
      ],
      "name": "isApprovedForAll",
      "outputs": [
        {
          "internalType": "bool",
          "name": "",
          "type": "bool"
        }
      ],
      "stateMutability": "view",
      "type": "function",
      "constant": true
    },
    {
      "inputs": [],
      "name": "name",
      "outputs": [
        {
          "internalType": "string",
          "name": "",
          "type": "string"
        }
      ],
      "stateMutability": "view",
      "type": "function",
      "constant": true
    },
    {
      "inputs": [
        {
          "internalType": "uint256",
          "name": "tokenId",
          "type": "uint256"
        }
      ],
      "name": "ownerOf",
      "outputs": [
        {
          "internalType": "address",
          "name": "",
          "type": "address"
        }
      ],
      "stateMutability": "view",
      "type": "function",
      "constant": true
    },
    {
      "inputs": [
        {
          "internalType": "bytes32",
          "name": "role",
          "type": "bytes32"
        },
        {
          "internalType": "address",
          "name": "account",
          "type": "address"
        }
      ],
      "name": "renounceRole",
      "outputs": [],
      "stateMutability": "nonpayable",
      "type": "function"
    },
    {
      "inputs": [
        {
          "internalType": "bytes32",
          "name": "role",
          "type": "bytes32"
        },
        {
          "internalType": "address",
          "name": "account",
          "type": "address"
        }
      ],
      "name": "revokeRole",
      "outputs": [],
      "stateMutability": "nonpayable",
      "type": "function"
    },
    {
      "inputs": [
        {
          "internalType": "address",
          "name": "from",
          "type": "address"
        },
        {
          "internalType": "address",
          "name": "to",
          "type": "address"
        },
        {
          "internalType": "uint256",
          "name": "tokenId",
          "type": "uint256"
        }
      ],
      "name": "safeTransferFrom",
      "outputs": [],
      "stateMutability": "nonpayable",
      "type": "function"
    },
    {
      "inputs": [
        {
          "internalType": "address",
          "name": "from",
          "type": "address"
        },
        {
          "internalType": "address",
          "name": "to",
          "type": "address"
        },
        {
          "internalType": "uint256",
          "name": "tokenId",
          "type": "uint256"
        },
        {
          "internalType": "bytes",
          "name": "_data",
          "type": "bytes"
        }
      ],
      "name": "safeTransferFrom",
      "outputs": [],
      "stateMutability": "nonpayable",
      "type": "function"
    },
    {
      "inputs": [
        {
          "internalType": "address",
          "name": "operator",
          "type": "address"
        },
        {
          "internalType": "bool",
          "name": "approved",
          "type": "bool"
        }
      ],
      "name": "setApprovalForAll",
      "outputs": [],
      "stateMutability": "nonpayable",
      "type": "function"
    },
    {
      "inputs": [
        {
          "internalType": "bytes4",
          "name": "interfaceId",
          "type": "bytes4"
        }
      ],
      "name": "supportsInterface",
      "outputs": [
        {
          "internalType": "bool",
          "name": "",
          "type": "bool"
        }
      ],
      "stateMutability": "view",
      "type": "function",
      "constant": true
    },
    {
      "inputs": [],
      "name": "symbol",
      "outputs": [
        {
          "internalType": "string",
          "name": "",
          "type": "string"
        }
      ],
      "stateMutability": "view",
      "type": "function",
      "constant": true
    },
    {
      "inputs": [
        {
          "internalType": "uint256",
          "name": "index",
          "type": "uint256"
        }
      ],
      "name": "tokenByIndex",
      "outputs": [
        {
          "internalType": "uint256",
          "name": "",
          "type": "uint256"
        }
      ],
      "stateMutability": "view",
      "type": "function",
      "constant": true
    },
    {
      "inputs": [
        {
          "internalType": "address",
          "name": "owner",
          "type": "address"
        },
        {
          "internalType": "uint256",
          "name": "index",
          "type": "uint256"
        }
      ],
      "name": "tokenOfOwnerByIndex",
      "outputs": [
        {
          "internalType": "uint256",
          "name": "",
          "type": "uint256"
        }
      ],
      "stateMutability": "view",
      "type": "function",
      "constant": true
    },
    {
      "inputs": [
        {
          "internalType": "uint256",
          "name": "tokenId",
          "type": "uint256"
        }
      ],
      "name": "tokenURI",
      "outputs": [
        {
          "internalType": "string",
          "name": "",
          "type": "string"
        }
      ],
      "stateMutability": "view",
      "type": "function",
      "constant": true
    },
    {
      "inputs": [],
      "name": "totalSupply",
      "outputs": [
        {
          "internalType": "uint256",
          "name": "",
          "type": "uint256"
        }
      ],
      "stateMutability": "view",
      "type": "function",
      "constant": true
    },
    {
      "inputs": [
        {
          "internalType": "address",
          "name": "from",
          "type": "address"
        },
        {
          "internalType": "address",
          "name": "to",
          "type": "address"
        },
        {
          "internalType": "uint256",
          "name": "tokenId",
          "type": "uint256"
        }
      ],
      "name": "transferFrom",
      "outputs": [],
      "stateMutability": "nonpayable",
      "type": "function"
    },
    {
      "inputs": [
        {
          "internalType": "uint256",
          "name": "",
          "type": "uint256"
        }
      ],
      "name": "withdrawnTokens",
      "outputs": [
        {
          "internalType": "bool",
          "name": "",
          "type": "bool"
        }
      ],
      "stateMutability": "view",
      "type": "function",
      "constant": true
    },
    {
      "inputs": [
        {
          "internalType": "address",
          "name": "user",
          "type": "address"
        },
        {
          "internalType": "bytes",
          "name": "depositData",
          "type": "bytes"
        }
      ],
      "name": "deposit",
      "outputs": [],
      "stateMutability": "nonpayable",
      "type": "function"
    },
    {
      "inputs": [
        {
          "internalType": "uint256",
          "name": "tokenId",
          "type": "uint256"
        }
      ],
      "name": "withdraw",
      "outputs": [],
      "stateMutability": "nonpayable",
      "type": "function"
    },
    {
      "inputs": [
        {
          "internalType": "uint256[]",
          "name": "tokenIds",
          "type": "uint256[]"
        }
      ],
      "name": "withdrawBatch",
      "outputs": [],
      "stateMutability": "nonpayable",
      "type": "function"
    },
    {
      "inputs": [
        {
          "internalType": "uint256",
          "name": "tokenId",
          "type": "uint256"
        }
      ],
      "name": "withdrawWithMetadata",
      "outputs": [],
      "stateMutability": "nonpayable",
      "type": "function"
    },
    {
      "inputs": [
        {
          "internalType": "uint256",
          "name": "tokenId",
          "type": "uint256"
        }
      ],
      "name": "encodeTokenMetadata",
      "outputs": [
        {
          "internalType": "bytes",
          "name": "",
          "type": "bytes"
        }
      ],
      "stateMutability": "view",
      "type": "function",
      "constant": true
    },
    {
      "inputs": [
        {
          "internalType": "address",
          "name": "user",
          "type": "address"
        },
        {
          "internalType": "uint256",
          "name": "tokenId",
          "type": "uint256"
        }
      ],
      "name": "mint",
      "outputs": [],
      "stateMutability": "nonpayable",
      "type": "function"
    }
  ],
  "bytecode": "0x6080604052600c805460ff191690553480156200001b57600080fd5b5060405162003edf38038062003edf833981810160405260608110156200004157600080fd5b81019080805160405193929190846401000000008211156200006257600080fd5b9083019060208201858111156200007857600080fd5b82516401000000008111828201881017156200009357600080fd5b82525081516020918201929091019080838360005b83811015620000c2578181015183820152602001620000a8565b50505050905090810190601f168015620000f05780820380516001836020036101000a031916815260200191505b50604052602001805160405193929190846401000000008211156200011457600080fd5b9083019060208201858111156200012a57600080fd5b82516401000000008111828201881017156200014557600080fd5b82525081516020918201929091019080838360005b83811015620001745781810151838201526020016200015a565b50505050905090810190601f168015620001a25780820380516001836020036101000a031916815260200191505b5060405260200151915083905082620001cb6301ffc9a760e01b6001600160e01b036200030f16565b8151620001e090600690602085019062000722565b508051620001f690600790602084019062000722565b50620002126380ac58cd60e01b6001600160e01b036200030f16565b6200022d635b5e139f60e01b6001600160e01b036200030f16565b6200024863780e9d6360e01b6001600160e01b036200030f16565b505060408051808201909152601381527f4368696c644d696e7461626c6545524337323100000000000000000000000000602082015262000292906001600160e01b036200039416565b620002ba6000620002ab6001600160e01b036200043a16565b6001600160e01b036200045716565b604080516d4445504f5349544f525f524f4c4560901b8152905190819003600e019020620002f290826001600160e01b036200045716565b62000306836001600160e01b036200046c16565b505050620007c4565b6001600160e01b031980821614156200036f576040805162461bcd60e51b815260206004820152601c60248201527f4552433136353a20696e76616c696420696e7465726661636520696400000000604482015290519081900360640190fd5b6001600160e01b0319166000908152602081905260409020805460ff19166001179055565b806040516020018082805190602001908083835b60208310620003c95780518252601f199092019160209182019101620003a8565b51815160209384036101000a60001901801990921691161790527f3a20494e53554646494349454e545f5045524d495353494f4e530000000000009190930190815260408051808303600519018152601a90920190528051620004369550600b9450920191905062000722565b5050565b600062000451620004da60201b620029511760201c565b90505b90565b6200043682826001600160e01b036200053916565b600c5460ff1615620004b6576040805162461bcd60e51b815260206004820152600e60248201526d185b1c9958591e481a5b9a5d195960921b604482015290519081900360640190fd5b620004ca816001600160e01b03620005bd16565b50600c805460ff19166001179055565b600033301415620005345760606000368080601f0160208091040260200160405190810160405280939291908181526020018383808284376000920191909152505050503601516001600160a01b03169150620004549050565b503390565b6000828152600a602090815260409091206200056091839062002ac462000685821b17901c565b156200043657620005796001600160e01b036200043a16565b6001600160a01b0316816001600160a01b0316837f2f8788117e7eff1d82e926ec794901d17c78024a50270940304540a733656f0d60405160405180910390a45050565b6040518060800160405280604f815260200162003e90604f913980516020918201208251838301206040805180820190915260018152603160f81b930192909252907fc89efdaa54c0f20c7adf612882df0950f5a951637e0307cdcb4c672f298b8bc630620006346001600160e01b03620006ae16565b604080516020808201979097528082019590955260608501939093526001600160a01b03909116608084015260a0808401919091528151808403909101815260c090920190528051910120600d5550565b6000620006a5836001600160a01b0384166001600160e01b03620006b216565b90505b92915050565b4690565b6000620006c983836001600160e01b036200070a16565b6200070157508154600181810184556000848152602080822090930184905584548482528286019093526040902091909155620006a8565b506000620006a8565b60009081526001919091016020526040902054151590565b828054600181600116156101000203166002900490600052602060002090601f016020900481019282601f106200076557805160ff191683800117855562000795565b8280016001018555821562000795579182015b828111156200079557825182559160200191906001019062000778565b50620007a3929150620007a7565b5090565b6200045491905b80821115620007a35760008155600101620007ae565b6136bc80620007d46000396000f3fe6080604052600436106102305760003560e01c806342842e0e1161012e578063a217fddf116100ab578063c87b56dd1161006f578063c87b56dd146109ff578063ca15c87314610a29578063cf2c52cb14610a53578063d547741f14610ade578063e985e9c514610b1757610230565b8063a217fddf1461089f578063a22cb465146108b4578063a3b0b5a3146108ef578063a5e584dc14610904578063b88d4fde1461092e57610230565b80639010d07c116100f25780639010d07c1461079157806391d14854146107c15780639559c0bd146107fa57806395d89b411461080f5780639c8d41561461082457610230565b806342842e0e146106b25780634f6ccce7146106f55780636352211e1461071f5780636c0360eb1461074957806370a082311461075e57610230565b806320379ee5116101bc5780632f2ff15d116101805780632f2ff15d146105b95780632f745c59146105f25780633408e4701461062b57806336568abe1461064057806340c10f191461067957610230565b806320379ee5146104da57806323b872dd146104ef578063248a9ca3146105325780632d0335ab1461055c5780632e1a7d4d1461058f57610230565b8063095ea7b311610203578063095ea7b3146103775780630c53c51c146103b25780630f7e5970146104745780631653c39a1461048957806318160ddd146104b357610230565b806301ffc9a71461023557806306fdde031461027d57806307a974fc14610307578063081812fc14610331575b600080fd5b34801561024157600080fd5b506102696004803603602081101561025857600080fd5b50356001600160e01b031916610b52565b604080519115158252519081900360200190f35b34801561028957600080fd5b50610292610b75565b6040805160208082528351818301528351919283929083019185019080838360005b838110156102cc5781810151838201526020016102b4565b50505050905090810190601f1680156102f95780820380516001836020036101000a031916815260200191505b509250505060405180910390f35b34801561031357600080fd5b506102696004803603602081101561032a57600080fd5b5035610c0c565b34801561033d57600080fd5b5061035b6004803603602081101561035457600080fd5b5035610c21565b604080516001600160a01b039092168252519081900360200190f35b34801561038357600080fd5b506103b06004803603604081101561039a57600080fd5b506001600160a01b038135169060200135610c83565b005b610292600480360360a08110156103c857600080fd5b6001600160a01b038235169190810190604081016020820135600160201b8111156103f257600080fd5b82018360208201111561040457600080fd5b803590602001918460018302840111600160201b8311171561042557600080fd5b91908080601f016020809104026020016040519081016040528093929190818152602001838380828437600092019190915250929550508235935050506020810135906040013560ff16610d5e565b34801561048057600080fd5b50610292611061565b34801561049557600080fd5b50610292600480360360208110156104ac57600080fd5b503561107e565b3480156104bf57600080fd5b506104c8611110565b60408051918252519081900360200190f35b3480156104e657600080fd5b506104c8611121565b3480156104fb57600080fd5b506103b06004803603606081101561051257600080fd5b506001600160a01b03813581169160208101359091169060400135611127565b34801561053e57600080fd5b506104c86004803603602081101561055557600080fd5b503561117e565b34801561056857600080fd5b506104c86004803603602081101561057f57600080fd5b50356001600160a01b0316611193565b34801561059b57600080fd5b506103b0600480360360208110156105b257600080fd5b50356111ae565b3480156105c557600080fd5b506103b0600480360360408110156105dc57600080fd5b50803590602001356001600160a01b0316611232565b3480156105fe57600080fd5b506104c86004803603604081101561061557600080fd5b506001600160a01b03813516906020013561129e565b34801561063757600080fd5b506104c86112cf565b34801561064c57600080fd5b506103b06004803603604081101561066357600080fd5b50803590602001356001600160a01b03166112d3565b34801561068557600080fd5b506103b06004803603604081101561069c57600080fd5b506001600160a01b038135169060200135611334565b3480156106be57600080fd5b506103b0600480360360608110156106d557600080fd5b506001600160a01b0381358116916020810135909116906040013561143b565b34801561070157600080fd5b506104c86004803603602081101561071857600080fd5b5035611456565b34801561072b57600080fd5b5061035b6004803603602081101561074257600080fd5b5035611472565b34801561075557600080fd5b506102926114a0565b34801561076a57600080fd5b506104c86004803603602081101561078157600080fd5b50356001600160a01b0316611501565b34801561079d57600080fd5b5061035b600480360360408110156107b457600080fd5b5080359060200135611569565b3480156107cd57600080fd5b50610269600480360360408110156107e457600080fd5b50803590602001356001600160a01b0316611587565b34801561080657600080fd5b506104c86115a5565b34801561081b57600080fd5b506102926115aa565b34801561083057600080fd5b506103b06004803603602081101561084757600080fd5b810190602081018135600160201b81111561086157600080fd5b82018360208201111561087357600080fd5b803590602001918460208302840111600160201b8311171561089457600080fd5b50909250905061160b565b3480156108ab57600080fd5b506104c86117ec565b3480156108c057600080fd5b506103b0600480360360408110156108d757600080fd5b506001600160a01b03813516906020013515156117f1565b3480156108fb57600080fd5b506104c86118f6565b34801561091057600080fd5b506103b06004803603602081101561092757600080fd5b503561191c565b34801561093a57600080fd5b506103b06004803603608081101561095157600080fd5b6001600160a01b03823581169260208101359091169160408201359190810190608081016060820135600160201b81111561098b57600080fd5b82018360208201111561099d57600080fd5b803590602001918460018302840111600160201b831117156109be57600080fd5b91908080601f016020809104026020016040519081016040528093929190818152602001838380828437600092019190915250929550611b73945050505050565b348015610a0b57600080fd5b5061029260048036036020811015610a2257600080fd5b5035611bd1565b348015610a3557600080fd5b506104c860048036036020811015610a4c57600080fd5b5035611e78565b348015610a5f57600080fd5b506103b060048036036040811015610a7657600080fd5b6001600160a01b038235169190810190604081016020820135600160201b811115610aa057600080fd5b820183602082011115610ab257600080fd5b803590602001918460018302840111600160201b83111715610ad357600080fd5b509092509050611e8f565b348015610aea57600080fd5b506103b060048036036040811015610b0157600080fd5b50803590602001356001600160a01b031661207d565b348015610b2357600080fd5b5061026960048036036040811015610b3a57600080fd5b506001600160a01b03813581169160200135166120d6565b6001600160e01b0319811660009081526020819052604090205460ff165b919050565b60068054604080516020601f6002600019610100600188161502019095169490940493840181900481028201810190925282815260609390929091830182828015610c015780601f10610bd657610100808354040283529160200191610c01565b820191906000526020600020905b815481529060010190602001808311610be457829003601f168201915b505050505090505b90565b600f6020526000908152604090205460ff1681565b6000610c2c82612104565b610c675760405162461bcd60e51b815260040180806020018281038252602c815260200180613561602c913960400191505060405180910390fd5b506000908152600460205260409020546001600160a01b031690565b6000610c8e82611472565b9050806001600160a01b0316836001600160a01b03161415610ce15760405162461bcd60e51b81526004018080602001828103825260218152602001806136066021913960400191505060405180910390fd5b806001600160a01b0316610cf3612117565b6001600160a01b03161480610d145750610d1481610d0f612117565b6120d6565b610d4f5760405162461bcd60e51b81526004018080602001828103825260388152602001806134646038913960400191505060405180910390fd5b610d598383612121565b505050565b6060610d6861321d565b50604080516060810182526001600160a01b0388166000818152600e602090815290849020548352820152908101869052610da6878287878761218f565b610de15760405162461bcd60e51b81526004018080602001828103825260218152602001806135b66021913960400191505060405180910390fd5b6001600160a01b0387166000908152600e6020526040902054610e0b90600163ffffffff61226c16565b6001600160a01b0388166000818152600e602090815260408083209490945583519283523383820181905260609484018581528b51958501959095528a517f5845892132946850460bff5a0083f71031bc5bf9aadcd40f1de79423eac9b10b958d9592948d94919260808501928601918190849084905b83811015610e9a578181015183820152602001610e82565b50505050905090810190601f168015610ec75780820380516001836020036101000a031916815260200191505b5094505050505060405180910390a160006060306001600160a01b0316888a6040516020018083805190602001908083835b60208310610f185780518252601f199092019160209182019101610ef9565b6001836020036101000a038019825116818451168082178552505050505050905001826001600160a01b03166001600160a01b031660601b8152601401925050506040516020818303038152906040526040518082805190602001908083835b60208310610f975780518252601f199092019160209182019101610f78565b6001836020036101000a0380198251168184511680821785525050505050509050019150506000604051808303816000865af19150503d8060008114610ff9576040519150601f19603f3d011682016040523d82523d6000602084013e610ffe565b606091505b509150915081611055576040805162461bcd60e51b815260206004820152601c60248201527f46756e6374696f6e2063616c6c206e6f74207375636365737366756c00000000604482015290519081900360640190fd5b98975050505050505050565b604051806040016040528060018152602001603160f81b81525081565b606061108982611bd1565b6040516020018080602001828103825283818151815260200191508051906020019080838360005b838110156110c95781810151838201526020016110b1565b50505050905090810190601f1680156110f65780820380516001836020036101000a031916815260200191505b5060408051601f1981840301815291905295945050505050565b600061111c60026122c6565b905090565b600d5490565b611138611132612117565b826122d1565b6111735760405162461bcd60e51b81526004018080602001828103825260318152602001806136276031913960400191505060405180910390fd5b610d59838383612375565b6000908152600a602052604090206002015490565b6001600160a01b03166000908152600e602052604090205490565b6111b781611472565b6001600160a01b03166111c8612117565b6001600160a01b03161461120d5760405162461bcd60e51b815260040180806020018281038252602881526020018061349c6028913960400191505060405180910390fd5b6000818152600f60205260409020805460ff1916600117905561122f816124d3565b50565b6000828152600a602052604090206002015461125590611250612117565b611587565b6112905760405162461bcd60e51b815260040180806020018281038252602f8152602001806132c3602f913960400191505060405180910390fd5b61129a82826125ac565b5050565b6001600160a01b03821660009081526001602052604081206112c6908363ffffffff61261b16565b90505b92915050565b4690565b6112db612117565b6001600160a01b0316816001600160a01b03161461132a5760405162461bcd60e51b815260040180806020018281038252602f815260200180613658602f913960400191505060405180910390fd5b61129a8282612627565b600061134281611250612117565b600b906113e25760405162461bcd60e51b81526020600482019081528254600260001961010060018416150201909116046024830181905290918291604490910190849080156113d35780601f106113a8576101008083540402835291602001916113d3565b820191906000526020600020905b8154815290600101906020018083116113b657829003601f168201915b50509250505060405180910390fd5b506000828152600f602052604090205460ff16156114315760405162461bcd60e51b815260040180806020018281038252602f815260200180613324602f913960400191505060405180910390fd5b610d598383612696565b610d5983838360405180602001604052806000815250611b73565b60008061146a60028463ffffffff6127d016565b509392505050565b60006112c9826040518060600160405280602981526020016134ee602991396002919063ffffffff6127ec16565b60098054604080516020601f6002600019610100600188161502019095169490940493840181900481028201810190925282815260609390929091830182828015610c015780601f10610bd657610100808354040283529160200191610c01565b60006001600160a01b0382166115485760405162461bcd60e51b815260040180806020018281038252602a8152602001806134c4602a913960400191505060405180910390fd5b6001600160a01b03821660009081526001602052604090206112c9906122c6565b6000828152600a602052604081206112c6908363ffffffff61261b16565b6000828152600a602052604081206112c6908363ffffffff61280316565b601481565b60078054604080516020601f6002600019610100600188161502019095169490940493840181900481028201810190925282815260609390929091830182828015610c015780601f10610bd657610100808354040283529160200191610c01565b80601481111561164c5760405162461bcd60e51b81526004018080602001828103825260288152602001806135396028913960400191505060405180910390fd5b60005b8181101561177257600084848381811061166557fe5b90506020020135905061167781611472565b6001600160a01b0316611688612117565b6001600160a01b03161481604051602001808061339660299139602901828152602001915050604051602081830303815290604052906117465760405162461bcd60e51b81526004018080602001828103825283818151815260200191508051906020019080838360005b8381101561170b5781810151838201526020016116f3565b50505050905090810190601f1680156117385780820380516001836020036101000a031916815260200191505b509250505060405180910390fd5b506000818152600f60205260409020805460ff19166001179055611769816124d3565b5060010161164f565b5061177b612117565b6001600160a01b03167ff871896b17e9cb7a64941c62c188a4f5c621b86800e3d15452ece01ce56073df848460405180806020018281038252848482818152602001925060200280828437600083820152604051601f909101601f19169092018290039550909350505050a2505050565b600081565b6117f9612117565b6001600160a01b0316826001600160a01b0316141561185f576040805162461bcd60e51b815260206004820152601960248201527f4552433732313a20617070726f766520746f2063616c6c657200000000000000604482015290519081900360640190fd5b806005600061186c612117565b6001600160a01b03908116825260208083019390935260409182016000908120918716808252919093529120805460ff1916921515929092179091556118b0612117565b60408051841515815290516001600160a01b0392909216917f17307eab39ab6107e8899845ad3d59bd9653f200f220920489ca2b5937696c319181900360200190a35050565b604080516d4445504f5349544f525f524f4c4560901b8152905190819003600e01902081565b61192581611472565b6001600160a01b0316611936612117565b6001600160a01b03161461197b5760405162461bcd60e51b815260040180806020018281038252602881526020018061349c6028913960400191505060405180910390fd5b6000818152600f60205260408120805460ff19166001179055819061199f82611472565b6001600160a01b03167ff94915c6d1fd521cee85359239227480c7e8776d7caf1fc3bacad5c269b66a14306001600160a01b0316631653c39a866040518263ffffffff1660e01b81526004018082815260200191505060006040518083038186803b158015611a0d57600080fd5b505afa158015611a21573d6000803e3d6000fd5b505050506040513d6000823e601f3d908101601f191682016040526020811015611a4a57600080fd5b8101908080516040519392919084600160201b821115611a6957600080fd5b908301906020820185811115611a7e57600080fd5b8251600160201b811182820188101715611a9757600080fd5b82525081516020918201929091019080838360005b83811015611ac4578181015183820152602001611aac565b50505050905090810190601f168015611af15780820380516001836020036101000a031916815260200191505b50604081815260208083528651818401528651929550859450908401925085019080838360005b83811015611b30578181015183820152602001611b18565b50505050905090810190601f168015611b5d5780820380516001836020036101000a031916815260200191505b509250505060405180910390a461122f816124d3565b611b84611b7e612117565b836122d1565b611bbf5760405162461bcd60e51b81526004018080602001828103825260318152602001806136276031913960400191505060405180910390fd5b611bcb84848484612818565b50505050565b6060611bdc82612104565b611c175760405162461bcd60e51b815260040180806020018281038252602f8152602001806135d7602f913960400191505060405180910390fd5b60008281526008602090815260409182902080548351601f6002600019610100600186161502019093169290920491820184900484028101840190945280845260609392830182828015611cac5780601f10611c8157610100808354040283529160200191611cac565b820191906000526020600020905b815481529060010190602001808311611c8f57829003601f168201915b505060095493945050505060026000196101006001841615020190911604611cd5579050610b70565b805115611da6576009816040516020018083805460018160011615610100020316600290048015611d3d5780601f10611d1b576101008083540402835291820191611d3d565b820191906000526020600020905b815481529060010190602001808311611d29575b5050825160208401908083835b60208310611d695780518252601f199092019160209182019101611d4a565b6001836020036101000a03801982511681845116808217855250505050505090500192505050604051602081830303815290604052915050610b70565b6009611db18461286a565b6040516020018083805460018160011615610100020316600290048015611e0f5780601f10611ded576101008083540402835291820191611e0f565b820191906000526020600020905b815481529060010190602001808311611dfb575b5050825160208401908083835b60208310611e3b5780518252601f199092019160209182019101611e1c565b6001836020036101000a03801982511681845116808217855250505050505090500192505050604051602081830303815290604052915050919050565b6000818152600a602052604081206112c9906122c6565b604080516d4445504f5349544f525f524f4c4560901b8152905190819003600e019020611ebe81611250612117565b600b90611f245760405162461bcd60e51b81526020600482019081528254600260001961010060018416150201909116046024830181905290918291604490910190849080156113d35780601f106113a8576101008083540402835291602001916113d3565b506020821415611f6a57600083836020811015611f4057600080fd5b50356000818152600f60205260409020805460ff191690559050611f648582612696565b50611bcb565b606083836020811015611f7c57600080fd5b810190602081018135600160201b811115611f9657600080fd5b820183602082011115611fa857600080fd5b803590602001918460208302840111600160201b83111715611fc957600080fd5b91908080602002602001604051908101604052809392919081815260200183836020028082843760009201829052508451949850939650929450505050505b81811015612074576000600f600085848151811061202257fe5b6020026020010151815260200190815260200160002060006101000a81548160ff02191690831515021790555061206c8784838151811061205f57fe5b6020026020010151612696565b600101612008565b50505050505050565b6000828152600a602052604090206002015461209b90611250612117565b61132a5760405162461bcd60e51b815260040180806020018281038252603081526020018061340f6030913960400191505060405180910390fd5b6001600160a01b03918216600090815260056020908152604080832093909416825291909152205460ff1690565b60006112c960028363ffffffff61294516565b600061111c612951565b600081815260046020526040902080546001600160a01b0319166001600160a01b038416908117909155819061215682611472565b6001600160a01b03167f8c5be1e5ebec7d5bd14f71427d1e84f3dd0314c0f7b2291e5b200ac8c7c3b92560405160405180910390a45050565b60006001600160a01b0386166121d65760405162461bcd60e51b815260040180806020018281038252602581526020018061343f6025913960400191505060405180910390fd5b60016121e96121e4876129ae565b612a3a565b83868660405160008152602001604052604051808581526020018460ff1660ff1681526020018381526020018281526020019450505050506020604051602081039080840390855afa158015612243573d6000803e3d6000fd5b505050602060405103516001600160a01b0316866001600160a01b031614905095945050505050565b6000828201838110156112c6576040805162461bcd60e51b815260206004820152601b60248201527f536166654d6174683a206164646974696f6e206f766572666c6f770000000000604482015290519081900360640190fd5b60006112c982612a86565b60006122dc82612104565b6123175760405162461bcd60e51b815260040180806020018281038252602c8152602001806133e3602c913960400191505060405180910390fd5b600061232283611472565b9050806001600160a01b0316846001600160a01b0316148061235d5750836001600160a01b031661235284610c21565b6001600160a01b0316145b8061236d575061236d81856120d6565b949350505050565b826001600160a01b031661238882611472565b6001600160a01b0316146123cd5760405162461bcd60e51b815260040180806020018281038252602981526020018061358d6029913960400191505060405180910390fd5b6001600160a01b0382166124125760405162461bcd60e51b81526004018080602001828103825260248152602001806133bf6024913960400191505060405180910390fd5b61241d838383610d59565b612428600082612121565b6001600160a01b0383166000908152600160205260409020612450908263ffffffff612a8a16565b506001600160a01b0382166000908152600160205260409020612479908263ffffffff612a9616565b5061248c6002828463ffffffff612aa216565b5080826001600160a01b0316846001600160a01b03167fddf252ad1be2c89b69c2b068fc378daa952ba7f163c4a11628f55a4df523b3ef60405160405180910390a4505050565b60006124de82611472565b90506124ec81600084610d59565b6124f7600083612121565b600082815260086020526040902054600260001961010060018416150201909116041561253557600082815260086020526040812061253591613247565b6001600160a01b038116600090815260016020526040902061255d908363ffffffff612a8a16565b5061256f60028363ffffffff612ab816565b5060405182906000906001600160a01b038416907fddf252ad1be2c89b69c2b068fc378daa952ba7f163c4a11628f55a4df523b3ef908390a45050565b6000828152600a602052604090206125ca908263ffffffff612ac416565b1561129a576125d7612117565b6001600160a01b0316816001600160a01b0316837f2f8788117e7eff1d82e926ec794901d17c78024a50270940304540a733656f0d60405160405180910390a45050565b60006112c68383612ad9565b6000828152600a60205260409020612645908263ffffffff612b3d16565b1561129a57612652612117565b6001600160a01b0316816001600160a01b0316837ff6391f5c32d9c69d2a47ea670b442974b53935d1edc7fd64eb21e047a839171b60405160405180910390a45050565b6001600160a01b0382166126f1576040805162461bcd60e51b815260206004820181905260248201527f4552433732313a206d696e7420746f20746865207a65726f2061646472657373604482015290519081900360640190fd5b6126fa81612104565b1561274c576040805162461bcd60e51b815260206004820152601c60248201527f4552433732313a20746f6b656e20616c7265616479206d696e74656400000000604482015290519081900360640190fd5b61275860008383610d59565b6001600160a01b0382166000908152600160205260409020612780908263ffffffff612a9616565b506127936002828463ffffffff612aa216565b5060405181906001600160a01b038416906000907fddf252ad1be2c89b69c2b068fc378daa952ba7f163c4a11628f55a4df523b3ef908290a45050565b60008080806127df8686612b52565b9097909650945050505050565b60006127f9848484612bcd565b90505b9392505050565b60006112c6836001600160a01b038416612c5a565b612823848484612375565b61282f84848484612c72565b611bcb5760405162461bcd60e51b81526004018080602001828103825260328152602001806132f26032913960400191505060405180910390fd5b60608161288f57506040805180820190915260018152600360fc1b6020820152610b70565b8160005b81156128a757600101600a82049150612893565b60608167ffffffffffffffff811180156128c057600080fd5b506040519080825280601f01601f1916602001820160405280156128eb576020820181803683370190505b50859350905060001982015b831561293c57600a840660300160f81b8282806001900393508151811061291a57fe5b60200101906001600160f81b031916908160001a905350600a840493506128f7565b50949350505050565b60006112c68383612c5a565b6000333014156129a95760606000368080601f0160208091040260200160405190810160405280939291908181526020018383808284376000920191909152505050503601516001600160a01b03169150610c099050565b503390565b600060405180608001604052806043815260200161335360439139805190602001208260000151836020015184604001518051906020012060405160200180858152602001848152602001836001600160a01b03166001600160a01b03168152602001828152602001945050505050604051602081830303815290604052805190602001209050919050565b6000612a44611121565b82604051602001808061190160f01b81525060020183815260200182815260200192505050604051602081830303815290604052805190602001209050919050565b5490565b60006112c68383612df2565b60006112c68383612eb8565b60006127f984846001600160a01b038516612f02565b60006112c68383612f99565b60006112c6836001600160a01b038416612eb8565b81546000908210612b1b5760405162461bcd60e51b81526004018080602001828103825260228152602001806132a16022913960400191505060405180910390fd5b826000018281548110612b2a57fe5b9060005260206000200154905092915050565b60006112c6836001600160a01b038416612df2565b815460009081908310612b965760405162461bcd60e51b81526004018080602001828103825260228152602001806135176022913960400191505060405180910390fd5b6000846000018481548110612ba757fe5b906000526020600020906002020190508060000154816001015492509250509250929050565b60008281526001840160205260408120548281612c2b5760405162461bcd60e51b815260206004820181815283516024840152835190928392604490910191908501908083836000831561170b5781810151838201526020016116f3565b50846000016001820381548110612c3e57fe5b9060005260206000209060020201600101549150509392505050565b60009081526001919091016020526040902054151590565b6000612c86846001600160a01b031661306d565b612c925750600161236d565b6060612db8630a85bd0160e11b612ca7612117565b88878760405160240180856001600160a01b03166001600160a01b03168152602001846001600160a01b03166001600160a01b0316815260200183815260200180602001828103825283818151815260200191508051906020019080838360005b83811015612d20578181015183820152602001612d08565b50505050905090810190601f168015612d4d5780820380516001836020036101000a031916815260200191505b5095505050505050604051602081830303815290604052906001600160e01b0319166020820180516001600160e01b0383818316178352505050506040518060600160405280603281526020016132f2603291396001600160a01b038816919063ffffffff6130a616565b90506000818060200190516020811015612dd157600080fd5b50516001600160e01b031916630a85bd0160e11b1492505050949350505050565b60008181526001830160205260408120548015612eae5783546000198083019190810190600090879083908110612e2557fe5b9060005260206000200154905080876000018481548110612e4257fe5b600091825260208083209091019290925582815260018981019092526040902090840190558654879080612e7257fe5b600190038181906000526020600020016000905590558660010160008781526020019081526020016000206000905560019450505050506112c9565b60009150506112c9565b6000612ec48383612c5a565b612efa575081546001818101845560008481526020808220909301849055845484825282860190935260409020919091556112c9565b5060006112c9565b600082815260018401602052604081205480612f675750506040805180820182528381526020808201848152865460018181018955600089815284812095516002909302909501918255915190820155865486845281880190925292909120556127fc565b82856000016001830381548110612f7a57fe5b90600052602060002090600202016001018190555060009150506127fc565b60008181526001830160205260408120548015612eae5783546000198083019190810190600090879083908110612fcc57fe5b9060005260206000209060020201905080876000018481548110612fec57fe5b60009182526020808320845460029093020191825560019384015491840191909155835482528983019052604090209084019055865487908061302b57fe5b60008281526020808220600260001990940193840201828155600190810183905592909355888152898201909252604082209190915594506112c99350505050565b6000813f7fc5d2460186f7233c927e7db2dcc703c0e500b653ca82273b7bfad8045d85a47081811480159061236d575050151592915050565b60606127f9848460008560606130bb8561306d565b61310c576040805162461bcd60e51b815260206004820152601d60248201527f416464726573733a2063616c6c20746f206e6f6e2d636f6e7472616374000000604482015290519081900360640190fd5b60006060866001600160a01b031685876040518082805190602001908083835b6020831061314b5780518252601f19909201916020918201910161312c565b6001836020036101000a03801982511681845116808217855250505050505090500191505060006040518083038185875af1925050503d80600081146131ad576040519150601f19603f3d011682016040523d82523d6000602084013e6131b2565b606091505b509150915081156131c657915061236d9050565b8051156131d65780518082602001fd5b60405162461bcd60e51b815260206004820181815286516024840152865187939192839260440191908501908083836000831561170b5781810151838201526020016116f3565b60405180606001604052806000815260200160006001600160a01b03168152602001606081525090565b50805460018160011615610100020316600290046000825580601f1061326d575061122f565b600091825260209182902061122f92610c0992601f01048101905b8082111561329c5760008155600101613288565b509056fe456e756d657261626c655365743a20696e646578206f7574206f6620626f756e6473416363657373436f6e74726f6c3a2073656e646572206d75737420626520616e2061646d696e20746f206772616e744552433732313a207472616e7366657220746f206e6f6e20455243373231526563656976657220696d706c656d656e7465724368696c644d696e7461626c654552433732313a20544f4b454e5f4558495354535f4f4e5f524f4f545f434841494e4d6574615472616e73616374696f6e2875696e74323536206e6f6e63652c616464726573732066726f6d2c62797465732066756e6374696f6e5369676e6174757265294368696c644d696e7461626c654552433732313a20494e56414c49445f544f4b454e5f4f574e4552204552433732313a207472616e7366657220746f20746865207a65726f20616464726573734552433732313a206f70657261746f7220717565727920666f72206e6f6e6578697374656e7420746f6b656e416363657373436f6e74726f6c3a2073656e646572206d75737420626520616e2061646d696e20746f207265766f6b654e61746976654d6574615472616e73616374696f6e3a20494e56414c49445f5349474e45524552433732313a20617070726f76652063616c6c6572206973206e6f74206f776e6572206e6f7220617070726f76656420666f7220616c6c4368696c644d696e7461626c654552433732313a20494e56414c49445f544f4b454e5f4f574e45524552433732313a2062616c616e636520717565727920666f7220746865207a65726f20616464726573734552433732313a206f776e657220717565727920666f72206e6f6e6578697374656e7420746f6b656e456e756d657261626c654d61703a20696e646578206f7574206f6620626f756e64734368696c644d696e7461626c654552433732313a20455843454544535f42415443485f4c494d49544552433732313a20617070726f76656420717565727920666f72206e6f6e6578697374656e7420746f6b656e4552433732313a207472616e73666572206f6620746f6b656e2074686174206973206e6f74206f776e5369676e657220616e64207369676e617475726520646f206e6f74206d617463684552433732314d657461646174613a2055524920717565727920666f72206e6f6e6578697374656e7420746f6b656e4552433732313a20617070726f76616c20746f2063757272656e74206f776e65724552433732313a207472616e736665722063616c6c6572206973206e6f74206f776e6572206e6f7220617070726f766564416363657373436f6e74726f6c3a2063616e206f6e6c792072656e6f756e636520726f6c657320666f722073656c66a264697066735822122069d7214a5d96780a741b5f08453158adba87eb19fefb6b0851e0f172fd28efcc64736f6c63430006060033454950373132446f6d61696e28737472696e67206e616d652c737472696e672076657273696f6e2c6164647265737320766572696679696e67436f6e74726163742c627974657333322073616c7429",
  "immutableReferences": {},
  "source": "pragma solidity 0.6.6;\n\nimport {ERC721} from \"@openzeppelin/contracts/token/ERC721/ERC721.sol\";\nimport {AccessControlMixin} from \"../../common/AccessControlMixin.sol\";\nimport {IChildToken} from \"./IChildToken.sol\";\nimport {NativeMetaTransaction} from \"../../common/NativeMetaTransaction.sol\";\nimport {ContextMixin} from \"../../common/ContextMixin.sol\";\n\n\ncontract ChildMintableERC721 is\n    ERC721,\n    IChildToken,\n    AccessControlMixin,\n    NativeMetaTransaction,\n    ContextMixin\n{\n    bytes32 public constant DEPOSITOR_ROLE = keccak256(\"DEPOSITOR_ROLE\");\n    mapping (uint256 => bool) public withdrawnTokens;\n\n    // limit batching of tokens due to gas limit restrictions\n    uint256 public constant BATCH_LIMIT = 20;\n\n    event WithdrawnBatch(address indexed user, uint256[] tokenIds);\n    event TransferWithMetadata(address indexed from, address indexed to, uint256 indexed tokenId, bytes metaData);\n\n    constructor(\n        string memory name_,\n        string memory symbol_,\n        address childChainManager\n    ) public ERC721(name_, symbol_) {\n        _setupContractId(\"ChildMintableERC721\");\n        _setupRole(DEFAULT_ADMIN_ROLE, _msgSender());\n        _setupRole(DEPOSITOR_ROLE, childChainManager);\n        _initializeEIP712(name_);\n    }\n\n    // This is to support Native meta transactions\n    // never use msg.sender directly, use _msgSender() instead\n    function _msgSender()\n        internal\n        override\n        view\n        returns (address payable sender)\n    {\n        return ContextMixin.msgSender();\n    }\n\n    /**\n     * @notice called when token is deposited on root chain\n     * @dev Should be callable only by ChildChainManager\n     * Should handle deposit by minting the required tokenId(s) for user\n     * Should set `withdrawnTokens` mapping to `false` for the tokenId being deposited\n     * Minting can also be done by other functions\n     * @param user user address for whom deposit is being done\n     * @param depositData abi encoded tokenIds. Batch deposit also supported.\n     */\n    function deposit(address user, bytes calldata depositData)\n        external\n        override\n        only(DEPOSITOR_ROLE)\n    {\n\n        // deposit single\n        if (depositData.length == 32) {\n            uint256 tokenId = abi.decode(depositData, (uint256));\n            withdrawnTokens[tokenId] = false;\n            _mint(user, tokenId);\n\n        // deposit batch\n        } else {\n            uint256[] memory tokenIds = abi.decode(depositData, (uint256[]));\n            uint256 length = tokenIds.length;\n            for (uint256 i; i < length; i++) {\n                withdrawnTokens[tokenIds[i]] = false;\n                _mint(user, tokenIds[i]);\n            }\n        }\n\n    }\n\n    /**\n     * @notice called when user wants to withdraw token back to root chain\n     * @dev Should handle withraw by burning user's token.\n     * Should set `withdrawnTokens` mapping to `true` for the tokenId being withdrawn\n     * This transaction will be verified when exiting on root chain\n     * @param tokenId tokenId to withdraw\n     */\n    function withdraw(uint256 tokenId) external {\n        require(_msgSender() == ownerOf(tokenId), \"ChildMintableERC721: INVALID_TOKEN_OWNER\");\n        withdrawnTokens[tokenId] = true;\n        _burn(tokenId);\n    }\n\n    /**\n     * @notice called when user wants to withdraw multiple tokens back to root chain\n     * @dev Should burn user's tokens. This transaction will be verified when exiting on root chain\n     * @param tokenIds tokenId list to withdraw\n     */\n    function withdrawBatch(uint256[] calldata tokenIds) external {\n\n        uint256 length = tokenIds.length;\n        require(length <= BATCH_LIMIT, \"ChildMintableERC721: EXCEEDS_BATCH_LIMIT\");\n\n        // Iteratively burn ERC721 tokens, for performing\n        // batch withdraw\n        for (uint256 i; i < length; i++) {\n\n            uint256 tokenId = tokenIds[i];\n\n            require(_msgSender() == ownerOf(tokenId), string(abi.encodePacked(\"ChildMintableERC721: INVALID_TOKEN_OWNER \", tokenId)));\n            withdrawnTokens[tokenId] = true;\n            _burn(tokenId);\n\n        }\n\n        // At last emit this event, which will be used\n        // in MintableERC721 predicate contract on L1\n        // while verifying burn proof\n        emit WithdrawnBatch(_msgSender(), tokenIds);\n\n    }\n\n    /**\n     * @notice called when user wants to withdraw token back to root chain with token URI\n     * @dev Should handle withraw by burning user's token.\n     * Should set `withdrawnTokens` mapping to `true` for the tokenId being withdrawn\n     * This transaction will be verified when exiting on root chain\n     *\n     * @param tokenId tokenId to withdraw\n     */\n    function withdrawWithMetadata(uint256 tokenId) external {\n\n        require(_msgSender() == ownerOf(tokenId), \"ChildMintableERC721: INVALID_TOKEN_OWNER\");\n        withdrawnTokens[tokenId] = true;\n\n        // Encoding metadata associated with tokenId & emitting event\n        emit TransferWithMetadata(ownerOf(tokenId), address(0), tokenId, this.encodeTokenMetadata(tokenId));\n\n        _burn(tokenId);\n\n    }\n\n    /**\n     * @notice This method is supposed to be called by client when withdrawing token with metadata\n     * and pass return value of this function as second paramter of `withdrawWithMetadata` method\n     *\n     * It can be overridden by clients to encode data in a different form, which needs to\n     * be decoded back by them correctly during exiting\n     *\n     * @param tokenId Token for which URI to be fetched\n     */\n    function encodeTokenMetadata(uint256 tokenId) external view virtual returns (bytes memory) {\n\n        // You're always free to change this default implementation\n        // and pack more data in byte array which can be decoded back\n        // in L1\n        return abi.encode(tokenURI(tokenId));\n\n    }\n\n    /**\n     * @notice Example function to handle minting tokens on matic chain\n     * @dev Minting can be done as per requirement,\n     * This implementation allows only admin to mint tokens but it can be changed as per requirement\n     * Should verify if token is withdrawn by checking `withdrawnTokens` mapping\n     * @param user user for whom tokens are being minted\n     * @param tokenId tokenId to mint\n     */\n    function mint(address user, uint256 tokenId) public only(DEFAULT_ADMIN_ROLE) {\n        require(!withdrawnTokens[tokenId], \"ChildMintableERC721: TOKEN_EXISTS_ON_ROOT_CHAIN\");\n        _mint(user, tokenId);\n    }\n}\n",
  "sourcePath": "/Users/ohm.jirapon/internal/layer-2/layer2-plasma-cli/devnet/code/pos-portal/contracts/child/ChildToken/ChildMintableERC721.sol",
  "compiler": {
    "name": "solc",
    "version": "0.6.6+commit.6c089d02.Linux.g++"
  },
  "schemaVersion": "3.2.1",
  "updatedAt": "2022-09-15T05:55:57.462Z",
  "networkType": "ethereum",
  "devdoc": {
    "methods": {
      "approve(address,uint256)": {
        "details": "See {IERC721-approve}."
      },
      "balanceOf(address)": {
        "details": "See {IERC721-balanceOf}."
      },
      "baseURI()": {
        "details": "Returns the base URI set via {_setBaseURI}. This will be automatically added as a prefix in {tokenURI} to each token's URI, or to the token ID if no specific URI is set for that token ID."
      },
      "deposit(address,bytes)": {
        "details": "Should be callable only by ChildChainManager Should handle deposit by minting the required tokenId(s) for user Should set `withdrawnTokens` mapping to `false` for the tokenId being deposited Minting can also be done by other functions",
        "params": {
          "depositData": "abi encoded tokenIds. Batch deposit also supported.",
          "user": "user address for whom deposit is being done"
        }
      },
      "encodeTokenMetadata(uint256)": {
        "params": {
          "tokenId": "Token for which URI to be fetched"
        }
      },
      "getApproved(uint256)": {
        "details": "See {IERC721-getApproved}."
      },
      "getRoleAdmin(bytes32)": {
        "details": "Returns the admin role that controls `role`. See {grantRole} and {revokeRole}.     * To change a role's admin, use {_setRoleAdmin}."
      },
      "getRoleMember(bytes32,uint256)": {
        "details": "Returns one of the accounts that have `role`. `index` must be a value between 0 and {getRoleMemberCount}, non-inclusive.     * Role bearers are not sorted in any particular way, and their ordering may change at any point.     * WARNING: When using {getRoleMember} and {getRoleMemberCount}, make sure you perform all queries on the same block. See the following https://forum.openzeppelin.com/t/iterating-over-elements-on-enumerableset-in-openzeppelin-contracts/2296[forum post] for more information."
      },
      "getRoleMemberCount(bytes32)": {
        "details": "Returns the number of accounts that have `role`. Can be used together with {getRoleMember} to enumerate all bearers of a role."
      },
      "grantRole(bytes32,address)": {
        "details": "Grants `role` to `account`.     * If `account` had not been already granted `role`, emits a {RoleGranted} event.     * Requirements:     * - the caller must have ``role``'s admin role."
      },
      "hasRole(bytes32,address)": {
        "details": "Returns `true` if `account` has been granted `role`."
      },
      "isApprovedForAll(address,address)": {
        "details": "See {IERC721-isApprovedForAll}."
      },
      "mint(address,uint256)": {
        "details": "Minting can be done as per requirement, This implementation allows only admin to mint tokens but it can be changed as per requirement Should verify if token is withdrawn by checking `withdrawnTokens` mapping",
        "params": {
          "tokenId": "tokenId to mint",
          "user": "user for whom tokens are being minted"
        }
      },
      "name()": {
        "details": "See {IERC721Metadata-name}."
      },
      "ownerOf(uint256)": {
        "details": "See {IERC721-ownerOf}."
      },
      "renounceRole(bytes32,address)": {
        "details": "Revokes `role` from the calling account.     * Roles are often managed via {grantRole} and {revokeRole}: this function's purpose is to provide a mechanism for accounts to lose their privileges if they are compromised (such as when a trusted device is misplaced).     * If the calling account had been granted `role`, emits a {RoleRevoked} event.     * Requirements:     * - the caller must be `account`."
      },
      "revokeRole(bytes32,address)": {
        "details": "Revokes `role` from `account`.     * If `account` had been granted `role`, emits a {RoleRevoked} event.     * Requirements:     * - the caller must have ``role``'s admin role."
      },
      "safeTransferFrom(address,address,uint256)": {
        "details": "See {IERC721-safeTransferFrom}."
      },
      "safeTransferFrom(address,address,uint256,bytes)": {
        "details": "See {IERC721-safeTransferFrom}."
      },
      "setApprovalForAll(address,bool)": {
        "details": "See {IERC721-setApprovalForAll}."
      },
      "supportsInterface(bytes4)": {
        "details": "See {IERC165-supportsInterface}.     * Time complexity O(1), guaranteed to always use less than 30 000 gas."
      },
      "symbol()": {
        "details": "See {IERC721Metadata-symbol}."
      },
      "tokenByIndex(uint256)": {
        "details": "See {IERC721Enumerable-tokenByIndex}."
      },
      "tokenOfOwnerByIndex(address,uint256)": {
        "details": "See {IERC721Enumerable-tokenOfOwnerByIndex}."
      },
      "tokenURI(uint256)": {
        "details": "See {IERC721Metadata-tokenURI}."
      },
      "totalSupply()": {
        "details": "See {IERC721Enumerable-totalSupply}."
      },
      "transferFrom(address,address,uint256)": {
        "details": "See {IERC721-transferFrom}."
      },
      "withdraw(uint256)": {
        "details": "Should handle withraw by burning user's token. Should set `withdrawnTokens` mapping to `true` for the tokenId being withdrawn This transaction will be verified when exiting on root chain",
        "params": {
          "tokenId": "tokenId to withdraw"
        }
      },
      "withdrawBatch(uint256[])": {
        "details": "Should burn user's tokens. This transaction will be verified when exiting on root chain",
        "params": {
          "tokenIds": "tokenId list to withdraw"
        }
      },
      "withdrawWithMetadata(uint256)": {
        "details": "Should handle withraw by burning user's token. Should set `withdrawnTokens` mapping to `true` for the tokenId being withdrawn This transaction will be verified when exiting on root chain",
        "params": {
          "tokenId": "tokenId to withdraw"
        }
      }
    }
  },
  "userdoc": {
    "methods": {
      "deposit(address,bytes)": {
        "notice": "called when token is deposited on root chain"
      },
      "encodeTokenMetadata(uint256)": {
        "notice": "This method is supposed to be called by client when withdrawing token with metadata and pass return value of this function as second paramter of `withdrawWithMetadata` method     * It can be overridden by clients to encode data in a different form, which needs to be decoded back by them correctly during exiting"
      },
      "mint(address,uint256)": {
        "notice": "Example function to handle minting tokens on matic chain"
      },
      "withdraw(uint256)": {
        "notice": "called when user wants to withdraw token back to root chain"
      },
      "withdrawBatch(uint256[])": {
        "notice": "called when user wants to withdraw multiple tokens back to root chain"
      },
      "withdrawWithMetadata(uint256)": {
        "notice": "called when user wants to withdraw token back to root chain with token URI"
      }
    }
  }
}