{
  "contractName": "ChildERC721",
  "abi": [
    {
      "inputs": [
        {
          "internalType": "string",
          "name": "name_",
          "type": "string"
        },
        {
          "internalType": "string",
          "name": "symbol_",
          "type": "string"
        },
        {
          "internalType": "address",
          "name": "childChainManager",
          "type": "address"
        }
      ],
      "stateMutability": "nonpayable",
      "type": "constructor"
    },
    {
      "anonymous": false,
      "inputs": [
        {
          "indexed": true,
          "internalType": "address",
          "name": "owner",
          "type": "address"
        },
        {
          "indexed": true,
          "internalType": "address",
          "name": "approved",
          "type": "address"
        },
        {
          "indexed": true,
          "internalType": "uint256",
          "name": "tokenId",
          "type": "uint256"
        }
      ],
      "name": "Approval",
      "type": "event"
    },
    {
      "anonymous": false,
      "inputs": [
        {
          "indexed": true,
          "internalType": "address",
          "name": "owner",
          "type": "address"
        },
        {
          "indexed": true,
          "internalType": "address",
          "name": "operator",
          "type": "address"
        },
        {
          "indexed": false,
          "internalType": "bool",
          "name": "approved",
          "type": "bool"
        }
      ],
      "name": "ApprovalForAll",
      "type": "event"
    },
    {
      "anonymous": false,
      "inputs": [
        {
          "indexed": false,
          "internalType": "address",
          "name": "userAddress",
          "type": "address"
        },
        {
          "indexed": false,
          "internalType": "address payable",
          "name": "relayerAddress",
          "type": "address"
        },
        {
          "indexed": false,
          "internalType": "bytes",
          "name": "functionSignature",
          "type": "bytes"
        }
      ],
      "name": "MetaTransactionExecuted",
      "type": "event"
    },
    {
      "anonymous": false,
      "inputs": [
        {
          "indexed": true,
          "internalType": "bytes32",
          "name": "role",
          "type": "bytes32"
        },
        {
          "indexed": true,
          "internalType": "bytes32",
          "name": "previousAdminRole",
          "type": "bytes32"
        },
        {
          "indexed": true,
          "internalType": "bytes32",
          "name": "newAdminRole",
          "type": "bytes32"
        }
      ],
      "name": "RoleAdminChanged",
      "type": "event"
    },
    {
      "anonymous": false,
      "inputs": [
        {
          "indexed": true,
          "internalType": "bytes32",
          "name": "role",
          "type": "bytes32"
        },
        {
          "indexed": true,
          "internalType": "address",
          "name": "account",
          "type": "address"
        },
        {
          "indexed": true,
          "internalType": "address",
          "name": "sender",
          "type": "address"
        }
      ],
      "name": "RoleGranted",
      "type": "event"
    },
    {
      "anonymous": false,
      "inputs": [
        {
          "indexed": true,
          "internalType": "bytes32",
          "name": "role",
          "type": "bytes32"
        },
        {
          "indexed": true,
          "internalType": "address",
          "name": "account",
          "type": "address"
        },
        {
          "indexed": true,
          "internalType": "address",
          "name": "sender",
          "type": "address"
        }
      ],
      "name": "RoleRevoked",
      "type": "event"
    },
    {
      "anonymous": false,
      "inputs": [
        {
          "indexed": true,
          "internalType": "address",
          "name": "from",
          "type": "address"
        },
        {
          "indexed": true,
          "internalType": "address",
          "name": "to",
          "type": "address"
        },
        {
          "indexed": true,
          "internalType": "uint256",
          "name": "tokenId",
          "type": "uint256"
        }
      ],
      "name": "Transfer",
      "type": "event"
    },
    {
      "anonymous": false,
      "inputs": [
        {
          "indexed": true,
          "internalType": "address",
          "name": "from",
          "type": "address"
        },
        {
          "indexed": true,
          "internalType": "address",
          "name": "to",
          "type": "address"
        },
        {
          "indexed": true,
          "internalType": "uint256",
          "name": "tokenId",
          "type": "uint256"
        },
        {
          "indexed": false,
          "internalType": "bytes",
          "name": "metaData",
          "type": "bytes"
        }
      ],
      "name": "TransferWithMetadata",
      "type": "event"
    },
    {
      "anonymous": false,
      "inputs": [
        {
          "indexed": true,
          "internalType": "address",
          "name": "user",
          "type": "address"
        },
        {
          "indexed": false,
          "internalType": "uint256[]",
          "name": "tokenIds",
          "type": "uint256[]"
        }
      ],
      "name": "WithdrawnBatch",
      "type": "event"
    },
    {
      "inputs": [],
      "name": "BATCH_LIMIT",
      "outputs": [
        {
          "internalType": "uint256",
          "name": "",
          "type": "uint256"
        }
      ],
      "stateMutability": "view",
      "type": "function",
      "constant": true
    },
    {
      "inputs": [],
      "name": "DEFAULT_ADMIN_ROLE",
      "outputs": [
        {
          "internalType": "bytes32",
          "name": "",
          "type": "bytes32"
        }
      ],
      "stateMutability": "view",
      "type": "function",
      "constant": true
    },
    {
      "inputs": [],
      "name": "DEPOSITOR_ROLE",
      "outputs": [
        {
          "internalType": "bytes32",
          "name": "",
          "type": "bytes32"
        }
      ],
      "stateMutability": "view",
      "type": "function",
      "constant": true
    },
    {
      "inputs": [],
      "name": "ERC712_VERSION",
      "outputs": [
        {
          "internalType": "string",
          "name": "",
          "type": "string"
        }
      ],
      "stateMutability": "view",
      "type": "function",
      "constant": true
    },
    {
      "inputs": [
        {
          "internalType": "address",
          "name": "to",
          "type": "address"
        },
        {
          "internalType": "uint256",
          "name": "tokenId",
          "type": "uint256"
        }
      ],
      "name": "approve",
      "outputs": [],
      "stateMutability": "nonpayable",
      "type": "function"
    },
    {
      "inputs": [
        {
          "internalType": "address",
          "name": "owner",
          "type": "address"
        }
      ],
      "name": "balanceOf",
      "outputs": [
        {
          "internalType": "uint256",
          "name": "",
          "type": "uint256"
        }
      ],
      "stateMutability": "view",
      "type": "function",
      "constant": true
    },
    {
      "inputs": [],
      "name": "baseURI",
      "outputs": [
        {
          "internalType": "string",
          "name": "",
          "type": "string"
        }
      ],
      "stateMutability": "view",
      "type": "function",
      "constant": true
    },
    {
      "inputs": [
        {
          "internalType": "address",
          "name": "userAddress",
          "type": "address"
        },
        {
          "internalType": "bytes",
          "name": "functionSignature",
          "type": "bytes"
        },
        {
          "internalType": "bytes32",
          "name": "sigR",
          "type": "bytes32"
        },
        {
          "internalType": "bytes32",
          "name": "sigS",
          "type": "bytes32"
        },
        {
          "internalType": "uint8",
          "name": "sigV",
          "type": "uint8"
        }
      ],
      "name": "executeMetaTransaction",
      "outputs": [
        {
          "internalType": "bytes",
          "name": "",
          "type": "bytes"
        }
      ],
      "stateMutability": "payable",
      "type": "function",
      "payable": true
    },
    {
      "inputs": [
        {
          "internalType": "uint256",
          "name": "tokenId",
          "type": "uint256"
        }
      ],
      "name": "getApproved",
      "outputs": [
        {
          "internalType": "address",
          "name": "",
          "type": "address"
        }
      ],
      "stateMutability": "view",
      "type": "function",
      "constant": true
    },
    {
      "inputs": [],
      "name": "getChainId",
      "outputs": [
        {
          "internalType": "uint256",
          "name": "",
          "type": "uint256"
        }
      ],
      "stateMutability": "pure",
      "type": "function",
      "constant": true
    },
    {
      "inputs": [],
      "name": "getDomainSeperator",
      "outputs": [
        {
          "internalType": "bytes32",
          "name": "",
          "type": "bytes32"
        }
      ],
      "stateMutability": "view",
      "type": "function",
      "constant": true
    },
    {
      "inputs": [
        {
          "internalType": "address",
          "name": "user",
          "type": "address"
        }
      ],
      "name": "getNonce",
      "outputs": [
        {
          "internalType": "uint256",
          "name": "nonce",
          "type": "uint256"
        }
      ],
      "stateMutability": "view",
      "type": "function",
      "constant": true
    },
    {
      "inputs": [
        {
          "internalType": "bytes32",
          "name": "role",
          "type": "bytes32"
        }
      ],
      "name": "getRoleAdmin",
      "outputs": [
        {
          "internalType": "bytes32",
          "name": "",
          "type": "bytes32"
        }
      ],
      "stateMutability": "view",
      "type": "function",
      "constant": true
    },
    {
      "inputs": [
        {
          "internalType": "bytes32",
          "name": "role",
          "type": "bytes32"
        },
        {
          "internalType": "uint256",
          "name": "index",
          "type": "uint256"
        }
      ],
      "name": "getRoleMember",
      "outputs": [
        {
          "internalType": "address",
          "name": "",
          "type": "address"
        }
      ],
      "stateMutability": "view",
      "type": "function",
      "constant": true
    },
    {
      "inputs": [
        {
          "internalType": "bytes32",
          "name": "role",
          "type": "bytes32"
        }
      ],
      "name": "getRoleMemberCount",
      "outputs": [
        {
          "internalType": "uint256",
          "name": "",
          "type": "uint256"
        }
      ],
      "stateMutability": "view",
      "type": "function",
      "constant": true
    },
    {
      "inputs": [
        {
          "internalType": "bytes32",
          "name": "role",
          "type": "bytes32"
        },
        {
          "internalType": "address",
          "name": "account",
          "type": "address"
        }
      ],
      "name": "grantRole",
      "outputs": [],
      "stateMutability": "nonpayable",
      "type": "function"
    },
    {
      "inputs": [
        {
          "internalType": "bytes32",
          "name": "role",
          "type": "bytes32"
        },
        {
          "internalType": "address",
          "name": "account",
          "type": "address"
        }
      ],
      "name": "hasRole",
      "outputs": [
        {
          "internalType": "bool",
          "name": "",
          "type": "bool"
        }
      ],
      "stateMutability": "view",
      "type": "function",
      "constant": true
    },
    {
      "inputs": [
        {
          "internalType": "address",
          "name": "owner",
          "type": "address"
        },
        {
          "internalType": "address",
          "name": "operator",
          "type": "address"
        }
      ],
      "name": "isApprovedForAll",
      "outputs": [
        {
          "internalType": "bool",
          "name": "",
          "type": "bool"
        }
      ],
      "stateMutability": "view",
      "type": "function",
      "constant": true
    },
    {
      "inputs": [],
      "name": "name",
      "outputs": [
        {
          "internalType": "string",
          "name": "",
          "type": "string"
        }
      ],
      "stateMutability": "view",
      "type": "function",
      "constant": true
    },
    {
      "inputs": [
        {
          "internalType": "uint256",
          "name": "tokenId",
          "type": "uint256"
        }
      ],
      "name": "ownerOf",
      "outputs": [
        {
          "internalType": "address",
          "name": "",
          "type": "address"
        }
      ],
      "stateMutability": "view",
      "type": "function",
      "constant": true
    },
    {
      "inputs": [
        {
          "internalType": "bytes32",
          "name": "role",
          "type": "bytes32"
        },
        {
          "internalType": "address",
          "name": "account",
          "type": "address"
        }
      ],
      "name": "renounceRole",
      "outputs": [],
      "stateMutability": "nonpayable",
      "type": "function"
    },
    {
      "inputs": [
        {
          "internalType": "bytes32",
          "name": "role",
          "type": "bytes32"
        },
        {
          "internalType": "address",
          "name": "account",
          "type": "address"
        }
      ],
      "name": "revokeRole",
      "outputs": [],
      "stateMutability": "nonpayable",
      "type": "function"
    },
    {
      "inputs": [
        {
          "internalType": "address",
          "name": "from",
          "type": "address"
        },
        {
          "internalType": "address",
          "name": "to",
          "type": "address"
        },
        {
          "internalType": "uint256",
          "name": "tokenId",
          "type": "uint256"
        }
      ],
      "name": "safeTransferFrom",
      "outputs": [],
      "stateMutability": "nonpayable",
      "type": "function"
    },
    {
      "inputs": [
        {
          "internalType": "address",
          "name": "from",
          "type": "address"
        },
        {
          "internalType": "address",
          "name": "to",
          "type": "address"
        },
        {
          "internalType": "uint256",
          "name": "tokenId",
          "type": "uint256"
        },
        {
          "internalType": "bytes",
          "name": "_data",
          "type": "bytes"
        }
      ],
      "name": "safeTransferFrom",
      "outputs": [],
      "stateMutability": "nonpayable",
      "type": "function"
    },
    {
      "inputs": [
        {
          "internalType": "address",
          "name": "operator",
          "type": "address"
        },
        {
          "internalType": "bool",
          "name": "approved",
          "type": "bool"
        }
      ],
      "name": "setApprovalForAll",
      "outputs": [],
      "stateMutability": "nonpayable",
      "type": "function"
    },
    {
      "inputs": [
        {
          "internalType": "bytes4",
          "name": "interfaceId",
          "type": "bytes4"
        }
      ],
      "name": "supportsInterface",
      "outputs": [
        {
          "internalType": "bool",
          "name": "",
          "type": "bool"
        }
      ],
      "stateMutability": "view",
      "type": "function",
      "constant": true
    },
    {
      "inputs": [],
      "name": "symbol",
      "outputs": [
        {
          "internalType": "string",
          "name": "",
          "type": "string"
        }
      ],
      "stateMutability": "view",
      "type": "function",
      "constant": true
    },
    {
      "inputs": [
        {
          "internalType": "uint256",
          "name": "index",
          "type": "uint256"
        }
      ],
      "name": "tokenByIndex",
      "outputs": [
        {
          "internalType": "uint256",
          "name": "",
          "type": "uint256"
        }
      ],
      "stateMutability": "view",
      "type": "function",
      "constant": true
    },
    {
      "inputs": [
        {
          "internalType": "address",
          "name": "owner",
          "type": "address"
        },
        {
          "internalType": "uint256",
          "name": "index",
          "type": "uint256"
        }
      ],
      "name": "tokenOfOwnerByIndex",
      "outputs": [
        {
          "internalType": "uint256",
          "name": "",
          "type": "uint256"
        }
      ],
      "stateMutability": "view",
      "type": "function",
      "constant": true
    },
    {
      "inputs": [
        {
          "internalType": "uint256",
          "name": "tokenId",
          "type": "uint256"
        }
      ],
      "name": "tokenURI",
      "outputs": [
        {
          "internalType": "string",
          "name": "",
          "type": "string"
        }
      ],
      "stateMutability": "view",
      "type": "function",
      "constant": true
    },
    {
      "inputs": [],
      "name": "totalSupply",
      "outputs": [
        {
          "internalType": "uint256",
          "name": "",
          "type": "uint256"
        }
      ],
      "stateMutability": "view",
      "type": "function",
      "constant": true
    },
    {
      "inputs": [
        {
          "internalType": "address",
          "name": "from",
          "type": "address"
        },
        {
          "internalType": "address",
          "name": "to",
          "type": "address"
        },
        {
          "internalType": "uint256",
          "name": "tokenId",
          "type": "uint256"
        }
      ],
      "name": "transferFrom",
      "outputs": [],
      "stateMutability": "nonpayable",
      "type": "function"
    },
    {
      "inputs": [
        {
          "internalType": "address",
          "name": "user",
          "type": "address"
        },
        {
          "internalType": "bytes",
          "name": "depositData",
          "type": "bytes"
        }
      ],
      "name": "deposit",
      "outputs": [],
      "stateMutability": "nonpayable",
      "type": "function"
    },
    {
      "inputs": [
        {
          "internalType": "uint256",
          "name": "tokenId",
          "type": "uint256"
        }
      ],
      "name": "withdraw",
      "outputs": [],
      "stateMutability": "nonpayable",
      "type": "function"
    },
    {
      "inputs": [
        {
          "internalType": "uint256[]",
          "name": "tokenIds",
          "type": "uint256[]"
        }
      ],
      "name": "withdrawBatch",
      "outputs": [],
      "stateMutability": "nonpayable",
      "type": "function"
    },
    {
      "inputs": [
        {
          "internalType": "uint256",
          "name": "tokenId",
          "type": "uint256"
        }
      ],
      "name": "withdrawWithMetadata",
      "outputs": [],
      "stateMutability": "nonpayable",
      "type": "function"
    },
    {
      "inputs": [
        {
          "internalType": "uint256",
          "name": "tokenId",
          "type": "uint256"
        }
      ],
      "name": "encodeTokenMetadata",
      "outputs": [
        {
          "internalType": "bytes",
          "name": "",
          "type": "bytes"
        }
      ],
      "stateMutability": "view",
      "type": "function",
      "constant": true
    }
  ],
  "bytecode": "0x6080604052600c805460ff191690553480156200001b57600080fd5b5060405162003c8d38038062003c8d833981810160405260608110156200004157600080fd5b81019080805160405193929190846401000000008211156200006257600080fd5b9083019060208201858111156200007857600080fd5b82516401000000008111828201881017156200009357600080fd5b82525081516020918201929091019080838360005b83811015620000c2578181015183820152602001620000a8565b50505050905090810190601f168015620000f05780820380516001836020036101000a031916815260200191505b50604052602001805160405193929190846401000000008211156200011457600080fd5b9083019060208201858111156200012a57600080fd5b82516401000000008111828201881017156200014557600080fd5b82525081516020918201929091019080838360005b83811015620001745781810151838201526020016200015a565b50505050905090810190601f168015620001a25780820380516001836020036101000a031916815260200191505b5060405260200151915083905082620001cb6301ffc9a760e01b6001600160e01b03620002fd16565b8151620001e090600690602085019062000710565b508051620001f690600790602084019062000710565b50620002126380ac58cd60e01b6001600160e01b03620002fd16565b6200022d635b5e139f60e01b6001600160e01b03620002fd16565b6200024863780e9d6360e01b6001600160e01b03620002fd16565b505060408051808201909152600b81526a4368696c6445524337323160a81b602082015262000280906001600160e01b036200038216565b620002a86000620002996001600160e01b036200042816565b6001600160e01b036200044516565b604080516d4445504f5349544f525f524f4c4560901b8152905190819003600e019020620002e090826001600160e01b036200044516565b620002f4836001600160e01b036200045a16565b505050620007b2565b6001600160e01b031980821614156200035d576040805162461bcd60e51b815260206004820152601c60248201527f4552433136353a20696e76616c696420696e7465726661636520696400000000604482015290519081900360640190fd5b6001600160e01b0319166000908152602081905260409020805460ff19166001179055565b806040516020018082805190602001908083835b60208310620003b75780518252601f19909201916020918201910162000396565b51815160209384036101000a60001901801990921691161790527f3a20494e53554646494349454e545f5045524d495353494f4e530000000000009190930190815260408051808303600519018152601a90920190528051620004249550600b9450920191905062000710565b5050565b60006200043f620004c860201b620027981760201c565b90505b90565b6200042482826001600160e01b036200052716565b600c5460ff1615620004a4576040805162461bcd60e51b815260206004820152600e60248201526d185b1c9958591e481a5b9a5d195960921b604482015290519081900360640190fd5b620004b8816001600160e01b03620005ab16565b50600c805460ff19166001179055565b600033301415620005225760606000368080601f0160208091040260200160405190810160405280939291908181526020018383808284376000920191909152505050503601516001600160a01b03169150620004429050565b503390565b6000828152600a602090815260409091206200054e9183906200290b62000673821b17901c565b156200042457620005676001600160e01b036200042816565b6001600160a01b0316816001600160a01b0316837f2f8788117e7eff1d82e926ec794901d17c78024a50270940304540a733656f0d60405160405180910390a45050565b6040518060800160405280604f815260200162003c3e604f913980516020918201208251838301206040805180820190915260018152603160f81b930192909252907fc89efdaa54c0f20c7adf612882df0950f5a951637e0307cdcb4c672f298b8bc630620006226001600160e01b036200069c16565b604080516020808201979097528082019590955260608501939093526001600160a01b03909116608084015260a0808401919091528151808403909101815260c090920190528051910120600d5550565b600062000693836001600160a01b0384166001600160e01b03620006a016565b90505b92915050565b4690565b6000620006b783836001600160e01b03620006f816565b620006ef5750815460018181018455600084815260208082209093018490558454848252828601909352604090209190915562000696565b50600062000696565b60009081526001919091016020526040902054151590565b828054600181600116156101000203166002900490600052602060002090601f016020900481019282601f106200075357805160ff191683800117855562000783565b8280016001018555821562000783579182015b828111156200078357825182559160200191906001019062000766565b506200079192915062000795565b5090565b6200044291905b808211156200079157600081556001016200079c565b61347c80620007c26000396000f3fe60806040526004361061021a5760003560e01c80634f6ccce711610123578063a217fddf116100ab578063c87b56dd1161006f578063c87b56dd14610986578063ca15c873146109b0578063cf2c52cb146109da578063d547741f14610a65578063e985e9c514610a9e5761021a565b8063a217fddf14610826578063a22cb4651461083b578063a3b0b5a314610876578063a5e584dc1461088b578063b88d4fde146108b55761021a565b80639010d07c116100f25780639010d07c1461071857806391d14854146107485780639559c0bd1461078157806395d89b41146107965780639c8d4156146107ab5761021a565b80634f6ccce71461067c5780636352211e146106a65780636c0360eb146106d057806370a08231146106e55761021a565b806323b872dd116101a65780632f2ff15d116101755780632f2ff15d146105795780632f745c59146105b25780633408e470146105eb57806336568abe1461060057806342842e0e146106395761021a565b806323b872dd146104af578063248a9ca3146104f25780632d0335ab1461051c5780632e1a7d4d1461054f5761021a565b80630c53c51c116101ed5780630c53c51c146103725780630f7e5970146104345780631653c39a1461044957806318160ddd1461047357806320379ee51461049a5761021a565b806301ffc9a71461021f57806306fdde0314610267578063081812fc146102f1578063095ea7b314610337575b600080fd5b34801561022b57600080fd5b506102536004803603602081101561024257600080fd5b50356001600160e01b031916610ad9565b604080519115158252519081900360200190f35b34801561027357600080fd5b5061027c610afc565b6040805160208082528351818301528351919283929083019185019080838360005b838110156102b657818101518382015260200161029e565b50505050905090810190601f1680156102e35780820380516001836020036101000a031916815260200191505b509250505060405180910390f35b3480156102fd57600080fd5b5061031b6004803603602081101561031457600080fd5b5035610b93565b604080516001600160a01b039092168252519081900360200190f35b34801561034357600080fd5b506103706004803603604081101561035a57600080fd5b506001600160a01b038135169060200135610bf5565b005b61027c600480360360a081101561038857600080fd5b6001600160a01b038235169190810190604081016020820135600160201b8111156103b257600080fd5b8201836020820111156103c457600080fd5b803590602001918460018302840111600160201b831117156103e557600080fd5b91908080601f016020809104026020016040519081016040528093929190818152602001838380828437600092019190915250929550508235935050506020810135906040013560ff16610cd0565b34801561044057600080fd5b5061027c610fd3565b34801561045557600080fd5b5061027c6004803603602081101561046c57600080fd5b5035610ff0565b34801561047f57600080fd5b50610488611082565b60408051918252519081900360200190f35b3480156104a657600080fd5b50610488611093565b3480156104bb57600080fd5b50610370600480360360608110156104d257600080fd5b506001600160a01b03813581169160208101359091169060400135611099565b3480156104fe57600080fd5b506104886004803603602081101561051557600080fd5b50356110f0565b34801561052857600080fd5b506104886004803603602081101561053f57600080fd5b50356001600160a01b0316611105565b34801561055b57600080fd5b506103706004803603602081101561057257600080fd5b5035611120565b34801561058557600080fd5b506103706004803603604081101561059c57600080fd5b50803590602001356001600160a01b03166111a1565b3480156105be57600080fd5b50610488600480360360408110156105d557600080fd5b506001600160a01b03813516906020013561120d565b3480156105f757600080fd5b5061048861123e565b34801561060c57600080fd5b506103706004803603604081101561062357600080fd5b50803590602001356001600160a01b0316611242565b34801561064557600080fd5b506103706004803603606081101561065c57600080fd5b506001600160a01b038135811691602081013590911690604001356112a3565b34801561068857600080fd5b506104886004803603602081101561069f57600080fd5b50356112be565b3480156106b257600080fd5b5061031b600480360360208110156106c957600080fd5b50356112da565b3480156106dc57600080fd5b5061027c611308565b3480156106f157600080fd5b506104886004803603602081101561070857600080fd5b50356001600160a01b0316611369565b34801561072457600080fd5b5061031b6004803603604081101561073b57600080fd5b50803590602001356113d1565b34801561075457600080fd5b506102536004803603604081101561076b57600080fd5b50803590602001356001600160a01b03166113ef565b34801561078d57600080fd5b5061048861140d565b3480156107a257600080fd5b5061027c611412565b3480156107b757600080fd5b50610370600480360360208110156107ce57600080fd5b810190602081018135600160201b8111156107e857600080fd5b8201836020820111156107fa57600080fd5b803590602001918460208302840111600160201b8311171561081b57600080fd5b509092509050611473565b34801561083257600080fd5b50610488611651565b34801561084757600080fd5b506103706004803603604081101561085e57600080fd5b506001600160a01b0381351690602001351515611656565b34801561088257600080fd5b5061048861175b565b34801561089757600080fd5b50610370600480360360208110156108ae57600080fd5b5035611781565b3480156108c157600080fd5b50610370600480360360808110156108d857600080fd5b6001600160a01b03823581169260208101359091169160408201359190810190608081016060820135600160201b81111561091257600080fd5b82018360208201111561092457600080fd5b803590602001918460018302840111600160201b8311171561094557600080fd5b91908080601f0160208091040260200160405190810160405280939291908181526020018383808284376000920191909152509295506119d5945050505050565b34801561099257600080fd5b5061027c600480360360208110156109a957600080fd5b5035611a33565b3480156109bc57600080fd5b50610488600480360360208110156109d357600080fd5b5035611cda565b3480156109e657600080fd5b50610370600480360360408110156109fd57600080fd5b6001600160a01b038235169190810190604081016020820135600160201b811115610a2757600080fd5b820183602082011115610a3957600080fd5b803590602001918460018302840111600160201b83111715610a5a57600080fd5b509092509050611cf1565b348015610a7157600080fd5b5061037060048036036040811015610a8857600080fd5b50803590602001356001600160a01b0316611ec4565b348015610aaa57600080fd5b5061025360048036036040811015610ac157600080fd5b506001600160a01b0381358116916020013516611f1d565b6001600160e01b0319811660009081526020819052604090205460ff165b919050565b60068054604080516020601f6002600019610100600188161502019095169490940493840181900481028201810190925282815260609390929091830182828015610b885780601f10610b5d57610100808354040283529160200191610b88565b820191906000526020600020905b815481529060010190602001808311610b6b57829003601f168201915b505050505090505b90565b6000610b9e82611f4b565b610bd95760405162461bcd60e51b815260040180806020018281038252602c815260200180613321602c913960400191505060405180910390fd5b506000908152600460205260409020546001600160a01b031690565b6000610c00826112da565b9050806001600160a01b0316836001600160a01b03161415610c535760405162461bcd60e51b81526004018080602001828103825260218152602001806133c66021913960400191505060405180910390fd5b806001600160a01b0316610c65611f5e565b6001600160a01b03161480610c865750610c8681610c81611f5e565b611f1d565b610cc15760405162461bcd60e51b81526004018080602001828103825260388152602001806132746038913960400191505060405180910390fd5b610ccb8383611f68565b505050565b6060610cda613064565b50604080516060810182526001600160a01b0388166000818152600e602090815290849020548352820152908101869052610d188782878787611fd6565b610d535760405162461bcd60e51b81526004018080602001828103825260218152602001806133766021913960400191505060405180910390fd5b6001600160a01b0387166000908152600e6020526040902054610d7d90600163ffffffff6120b316565b6001600160a01b0388166000818152600e602090815260408083209490945583519283523383820181905260609484018581528b51958501959095528a517f5845892132946850460bff5a0083f71031bc5bf9aadcd40f1de79423eac9b10b958d9592948d94919260808501928601918190849084905b83811015610e0c578181015183820152602001610df4565b50505050905090810190601f168015610e395780820380516001836020036101000a031916815260200191505b5094505050505060405180910390a160006060306001600160a01b0316888a6040516020018083805190602001908083835b60208310610e8a5780518252601f199092019160209182019101610e6b565b6001836020036101000a038019825116818451168082178552505050505050905001826001600160a01b03166001600160a01b031660601b8152601401925050506040516020818303038152906040526040518082805190602001908083835b60208310610f095780518252601f199092019160209182019101610eea565b6001836020036101000a0380198251168184511680821785525050505050509050019150506000604051808303816000865af19150503d8060008114610f6b576040519150601f19603f3d011682016040523d82523d6000602084013e610f70565b606091505b509150915081610fc7576040805162461bcd60e51b815260206004820152601c60248201527f46756e6374696f6e2063616c6c206e6f74207375636365737366756c00000000604482015290519081900360640190fd5b98975050505050505050565b604051806040016040528060018152602001603160f81b81525081565b6060610ffb82611a33565b6040516020018080602001828103825283818151815260200191508051906020019080838360005b8381101561103b578181015183820152602001611023565b50505050905090810190601f1680156110685780820380516001836020036101000a031916815260200191505b5060408051601f1981840301815291905295945050505050565b600061108e600261210d565b905090565b600d5490565b6110aa6110a4611f5e565b82612118565b6110e55760405162461bcd60e51b81526004018080602001828103825260318152602001806133e76031913960400191505060405180910390fd5b610ccb8383836121bc565b6000908152600a602052604090206002015490565b6001600160a01b03166000908152600e602052604090205490565b611129816112da565b6001600160a01b031661113a611f5e565b6001600160a01b031614611195576040805162461bcd60e51b815260206004820181905260248201527f4368696c644552433732313a20494e56414c49445f544f4b454e5f4f574e4552604482015290519081900360640190fd5b61119e8161231a565b50565b6000828152600a60205260409020600201546111c4906111bf611f5e565b6113ef565b6111ff5760405162461bcd60e51b815260040180806020018281038252602f81526020018061310a602f913960400191505060405180910390fd5b61120982826123f3565b5050565b6001600160a01b0382166000908152600160205260408120611235908363ffffffff61246216565b90505b92915050565b4690565b61124a611f5e565b6001600160a01b0316816001600160a01b0316146112995760405162461bcd60e51b815260040180806020018281038252602f815260200180613418602f913960400191505060405180910390fd5b611209828261246e565b610ccb838383604051806020016040528060008152506119d5565b6000806112d260028463ffffffff6124dd16565b509392505050565b6000611238826040518060600160405280602981526020016132d6602991396002919063ffffffff6124f916565b60098054604080516020601f6002600019610100600188161502019095169490940493840181900481028201810190925282815260609390929091830182828015610b885780601f10610b5d57610100808354040283529160200191610b88565b60006001600160a01b0382166113b05760405162461bcd60e51b815260040180806020018281038252602a8152602001806132ac602a913960400191505060405180910390fd5b6001600160a01b03821660009081526001602052604090206112389061210d565b6000828152600a60205260408120611235908363ffffffff61246216565b6000828152600a60205260408120611235908363ffffffff61251016565b601481565b60078054604080516020601f6002600019610100600188161502019095169490940493840181900481028201810190925282815260609390929091830182828015610b885780601f10610b5d57610100808354040283529160200191610b88565b8060148111156114ca576040805162461bcd60e51b815260206004820181905260248201527f4368696c644552433732313a20455843454544535f42415443485f4c494d4954604482015290519081900360640190fd5b60005b818110156115d75760008484838181106114e357fe5b9050602002013590506114f5816112da565b6001600160a01b0316611506611f5e565b6001600160a01b03161481604051602001808061322e60219139602101828152602001915050604051602081830303815290604052906115c45760405162461bcd60e51b81526004018080602001828103825283818151815260200191508051906020019080838360005b83811015611589578181015183820152602001611571565b50505050905090810190601f1680156115b65780820380516001836020036101000a031916815260200191505b509250505060405180910390fd5b506115ce8161231a565b506001016114cd565b506115e0611f5e565b6001600160a01b03167ff871896b17e9cb7a64941c62c188a4f5c621b86800e3d15452ece01ce56073df848460405180806020018281038252848482818152602001925060200280828437600083820152604051601f909101601f19169092018290039550909350505050a2505050565b600081565b61165e611f5e565b6001600160a01b0316826001600160a01b031614156116c4576040805162461bcd60e51b815260206004820152601960248201527f4552433732313a20617070726f766520746f2063616c6c657200000000000000604482015290519081900360640190fd5b80600560006116d1611f5e565b6001600160a01b03908116825260208083019390935260409182016000908120918716808252919093529120805460ff191692151592909217909155611715611f5e565b60408051841515815290516001600160a01b0392909216917f17307eab39ab6107e8899845ad3d59bd9653f200f220920489ca2b5937696c319181900360200190a35050565b604080516d4445504f5349544f525f524f4c4560901b8152905190819003600e01902081565b61178a816112da565b6001600160a01b031661179b611f5e565b6001600160a01b0316146117f6576040805162461bcd60e51b815260206004820181905260248201527f4368696c644552433732313a20494e56414c49445f544f4b454e5f4f574e4552604482015290519081900360640190fd5b806000611801611f5e565b6001600160a01b03167ff94915c6d1fd521cee85359239227480c7e8776d7caf1fc3bacad5c269b66a14306001600160a01b0316631653c39a866040518263ffffffff1660e01b81526004018082815260200191505060006040518083038186803b15801561186f57600080fd5b505afa158015611883573d6000803e3d6000fd5b505050506040513d6000823e601f3d908101601f1916820160405260208110156118ac57600080fd5b8101908080516040519392919084600160201b8211156118cb57600080fd5b9083019060208201858111156118e057600080fd5b8251600160201b8111828201881017156118f957600080fd5b82525081516020918201929091019080838360005b8381101561192657818101518382015260200161190e565b50505050905090810190601f1680156119535780820380516001836020036101000a031916815260200191505b50604081815260208083528651818401528651929550859450908401925085019080838360005b8381101561199257818101518382015260200161197a565b50505050905090810190601f1680156119bf5780820380516001836020036101000a031916815260200191505b509250505060405180910390a461119e8161231a565b6119e66119e0611f5e565b83612118565b611a215760405162461bcd60e51b81526004018080602001828103825260318152602001806133e76031913960400191505060405180910390fd5b611a2d84848484612525565b50505050565b6060611a3e82611f4b565b611a795760405162461bcd60e51b815260040180806020018281038252602f815260200180613397602f913960400191505060405180910390fd5b60008281526008602090815260409182902080548351601f6002600019610100600186161502019093169290920491820184900484028101840190945280845260609392830182828015611b0e5780601f10611ae357610100808354040283529160200191611b0e565b820191906000526020600020905b815481529060010190602001808311611af157829003601f168201915b505060095493945050505060026000196101006001841615020190911604611b37579050610af7565b805115611c08576009816040516020018083805460018160011615610100020316600290048015611b9f5780601f10611b7d576101008083540402835291820191611b9f565b820191906000526020600020905b815481529060010190602001808311611b8b575b5050825160208401908083835b60208310611bcb5780518252601f199092019160209182019101611bac565b6001836020036101000a03801982511681845116808217855250505050505090500192505050604051602081830303815290604052915050610af7565b6009611c1384612577565b6040516020018083805460018160011615610100020316600290048015611c715780601f10611c4f576101008083540402835291820191611c71565b820191906000526020600020905b815481529060010190602001808311611c5d575b5050825160208401908083835b60208310611c9d5780518252601f199092019160209182019101611c7e565b6001836020036101000a03801982511681845116808217855250505050505090500192505050604051602081830303815290604052915050919050565b6000818152600a602052604081206112389061210d565b604080516d4445504f5349544f525f524f4c4560901b8152905190819003600e019020611d20816111bf611f5e565b600b90611dc05760405162461bcd60e51b8152602060048201908152825460026000196101006001841615020190911604602483018190529091829160449091019084908015611db15780601f10611d8657610100808354040283529160200191611db1565b820191906000526020600020905b815481529060010190602001808311611d9457829003601f168201915b50509250505060405180910390fd5b506020821415611df057600083836020811015611ddc57600080fd5b50359050611dea8582612652565b50611a2d565b606083836020811015611e0257600080fd5b810190602081018135600160201b811115611e1c57600080fd5b820183602082011115611e2e57600080fd5b803590602001918460208302840111600160201b83111715611e4f57600080fd5b91908080602002602001604051908101604052809392919081815260200183836020028082843760009201829052508451949850939650929450505050505b81811015611ebb57611eb387848381518110611ea657fe5b6020026020010151612652565b600101611e8e565b50505050505050565b6000828152600a6020526040902060020154611ee2906111bf611f5e565b6112995760405162461bcd60e51b81526004018080602001828103825260308152602001806131fe6030913960400191505060405180910390fd5b6001600160a01b03918216600090815260056020908152604080832093909416825291909152205460ff1690565b600061123860028363ffffffff61278c16565b600061108e612798565b600081815260046020526040902080546001600160a01b0319166001600160a01b0384169081179091558190611f9d826112da565b6001600160a01b03167f8c5be1e5ebec7d5bd14f71427d1e84f3dd0314c0f7b2291e5b200ac8c7c3b92560405160405180910390a45050565b60006001600160a01b03861661201d5760405162461bcd60e51b815260040180806020018281038252602581526020018061324f6025913960400191505060405180910390fd5b600161203061202b876127f5565b612881565b83868660405160008152602001604052604051808581526020018460ff1660ff1681526020018381526020018281526020019450505050506020604051602081039080840390855afa15801561208a573d6000803e3d6000fd5b505050602060405103516001600160a01b0316866001600160a01b031614905095945050505050565b600082820183811015611235576040805162461bcd60e51b815260206004820152601b60248201527f536166654d6174683a206164646974696f6e206f766572666c6f770000000000604482015290519081900360640190fd5b6000611238826128cd565b600061212382611f4b565b61215e5760405162461bcd60e51b815260040180806020018281038252602c8152602001806131d2602c913960400191505060405180910390fd5b6000612169836112da565b9050806001600160a01b0316846001600160a01b031614806121a45750836001600160a01b031661219984610b93565b6001600160a01b0316145b806121b457506121b48185611f1d565b949350505050565b826001600160a01b03166121cf826112da565b6001600160a01b0316146122145760405162461bcd60e51b815260040180806020018281038252602981526020018061334d6029913960400191505060405180910390fd5b6001600160a01b0382166122595760405162461bcd60e51b81526004018080602001828103825260248152602001806131ae6024913960400191505060405180910390fd5b612264838383610ccb565b61226f600082611f68565b6001600160a01b0383166000908152600160205260409020612297908263ffffffff6128d116565b506001600160a01b03821660009081526001602052604090206122c0908263ffffffff6128dd16565b506122d36002828463ffffffff6128e916565b5080826001600160a01b0316846001600160a01b03167fddf252ad1be2c89b69c2b068fc378daa952ba7f163c4a11628f55a4df523b3ef60405160405180910390a4505050565b6000612325826112da565b905061233381600084610ccb565b61233e600083611f68565b600082815260086020526040902054600260001961010060018416150201909116041561237c57600082815260086020526040812061237c9161308e565b6001600160a01b03811660009081526001602052604090206123a4908363ffffffff6128d116565b506123b660028363ffffffff6128ff16565b5060405182906000906001600160a01b038416907fddf252ad1be2c89b69c2b068fc378daa952ba7f163c4a11628f55a4df523b3ef908390a45050565b6000828152600a60205260409020612411908263ffffffff61290b16565b156112095761241e611f5e565b6001600160a01b0316816001600160a01b0316837f2f8788117e7eff1d82e926ec794901d17c78024a50270940304540a733656f0d60405160405180910390a45050565b60006112358383612920565b6000828152600a6020526040902061248c908263ffffffff61298416565b1561120957612499611f5e565b6001600160a01b0316816001600160a01b0316837ff6391f5c32d9c69d2a47ea670b442974b53935d1edc7fd64eb21e047a839171b60405160405180910390a45050565b60008080806124ec8686612999565b9097909650945050505050565b6000612506848484612a14565b90505b9392505050565b6000611235836001600160a01b038416612aa1565b6125308484846121bc565b61253c84848484612ab9565b611a2d5760405162461bcd60e51b81526004018080602001828103825260328152602001806131396032913960400191505060405180910390fd5b60608161259c57506040805180820190915260018152600360fc1b6020820152610af7565b8160005b81156125b457600101600a820491506125a0565b60608167ffffffffffffffff811180156125cd57600080fd5b506040519080825280601f01601f1916602001820160405280156125f8576020820181803683370190505b50859350905060001982015b831561264957600a840660300160f81b8282806001900393508151811061262757fe5b60200101906001600160f81b031916908160001a905350600a84049350612604565b50949350505050565b6001600160a01b0382166126ad576040805162461bcd60e51b815260206004820181905260248201527f4552433732313a206d696e7420746f20746865207a65726f2061646472657373604482015290519081900360640190fd5b6126b681611f4b565b15612708576040805162461bcd60e51b815260206004820152601c60248201527f4552433732313a20746f6b656e20616c7265616479206d696e74656400000000604482015290519081900360640190fd5b61271460008383610ccb565b6001600160a01b038216600090815260016020526040902061273c908263ffffffff6128dd16565b5061274f6002828463ffffffff6128e916565b5060405181906001600160a01b038416906000907fddf252ad1be2c89b69c2b068fc378daa952ba7f163c4a11628f55a4df523b3ef908290a45050565b60006112358383612aa1565b6000333014156127f05760606000368080601f0160208091040260200160405190810160405280939291908181526020018383808284376000920191909152505050503601516001600160a01b03169150610b909050565b503390565b600060405180608001604052806043815260200161316b60439139805190602001208260000151836020015184604001518051906020012060405160200180858152602001848152602001836001600160a01b03166001600160a01b03168152602001828152602001945050505050604051602081830303815290604052805190602001209050919050565b600061288b611093565b82604051602001808061190160f01b81525060020183815260200182815260200192505050604051602081830303815290604052805190602001209050919050565b5490565b60006112358383612c39565b60006112358383612cff565b600061250684846001600160a01b038516612d49565b60006112358383612de0565b6000611235836001600160a01b038416612cff565b815460009082106129625760405162461bcd60e51b81526004018080602001828103825260228152602001806130e86022913960400191505060405180910390fd5b82600001828154811061297157fe5b9060005260206000200154905092915050565b6000611235836001600160a01b038416612c39565b8154600090819083106129dd5760405162461bcd60e51b81526004018080602001828103825260228152602001806132ff6022913960400191505060405180910390fd5b60008460000184815481106129ee57fe5b906000526020600020906002020190508060000154816001015492509250509250929050565b60008281526001840160205260408120548281612a725760405162461bcd60e51b8152602060048201818152835160248401528351909283926044909101919085019080838360008315611589578181015183820152602001611571565b50846000016001820381548110612a8557fe5b9060005260206000209060020201600101549150509392505050565b60009081526001919091016020526040902054151590565b6000612acd846001600160a01b0316612eb4565b612ad9575060016121b4565b6060612bff630a85bd0160e11b612aee611f5e565b88878760405160240180856001600160a01b03166001600160a01b03168152602001846001600160a01b03166001600160a01b0316815260200183815260200180602001828103825283818151815260200191508051906020019080838360005b83811015612b67578181015183820152602001612b4f565b50505050905090810190601f168015612b945780820380516001836020036101000a031916815260200191505b5095505050505050604051602081830303815290604052906001600160e01b0319166020820180516001600160e01b038381831617835250505050604051806060016040528060328152602001613139603291396001600160a01b038816919063ffffffff612eed16565b90506000818060200190516020811015612c1857600080fd5b50516001600160e01b031916630a85bd0160e11b1492505050949350505050565b60008181526001830160205260408120548015612cf55783546000198083019190810190600090879083908110612c6c57fe5b9060005260206000200154905080876000018481548110612c8957fe5b600091825260208083209091019290925582815260018981019092526040902090840190558654879080612cb957fe5b60019003818190600052602060002001600090559055866001016000878152602001908152602001600020600090556001945050505050611238565b6000915050611238565b6000612d0b8383612aa1565b612d4157508154600181810184556000848152602080822090930184905584548482528286019093526040902091909155611238565b506000611238565b600082815260018401602052604081205480612dae575050604080518082018252838152602080820184815286546001818101895560008981528481209551600290930290950191825591519082015586548684528188019092529290912055612509565b82856000016001830381548110612dc157fe5b9060005260206000209060020201600101819055506000915050612509565b60008181526001830160205260408120548015612cf55783546000198083019190810190600090879083908110612e1357fe5b9060005260206000209060020201905080876000018481548110612e3357fe5b600091825260208083208454600290930201918255600193840154918401919091558354825289830190526040902090840190558654879080612e7257fe5b60008281526020808220600260001990940193840201828155600190810183905592909355888152898201909252604082209190915594506112389350505050565b6000813f7fc5d2460186f7233c927e7db2dcc703c0e500b653ca82273b7bfad8045d85a4708181148015906121b4575050151592915050565b606061250684846000856060612f0285612eb4565b612f53576040805162461bcd60e51b815260206004820152601d60248201527f416464726573733a2063616c6c20746f206e6f6e2d636f6e7472616374000000604482015290519081900360640190fd5b60006060866001600160a01b031685876040518082805190602001908083835b60208310612f925780518252601f199092019160209182019101612f73565b6001836020036101000a03801982511681845116808217855250505050505090500191505060006040518083038185875af1925050503d8060008114612ff4576040519150601f19603f3d011682016040523d82523d6000602084013e612ff9565b606091505b5091509150811561300d5791506121b49050565b80511561301d5780518082602001fd5b60405162461bcd60e51b8152602060048201818152865160248401528651879391928392604401919085019080838360008315611589578181015183820152602001611571565b60405180606001604052806000815260200160006001600160a01b03168152602001606081525090565b50805460018160011615610100020316600290046000825580601f106130b4575061119e565b600091825260209182902061119e92610b9092601f01048101905b808211156130e357600081556001016130cf565b509056fe456e756d657261626c655365743a20696e646578206f7574206f6620626f756e6473416363657373436f6e74726f6c3a2073656e646572206d75737420626520616e2061646d696e20746f206772616e744552433732313a207472616e7366657220746f206e6f6e20455243373231526563656976657220696d706c656d656e7465724d6574615472616e73616374696f6e2875696e74323536206e6f6e63652c616464726573732066726f6d2c62797465732066756e6374696f6e5369676e6174757265294552433732313a207472616e7366657220746f20746865207a65726f20616464726573734552433732313a206f70657261746f7220717565727920666f72206e6f6e6578697374656e7420746f6b656e416363657373436f6e74726f6c3a2073656e646572206d75737420626520616e2061646d696e20746f207265766f6b654368696c644552433732313a20494e56414c49445f544f4b454e5f4f574e4552204e61746976654d6574615472616e73616374696f6e3a20494e56414c49445f5349474e45524552433732313a20617070726f76652063616c6c6572206973206e6f74206f776e6572206e6f7220617070726f76656420666f7220616c6c4552433732313a2062616c616e636520717565727920666f7220746865207a65726f20616464726573734552433732313a206f776e657220717565727920666f72206e6f6e6578697374656e7420746f6b656e456e756d657261626c654d61703a20696e646578206f7574206f6620626f756e64734552433732313a20617070726f76656420717565727920666f72206e6f6e6578697374656e7420746f6b656e4552433732313a207472616e73666572206f6620746f6b656e2074686174206973206e6f74206f776e5369676e657220616e64207369676e617475726520646f206e6f74206d617463684552433732314d657461646174613a2055524920717565727920666f72206e6f6e6578697374656e7420746f6b656e4552433732313a20617070726f76616c20746f2063757272656e74206f776e65724552433732313a207472616e736665722063616c6c6572206973206e6f74206f776e6572206e6f7220617070726f766564416363657373436f6e74726f6c3a2063616e206f6e6c792072656e6f756e636520726f6c657320666f722073656c66a264697066735822122081d10916a85adaf6e5f546002eeec9431cafbc1a70b6635f3a983784e17acdd564736f6c63430006060033454950373132446f6d61696e28737472696e67206e616d652c737472696e672076657273696f6e2c6164647265737320766572696679696e67436f6e74726163742c627974657333322073616c7429",
  "immutableReferences": {},
  "source": "pragma solidity 0.6.6;\n\nimport {ERC721} from \"@openzeppelin/contracts/token/ERC721/ERC721.sol\";\nimport {AccessControlMixin} from \"../../common/AccessControlMixin.sol\";\nimport {IChildToken} from \"./IChildToken.sol\";\nimport {NativeMetaTransaction} from \"../../common/NativeMetaTransaction.sol\";\nimport {ContextMixin} from \"../../common/ContextMixin.sol\";\n\ncontract ChildERC721 is\n    ERC721,\n    IChildToken,\n    AccessControlMixin,\n    NativeMetaTransaction,\n    ContextMixin\n{\n    bytes32 public constant DEPOSITOR_ROLE = keccak256(\"DEPOSITOR_ROLE\");\n\n    // limit batching of tokens due to gas limit restrictions\n    uint256 public constant BATCH_LIMIT = 20;\n\n    event WithdrawnBatch(address indexed user, uint256[] tokenIds);\n    event TransferWithMetadata(address indexed from, address indexed to, uint256 indexed tokenId, bytes metaData);\n\n    constructor(\n        string memory name_,\n        string memory symbol_,\n        address childChainManager\n    ) public ERC721(name_, symbol_) {\n        _setupContractId(\"ChildERC721\");\n        _setupRole(DEFAULT_ADMIN_ROLE, _msgSender());\n        _setupRole(DEPOSITOR_ROLE, childChainManager);\n        _initializeEIP712(name_);\n    }\n\n    // This is to support Native meta transactions\n    // never use msg.sender directly, use _msgSender() instead\n    function _msgSender()\n        internal\n        override\n        view\n        returns (address payable sender)\n    {\n        return ContextMixin.msgSender();\n    }\n\n    /**\n     * @notice called when token is deposited on root chain\n     * @dev Should be callable only by ChildChainManager\n     * Should handle deposit by minting the required tokenId for user\n     * Make sure minting is done only by this function\n     * @param user user address for whom deposit is being done\n     * @param depositData abi encoded tokenId\n     */\n    function deposit(address user, bytes calldata depositData)\n        external\n        override\n        only(DEPOSITOR_ROLE)\n    {\n        // deposit single\n        if (depositData.length == 32) {\n            uint256 tokenId = abi.decode(depositData, (uint256));\n            _mint(user, tokenId);\n\n        // deposit batch\n        } else {\n            uint256[] memory tokenIds = abi.decode(depositData, (uint256[]));\n            uint256 length = tokenIds.length;\n            for (uint256 i; i < length; i++) {\n                _mint(user, tokenIds[i]);\n            }\n        }\n    }\n\n    /**\n     * @notice called when user wants to withdraw token back to root chain\n     * @dev Should burn user's token. This transaction will be verified when exiting on root chain\n     * @param tokenId tokenId to withdraw\n     */\n    function withdraw(uint256 tokenId) external {\n        require(_msgSender() == ownerOf(tokenId), \"ChildERC721: INVALID_TOKEN_OWNER\");\n        _burn(tokenId);\n    }\n\n    /**\n     * @notice called when user wants to withdraw multiple tokens back to root chain\n     * @dev Should burn user's tokens. This transaction will be verified when exiting on root chain\n     * @param tokenIds tokenId list to withdraw\n     */\n    function withdrawBatch(uint256[] calldata tokenIds) external {\n        uint256 length = tokenIds.length;\n        require(length <= BATCH_LIMIT, \"ChildERC721: EXCEEDS_BATCH_LIMIT\");\n        for (uint256 i; i < length; i++) {\n            uint256 tokenId = tokenIds[i];\n            require(_msgSender() == ownerOf(tokenId), string(abi.encodePacked(\"ChildERC721: INVALID_TOKEN_OWNER \", tokenId)));\n            _burn(tokenId);\n        }\n        emit WithdrawnBatch(_msgSender(), tokenIds);\n    }\n\n    /**\n     * @notice called when user wants to withdraw token back to root chain with arbitrary metadata\n     * @dev Should handle withraw by burning user's token.\n     * \n     * This transaction will be verified when exiting on root chain\n     *\n     * @param tokenId tokenId to withdraw\n     */\n    function withdrawWithMetadata(uint256 tokenId) external {\n\n        require(_msgSender() == ownerOf(tokenId), \"ChildERC721: INVALID_TOKEN_OWNER\");\n\n        // Encoding metadata associated with tokenId & emitting event\n        emit TransferWithMetadata(_msgSender(), address(0), tokenId, this.encodeTokenMetadata(tokenId));\n\n        _burn(tokenId);\n\n    }\n\n    /**\n     * @notice This method is supposed to be called by client when withdrawing token with metadata\n     * and pass return value of this function as second paramter of `withdrawWithMetadata` method\n     *\n     * It can be overridden by clients to encode data in a different form, which needs to\n     * be decoded back by them correctly during exiting\n     *\n     * @param tokenId Token for which URI to be fetched\n     */\n    function encodeTokenMetadata(uint256 tokenId) external view virtual returns (bytes memory) {\n\n        // You're always free to change this default implementation\n        // and pack more data in byte array which can be decoded back\n        // in L1\n        return abi.encode(tokenURI(tokenId));\n\n    }\n}\n",
  "sourcePath": "/Users/ohm.jirapon/internal/layer-2/layer2-plasma-cli/devnet/code/pos-portal/contracts/child/ChildToken/ChildERC721.sol",
  "compiler": {
    "name": "solc",
    "version": "0.6.6+commit.6c089d02.Linux.g++"
  },
  "schemaVersion": "3.2.1",
  "updatedAt": "2022-09-15T05:55:57.452Z",
  "networkType": "ethereum",
  "devdoc": {
    "methods": {
      "approve(address,uint256)": {
        "details": "See {IERC721-approve}."
      },
      "balanceOf(address)": {
        "details": "See {IERC721-balanceOf}."
      },
      "baseURI()": {
        "details": "Returns the base URI set via {_setBaseURI}. This will be automatically added as a prefix in {tokenURI} to each token's URI, or to the token ID if no specific URI is set for that token ID."
      },
      "deposit(address,bytes)": {
        "details": "Should be callable only by ChildChainManager Should handle deposit by minting the required tokenId for user Make sure minting is done only by this function",
        "params": {
          "depositData": "abi encoded tokenId",
          "user": "user address for whom deposit is being done"
        }
      },
      "encodeTokenMetadata(uint256)": {
        "params": {
          "tokenId": "Token for which URI to be fetched"
        }
      },
      "getApproved(uint256)": {
        "details": "See {IERC721-getApproved}."
      },
      "getRoleAdmin(bytes32)": {
        "details": "Returns the admin role that controls `role`. See {grantRole} and {revokeRole}.     * To change a role's admin, use {_setRoleAdmin}."
      },
      "getRoleMember(bytes32,uint256)": {
        "details": "Returns one of the accounts that have `role`. `index` must be a value between 0 and {getRoleMemberCount}, non-inclusive.     * Role bearers are not sorted in any particular way, and their ordering may change at any point.     * WARNING: When using {getRoleMember} and {getRoleMemberCount}, make sure you perform all queries on the same block. See the following https://forum.openzeppelin.com/t/iterating-over-elements-on-enumerableset-in-openzeppelin-contracts/2296[forum post] for more information."
      },
      "getRoleMemberCount(bytes32)": {
        "details": "Returns the number of accounts that have `role`. Can be used together with {getRoleMember} to enumerate all bearers of a role."
      },
      "grantRole(bytes32,address)": {
        "details": "Grants `role` to `account`.     * If `account` had not been already granted `role`, emits a {RoleGranted} event.     * Requirements:     * - the caller must have ``role``'s admin role."
      },
      "hasRole(bytes32,address)": {
        "details": "Returns `true` if `account` has been granted `role`."
      },
      "isApprovedForAll(address,address)": {
        "details": "See {IERC721-isApprovedForAll}."
      },
      "name()": {
        "details": "See {IERC721Metadata-name}."
      },
      "ownerOf(uint256)": {
        "details": "See {IERC721-ownerOf}."
      },
      "renounceRole(bytes32,address)": {
        "details": "Revokes `role` from the calling account.     * Roles are often managed via {grantRole} and {revokeRole}: this function's purpose is to provide a mechanism for accounts to lose their privileges if they are compromised (such as when a trusted device is misplaced).     * If the calling account had been granted `role`, emits a {RoleRevoked} event.     * Requirements:     * - the caller must be `account`."
      },
      "revokeRole(bytes32,address)": {
        "details": "Revokes `role` from `account`.     * If `account` had been granted `role`, emits a {RoleRevoked} event.     * Requirements:     * - the caller must have ``role``'s admin role."
      },
      "safeTransferFrom(address,address,uint256)": {
        "details": "See {IERC721-safeTransferFrom}."
      },
      "safeTransferFrom(address,address,uint256,bytes)": {
        "details": "See {IERC721-safeTransferFrom}."
      },
      "setApprovalForAll(address,bool)": {
        "details": "See {IERC721-setApprovalForAll}."
      },
      "supportsInterface(bytes4)": {
        "details": "See {IERC165-supportsInterface}.     * Time complexity O(1), guaranteed to always use less than 30 000 gas."
      },
      "symbol()": {
        "details": "See {IERC721Metadata-symbol}."
      },
      "tokenByIndex(uint256)": {
        "details": "See {IERC721Enumerable-tokenByIndex}."
      },
      "tokenOfOwnerByIndex(address,uint256)": {
        "details": "See {IERC721Enumerable-tokenOfOwnerByIndex}."
      },
      "tokenURI(uint256)": {
        "details": "See {IERC721Metadata-tokenURI}."
      },
      "totalSupply()": {
        "details": "See {IERC721Enumerable-totalSupply}."
      },
      "transferFrom(address,address,uint256)": {
        "details": "See {IERC721-transferFrom}."
      },
      "withdraw(uint256)": {
        "details": "Should burn user's token. This transaction will be verified when exiting on root chain",
        "params": {
          "tokenId": "tokenId to withdraw"
        }
      },
      "withdrawBatch(uint256[])": {
        "details": "Should burn user's tokens. This transaction will be verified when exiting on root chain",
        "params": {
          "tokenIds": "tokenId list to withdraw"
        }
      },
      "withdrawWithMetadata(uint256)": {
        "details": "Should handle withraw by burning user's token.      * This transaction will be verified when exiting on root chain",
        "params": {
          "tokenId": "tokenId to withdraw"
        }
      }
    }
  },
  "userdoc": {
    "methods": {
      "deposit(address,bytes)": {
        "notice": "called when token is deposited on root chain"
      },
      "encodeTokenMetadata(uint256)": {
        "notice": "This method is supposed to be called by client when withdrawing token with metadata and pass return value of this function as second paramter of `withdrawWithMetadata` method     * It can be overridden by clients to encode data in a different form, which needs to be decoded back by them correctly during exiting"
      },
      "withdraw(uint256)": {
        "notice": "called when user wants to withdraw token back to root chain"
      },
      "withdrawBatch(uint256[])": {
        "notice": "called when user wants to withdraw multiple tokens back to root chain"
      },
      "withdrawWithMetadata(uint256)": {
        "notice": "called when user wants to withdraw token back to root chain with arbitrary metadata"
      }
    }
  }
}