{
  "contractName": "DummyERC20",
  "abi": [
    {
      "inputs": [
        {
          "internalType": "string",
          "name": "name_",
          "type": "string"
        },
        {
          "internalType": "string",
          "name": "symbol_",
          "type": "string"
        }
      ],
      "stateMutability": "nonpayable",
      "type": "constructor"
    },
    {
      "anonymous": false,
      "inputs": [
        {
          "indexed": true,
          "internalType": "address",
          "name": "owner",
          "type": "address"
        },
        {
          "indexed": true,
          "internalType": "address",
          "name": "spender",
          "type": "address"
        },
        {
          "indexed": false,
          "internalType": "uint256",
          "name": "value",
          "type": "uint256"
        }
      ],
      "name": "Approval",
      "type": "event"
    },
    {
      "anonymous": false,
      "inputs": [
        {
          "indexed": false,
          "internalType": "address",
          "name": "userAddress",
          "type": "address"
        },
        {
          "indexed": false,
          "internalType": "address payable",
          "name": "relayerAddress",
          "type": "address"
        },
        {
          "indexed": false,
          "internalType": "bytes",
          "name": "functionSignature",
          "type": "bytes"
        }
      ],
      "name": "MetaTransactionExecuted",
      "type": "event"
    },
    {
      "anonymous": false,
      "inputs": [
        {
          "indexed": true,
          "internalType": "address",
          "name": "from",
          "type": "address"
        },
        {
          "indexed": true,
          "internalType": "address",
          "name": "to",
          "type": "address"
        },
        {
          "indexed": false,
          "internalType": "uint256",
          "name": "value",
          "type": "uint256"
        }
      ],
      "name": "Transfer",
      "type": "event"
    },
    {
      "inputs": [],
      "name": "ERC712_VERSION",
      "outputs": [
        {
          "internalType": "string",
          "name": "",
          "type": "string"
        }
      ],
      "stateMutability": "view",
      "type": "function",
      "constant": true
    },
    {
      "inputs": [
        {
          "internalType": "address",
          "name": "owner",
          "type": "address"
        },
        {
          "internalType": "address",
          "name": "spender",
          "type": "address"
        }
      ],
      "name": "allowance",
      "outputs": [
        {
          "internalType": "uint256",
          "name": "",
          "type": "uint256"
        }
      ],
      "stateMutability": "view",
      "type": "function",
      "constant": true
    },
    {
      "inputs": [
        {
          "internalType": "address",
          "name": "spender",
          "type": "address"
        },
        {
          "internalType": "uint256",
          "name": "amount",
          "type": "uint256"
        }
      ],
      "name": "approve",
      "outputs": [
        {
          "internalType": "bool",
          "name": "",
          "type": "bool"
        }
      ],
      "stateMutability": "nonpayable",
      "type": "function"
    },
    {
      "inputs": [
        {
          "internalType": "address",
          "name": "account",
          "type": "address"
        }
      ],
      "name": "balanceOf",
      "outputs": [
        {
          "internalType": "uint256",
          "name": "",
          "type": "uint256"
        }
      ],
      "stateMutability": "view",
      "type": "function",
      "constant": true
    },
    {
      "inputs": [],
      "name": "decimals",
      "outputs": [
        {
          "internalType": "uint8",
          "name": "",
          "type": "uint8"
        }
      ],
      "stateMutability": "view",
      "type": "function",
      "constant": true
    },
    {
      "inputs": [
        {
          "internalType": "address",
          "name": "spender",
          "type": "address"
        },
        {
          "internalType": "uint256",
          "name": "subtractedValue",
          "type": "uint256"
        }
      ],
      "name": "decreaseAllowance",
      "outputs": [
        {
          "internalType": "bool",
          "name": "",
          "type": "bool"
        }
      ],
      "stateMutability": "nonpayable",
      "type": "function"
    },
    {
      "inputs": [
        {
          "internalType": "address",
          "name": "userAddress",
          "type": "address"
        },
        {
          "internalType": "bytes",
          "name": "functionSignature",
          "type": "bytes"
        },
        {
          "internalType": "bytes32",
          "name": "sigR",
          "type": "bytes32"
        },
        {
          "internalType": "bytes32",
          "name": "sigS",
          "type": "bytes32"
        },
        {
          "internalType": "uint8",
          "name": "sigV",
          "type": "uint8"
        }
      ],
      "name": "executeMetaTransaction",
      "outputs": [
        {
          "internalType": "bytes",
          "name": "",
          "type": "bytes"
        }
      ],
      "stateMutability": "payable",
      "type": "function",
      "payable": true
    },
    {
      "inputs": [],
      "name": "getChainId",
      "outputs": [
        {
          "internalType": "uint256",
          "name": "",
          "type": "uint256"
        }
      ],
      "stateMutability": "pure",
      "type": "function",
      "constant": true
    },
    {
      "inputs": [],
      "name": "getDomainSeperator",
      "outputs": [
        {
          "internalType": "bytes32",
          "name": "",
          "type": "bytes32"
        }
      ],
      "stateMutability": "view",
      "type": "function",
      "constant": true
    },
    {
      "inputs": [
        {
          "internalType": "address",
          "name": "user",
          "type": "address"
        }
      ],
      "name": "getNonce",
      "outputs": [
        {
          "internalType": "uint256",
          "name": "nonce",
          "type": "uint256"
        }
      ],
      "stateMutability": "view",
      "type": "function",
      "constant": true
    },
    {
      "inputs": [
        {
          "internalType": "address",
          "name": "spender",
          "type": "address"
        },
        {
          "internalType": "uint256",
          "name": "addedValue",
          "type": "uint256"
        }
      ],
      "name": "increaseAllowance",
      "outputs": [
        {
          "internalType": "bool",
          "name": "",
          "type": "bool"
        }
      ],
      "stateMutability": "nonpayable",
      "type": "function"
    },
    {
      "inputs": [],
      "name": "name",
      "outputs": [
        {
          "internalType": "string",
          "name": "",
          "type": "string"
        }
      ],
      "stateMutability": "view",
      "type": "function",
      "constant": true
    },
    {
      "inputs": [],
      "name": "symbol",
      "outputs": [
        {
          "internalType": "string",
          "name": "",
          "type": "string"
        }
      ],
      "stateMutability": "view",
      "type": "function",
      "constant": true
    },
    {
      "inputs": [],
      "name": "totalSupply",
      "outputs": [
        {
          "internalType": "uint256",
          "name": "",
          "type": "uint256"
        }
      ],
      "stateMutability": "view",
      "type": "function",
      "constant": true
    },
    {
      "inputs": [
        {
          "internalType": "address",
          "name": "recipient",
          "type": "address"
        },
        {
          "internalType": "uint256",
          "name": "amount",
          "type": "uint256"
        }
      ],
      "name": "transfer",
      "outputs": [
        {
          "internalType": "bool",
          "name": "",
          "type": "bool"
        }
      ],
      "stateMutability": "nonpayable",
      "type": "function"
    },
    {
      "inputs": [
        {
          "internalType": "address",
          "name": "sender",
          "type": "address"
        },
        {
          "internalType": "address",
          "name": "recipient",
          "type": "address"
        },
        {
          "internalType": "uint256",
          "name": "amount",
          "type": "uint256"
        }
      ],
      "name": "transferFrom",
      "outputs": [
        {
          "internalType": "bool",
          "name": "",
          "type": "bool"
        }
      ],
      "stateMutability": "nonpayable",
      "type": "function"
    },
    {
      "inputs": [
        {
          "internalType": "uint256",
          "name": "amount",
          "type": "uint256"
        }
      ],
      "name": "mint",
      "outputs": [],
      "stateMutability": "nonpayable",
      "type": "function"
    }
  ],
  "bytecode": "0x60806040526005805461ff00191690553480156200001c57600080fd5b50604051620019f3380380620019f3833981810160405260408110156200004257600080fd5b81019080805160405193929190846401000000008211156200006357600080fd5b9083019060208201858111156200007957600080fd5b82516401000000008111828201881017156200009457600080fd5b82525081516020918201929091019080838360005b83811015620000c3578181015183820152602001620000a9565b50505050905090810190601f168015620000f15780820380516001836020036101000a031916815260200191505b50604052602001805160405193929190846401000000008211156200011557600080fd5b9083019060208201858111156200012b57600080fd5b82516401000000008111828201881017156200014657600080fd5b82525081516020918201929091019080838360005b83811015620001755781810151838201526020016200015b565b50505050905090810190601f168015620001a35780820380516001836020036101000a031916815260200191505b50604052505082518391508290620001c390600390602085019062000576565b508051620001d990600490602084019062000576565b50506005805460ff19166012179055506b204fce5e3e250261100000006200021d6200020d6001600160e01b036200023a16565b826001600160e01b036200025716565b62000231836001600160e01b036200036f16565b50505062000618565b600062000251620003e460201b620010571760201c565b90505b90565b6001600160a01b038216620002b3576040805162461bcd60e51b815260206004820152601f60248201527f45524332303a206d696e7420746f20746865207a65726f206164647265737300604482015290519081900360640190fd5b620002ca600083836001600160e01b036200044316565b620002e6816002546200044860201b62000cfc1790919060201c565b6002556001600160a01b038216600090815260208181526040909120546200031991839062000cfc62000448821b17901c565b6001600160a01b0383166000818152602081815260408083209490945583518581529351929391927fddf252ad1be2c89b69c2b068fc378daa952ba7f163c4a11628f55a4df523b3ef9281900390910190a35050565b600554610100900460ff1615620003be576040805162461bcd60e51b815260206004820152600e60248201526d185b1c9958591e481a5b9a5d195960921b604482015290519081900360640190fd5b620003d2816001600160e01b03620004aa16565b506005805461ff001916610100179055565b6000333014156200043e5760606000368080601f0160208091040260200160405190810160405280939291908181526020018383808284376000920191909152505050503601516001600160a01b03169150620002549050565b503390565b505050565b600082820183811015620004a3576040805162461bcd60e51b815260206004820152601b60248201527f536166654d6174683a206164646974696f6e206f766572666c6f770000000000604482015290519081900360640190fd5b9392505050565b6040518060800160405280604f8152602001620019a4604f913980516020918201208251838301206040805180820190915260018152603160f81b930192909252907fc89efdaa54c0f20c7adf612882df0950f5a951637e0307cdcb4c672f298b8bc630620005216001600160e01b036200057216565b604080516020808201979097528082019590955260608501939093526001600160a01b03909116608084015260a0808401919091528151808403909101815260c09092019052805191012060065550565b4690565b828054600181600116156101000203166002900490600052602060002090601f016020900481019282601f10620005b957805160ff1916838001178555620005e9565b82800160010185558215620005e9579182015b82811115620005e9578251825591602001919060010190620005cc565b50620005f7929150620005fb565b5090565b6200025491905b80821115620005f7576000815560010162000602565b61137c80620006286000396000f3fe6080604052600436106100fe5760003560e01c8063313ce5671161009557806395d89b411161006457806395d89b4114610411578063a0712d6814610426578063a457c2d714610452578063a9059cbb1461048b578063dd62ed3e146104c4576100fe565b8063313ce567146103655780633408e4701461039057806339509351146103a557806370a08231146103de576100fe565b806318160ddd116100d157806318160ddd146102b357806320379ee5146102da57806323b872dd146102ef5780632d0335ab14610332576100fe565b806306fdde0314610103578063095ea7b31461018d5780630c53c51c146101da5780630f7e59701461029e575b600080fd5b34801561010f57600080fd5b506101186104ff565b6040805160208082528351818301528351919283929083019185019080838360005b8381101561015257818101518382015260200161013a565b50505050905090810190601f16801561017f5780820380516001836020036101000a031916815260200191505b509250505060405180910390f35b34801561019957600080fd5b506101c6600480360360408110156101b057600080fd5b506001600160a01b038135169060200135610595565b604080519115158252519081900360200190f35b610118600480360360a08110156101f057600080fd5b6001600160a01b03823516919081019060408101602082013564010000000081111561021b57600080fd5b82018360208201111561022d57600080fd5b8035906020019184600183028401116401000000008311171561024f57600080fd5b91908080601f016020809104026020016040519081016040528093929190818152602001838380828437600092019190915250929550508235935050506020810135906040013560ff166105b2565b3480156102aa57600080fd5b506101186108b5565b3480156102bf57600080fd5b506102c86108d2565b60408051918252519081900360200190f35b3480156102e657600080fd5b506102c86108d8565b3480156102fb57600080fd5b506101c66004803603606081101561031257600080fd5b506001600160a01b038135811691602081013590911690604001356108de565b34801561033e57600080fd5b506102c86004803603602081101561035557600080fd5b50356001600160a01b031661096b565b34801561037157600080fd5b5061037a610986565b6040805160ff9092168252519081900360200190f35b34801561039c57600080fd5b506102c861098f565b3480156103b157600080fd5b506101c6600480360360408110156103c857600080fd5b506001600160a01b038135169060200135610993565b3480156103ea57600080fd5b506102c86004803603602081101561040157600080fd5b50356001600160a01b03166109e7565b34801561041d57600080fd5b50610118610a02565b34801561043257600080fd5b506104506004803603602081101561044957600080fd5b5035610a63565b005b34801561045e57600080fd5b506101c66004803603604081101561047557600080fd5b506001600160a01b038135169060200135610a77565b34801561049757600080fd5b506101c6600480360360408110156104ae57600080fd5b506001600160a01b038135169060200135610ae5565b3480156104d057600080fd5b506102c8600480360360408110156104e757600080fd5b506001600160a01b0381358116916020013516610af9565b60038054604080516020601f600260001961010060018816150201909516949094049384018190048102820181019092528281526060939092909183018282801561058b5780601f106105605761010080835404028352916020019161058b565b820191906000526020600020905b81548152906001019060200180831161056e57829003601f168201915b5050505050905090565b60006105a96105a2610b24565b8484610b33565b50600192915050565b60606105bc611192565b50604080516060810182526001600160a01b038816600081815260076020908152908490205483528201529081018690526105fa8782878787610c1f565b6106355760405162461bcd60e51b81526004018080602001828103825260218152602001806112b86021913960400191505060405180910390fd5b6001600160a01b03871660009081526007602052604090205461065f90600163ffffffff610cfc16565b6001600160a01b03881660008181526007602090815260408083209490945583519283523383820181905260609484018581528b51958501959095528a517f5845892132946850460bff5a0083f71031bc5bf9aadcd40f1de79423eac9b10b958d9592948d94919260808501928601918190849084905b838110156106ee5781810151838201526020016106d6565b50505050905090810190601f16801561071b5780820380516001836020036101000a031916815260200191505b5094505050505060405180910390a160006060306001600160a01b0316888a6040516020018083805190602001908083835b6020831061076c5780518252601f19909201916020918201910161074d565b6001836020036101000a038019825116818451168082178552505050505050905001826001600160a01b03166001600160a01b031660601b8152601401925050506040516020818303038152906040526040518082805190602001908083835b602083106107eb5780518252601f1990920191602091820191016107cc565b6001836020036101000a0380198251168184511680821785525050505050509050019150506000604051808303816000865af19150503d806000811461084d576040519150601f19603f3d011682016040523d82523d6000602084013e610852565b606091505b5091509150816108a9576040805162461bcd60e51b815260206004820152601c60248201527f46756e6374696f6e2063616c6c206e6f74207375636365737366756c00000000604482015290519081900360640190fd5b98975050505050505050565b604051806040016040528060018152602001603160f81b81525081565b60025490565b60065490565b60006108eb848484610d5d565b610961846108f7610b24565b61095c85604051806060016040528060288152602001611290602891396001600160a01b038a16600090815260016020526040812090610935610b24565b6001600160a01b03168152602081019190915260400160002054919063ffffffff610ec416565b610b33565b5060019392505050565b6001600160a01b031660009081526007602052604090205490565b60055460ff1690565b4690565b60006105a96109a0610b24565b8461095c85600160006109b1610b24565b6001600160a01b03908116825260208083019390935260409182016000908120918c16815292529020549063ffffffff610cfc16565b6001600160a01b031660009081526020819052604090205490565b60048054604080516020601f600260001961010060018816150201909516949094049384018190048102820181019092528281526060939092909183018282801561058b5780601f106105605761010080835404028352916020019161058b565b610a74610a6e610b24565b82610f5b565b50565b60006105a9610a84610b24565b8461095c856040518060600160405280602581526020016113226025913960016000610aae610b24565b6001600160a01b03908116825260208083019390935260409182016000908120918d1681529252902054919063ffffffff610ec416565b60006105a9610af2610b24565b8484610d5d565b6001600160a01b03918216600090815260016020908152604080832093909416825291909152205490565b6000610b2e611057565b905090565b6001600160a01b038316610b785760405162461bcd60e51b81526004018080602001828103825260248152602001806112fe6024913960400191505060405180910390fd5b6001600160a01b038216610bbd5760405162461bcd60e51b81526004018080602001828103825260228152602001806112236022913960400191505060405180910390fd5b6001600160a01b03808416600081815260016020908152604080832094871680845294825291829020859055815185815291517f8c5be1e5ebec7d5bd14f71427d1e84f3dd0314c0f7b2291e5b200ac8c7c3b9259281900390910190a3505050565b60006001600160a01b038616610c665760405162461bcd60e51b815260040180806020018281038252602581526020018061126b6025913960400191505060405180910390fd5b6001610c79610c74876110b5565b611141565b83868660405160008152602001604052604051808581526020018460ff1660ff1681526020018381526020018281526020019450505050506020604051602081039080840390855afa158015610cd3573d6000803e3d6000fd5b505050602060405103516001600160a01b0316866001600160a01b031614905095945050505050565b600082820183811015610d56576040805162461bcd60e51b815260206004820152601b60248201527f536166654d6174683a206164646974696f6e206f766572666c6f770000000000604482015290519081900360640190fd5b9392505050565b6001600160a01b038316610da25760405162461bcd60e51b81526004018080602001828103825260258152602001806112d96025913960400191505060405180910390fd5b6001600160a01b038216610de75760405162461bcd60e51b81526004018080602001828103825260238152602001806111bd6023913960400191505060405180910390fd5b610df283838361118d565b610e3581604051806060016040528060268152602001611245602691396001600160a01b038616600090815260208190526040902054919063ffffffff610ec416565b6001600160a01b038085166000908152602081905260408082209390935590841681522054610e6a908263ffffffff610cfc16565b6001600160a01b038084166000818152602081815260409182902094909455805185815290519193928716927fddf252ad1be2c89b69c2b068fc378daa952ba7f163c4a11628f55a4df523b3ef92918290030190a3505050565b60008184841115610f535760405162461bcd60e51b81526004018080602001828103825283818151815260200191508051906020019080838360005b83811015610f18578181015183820152602001610f00565b50505050905090810190601f168015610f455780820380516001836020036101000a031916815260200191505b509250505060405180910390fd5b505050900390565b6001600160a01b038216610fb6576040805162461bcd60e51b815260206004820152601f60248201527f45524332303a206d696e7420746f20746865207a65726f206164647265737300604482015290519081900360640190fd5b610fc26000838361118d565b600254610fd5908263ffffffff610cfc16565b6002556001600160a01b038216600090815260208190526040902054611001908263ffffffff610cfc16565b6001600160a01b0383166000818152602081815260408083209490945583518581529351929391927fddf252ad1be2c89b69c2b068fc378daa952ba7f163c4a11628f55a4df523b3ef9281900390910190a35050565b6000333014156110af5760606000368080601f0160208091040260200160405190810160405280939291908181526020018383808284376000920191909152505050503601516001600160a01b031691506110b29050565b50335b90565b60006040518060800160405280604381526020016111e060439139805190602001208260000151836020015184604001518051906020012060405160200180858152602001848152602001836001600160a01b03166001600160a01b03168152602001828152602001945050505050604051602081830303815290604052805190602001209050919050565b600061114b6108d8565b82604051602001808061190160f01b81525060020183815260200182815260200192505050604051602081830303815290604052805190602001209050919050565b505050565b60405180606001604052806000815260200160006001600160a01b0316815260200160608152509056fe45524332303a207472616e7366657220746f20746865207a65726f20616464726573734d6574615472616e73616374696f6e2875696e74323536206e6f6e63652c616464726573732066726f6d2c62797465732066756e6374696f6e5369676e61747572652945524332303a20617070726f766520746f20746865207a65726f206164647265737345524332303a207472616e7366657220616d6f756e7420657863656564732062616c616e63654e61746976654d6574615472616e73616374696f6e3a20494e56414c49445f5349474e455245524332303a207472616e7366657220616d6f756e74206578636565647320616c6c6f77616e63655369676e657220616e64207369676e617475726520646f206e6f74206d6174636845524332303a207472616e736665722066726f6d20746865207a65726f206164647265737345524332303a20617070726f76652066726f6d20746865207a65726f206164647265737345524332303a2064656372656173656420616c6c6f77616e63652062656c6f77207a65726fa2646970667358221220b326d920936e31d716dc4a91170c6f4147d74db0d7fc0e134275fcd6ad77284564736f6c63430006060033454950373132446f6d61696e28737472696e67206e616d652c737472696e672076657273696f6e2c6164647265737320766572696679696e67436f6e74726163742c627974657333322073616c7429",
  "immutableReferences": {},
  "source": "// This contract is not supposed to be used in production\n// It's strictly for testing purpose\n\npragma solidity 0.6.6;\n\nimport {ERC20} from \"@openzeppelin/contracts/token/ERC20/ERC20.sol\";\nimport {NativeMetaTransaction} from \"../../common/NativeMetaTransaction.sol\";\nimport {ContextMixin} from \"../../common/ContextMixin.sol\";\n\ncontract DummyERC20 is\n    ERC20,\n    NativeMetaTransaction,\n    ContextMixin\n{\n    constructor(string memory name_, string memory symbol_)\n        public\n        ERC20(name_, symbol_)\n    {\n        uint256 amount = 10**10 * (10**18);\n        _mint(_msgSender(), amount);\n        _initializeEIP712(name_);\n    }\n\n    function mint(uint256 amount) public {\n        _mint(_msgSender(), amount);\n    }\n\n    function _msgSender()\n        internal\n        override\n        view\n        returns (address payable sender)\n    {\n        return ContextMixin.msgSender();\n    }\n}\n",
  "sourcePath": "/Users/ohm.jirapon/playground/blockhain/layer-2/plasma-ploygon/matic-cli/devnet/code/pos-portal/contracts/root/RootToken/DummyERC20.sol",
  "compiler": {
    "name": "solc",
    "version": "0.6.6+commit.6c089d02.Linux.g++"
  },
  "schemaVersion": "3.4.9",
  "updatedAt": "2022-08-22T08:24:35.596Z",
  "networkType": "ethereum",
  "devdoc": {
    "methods": {
      "allowance(address,address)": {
        "details": "See {IERC20-allowance}."
      },
      "approve(address,uint256)": {
        "details": "See {IERC20-approve}.     * Requirements:     * - `spender` cannot be the zero address."
      },
      "balanceOf(address)": {
        "details": "See {IERC20-balanceOf}."
      },
      "decimals()": {
        "details": "Returns the number of decimals used to get its user representation. For example, if `decimals` equals `2`, a balance of `505` tokens should be displayed to a user as `5,05` (`505 / 10 ** 2`).     * Tokens usually opt for a value of 18, imitating the relationship between Ether and Wei. This is the value {ERC20} uses, unless {_setupDecimals} is called.     * NOTE: This information is only used for _display_ purposes: it in no way affects any of the arithmetic of the contract, including {IERC20-balanceOf} and {IERC20-transfer}."
      },
      "decreaseAllowance(address,uint256)": {
        "details": "Atomically decreases the allowance granted to `spender` by the caller.     * This is an alternative to {approve} that can be used as a mitigation for problems described in {IERC20-approve}.     * Emits an {Approval} event indicating the updated allowance.     * Requirements:     * - `spender` cannot be the zero address. - `spender` must have allowance for the caller of at least `subtractedValue`."
      },
      "increaseAllowance(address,uint256)": {
        "details": "Atomically increases the allowance granted to `spender` by the caller.     * This is an alternative to {approve} that can be used as a mitigation for problems described in {IERC20-approve}.     * Emits an {Approval} event indicating the updated allowance.     * Requirements:     * - `spender` cannot be the zero address."
      },
      "name()": {
        "details": "Returns the name of the token."
      },
      "symbol()": {
        "details": "Returns the symbol of the token, usually a shorter version of the name."
      },
      "totalSupply()": {
        "details": "See {IERC20-totalSupply}."
      },
      "transfer(address,uint256)": {
        "details": "See {IERC20-transfer}.     * Requirements:     * - `recipient` cannot be the zero address. - the caller must have a balance of at least `amount`."
      },
      "transferFrom(address,address,uint256)": {
        "details": "See {IERC20-transferFrom}.     * Emits an {Approval} event indicating the updated allowance. This is not required by the EIP. See the note at the beginning of {ERC20};     * Requirements: - `sender` and `recipient` cannot be the zero address. - `sender` must have a balance of at least `amount`. - the caller must have allowance for ``sender``'s tokens of at least `amount`."
      }
    }
  },
  "userdoc": {
    "methods": {}
  }
}