{
  "contractName": "DummyStateSender",
  "abi": [
    {
      "anonymous": false,
      "inputs": [
        {
          "indexed": true,
          "internalType": "uint256",
          "name": "id",
          "type": "uint256"
        },
        {
          "indexed": true,
          "internalType": "address",
          "name": "contractAddress",
          "type": "address"
        },
        {
          "indexed": false,
          "internalType": "bytes",
          "name": "data",
          "type": "bytes"
        }
      ],
      "name": "StateSynced",
      "type": "event"
    },
    {
      "inputs": [
        {
          "internalType": "address",
          "name": "receiver",
          "type": "address"
        },
        {
          "internalType": "bytes",
          "name": "data",
          "type": "bytes"
        }
      ],
      "name": "syncState",
      "outputs": [],
      "stateMutability": "nonpayable",
      "type": "function"
    }
  ],
  "bytecode": "0x608060405234801561001057600080fd5b50610159806100206000396000f3fe608060405234801561001057600080fd5b506004361061002b5760003560e01c806316f1983114610030575b600080fd5b6100b06004803603604081101561004657600080fd5b6001600160a01b03823516919081019060408101602082013564010000000081111561007157600080fd5b82018360208201111561008357600080fd5b803590602001918460018302840111640100000000831117156100a557600080fd5b5090925090506100b2565b005b826001600160a01b031660017f103fed9db65eac19c4d870f49ab7520fe03b99f1838e5996caf47e9e43308392848460405180806020018281038252848482818152602001925080828437600083820152604051601f909101601f19169092018290039550909350505050a350505056fea2646970667358221220d008a53d46c61b0590dc9187b87f4039483eb79287c81e5817861eff9d9d6bd564736f6c63430006060033",
  "immutableReferences": {},
  "source": "pragma solidity 0.6.6;\n\nimport {IStateSender} from \"../StateSender/IStateSender.sol\";\n\n/**\n* @notice Dummy State Sender contract to simulate plasma state sender while testing\n*/\ncontract DummyStateSender is IStateSender {\n    /**\n     * @notice Event emitted when when syncState is called\n     * @dev Heimdall bridge listens to this event and sends the data to receiver contract on child chain\n     * @param id Id of the sync, increamented for each event in case of actual state sender contract\n     * @param contractAddress the contract receiving data on child chain\n     * @param data bytes data to be sent\n     */\n    event StateSynced(\n        uint256 indexed id,\n        address indexed contractAddress,\n        bytes data\n    );\n\n    /**\n     * @notice called to send data to child chain\n     * @dev sender and receiver contracts need to be registered in case of actual state sender contract\n     * @param receiver the contract receiving data on child chain\n     * @param data bytes data to be sent\n     */\n    function syncState(address receiver, bytes calldata data) external override {\n        emit StateSynced(1, receiver, data);\n    }\n}\n",
  "sourcePath": "/Users/ohm.jirapon/internal/layer-2/layer2-plasma-cli/devnet/code/pos-portal/contracts/root/StateSender/DummyStateSender.sol",
  "compiler": {
    "name": "solc",
    "version": "0.6.6+commit.6c089d02.Linux.g++"
  },
  "schemaVersion": "3.2.1",
  "updatedAt": "2022-09-15T05:29:24.163Z",
  "networkType": "ethereum",
  "devdoc": {
    "methods": {
      "syncState(address,bytes)": {
        "details": "sender and receiver contracts need to be registered in case of actual state sender contract",
        "params": {
          "data": "bytes data to be sent",
          "receiver": "the contract receiving data on child chain"
        }
      }
    }
  },
  "userdoc": {
    "methods": {
      "syncState(address,bytes)": {
        "notice": "called to send data to child chain"
      }
    },
    "notice": "Dummy State Sender contract to simulate plasma state sender while testing"
  }
}