{
  "contractName": "DummyMintableERC721",
  "abi": [
    {
      "inputs": [
        {
          "internalType": "string",
          "name": "name_",
          "type": "string"
        },
        {
          "internalType": "string",
          "name": "symbol_",
          "type": "string"
        }
      ],
      "stateMutability": "nonpayable",
      "type": "constructor"
    },
    {
      "anonymous": false,
      "inputs": [
        {
          "indexed": true,
          "internalType": "address",
          "name": "owner",
          "type": "address"
        },
        {
          "indexed": true,
          "internalType": "address",
          "name": "approved",
          "type": "address"
        },
        {
          "indexed": true,
          "internalType": "uint256",
          "name": "tokenId",
          "type": "uint256"
        }
      ],
      "name": "Approval",
      "type": "event"
    },
    {
      "anonymous": false,
      "inputs": [
        {
          "indexed": true,
          "internalType": "address",
          "name": "owner",
          "type": "address"
        },
        {
          "indexed": true,
          "internalType": "address",
          "name": "operator",
          "type": "address"
        },
        {
          "indexed": false,
          "internalType": "bool",
          "name": "approved",
          "type": "bool"
        }
      ],
      "name": "ApprovalForAll",
      "type": "event"
    },
    {
      "anonymous": false,
      "inputs": [
        {
          "indexed": false,
          "internalType": "address",
          "name": "userAddress",
          "type": "address"
        },
        {
          "indexed": false,
          "internalType": "address payable",
          "name": "relayerAddress",
          "type": "address"
        },
        {
          "indexed": false,
          "internalType": "bytes",
          "name": "functionSignature",
          "type": "bytes"
        }
      ],
      "name": "MetaTransactionExecuted",
      "type": "event"
    },
    {
      "anonymous": false,
      "inputs": [
        {
          "indexed": true,
          "internalType": "bytes32",
          "name": "role",
          "type": "bytes32"
        },
        {
          "indexed": true,
          "internalType": "bytes32",
          "name": "previousAdminRole",
          "type": "bytes32"
        },
        {
          "indexed": true,
          "internalType": "bytes32",
          "name": "newAdminRole",
          "type": "bytes32"
        }
      ],
      "name": "RoleAdminChanged",
      "type": "event"
    },
    {
      "anonymous": false,
      "inputs": [
        {
          "indexed": true,
          "internalType": "bytes32",
          "name": "role",
          "type": "bytes32"
        },
        {
          "indexed": true,
          "internalType": "address",
          "name": "account",
          "type": "address"
        },
        {
          "indexed": true,
          "internalType": "address",
          "name": "sender",
          "type": "address"
        }
      ],
      "name": "RoleGranted",
      "type": "event"
    },
    {
      "anonymous": false,
      "inputs": [
        {
          "indexed": true,
          "internalType": "bytes32",
          "name": "role",
          "type": "bytes32"
        },
        {
          "indexed": true,
          "internalType": "address",
          "name": "account",
          "type": "address"
        },
        {
          "indexed": true,
          "internalType": "address",
          "name": "sender",
          "type": "address"
        }
      ],
      "name": "RoleRevoked",
      "type": "event"
    },
    {
      "anonymous": false,
      "inputs": [
        {
          "indexed": true,
          "internalType": "address",
          "name": "from",
          "type": "address"
        },
        {
          "indexed": true,
          "internalType": "address",
          "name": "to",
          "type": "address"
        },
        {
          "indexed": true,
          "internalType": "uint256",
          "name": "tokenId",
          "type": "uint256"
        }
      ],
      "name": "Transfer",
      "type": "event"
    },
    {
      "inputs": [],
      "name": "DEFAULT_ADMIN_ROLE",
      "outputs": [
        {
          "internalType": "bytes32",
          "name": "",
          "type": "bytes32"
        }
      ],
      "stateMutability": "view",
      "type": "function",
      "constant": true
    },
    {
      "inputs": [],
      "name": "ERC712_VERSION",
      "outputs": [
        {
          "internalType": "string",
          "name": "",
          "type": "string"
        }
      ],
      "stateMutability": "view",
      "type": "function",
      "constant": true
    },
    {
      "inputs": [],
      "name": "PREDICATE_ROLE",
      "outputs": [
        {
          "internalType": "bytes32",
          "name": "",
          "type": "bytes32"
        }
      ],
      "stateMutability": "view",
      "type": "function",
      "constant": true
    },
    {
      "inputs": [
        {
          "internalType": "address",
          "name": "to",
          "type": "address"
        },
        {
          "internalType": "uint256",
          "name": "tokenId",
          "type": "uint256"
        }
      ],
      "name": "approve",
      "outputs": [],
      "stateMutability": "nonpayable",
      "type": "function"
    },
    {
      "inputs": [
        {
          "internalType": "address",
          "name": "owner",
          "type": "address"
        }
      ],
      "name": "balanceOf",
      "outputs": [
        {
          "internalType": "uint256",
          "name": "",
          "type": "uint256"
        }
      ],
      "stateMutability": "view",
      "type": "function",
      "constant": true
    },
    {
      "inputs": [],
      "name": "baseURI",
      "outputs": [
        {
          "internalType": "string",
          "name": "",
          "type": "string"
        }
      ],
      "stateMutability": "view",
      "type": "function",
      "constant": true
    },
    {
      "inputs": [
        {
          "internalType": "address",
          "name": "userAddress",
          "type": "address"
        },
        {
          "internalType": "bytes",
          "name": "functionSignature",
          "type": "bytes"
        },
        {
          "internalType": "bytes32",
          "name": "sigR",
          "type": "bytes32"
        },
        {
          "internalType": "bytes32",
          "name": "sigS",
          "type": "bytes32"
        },
        {
          "internalType": "uint8",
          "name": "sigV",
          "type": "uint8"
        }
      ],
      "name": "executeMetaTransaction",
      "outputs": [
        {
          "internalType": "bytes",
          "name": "",
          "type": "bytes"
        }
      ],
      "stateMutability": "payable",
      "type": "function",
      "payable": true
    },
    {
      "inputs": [
        {
          "internalType": "uint256",
          "name": "tokenId",
          "type": "uint256"
        }
      ],
      "name": "getApproved",
      "outputs": [
        {
          "internalType": "address",
          "name": "",
          "type": "address"
        }
      ],
      "stateMutability": "view",
      "type": "function",
      "constant": true
    },
    {
      "inputs": [],
      "name": "getChainId",
      "outputs": [
        {
          "internalType": "uint256",
          "name": "",
          "type": "uint256"
        }
      ],
      "stateMutability": "pure",
      "type": "function",
      "constant": true
    },
    {
      "inputs": [],
      "name": "getDomainSeperator",
      "outputs": [
        {
          "internalType": "bytes32",
          "name": "",
          "type": "bytes32"
        }
      ],
      "stateMutability": "view",
      "type": "function",
      "constant": true
    },
    {
      "inputs": [
        {
          "internalType": "address",
          "name": "user",
          "type": "address"
        }
      ],
      "name": "getNonce",
      "outputs": [
        {
          "internalType": "uint256",
          "name": "nonce",
          "type": "uint256"
        }
      ],
      "stateMutability": "view",
      "type": "function",
      "constant": true
    },
    {
      "inputs": [
        {
          "internalType": "bytes32",
          "name": "role",
          "type": "bytes32"
        }
      ],
      "name": "getRoleAdmin",
      "outputs": [
        {
          "internalType": "bytes32",
          "name": "",
          "type": "bytes32"
        }
      ],
      "stateMutability": "view",
      "type": "function",
      "constant": true
    },
    {
      "inputs": [
        {
          "internalType": "bytes32",
          "name": "role",
          "type": "bytes32"
        },
        {
          "internalType": "uint256",
          "name": "index",
          "type": "uint256"
        }
      ],
      "name": "getRoleMember",
      "outputs": [
        {
          "internalType": "address",
          "name": "",
          "type": "address"
        }
      ],
      "stateMutability": "view",
      "type": "function",
      "constant": true
    },
    {
      "inputs": [
        {
          "internalType": "bytes32",
          "name": "role",
          "type": "bytes32"
        }
      ],
      "name": "getRoleMemberCount",
      "outputs": [
        {
          "internalType": "uint256",
          "name": "",
          "type": "uint256"
        }
      ],
      "stateMutability": "view",
      "type": "function",
      "constant": true
    },
    {
      "inputs": [
        {
          "internalType": "bytes32",
          "name": "role",
          "type": "bytes32"
        },
        {
          "internalType": "address",
          "name": "account",
          "type": "address"
        }
      ],
      "name": "grantRole",
      "outputs": [],
      "stateMutability": "nonpayable",
      "type": "function"
    },
    {
      "inputs": [
        {
          "internalType": "bytes32",
          "name": "role",
          "type": "bytes32"
        },
        {
          "internalType": "address",
          "name": "account",
          "type": "address"
        }
      ],
      "name": "hasRole",
      "outputs": [
        {
          "internalType": "bool",
          "name": "",
          "type": "bool"
        }
      ],
      "stateMutability": "view",
      "type": "function",
      "constant": true
    },
    {
      "inputs": [
        {
          "internalType": "address",
          "name": "owner",
          "type": "address"
        },
        {
          "internalType": "address",
          "name": "operator",
          "type": "address"
        }
      ],
      "name": "isApprovedForAll",
      "outputs": [
        {
          "internalType": "bool",
          "name": "",
          "type": "bool"
        }
      ],
      "stateMutability": "view",
      "type": "function",
      "constant": true
    },
    {
      "inputs": [],
      "name": "name",
      "outputs": [
        {
          "internalType": "string",
          "name": "",
          "type": "string"
        }
      ],
      "stateMutability": "view",
      "type": "function",
      "constant": true
    },
    {
      "inputs": [
        {
          "internalType": "uint256",
          "name": "tokenId",
          "type": "uint256"
        }
      ],
      "name": "ownerOf",
      "outputs": [
        {
          "internalType": "address",
          "name": "",
          "type": "address"
        }
      ],
      "stateMutability": "view",
      "type": "function",
      "constant": true
    },
    {
      "inputs": [
        {
          "internalType": "bytes32",
          "name": "role",
          "type": "bytes32"
        },
        {
          "internalType": "address",
          "name": "account",
          "type": "address"
        }
      ],
      "name": "renounceRole",
      "outputs": [],
      "stateMutability": "nonpayable",
      "type": "function"
    },
    {
      "inputs": [
        {
          "internalType": "bytes32",
          "name": "role",
          "type": "bytes32"
        },
        {
          "internalType": "address",
          "name": "account",
          "type": "address"
        }
      ],
      "name": "revokeRole",
      "outputs": [],
      "stateMutability": "nonpayable",
      "type": "function"
    },
    {
      "inputs": [
        {
          "internalType": "address",
          "name": "from",
          "type": "address"
        },
        {
          "internalType": "address",
          "name": "to",
          "type": "address"
        },
        {
          "internalType": "uint256",
          "name": "tokenId",
          "type": "uint256"
        }
      ],
      "name": "safeTransferFrom",
      "outputs": [],
      "stateMutability": "nonpayable",
      "type": "function"
    },
    {
      "inputs": [
        {
          "internalType": "address",
          "name": "from",
          "type": "address"
        },
        {
          "internalType": "address",
          "name": "to",
          "type": "address"
        },
        {
          "internalType": "uint256",
          "name": "tokenId",
          "type": "uint256"
        },
        {
          "internalType": "bytes",
          "name": "_data",
          "type": "bytes"
        }
      ],
      "name": "safeTransferFrom",
      "outputs": [],
      "stateMutability": "nonpayable",
      "type": "function"
    },
    {
      "inputs": [
        {
          "internalType": "address",
          "name": "operator",
          "type": "address"
        },
        {
          "internalType": "bool",
          "name": "approved",
          "type": "bool"
        }
      ],
      "name": "setApprovalForAll",
      "outputs": [],
      "stateMutability": "nonpayable",
      "type": "function"
    },
    {
      "inputs": [
        {
          "internalType": "bytes4",
          "name": "interfaceId",
          "type": "bytes4"
        }
      ],
      "name": "supportsInterface",
      "outputs": [
        {
          "internalType": "bool",
          "name": "",
          "type": "bool"
        }
      ],
      "stateMutability": "view",
      "type": "function",
      "constant": true
    },
    {
      "inputs": [],
      "name": "symbol",
      "outputs": [
        {
          "internalType": "string",
          "name": "",
          "type": "string"
        }
      ],
      "stateMutability": "view",
      "type": "function",
      "constant": true
    },
    {
      "inputs": [
        {
          "internalType": "uint256",
          "name": "index",
          "type": "uint256"
        }
      ],
      "name": "tokenByIndex",
      "outputs": [
        {
          "internalType": "uint256",
          "name": "",
          "type": "uint256"
        }
      ],
      "stateMutability": "view",
      "type": "function",
      "constant": true
    },
    {
      "inputs": [
        {
          "internalType": "address",
          "name": "owner",
          "type": "address"
        },
        {
          "internalType": "uint256",
          "name": "index",
          "type": "uint256"
        }
      ],
      "name": "tokenOfOwnerByIndex",
      "outputs": [
        {
          "internalType": "uint256",
          "name": "",
          "type": "uint256"
        }
      ],
      "stateMutability": "view",
      "type": "function",
      "constant": true
    },
    {
      "inputs": [
        {
          "internalType": "uint256",
          "name": "tokenId",
          "type": "uint256"
        }
      ],
      "name": "tokenURI",
      "outputs": [
        {
          "internalType": "string",
          "name": "",
          "type": "string"
        }
      ],
      "stateMutability": "view",
      "type": "function",
      "constant": true
    },
    {
      "inputs": [],
      "name": "totalSupply",
      "outputs": [
        {
          "internalType": "uint256",
          "name": "",
          "type": "uint256"
        }
      ],
      "stateMutability": "view",
      "type": "function",
      "constant": true
    },
    {
      "inputs": [
        {
          "internalType": "address",
          "name": "from",
          "type": "address"
        },
        {
          "internalType": "address",
          "name": "to",
          "type": "address"
        },
        {
          "internalType": "uint256",
          "name": "tokenId",
          "type": "uint256"
        }
      ],
      "name": "transferFrom",
      "outputs": [],
      "stateMutability": "nonpayable",
      "type": "function"
    },
    {
      "inputs": [
        {
          "internalType": "address",
          "name": "user",
          "type": "address"
        },
        {
          "internalType": "uint256",
          "name": "tokenId",
          "type": "uint256"
        }
      ],
      "name": "mint",
      "outputs": [],
      "stateMutability": "nonpayable",
      "type": "function"
    },
    {
      "inputs": [
        {
          "internalType": "address",
          "name": "user",
          "type": "address"
        },
        {
          "internalType": "uint256",
          "name": "tokenId",
          "type": "uint256"
        },
        {
          "internalType": "bytes",
          "name": "metaData",
          "type": "bytes"
        }
      ],
      "name": "mint",
      "outputs": [],
      "stateMutability": "nonpayable",
      "type": "function"
    },
    {
      "inputs": [
        {
          "internalType": "uint256",
          "name": "tokenId",
          "type": "uint256"
        }
      ],
      "name": "exists",
      "outputs": [
        {
          "internalType": "bool",
          "name": "",
          "type": "bool"
        }
      ],
      "stateMutability": "view",
      "type": "function",
      "constant": true
    }
  ],
  "bytecode": "0x6080604052600c805460ff191690553480156200001b57600080fd5b506040516200368838038062003688833981810160405260408110156200004157600080fd5b81019080805160405193929190846401000000008211156200006257600080fd5b9083019060208201858111156200007857600080fd5b82516401000000008111828201881017156200009357600080fd5b82525081516020918201929091019080838360005b83811015620000c2578181015183820152602001620000a8565b50505050905090810190601f168015620000f05780820380516001836020036101000a031916815260200191505b50604052602001805160405193929190846401000000008211156200011457600080fd5b9083019060208201858111156200012a57600080fd5b82516401000000008111828201881017156200014557600080fd5b82525081516020918201929091019080838360005b83811015620001745781810151838201526020016200015a565b50505050905090810190601f168015620001a25780820380516001836020036101000a031916815260200191505b5060405250839150829050620001c86301ffc9a760e01b6001600160e01b036200030e16565b8151620001dd90600690602085019062000721565b508051620001f390600790602084019062000721565b506200020f6380ac58cd60e01b6001600160e01b036200030e16565b6200022a635b5e139f60e01b6001600160e01b036200030e16565b6200024563780e9d6360e01b6001600160e01b036200030e16565b505060408051808201909152601381527f44756d6d794d696e7461626c654552433732310000000000000000000000000060208201526200028f906001600160e01b036200039316565b620002b76000620002a86001600160e01b036200043916565b6001600160e01b036200045616565b604080516d5052454449434154455f524f4c4560901b8152905190819003600e019020620002f290620002a86001600160e01b036200043916565b62000306826001600160e01b036200046b16565b5050620007c3565b6001600160e01b031980821614156200036e576040805162461bcd60e51b815260206004820152601c60248201527f4552433136353a20696e76616c696420696e7465726661636520696400000000604482015290519081900360640190fd5b6001600160e01b0319166000908152602081905260409020805460ff19166001179055565b806040516020018082805190602001908083835b60208310620003c85780518252601f199092019160209182019101620003a7565b51815160209384036101000a60001901801990921691161790527f3a20494e53554646494349454e545f5045524d495353494f4e530000000000009190930190815260408051808303600519018152601a90920190528051620004359550600b9450920191905062000721565b5050565b600062000450620004d960201b620021781760201c565b90505b90565b6200043582826001600160e01b036200053816565b600c5460ff1615620004b5576040805162461bcd60e51b815260206004820152600e60248201526d185b1c9958591e481a5b9a5d195960921b604482015290519081900360640190fd5b620004c9816001600160e01b03620005bc16565b50600c805460ff19166001179055565b600033301415620005335760606000368080601f0160208091040260200160405190810160405280939291908181526020018383808284376000920191909152505050503601516001600160a01b03169150620004539050565b503390565b6000828152600a602090815260409091206200055f918390620022df62000684821b17901c565b156200043557620005786001600160e01b036200043916565b6001600160a01b0316816001600160a01b0316837f2f8788117e7eff1d82e926ec794901d17c78024a50270940304540a733656f0d60405160405180910390a45050565b6040518060800160405280604f815260200162003639604f913980516020918201208251838301206040805180820190915260018152603160f81b930192909252907fc89efdaa54c0f20c7adf612882df0950f5a951637e0307cdcb4c672f298b8bc630620006336001600160e01b03620006ad16565b604080516020808201979097528082019590955260608501939093526001600160a01b03909116608084015260a0808401919091528151808403909101815260c090920190528051910120600d5550565b6000620006a4836001600160a01b0384166001600160e01b03620006b116565b90505b92915050565b4690565b6000620006c883836001600160e01b036200070916565b6200070057508154600181810184556000848152602080822090930184905584548482528286019093526040902091909155620006a7565b506000620006a7565b60009081526001919091016020526040902054151590565b828054600181600116156101000203166002900490600052602060002090601f016020900481019282601f106200076457805160ff191683800117855562000794565b8280016001018555821562000794579182015b828111156200079457825182559160200191906001019062000777565b50620007a2929150620007a6565b5090565b6200045391905b80821115620007a25760008155600101620007ad565b612e6680620007d36000396000f3fe6080604052600436106101f95760003560e01c80634f558e791161010d57806395d89b41116100a0578063c87b56dd1161006f578063c87b56dd14610935578063ca15c8731461095f578063d547741f14610989578063e72db5fd146109c2578063e985e9c5146109d7576101f9565b806395d89b41146107ff578063a217fddf14610814578063a22cb46514610829578063b88d4fde14610864576101f9565b806370a08231116100dc57806370a08231146106d35780639010d07c1461070657806391d148541461073657806394d008ef1461076f576101f9565b80634f558e79146106405780634f6ccce71461066a5780636352211e146106945780636c0360eb146106be576101f9565b806323b872dd116101905780632f745c591161015f5780632f745c591461053d5780633408e4701461057657806336568abe1461058b57806340c10f19146105c457806342842e0e146105fd576101f9565b806323b872dd14610464578063248a9ca3146104a75780632d0335ab146104d15780632f2ff15d14610504576101f9565b80630c53c51c116101cc5780630c53c51c146103515780630f7e59701461041357806318160ddd1461042857806320379ee51461044f576101f9565b806301ffc9a7146101fe57806306fdde0314610246578063081812fc146102d0578063095ea7b314610316575b600080fd5b34801561020a57600080fd5b506102326004803603602081101561022157600080fd5b50356001600160e01b031916610a12565b604080519115158252519081900360200190f35b34801561025257600080fd5b5061025b610a35565b6040805160208082528351818301528351919283929083019185019080838360005b8381101561029557818101518382015260200161027d565b50505050905090810190601f1680156102c25780820380516001836020036101000a031916815260200191505b509250505060405180910390f35b3480156102dc57600080fd5b506102fa600480360360208110156102f357600080fd5b5035610acc565b604080516001600160a01b039092168252519081900360200190f35b34801561032257600080fd5b5061034f6004803603604081101561033957600080fd5b506001600160a01b038135169060200135610b2e565b005b61025b600480360360a081101561036757600080fd5b6001600160a01b038235169190810190604081016020820135600160201b81111561039157600080fd5b8201836020820111156103a357600080fd5b803590602001918460018302840111600160201b831117156103c457600080fd5b91908080601f016020809104026020016040519081016040528093929190818152602001838380828437600092019190915250929550508235935050506020810135906040013560ff16610c09565b34801561041f57600080fd5b5061025b610f0c565b34801561043457600080fd5b5061043d610f29565b60408051918252519081900360200190f35b34801561045b57600080fd5b5061043d610f3a565b34801561047057600080fd5b5061034f6004803603606081101561048757600080fd5b506001600160a01b03813581169160208101359091169060400135610f40565b3480156104b357600080fd5b5061043d600480360360208110156104ca57600080fd5b5035610f97565b3480156104dd57600080fd5b5061043d600480360360208110156104f457600080fd5b50356001600160a01b0316610fac565b34801561051057600080fd5b5061034f6004803603604081101561052757600080fd5b50803590602001356001600160a01b0316610fc7565b34801561054957600080fd5b5061043d6004803603604081101561056057600080fd5b506001600160a01b038135169060200135611033565b34801561058257600080fd5b5061043d611064565b34801561059757600080fd5b5061034f600480360360408110156105ae57600080fd5b50803590602001356001600160a01b0316611068565b3480156105d057600080fd5b5061034f600480360360408110156105e757600080fd5b506001600160a01b0381351690602001356110c9565b34801561060957600080fd5b5061034f6004803603606081101561062057600080fd5b506001600160a01b038135811691602081013590911690604001356111a3565b34801561064c57600080fd5b506102326004803603602081101561066357600080fd5b50356111be565b34801561067657600080fd5b5061043d6004803603602081101561068d57600080fd5b50356111c9565b3480156106a057600080fd5b506102fa600480360360208110156106b757600080fd5b50356111e5565b3480156106ca57600080fd5b5061025b611213565b3480156106df57600080fd5b5061043d600480360360208110156106f657600080fd5b50356001600160a01b0316611274565b34801561071257600080fd5b506102fa6004803603604081101561072957600080fd5b50803590602001356112dc565b34801561074257600080fd5b506102326004803603604081101561075957600080fd5b50803590602001356001600160a01b03166112fa565b34801561077b57600080fd5b5061034f6004803603606081101561079257600080fd5b6001600160a01b0382351691602081013591810190606081016040820135600160201b8111156107c157600080fd5b8201836020820111156107d357600080fd5b803590602001918460018302840111600160201b831117156107f457600080fd5b509092509050611318565b34801561080b57600080fd5b5061025b6113ff565b34801561082057600080fd5b5061043d611460565b34801561083557600080fd5b5061034f6004803603604081101561084c57600080fd5b506001600160a01b0381351690602001351515611465565b34801561087057600080fd5b5061034f6004803603608081101561088757600080fd5b6001600160a01b03823581169260208101359091169160408201359190810190608081016060820135600160201b8111156108c157600080fd5b8201836020820111156108d357600080fd5b803590602001918460018302840111600160201b831117156108f457600080fd5b91908080601f01602080910402602001604051908101604052809392919081815260200183838082843760009201919091525092955061156a945050505050565b34801561094157600080fd5b5061025b6004803603602081101561095857600080fd5b50356115c8565b34801561096b57600080fd5b5061043d6004803603602081101561098257600080fd5b503561186f565b34801561099557600080fd5b5061034f600480360360408110156109ac57600080fd5b50803590602001356001600160a01b0316611886565b3480156109ce57600080fd5b5061043d6118df565b3480156109e357600080fd5b50610232600480360360408110156109fa57600080fd5b506001600160a01b0381358116916020013516611905565b6001600160e01b0319811660009081526020819052604090205460ff165b919050565b60068054604080516020601f6002600019610100600188161502019095169490940493840181900481028201810190925282815260609390929091830182828015610ac15780601f10610a9657610100808354040283529160200191610ac1565b820191906000526020600020905b815481529060010190602001808311610aa457829003601f168201915b505050505090505b90565b6000610ad782611933565b610b125760405162461bcd60e51b815260040180806020018281038252602c815260200180612cdf602c913960400191505060405180910390fd5b506000908152600460205260409020546001600160a01b031690565b6000610b39826111e5565b9050806001600160a01b0316836001600160a01b03161415610b8c5760405162461bcd60e51b8152600401808060200182810382526021815260200180612db06021913960400191505060405180910390fd5b806001600160a01b0316610b9e611946565b6001600160a01b03161480610bbf5750610bbf81610bba611946565b611905565b610bfa5760405162461bcd60e51b8152600401808060200182810382526038815260200180612c326038913960400191505060405180910390fd5b610c048383611950565b505050565b6060610c13612a04565b50604080516060810182526001600160a01b0388166000818152600e602090815290849020548352820152908101869052610c5187828787876119be565b610c8c5760405162461bcd60e51b8152600401808060200182810382526021815260200180612d606021913960400191505060405180910390fd5b6001600160a01b0387166000908152600e6020526040902054610cb690600163ffffffff611a9b16565b6001600160a01b0388166000818152600e602090815260408083209490945583519283523383820181905260609484018581528b51958501959095528a517f5845892132946850460bff5a0083f71031bc5bf9aadcd40f1de79423eac9b10b958d9592948d94919260808501928601918190849084905b83811015610d45578181015183820152602001610d2d565b50505050905090810190601f168015610d725780820380516001836020036101000a031916815260200191505b5094505050505060405180910390a160006060306001600160a01b0316888a6040516020018083805190602001908083835b60208310610dc35780518252601f199092019160209182019101610da4565b6001836020036101000a038019825116818451168082178552505050505050905001826001600160a01b03166001600160a01b031660601b8152601401925050506040516020818303038152906040526040518082805190602001908083835b60208310610e425780518252601f199092019160209182019101610e23565b6001836020036101000a0380198251168184511680821785525050505050509050019150506000604051808303816000865af19150503d8060008114610ea4576040519150601f19603f3d011682016040523d82523d6000602084013e610ea9565b606091505b509150915081610f00576040805162461bcd60e51b815260206004820152601c60248201527f46756e6374696f6e2063616c6c206e6f74207375636365737366756c00000000604482015290519081900360640190fd5b98975050505050505050565b604051806040016040528060018152602001603160f81b81525081565b6000610f356002611af5565b905090565b600d5490565b610f51610f4b611946565b82611b00565b610f8c5760405162461bcd60e51b8152600401808060200182810382526031815260200180612dd16031913960400191505060405180910390fd5b610c04838383611ba4565b6000908152600a602052604090206002015490565b6001600160a01b03166000908152600e602052604090205490565b6000828152600a6020526040902060020154610fea90610fe5611946565b6112fa565b6110255760405162461bcd60e51b815260040180806020018281038252602f815260200180612ae9602f913960400191505060405180910390fd5b61102f8282611d02565b5050565b6001600160a01b038216600090815260016020526040812061105b908363ffffffff611d7116565b90505b92915050565b4690565b611070611946565b6001600160a01b0316816001600160a01b0316146110bf5760405162461bcd60e51b815260040180806020018281038252602f815260200180612e02602f913960400191505060405180910390fd5b61102f8282611d7d565b604080516d5052454449434154455f524f4c4560901b8152905190819003600e0190206110f881610fe5611946565b600b906111985760405162461bcd60e51b81526020600482019081528254600260001961010060018416150201909116046024830181905290918291604490910190849080156111895780601f1061115e57610100808354040283529160200191611189565b820191906000526020600020905b81548152906001019060200180831161116c57829003601f168201915b50509250505060405180910390fd5b50610c048383611dec565b610c048383836040518060200160405280600081525061156a565b600061105e82611933565b6000806111dd60028463ffffffff611f2616565b509392505050565b600061105e82604051806060016040528060298152602001612c94602991396002919063ffffffff611f4216565b60098054604080516020601f6002600019610100600188161502019095169490940493840181900481028201810190925282815260609390929091830182828015610ac15780601f10610a9657610100808354040283529160200191610ac1565b60006001600160a01b0382166112bb5760405162461bcd60e51b815260040180806020018281038252602a815260200180612c6a602a913960400191505060405180910390fd5b6001600160a01b038216600090815260016020526040902061105e90611af5565b6000828152600a6020526040812061105b908363ffffffff611d7116565b6000828152600a6020526040812061105b908363ffffffff611f5916565b604080516d5052454449434154455f524f4c4560901b8152905190819003600e01902061134781610fe5611946565b600b906113ad5760405162461bcd60e51b81526020600482019081528254600260001961010060018416150201909116046024830181905290918291604490910190849080156111895780601f1061115e57610100808354040283529160200191611189565b506113b88585611dec565b6113f88484848080601f016020809104026020016040519081016040528093929190818152602001838380828437600092019190915250611f6e92505050565b5050505050565b60078054604080516020601f6002600019610100600188161502019095169490940493840181900481028201810190925282815260609390929091830182828015610ac15780601f10610a9657610100808354040283529160200191610ac1565b600081565b61146d611946565b6001600160a01b0316826001600160a01b031614156114d3576040805162461bcd60e51b815260206004820152601960248201527f4552433732313a20617070726f766520746f2063616c6c657200000000000000604482015290519081900360640190fd5b80600560006114e0611946565b6001600160a01b03908116825260208083019390935260409182016000908120918716808252919093529120805460ff191692151592909217909155611524611946565b60408051841515815290516001600160a01b0392909216917f17307eab39ab6107e8899845ad3d59bd9653f200f220920489ca2b5937696c319181900360200190a35050565b61157b611575611946565b83611b00565b6115b65760405162461bcd60e51b8152600401808060200182810382526031815260200180612dd16031913960400191505060405180910390fd5b6115c28484848461203f565b50505050565b60606115d382611933565b61160e5760405162461bcd60e51b815260040180806020018281038252602f815260200180612d81602f913960400191505060405180910390fd5b60008281526008602090815260409182902080548351601f60026000196101006001861615020190931692909204918201849004840281018401909452808452606093928301828280156116a35780601f10611678576101008083540402835291602001916116a3565b820191906000526020600020905b81548152906001019060200180831161168657829003601f168201915b5050600954939450505050600260001961010060018416150201909116046116cc579050610a30565b80511561179d5760098160405160200180838054600181600116156101000203166002900480156117345780601f10611712576101008083540402835291820191611734565b820191906000526020600020905b815481529060010190602001808311611720575b5050825160208401908083835b602083106117605780518252601f199092019160209182019101611741565b6001836020036101000a03801982511681845116808217855250505050505090500192505050604051602081830303815290604052915050610a30565b60096117a884612091565b60405160200180838054600181600116156101000203166002900480156118065780601f106117e4576101008083540402835291820191611806565b820191906000526020600020905b8154815290600101906020018083116117f2575b5050825160208401908083835b602083106118325780518252601f199092019160209182019101611813565b6001836020036101000a03801982511681845116808217855250505050505090500192505050604051602081830303815290604052915050919050565b6000818152600a6020526040812061105e90611af5565b6000828152600a60205260409020600201546118a490610fe5611946565b6110bf5760405162461bcd60e51b8152600401808060200182810382526030815260200180612bdd6030913960400191505060405180910390fd5b604080516d5052454449434154455f524f4c4560901b8152905190819003600e01902081565b6001600160a01b03918216600090815260056020908152604080832093909416825291909152205460ff1690565b600061105e60028363ffffffff61216c16565b6000610f35612178565b600081815260046020526040902080546001600160a01b0319166001600160a01b0384169081179091558190611985826111e5565b6001600160a01b03167f8c5be1e5ebec7d5bd14f71427d1e84f3dd0314c0f7b2291e5b200ac8c7c3b92560405160405180910390a45050565b60006001600160a01b038616611a055760405162461bcd60e51b8152600401808060200182810382526025815260200180612c0d6025913960400191505060405180910390fd5b6001611a18611a13876121d5565b612261565b83868660405160008152602001604052604051808581526020018460ff1660ff1681526020018381526020018281526020019450505050506020604051602081039080840390855afa158015611a72573d6000803e3d6000fd5b505050602060405103516001600160a01b0316866001600160a01b031614905095945050505050565b60008282018381101561105b576040805162461bcd60e51b815260206004820152601b60248201527f536166654d6174683a206164646974696f6e206f766572666c6f770000000000604482015290519081900360640190fd5b600061105e826122ad565b6000611b0b82611933565b611b465760405162461bcd60e51b815260040180806020018281038252602c815260200180612bb1602c913960400191505060405180910390fd5b6000611b51836111e5565b9050806001600160a01b0316846001600160a01b03161480611b8c5750836001600160a01b0316611b8184610acc565b6001600160a01b0316145b80611b9c5750611b9c8185611905565b949350505050565b826001600160a01b0316611bb7826111e5565b6001600160a01b031614611bfc5760405162461bcd60e51b8152600401808060200182810382526029815260200180612d376029913960400191505060405180910390fd5b6001600160a01b038216611c415760405162461bcd60e51b8152600401808060200182810382526024815260200180612b8d6024913960400191505060405180910390fd5b611c4c838383610c04565b611c57600082611950565b6001600160a01b0383166000908152600160205260409020611c7f908263ffffffff6122b116565b506001600160a01b0382166000908152600160205260409020611ca8908263ffffffff6122bd16565b50611cbb6002828463ffffffff6122c916565b5080826001600160a01b0316846001600160a01b03167fddf252ad1be2c89b69c2b068fc378daa952ba7f163c4a11628f55a4df523b3ef60405160405180910390a4505050565b6000828152600a60205260409020611d20908263ffffffff6122df16565b1561102f57611d2d611946565b6001600160a01b0316816001600160a01b0316837f2f8788117e7eff1d82e926ec794901d17c78024a50270940304540a733656f0d60405160405180910390a45050565b600061105b83836122f4565b6000828152600a60205260409020611d9b908263ffffffff61235816565b1561102f57611da8611946565b6001600160a01b0316816001600160a01b0316837ff6391f5c32d9c69d2a47ea670b442974b53935d1edc7fd64eb21e047a839171b60405160405180910390a45050565b6001600160a01b038216611e47576040805162461bcd60e51b815260206004820181905260248201527f4552433732313a206d696e7420746f20746865207a65726f2061646472657373604482015290519081900360640190fd5b611e5081611933565b15611ea2576040805162461bcd60e51b815260206004820152601c60248201527f4552433732313a20746f6b656e20616c7265616479206d696e74656400000000604482015290519081900360640190fd5b611eae60008383610c04565b6001600160a01b0382166000908152600160205260409020611ed6908263ffffffff6122bd16565b50611ee96002828463ffffffff6122c916565b5060405181906001600160a01b038416906000907fddf252ad1be2c89b69c2b068fc378daa952ba7f163c4a11628f55a4df523b3ef908290a45050565b6000808080611f35868661236d565b9097909650945050505050565b6000611f4f8484846123e8565b90505b9392505050565b600061105b836001600160a01b0384166124b2565b6060818060200190516020811015611f8557600080fd5b8101908080516040519392919084600160201b821115611fa457600080fd5b908301906020820185811115611fb957600080fd5b8251600160201b811182820188101715611fd257600080fd5b82525081516020918201929091019080838360005b83811015611fff578181015183820152602001611fe7565b50505050905090810190601f16801561202c5780820380516001836020036101000a031916815260200191505b506040525050509050610c0483826124ca565b61204a848484611ba4565b6120568484848461252d565b6115c25760405162461bcd60e51b8152600401808060200182810382526032815260200180612b186032913960400191505060405180910390fd5b6060816120b657506040805180820190915260018152600360fc1b6020820152610a30565b8160005b81156120ce57600101600a820491506120ba565b60608167ffffffffffffffff811180156120e757600080fd5b506040519080825280601f01601f191660200182016040528015612112576020820181803683370190505b50859350905060001982015b831561216357600a840660300160f81b8282806001900393508151811061214157fe5b60200101906001600160f81b031916908160001a905350600a8404935061211e565b50949350505050565b600061105b83836124b2565b6000333014156121d05760606000368080601f0160208091040260200160405190810160405280939291908181526020018383808284376000920191909152505050503601516001600160a01b03169150610ac99050565b503390565b6000604051806080016040528060438152602001612b4a60439139805190602001208260000151836020015184604001518051906020012060405160200180858152602001848152602001836001600160a01b03166001600160a01b03168152602001828152602001945050505050604051602081830303815290604052805190602001209050919050565b600061226b610f3a565b82604051602001808061190160f01b81525060020183815260200182815260200192505050604051602081830303815290604052805190602001209050919050565b5490565b600061105b83836126ad565b600061105b8383612773565b6000611f4f84846001600160a01b0385166127bd565b600061105b836001600160a01b038416612773565b815460009082106123365760405162461bcd60e51b8152600401808060200182810382526022815260200180612ac76022913960400191505060405180910390fd5b82600001828154811061234557fe5b9060005260206000200154905092915050565b600061105b836001600160a01b0384166126ad565b8154600090819083106123b15760405162461bcd60e51b8152600401808060200182810382526022815260200180612cbd6022913960400191505060405180910390fd5b60008460000184815481106123c257fe5b906000526020600020906002020190508060000154816001015492509250509250929050565b600082815260018401602052604081205482816124835760405162461bcd60e51b81526004018080602001828103825283818151815260200191508051906020019080838360005b83811015612448578181015183820152602001612430565b50505050905090810190601f1680156124755780820380516001836020036101000a031916815260200191505b509250505060405180910390fd5b5084600001600182038154811061249657fe5b9060005260206000209060020201600101549150509392505050565b60009081526001919091016020526040902054151590565b6124d382611933565b61250e5760405162461bcd60e51b815260040180806020018281038252602c815260200180612d0b602c913960400191505060405180910390fd5b60008281526008602090815260409091208251610c0492840190612a2e565b6000612541846001600160a01b0316612854565b61254d57506001611b9c565b6060612673630a85bd0160e11b612562611946565b88878760405160240180856001600160a01b03166001600160a01b03168152602001846001600160a01b03166001600160a01b0316815260200183815260200180602001828103825283818151815260200191508051906020019080838360005b838110156125db5781810151838201526020016125c3565b50505050905090810190601f1680156126085780820380516001836020036101000a031916815260200191505b5095505050505050604051602081830303815290604052906001600160e01b0319166020820180516001600160e01b038381831617835250505050604051806060016040528060328152602001612b18603291396001600160a01b038816919063ffffffff61288d16565b9050600081806020019051602081101561268c57600080fd5b50516001600160e01b031916630a85bd0160e11b1492505050949350505050565b6000818152600183016020526040812054801561276957835460001980830191908101906000908790839081106126e057fe5b90600052602060002001549050808760000184815481106126fd57fe5b60009182526020808320909101929092558281526001898101909252604090209084019055865487908061272d57fe5b6001900381819060005260206000200160009055905586600101600087815260200190815260200160002060009055600194505050505061105e565b600091505061105e565b600061277f83836124b2565b6127b55750815460018181018455600084815260208082209093018490558454848252828601909352604090209190915561105e565b50600061105e565b600082815260018401602052604081205480612822575050604080518082018252838152602080820184815286546001818101895560008981528481209551600290930290950191825591519082015586548684528188019092529290912055611f52565b8285600001600183038154811061283557fe5b9060005260206000209060020201600101819055506000915050611f52565b6000813f7fc5d2460186f7233c927e7db2dcc703c0e500b653ca82273b7bfad8045d85a470818114801590611b9c575050151592915050565b6060611f4f848460008560606128a285612854565b6128f3576040805162461bcd60e51b815260206004820152601d60248201527f416464726573733a2063616c6c20746f206e6f6e2d636f6e7472616374000000604482015290519081900360640190fd5b60006060866001600160a01b031685876040518082805190602001908083835b602083106129325780518252601f199092019160209182019101612913565b6001836020036101000a03801982511681845116808217855250505050505090500191505060006040518083038185875af1925050503d8060008114612994576040519150601f19603f3d011682016040523d82523d6000602084013e612999565b606091505b509150915081156129ad579150611b9c9050565b8051156129bd5780518082602001fd5b60405162461bcd60e51b8152602060048201818152865160248401528651879391928392604401919085019080838360008315612448578181015183820152602001612430565b60405180606001604052806000815260200160006001600160a01b03168152602001606081525090565b828054600181600116156101000203166002900490600052602060002090601f016020900481019282601f10612a6f57805160ff1916838001178555612a9c565b82800160010185558215612a9c579182015b82811115612a9c578251825591602001919060010190612a81565b50612aa8929150612aac565b5090565b610ac991905b80821115612aa85760008155600101612ab256fe456e756d657261626c655365743a20696e646578206f7574206f6620626f756e6473416363657373436f6e74726f6c3a2073656e646572206d75737420626520616e2061646d696e20746f206772616e744552433732313a207472616e7366657220746f206e6f6e20455243373231526563656976657220696d706c656d656e7465724d6574615472616e73616374696f6e2875696e74323536206e6f6e63652c616464726573732066726f6d2c62797465732066756e6374696f6e5369676e6174757265294552433732313a207472616e7366657220746f20746865207a65726f20616464726573734552433732313a206f70657261746f7220717565727920666f72206e6f6e6578697374656e7420746f6b656e416363657373436f6e74726f6c3a2073656e646572206d75737420626520616e2061646d696e20746f207265766f6b654e61746976654d6574615472616e73616374696f6e3a20494e56414c49445f5349474e45524552433732313a20617070726f76652063616c6c6572206973206e6f74206f776e6572206e6f7220617070726f76656420666f7220616c6c4552433732313a2062616c616e636520717565727920666f7220746865207a65726f20616464726573734552433732313a206f776e657220717565727920666f72206e6f6e6578697374656e7420746f6b656e456e756d657261626c654d61703a20696e646578206f7574206f6620626f756e64734552433732313a20617070726f76656420717565727920666f72206e6f6e6578697374656e7420746f6b656e4552433732314d657461646174613a2055524920736574206f66206e6f6e6578697374656e7420746f6b656e4552433732313a207472616e73666572206f6620746f6b656e2074686174206973206e6f74206f776e5369676e657220616e64207369676e617475726520646f206e6f74206d617463684552433732314d657461646174613a2055524920717565727920666f72206e6f6e6578697374656e7420746f6b656e4552433732313a20617070726f76616c20746f2063757272656e74206f776e65724552433732313a207472616e736665722063616c6c6572206973206e6f74206f776e6572206e6f7220617070726f766564416363657373436f6e74726f6c3a2063616e206f6e6c792072656e6f756e636520726f6c657320666f722073656c66a264697066735822122026e2455c068d1133022fa8accb8017bab2879bbed6cd242b76b565782c6e5a1c64736f6c63430006060033454950373132446f6d61696e28737472696e67206e616d652c737472696e672076657273696f6e2c6164647265737320766572696679696e67436f6e74726163742c627974657333322073616c7429",
  "immutableReferences": {},
  "source": "// This contract is not supposed to be used in production\n// It's strictly for testing purpose\n\npragma solidity 0.6.6;\n\nimport {ERC721} from \"@openzeppelin/contracts/token/ERC721/ERC721.sol\";\nimport {AccessControlMixin} from \"../../common/AccessControlMixin.sol\";\nimport {NativeMetaTransaction} from \"../../common/NativeMetaTransaction.sol\";\nimport {IMintableERC721} from \"./IMintableERC721.sol\";\nimport {ContextMixin} from \"../../common/ContextMixin.sol\";\n\ncontract DummyMintableERC721 is\n    ERC721,\n    AccessControlMixin,\n    NativeMetaTransaction,\n    IMintableERC721,\n    ContextMixin\n{\n    bytes32 public constant PREDICATE_ROLE = keccak256(\"PREDICATE_ROLE\");\n    constructor(string memory name_, string memory symbol_)\n        public\n        ERC721(name_, symbol_)\n    {\n        _setupContractId(\"DummyMintableERC721\");\n        _setupRole(DEFAULT_ADMIN_ROLE, _msgSender());\n        _setupRole(PREDICATE_ROLE, _msgSender());\n        _initializeEIP712(name_);\n    }\n\n    function _msgSender()\n        internal\n        override\n        view\n        returns (address payable sender)\n    {\n        return ContextMixin.msgSender();\n    }\n\n    /**\n     * @dev See {IMintableERC721-mint}.\n     */\n    function mint(address user, uint256 tokenId) external override only(PREDICATE_ROLE) {\n        _mint(user, tokenId);\n    }\n\n    /**\n     * If you're attempting to bring metadata associated with token\n     * from L2 to L1, you must implement this method, to be invoked\n     * when minting token back on L1, during exit\n     */\n    function setTokenMetadata(uint256 tokenId, bytes memory data) internal virtual {\n        // This function should decode metadata obtained from L2\n        // and attempt to set it for this `tokenId`\n        //\n        // Following is just a default implementation, feel\n        // free to define your own encoding/ decoding scheme\n        // for L2 -> L1 token metadata transfer\n        string memory uri = abi.decode(data, (string));\n\n        _setTokenURI(tokenId, uri);\n    }\n\n    /**\n     * @dev See {IMintableERC721-mint}.\n     * \n     * If you're attempting to bring metadata associated with token\n     * from L2 to L1, you must implement this method\n     */\n    function mint(address user, uint256 tokenId, bytes calldata metaData) external override only(PREDICATE_ROLE) {\n        _mint(user, tokenId);\n\n        setTokenMetadata(tokenId, metaData);\n    }\n\n\n    /**\n     * @dev See {IMintableERC721-exists}.\n     */\n    function exists(uint256 tokenId) external view override returns (bool) {\n        return _exists(tokenId);\n    }\n}\n",
  "sourcePath": "/Users/ohm.jirapon/internal/layer-2/layer2-plasma-cli/devnet/code/pos-portal/contracts/root/RootToken/DummyMintableERC721.sol",
  "compiler": {
    "name": "solc",
    "version": "0.6.6+commit.6c089d02.Linux.g++"
  },
  "schemaVersion": "3.2.1",
  "updatedAt": "2022-09-15T08:36:22.432Z",
  "networkType": "ethereum",
  "devdoc": {
    "methods": {
      "approve(address,uint256)": {
        "details": "See {IERC721-approve}."
      },
      "balanceOf(address)": {
        "details": "See {IERC721-balanceOf}."
      },
      "baseURI()": {
        "details": "Returns the base URI set via {_setBaseURI}. This will be automatically added as a prefix in {tokenURI} to each token's URI, or to the token ID if no specific URI is set for that token ID."
      },
      "exists(uint256)": {
        "details": "See {IMintableERC721-exists}."
      },
      "getApproved(uint256)": {
        "details": "See {IERC721-getApproved}."
      },
      "getRoleAdmin(bytes32)": {
        "details": "Returns the admin role that controls `role`. See {grantRole} and {revokeRole}.     * To change a role's admin, use {_setRoleAdmin}."
      },
      "getRoleMember(bytes32,uint256)": {
        "details": "Returns one of the accounts that have `role`. `index` must be a value between 0 and {getRoleMemberCount}, non-inclusive.     * Role bearers are not sorted in any particular way, and their ordering may change at any point.     * WARNING: When using {getRoleMember} and {getRoleMemberCount}, make sure you perform all queries on the same block. See the following https://forum.openzeppelin.com/t/iterating-over-elements-on-enumerableset-in-openzeppelin-contracts/2296[forum post] for more information."
      },
      "getRoleMemberCount(bytes32)": {
        "details": "Returns the number of accounts that have `role`. Can be used together with {getRoleMember} to enumerate all bearers of a role."
      },
      "grantRole(bytes32,address)": {
        "details": "Grants `role` to `account`.     * If `account` had not been already granted `role`, emits a {RoleGranted} event.     * Requirements:     * - the caller must have ``role``'s admin role."
      },
      "hasRole(bytes32,address)": {
        "details": "Returns `true` if `account` has been granted `role`."
      },
      "isApprovedForAll(address,address)": {
        "details": "See {IERC721-isApprovedForAll}."
      },
      "mint(address,uint256)": {
        "details": "See {IMintableERC721-mint}."
      },
      "mint(address,uint256,bytes)": {
        "details": "See {IMintableERC721-mint}.      * If you're attempting to bring metadata associated with token from L2 to L1, you must implement this method"
      },
      "name()": {
        "details": "See {IERC721Metadata-name}."
      },
      "ownerOf(uint256)": {
        "details": "See {IERC721-ownerOf}."
      },
      "renounceRole(bytes32,address)": {
        "details": "Revokes `role` from the calling account.     * Roles are often managed via {grantRole} and {revokeRole}: this function's purpose is to provide a mechanism for accounts to lose their privileges if they are compromised (such as when a trusted device is misplaced).     * If the calling account had been granted `role`, emits a {RoleRevoked} event.     * Requirements:     * - the caller must be `account`."
      },
      "revokeRole(bytes32,address)": {
        "details": "Revokes `role` from `account`.     * If `account` had been granted `role`, emits a {RoleRevoked} event.     * Requirements:     * - the caller must have ``role``'s admin role."
      },
      "safeTransferFrom(address,address,uint256)": {
        "details": "See {IERC721-safeTransferFrom}."
      },
      "safeTransferFrom(address,address,uint256,bytes)": {
        "details": "See {IERC721-safeTransferFrom}."
      },
      "setApprovalForAll(address,bool)": {
        "details": "See {IERC721-setApprovalForAll}."
      },
      "supportsInterface(bytes4)": {
        "details": "See {IERC165-supportsInterface}.     * Time complexity O(1), guaranteed to always use less than 30 000 gas."
      },
      "symbol()": {
        "details": "See {IERC721Metadata-symbol}."
      },
      "tokenByIndex(uint256)": {
        "details": "See {IERC721Enumerable-tokenByIndex}."
      },
      "tokenOfOwnerByIndex(address,uint256)": {
        "details": "See {IERC721Enumerable-tokenOfOwnerByIndex}."
      },
      "tokenURI(uint256)": {
        "details": "See {IERC721Metadata-tokenURI}."
      },
      "totalSupply()": {
        "details": "See {IERC721Enumerable-totalSupply}."
      },
      "transferFrom(address,address,uint256)": {
        "details": "See {IERC721-transferFrom}."
      }
    }
  },
  "userdoc": {
    "methods": {}
  }
}