{
  "contractName": "DummyERC721",
  "abi": [
    {
      "inputs": [
        {
          "internalType": "string",
          "name": "name_",
          "type": "string"
        },
        {
          "internalType": "string",
          "name": "symbol_",
          "type": "string"
        }
      ],
      "stateMutability": "nonpayable",
      "type": "constructor"
    },
    {
      "anonymous": false,
      "inputs": [
        {
          "indexed": true,
          "internalType": "address",
          "name": "owner",
          "type": "address"
        },
        {
          "indexed": true,
          "internalType": "address",
          "name": "approved",
          "type": "address"
        },
        {
          "indexed": true,
          "internalType": "uint256",
          "name": "tokenId",
          "type": "uint256"
        }
      ],
      "name": "Approval",
      "type": "event"
    },
    {
      "anonymous": false,
      "inputs": [
        {
          "indexed": true,
          "internalType": "address",
          "name": "owner",
          "type": "address"
        },
        {
          "indexed": true,
          "internalType": "address",
          "name": "operator",
          "type": "address"
        },
        {
          "indexed": false,
          "internalType": "bool",
          "name": "approved",
          "type": "bool"
        }
      ],
      "name": "ApprovalForAll",
      "type": "event"
    },
    {
      "anonymous": false,
      "inputs": [
        {
          "indexed": false,
          "internalType": "address",
          "name": "userAddress",
          "type": "address"
        },
        {
          "indexed": false,
          "internalType": "address payable",
          "name": "relayerAddress",
          "type": "address"
        },
        {
          "indexed": false,
          "internalType": "bytes",
          "name": "functionSignature",
          "type": "bytes"
        }
      ],
      "name": "MetaTransactionExecuted",
      "type": "event"
    },
    {
      "anonymous": false,
      "inputs": [
        {
          "indexed": true,
          "internalType": "bytes32",
          "name": "role",
          "type": "bytes32"
        },
        {
          "indexed": true,
          "internalType": "bytes32",
          "name": "previousAdminRole",
          "type": "bytes32"
        },
        {
          "indexed": true,
          "internalType": "bytes32",
          "name": "newAdminRole",
          "type": "bytes32"
        }
      ],
      "name": "RoleAdminChanged",
      "type": "event"
    },
    {
      "anonymous": false,
      "inputs": [
        {
          "indexed": true,
          "internalType": "bytes32",
          "name": "role",
          "type": "bytes32"
        },
        {
          "indexed": true,
          "internalType": "address",
          "name": "account",
          "type": "address"
        },
        {
          "indexed": true,
          "internalType": "address",
          "name": "sender",
          "type": "address"
        }
      ],
      "name": "RoleGranted",
      "type": "event"
    },
    {
      "anonymous": false,
      "inputs": [
        {
          "indexed": true,
          "internalType": "bytes32",
          "name": "role",
          "type": "bytes32"
        },
        {
          "indexed": true,
          "internalType": "address",
          "name": "account",
          "type": "address"
        },
        {
          "indexed": true,
          "internalType": "address",
          "name": "sender",
          "type": "address"
        }
      ],
      "name": "RoleRevoked",
      "type": "event"
    },
    {
      "anonymous": false,
      "inputs": [
        {
          "indexed": true,
          "internalType": "address",
          "name": "from",
          "type": "address"
        },
        {
          "indexed": true,
          "internalType": "address",
          "name": "to",
          "type": "address"
        },
        {
          "indexed": true,
          "internalType": "uint256",
          "name": "tokenId",
          "type": "uint256"
        }
      ],
      "name": "Transfer",
      "type": "event"
    },
    {
      "inputs": [],
      "name": "DEFAULT_ADMIN_ROLE",
      "outputs": [
        {
          "internalType": "bytes32",
          "name": "",
          "type": "bytes32"
        }
      ],
      "stateMutability": "view",
      "type": "function",
      "constant": true
    },
    {
      "inputs": [],
      "name": "ERC712_VERSION",
      "outputs": [
        {
          "internalType": "string",
          "name": "",
          "type": "string"
        }
      ],
      "stateMutability": "view",
      "type": "function",
      "constant": true
    },
    {
      "inputs": [],
      "name": "PREDICATE_ROLE",
      "outputs": [
        {
          "internalType": "bytes32",
          "name": "",
          "type": "bytes32"
        }
      ],
      "stateMutability": "view",
      "type": "function",
      "constant": true
    },
    {
      "inputs": [
        {
          "internalType": "address",
          "name": "to",
          "type": "address"
        },
        {
          "internalType": "uint256",
          "name": "tokenId",
          "type": "uint256"
        }
      ],
      "name": "approve",
      "outputs": [],
      "stateMutability": "nonpayable",
      "type": "function"
    },
    {
      "inputs": [
        {
          "internalType": "address",
          "name": "owner",
          "type": "address"
        }
      ],
      "name": "balanceOf",
      "outputs": [
        {
          "internalType": "uint256",
          "name": "",
          "type": "uint256"
        }
      ],
      "stateMutability": "view",
      "type": "function",
      "constant": true
    },
    {
      "inputs": [],
      "name": "baseURI",
      "outputs": [
        {
          "internalType": "string",
          "name": "",
          "type": "string"
        }
      ],
      "stateMutability": "view",
      "type": "function",
      "constant": true
    },
    {
      "inputs": [
        {
          "internalType": "address",
          "name": "userAddress",
          "type": "address"
        },
        {
          "internalType": "bytes",
          "name": "functionSignature",
          "type": "bytes"
        },
        {
          "internalType": "bytes32",
          "name": "sigR",
          "type": "bytes32"
        },
        {
          "internalType": "bytes32",
          "name": "sigS",
          "type": "bytes32"
        },
        {
          "internalType": "uint8",
          "name": "sigV",
          "type": "uint8"
        }
      ],
      "name": "executeMetaTransaction",
      "outputs": [
        {
          "internalType": "bytes",
          "name": "",
          "type": "bytes"
        }
      ],
      "stateMutability": "payable",
      "type": "function",
      "payable": true
    },
    {
      "inputs": [
        {
          "internalType": "uint256",
          "name": "tokenId",
          "type": "uint256"
        }
      ],
      "name": "getApproved",
      "outputs": [
        {
          "internalType": "address",
          "name": "",
          "type": "address"
        }
      ],
      "stateMutability": "view",
      "type": "function",
      "constant": true
    },
    {
      "inputs": [],
      "name": "getChainId",
      "outputs": [
        {
          "internalType": "uint256",
          "name": "",
          "type": "uint256"
        }
      ],
      "stateMutability": "pure",
      "type": "function",
      "constant": true
    },
    {
      "inputs": [],
      "name": "getDomainSeperator",
      "outputs": [
        {
          "internalType": "bytes32",
          "name": "",
          "type": "bytes32"
        }
      ],
      "stateMutability": "view",
      "type": "function",
      "constant": true
    },
    {
      "inputs": [
        {
          "internalType": "address",
          "name": "user",
          "type": "address"
        }
      ],
      "name": "getNonce",
      "outputs": [
        {
          "internalType": "uint256",
          "name": "nonce",
          "type": "uint256"
        }
      ],
      "stateMutability": "view",
      "type": "function",
      "constant": true
    },
    {
      "inputs": [
        {
          "internalType": "bytes32",
          "name": "role",
          "type": "bytes32"
        }
      ],
      "name": "getRoleAdmin",
      "outputs": [
        {
          "internalType": "bytes32",
          "name": "",
          "type": "bytes32"
        }
      ],
      "stateMutability": "view",
      "type": "function",
      "constant": true
    },
    {
      "inputs": [
        {
          "internalType": "bytes32",
          "name": "role",
          "type": "bytes32"
        },
        {
          "internalType": "uint256",
          "name": "index",
          "type": "uint256"
        }
      ],
      "name": "getRoleMember",
      "outputs": [
        {
          "internalType": "address",
          "name": "",
          "type": "address"
        }
      ],
      "stateMutability": "view",
      "type": "function",
      "constant": true
    },
    {
      "inputs": [
        {
          "internalType": "bytes32",
          "name": "role",
          "type": "bytes32"
        }
      ],
      "name": "getRoleMemberCount",
      "outputs": [
        {
          "internalType": "uint256",
          "name": "",
          "type": "uint256"
        }
      ],
      "stateMutability": "view",
      "type": "function",
      "constant": true
    },
    {
      "inputs": [
        {
          "internalType": "bytes32",
          "name": "role",
          "type": "bytes32"
        },
        {
          "internalType": "address",
          "name": "account",
          "type": "address"
        }
      ],
      "name": "grantRole",
      "outputs": [],
      "stateMutability": "nonpayable",
      "type": "function"
    },
    {
      "inputs": [
        {
          "internalType": "bytes32",
          "name": "role",
          "type": "bytes32"
        },
        {
          "internalType": "address",
          "name": "account",
          "type": "address"
        }
      ],
      "name": "hasRole",
      "outputs": [
        {
          "internalType": "bool",
          "name": "",
          "type": "bool"
        }
      ],
      "stateMutability": "view",
      "type": "function",
      "constant": true
    },
    {
      "inputs": [
        {
          "internalType": "address",
          "name": "owner",
          "type": "address"
        },
        {
          "internalType": "address",
          "name": "operator",
          "type": "address"
        }
      ],
      "name": "isApprovedForAll",
      "outputs": [
        {
          "internalType": "bool",
          "name": "",
          "type": "bool"
        }
      ],
      "stateMutability": "view",
      "type": "function",
      "constant": true
    },
    {
      "inputs": [],
      "name": "name",
      "outputs": [
        {
          "internalType": "string",
          "name": "",
          "type": "string"
        }
      ],
      "stateMutability": "view",
      "type": "function",
      "constant": true
    },
    {
      "inputs": [
        {
          "internalType": "uint256",
          "name": "tokenId",
          "type": "uint256"
        }
      ],
      "name": "ownerOf",
      "outputs": [
        {
          "internalType": "address",
          "name": "",
          "type": "address"
        }
      ],
      "stateMutability": "view",
      "type": "function",
      "constant": true
    },
    {
      "inputs": [
        {
          "internalType": "bytes32",
          "name": "role",
          "type": "bytes32"
        },
        {
          "internalType": "address",
          "name": "account",
          "type": "address"
        }
      ],
      "name": "renounceRole",
      "outputs": [],
      "stateMutability": "nonpayable",
      "type": "function"
    },
    {
      "inputs": [
        {
          "internalType": "bytes32",
          "name": "role",
          "type": "bytes32"
        },
        {
          "internalType": "address",
          "name": "account",
          "type": "address"
        }
      ],
      "name": "revokeRole",
      "outputs": [],
      "stateMutability": "nonpayable",
      "type": "function"
    },
    {
      "inputs": [
        {
          "internalType": "address",
          "name": "from",
          "type": "address"
        },
        {
          "internalType": "address",
          "name": "to",
          "type": "address"
        },
        {
          "internalType": "uint256",
          "name": "tokenId",
          "type": "uint256"
        }
      ],
      "name": "safeTransferFrom",
      "outputs": [],
      "stateMutability": "nonpayable",
      "type": "function"
    },
    {
      "inputs": [
        {
          "internalType": "address",
          "name": "from",
          "type": "address"
        },
        {
          "internalType": "address",
          "name": "to",
          "type": "address"
        },
        {
          "internalType": "uint256",
          "name": "tokenId",
          "type": "uint256"
        },
        {
          "internalType": "bytes",
          "name": "_data",
          "type": "bytes"
        }
      ],
      "name": "safeTransferFrom",
      "outputs": [],
      "stateMutability": "nonpayable",
      "type": "function"
    },
    {
      "inputs": [
        {
          "internalType": "address",
          "name": "operator",
          "type": "address"
        },
        {
          "internalType": "bool",
          "name": "approved",
          "type": "bool"
        }
      ],
      "name": "setApprovalForAll",
      "outputs": [],
      "stateMutability": "nonpayable",
      "type": "function"
    },
    {
      "inputs": [
        {
          "internalType": "bytes4",
          "name": "interfaceId",
          "type": "bytes4"
        }
      ],
      "name": "supportsInterface",
      "outputs": [
        {
          "internalType": "bool",
          "name": "",
          "type": "bool"
        }
      ],
      "stateMutability": "view",
      "type": "function",
      "constant": true
    },
    {
      "inputs": [],
      "name": "symbol",
      "outputs": [
        {
          "internalType": "string",
          "name": "",
          "type": "string"
        }
      ],
      "stateMutability": "view",
      "type": "function",
      "constant": true
    },
    {
      "inputs": [
        {
          "internalType": "uint256",
          "name": "index",
          "type": "uint256"
        }
      ],
      "name": "tokenByIndex",
      "outputs": [
        {
          "internalType": "uint256",
          "name": "",
          "type": "uint256"
        }
      ],
      "stateMutability": "view",
      "type": "function",
      "constant": true
    },
    {
      "inputs": [
        {
          "internalType": "address",
          "name": "owner",
          "type": "address"
        },
        {
          "internalType": "uint256",
          "name": "index",
          "type": "uint256"
        }
      ],
      "name": "tokenOfOwnerByIndex",
      "outputs": [
        {
          "internalType": "uint256",
          "name": "",
          "type": "uint256"
        }
      ],
      "stateMutability": "view",
      "type": "function",
      "constant": true
    },
    {
      "inputs": [
        {
          "internalType": "uint256",
          "name": "tokenId",
          "type": "uint256"
        }
      ],
      "name": "tokenURI",
      "outputs": [
        {
          "internalType": "string",
          "name": "",
          "type": "string"
        }
      ],
      "stateMutability": "view",
      "type": "function",
      "constant": true
    },
    {
      "inputs": [],
      "name": "totalSupply",
      "outputs": [
        {
          "internalType": "uint256",
          "name": "",
          "type": "uint256"
        }
      ],
      "stateMutability": "view",
      "type": "function",
      "constant": true
    },
    {
      "inputs": [
        {
          "internalType": "address",
          "name": "from",
          "type": "address"
        },
        {
          "internalType": "address",
          "name": "to",
          "type": "address"
        },
        {
          "internalType": "uint256",
          "name": "tokenId",
          "type": "uint256"
        }
      ],
      "name": "transferFrom",
      "outputs": [],
      "stateMutability": "nonpayable",
      "type": "function"
    },
    {
      "inputs": [
        {
          "internalType": "uint256",
          "name": "tokenId",
          "type": "uint256"
        }
      ],
      "name": "mint",
      "outputs": [],
      "stateMutability": "nonpayable",
      "type": "function"
    }
  ],
  "bytecode": "0x6080604052600c805460ff191690553480156200001b57600080fd5b50604051620031eb380380620031eb833981810160405260408110156200004157600080fd5b81019080805160405193929190846401000000008211156200006257600080fd5b9083019060208201858111156200007857600080fd5b82516401000000008111828201881017156200009357600080fd5b82525081516020918201929091019080838360005b83811015620000c2578181015183820152602001620000a8565b50505050905090810190601f168015620000f05780820380516001836020036101000a031916815260200191505b50604052602001805160405193929190846401000000008211156200011457600080fd5b9083019060208201858111156200012a57600080fd5b82516401000000008111828201881017156200014557600080fd5b82525081516020918201929091019080838360005b83811015620001745781810151838201526020016200015a565b50505050905090810190601f168015620001a25780820380516001836020036101000a031916815260200191505b5060405250839150829050620001c86301ffc9a760e01b6001600160e01b03620002fc16565b8151620001dd9060069060208501906200070f565b508051620001f39060079060208401906200070f565b506200020f6380ac58cd60e01b6001600160e01b03620002fc16565b6200022a635b5e139f60e01b6001600160e01b03620002fc16565b6200024563780e9d6360e01b6001600160e01b03620002fc16565b505060408051808201909152600b81526a44756d6d7945524337323160a81b60208201526200027d906001600160e01b036200038116565b620002a56000620002966001600160e01b036200042716565b6001600160e01b036200044416565b604080516d5052454449434154455f524f4c4560901b8152905190819003600e019020620002e090620002966001600160e01b036200042716565b620002f4826001600160e01b036200045916565b5050620007b1565b6001600160e01b031980821614156200035c576040805162461bcd60e51b815260206004820152601c60248201527f4552433136353a20696e76616c696420696e7465726661636520696400000000604482015290519081900360640190fd5b6001600160e01b0319166000908152602081905260409020805460ff19166001179055565b806040516020018082805190602001908083835b60208310620003b65780518252601f19909201916020918201910162000395565b51815160209384036101000a60001901801990921691161790527f3a20494e53554646494349454e545f5045524d495353494f4e530000000000009190930190815260408051808303600519018152601a90920190528051620004239550600b945092019190506200070f565b5050565b60006200043e620004c760201b62001e131760201c565b90505b90565b6200042382826001600160e01b036200052616565b600c5460ff1615620004a3576040805162461bcd60e51b815260206004820152600e60248201526d185b1c9958591e481a5b9a5d195960921b604482015290519081900360640190fd5b620004b7816001600160e01b03620005aa16565b50600c805460ff19166001179055565b600033301415620005215760606000368080601f0160208091040260200160405190810160405280939291908181526020018383808284376000920191909152505050503601516001600160a01b03169150620004419050565b503390565b6000828152600a602090815260409091206200054d91839062001f7b62000672821b17901c565b156200042357620005666001600160e01b036200042716565b6001600160a01b0316816001600160a01b0316837f2f8788117e7eff1d82e926ec794901d17c78024a50270940304540a733656f0d60405160405180910390a45050565b6040518060800160405280604f81526020016200319c604f913980516020918201208251838301206040805180820190915260018152603160f81b930192909252907fc89efdaa54c0f20c7adf612882df0950f5a951637e0307cdcb4c672f298b8bc630620006216001600160e01b036200069b16565b604080516020808201979097528082019590955260608501939093526001600160a01b03909116608084015260a0808401919091528151808403909101815260c090920190528051910120600d5550565b600062000692836001600160a01b0384166001600160e01b036200069f16565b90505b92915050565b4690565b6000620006b683836001600160e01b03620006f716565b620006ee5750815460018181018455600084815260208082209093018490558454848252828601909352604090209190915562000695565b50600062000695565b60009081526001919091016020526040902054151590565b828054600181600116156101000203166002900490600052602060002090601f016020900481019282601f106200075257805160ff191683800117855562000782565b8280016001018555821562000782579182015b828111156200078257825182559160200191906001019062000765565b506200079092915062000794565b5090565b6200044191905b808211156200079057600081556001016200079b565b6129db80620007c16000396000f3fe6080604052600436106101e35760003560e01c80634f6ccce711610102578063a217fddf11610095578063ca15c87311610064578063ca15c87314610884578063d547741f146108ae578063e72db5fd146108e7578063e985e9c5146108fc576101e3565b8063a217fddf14610737578063a22cb4651461074c578063b88d4fde14610787578063c87b56dd1461085a576101e3565b80639010d07c116100d15780639010d07c1461068f57806391d14854146106bf57806395d89b41146106f8578063a0712d681461070d576101e3565b80634f6ccce7146105f35780636352211e1461061d5780636c0360eb1461064757806370a082311461065c576101e3565b806323b872dd1161017a5780632f745c59116101495780632f745c59146105295780633408e4701461056257806336568abe1461057757806342842e0e146105b0576101e3565b806323b872dd14610450578063248a9ca3146104935780632d0335ab146104bd5780632f2ff15d146104f0576101e3565b80630c53c51c116101b65780630c53c51c1461033b5780630f7e5970146103ff57806318160ddd1461041457806320379ee51461043b576101e3565b806301ffc9a7146101e857806306fdde0314610230578063081812fc146102ba578063095ea7b314610300575b600080fd5b3480156101f457600080fd5b5061021c6004803603602081101561020b57600080fd5b50356001600160e01b031916610937565b604080519115158252519081900360200190f35b34801561023c57600080fd5b5061024561095a565b6040805160208082528351818301528351919283929083019185019080838360005b8381101561027f578181015183820152602001610267565b50505050905090810190601f1680156102ac5780820380516001836020036101000a031916815260200191505b509250505060405180910390f35b3480156102c657600080fd5b506102e4600480360360208110156102dd57600080fd5b50356109f0565b604080516001600160a01b039092168252519081900360200190f35b34801561030c57600080fd5b506103396004803603604081101561032357600080fd5b506001600160a01b038135169060200135610a52565b005b610245600480360360a081101561035157600080fd5b6001600160a01b03823516919081019060408101602082013564010000000081111561037c57600080fd5b82018360208201111561038e57600080fd5b803590602001918460018302840111640100000000831117156103b057600080fd5b91908080601f016020809104026020016040519081016040528093929190818152602001838380828437600092019190915250929550508235935050506020810135906040013560ff16610b2d565b34801561040b57600080fd5b50610245610e30565b34801561042057600080fd5b50610429610e4d565b60408051918252519081900360200190f35b34801561044757600080fd5b50610429610e5e565b34801561045c57600080fd5b506103396004803603606081101561047357600080fd5b506001600160a01b03813581169160208101359091169060400135610e64565b34801561049f57600080fd5b50610429600480360360208110156104b657600080fd5b5035610ebb565b3480156104c957600080fd5b50610429600480360360208110156104e057600080fd5b50356001600160a01b0316610ed0565b3480156104fc57600080fd5b506103396004803603604081101561051357600080fd5b50803590602001356001600160a01b0316610eeb565b34801561053557600080fd5b506104296004803603604081101561054c57600080fd5b506001600160a01b038135169060200135610f57565b34801561056e57600080fd5b50610429610f88565b34801561058357600080fd5b506103396004803603604081101561059a57600080fd5b50803590602001356001600160a01b0316610f8c565b3480156105bc57600080fd5b50610339600480360360608110156105d357600080fd5b506001600160a01b03813581169160208101359091169060400135610fed565b3480156105ff57600080fd5b506104296004803603602081101561061657600080fd5b5035611008565b34801561062957600080fd5b506102e46004803603602081101561064057600080fd5b5035611024565b34801561065357600080fd5b50610245611052565b34801561066857600080fd5b506104296004803603602081101561067f57600080fd5b50356001600160a01b03166110b3565b34801561069b57600080fd5b506102e4600480360360408110156106b257600080fd5b508035906020013561111b565b3480156106cb57600080fd5b5061021c600480360360408110156106e257600080fd5b50803590602001356001600160a01b0316611139565b34801561070457600080fd5b50610245611157565b34801561071957600080fd5b506103396004803603602081101561073057600080fd5b50356111b8565b34801561074357600080fd5b506104296111cc565b34801561075857600080fd5b506103396004803603604081101561076f57600080fd5b506001600160a01b03813516906020013515156111d1565b34801561079357600080fd5b50610339600480360360808110156107aa57600080fd5b6001600160a01b038235811692602081013590911691604082013591908101906080810160608201356401000000008111156107e557600080fd5b8201836020820111156107f757600080fd5b8035906020019184600183028401116401000000008311171561081957600080fd5b91908080601f0160208091040260200160405190810160405280939291908181526020018383808284376000920191909152509295506112d6945050505050565b34801561086657600080fd5b506102456004803603602081101561087d57600080fd5b5035611334565b34801561089057600080fd5b50610429600480360360208110156108a757600080fd5b50356115db565b3480156108ba57600080fd5b50610339600480360360408110156108d157600080fd5b50803590602001356001600160a01b03166115f2565b3480156108f357600080fd5b5061042961164b565b34801561090857600080fd5b5061021c6004803603604081101561091f57600080fd5b506001600160a01b0381358116916020013516611671565b6001600160e01b0319811660009081526020819052604090205460ff165b919050565b60068054604080516020601f60026000196101006001881615020190951694909404938401819004810282018101909252828152606093909290918301828280156109e65780601f106109bb576101008083540402835291602001916109e6565b820191906000526020600020905b8154815290600101906020018083116109c957829003601f168201915b5050505050905090565b60006109fb8261169f565b610a365760405162461bcd60e51b815260040180806020018281038252602c815260200180612880602c913960400191505060405180910390fd5b506000908152600460205260409020546001600160a01b031690565b6000610a5d82611024565b9050806001600160a01b0316836001600160a01b03161415610ab05760405162461bcd60e51b81526004018080602001828103825260218152602001806129256021913960400191505060405180910390fd5b806001600160a01b0316610ac26116b2565b6001600160a01b03161480610ae35750610ae381610ade6116b2565b611671565b610b1e5760405162461bcd60e51b81526004018080602001828103825260388152602001806127d36038913960400191505060405180910390fd5b610b2883836116bc565b505050565b6060610b3761263d565b50604080516060810182526001600160a01b0388166000818152600e602090815290849020548352820152908101869052610b75878287878761172a565b610bb05760405162461bcd60e51b81526004018080602001828103825260218152602001806128d56021913960400191505060405180910390fd5b6001600160a01b0387166000908152600e6020526040902054610bda90600163ffffffff61180716565b6001600160a01b0388166000818152600e602090815260408083209490945583519283523383820181905260609484018581528b51958501959095528a517f5845892132946850460bff5a0083f71031bc5bf9aadcd40f1de79423eac9b10b958d9592948d94919260808501928601918190849084905b83811015610c69578181015183820152602001610c51565b50505050905090810190601f168015610c965780820380516001836020036101000a031916815260200191505b5094505050505060405180910390a160006060306001600160a01b0316888a6040516020018083805190602001908083835b60208310610ce75780518252601f199092019160209182019101610cc8565b6001836020036101000a038019825116818451168082178552505050505050905001826001600160a01b03166001600160a01b031660601b8152601401925050506040516020818303038152906040526040518082805190602001908083835b60208310610d665780518252601f199092019160209182019101610d47565b6001836020036101000a0380198251168184511680821785525050505050509050019150506000604051808303816000865af19150503d8060008114610dc8576040519150601f19603f3d011682016040523d82523d6000602084013e610dcd565b606091505b509150915081610e24576040805162461bcd60e51b815260206004820152601c60248201527f46756e6374696f6e2063616c6c206e6f74207375636365737366756c00000000604482015290519081900360640190fd5b98975050505050505050565b604051806040016040528060018152602001603160f81b81525081565b6000610e596002611861565b905090565b600d5490565b610e75610e6f6116b2565b8261186c565b610eb05760405162461bcd60e51b81526004018080602001828103825260318152602001806129466031913960400191505060405180910390fd5b610b28838383611910565b6000908152600a602052604090206002015490565b6001600160a01b03166000908152600e602052604090205490565b6000828152600a6020526040902060020154610f0e90610f096116b2565b611139565b610f495760405162461bcd60e51b815260040180806020018281038252602f81526020018061268a602f913960400191505060405180910390fd5b610f538282611a6e565b5050565b6001600160a01b0382166000908152600160205260408120610f7f908363ffffffff611add16565b90505b92915050565b4690565b610f946116b2565b6001600160a01b0316816001600160a01b031614610fe35760405162461bcd60e51b815260040180806020018281038252602f815260200180612977602f913960400191505060405180910390fd5b610f538282611ae9565b610b28838383604051806020016040528060008152506112d6565b60008061101c60028463ffffffff611b5816565b509392505050565b6000610f8282604051806060016040528060298152602001612835602991396002919063ffffffff611b7416565b60098054604080516020601f60026000196101006001881615020190951694909404938401819004810282018101909252828152606093909290918301828280156109e65780601f106109bb576101008083540402835291602001916109e6565b60006001600160a01b0382166110fa5760405162461bcd60e51b815260040180806020018281038252602a81526020018061280b602a913960400191505060405180910390fd5b6001600160a01b0382166000908152600160205260409020610f8290611861565b6000828152600a60205260408120610f7f908363ffffffff611add16565b6000828152600a60205260408120610f7f908363ffffffff611b8b16565b60078054604080516020601f60026000196101006001881615020190951694909404938401819004810282018101909252828152606093909290918301828280156109e65780601f106109bb576101008083540402835291602001916109e6565b6111c96111c36116b2565b82611ba0565b50565b600081565b6111d96116b2565b6001600160a01b0316826001600160a01b0316141561123f576040805162461bcd60e51b815260206004820152601960248201527f4552433732313a20617070726f766520746f2063616c6c657200000000000000604482015290519081900360640190fd5b806005600061124c6116b2565b6001600160a01b03908116825260208083019390935260409182016000908120918716808252919093529120805460ff1916921515929092179091556112906116b2565b60408051841515815290516001600160a01b0392909216917f17307eab39ab6107e8899845ad3d59bd9653f200f220920489ca2b5937696c319181900360200190a35050565b6112e76112e16116b2565b8361186c565b6113225760405162461bcd60e51b81526004018080602001828103825260318152602001806129466031913960400191505060405180910390fd5b61132e84848484611cda565b50505050565b606061133f8261169f565b61137a5760405162461bcd60e51b815260040180806020018281038252602f8152602001806128f6602f913960400191505060405180910390fd5b60008281526008602090815260409182902080548351601f600260001961010060018616150201909316929092049182018490048402810184019094528084526060939283018282801561140f5780601f106113e45761010080835404028352916020019161140f565b820191906000526020600020905b8154815290600101906020018083116113f257829003601f168201915b505060095493945050505060026000196101006001841615020190911604611438579050610955565b8051156115095760098160405160200180838054600181600116156101000203166002900480156114a05780601f1061147e5761010080835404028352918201916114a0565b820191906000526020600020905b81548152906001019060200180831161148c575b5050825160208401908083835b602083106114cc5780518252601f1990920191602091820191016114ad565b6001836020036101000a03801982511681845116808217855250505050505090500192505050604051602081830303815290604052915050610955565b600961151484611d2c565b60405160200180838054600181600116156101000203166002900480156115725780601f10611550576101008083540402835291820191611572565b820191906000526020600020905b81548152906001019060200180831161155e575b5050825160208401908083835b6020831061159e5780518252601f19909201916020918201910161157f565b6001836020036101000a03801982511681845116808217855250505050505090500192505050604051602081830303815290604052915050919050565b6000818152600a60205260408120610f8290611861565b6000828152600a602052604090206002015461161090610f096116b2565b610fe35760405162461bcd60e51b815260040180806020018281038252603081526020018061277e6030913960400191505060405180910390fd5b604080516d5052454449434154455f524f4c4560901b8152905190819003600e01902081565b6001600160a01b03918216600090815260056020908152604080832093909416825291909152205460ff1690565b6000610f8260028363ffffffff611e0716565b6000610e59611e13565b600081815260046020526040902080546001600160a01b0319166001600160a01b03841690811790915581906116f182611024565b6001600160a01b03167f8c5be1e5ebec7d5bd14f71427d1e84f3dd0314c0f7b2291e5b200ac8c7c3b92560405160405180910390a45050565b60006001600160a01b0386166117715760405162461bcd60e51b81526004018080602001828103825260258152602001806127ae6025913960400191505060405180910390fd5b600161178461177f87611e71565b611efd565b83868660405160008152602001604052604051808581526020018460ff1660ff1681526020018381526020018281526020019450505050506020604051602081039080840390855afa1580156117de573d6000803e3d6000fd5b505050602060405103516001600160a01b0316866001600160a01b031614905095945050505050565b600082820183811015610f7f576040805162461bcd60e51b815260206004820152601b60248201527f536166654d6174683a206164646974696f6e206f766572666c6f770000000000604482015290519081900360640190fd5b6000610f8282611f49565b60006118778261169f565b6118b25760405162461bcd60e51b815260040180806020018281038252602c815260200180612752602c913960400191505060405180910390fd5b60006118bd83611024565b9050806001600160a01b0316846001600160a01b031614806118f85750836001600160a01b03166118ed846109f0565b6001600160a01b0316145b8061190857506119088185611671565b949350505050565b826001600160a01b031661192382611024565b6001600160a01b0316146119685760405162461bcd60e51b81526004018080602001828103825260298152602001806128ac6029913960400191505060405180910390fd5b6001600160a01b0382166119ad5760405162461bcd60e51b815260040180806020018281038252602481526020018061272e6024913960400191505060405180910390fd5b6119b8838383610b28565b6119c36000826116bc565b6001600160a01b03831660009081526001602052604090206119eb908263ffffffff611f4d16565b506001600160a01b0382166000908152600160205260409020611a14908263ffffffff611f5916565b50611a276002828463ffffffff611f6516565b5080826001600160a01b0316846001600160a01b03167fddf252ad1be2c89b69c2b068fc378daa952ba7f163c4a11628f55a4df523b3ef60405160405180910390a4505050565b6000828152600a60205260409020611a8c908263ffffffff611f7b16565b15610f5357611a996116b2565b6001600160a01b0316816001600160a01b0316837f2f8788117e7eff1d82e926ec794901d17c78024a50270940304540a733656f0d60405160405180910390a45050565b6000610f7f8383611f90565b6000828152600a60205260409020611b07908263ffffffff611ff416565b15610f5357611b146116b2565b6001600160a01b0316816001600160a01b0316837ff6391f5c32d9c69d2a47ea670b442974b53935d1edc7fd64eb21e047a839171b60405160405180910390a45050565b6000808080611b678686612009565b9097909650945050505050565b6000611b81848484612084565b90505b9392505050565b6000610f7f836001600160a01b03841661214e565b6001600160a01b038216611bfb576040805162461bcd60e51b815260206004820181905260248201527f4552433732313a206d696e7420746f20746865207a65726f2061646472657373604482015290519081900360640190fd5b611c048161169f565b15611c56576040805162461bcd60e51b815260206004820152601c60248201527f4552433732313a20746f6b656e20616c7265616479206d696e74656400000000604482015290519081900360640190fd5b611c6260008383610b28565b6001600160a01b0382166000908152600160205260409020611c8a908263ffffffff611f5916565b50611c9d6002828463ffffffff611f6516565b5060405181906001600160a01b038416906000907fddf252ad1be2c89b69c2b068fc378daa952ba7f163c4a11628f55a4df523b3ef908290a45050565b611ce5848484611910565b611cf184848484612166565b61132e5760405162461bcd60e51b81526004018080602001828103825260328152602001806126b96032913960400191505060405180910390fd5b606081611d5157506040805180820190915260018152600360fc1b6020820152610955565b8160005b8115611d6957600101600a82049150611d55565b60608167ffffffffffffffff81118015611d8257600080fd5b506040519080825280601f01601f191660200182016040528015611dad576020820181803683370190505b50859350905060001982015b8315611dfe57600a840660300160f81b82828060019003935081518110611ddc57fe5b60200101906001600160f81b031916908160001a905350600a84049350611db9565b50949350505050565b6000610f7f838361214e565b600033301415611e6b5760606000368080601f0160208091040260200160405190810160405280939291908181526020018383808284376000920191909152505050503601516001600160a01b03169150611e6e9050565b50335b90565b60006040518060800160405280604381526020016126eb60439139805190602001208260000151836020015184604001518051906020012060405160200180858152602001848152602001836001600160a01b03166001600160a01b03168152602001828152602001945050505050604051602081830303815290604052805190602001209050919050565b6000611f07610e5e565b82604051602001808061190160f01b81525060020183815260200182815260200192505050604051602081830303815290604052805190602001209050919050565b5490565b6000610f7f83836122e6565b6000610f7f83836123ac565b6000611b8184846001600160a01b0385166123f6565b6000610f7f836001600160a01b0384166123ac565b81546000908210611fd25760405162461bcd60e51b81526004018080602001828103825260228152602001806126686022913960400191505060405180910390fd5b826000018281548110611fe157fe5b9060005260206000200154905092915050565b6000610f7f836001600160a01b0384166122e6565b81546000908190831061204d5760405162461bcd60e51b815260040180806020018281038252602281526020018061285e6022913960400191505060405180910390fd5b600084600001848154811061205e57fe5b906000526020600020906002020190508060000154816001015492509250509250929050565b6000828152600184016020526040812054828161211f5760405162461bcd60e51b81526004018080602001828103825283818151815260200191508051906020019080838360005b838110156120e45781810151838201526020016120cc565b50505050905090810190601f1680156121115780820380516001836020036101000a031916815260200191505b509250505060405180910390fd5b5084600001600182038154811061213257fe5b9060005260206000209060020201600101549150509392505050565b60009081526001919091016020526040902054151590565b600061217a846001600160a01b031661248d565b61218657506001611908565b60606122ac630a85bd0160e11b61219b6116b2565b88878760405160240180856001600160a01b03166001600160a01b03168152602001846001600160a01b03166001600160a01b0316815260200183815260200180602001828103825283818151815260200191508051906020019080838360005b838110156122145781810151838201526020016121fc565b50505050905090810190601f1680156122415780820380516001836020036101000a031916815260200191505b5095505050505050604051602081830303815290604052906001600160e01b0319166020820180516001600160e01b0383818316178352505050506040518060600160405280603281526020016126b9603291396001600160a01b038816919063ffffffff6124c616565b905060008180602001905160208110156122c557600080fd5b50516001600160e01b031916630a85bd0160e11b1492505050949350505050565b600081815260018301602052604081205480156123a2578354600019808301919081019060009087908390811061231957fe5b906000526020600020015490508087600001848154811061233657fe5b60009182526020808320909101929092558281526001898101909252604090209084019055865487908061236657fe5b60019003818190600052602060002001600090559055866001016000878152602001908152602001600020600090556001945050505050610f82565b6000915050610f82565b60006123b8838361214e565b6123ee57508154600181810184556000848152602080822090930184905584548482528286019093526040902091909155610f82565b506000610f82565b60008281526001840160205260408120548061245b575050604080518082018252838152602080820184815286546001818101895560008981528481209551600290930290950191825591519082015586548684528188019092529290912055611b84565b8285600001600183038154811061246e57fe5b9060005260206000209060020201600101819055506000915050611b84565b6000813f7fc5d2460186f7233c927e7db2dcc703c0e500b653ca82273b7bfad8045d85a470818114801590611908575050151592915050565b6060611b81848460008560606124db8561248d565b61252c576040805162461bcd60e51b815260206004820152601d60248201527f416464726573733a2063616c6c20746f206e6f6e2d636f6e7472616374000000604482015290519081900360640190fd5b60006060866001600160a01b031685876040518082805190602001908083835b6020831061256b5780518252601f19909201916020918201910161254c565b6001836020036101000a03801982511681845116808217855250505050505090500191505060006040518083038185875af1925050503d80600081146125cd576040519150601f19603f3d011682016040523d82523d6000602084013e6125d2565b606091505b509150915081156125e65791506119089050565b8051156125f65780518082602001fd5b60405162461bcd60e51b81526020600482018181528651602484015286518793919283926044019190850190808383600083156120e45781810151838201526020016120cc565b60405180606001604052806000815260200160006001600160a01b0316815260200160608152509056fe456e756d657261626c655365743a20696e646578206f7574206f6620626f756e6473416363657373436f6e74726f6c3a2073656e646572206d75737420626520616e2061646d696e20746f206772616e744552433732313a207472616e7366657220746f206e6f6e20455243373231526563656976657220696d706c656d656e7465724d6574615472616e73616374696f6e2875696e74323536206e6f6e63652c616464726573732066726f6d2c62797465732066756e6374696f6e5369676e6174757265294552433732313a207472616e7366657220746f20746865207a65726f20616464726573734552433732313a206f70657261746f7220717565727920666f72206e6f6e6578697374656e7420746f6b656e416363657373436f6e74726f6c3a2073656e646572206d75737420626520616e2061646d696e20746f207265766f6b654e61746976654d6574615472616e73616374696f6e3a20494e56414c49445f5349474e45524552433732313a20617070726f76652063616c6c6572206973206e6f74206f776e6572206e6f7220617070726f76656420666f7220616c6c4552433732313a2062616c616e636520717565727920666f7220746865207a65726f20616464726573734552433732313a206f776e657220717565727920666f72206e6f6e6578697374656e7420746f6b656e456e756d657261626c654d61703a20696e646578206f7574206f6620626f756e64734552433732313a20617070726f76656420717565727920666f72206e6f6e6578697374656e7420746f6b656e4552433732313a207472616e73666572206f6620746f6b656e2074686174206973206e6f74206f776e5369676e657220616e64207369676e617475726520646f206e6f74206d617463684552433732314d657461646174613a2055524920717565727920666f72206e6f6e6578697374656e7420746f6b656e4552433732313a20617070726f76616c20746f2063757272656e74206f776e65724552433732313a207472616e736665722063616c6c6572206973206e6f74206f776e6572206e6f7220617070726f766564416363657373436f6e74726f6c3a2063616e206f6e6c792072656e6f756e636520726f6c657320666f722073656c66a2646970667358221220844fb73ab72e848d4d5f1bc2f477813e26390caceabb6f5bbc108fe548565e2264736f6c63430006060033454950373132446f6d61696e28737472696e67206e616d652c737472696e672076657273696f6e2c6164647265737320766572696679696e67436f6e74726163742c627974657333322073616c7429",
  "immutableReferences": {},
  "source": "// This contract is not supposed to be used in production\n// It's strictly for testing purpose\n\npragma solidity 0.6.6;\n\nimport {ERC721} from \"@openzeppelin/contracts/token/ERC721/ERC721.sol\";\nimport {AccessControlMixin} from \"../../common/AccessControlMixin.sol\";\nimport {NativeMetaTransaction} from \"../../common/NativeMetaTransaction.sol\";\nimport {ContextMixin} from \"../../common/ContextMixin.sol\";\n\ncontract DummyERC721 is\n    ERC721,\n    AccessControlMixin,\n    NativeMetaTransaction,\n    ContextMixin\n{\n    bytes32 public constant PREDICATE_ROLE = keccak256(\"PREDICATE_ROLE\");\n    constructor(string memory name_, string memory symbol_)\n        public\n        ERC721(name_, symbol_)\n    {\n        _setupContractId(\"DummyERC721\");\n        _setupRole(DEFAULT_ADMIN_ROLE, _msgSender());\n        _setupRole(PREDICATE_ROLE, _msgSender());\n        _initializeEIP712(name_);\n    }\n\n    function mint(uint256 tokenId) public {\n        _mint(_msgSender(), tokenId);\n    }\n\n    function _msgSender()\n        internal\n        override\n        view\n        returns (address payable sender)\n    {\n        return ContextMixin.msgSender();\n    }\n}\n",
  "sourcePath": "/Users/ohm.jirapon/playground/blockhain/layer-2/plasma-ploygon/matic-cli/devnet/code/pos-portal/contracts/root/RootToken/DummyERC721.sol",
  "compiler": {
    "name": "solc",
    "version": "0.6.6+commit.6c089d02.Linux.g++"
  },
  "schemaVersion": "3.4.9",
  "updatedAt": "2022-08-22T08:24:35.599Z",
  "networkType": "ethereum",
  "devdoc": {
    "methods": {
      "approve(address,uint256)": {
        "details": "See {IERC721-approve}."
      },
      "balanceOf(address)": {
        "details": "See {IERC721-balanceOf}."
      },
      "baseURI()": {
        "details": "Returns the base URI set via {_setBaseURI}. This will be automatically added as a prefix in {tokenURI} to each token's URI, or to the token ID if no specific URI is set for that token ID."
      },
      "getApproved(uint256)": {
        "details": "See {IERC721-getApproved}."
      },
      "getRoleAdmin(bytes32)": {
        "details": "Returns the admin role that controls `role`. See {grantRole} and {revokeRole}.     * To change a role's admin, use {_setRoleAdmin}."
      },
      "getRoleMember(bytes32,uint256)": {
        "details": "Returns one of the accounts that have `role`. `index` must be a value between 0 and {getRoleMemberCount}, non-inclusive.     * Role bearers are not sorted in any particular way, and their ordering may change at any point.     * WARNING: When using {getRoleMember} and {getRoleMemberCount}, make sure you perform all queries on the same block. See the following https://forum.openzeppelin.com/t/iterating-over-elements-on-enumerableset-in-openzeppelin-contracts/2296[forum post] for more information."
      },
      "getRoleMemberCount(bytes32)": {
        "details": "Returns the number of accounts that have `role`. Can be used together with {getRoleMember} to enumerate all bearers of a role."
      },
      "grantRole(bytes32,address)": {
        "details": "Grants `role` to `account`.     * If `account` had not been already granted `role`, emits a {RoleGranted} event.     * Requirements:     * - the caller must have ``role``'s admin role."
      },
      "hasRole(bytes32,address)": {
        "details": "Returns `true` if `account` has been granted `role`."
      },
      "isApprovedForAll(address,address)": {
        "details": "See {IERC721-isApprovedForAll}."
      },
      "name()": {
        "details": "See {IERC721Metadata-name}."
      },
      "ownerOf(uint256)": {
        "details": "See {IERC721-ownerOf}."
      },
      "renounceRole(bytes32,address)": {
        "details": "Revokes `role` from the calling account.     * Roles are often managed via {grantRole} and {revokeRole}: this function's purpose is to provide a mechanism for accounts to lose their privileges if they are compromised (such as when a trusted device is misplaced).     * If the calling account had been granted `role`, emits a {RoleRevoked} event.     * Requirements:     * - the caller must be `account`."
      },
      "revokeRole(bytes32,address)": {
        "details": "Revokes `role` from `account`.     * If `account` had been granted `role`, emits a {RoleRevoked} event.     * Requirements:     * - the caller must have ``role``'s admin role."
      },
      "safeTransferFrom(address,address,uint256)": {
        "details": "See {IERC721-safeTransferFrom}."
      },
      "safeTransferFrom(address,address,uint256,bytes)": {
        "details": "See {IERC721-safeTransferFrom}."
      },
      "setApprovalForAll(address,bool)": {
        "details": "See {IERC721-setApprovalForAll}."
      },
      "supportsInterface(bytes4)": {
        "details": "See {IERC165-supportsInterface}.     * Time complexity O(1), guaranteed to always use less than 30 000 gas."
      },
      "symbol()": {
        "details": "See {IERC721Metadata-symbol}."
      },
      "tokenByIndex(uint256)": {
        "details": "See {IERC721Enumerable-tokenByIndex}."
      },
      "tokenOfOwnerByIndex(address,uint256)": {
        "details": "See {IERC721Enumerable-tokenOfOwnerByIndex}."
      },
      "tokenURI(uint256)": {
        "details": "See {IERC721Metadata-tokenURI}."
      },
      "totalSupply()": {
        "details": "See {IERC721Enumerable-totalSupply}."
      },
      "transferFrom(address,address,uint256)": {
        "details": "See {IERC721-transferFrom}."
      }
    }
  },
  "userdoc": {
    "methods": {}
  }
}