{
  "contractName": "DummyERC721",
  "abi": [
    {
      "inputs": [
        {
          "internalType": "string",
          "name": "name_",
          "type": "string"
        },
        {
          "internalType": "string",
          "name": "symbol_",
          "type": "string"
        }
      ],
      "stateMutability": "nonpayable",
      "type": "constructor"
    },
    {
      "anonymous": false,
      "inputs": [
        {
          "indexed": true,
          "internalType": "address",
          "name": "owner",
          "type": "address"
        },
        {
          "indexed": true,
          "internalType": "address",
          "name": "approved",
          "type": "address"
        },
        {
          "indexed": true,
          "internalType": "uint256",
          "name": "tokenId",
          "type": "uint256"
        }
      ],
      "name": "Approval",
      "type": "event"
    },
    {
      "anonymous": false,
      "inputs": [
        {
          "indexed": true,
          "internalType": "address",
          "name": "owner",
          "type": "address"
        },
        {
          "indexed": true,
          "internalType": "address",
          "name": "operator",
          "type": "address"
        },
        {
          "indexed": false,
          "internalType": "bool",
          "name": "approved",
          "type": "bool"
        }
      ],
      "name": "ApprovalForAll",
      "type": "event"
    },
    {
      "anonymous": false,
      "inputs": [
        {
          "indexed": false,
          "internalType": "address",
          "name": "userAddress",
          "type": "address"
        },
        {
          "indexed": false,
          "internalType": "address payable",
          "name": "relayerAddress",
          "type": "address"
        },
        {
          "indexed": false,
          "internalType": "bytes",
          "name": "functionSignature",
          "type": "bytes"
        }
      ],
      "name": "MetaTransactionExecuted",
      "type": "event"
    },
    {
      "anonymous": false,
      "inputs": [
        {
          "indexed": true,
          "internalType": "bytes32",
          "name": "role",
          "type": "bytes32"
        },
        {
          "indexed": true,
          "internalType": "bytes32",
          "name": "previousAdminRole",
          "type": "bytes32"
        },
        {
          "indexed": true,
          "internalType": "bytes32",
          "name": "newAdminRole",
          "type": "bytes32"
        }
      ],
      "name": "RoleAdminChanged",
      "type": "event"
    },
    {
      "anonymous": false,
      "inputs": [
        {
          "indexed": true,
          "internalType": "bytes32",
          "name": "role",
          "type": "bytes32"
        },
        {
          "indexed": true,
          "internalType": "address",
          "name": "account",
          "type": "address"
        },
        {
          "indexed": true,
          "internalType": "address",
          "name": "sender",
          "type": "address"
        }
      ],
      "name": "RoleGranted",
      "type": "event"
    },
    {
      "anonymous": false,
      "inputs": [
        {
          "indexed": true,
          "internalType": "bytes32",
          "name": "role",
          "type": "bytes32"
        },
        {
          "indexed": true,
          "internalType": "address",
          "name": "account",
          "type": "address"
        },
        {
          "indexed": true,
          "internalType": "address",
          "name": "sender",
          "type": "address"
        }
      ],
      "name": "RoleRevoked",
      "type": "event"
    },
    {
      "anonymous": false,
      "inputs": [
        {
          "indexed": true,
          "internalType": "address",
          "name": "from",
          "type": "address"
        },
        {
          "indexed": true,
          "internalType": "address",
          "name": "to",
          "type": "address"
        },
        {
          "indexed": true,
          "internalType": "uint256",
          "name": "tokenId",
          "type": "uint256"
        }
      ],
      "name": "Transfer",
      "type": "event"
    },
    {
      "inputs": [],
      "name": "DEFAULT_ADMIN_ROLE",
      "outputs": [
        {
          "internalType": "bytes32",
          "name": "",
          "type": "bytes32"
        }
      ],
      "stateMutability": "view",
      "type": "function",
      "constant": true
    },
    {
      "inputs": [],
      "name": "ERC712_VERSION",
      "outputs": [
        {
          "internalType": "string",
          "name": "",
          "type": "string"
        }
      ],
      "stateMutability": "view",
      "type": "function",
      "constant": true
    },
    {
      "inputs": [],
      "name": "PREDICATE_ROLE",
      "outputs": [
        {
          "internalType": "bytes32",
          "name": "",
          "type": "bytes32"
        }
      ],
      "stateMutability": "view",
      "type": "function",
      "constant": true
    },
    {
      "inputs": [
        {
          "internalType": "address",
          "name": "to",
          "type": "address"
        },
        {
          "internalType": "uint256",
          "name": "tokenId",
          "type": "uint256"
        }
      ],
      "name": "approve",
      "outputs": [],
      "stateMutability": "nonpayable",
      "type": "function"
    },
    {
      "inputs": [
        {
          "internalType": "address",
          "name": "owner",
          "type": "address"
        }
      ],
      "name": "balanceOf",
      "outputs": [
        {
          "internalType": "uint256",
          "name": "",
          "type": "uint256"
        }
      ],
      "stateMutability": "view",
      "type": "function",
      "constant": true
    },
    {
      "inputs": [],
      "name": "baseURI",
      "outputs": [
        {
          "internalType": "string",
          "name": "",
          "type": "string"
        }
      ],
      "stateMutability": "view",
      "type": "function",
      "constant": true
    },
    {
      "inputs": [
        {
          "internalType": "address",
          "name": "userAddress",
          "type": "address"
        },
        {
          "internalType": "bytes",
          "name": "functionSignature",
          "type": "bytes"
        },
        {
          "internalType": "bytes32",
          "name": "sigR",
          "type": "bytes32"
        },
        {
          "internalType": "bytes32",
          "name": "sigS",
          "type": "bytes32"
        },
        {
          "internalType": "uint8",
          "name": "sigV",
          "type": "uint8"
        }
      ],
      "name": "executeMetaTransaction",
      "outputs": [
        {
          "internalType": "bytes",
          "name": "",
          "type": "bytes"
        }
      ],
      "stateMutability": "payable",
      "type": "function",
      "payable": true
    },
    {
      "inputs": [
        {
          "internalType": "uint256",
          "name": "tokenId",
          "type": "uint256"
        }
      ],
      "name": "getApproved",
      "outputs": [
        {
          "internalType": "address",
          "name": "",
          "type": "address"
        }
      ],
      "stateMutability": "view",
      "type": "function",
      "constant": true
    },
    {
      "inputs": [],
      "name": "getChainId",
      "outputs": [
        {
          "internalType": "uint256",
          "name": "",
          "type": "uint256"
        }
      ],
      "stateMutability": "pure",
      "type": "function",
      "constant": true
    },
    {
      "inputs": [],
      "name": "getDomainSeperator",
      "outputs": [
        {
          "internalType": "bytes32",
          "name": "",
          "type": "bytes32"
        }
      ],
      "stateMutability": "view",
      "type": "function",
      "constant": true
    },
    {
      "inputs": [
        {
          "internalType": "address",
          "name": "user",
          "type": "address"
        }
      ],
      "name": "getNonce",
      "outputs": [
        {
          "internalType": "uint256",
          "name": "nonce",
          "type": "uint256"
        }
      ],
      "stateMutability": "view",
      "type": "function",
      "constant": true
    },
    {
      "inputs": [
        {
          "internalType": "bytes32",
          "name": "role",
          "type": "bytes32"
        }
      ],
      "name": "getRoleAdmin",
      "outputs": [
        {
          "internalType": "bytes32",
          "name": "",
          "type": "bytes32"
        }
      ],
      "stateMutability": "view",
      "type": "function",
      "constant": true
    },
    {
      "inputs": [
        {
          "internalType": "bytes32",
          "name": "role",
          "type": "bytes32"
        },
        {
          "internalType": "uint256",
          "name": "index",
          "type": "uint256"
        }
      ],
      "name": "getRoleMember",
      "outputs": [
        {
          "internalType": "address",
          "name": "",
          "type": "address"
        }
      ],
      "stateMutability": "view",
      "type": "function",
      "constant": true
    },
    {
      "inputs": [
        {
          "internalType": "bytes32",
          "name": "role",
          "type": "bytes32"
        }
      ],
      "name": "getRoleMemberCount",
      "outputs": [
        {
          "internalType": "uint256",
          "name": "",
          "type": "uint256"
        }
      ],
      "stateMutability": "view",
      "type": "function",
      "constant": true
    },
    {
      "inputs": [
        {
          "internalType": "bytes32",
          "name": "role",
          "type": "bytes32"
        },
        {
          "internalType": "address",
          "name": "account",
          "type": "address"
        }
      ],
      "name": "grantRole",
      "outputs": [],
      "stateMutability": "nonpayable",
      "type": "function"
    },
    {
      "inputs": [
        {
          "internalType": "bytes32",
          "name": "role",
          "type": "bytes32"
        },
        {
          "internalType": "address",
          "name": "account",
          "type": "address"
        }
      ],
      "name": "hasRole",
      "outputs": [
        {
          "internalType": "bool",
          "name": "",
          "type": "bool"
        }
      ],
      "stateMutability": "view",
      "type": "function",
      "constant": true
    },
    {
      "inputs": [
        {
          "internalType": "address",
          "name": "owner",
          "type": "address"
        },
        {
          "internalType": "address",
          "name": "operator",
          "type": "address"
        }
      ],
      "name": "isApprovedForAll",
      "outputs": [
        {
          "internalType": "bool",
          "name": "",
          "type": "bool"
        }
      ],
      "stateMutability": "view",
      "type": "function",
      "constant": true
    },
    {
      "inputs": [],
      "name": "name",
      "outputs": [
        {
          "internalType": "string",
          "name": "",
          "type": "string"
        }
      ],
      "stateMutability": "view",
      "type": "function",
      "constant": true
    },
    {
      "inputs": [
        {
          "internalType": "uint256",
          "name": "tokenId",
          "type": "uint256"
        }
      ],
      "name": "ownerOf",
      "outputs": [
        {
          "internalType": "address",
          "name": "",
          "type": "address"
        }
      ],
      "stateMutability": "view",
      "type": "function",
      "constant": true
    },
    {
      "inputs": [
        {
          "internalType": "bytes32",
          "name": "role",
          "type": "bytes32"
        },
        {
          "internalType": "address",
          "name": "account",
          "type": "address"
        }
      ],
      "name": "renounceRole",
      "outputs": [],
      "stateMutability": "nonpayable",
      "type": "function"
    },
    {
      "inputs": [
        {
          "internalType": "bytes32",
          "name": "role",
          "type": "bytes32"
        },
        {
          "internalType": "address",
          "name": "account",
          "type": "address"
        }
      ],
      "name": "revokeRole",
      "outputs": [],
      "stateMutability": "nonpayable",
      "type": "function"
    },
    {
      "inputs": [
        {
          "internalType": "address",
          "name": "from",
          "type": "address"
        },
        {
          "internalType": "address",
          "name": "to",
          "type": "address"
        },
        {
          "internalType": "uint256",
          "name": "tokenId",
          "type": "uint256"
        }
      ],
      "name": "safeTransferFrom",
      "outputs": [],
      "stateMutability": "nonpayable",
      "type": "function"
    },
    {
      "inputs": [
        {
          "internalType": "address",
          "name": "from",
          "type": "address"
        },
        {
          "internalType": "address",
          "name": "to",
          "type": "address"
        },
        {
          "internalType": "uint256",
          "name": "tokenId",
          "type": "uint256"
        },
        {
          "internalType": "bytes",
          "name": "_data",
          "type": "bytes"
        }
      ],
      "name": "safeTransferFrom",
      "outputs": [],
      "stateMutability": "nonpayable",
      "type": "function"
    },
    {
      "inputs": [
        {
          "internalType": "address",
          "name": "operator",
          "type": "address"
        },
        {
          "internalType": "bool",
          "name": "approved",
          "type": "bool"
        }
      ],
      "name": "setApprovalForAll",
      "outputs": [],
      "stateMutability": "nonpayable",
      "type": "function"
    },
    {
      "inputs": [
        {
          "internalType": "bytes4",
          "name": "interfaceId",
          "type": "bytes4"
        }
      ],
      "name": "supportsInterface",
      "outputs": [
        {
          "internalType": "bool",
          "name": "",
          "type": "bool"
        }
      ],
      "stateMutability": "view",
      "type": "function",
      "constant": true
    },
    {
      "inputs": [],
      "name": "symbol",
      "outputs": [
        {
          "internalType": "string",
          "name": "",
          "type": "string"
        }
      ],
      "stateMutability": "view",
      "type": "function",
      "constant": true
    },
    {
      "inputs": [
        {
          "internalType": "uint256",
          "name": "index",
          "type": "uint256"
        }
      ],
      "name": "tokenByIndex",
      "outputs": [
        {
          "internalType": "uint256",
          "name": "",
          "type": "uint256"
        }
      ],
      "stateMutability": "view",
      "type": "function",
      "constant": true
    },
    {
      "inputs": [
        {
          "internalType": "address",
          "name": "owner",
          "type": "address"
        },
        {
          "internalType": "uint256",
          "name": "index",
          "type": "uint256"
        }
      ],
      "name": "tokenOfOwnerByIndex",
      "outputs": [
        {
          "internalType": "uint256",
          "name": "",
          "type": "uint256"
        }
      ],
      "stateMutability": "view",
      "type": "function",
      "constant": true
    },
    {
      "inputs": [
        {
          "internalType": "uint256",
          "name": "tokenId",
          "type": "uint256"
        }
      ],
      "name": "tokenURI",
      "outputs": [
        {
          "internalType": "string",
          "name": "",
          "type": "string"
        }
      ],
      "stateMutability": "view",
      "type": "function",
      "constant": true
    },
    {
      "inputs": [],
      "name": "totalSupply",
      "outputs": [
        {
          "internalType": "uint256",
          "name": "",
          "type": "uint256"
        }
      ],
      "stateMutability": "view",
      "type": "function",
      "constant": true
    },
    {
      "inputs": [
        {
          "internalType": "address",
          "name": "from",
          "type": "address"
        },
        {
          "internalType": "address",
          "name": "to",
          "type": "address"
        },
        {
          "internalType": "uint256",
          "name": "tokenId",
          "type": "uint256"
        }
      ],
      "name": "transferFrom",
      "outputs": [],
      "stateMutability": "nonpayable",
      "type": "function"
    },
    {
      "inputs": [
        {
          "internalType": "uint256",
          "name": "tokenId",
          "type": "uint256"
        }
      ],
      "name": "mint",
      "outputs": [],
      "stateMutability": "nonpayable",
      "type": "function"
    },
    {
      "inputs": [
        {
          "internalType": "uint256",
          "name": "tokenId",
          "type": "uint256"
        },
        {
          "internalType": "bytes",
          "name": "data",
          "type": "bytes"
        }
      ],
      "name": "setTokenMetadata",
      "outputs": [],
      "stateMutability": "nonpayable",
      "type": "function"
    }
  ],
  "bytecode": "0x6080604052600c805460ff191690553480156200001b57600080fd5b506040516200351b3803806200351b833981810160405260408110156200004157600080fd5b81019080805160405193929190846401000000008211156200006257600080fd5b9083019060208201858111156200007857600080fd5b82516401000000008111828201881017156200009357600080fd5b82525081516020918201929091019080838360005b83811015620000c2578181015183820152602001620000a8565b50505050905090810190601f168015620000f05780820380516001836020036101000a031916815260200191505b50604052602001805160405193929190846401000000008211156200011457600080fd5b9083019060208201858111156200012a57600080fd5b82516401000000008111828201881017156200014557600080fd5b82525081516020918201929091019080838360005b83811015620001745781810151838201526020016200015a565b50505050905090810190601f168015620001a25780820380516001836020036101000a031916815260200191505b5060405250839150829050620001c86301ffc9a760e01b6001600160e01b03620002fc16565b8151620001dd9060069060208501906200070f565b508051620001f39060079060208401906200070f565b506200020f6380ac58cd60e01b6001600160e01b03620002fc16565b6200022a635b5e139f60e01b6001600160e01b03620002fc16565b6200024563780e9d6360e01b6001600160e01b03620002fc16565b505060408051808201909152600b81526a44756d6d7945524337323160a81b60208201526200027d906001600160e01b036200038116565b620002a56000620002966001600160e01b036200042716565b6001600160e01b036200044416565b604080516d5052454449434154455f524f4c4560901b8152905190819003600e019020620002e090620002966001600160e01b036200042716565b620002f4826001600160e01b036200045916565b5050620007b1565b6001600160e01b031980821614156200035c576040805162461bcd60e51b815260206004820152601c60248201527f4552433136353a20696e76616c696420696e7465726661636520696400000000604482015290519081900360640190fd5b6001600160e01b0319166000908152602081905260409020805460ff19166001179055565b806040516020018082805190602001908083835b60208310620003b65780518252601f19909201916020918201910162000395565b51815160209384036101000a60001901801990921691161790527f3a20494e53554646494349454e545f5045524d495353494f4e530000000000009190930190815260408051808303600519018152601a90920190528051620004239550600b945092019190506200070f565b5050565b60006200043e620004c760201b620020801760201c565b90505b90565b6200042382826001600160e01b036200052616565b600c5460ff1615620004a3576040805162461bcd60e51b815260206004820152600e60248201526d185b1c9958591e481a5b9a5d195960921b604482015290519081900360640190fd5b620004b7816001600160e01b03620005aa16565b50600c805460ff19166001179055565b600033301415620005215760606000368080601f0160208091040260200160405190810160405280939291908181526020018383808284376000920191909152505050503601516001600160a01b03169150620004419050565b503390565b6000828152600a602090815260409091206200054d918390620021e762000672821b17901c565b156200042357620005666001600160e01b036200042716565b6001600160a01b0316816001600160a01b0316837f2f8788117e7eff1d82e926ec794901d17c78024a50270940304540a733656f0d60405160405180910390a45050565b6040518060800160405280604f8152602001620034cc604f913980516020918201208251838301206040805180820190915260018152603160f81b930192909252907fc89efdaa54c0f20c7adf612882df0950f5a951637e0307cdcb4c672f298b8bc630620006216001600160e01b036200069b16565b604080516020808201979097528082019590955260608501939093526001600160a01b03909116608084015260a0808401919091528151808403909101815260c090920190528051910120600d5550565b600062000692836001600160a01b0384166001600160e01b036200069f16565b90505b92915050565b4690565b6000620006b683836001600160e01b03620006f716565b620006ee5750815460018181018455600084815260208082209093018490558454848252828601909352604090209190915562000695565b50600062000695565b60009081526001919091016020526040902054151590565b828054600181600116156101000203166002900490600052602060002090601f016020900481019282601f106200075257805160ff191683800117855562000782565b8280016001018555821562000782579182015b828111156200078257825182559160200191906001019062000765565b506200079092915062000794565b5090565b6200044191905b808211156200079057600081556001016200079b565b612d0b80620007c16000396000f3fe6080604052600436106101ee5760003560e01c806349b9530b1161010d578063a0712d68116100a0578063c87b56dd1161006f578063c87b56dd146108e3578063ca15c8731461090d578063d547741f14610937578063e72db5fd14610970578063e985e9c514610985576101ee565b8063a0712d6814610798578063a217fddf146107c2578063a22cb465146107d7578063b88d4fde14610812576101ee565b806370a08231116100dc57806370a08231146106e75780639010d07c1461071a57806391d148541461074a57806395d89b4114610783576101ee565b806349b9530b146105fc5780634f6ccce71461067e5780636352211e146106a85780636c0360eb146106d2576101ee565b806323b872dd116101855780632f745c59116101545780632f745c59146105325780633408e4701461056b57806336568abe1461058057806342842e0e146105b9576101ee565b806323b872dd14610459578063248a9ca31461049c5780632d0335ab146104c65780632f2ff15d146104f9576101ee565b80630c53c51c116101c15780630c53c51c146103465780630f7e59701461040857806318160ddd1461041d57806320379ee514610444576101ee565b806301ffc9a7146101f357806306fdde031461023b578063081812fc146102c5578063095ea7b31461030b575b600080fd5b3480156101ff57600080fd5b506102276004803603602081101561021657600080fd5b50356001600160e01b0319166109c0565b604080519115158252519081900360200190f35b34801561024757600080fd5b506102506109e3565b6040805160208082528351818301528351919283929083019185019080838360005b8381101561028a578181015183820152602001610272565b50505050905090810190601f1680156102b75780820380516001836020036101000a031916815260200191505b509250505060405180910390f35b3480156102d157600080fd5b506102ef600480360360208110156102e857600080fd5b5035610a7a565b604080516001600160a01b039092168252519081900360200190f35b34801561031757600080fd5b506103446004803603604081101561032e57600080fd5b506001600160a01b038135169060200135610adc565b005b610250600480360360a081101561035c57600080fd5b6001600160a01b038235169190810190604081016020820135600160201b81111561038657600080fd5b82018360208201111561039857600080fd5b803590602001918460018302840111600160201b831117156103b957600080fd5b91908080601f016020809104026020016040519081016040528093929190818152602001838380828437600092019190915250929550508235935050506020810135906040013560ff16610bb7565b34801561041457600080fd5b50610250610eba565b34801561042957600080fd5b50610432610ed7565b60408051918252519081900360200190f35b34801561045057600080fd5b50610432610ee8565b34801561046557600080fd5b506103446004803603606081101561047c57600080fd5b506001600160a01b03813581169160208101359091169060400135610eee565b3480156104a857600080fd5b50610432600480360360208110156104bf57600080fd5b5035610f45565b3480156104d257600080fd5b50610432600480360360208110156104e957600080fd5b50356001600160a01b0316610f5a565b34801561050557600080fd5b506103446004803603604081101561051c57600080fd5b50803590602001356001600160a01b0316610f75565b34801561053e57600080fd5b506104326004803603604081101561055557600080fd5b506001600160a01b038135169060200135610fe1565b34801561057757600080fd5b50610432611012565b34801561058c57600080fd5b50610344600480360360408110156105a357600080fd5b50803590602001356001600160a01b0316611016565b3480156105c557600080fd5b50610344600480360360608110156105dc57600080fd5b506001600160a01b03813581169160208101359091169060400135611077565b34801561060857600080fd5b506103446004803603604081101561061f57600080fd5b81359190810190604081016020820135600160201b81111561064057600080fd5b82018360208201111561065257600080fd5b803590602001918460018302840111600160201b8311171561067357600080fd5b509092509050611092565b34801561068a57600080fd5b50610432600480360360208110156106a157600080fd5b5035611212565b3480156106b457600080fd5b506102ef600480360360208110156106cb57600080fd5b503561122e565b3480156106de57600080fd5b5061025061125c565b3480156106f357600080fd5b506104326004803603602081101561070a57600080fd5b50356001600160a01b03166112bd565b34801561072657600080fd5b506102ef6004803603604081101561073d57600080fd5b5080359060200135611325565b34801561075657600080fd5b506102276004803603604081101561076d57600080fd5b50803590602001356001600160a01b0316611343565b34801561078f57600080fd5b50610250611361565b3480156107a457600080fd5b50610344600480360360208110156107bb57600080fd5b50356113c2565b3480156107ce57600080fd5b506104326113d6565b3480156107e357600080fd5b50610344600480360360408110156107fa57600080fd5b506001600160a01b03813516906020013515156113db565b34801561081e57600080fd5b506103446004803603608081101561083557600080fd5b6001600160a01b03823581169260208101359091169160408201359190810190608081016060820135600160201b81111561086f57600080fd5b82018360208201111561088157600080fd5b803590602001918460018302840111600160201b831117156108a257600080fd5b91908080601f0160208091040260200160405190810160405280939291908181526020018383808284376000920191909152509295506114e0945050505050565b3480156108ef57600080fd5b506102506004803603602081101561090657600080fd5b503561153e565b34801561091957600080fd5b506104326004803603602081101561093057600080fd5b50356117e5565b34801561094357600080fd5b506103446004803603604081101561095a57600080fd5b50803590602001356001600160a01b03166117fc565b34801561097c57600080fd5b50610432611855565b34801561099157600080fd5b50610227600480360360408110156109a857600080fd5b506001600160a01b038135811691602001351661187b565b6001600160e01b0319811660009081526020819052604090205460ff165b919050565b60068054604080516020601f6002600019610100600188161502019095169490940493840181900481028201810190925282815260609390929091830182828015610a6f5780601f10610a4457610100808354040283529160200191610a6f565b820191906000526020600020905b815481529060010190602001808311610a5257829003601f168201915b505050505090505b90565b6000610a85826118a9565b610ac05760405162461bcd60e51b815260040180806020018281038252602c815260200180612b84602c913960400191505060405180910390fd5b506000908152600460205260409020546001600160a01b031690565b6000610ae78261122e565b9050806001600160a01b0316836001600160a01b03161415610b3a5760405162461bcd60e51b8152600401808060200182810382526021815260200180612c556021913960400191505060405180910390fd5b806001600160a01b0316610b4c6118bc565b6001600160a01b03161480610b6d5750610b6d81610b686118bc565b61187b565b610ba85760405162461bcd60e51b8152600401808060200182810382526038815260200180612ad76038913960400191505060405180910390fd5b610bb283836118c6565b505050565b6060610bc16128a9565b50604080516060810182526001600160a01b0388166000818152600e602090815290849020548352820152908101869052610bff8782878787611934565b610c3a5760405162461bcd60e51b8152600401808060200182810382526021815260200180612c056021913960400191505060405180910390fd5b6001600160a01b0387166000908152600e6020526040902054610c6490600163ffffffff611a1116565b6001600160a01b0388166000818152600e602090815260408083209490945583519283523383820181905260609484018581528b51958501959095528a517f5845892132946850460bff5a0083f71031bc5bf9aadcd40f1de79423eac9b10b958d9592948d94919260808501928601918190849084905b83811015610cf3578181015183820152602001610cdb565b50505050905090810190601f168015610d205780820380516001836020036101000a031916815260200191505b5094505050505060405180910390a160006060306001600160a01b0316888a6040516020018083805190602001908083835b60208310610d715780518252601f199092019160209182019101610d52565b6001836020036101000a038019825116818451168082178552505050505050905001826001600160a01b03166001600160a01b031660601b8152601401925050506040516020818303038152906040526040518082805190602001908083835b60208310610df05780518252601f199092019160209182019101610dd1565b6001836020036101000a0380198251168184511680821785525050505050509050019150506000604051808303816000865af19150503d8060008114610e52576040519150601f19603f3d011682016040523d82523d6000602084013e610e57565b606091505b509150915081610eae576040805162461bcd60e51b815260206004820152601c60248201527f46756e6374696f6e2063616c6c206e6f74207375636365737366756c00000000604482015290519081900360640190fd5b98975050505050505050565b604051806040016040528060018152602001603160f81b81525081565b6000610ee36002611a6b565b905090565b600d5490565b610eff610ef96118bc565b82611a76565b610f3a5760405162461bcd60e51b8152600401808060200182810382526031815260200180612c766031913960400191505060405180910390fd5b610bb2838383611b1a565b6000908152600a602052604090206002015490565b6001600160a01b03166000908152600e602052604090205490565b6000828152600a6020526040902060020154610f9890610f936118bc565b611343565b610fd35760405162461bcd60e51b815260040180806020018281038252602f81526020018061298e602f913960400191505060405180910390fd5b610fdd8282611c78565b5050565b6001600160a01b0382166000908152600160205260408120611009908363ffffffff611ce716565b90505b92915050565b4690565b61101e6118bc565b6001600160a01b0316816001600160a01b03161461106d5760405162461bcd60e51b815260040180806020018281038252602f815260200180612ca7602f913960400191505060405180910390fd5b610fdd8282611cf3565b610bb2838383604051806020016040528060008152506114e0565b604080516d5052454449434154455f524f4c4560901b8152905190819003600e0190206110c181610f936118bc565b600b906111615760405162461bcd60e51b81526020600482019081528254600260001961010060018416150201909116046024830181905290918291604490910190849080156111525780601f1061112757610100808354040283529160200191611152565b820191906000526020600020905b81548152906001019060200180831161113557829003601f168201915b50509250505060405180910390fd5b5060608383602081101561117457600080fd5b810190602081018135600160201b81111561118e57600080fd5b8201836020820111156111a057600080fd5b803590602001918460018302840111600160201b831117156111c157600080fd5b91908080601f01602080910402602001604051908101604052809392919081815260200183838082843760009201919091525092965061120b95508a9450869350611d6292505050565b5050505050565b60008061122660028463ffffffff611dc516565b509392505050565b600061100c82604051806060016040528060298152602001612b39602991396002919063ffffffff611de116565b60098054604080516020601f6002600019610100600188161502019095169490940493840181900481028201810190925282815260609390929091830182828015610a6f5780601f10610a4457610100808354040283529160200191610a6f565b60006001600160a01b0382166113045760405162461bcd60e51b815260040180806020018281038252602a815260200180612b0f602a913960400191505060405180910390fd5b6001600160a01b038216600090815260016020526040902061100c90611a6b565b6000828152600a60205260408120611009908363ffffffff611ce716565b6000828152600a60205260408120611009908363ffffffff611df816565b60078054604080516020601f6002600019610100600188161502019095169490940493840181900481028201810190925282815260609390929091830182828015610a6f5780601f10610a4457610100808354040283529160200191610a6f565b6113d36113cd6118bc565b82611e0d565b50565b600081565b6113e36118bc565b6001600160a01b0316826001600160a01b03161415611449576040805162461bcd60e51b815260206004820152601960248201527f4552433732313a20617070726f766520746f2063616c6c657200000000000000604482015290519081900360640190fd5b80600560006114566118bc565b6001600160a01b03908116825260208083019390935260409182016000908120918716808252919093529120805460ff19169215159290921790915561149a6118bc565b60408051841515815290516001600160a01b0392909216917f17307eab39ab6107e8899845ad3d59bd9653f200f220920489ca2b5937696c319181900360200190a35050565b6114f16114eb6118bc565b83611a76565b61152c5760405162461bcd60e51b8152600401808060200182810382526031815260200180612c766031913960400191505060405180910390fd5b61153884848484611f47565b50505050565b6060611549826118a9565b6115845760405162461bcd60e51b815260040180806020018281038252602f815260200180612c26602f913960400191505060405180910390fd5b60008281526008602090815260409182902080548351601f60026000196101006001861615020190931692909204918201849004840281018401909452808452606093928301828280156116195780601f106115ee57610100808354040283529160200191611619565b820191906000526020600020905b8154815290600101906020018083116115fc57829003601f168201915b5050600954939450505050600260001961010060018416150201909116046116425790506109de565b8051156117135760098160405160200180838054600181600116156101000203166002900480156116aa5780601f106116885761010080835404028352918201916116aa565b820191906000526020600020905b815481529060010190602001808311611696575b5050825160208401908083835b602083106116d65780518252601f1990920191602091820191016116b7565b6001836020036101000a038019825116818451168082178552505050505050905001925050506040516020818303038152906040529150506109de565b600961171e84611f99565b604051602001808380546001816001161561010002031660029004801561177c5780601f1061175a57610100808354040283529182019161177c565b820191906000526020600020905b815481529060010190602001808311611768575b5050825160208401908083835b602083106117a85780518252601f199092019160209182019101611789565b6001836020036101000a03801982511681845116808217855250505050505090500192505050604051602081830303815290604052915050919050565b6000818152600a6020526040812061100c90611a6b565b6000828152600a602052604090206002015461181a90610f936118bc565b61106d5760405162461bcd60e51b8152600401808060200182810382526030815260200180612a826030913960400191505060405180910390fd5b604080516d5052454449434154455f524f4c4560901b8152905190819003600e01902081565b6001600160a01b03918216600090815260056020908152604080832093909416825291909152205460ff1690565b600061100c60028363ffffffff61207416565b6000610ee3612080565b600081815260046020526040902080546001600160a01b0319166001600160a01b03841690811790915581906118fb8261122e565b6001600160a01b03167f8c5be1e5ebec7d5bd14f71427d1e84f3dd0314c0f7b2291e5b200ac8c7c3b92560405160405180910390a45050565b60006001600160a01b03861661197b5760405162461bcd60e51b8152600401808060200182810382526025815260200180612ab26025913960400191505060405180910390fd5b600161198e611989876120dd565b612169565b83868660405160008152602001604052604051808581526020018460ff1660ff1681526020018381526020018281526020019450505050506020604051602081039080840390855afa1580156119e8573d6000803e3d6000fd5b505050602060405103516001600160a01b0316866001600160a01b031614905095945050505050565b600082820183811015611009576040805162461bcd60e51b815260206004820152601b60248201527f536166654d6174683a206164646974696f6e206f766572666c6f770000000000604482015290519081900360640190fd5b600061100c826121b5565b6000611a81826118a9565b611abc5760405162461bcd60e51b815260040180806020018281038252602c815260200180612a56602c913960400191505060405180910390fd5b6000611ac78361122e565b9050806001600160a01b0316846001600160a01b03161480611b025750836001600160a01b0316611af784610a7a565b6001600160a01b0316145b80611b125750611b12818561187b565b949350505050565b826001600160a01b0316611b2d8261122e565b6001600160a01b031614611b725760405162461bcd60e51b8152600401808060200182810382526029815260200180612bdc6029913960400191505060405180910390fd5b6001600160a01b038216611bb75760405162461bcd60e51b8152600401808060200182810382526024815260200180612a326024913960400191505060405180910390fd5b611bc2838383610bb2565b611bcd6000826118c6565b6001600160a01b0383166000908152600160205260409020611bf5908263ffffffff6121b916565b506001600160a01b0382166000908152600160205260409020611c1e908263ffffffff6121c516565b50611c316002828463ffffffff6121d116565b5080826001600160a01b0316846001600160a01b03167fddf252ad1be2c89b69c2b068fc378daa952ba7f163c4a11628f55a4df523b3ef60405160405180910390a4505050565b6000828152600a60205260409020611c96908263ffffffff6121e716565b15610fdd57611ca36118bc565b6001600160a01b0316816001600160a01b0316837f2f8788117e7eff1d82e926ec794901d17c78024a50270940304540a733656f0d60405160405180910390a45050565b600061100983836121fc565b6000828152600a60205260409020611d11908263ffffffff61226016565b15610fdd57611d1e6118bc565b6001600160a01b0316816001600160a01b0316837ff6391f5c32d9c69d2a47ea670b442974b53935d1edc7fd64eb21e047a839171b60405160405180910390a45050565b611d6b826118a9565b611da65760405162461bcd60e51b815260040180806020018281038252602c815260200180612bb0602c913960400191505060405180910390fd5b60008281526008602090815260409091208251610bb2928401906128d3565b6000808080611dd48686612275565b9097909650945050505050565b6000611dee8484846122f0565b90505b9392505050565b6000611009836001600160a01b0384166123ba565b6001600160a01b038216611e68576040805162461bcd60e51b815260206004820181905260248201527f4552433732313a206d696e7420746f20746865207a65726f2061646472657373604482015290519081900360640190fd5b611e71816118a9565b15611ec3576040805162461bcd60e51b815260206004820152601c60248201527f4552433732313a20746f6b656e20616c7265616479206d696e74656400000000604482015290519081900360640190fd5b611ecf60008383610bb2565b6001600160a01b0382166000908152600160205260409020611ef7908263ffffffff6121c516565b50611f0a6002828463ffffffff6121d116565b5060405181906001600160a01b038416906000907fddf252ad1be2c89b69c2b068fc378daa952ba7f163c4a11628f55a4df523b3ef908290a45050565b611f52848484611b1a565b611f5e848484846123d2565b6115385760405162461bcd60e51b81526004018080602001828103825260328152602001806129bd6032913960400191505060405180910390fd5b606081611fbe57506040805180820190915260018152600360fc1b60208201526109de565b8160005b8115611fd657600101600a82049150611fc2565b60608167ffffffffffffffff81118015611fef57600080fd5b506040519080825280601f01601f19166020018201604052801561201a576020820181803683370190505b50859350905060001982015b831561206b57600a840660300160f81b8282806001900393508151811061204957fe5b60200101906001600160f81b031916908160001a905350600a84049350612026565b50949350505050565b600061100983836123ba565b6000333014156120d85760606000368080601f0160208091040260200160405190810160405280939291908181526020018383808284376000920191909152505050503601516001600160a01b03169150610a779050565b503390565b60006040518060800160405280604381526020016129ef60439139805190602001208260000151836020015184604001518051906020012060405160200180858152602001848152602001836001600160a01b03166001600160a01b03168152602001828152602001945050505050604051602081830303815290604052805190602001209050919050565b6000612173610ee8565b82604051602001808061190160f01b81525060020183815260200182815260200192505050604051602081830303815290604052805190602001209050919050565b5490565b60006110098383612552565b60006110098383612618565b6000611dee84846001600160a01b038516612662565b6000611009836001600160a01b038416612618565b8154600090821061223e5760405162461bcd60e51b815260040180806020018281038252602281526020018061296c6022913960400191505060405180910390fd5b82600001828154811061224d57fe5b9060005260206000200154905092915050565b6000611009836001600160a01b038416612552565b8154600090819083106122b95760405162461bcd60e51b8152600401808060200182810382526022815260200180612b626022913960400191505060405180910390fd5b60008460000184815481106122ca57fe5b906000526020600020906002020190508060000154816001015492509250509250929050565b6000828152600184016020526040812054828161238b5760405162461bcd60e51b81526004018080602001828103825283818151815260200191508051906020019080838360005b83811015612350578181015183820152602001612338565b50505050905090810190601f16801561237d5780820380516001836020036101000a031916815260200191505b509250505060405180910390fd5b5084600001600182038154811061239e57fe5b9060005260206000209060020201600101549150509392505050565b60009081526001919091016020526040902054151590565b60006123e6846001600160a01b03166126f9565b6123f257506001611b12565b6060612518630a85bd0160e11b6124076118bc565b88878760405160240180856001600160a01b03166001600160a01b03168152602001846001600160a01b03166001600160a01b0316815260200183815260200180602001828103825283818151815260200191508051906020019080838360005b83811015612480578181015183820152602001612468565b50505050905090810190601f1680156124ad5780820380516001836020036101000a031916815260200191505b5095505050505050604051602081830303815290604052906001600160e01b0319166020820180516001600160e01b0383818316178352505050506040518060600160405280603281526020016129bd603291396001600160a01b038816919063ffffffff61273216565b9050600081806020019051602081101561253157600080fd5b50516001600160e01b031916630a85bd0160e11b1492505050949350505050565b6000818152600183016020526040812054801561260e578354600019808301919081019060009087908390811061258557fe5b90600052602060002001549050808760000184815481106125a257fe5b6000918252602080832090910192909255828152600189810190925260409020908401905586548790806125d257fe5b6001900381819060005260206000200160009055905586600101600087815260200190815260200160002060009055600194505050505061100c565b600091505061100c565b600061262483836123ba565b61265a5750815460018181018455600084815260208082209093018490558454848252828601909352604090209190915561100c565b50600061100c565b6000828152600184016020526040812054806126c7575050604080518082018252838152602080820184815286546001818101895560008981528481209551600290930290950191825591519082015586548684528188019092529290912055611df1565b828560000160018303815481106126da57fe5b9060005260206000209060020201600101819055506000915050611df1565b6000813f7fc5d2460186f7233c927e7db2dcc703c0e500b653ca82273b7bfad8045d85a470818114801590611b12575050151592915050565b6060611dee84846000856060612747856126f9565b612798576040805162461bcd60e51b815260206004820152601d60248201527f416464726573733a2063616c6c20746f206e6f6e2d636f6e7472616374000000604482015290519081900360640190fd5b60006060866001600160a01b031685876040518082805190602001908083835b602083106127d75780518252601f1990920191602091820191016127b8565b6001836020036101000a03801982511681845116808217855250505050505090500191505060006040518083038185875af1925050503d8060008114612839576040519150601f19603f3d011682016040523d82523d6000602084013e61283e565b606091505b50915091508115612852579150611b129050565b8051156128625780518082602001fd5b60405162461bcd60e51b8152602060048201818152865160248401528651879391928392604401919085019080838360008315612350578181015183820152602001612338565b60405180606001604052806000815260200160006001600160a01b03168152602001606081525090565b828054600181600116156101000203166002900490600052602060002090601f016020900481019282601f1061291457805160ff1916838001178555612941565b82800160010185558215612941579182015b82811115612941578251825591602001919060010190612926565b5061294d929150612951565b5090565b610a7791905b8082111561294d576000815560010161295756fe456e756d657261626c655365743a20696e646578206f7574206f6620626f756e6473416363657373436f6e74726f6c3a2073656e646572206d75737420626520616e2061646d696e20746f206772616e744552433732313a207472616e7366657220746f206e6f6e20455243373231526563656976657220696d706c656d656e7465724d6574615472616e73616374696f6e2875696e74323536206e6f6e63652c616464726573732066726f6d2c62797465732066756e6374696f6e5369676e6174757265294552433732313a207472616e7366657220746f20746865207a65726f20616464726573734552433732313a206f70657261746f7220717565727920666f72206e6f6e6578697374656e7420746f6b656e416363657373436f6e74726f6c3a2073656e646572206d75737420626520616e2061646d696e20746f207265766f6b654e61746976654d6574615472616e73616374696f6e3a20494e56414c49445f5349474e45524552433732313a20617070726f76652063616c6c6572206973206e6f74206f776e6572206e6f7220617070726f76656420666f7220616c6c4552433732313a2062616c616e636520717565727920666f7220746865207a65726f20616464726573734552433732313a206f776e657220717565727920666f72206e6f6e6578697374656e7420746f6b656e456e756d657261626c654d61703a20696e646578206f7574206f6620626f756e64734552433732313a20617070726f76656420717565727920666f72206e6f6e6578697374656e7420746f6b656e4552433732314d657461646174613a2055524920736574206f66206e6f6e6578697374656e7420746f6b656e4552433732313a207472616e73666572206f6620746f6b656e2074686174206973206e6f74206f776e5369676e657220616e64207369676e617475726520646f206e6f74206d617463684552433732314d657461646174613a2055524920717565727920666f72206e6f6e6578697374656e7420746f6b656e4552433732313a20617070726f76616c20746f2063757272656e74206f776e65724552433732313a207472616e736665722063616c6c6572206973206e6f74206f776e6572206e6f7220617070726f766564416363657373436f6e74726f6c3a2063616e206f6e6c792072656e6f756e636520726f6c657320666f722073656c66a26469706673582212200b559fdac3b010e15aa0476b0f7c29e508a980e33b4e8ab1cccc8964527524e564736f6c63430006060033454950373132446f6d61696e28737472696e67206e616d652c737472696e672076657273696f6e2c6164647265737320766572696679696e67436f6e74726163742c627974657333322073616c7429",
  "immutableReferences": {},
  "source": "// This contract is not supposed to be used in production\n// It's strictly for testing purpose\n\npragma solidity 0.6.6;\n\nimport {ERC721} from \"@openzeppelin/contracts/token/ERC721/ERC721.sol\";\nimport {AccessControlMixin} from \"../../common/AccessControlMixin.sol\";\nimport {NativeMetaTransaction} from \"../../common/NativeMetaTransaction.sol\";\nimport {IRootERC721} from \"./IRootERC721.sol\";\nimport {ContextMixin} from \"../../common/ContextMixin.sol\";\n\ncontract DummyERC721 is\n    ERC721,\n    AccessControlMixin,\n    NativeMetaTransaction,\n    IRootERC721,\n    ContextMixin\n{\n    bytes32 public constant PREDICATE_ROLE = keccak256(\"PREDICATE_ROLE\");\n    constructor(string memory name_, string memory symbol_)\n        public\n        ERC721(name_, symbol_)\n    {\n        _setupContractId(\"DummyERC721\");\n        _setupRole(DEFAULT_ADMIN_ROLE, _msgSender());\n        _setupRole(PREDICATE_ROLE, _msgSender());\n        _initializeEIP712(name_);\n    }\n\n    function mint(uint256 tokenId) public {\n        _mint(_msgSender(), tokenId);\n    }\n\n    /**\n     * If you're attempting to bring metadata associated with token\n     * from L2 to L1, you must implement this method\n     *\n     * To be invoked when attempting to exit ERC721 with metadata from L2\n     *\n     * `data` is nothing but arbitrary byte array which\n     * is brought in L1, by event emitted in L2, during withdraw\n     *\n     * Make sure this method is always callable by Predicate contract\n     * who will invoke it when attempting to exit with metadata\n     */\n    function setTokenMetadata(uint256 tokenId, bytes calldata data) external override only(PREDICATE_ROLE) {\n        // This function should decode metadata obtained from L2\n        // and attempt to set it for this `tokenId`\n        //\n        // Following is just a default implementation, feel\n        // free to define your own encoding/ decoding scheme\n        // for L2 -> L1 token metadata transfer\n        string memory uri = abi.decode(data, (string));\n\n        _setTokenURI(tokenId, uri);\n    }\n\n    function _msgSender()\n        internal\n        override\n        view\n        returns (address payable sender)\n    {\n        return ContextMixin.msgSender();\n    }\n}\n",
  "sourcePath": "/Users/ohm.jirapon/internal/layer-2/layer2-plasma-cli/devnet/code/pos-portal/contracts/root/RootToken/DummyERC721.sol",
  "compiler": {
    "name": "solc",
    "version": "0.6.6+commit.6c089d02.Linux.g++"
  },
  "schemaVersion": "3.2.1",
  "updatedAt": "2022-09-15T05:29:24.236Z",
  "networkType": "ethereum",
  "devdoc": {
    "methods": {
      "approve(address,uint256)": {
        "details": "See {IERC721-approve}."
      },
      "balanceOf(address)": {
        "details": "See {IERC721-balanceOf}."
      },
      "baseURI()": {
        "details": "Returns the base URI set via {_setBaseURI}. This will be automatically added as a prefix in {tokenURI} to each token's URI, or to the token ID if no specific URI is set for that token ID."
      },
      "getApproved(uint256)": {
        "details": "See {IERC721-getApproved}."
      },
      "getRoleAdmin(bytes32)": {
        "details": "Returns the admin role that controls `role`. See {grantRole} and {revokeRole}.     * To change a role's admin, use {_setRoleAdmin}."
      },
      "getRoleMember(bytes32,uint256)": {
        "details": "Returns one of the accounts that have `role`. `index` must be a value between 0 and {getRoleMemberCount}, non-inclusive.     * Role bearers are not sorted in any particular way, and their ordering may change at any point.     * WARNING: When using {getRoleMember} and {getRoleMemberCount}, make sure you perform all queries on the same block. See the following https://forum.openzeppelin.com/t/iterating-over-elements-on-enumerableset-in-openzeppelin-contracts/2296[forum post] for more information."
      },
      "getRoleMemberCount(bytes32)": {
        "details": "Returns the number of accounts that have `role`. Can be used together with {getRoleMember} to enumerate all bearers of a role."
      },
      "grantRole(bytes32,address)": {
        "details": "Grants `role` to `account`.     * If `account` had not been already granted `role`, emits a {RoleGranted} event.     * Requirements:     * - the caller must have ``role``'s admin role."
      },
      "hasRole(bytes32,address)": {
        "details": "Returns `true` if `account` has been granted `role`."
      },
      "isApprovedForAll(address,address)": {
        "details": "See {IERC721-isApprovedForAll}."
      },
      "name()": {
        "details": "See {IERC721Metadata-name}."
      },
      "ownerOf(uint256)": {
        "details": "See {IERC721-ownerOf}."
      },
      "renounceRole(bytes32,address)": {
        "details": "Revokes `role` from the calling account.     * Roles are often managed via {grantRole} and {revokeRole}: this function's purpose is to provide a mechanism for accounts to lose their privileges if they are compromised (such as when a trusted device is misplaced).     * If the calling account had been granted `role`, emits a {RoleRevoked} event.     * Requirements:     * - the caller must be `account`."
      },
      "revokeRole(bytes32,address)": {
        "details": "Revokes `role` from `account`.     * If `account` had been granted `role`, emits a {RoleRevoked} event.     * Requirements:     * - the caller must have ``role``'s admin role."
      },
      "safeTransferFrom(address,address,uint256)": {
        "details": "See {IERC721-safeTransferFrom}."
      },
      "safeTransferFrom(address,address,uint256,bytes)": {
        "details": "See {IERC721-safeTransferFrom}."
      },
      "setApprovalForAll(address,bool)": {
        "details": "See {IERC721-setApprovalForAll}."
      },
      "supportsInterface(bytes4)": {
        "details": "See {IERC165-supportsInterface}.     * Time complexity O(1), guaranteed to always use less than 30 000 gas."
      },
      "symbol()": {
        "details": "See {IERC721Metadata-symbol}."
      },
      "tokenByIndex(uint256)": {
        "details": "See {IERC721Enumerable-tokenByIndex}."
      },
      "tokenOfOwnerByIndex(address,uint256)": {
        "details": "See {IERC721Enumerable-tokenOfOwnerByIndex}."
      },
      "tokenURI(uint256)": {
        "details": "See {IERC721Metadata-tokenURI}."
      },
      "totalSupply()": {
        "details": "See {IERC721Enumerable-totalSupply}."
      },
      "transferFrom(address,address,uint256)": {
        "details": "See {IERC721-transferFrom}."
      }
    }
  },
  "userdoc": {
    "methods": {
      "setTokenMetadata(uint256,bytes)": {
        "notice": "If you're attempting to bring metadata associated with token from L2 to L1, you must implement this method     * To be invoked when attempting to exit ERC721 with metadata from L2     * `data` is nothing but arbitrary byte array which is brought in L1, by event emitted in L2, during withdraw     * Make sure this method is always callable by Predicate contract who will invoke it when attempting to exit with metadata"
      }
    }
  }
}