{
  "contractName": "DummyMintableERC1155",
  "abi": [
    {
      "inputs": [
        {
          "internalType": "string",
          "name": "uri_",
          "type": "string"
        }
      ],
      "stateMutability": "nonpayable",
      "type": "constructor"
    },
    {
      "anonymous": false,
      "inputs": [
        {
          "indexed": true,
          "internalType": "address",
          "name": "account",
          "type": "address"
        },
        {
          "indexed": true,
          "internalType": "address",
          "name": "operator",
          "type": "address"
        },
        {
          "indexed": false,
          "internalType": "bool",
          "name": "approved",
          "type": "bool"
        }
      ],
      "name": "ApprovalForAll",
      "type": "event"
    },
    {
      "anonymous": false,
      "inputs": [
        {
          "indexed": false,
          "internalType": "address",
          "name": "userAddress",
          "type": "address"
        },
        {
          "indexed": false,
          "internalType": "address payable",
          "name": "relayerAddress",
          "type": "address"
        },
        {
          "indexed": false,
          "internalType": "bytes",
          "name": "functionSignature",
          "type": "bytes"
        }
      ],
      "name": "MetaTransactionExecuted",
      "type": "event"
    },
    {
      "anonymous": false,
      "inputs": [
        {
          "indexed": true,
          "internalType": "bytes32",
          "name": "role",
          "type": "bytes32"
        },
        {
          "indexed": true,
          "internalType": "bytes32",
          "name": "previousAdminRole",
          "type": "bytes32"
        },
        {
          "indexed": true,
          "internalType": "bytes32",
          "name": "newAdminRole",
          "type": "bytes32"
        }
      ],
      "name": "RoleAdminChanged",
      "type": "event"
    },
    {
      "anonymous": false,
      "inputs": [
        {
          "indexed": true,
          "internalType": "bytes32",
          "name": "role",
          "type": "bytes32"
        },
        {
          "indexed": true,
          "internalType": "address",
          "name": "account",
          "type": "address"
        },
        {
          "indexed": true,
          "internalType": "address",
          "name": "sender",
          "type": "address"
        }
      ],
      "name": "RoleGranted",
      "type": "event"
    },
    {
      "anonymous": false,
      "inputs": [
        {
          "indexed": true,
          "internalType": "bytes32",
          "name": "role",
          "type": "bytes32"
        },
        {
          "indexed": true,
          "internalType": "address",
          "name": "account",
          "type": "address"
        },
        {
          "indexed": true,
          "internalType": "address",
          "name": "sender",
          "type": "address"
        }
      ],
      "name": "RoleRevoked",
      "type": "event"
    },
    {
      "anonymous": false,
      "inputs": [
        {
          "indexed": true,
          "internalType": "address",
          "name": "operator",
          "type": "address"
        },
        {
          "indexed": true,
          "internalType": "address",
          "name": "from",
          "type": "address"
        },
        {
          "indexed": true,
          "internalType": "address",
          "name": "to",
          "type": "address"
        },
        {
          "indexed": false,
          "internalType": "uint256[]",
          "name": "ids",
          "type": "uint256[]"
        },
        {
          "indexed": false,
          "internalType": "uint256[]",
          "name": "values",
          "type": "uint256[]"
        }
      ],
      "name": "TransferBatch",
      "type": "event"
    },
    {
      "anonymous": false,
      "inputs": [
        {
          "indexed": true,
          "internalType": "address",
          "name": "operator",
          "type": "address"
        },
        {
          "indexed": true,
          "internalType": "address",
          "name": "from",
          "type": "address"
        },
        {
          "indexed": true,
          "internalType": "address",
          "name": "to",
          "type": "address"
        },
        {
          "indexed": false,
          "internalType": "uint256",
          "name": "id",
          "type": "uint256"
        },
        {
          "indexed": false,
          "internalType": "uint256",
          "name": "value",
          "type": "uint256"
        }
      ],
      "name": "TransferSingle",
      "type": "event"
    },
    {
      "anonymous": false,
      "inputs": [
        {
          "indexed": false,
          "internalType": "string",
          "name": "value",
          "type": "string"
        },
        {
          "indexed": true,
          "internalType": "uint256",
          "name": "id",
          "type": "uint256"
        }
      ],
      "name": "URI",
      "type": "event"
    },
    {
      "inputs": [],
      "name": "DEFAULT_ADMIN_ROLE",
      "outputs": [
        {
          "internalType": "bytes32",
          "name": "",
          "type": "bytes32"
        }
      ],
      "stateMutability": "view",
      "type": "function",
      "constant": true
    },
    {
      "inputs": [],
      "name": "ERC712_VERSION",
      "outputs": [
        {
          "internalType": "string",
          "name": "",
          "type": "string"
        }
      ],
      "stateMutability": "view",
      "type": "function",
      "constant": true
    },
    {
      "inputs": [],
      "name": "PREDICATE_ROLE",
      "outputs": [
        {
          "internalType": "bytes32",
          "name": "",
          "type": "bytes32"
        }
      ],
      "stateMutability": "view",
      "type": "function",
      "constant": true
    },
    {
      "inputs": [
        {
          "internalType": "address",
          "name": "account",
          "type": "address"
        },
        {
          "internalType": "uint256",
          "name": "id",
          "type": "uint256"
        }
      ],
      "name": "balanceOf",
      "outputs": [
        {
          "internalType": "uint256",
          "name": "",
          "type": "uint256"
        }
      ],
      "stateMutability": "view",
      "type": "function",
      "constant": true
    },
    {
      "inputs": [
        {
          "internalType": "address[]",
          "name": "accounts",
          "type": "address[]"
        },
        {
          "internalType": "uint256[]",
          "name": "ids",
          "type": "uint256[]"
        }
      ],
      "name": "balanceOfBatch",
      "outputs": [
        {
          "internalType": "uint256[]",
          "name": "",
          "type": "uint256[]"
        }
      ],
      "stateMutability": "view",
      "type": "function",
      "constant": true
    },
    {
      "inputs": [
        {
          "internalType": "address",
          "name": "userAddress",
          "type": "address"
        },
        {
          "internalType": "bytes",
          "name": "functionSignature",
          "type": "bytes"
        },
        {
          "internalType": "bytes32",
          "name": "sigR",
          "type": "bytes32"
        },
        {
          "internalType": "bytes32",
          "name": "sigS",
          "type": "bytes32"
        },
        {
          "internalType": "uint8",
          "name": "sigV",
          "type": "uint8"
        }
      ],
      "name": "executeMetaTransaction",
      "outputs": [
        {
          "internalType": "bytes",
          "name": "",
          "type": "bytes"
        }
      ],
      "stateMutability": "payable",
      "type": "function",
      "payable": true
    },
    {
      "inputs": [],
      "name": "getChainId",
      "outputs": [
        {
          "internalType": "uint256",
          "name": "",
          "type": "uint256"
        }
      ],
      "stateMutability": "pure",
      "type": "function",
      "constant": true
    },
    {
      "inputs": [],
      "name": "getDomainSeperator",
      "outputs": [
        {
          "internalType": "bytes32",
          "name": "",
          "type": "bytes32"
        }
      ],
      "stateMutability": "view",
      "type": "function",
      "constant": true
    },
    {
      "inputs": [
        {
          "internalType": "address",
          "name": "user",
          "type": "address"
        }
      ],
      "name": "getNonce",
      "outputs": [
        {
          "internalType": "uint256",
          "name": "nonce",
          "type": "uint256"
        }
      ],
      "stateMutability": "view",
      "type": "function",
      "constant": true
    },
    {
      "inputs": [
        {
          "internalType": "bytes32",
          "name": "role",
          "type": "bytes32"
        }
      ],
      "name": "getRoleAdmin",
      "outputs": [
        {
          "internalType": "bytes32",
          "name": "",
          "type": "bytes32"
        }
      ],
      "stateMutability": "view",
      "type": "function",
      "constant": true
    },
    {
      "inputs": [
        {
          "internalType": "bytes32",
          "name": "role",
          "type": "bytes32"
        },
        {
          "internalType": "uint256",
          "name": "index",
          "type": "uint256"
        }
      ],
      "name": "getRoleMember",
      "outputs": [
        {
          "internalType": "address",
          "name": "",
          "type": "address"
        }
      ],
      "stateMutability": "view",
      "type": "function",
      "constant": true
    },
    {
      "inputs": [
        {
          "internalType": "bytes32",
          "name": "role",
          "type": "bytes32"
        }
      ],
      "name": "getRoleMemberCount",
      "outputs": [
        {
          "internalType": "uint256",
          "name": "",
          "type": "uint256"
        }
      ],
      "stateMutability": "view",
      "type": "function",
      "constant": true
    },
    {
      "inputs": [
        {
          "internalType": "bytes32",
          "name": "role",
          "type": "bytes32"
        },
        {
          "internalType": "address",
          "name": "account",
          "type": "address"
        }
      ],
      "name": "grantRole",
      "outputs": [],
      "stateMutability": "nonpayable",
      "type": "function"
    },
    {
      "inputs": [
        {
          "internalType": "bytes32",
          "name": "role",
          "type": "bytes32"
        },
        {
          "internalType": "address",
          "name": "account",
          "type": "address"
        }
      ],
      "name": "hasRole",
      "outputs": [
        {
          "internalType": "bool",
          "name": "",
          "type": "bool"
        }
      ],
      "stateMutability": "view",
      "type": "function",
      "constant": true
    },
    {
      "inputs": [
        {
          "internalType": "address",
          "name": "account",
          "type": "address"
        },
        {
          "internalType": "address",
          "name": "operator",
          "type": "address"
        }
      ],
      "name": "isApprovedForAll",
      "outputs": [
        {
          "internalType": "bool",
          "name": "",
          "type": "bool"
        }
      ],
      "stateMutability": "view",
      "type": "function",
      "constant": true
    },
    {
      "inputs": [
        {
          "internalType": "bytes32",
          "name": "role",
          "type": "bytes32"
        },
        {
          "internalType": "address",
          "name": "account",
          "type": "address"
        }
      ],
      "name": "renounceRole",
      "outputs": [],
      "stateMutability": "nonpayable",
      "type": "function"
    },
    {
      "inputs": [
        {
          "internalType": "bytes32",
          "name": "role",
          "type": "bytes32"
        },
        {
          "internalType": "address",
          "name": "account",
          "type": "address"
        }
      ],
      "name": "revokeRole",
      "outputs": [],
      "stateMutability": "nonpayable",
      "type": "function"
    },
    {
      "inputs": [
        {
          "internalType": "address",
          "name": "from",
          "type": "address"
        },
        {
          "internalType": "address",
          "name": "to",
          "type": "address"
        },
        {
          "internalType": "uint256[]",
          "name": "ids",
          "type": "uint256[]"
        },
        {
          "internalType": "uint256[]",
          "name": "amounts",
          "type": "uint256[]"
        },
        {
          "internalType": "bytes",
          "name": "data",
          "type": "bytes"
        }
      ],
      "name": "safeBatchTransferFrom",
      "outputs": [],
      "stateMutability": "nonpayable",
      "type": "function"
    },
    {
      "inputs": [
        {
          "internalType": "address",
          "name": "from",
          "type": "address"
        },
        {
          "internalType": "address",
          "name": "to",
          "type": "address"
        },
        {
          "internalType": "uint256",
          "name": "id",
          "type": "uint256"
        },
        {
          "internalType": "uint256",
          "name": "amount",
          "type": "uint256"
        },
        {
          "internalType": "bytes",
          "name": "data",
          "type": "bytes"
        }
      ],
      "name": "safeTransferFrom",
      "outputs": [],
      "stateMutability": "nonpayable",
      "type": "function"
    },
    {
      "inputs": [
        {
          "internalType": "address",
          "name": "operator",
          "type": "address"
        },
        {
          "internalType": "bool",
          "name": "approved",
          "type": "bool"
        }
      ],
      "name": "setApprovalForAll",
      "outputs": [],
      "stateMutability": "nonpayable",
      "type": "function"
    },
    {
      "inputs": [
        {
          "internalType": "bytes4",
          "name": "interfaceId",
          "type": "bytes4"
        }
      ],
      "name": "supportsInterface",
      "outputs": [
        {
          "internalType": "bool",
          "name": "",
          "type": "bool"
        }
      ],
      "stateMutability": "view",
      "type": "function",
      "constant": true
    },
    {
      "inputs": [
        {
          "internalType": "uint256",
          "name": "",
          "type": "uint256"
        }
      ],
      "name": "uri",
      "outputs": [
        {
          "internalType": "string",
          "name": "",
          "type": "string"
        }
      ],
      "stateMutability": "view",
      "type": "function",
      "constant": true
    },
    {
      "inputs": [
        {
          "internalType": "address",
          "name": "account",
          "type": "address"
        },
        {
          "internalType": "uint256",
          "name": "id",
          "type": "uint256"
        },
        {
          "internalType": "uint256",
          "name": "amount",
          "type": "uint256"
        },
        {
          "internalType": "bytes",
          "name": "data",
          "type": "bytes"
        }
      ],
      "name": "mint",
      "outputs": [],
      "stateMutability": "nonpayable",
      "type": "function"
    },
    {
      "inputs": [
        {
          "internalType": "address",
          "name": "to",
          "type": "address"
        },
        {
          "internalType": "uint256[]",
          "name": "ids",
          "type": "uint256[]"
        },
        {
          "internalType": "uint256[]",
          "name": "amounts",
          "type": "uint256[]"
        },
        {
          "internalType": "bytes",
          "name": "data",
          "type": "bytes"
        }
      ],
      "name": "mintBatch",
      "outputs": [],
      "stateMutability": "nonpayable",
      "type": "function"
    }
  ],
  "bytecode": "0x60806040526006805460ff191690553480156200001b57600080fd5b506040516200351638038062003516833981810160405260208110156200004157600080fd5b81019080805160405193929190846401000000008211156200006257600080fd5b9083019060208201858111156200007857600080fd5b82516401000000008111828201881017156200009357600080fd5b82525081516020918201929091019080838360005b83811015620000c2578181015183820152602001620000a8565b50505050905090810190601f168015620000f05780820380516001836020036101000a031916815260200191505b50604052508291506200011590506301ffc9a760e01b6001600160e01b036200022616565b62000129816001600160e01b03620002ab16565b62000144636cdb3d1360e11b6001600160e01b036200022616565b6200015f6303a24d0760e21b6001600160e01b036200022616565b5060408051808201909152601481527f44756d6d794d696e7461626c65455243313135350000000000000000000000006020820152620001a8906001600160e01b03620002c416565b620001d06000620001c16001600160e01b036200036616565b6001600160e01b036200038316565b604080516d5052454449434154455f524f4c4560901b8152905190819003600e0190206200020b90620001c16001600160e01b036200036616565b6200021f816001600160e01b036200039816565b50620006f0565b6001600160e01b0319808216141562000286576040805162461bcd60e51b815260206004820152601c60248201527f4552433136353a20696e76616c696420696e7465726661636520696400000000604482015290519081900360640190fd5b6001600160e01b0319166000908152602081905260409020805460ff19166001179055565b8051620002c09060039060208401906200064e565b5050565b806040516020018082805190602001908083835b60208310620002f95780518252601f199092019160209182019101620002d8565b51815160209384036101000a60001901801990921691161790527f3a20494e53554646494349454e545f5045524d495353494f4e530000000000009190930190815260408051808303600519018152601a90920190528051620002c095506005945092019190506200064e565b60006200037d6200040660201b620027dd1760201c565b90505b90565b620002c082826001600160e01b036200046516565b60065460ff1615620003e2576040805162461bcd60e51b815260206004820152600e60248201526d185b1c9958591e481a5b9a5d195960921b604482015290519081900360640190fd5b620003f6816001600160e01b03620004e916565b506006805460ff19166001179055565b600033301415620004605760606000368080601f0160208091040260200160405190810160405280939291908181526020018383808284376000920191909152505050503601516001600160a01b03169150620003809050565b503390565b60008281526004602090815260409091206200048c91839062002877620005b1821b17901c565b15620002c057620004a56001600160e01b036200036616565b6001600160a01b0316816001600160a01b0316837f2f8788117e7eff1d82e926ec794901d17c78024a50270940304540a733656f0d60405160405180910390a45050565b6040518060800160405280604f8152602001620034c7604f913980516020918201208251838301206040805180820190915260018152603160f81b930192909252907fc89efdaa54c0f20c7adf612882df0950f5a951637e0307cdcb4c672f298b8bc630620005606001600160e01b03620005da16565b604080516020808201979097528082019590955260608501939093526001600160a01b03909116608084015260a0808401919091528151808403909101815260c09092019052805191012060075550565b6000620005d1836001600160a01b0384166001600160e01b03620005de16565b90505b92915050565b4690565b6000620005f583836001600160e01b036200063616565b6200062d57508154600181810184556000848152602080822090930184905584548482528286019093526040902091909155620005d4565b506000620005d4565b60009081526001919091016020526040902054151590565b828054600181600116156101000203166002900490600052602060002090601f016020900481019282601f106200069157805160ff1916838001178555620006c1565b82800160010185558215620006c1579182015b82811115620006c1578251825591602001919060010190620006a4565b50620006cf929150620006d3565b5090565b6200038091905b80821115620006cf5760008155600101620006da565b612dc780620007006000396000f3fe60806040526004361061014a5760003560e01c806336568abe116100b6578063a22cb4651161006f578063a22cb465146109fd578063ca15c87314610a38578063d547741f14610a62578063e72db5fd14610a9b578063e985e9c514610ab0578063f242432a14610aeb5761014a565b806336568abe146107135780634e1273f41461074c578063731133e9146108cc5780639010d07c1461096357806391d14854146109af578063a217fddf146109e85761014a565b806320379ee51161010857806320379ee514610485578063248a9ca31461049a5780632d0335ab146104c45780632eb2c2d6146104f75780632f2ff15d146106c55780633408e470146106fe5761014a565b8062fdd58e1461014f57806301ffc9a71461019a5780630c53c51c146101e25780630e89341c146103195780630f7e5970146103435780631f7fdffa14610358575b600080fd5b34801561015b57600080fd5b506101886004803603604081101561017257600080fd5b506001600160a01b038135169060200135610bc1565b60408051918252519081900360200190f35b3480156101a657600080fd5b506101ce600480360360208110156101bd57600080fd5b50356001600160e01b031916610c33565b604080519115158252519081900360200190f35b6102a4600480360360a08110156101f857600080fd5b6001600160a01b038235169190810190604081016020820135600160201b81111561022257600080fd5b82018360208201111561023457600080fd5b803590602001918460018302840111600160201b8311171561025557600080fd5b91908080601f016020809104026020016040519081016040528093929190818152602001838380828437600092019190915250929550508235935050506020810135906040013560ff16610c52565b6040805160208082528351818301528351919283929083019185019080838360005b838110156102de5781810151838201526020016102c6565b50505050905090810190601f16801561030b5780820380516001836020036101000a031916815260200191505b509250505060405180910390f35b34801561032557600080fd5b506102a46004803603602081101561033c57600080fd5b5035610f55565b34801561034f57600080fd5b506102a4610fed565b34801561036457600080fd5b506104836004803603608081101561037b57600080fd5b6001600160a01b038235169190810190604081016020820135600160201b8111156103a557600080fd5b8201836020820111156103b757600080fd5b803590602001918460208302840111600160201b831117156103d857600080fd5b919390929091602081019035600160201b8111156103f557600080fd5b82018360208201111561040757600080fd5b803590602001918460208302840111600160201b8311171561042857600080fd5b919390929091602081019035600160201b81111561044557600080fd5b82018360208201111561045757600080fd5b803590602001918460018302840111600160201b8311171561047857600080fd5b50909250905061100a565b005b34801561049157600080fd5b5061018861118b565b3480156104a657600080fd5b50610188600480360360208110156104bd57600080fd5b5035611191565b3480156104d057600080fd5b50610188600480360360208110156104e757600080fd5b50356001600160a01b03166111a6565b34801561050357600080fd5b50610483600480360360a081101561051a57600080fd5b6001600160a01b038235811692602081013590911691810190606081016040820135600160201b81111561054d57600080fd5b82018360208201111561055f57600080fd5b803590602001918460208302840111600160201b8311171561058057600080fd5b9190808060200260200160405190810160405280939291908181526020018383602002808284376000920191909152509295949360208101935035915050600160201b8111156105cf57600080fd5b8201836020820111156105e157600080fd5b803590602001918460208302840111600160201b8311171561060257600080fd5b9190808060200260200160405190810160405280939291908181526020018383602002808284376000920191909152509295949360208101935035915050600160201b81111561065157600080fd5b82018360208201111561066357600080fd5b803590602001918460018302840111600160201b8311171561068457600080fd5b91908080601f0160208091040260200160405190810160405280939291908181526020018383808284376000920191909152509295506111c1945050505050565b3480156106d157600080fd5b50610483600480360360408110156106e857600080fd5b50803590602001356001600160a01b03166114bf565b34801561070a57600080fd5b50610188611526565b34801561071f57600080fd5b506104836004803603604081101561073657600080fd5b50803590602001356001600160a01b031661152a565b34801561075857600080fd5b5061087c6004803603604081101561076f57600080fd5b810190602081018135600160201b81111561078957600080fd5b82018360208201111561079b57600080fd5b803590602001918460208302840111600160201b831117156107bc57600080fd5b9190808060200260200160405190810160405280939291908181526020018383602002808284376000920191909152509295949360208101935035915050600160201b81111561080b57600080fd5b82018360208201111561081d57600080fd5b803590602001918460208302840111600160201b8311171561083e57600080fd5b91908080602002602001604051908101604052809392919081815260200183836020028082843760009201919091525092955061158b945050505050565b60408051602080825283518183015283519192839290830191858101910280838360005b838110156108b85781810151838201526020016108a0565b505050509050019250505060405180910390f35b3480156108d857600080fd5b50610483600480360360808110156108ef57600080fd5b6001600160a01b038235169160208101359160408201359190810190608081016060820135600160201b81111561092557600080fd5b82018360208201111561093757600080fd5b803590602001918460018302840111600160201b8311171561095857600080fd5b509092509050611709565b34801561096f57600080fd5b506109936004803603604081101561098657600080fd5b50803590602001356117e1565b604080516001600160a01b039092168252519081900360200190f35b3480156109bb57600080fd5b506101ce600480360360408110156109d257600080fd5b50803590602001356001600160a01b0316611806565b3480156109f457600080fd5b50610188611824565b348015610a0957600080fd5b5061048360048036036040811015610a2057600080fd5b506001600160a01b0381351690602001351515611829565b348015610a4457600080fd5b5061018860048036036020811015610a5b57600080fd5b5035611918565b348015610a6e57600080fd5b5061048360048036036040811015610a8557600080fd5b50803590602001356001600160a01b031661192f565b348015610aa757600080fd5b50610188611988565b348015610abc57600080fd5b506101ce60048036036040811015610ad357600080fd5b506001600160a01b03813581169160200135166119ae565b348015610af757600080fd5b50610483600480360360a0811015610b0e57600080fd5b6001600160a01b03823581169260208101359091169160408201359160608101359181019060a081016080820135600160201b811115610b4d57600080fd5b820183602082011115610b5f57600080fd5b803590602001918460018302840111600160201b83111715610b8057600080fd5b91908080601f0160208091040260200160405190810160405280939291908181526020018383808284376000920191909152509295506119dc945050505050565b60006001600160a01b038316610c085760405162461bcd60e51b815260040180806020018281038252602b815260200180612b09602b913960400191505060405180910390fd5b5060008181526001602090815260408083206001600160a01b03861684529091529020545b92915050565b6001600160e01b03191660009081526020819052604090205460ff1690565b6060610c5c612a31565b50604080516060810182526001600160a01b03881660008181526008602090815290849020548352820152908101869052610c9a8782878787611bad565b610cd55760405162461bcd60e51b8152600401808060200182810382526021815260200180612ca76021913960400191505060405180910390fd5b6001600160a01b038716600090815260086020526040902054610cff90600163ffffffff611c8a16565b6001600160a01b03881660008181526008602090815260408083209490945583519283523383820181905260609484018581528b51958501959095528a517f5845892132946850460bff5a0083f71031bc5bf9aadcd40f1de79423eac9b10b958d9592948d94919260808501928601918190849084905b83811015610d8e578181015183820152602001610d76565b50505050905090810190601f168015610dbb5780820380516001836020036101000a031916815260200191505b5094505050505060405180910390a160006060306001600160a01b0316888a6040516020018083805190602001908083835b60208310610e0c5780518252601f199092019160209182019101610ded565b6001836020036101000a038019825116818451168082178552505050505050905001826001600160a01b03166001600160a01b031660601b8152601401925050506040516020818303038152906040526040518082805190602001908083835b60208310610e8b5780518252601f199092019160209182019101610e6c565b6001836020036101000a0380198251168184511680821785525050505050509050019150506000604051808303816000865af19150503d8060008114610eed576040519150601f19603f3d011682016040523d82523d6000602084013e610ef2565b606091505b509150915081610f49576040805162461bcd60e51b815260206004820152601c60248201527f46756e6374696f6e2063616c6c206e6f74207375636365737366756c00000000604482015290519081900360640190fd5b98975050505050505050565b60038054604080516020601f6002600019610100600188161502019095169490940493840181900481028201810190925282815260609390929091830182828015610fe15780601f10610fb657610100808354040283529160200191610fe1565b820191906000526020600020905b815481529060010190602001808311610fc457829003601f168201915b50505050509050919050565b604051806040016040528060018152602001603160f81b81525081565b604080516d5052454449434154455f524f4c4560901b8152905190819003600e01902061103e81611039611ce4565b611806565b6005906110de5760405162461bcd60e51b81526020600482019081528254600260001961010060018416150201909116046024830181905290918291604490910190849080156110cf5780601f106110a4576101008083540402835291602001916110cf565b820191906000526020600020905b8154815290600101906020018083116110b257829003601f168201915b50509250505060405180910390fd5b506111818888888080602002602001604051908101604052809392919081815260200183836020028082843760009201919091525050604080516020808c0282810182019093528b82529093508b92508a91829185019084908082843760009201919091525050604080516020601f8b018190048102820181019092528981529250899150889081908401838280828437600092019190915250611cf392505050565b5050505050505050565b60075490565b60009081526004602052604090206002015490565b6001600160a01b031660009081526008602052604090205490565b81518351146112015760405162461bcd60e51b8152600401808060200182810382526028815260200180612d1a6028913960400191505060405180910390fd5b6001600160a01b0384166112465760405162461bcd60e51b8152600401808060200182810382526025815260200180612c266025913960400191505060405180910390fd5b61124e611ce4565b6001600160a01b0316856001600160a01b03161480611279575061127985611274611ce4565b6119ae565b6112b45760405162461bcd60e51b8152600401808060200182810382526032815260200180612c4b6032913960400191505060405180910390fd5b60006112be611ce4565b90506112ce8187878787876114b7565b60005b84518110156113cf5760008582815181106112e857fe5b60200260200101519050600085838151811061130057fe5b6020026020010151905061136d816040518060600160405280602a8152602001612c7d602a91396001600086815260200190815260200160002060008d6001600160a01b03166001600160a01b0316815260200190815260200160002054611f489092919063ffffffff16565b60008381526001602090815260408083206001600160a01b038e811685529252808320939093558a16815220546113a49082611c8a565b60009283526001602081815260408086206001600160a01b038d1687529091529093205550016112d1565b50846001600160a01b0316866001600160a01b0316826001600160a01b03167f4a39dc06d4c0dbc64b70af90fd698a233a518aa5d07e595d983b8c0526c8f7fb8787604051808060200180602001838103835285818151815260200191508051906020019060200280838360005b8381101561145557818101518382015260200161143d565b50505050905001838103825284818151815260200191508051906020019060200280838360005b8381101561149457818101518382015260200161147c565b5050505090500194505050505060405180910390a46114b7818787878787611fdf565b505050505050565b6000828152600460205260409020600201546114dd90611039611ce4565b6115185760405162461bcd60e51b815260040180806020018281038252602f815260200180612ada602f913960400191505060405180910390fd5b611522828261231d565b5050565b4690565b611532611ce4565b6001600160a01b0316816001600160a01b0316146115815760405162461bcd60e51b815260040180806020018281038252602f815260200180612d63602f913960400191505060405180910390fd5b611522828261238c565b606081518351146115cd5760405162461bcd60e51b8152600401808060200182810382526029815260200180612cf16029913960400191505060405180910390fd5b6060835167ffffffffffffffff811180156115e757600080fd5b50604051908082528060200260200182016040528015611611578160200160208202803683370190505b50905060005b84518110156117015760006001600160a01b031685828151811061163757fe5b60200260200101516001600160a01b031614156116855760405162461bcd60e51b8152600401808060200182810382526031815260200180612b346031913960400191505060405180910390fd5b6001600085838151811061169557fe5b6020026020010151815260200190815260200160002060008683815181106116b957fe5b60200260200101516001600160a01b03166001600160a01b03168152602001908152602001600020548282815181106116ee57fe5b6020908102919091010152600101611617565b509392505050565b604080516d5052454449434154455f524f4c4560901b8152905190819003600e01902061173881611039611ce4565b60059061179e5760405162461bcd60e51b81526020600482019081528254600260001961010060018416150201909116046024830181905290918291604490910190849080156110cf5780601f106110a4576101008083540402835291602001916110cf565b506114b786868686868080601f0160208091040260200160405190810160405280939291908181526020018383808284376000920191909152506123fb92505050565b60008281526004602052604081206117ff908363ffffffff61250216565b9392505050565b60008281526004602052604081206117ff908363ffffffff61250e16565b600081565b816001600160a01b031661183b611ce4565b6001600160a01b031614156118815760405162461bcd60e51b8152600401808060200182810382526029815260200180612cc86029913960400191505060405180910390fd5b806002600061188e611ce4565b6001600160a01b03908116825260208083019390935260409182016000908120918716808252919093529120805460ff1916921515929092179091556118d2611ce4565b60408051841515815290516001600160a01b0392909216917f17307eab39ab6107e8899845ad3d59bd9653f200f220920489ca2b5937696c319181900360200190a35050565b6000818152600460205260408120610c2d90612523565b60008281526004602052604090206002015461194d90611039611ce4565b6115815760405162461bcd60e51b8152600401808060200182810382526030815260200180612bd16030913960400191505060405180910390fd5b604080516d5052454449434154455f524f4c4560901b8152905190819003600e01902081565b6001600160a01b03918216600090815260026020908152604080832093909416825291909152205460ff1690565b6001600160a01b038416611a215760405162461bcd60e51b8152600401808060200182810382526025815260200180612c266025913960400191505060405180910390fd5b611a29611ce4565b6001600160a01b0316856001600160a01b03161480611a4f5750611a4f85611274611ce4565b611a8a5760405162461bcd60e51b8152600401808060200182810382526029815260200180612ba86029913960400191505060405180910390fd5b6000611a94611ce4565b9050611ab4818787611aa58861252e565b611aae8861252e565b876114b7565b611b01836040518060600160405280602a8152602001612c7d602a913960008781526001602090815260408083206001600160a01b038d168452909152902054919063ffffffff611f4816565b60008581526001602090815260408083206001600160a01b038b81168552925280832093909355871681522054611b389084611c8a565b60008581526001602090815260408083206001600160a01b03808b168086529184529382902094909455805188815291820187905280518a8416938616927fc3d58168c5ae7397731d063d5bbf3d657854427343f4c083240f7aacaa2d0f6292908290030190a46114b7818787878787612572565b60006001600160a01b038616611bf45760405162461bcd60e51b8152600401808060200182810382526025815260200180612c016025913960400191505060405180910390fd5b6001611c07611c0287612705565b612791565b83868660405160008152602001604052604051808581526020018460ff1660ff1681526020018381526020018281526020019450505050506020604051602081039080840390855afa158015611c61573d6000803e3d6000fd5b505050602060405103516001600160a01b0316866001600160a01b031614905095945050505050565b6000828201838110156117ff576040805162461bcd60e51b815260206004820152601b60248201527f536166654d6174683a206164646974696f6e206f766572666c6f770000000000604482015290519081900360640190fd5b6000611cee6127dd565b905090565b6001600160a01b038416611d385760405162461bcd60e51b8152600401808060200182810382526021815260200180612d426021913960400191505060405180910390fd5b8151835114611d785760405162461bcd60e51b8152600401808060200182810382526028815260200180612d1a6028913960400191505060405180910390fd5b6000611d82611ce4565b9050611d93816000878787876114b7565b60005b8451811015611e5757611e0e60016000878481518110611db257fe5b602002602001015181526020019081526020016000206000886001600160a01b03166001600160a01b0316815260200190815260200160002054858381518110611df857fe5b6020026020010151611c8a90919063ffffffff16565b60016000878481518110611e1e57fe5b602090810291909101810151825281810192909252604090810160009081206001600160a01b038b168252909252902055600101611d96565b50846001600160a01b031660006001600160a01b0316826001600160a01b03167f4a39dc06d4c0dbc64b70af90fd698a233a518aa5d07e595d983b8c0526c8f7fb8787604051808060200180602001838103835285818151815260200191508051906020019060200280838360005b83811015611ede578181015183820152602001611ec6565b50505050905001838103825284818151815260200191508051906020019060200280838360005b83811015611f1d578181015183820152602001611f05565b5050505090500194505050505060405180910390a4611f4181600087878787611fdf565b5050505050565b60008184841115611fd75760405162461bcd60e51b81526004018080602001828103825283818151815260200191508051906020019080838360005b83811015611f9c578181015183820152602001611f84565b50505050905090810190601f168015611fc95780820380516001836020036101000a031916815260200191505b509250505060405180910390fd5b505050900390565b611ff1846001600160a01b031661283b565b156114b757836001600160a01b031663bc197c8187878686866040518663ffffffff1660e01b815260040180866001600160a01b03166001600160a01b03168152602001856001600160a01b03166001600160a01b03168152602001806020018060200180602001848103845287818151815260200191508051906020019060200280838360005b83811015612091578181015183820152602001612079565b50505050905001848103835286818151815260200191508051906020019060200280838360005b838110156120d05781810151838201526020016120b8565b50505050905001848103825285818151815260200191508051906020019080838360005b8381101561210c5781810151838201526020016120f4565b50505050905090810190601f1680156121395780820380516001836020036101000a031916815260200191505b5098505050505050505050602060405180830381600087803b15801561215e57600080fd5b505af192505050801561218357506040513d602081101561217e57600080fd5b505160015b6122c5576040516000815260443d101561219f5750600061223c565b60046000803e60005160e01c6308c379a081146121c057600091505061223c565b60043d036004833e81513d602482011167ffffffffffffffff821117156121ec5760009250505061223c565b808301805167ffffffffffffffff81111561220e57600094505050505061223c565b8060208301013d860181111561222c5760009550505050505061223c565b601f01601f191660405250925050505b80612247575061228e565b60405162461bcd60e51b8152602060048201818152835160248401528351849391928392604401919085019080838360008315611f9c578181015183820152602001611f84565b60405162461bcd60e51b8152600401808060200182810382526034815260200180612a5c6034913960400191505060405180910390fd5b6001600160e01b0319811663bc197c8160e01b146123145760405162461bcd60e51b8152600401808060200182810382526028815260200180612ab26028913960400191505060405180910390fd5b50505050505050565b600082815260046020526040902061233b908263ffffffff61287716565b1561152257612348611ce4565b6001600160a01b0316816001600160a01b0316837f2f8788117e7eff1d82e926ec794901d17c78024a50270940304540a733656f0d60405160405180910390a45050565b60008281526004602052604090206123aa908263ffffffff61288c16565b15611522576123b7611ce4565b6001600160a01b0316816001600160a01b0316837ff6391f5c32d9c69d2a47ea670b442974b53935d1edc7fd64eb21e047a839171b60405160405180910390a45050565b6001600160a01b0384166124405760405162461bcd60e51b8152600401808060200182810382526021815260200180612d426021913960400191505060405180910390fd5b600061244a611ce4565b905061245c81600087611aa58861252e565b60008481526001602090815260408083206001600160a01b038916845290915290205461248f908463ffffffff611c8a16565b60008581526001602090815260408083206001600160a01b03808b16808652918452828520959095558151898152928301889052815190948616927fc3d58168c5ae7397731d063d5bbf3d657854427343f4c083240f7aacaa2d0f6292908290030190a4611f4181600087878787612572565b60006117ff83836128a1565b60006117ff836001600160a01b038416612905565b6000610c2d8261291d565b60408051600180825281830190925260609182919060208083019080368337019050509050828160008151811061256157fe5b602090810291909101015292915050565b612584846001600160a01b031661283b565b156114b757836001600160a01b031663f23a6e6187878686866040518663ffffffff1660e01b815260040180866001600160a01b03166001600160a01b03168152602001856001600160a01b03166001600160a01b0316815260200184815260200183815260200180602001828103825283818151815260200191508051906020019080838360005b8381101561262557818101518382015260200161260d565b50505050905090810190601f1680156126525780820380516001836020036101000a031916815260200191505b509650505050505050602060405180830381600087803b15801561267557600080fd5b505af192505050801561269a57506040513d602081101561269557600080fd5b505160015b6126b6576040516000815260443d101561219f5750600061223c565b6001600160e01b0319811663f23a6e6160e01b146123145760405162461bcd60e51b8152600401808060200182810382526028815260200180612ab26028913960400191505060405180910390fd5b6000604051806080016040528060438152602001612b6560439139805190602001208260000151836020015184604001518051906020012060405160200180858152602001848152602001836001600160a01b03166001600160a01b03168152602001828152602001945050505050604051602081830303815290604052805190602001209050919050565b600061279b61118b565b82604051602001808061190160f01b81525060020183815260200182815260200192505050604051602081830303815290604052805190602001209050919050565b6000333014156128355760606000368080601f0160208091040260200160405190810160405280939291908181526020018383808284376000920191909152505050503601516001600160a01b031691506128389050565b50335b90565b6000813f7fc5d2460186f7233c927e7db2dcc703c0e500b653ca82273b7bfad8045d85a47081811480159061286f57508115155b949350505050565b60006117ff836001600160a01b038416612921565b60006117ff836001600160a01b03841661296b565b815460009082106128e35760405162461bcd60e51b8152600401808060200182810382526022815260200180612a906022913960400191505060405180910390fd5b8260000182815481106128f257fe5b9060005260206000200154905092915050565b60009081526001919091016020526040902054151590565b5490565b600061292d8383612905565b61296357508154600181810184556000848152602080822090930184905584548482528286019093526040902091909155610c2d565b506000610c2d565b60008181526001830160205260408120548015612a27578354600019808301919081019060009087908390811061299e57fe5b90600052602060002001549050808760000184815481106129bb57fe5b6000918252602080832090910192909255828152600189810190925260409020908401905586548790806129eb57fe5b60019003818190600052602060002001600090559055866001016000878152602001908152602001600020600090556001945050505050610c2d565b6000915050610c2d565b60405180606001604052806000815260200160006001600160a01b0316815260200160608152509056fe455243313135353a207472616e7366657220746f206e6f6e2045524331313535526563656976657220696d706c656d656e746572456e756d657261626c655365743a20696e646578206f7574206f6620626f756e6473455243313135353a204552433131353552656365697665722072656a656374656420746f6b656e73416363657373436f6e74726f6c3a2073656e646572206d75737420626520616e2061646d696e20746f206772616e74455243313135353a2062616c616e636520717565727920666f7220746865207a65726f2061646472657373455243313135353a2062617463682062616c616e636520717565727920666f7220746865207a65726f20616464726573734d6574615472616e73616374696f6e2875696e74323536206e6f6e63652c616464726573732066726f6d2c62797465732066756e6374696f6e5369676e617475726529455243313135353a2063616c6c6572206973206e6f74206f776e6572206e6f7220617070726f766564416363657373436f6e74726f6c3a2073656e646572206d75737420626520616e2061646d696e20746f207265766f6b654e61746976654d6574615472616e73616374696f6e3a20494e56414c49445f5349474e4552455243313135353a207472616e7366657220746f20746865207a65726f2061646472657373455243313135353a207472616e736665722063616c6c6572206973206e6f74206f776e6572206e6f7220617070726f766564455243313135353a20696e73756666696369656e742062616c616e636520666f72207472616e736665725369676e657220616e64207369676e617475726520646f206e6f74206d61746368455243313135353a2073657474696e6720617070726f76616c2073746174757320666f722073656c66455243313135353a206163636f756e747320616e6420696473206c656e677468206d69736d61746368455243313135353a2069647320616e6420616d6f756e7473206c656e677468206d69736d61746368455243313135353a206d696e7420746f20746865207a65726f2061646472657373416363657373436f6e74726f6c3a2063616e206f6e6c792072656e6f756e636520726f6c657320666f722073656c66a26469706673582212204ea083704acaf12d37b69a4cea875fd4a6939c0fc1395225a78524c7000f578864736f6c63430006060033454950373132446f6d61696e28737472696e67206e616d652c737472696e672076657273696f6e2c6164647265737320766572696679696e67436f6e74726163742c627974657333322073616c7429",
  "immutableReferences": {},
  "source": "// This contract is not supposed to be used in production\n// It's strictly for testing purpose\n\npragma solidity 0.6.6;\n\nimport {ERC1155} from \"@openzeppelin/contracts/token/ERC1155/ERC1155.sol\";\nimport {IMintableERC1155} from \"./IMintableERC1155.sol\";\nimport {NativeMetaTransaction} from \"../../common/NativeMetaTransaction.sol\";\nimport {ContextMixin} from \"../../common/ContextMixin.sol\";\nimport {AccessControlMixin} from \"../../common/AccessControlMixin.sol\";\n\ncontract DummyMintableERC1155 is\n    ERC1155,\n    AccessControlMixin,\n    NativeMetaTransaction,\n    ContextMixin,\n    IMintableERC1155\n{\n    bytes32 public constant PREDICATE_ROLE = keccak256(\"PREDICATE_ROLE\");\n\n    constructor(string memory uri_) public ERC1155(uri_) {\n        _setupContractId(\"DummyMintableERC1155\");\n        _setupRole(DEFAULT_ADMIN_ROLE, _msgSender());\n        _setupRole(PREDICATE_ROLE, _msgSender());\n\n        _initializeEIP712(uri_);\n    }\n\n    function mint(\n        address account,\n        uint256 id,\n        uint256 amount,\n        bytes calldata data\n    ) external override only(PREDICATE_ROLE) {\n        _mint(account, id, amount, data);\n    }\n\n    function mintBatch(\n        address to,\n        uint256[] calldata ids,\n        uint256[] calldata amounts,\n        bytes calldata data\n    ) external override only(PREDICATE_ROLE) {\n        _mintBatch(to, ids, amounts, data);\n    }\n\n    function _msgSender()\n        internal\n        override\n        view\n        returns (address payable sender)\n    {\n        return ContextMixin.msgSender();\n    }\n}\n",
  "sourcePath": "/Users/ohm.jirapon/playground/blockhain/layer-2/plasma-ploygon/matic-cli/devnet/code/pos-portal/contracts/root/RootToken/DummyMintableERC1155.sol",
  "compiler": {
    "name": "solc",
    "version": "0.6.6+commit.6c089d02.Linux.g++"
  },
  "schemaVersion": "3.4.9",
  "updatedAt": "2022-08-22T08:50:24.009Z",
  "networkType": "ethereum",
  "devdoc": {
    "methods": {
      "balanceOf(address,uint256)": {
        "details": "See {IERC1155-balanceOf}.     * Requirements:     * - `account` cannot be the zero address."
      },
      "balanceOfBatch(address[],uint256[])": {
        "details": "See {IERC1155-balanceOfBatch}.     * Requirements:     * - `accounts` and `ids` must have the same length."
      },
      "getRoleAdmin(bytes32)": {
        "details": "Returns the admin role that controls `role`. See {grantRole} and {revokeRole}.     * To change a role's admin, use {_setRoleAdmin}."
      },
      "getRoleMember(bytes32,uint256)": {
        "details": "Returns one of the accounts that have `role`. `index` must be a value between 0 and {getRoleMemberCount}, non-inclusive.     * Role bearers are not sorted in any particular way, and their ordering may change at any point.     * WARNING: When using {getRoleMember} and {getRoleMemberCount}, make sure you perform all queries on the same block. See the following https://forum.openzeppelin.com/t/iterating-over-elements-on-enumerableset-in-openzeppelin-contracts/2296[forum post] for more information."
      },
      "getRoleMemberCount(bytes32)": {
        "details": "Returns the number of accounts that have `role`. Can be used together with {getRoleMember} to enumerate all bearers of a role."
      },
      "grantRole(bytes32,address)": {
        "details": "Grants `role` to `account`.     * If `account` had not been already granted `role`, emits a {RoleGranted} event.     * Requirements:     * - the caller must have ``role``'s admin role."
      },
      "hasRole(bytes32,address)": {
        "details": "Returns `true` if `account` has been granted `role`."
      },
      "isApprovedForAll(address,address)": {
        "details": "See {IERC1155-isApprovedForAll}."
      },
      "renounceRole(bytes32,address)": {
        "details": "Revokes `role` from the calling account.     * Roles are often managed via {grantRole} and {revokeRole}: this function's purpose is to provide a mechanism for accounts to lose their privileges if they are compromised (such as when a trusted device is misplaced).     * If the calling account had been granted `role`, emits a {RoleRevoked} event.     * Requirements:     * - the caller must be `account`."
      },
      "revokeRole(bytes32,address)": {
        "details": "Revokes `role` from `account`.     * If `account` had been granted `role`, emits a {RoleRevoked} event.     * Requirements:     * - the caller must have ``role``'s admin role."
      },
      "safeBatchTransferFrom(address,address,uint256[],uint256[],bytes)": {
        "details": "See {IERC1155-safeBatchTransferFrom}."
      },
      "safeTransferFrom(address,address,uint256,uint256,bytes)": {
        "details": "See {IERC1155-safeTransferFrom}."
      },
      "setApprovalForAll(address,bool)": {
        "details": "See {IERC1155-setApprovalForAll}."
      },
      "supportsInterface(bytes4)": {
        "details": "See {IERC165-supportsInterface}.     * Time complexity O(1), guaranteed to always use less than 30 000 gas."
      },
      "uri(uint256)": {
        "details": "See {IERC1155MetadataURI-uri}.     * This implementation returns the same URI for *all* token types. It relies on the token type ID substituion mechanism https://eips.ethereum.org/EIPS/eip-1155#metadata[defined in the EIP].     * Clients calling this function must replace the `\\{id\\}` substring with the actual token type ID."
      }
    }
  },
  "userdoc": {
    "methods": {}
  }
}