{
  "contractName": "EIP712Base",
  "abi": [
    {
      "inputs": [],
      "name": "ERC712_VERSION",
      "outputs": [
        {
          "internalType": "string",
          "name": "",
          "type": "string"
        }
      ],
      "stateMutability": "view",
      "type": "function"
    },
    {
      "inputs": [],
      "name": "getDomainSeperator",
      "outputs": [
        {
          "internalType": "bytes32",
          "name": "",
          "type": "bytes32"
        }
      ],
      "stateMutability": "view",
      "type": "function"
    },
    {
      "inputs": [],
      "name": "getChainId",
      "outputs": [
        {
          "internalType": "uint256",
          "name": "",
          "type": "uint256"
        }
      ],
      "stateMutability": "pure",
      "type": "function"
    }
  ],
  "bytecode": "0x60806040526000805460ff1916905534801561001a57600080fd5b506101348061002a6000396000f3fe6080604052348015600f57600080fd5b5060043610603c5760003560e01c80630f7e597014604157806320379ee51460b95780633408e4701460d1575b600080fd5b604760d7565b6040805160208082528351818301528351919283929083019185019080838360005b83811015607f5781810151838201526020016069565b50505050905090810190601f16801560ab5780820380516001836020036101000a031916815260200191505b509250505060405180910390f35b60bf60f4565b60408051918252519081900360200190f35b60bf60fa565b604051806040016040528060018152602001603160f81b81525081565b60015490565b469056fea264697066735822122028a42a462012de75178752e8ff9aeec54ebf8c09a88c7c4b891ae72b5279f9f864736f6c63430006060033",
  "immutableReferences": {},
  "source": "pragma solidity 0.6.6;\n\nimport {Initializable} from \"./Initializable.sol\";\n\ncontract EIP712Base is Initializable {\n    struct EIP712Domain {\n        string name;\n        string version;\n        address verifyingContract;\n        bytes32 salt;\n    }\n\n    string constant public ERC712_VERSION = \"1\";\n\n    bytes32 internal constant EIP712_DOMAIN_TYPEHASH = keccak256(\n        bytes(\n            \"EIP712Domain(string name,string version,address verifyingContract,bytes32 salt)\"\n        )\n    );\n    bytes32 internal domainSeperator;\n\n    // supposed to be called once while initializing.\n    // one of the contractsa that inherits this contract follows proxy pattern\n    // so it is not possible to do this in a constructor\n    function _initializeEIP712(\n        string memory name\n    )\n        internal\n        initializer\n    {\n        _setDomainSeperator(name);\n    }\n\n    function _setDomainSeperator(string memory name) internal {\n        domainSeperator = keccak256(\n            abi.encode(\n                EIP712_DOMAIN_TYPEHASH,\n                keccak256(bytes(name)),\n                keccak256(bytes(ERC712_VERSION)),\n                address(this),\n                bytes32(getChainId())\n            )\n        );\n    }\n\n    function getDomainSeperator() public view returns (bytes32) {\n        return domainSeperator;\n    }\n\n    function getChainId() public pure returns (uint256) {\n        uint256 id;\n        assembly {\n            id := chainid()\n        }\n        return id;\n    }\n\n    /**\n     * Accept message hash and returns hash message in EIP712 compatible form\n     * So that it can be used to recover signer from signature signed using EIP712 formatted data\n     * https://eips.ethereum.org/EIPS/eip-712\n     * \"\\\\x19\" makes the encoding deterministic\n     * \"\\\\x01\" is the version byte to make it compatible to EIP-191\n     */\n    function toTypedMessageHash(bytes32 messageHash)\n        internal\n        view\n        returns (bytes32)\n    {\n        return\n            keccak256(\n                abi.encodePacked(\"\\x19\\x01\", getDomainSeperator(), messageHash)\n            );\n    }\n}\n",
  "sourcePath": "/Users/ohm.jirapon/playground/blockhain/layer-2/plasma-ploygon/matic-cli/devnet/code/pos-portal/contracts/common/EIP712Base.sol",
  "compiler": {
    "name": "solc",
    "version": "0.6.6+commit.6c089d02.Linux.g++"
  },
  "schemaVersion": "3.4.9",
  "updatedAt": "2022-08-18T05:43:41.449Z",
  "devdoc": {
    "methods": {}
  },
  "userdoc": {
    "methods": {}
  }
}