{
  "contractName": "ERC1155Predicate",
  "abi": [
    {
      "inputs": [],
      "stateMutability": "nonpayable",
      "type": "constructor"
    },
    {
      "anonymous": false,
      "inputs": [
        {
          "indexed": true,
          "internalType": "address",
          "name": "exitor",
          "type": "address"
        },
        {
          "indexed": true,
          "internalType": "address",
          "name": "rootToken",
          "type": "address"
        },
        {
          "indexed": false,
          "internalType": "uint256[]",
          "name": "ids",
          "type": "uint256[]"
        },
        {
          "indexed": false,
          "internalType": "uint256[]",
          "name": "amounts",
          "type": "uint256[]"
        }
      ],
      "name": "ExitedBatchERC1155",
      "type": "event"
    },
    {
      "anonymous": false,
      "inputs": [
        {
          "indexed": true,
          "internalType": "address",
          "name": "exitor",
          "type": "address"
        },
        {
          "indexed": true,
          "internalType": "address",
          "name": "rootToken",
          "type": "address"
        },
        {
          "indexed": false,
          "internalType": "uint256",
          "name": "id",
          "type": "uint256"
        },
        {
          "indexed": false,
          "internalType": "uint256",
          "name": "amount",
          "type": "uint256"
        }
      ],
      "name": "ExitedERC1155",
      "type": "event"
    },
    {
      "anonymous": false,
      "inputs": [
        {
          "indexed": true,
          "internalType": "address",
          "name": "depositor",
          "type": "address"
        },
        {
          "indexed": true,
          "internalType": "address",
          "name": "depositReceiver",
          "type": "address"
        },
        {
          "indexed": true,
          "internalType": "address",
          "name": "rootToken",
          "type": "address"
        },
        {
          "indexed": false,
          "internalType": "uint256[]",
          "name": "ids",
          "type": "uint256[]"
        },
        {
          "indexed": false,
          "internalType": "uint256[]",
          "name": "amounts",
          "type": "uint256[]"
        }
      ],
      "name": "LockedBatchERC1155",
      "type": "event"
    },
    {
      "anonymous": false,
      "inputs": [
        {
          "indexed": true,
          "internalType": "bytes32",
          "name": "role",
          "type": "bytes32"
        },
        {
          "indexed": true,
          "internalType": "bytes32",
          "name": "previousAdminRole",
          "type": "bytes32"
        },
        {
          "indexed": true,
          "internalType": "bytes32",
          "name": "newAdminRole",
          "type": "bytes32"
        }
      ],
      "name": "RoleAdminChanged",
      "type": "event"
    },
    {
      "anonymous": false,
      "inputs": [
        {
          "indexed": true,
          "internalType": "bytes32",
          "name": "role",
          "type": "bytes32"
        },
        {
          "indexed": true,
          "internalType": "address",
          "name": "account",
          "type": "address"
        },
        {
          "indexed": true,
          "internalType": "address",
          "name": "sender",
          "type": "address"
        }
      ],
      "name": "RoleGranted",
      "type": "event"
    },
    {
      "anonymous": false,
      "inputs": [
        {
          "indexed": true,
          "internalType": "bytes32",
          "name": "role",
          "type": "bytes32"
        },
        {
          "indexed": true,
          "internalType": "address",
          "name": "account",
          "type": "address"
        },
        {
          "indexed": true,
          "internalType": "address",
          "name": "sender",
          "type": "address"
        }
      ],
      "name": "RoleRevoked",
      "type": "event"
    },
    {
      "inputs": [],
      "name": "DEFAULT_ADMIN_ROLE",
      "outputs": [
        {
          "internalType": "bytes32",
          "name": "",
          "type": "bytes32"
        }
      ],
      "stateMutability": "view",
      "type": "function",
      "constant": true
    },
    {
      "inputs": [],
      "name": "MANAGER_ROLE",
      "outputs": [
        {
          "internalType": "bytes32",
          "name": "",
          "type": "bytes32"
        }
      ],
      "stateMutability": "view",
      "type": "function",
      "constant": true
    },
    {
      "inputs": [],
      "name": "TOKEN_TYPE",
      "outputs": [
        {
          "internalType": "bytes32",
          "name": "",
          "type": "bytes32"
        }
      ],
      "stateMutability": "view",
      "type": "function",
      "constant": true
    },
    {
      "inputs": [],
      "name": "TRANSFER_BATCH_EVENT_SIG",
      "outputs": [
        {
          "internalType": "bytes32",
          "name": "",
          "type": "bytes32"
        }
      ],
      "stateMutability": "view",
      "type": "function",
      "constant": true
    },
    {
      "inputs": [],
      "name": "TRANSFER_SINGLE_EVENT_SIG",
      "outputs": [
        {
          "internalType": "bytes32",
          "name": "",
          "type": "bytes32"
        }
      ],
      "stateMutability": "view",
      "type": "function",
      "constant": true
    },
    {
      "inputs": [
        {
          "internalType": "bytes32",
          "name": "role",
          "type": "bytes32"
        }
      ],
      "name": "getRoleAdmin",
      "outputs": [
        {
          "internalType": "bytes32",
          "name": "",
          "type": "bytes32"
        }
      ],
      "stateMutability": "view",
      "type": "function",
      "constant": true
    },
    {
      "inputs": [
        {
          "internalType": "bytes32",
          "name": "role",
          "type": "bytes32"
        },
        {
          "internalType": "uint256",
          "name": "index",
          "type": "uint256"
        }
      ],
      "name": "getRoleMember",
      "outputs": [
        {
          "internalType": "address",
          "name": "",
          "type": "address"
        }
      ],
      "stateMutability": "view",
      "type": "function",
      "constant": true
    },
    {
      "inputs": [
        {
          "internalType": "bytes32",
          "name": "role",
          "type": "bytes32"
        }
      ],
      "name": "getRoleMemberCount",
      "outputs": [
        {
          "internalType": "uint256",
          "name": "",
          "type": "uint256"
        }
      ],
      "stateMutability": "view",
      "type": "function",
      "constant": true
    },
    {
      "inputs": [
        {
          "internalType": "bytes32",
          "name": "role",
          "type": "bytes32"
        },
        {
          "internalType": "address",
          "name": "account",
          "type": "address"
        }
      ],
      "name": "grantRole",
      "outputs": [],
      "stateMutability": "nonpayable",
      "type": "function"
    },
    {
      "inputs": [
        {
          "internalType": "bytes32",
          "name": "role",
          "type": "bytes32"
        },
        {
          "internalType": "address",
          "name": "account",
          "type": "address"
        }
      ],
      "name": "hasRole",
      "outputs": [
        {
          "internalType": "bool",
          "name": "",
          "type": "bool"
        }
      ],
      "stateMutability": "view",
      "type": "function",
      "constant": true
    },
    {
      "inputs": [
        {
          "internalType": "bytes32",
          "name": "role",
          "type": "bytes32"
        },
        {
          "internalType": "address",
          "name": "account",
          "type": "address"
        }
      ],
      "name": "renounceRole",
      "outputs": [],
      "stateMutability": "nonpayable",
      "type": "function"
    },
    {
      "inputs": [
        {
          "internalType": "bytes32",
          "name": "role",
          "type": "bytes32"
        },
        {
          "internalType": "address",
          "name": "account",
          "type": "address"
        }
      ],
      "name": "revokeRole",
      "outputs": [],
      "stateMutability": "nonpayable",
      "type": "function"
    },
    {
      "inputs": [
        {
          "internalType": "bytes4",
          "name": "interfaceId",
          "type": "bytes4"
        }
      ],
      "name": "supportsInterface",
      "outputs": [
        {
          "internalType": "bool",
          "name": "",
          "type": "bool"
        }
      ],
      "stateMutability": "view",
      "type": "function",
      "constant": true
    },
    {
      "inputs": [
        {
          "internalType": "address",
          "name": "_owner",
          "type": "address"
        }
      ],
      "name": "initialize",
      "outputs": [],
      "stateMutability": "nonpayable",
      "type": "function"
    },
    {
      "inputs": [
        {
          "internalType": "address",
          "name": "",
          "type": "address"
        },
        {
          "internalType": "address",
          "name": "",
          "type": "address"
        },
        {
          "internalType": "uint256",
          "name": "",
          "type": "uint256"
        },
        {
          "internalType": "uint256",
          "name": "",
          "type": "uint256"
        },
        {
          "internalType": "bytes",
          "name": "",
          "type": "bytes"
        }
      ],
      "name": "onERC1155Received",
      "outputs": [
        {
          "internalType": "bytes4",
          "name": "",
          "type": "bytes4"
        }
      ],
      "stateMutability": "nonpayable",
      "type": "function"
    },
    {
      "inputs": [
        {
          "internalType": "address",
          "name": "",
          "type": "address"
        },
        {
          "internalType": "address",
          "name": "",
          "type": "address"
        },
        {
          "internalType": "uint256[]",
          "name": "",
          "type": "uint256[]"
        },
        {
          "internalType": "uint256[]",
          "name": "",
          "type": "uint256[]"
        },
        {
          "internalType": "bytes",
          "name": "",
          "type": "bytes"
        }
      ],
      "name": "onERC1155BatchReceived",
      "outputs": [
        {
          "internalType": "bytes4",
          "name": "",
          "type": "bytes4"
        }
      ],
      "stateMutability": "nonpayable",
      "type": "function"
    },
    {
      "inputs": [
        {
          "internalType": "address",
          "name": "depositor",
          "type": "address"
        },
        {
          "internalType": "address",
          "name": "depositReceiver",
          "type": "address"
        },
        {
          "internalType": "address",
          "name": "rootToken",
          "type": "address"
        },
        {
          "internalType": "bytes",
          "name": "depositData",
          "type": "bytes"
        }
      ],
      "name": "lockTokens",
      "outputs": [],
      "stateMutability": "nonpayable",
      "type": "function"
    },
    {
      "inputs": [
        {
          "internalType": "address",
          "name": "",
          "type": "address"
        },
        {
          "internalType": "address",
          "name": "rootToken",
          "type": "address"
        },
        {
          "internalType": "bytes",
          "name": "log",
          "type": "bytes"
        }
      ],
      "name": "exitTokens",
      "outputs": [],
      "stateMutability": "nonpayable",
      "type": "function"
    }
  ],
  "bytecode": "0x60806040526003805460ff1916905534801561001a57600080fd5b506100346301ffc9a760e01b6001600160e01b0361005216565b61004d630271189760e51b6001600160e01b0361005216565b6100d6565b6001600160e01b031980821614156100b1576040805162461bcd60e51b815260206004820152601c60248201527f4552433136353a20696e76616c696420696e7465726661636520696400000000604482015290519081900360640190fd5b6001600160e01b0319166000908152602081905260409020805460ff19166001179055565b611e7c80620000e66000396000f3fe608060405234801561001057600080fd5b50600436106101165760003560e01c8063bc197c81116100a2578063e375b64e11610071578063e375b64e146104ca578063e9cff29114610559578063eacc7af214610561578063ec87621c14610569578063f23a6e611461057157610116565b8063bc197c8114610317578063c4d66de81461045b578063ca15c87314610481578063d547741f1461049e57610116565b8063609c92b8116100e9578063609c92b8146101df5780638274664f146101e75780639010d07c146102a457806391d14854146102e3578063a217fddf1461030f57610116565b806301ffc9a71461011b578063248a9ca3146101565780632f2ff15d1461018557806336568abe146101b3575b600080fd5b6101426004803603602081101561013157600080fd5b50356001600160e01b031916610604565b604080519115158252519081900360200190f35b6101736004803603602081101561016c57600080fd5b5035610627565b60408051918252519081900360200190f35b6101b16004803603604081101561019b57600080fd5b50803590602001356001600160a01b031661063c565b005b6101b1600480360360408110156101c957600080fd5b50803590602001356001600160a01b03166106a8565b610173610709565b6101b1600480360360608110156101fd57600080fd5b6001600160a01b038235811692602081013590911691810190606081016040820135600160201b81111561023057600080fd5b82018360208201111561024257600080fd5b803590602001918460018302840111600160201b8311171561026357600080fd5b91908080601f016020809104026020016040519081016040528093929190818152602001838380828437600092019190915250929550610728945050505050565b6102c7600480360360408110156102ba57600080fd5b5080359060200135610eb8565b604080516001600160a01b039092168252519081900360200190f35b610142600480360360408110156102f957600080fd5b50803590602001356001600160a01b0316610edf565b610173610efd565b61043e600480360360a081101561032d57600080fd5b6001600160a01b038235811692602081013590911691810190606081016040820135600160201b81111561036057600080fd5b82018360208201111561037257600080fd5b803590602001918460208302840111600160201b8311171561039357600080fd5b919390929091602081019035600160201b8111156103b057600080fd5b8201836020820111156103c257600080fd5b803590602001918460208302840111600160201b831117156103e357600080fd5b919390929091602081019035600160201b81111561040057600080fd5b82018360208201111561041257600080fd5b803590602001918460018302840111600160201b8311171561043357600080fd5b509092509050610f02565b604080516001600160e01b03199092168252519081900360200190f35b6101b16004803603602081101561047157600080fd5b50356001600160a01b0316610f16565b6101736004803603602081101561049757600080fd5b5035610fd6565b6101b1600480360360408110156104b457600080fd5b50803590602001356001600160a01b0316610fed565b6101b1600480360360808110156104e057600080fd5b6001600160a01b0382358116926020810135821692604082013590921691810190608081016060820135600160201b81111561051b57600080fd5b82018360208201111561052d57600080fd5b803590602001918460018302840111600160201b8311171561054e57600080fd5b509092509050611046565b6101736114dc565b610173611500565b610173611524565b61043e600480360360a081101561058757600080fd5b6001600160a01b03823581169260208101359091169160408201359160608101359181019060a081016080820135600160201b8111156105c657600080fd5b8201836020820111156105d857600080fd5b803590602001918460018302840111600160201b831117156105f957600080fd5b509092509050611548565b6001600160e01b0319811660009081526020819052604090205460ff165b919050565b60009081526001602052604090206002015490565b60008281526001602052604090206002015461065f9061065a611554565b610edf565b61069a5760405162461bcd60e51b815260040180806020018281038252602f815260200180611d71602f913960400191505060405180910390fd5b6106a48282611559565b5050565b6106b0611554565b6001600160a01b0316816001600160a01b0316146106ff5760405162461bcd60e51b815260040180806020018281038252602f815260200180611e18602f913960400191505060405180910390fd5b6106a482826115c8565b60408051664552433131353560c81b8152905190819003600701902081565b604080516b4d414e414745525f524f4c4560a01b8152905190819003600c0190206107558161065a611554565b6002906107f55760405162461bcd60e51b81526020600482019081528254600260001961010060018416150201909116046024830181905290918291604490910190849080156107e65780601f106107bb576101008083540402835291602001916107e6565b820191906000526020600020905b8154815290600101906020018083116107c957829003601f168201915b50509250505060405180910390fd5b50606061080961080484611637565b61165c565b9050606061082a8260018151811061081d57fe5b602002602001015161165c565b9050606061084b8360028151811061083e57fe5b6020026020010151611744565b9050600061086c8360028151811061085f57fe5b60200260200101516117c1565b905060006001600160a01b03166108898460038151811061085f57fe5b6001600160a01b0316146108ce5760405162461bcd60e51b8152600401808060200182810382526022815260200180611dc66022913960400191505060405180910390fd5b7fc3d58168c5ae7397731d063d5bbf3d657854427343f4c083240f7aacaa2d0f6260001b6109028460008151811061085f57fe5b1415610aac5760008083806020019051604081101561092057600080fd5b81019080805190602001909291908051906020019092919050505091509150886001600160a01b031663f242432a30858585604051806020016040528060008152506040518663ffffffff1660e01b815260040180866001600160a01b03166001600160a01b03168152602001856001600160a01b03166001600160a01b0316815260200184815260200183815260200180602001828103825283818151815260200191508051906020019080838360005b838110156109ea5781810151838201526020016109d2565b50505050905090810190601f168015610a175780820380516001836020036101000a031916815260200191505b509650505050505050600060405180830381600087803b158015610a3a57600080fd5b505af1158015610a4e573d6000803e3d6000fd5b50505050886001600160a01b0316836001600160a01b03167fd67111005094cf8cfa95e08877f94a651fa0b77d114471ca2991151d6ab7faa38484604051808381526020018281526020019250505060405180910390a35050610eae565b7f4a39dc06d4c0dbc64b70af90fd698a233a518aa5d07e595d983b8c0526c8f7fb60001b610ae08460008151811061085f57fe5b1415610e7757606080838060200190516040811015610afe57600080fd5b8101908080516040519392919084600160201b821115610b1d57600080fd5b908301906020820185811115610b3257600080fd5b82518660208202830111600160201b82111715610b4e57600080fd5b82525081516020918201928201910280838360005b83811015610b7b578181015183820152602001610b63565b5050505090500160405260200180516040519392919084600160201b821115610ba357600080fd5b908301906020820185811115610bb857600080fd5b82518660208202830111600160201b82111715610bd457600080fd5b82525081516020918201928201910280838360005b83811015610c01578181015183820152602001610be9565b5050505090500160405250505091509150886001600160a01b0316632eb2c2d630858585604051806020016040528060008152506040518663ffffffff1660e01b815260040180866001600160a01b03166001600160a01b03168152602001856001600160a01b03166001600160a01b03168152602001806020018060200180602001848103845287818151815260200191508051906020019060200280838360005b83811015610cbc578181015183820152602001610ca4565b50505050905001848103835286818151815260200191508051906020019060200280838360005b83811015610cfb578181015183820152602001610ce3565b50505050905001848103825285818151815260200191508051906020019080838360005b83811015610d37578181015183820152602001610d1f565b50505050905090810190601f168015610d645780820380516001836020036101000a031916815260200191505b5098505050505050505050600060405180830381600087803b158015610d8957600080fd5b505af1158015610d9d573d6000803e3d6000fd5b50505050886001600160a01b0316836001600160a01b03167f869b80aaea02f34f7fb379faec6f4b1ae676cad20fe5603715fdaac6f135f5968484604051808060200180602001838103835285818151815260200191508051906020019060200280838360005b83811015610e1c578181015183820152602001610e04565b50505050905001838103825284818151815260200191508051906020019060200280838360005b83811015610e5b578181015183820152602001610e43565b5050505090500194505050505060405180910390a35050610eae565b60405162461bcd60e51b8152600401808060200182810382526026815260200180611da06026913960400191505060405180910390fd5b5050505050505050565b6000828152600160205260408120610ed6908363ffffffff61180f16565b90505b92915050565b6000828152600160205260408120610ed6908363ffffffff61181b16565b600081565b63bc197c8160e01b98975050505050505050565b60035460ff1615610f5f576040805162461bcd60e51b815260206004820152600e60248201526d185b1c9958591e481a5b9a5d195960921b604482015290519081900360640190fd5b610f906040518060400160405280601081526020016f4552433131353550726564696361746560801b815250611830565b610f9b60008261069a565b604080516b4d414e414745525f524f4c4560a01b8152905190819003600c019020610fc6908261069a565b506003805460ff19166001179055565b6000818152600160205260408120610ed9906118ce565b60008281526001602052604090206002015461100b9061065a611554565b6106ff5760405162461bcd60e51b8152600401808060200182810382526030815260200180611de86030913960400191505060405180910390fd5b604080516b4d414e414745525f524f4c4560a01b8152905190819003600c0190206110738161065a611554565b6002906110d95760405162461bcd60e51b81526020600482019081528254600260001961010060018416150201909116046024830181905290918291604490910190849080156107e65780601f106107bb576101008083540402835291602001916107e6565b506060806060858560608110156110ef57600080fd5b810190602081018135600160201b81111561110957600080fd5b82018360208201111561111b57600080fd5b803590602001918460208302840111600160201b8311171561113c57600080fd5b9190808060200260200160405190810160405280939291908181526020018383602002808284376000920191909152509295949360208101935035915050600160201b81111561118b57600080fd5b82018360208201111561119d57600080fd5b803590602001918460208302840111600160201b831117156111be57600080fd5b9190808060200260200160405190810160405280939291908181526020018383602002808284376000920191909152509295949360208101935035915050600160201b81111561120d57600080fd5b82018360208201111561121f57600080fd5b803590602001918460018302840111600160201b8311171561124057600080fd5b91908080601f016020809104026020016040519081016040528093929190818152602001838380828437600081840152601f19601f820116905080830192505050505050509192919290505050925092509250866001600160a01b0316886001600160a01b03168a6001600160a01b03167f5a921678b5779e4471b77219741a417a6ad6ec5d89fa5c8ce8cd7bd2d9f341868686604051808060200180602001838103835285818151815260200191508051906020019060200280838360005b83811015611318578181015183820152602001611300565b50505050905001838103825284818151815260200191508051906020019060200280838360005b8381101561135757818101518382015260200161133f565b5050505090500194505050505060405180910390a4604051631759616b60e11b81526001600160a01b038a811660048301908152306024840181905260a060448501908152875160a48601528751938c1694632eb2c2d6948f948a938a938a936064820191608481019160c4909101906020808a01910280838360005b838110156113ec5781810151838201526020016113d4565b50505050905001848103835286818151815260200191508051906020019060200280838360005b8381101561142b578181015183820152602001611413565b50505050905001848103825285818151815260200191508051906020019080838360005b8381101561146757818101518382015260200161144f565b50505050905090810190601f1680156114945780820380516001836020036101000a031916815260200191505b5098505050505050505050600060405180830381600087803b1580156114b957600080fd5b505af11580156114cd573d6000803e3d6000fd5b50505050505050505050505050565b7fc3d58168c5ae7397731d063d5bbf3d657854427343f4c083240f7aacaa2d0f6281565b7f4a39dc06d4c0dbc64b70af90fd698a233a518aa5d07e595d983b8c0526c8f7fb81565b604080516b4d414e414745525f524f4c4560a01b8152905190819003600c01902081565b60009695505050505050565b335b90565b6000828152600160205260409020611577908263ffffffff6118d916565b156106a457611584611554565b6001600160a01b0316816001600160a01b0316837f2f8788117e7eff1d82e926ec794901d17c78024a50270940304540a733656f0d60405160405180910390a45050565b60008281526001602052604090206115e6908263ffffffff6118ee16565b156106a4576115f3611554565b6001600160a01b0316816001600160a01b0316837ff6391f5c32d9c69d2a47ea670b442974b53935d1edc7fd64eb21e047a839171b60405160405180910390a45050565b61163f611c9c565b506040805180820190915281518152602082810190820152919050565b606061166782611903565b61167057600080fd5b600061167b8361193d565b905060608167ffffffffffffffff8111801561169657600080fd5b506040519080825280602002602001820160405280156116d057816020015b6116bd611c9c565b8152602001906001900390816116b55790505b50905060006116e28560200151611999565b60208601510190506000805b84811015611739576116ff836119fc565b915060405180604001604052808381526020018481525084828151811061172257fe5b6020908102919091010152918101916001016116ee565b509195945050505050565b805160609061175257600080fd5b60008061175e84611a95565b9150915060608167ffffffffffffffff8111801561177b57600080fd5b506040519080825280601f01601f1916602001820160405280156117a6576020820181803683370190505b509050602081016117b8848285611abb565b50949350505050565b8051600090158015906117d657508151602110155b6117df57600080fd5b6000806117eb84611a95565b8151919350915060208210156118075760208290036101000a90045b949350505050565b6000610ed68383611b0c565b6000610ed6836001600160a01b038416611b70565b806040516020018082805190602001908083835b602083106118635780518252601f199092019160209182019101611844565b51815160209384036101000a60001901801990921691161790527f3a20494e53554646494349454e545f5045524d495353494f4e530000000000009190930190815260408051808303600519018152601a909201905280516106a49550600294509201919050611cb6565b6000610ed982611b88565b6000610ed6836001600160a01b038416611b8c565b6000610ed6836001600160a01b038416611bd6565b805160009061191457506000610622565b6020820151805160001a9060c082101561193357600092505050610622565b5060019392505050565b805160009061194e57506000610622565b600080905060006119628460200151611999565b602085015185519181019250015b8082101561199057611981826119fc565b60019093019290910190611970565b50909392505050565b8051600090811a60808110156119b3576000915050610622565b60b88110806119ce575060c081108015906119ce575060f881105b156119dd576001915050610622565b60c08110156119f15760b519019050610622565b60f519019050610622565b80516000908190811a6080811015611a175760019150611a8e565b60b8811015611a2c57607e1981019150611a8e565b60c0811015611a595760b78103600185019450806020036101000a85510460018201810193505050611a8e565b60f8811015611a6e5760be1981019150611a8e565b60f78103600185019450806020036101000a855104600182018101935050505b5092915050565b6000806000611aa78460200151611999565b602085015194519481019594039392505050565b80611ac557611b07565b5b60208110611ae5578251825260209283019290910190601f1901611ac6565b8015611b07578251825160208390036101000a60001901801990921691161782525b505050565b81546000908210611b4e5760405162461bcd60e51b8152600401808060200182810382526022815260200180611d4f6022913960400191505060405180910390fd5b826000018281548110611b5d57fe5b9060005260206000200154905092915050565b60009081526001919091016020526040902054151590565b5490565b6000611b988383611b70565b611bce57508154600181810184556000848152602080822090930184905584548482528286019093526040902091909155610ed9565b506000610ed9565b60008181526001830160205260408120548015611c925783546000198083019190810190600090879083908110611c0957fe5b9060005260206000200154905080876000018481548110611c2657fe5b600091825260208083209091019290925582815260018981019092526040902090840190558654879080611c5657fe5b60019003818190600052602060002001600090559055866001016000878152602001908152602001600020600090556001945050505050610ed9565b6000915050610ed9565b604051806040016040528060008152602001600081525090565b828054600181600116156101000203166002900490600052602060002090601f016020900481019282601f10611cf757805160ff1916838001178555611d24565b82800160010185558215611d24579182015b82811115611d24578251825591602001919060010190611d09565b50611d30929150611d34565b5090565b61155691905b80821115611d305760008155600101611d3a56fe456e756d657261626c655365743a20696e646578206f7574206f6620626f756e6473416363657373436f6e74726f6c3a2073656e646572206d75737420626520616e2061646d696e20746f206772616e74455243313135355072656469636174653a20494e56414c49445f57495448445241575f534947455243313135355072656469636174653a20494e56414c49445f5245434549564552416363657373436f6e74726f6c3a2073656e646572206d75737420626520616e2061646d696e20746f207265766f6b65416363657373436f6e74726f6c3a2063616e206f6e6c792072656e6f756e636520726f6c657320666f722073656c66a264697066735822122094eec9e9d22f7388df8f663db08c4aaaf4da7ac9061775dccca23c4869923d9064736f6c63430006060033",
  "immutableReferences": {},
  "source": "pragma solidity 0.6.6;\n\nimport {IERC1155} from \"@openzeppelin/contracts/token/ERC1155/IERC1155.sol\";\nimport {ERC1155Receiver} from \"@openzeppelin/contracts/token/ERC1155/ERC1155Receiver.sol\";\nimport {AccessControlMixin} from \"../../common/AccessControlMixin.sol\";\nimport {RLPReader} from \"../../lib/RLPReader.sol\";\nimport {ITokenPredicate} from \"./ITokenPredicate.sol\";\nimport {Initializable} from \"../../common/Initializable.sol\";\n\ncontract ERC1155Predicate is ITokenPredicate, ERC1155Receiver, AccessControlMixin, Initializable {\n    using RLPReader for bytes;\n    using RLPReader for RLPReader.RLPItem;\n\n    bytes32 public constant MANAGER_ROLE = keccak256(\"MANAGER_ROLE\");\n    bytes32 public constant TOKEN_TYPE = keccak256(\"ERC1155\");\n\n    // keccak256(\"TransferSingle(address,address,address,uint256,uint256)\")\n    bytes32 public constant TRANSFER_SINGLE_EVENT_SIG = 0xc3d58168c5ae7397731d063d5bbf3d657854427343f4c083240f7aacaa2d0f62;\n    // keccak256(\"TransferBatch(address,address,address,uint256[],uint256[])\")\n    bytes32 public constant TRANSFER_BATCH_EVENT_SIG = 0x4a39dc06d4c0dbc64b70af90fd698a233a518aa5d07e595d983b8c0526c8f7fb;\n\n    event LockedBatchERC1155(\n        address indexed depositor,\n        address indexed depositReceiver,\n        address indexed rootToken,\n        uint256[] ids,\n        uint256[] amounts\n    );\n\n    event ExitedERC1155(\n        address indexed exitor,\n        address indexed rootToken,\n        uint256 id,\n        uint256 amount\n    );\n\n\n    event ExitedBatchERC1155(\n        address indexed exitor,\n        address indexed rootToken,\n        uint256[] ids,\n        uint256[] amounts\n    );\n\n    constructor() public {}\n\n    function initialize(address _owner) external initializer {\n        _setupContractId(\"ERC1155Predicate\");\n        _setupRole(DEFAULT_ADMIN_ROLE, _owner);\n        _setupRole(MANAGER_ROLE, _owner);\n    }\n\n    /**\n     * @notice rejects single transfer\n     */\n    function onERC1155Received(\n        address,\n        address,\n        uint256,\n        uint256,\n        bytes calldata\n    ) external override returns (bytes4) {\n        return 0;\n    }\n\n    /**\n     * @notice accepts batch transfer\n     */\n    function onERC1155BatchReceived(\n        address,\n        address,\n        uint256[] calldata,\n        uint256[] calldata,\n        bytes calldata\n    ) external override returns (bytes4) {\n        return ERC1155Receiver(0).onERC1155BatchReceived.selector;\n    }\n\n    /**\n     * @notice Lock ERC1155 tokens for deposit, callable only by manager\n     * @param depositor Address who wants to deposit tokens\n     * @param depositReceiver Address (address) who wants to receive tokens on child chain\n     * @param rootToken Token which gets deposited\n     * @param depositData ABI encoded id array and amount array\n     */\n    function lockTokens(\n        address depositor,\n        address depositReceiver,\n        address rootToken,\n        bytes calldata depositData\n    )\n        external\n        override\n        only(MANAGER_ROLE)\n    {\n        // forcing batch deposit since supporting both single and batch deposit introduces too much complexity\n        (\n            uint256[] memory ids,\n            uint256[] memory amounts,\n            bytes memory data\n        ) = abi.decode(depositData, (uint256[], uint256[], bytes));\n        emit LockedBatchERC1155(\n            depositor,\n            depositReceiver,\n            rootToken,\n            ids,\n            amounts\n        );\n        IERC1155(rootToken).safeBatchTransferFrom(\n            depositor,\n            address(this),\n            ids,\n            amounts,\n            data\n        );\n    }\n\n    /**\n     * @notice Validates log signature, from and to address\n     * then sends the correct tokenId, amount to withdrawer\n     * callable only by manager\n     * @param rootToken Token which gets withdrawn\n     * @param log Valid ERC1155 TransferSingle burn or TransferBatch burn log from child chain\n     */\n    function exitTokens(\n        address,\n        address rootToken,\n        bytes memory log\n    )\n        public\n        override\n        only(MANAGER_ROLE)\n    {\n        RLPReader.RLPItem[] memory logRLPList = log.toRlpItem().toList();\n        RLPReader.RLPItem[] memory logTopicRLPList = logRLPList[1].toList(); // topics\n        bytes memory logData = logRLPList[2].toBytes();\n\n        address withdrawer = address(logTopicRLPList[2].toUint()); // topic2 is from address\n\n        require(\n            address(logTopicRLPList[3].toUint()) == address(0), // topic3 is to address\n            \"ERC1155Predicate: INVALID_RECEIVER\"\n        );\n\n        if (bytes32(logTopicRLPList[0].toUint()) == TRANSFER_SINGLE_EVENT_SIG) { // topic0 is event sig\n            (uint256 id, uint256 amount) = abi.decode(\n                logData,\n                (uint256, uint256)\n            );\n            IERC1155(rootToken).safeTransferFrom(\n                address(this),\n                withdrawer,\n                id,\n                amount,\n                bytes(\"\")\n            );\n            emit ExitedERC1155(withdrawer, rootToken, id, amount);\n\n        } else if (bytes32(logTopicRLPList[0].toUint()) == TRANSFER_BATCH_EVENT_SIG) {\n            (uint256[] memory ids, uint256[] memory amounts) = abi.decode(\n                logData,\n                (uint256[], uint256[])\n            );\n            IERC1155(rootToken).safeBatchTransferFrom(\n                address(this),\n                withdrawer,\n                ids,\n                amounts,\n                bytes(\"\")\n            );\n\n            emit ExitedBatchERC1155(withdrawer, rootToken, ids, amounts);\n        } else {\n            revert(\"ERC1155Predicate: INVALID_WITHDRAW_SIG\");\n        }\n    }\n}\n",
  "sourcePath": "/Users/ohm.jirapon/playground/blockhain/layer-2/plasma-ploygon/matic-cli/devnet/code/pos-portal/contracts/root/TokenPredicates/ERC1155Predicate.sol",
  "compiler": {
    "name": "solc",
    "version": "0.6.6+commit.6c089d02.Linux.g++"
  },
  "schemaVersion": "3.4.9",
  "updatedAt": "2022-08-22T08:50:23.996Z",
  "networkType": "ethereum",
  "devdoc": {
    "methods": {
      "exitTokens(address,address,bytes)": {
        "params": {
          "log": "Valid ERC1155 TransferSingle burn or TransferBatch burn log from child chain",
          "rootToken": "Token which gets withdrawn"
        }
      },
      "getRoleAdmin(bytes32)": {
        "details": "Returns the admin role that controls `role`. See {grantRole} and {revokeRole}.     * To change a role's admin, use {_setRoleAdmin}."
      },
      "getRoleMember(bytes32,uint256)": {
        "details": "Returns one of the accounts that have `role`. `index` must be a value between 0 and {getRoleMemberCount}, non-inclusive.     * Role bearers are not sorted in any particular way, and their ordering may change at any point.     * WARNING: When using {getRoleMember} and {getRoleMemberCount}, make sure you perform all queries on the same block. See the following https://forum.openzeppelin.com/t/iterating-over-elements-on-enumerableset-in-openzeppelin-contracts/2296[forum post] for more information."
      },
      "getRoleMemberCount(bytes32)": {
        "details": "Returns the number of accounts that have `role`. Can be used together with {getRoleMember} to enumerate all bearers of a role."
      },
      "grantRole(bytes32,address)": {
        "details": "Grants `role` to `account`.     * If `account` had not been already granted `role`, emits a {RoleGranted} event.     * Requirements:     * - the caller must have ``role``'s admin role."
      },
      "hasRole(bytes32,address)": {
        "details": "Returns `true` if `account` has been granted `role`."
      },
      "lockTokens(address,address,address,bytes)": {
        "params": {
          "depositData": "ABI encoded id array and amount array",
          "depositReceiver": "Address (address) who wants to receive tokens on child chain",
          "depositor": "Address who wants to deposit tokens",
          "rootToken": "Token which gets deposited"
        }
      },
      "renounceRole(bytes32,address)": {
        "details": "Revokes `role` from the calling account.     * Roles are often managed via {grantRole} and {revokeRole}: this function's purpose is to provide a mechanism for accounts to lose their privileges if they are compromised (such as when a trusted device is misplaced).     * If the calling account had been granted `role`, emits a {RoleRevoked} event.     * Requirements:     * - the caller must be `account`."
      },
      "revokeRole(bytes32,address)": {
        "details": "Revokes `role` from `account`.     * If `account` had been granted `role`, emits a {RoleRevoked} event.     * Requirements:     * - the caller must have ``role``'s admin role."
      },
      "supportsInterface(bytes4)": {
        "details": "See {IERC165-supportsInterface}.     * Time complexity O(1), guaranteed to always use less than 30 000 gas."
      }
    }
  },
  "userdoc": {
    "methods": {
      "exitTokens(address,address,bytes)": {
        "notice": "Validates log signature, from and to address then sends the correct tokenId, amount to withdrawer callable only by manager"
      },
      "lockTokens(address,address,address,bytes)": {
        "notice": "Lock ERC1155 tokens for deposit, callable only by manager"
      },
      "onERC1155BatchReceived(address,address,uint256[],uint256[],bytes)": {
        "notice": "accepts batch transfer"
      },
      "onERC1155Received(address,address,uint256,uint256,bytes)": {
        "notice": "rejects single transfer"
      }
    }
  }
}