{
  "contractName": "MintableERC721Predicate",
  "abi": [
    {
      "inputs": [],
      "stateMutability": "nonpayable",
      "type": "constructor"
    },
    {
      "anonymous": false,
      "inputs": [
        {
          "indexed": true,
          "internalType": "address",
          "name": "exitor",
          "type": "address"
        },
        {
          "indexed": true,
          "internalType": "address",
          "name": "rootToken",
          "type": "address"
        },
        {
          "indexed": false,
          "internalType": "uint256",
          "name": "tokenId",
          "type": "uint256"
        }
      ],
      "name": "ExitedMintableERC721",
      "type": "event"
    },
    {
      "anonymous": false,
      "inputs": [
        {
          "indexed": true,
          "internalType": "address",
          "name": "exitor",
          "type": "address"
        },
        {
          "indexed": true,
          "internalType": "address",
          "name": "rootToken",
          "type": "address"
        },
        {
          "indexed": false,
          "internalType": "uint256[]",
          "name": "tokenIds",
          "type": "uint256[]"
        }
      ],
      "name": "ExitedMintableERC721Batch",
      "type": "event"
    },
    {
      "anonymous": false,
      "inputs": [
        {
          "indexed": true,
          "internalType": "address",
          "name": "depositor",
          "type": "address"
        },
        {
          "indexed": true,
          "internalType": "address",
          "name": "depositReceiver",
          "type": "address"
        },
        {
          "indexed": true,
          "internalType": "address",
          "name": "rootToken",
          "type": "address"
        },
        {
          "indexed": false,
          "internalType": "uint256",
          "name": "tokenId",
          "type": "uint256"
        }
      ],
      "name": "LockedMintableERC721",
      "type": "event"
    },
    {
      "anonymous": false,
      "inputs": [
        {
          "indexed": true,
          "internalType": "address",
          "name": "depositor",
          "type": "address"
        },
        {
          "indexed": true,
          "internalType": "address",
          "name": "depositReceiver",
          "type": "address"
        },
        {
          "indexed": true,
          "internalType": "address",
          "name": "rootToken",
          "type": "address"
        },
        {
          "indexed": false,
          "internalType": "uint256[]",
          "name": "tokenIds",
          "type": "uint256[]"
        }
      ],
      "name": "LockedMintableERC721Batch",
      "type": "event"
    },
    {
      "anonymous": false,
      "inputs": [
        {
          "indexed": true,
          "internalType": "bytes32",
          "name": "role",
          "type": "bytes32"
        },
        {
          "indexed": true,
          "internalType": "bytes32",
          "name": "previousAdminRole",
          "type": "bytes32"
        },
        {
          "indexed": true,
          "internalType": "bytes32",
          "name": "newAdminRole",
          "type": "bytes32"
        }
      ],
      "name": "RoleAdminChanged",
      "type": "event"
    },
    {
      "anonymous": false,
      "inputs": [
        {
          "indexed": true,
          "internalType": "bytes32",
          "name": "role",
          "type": "bytes32"
        },
        {
          "indexed": true,
          "internalType": "address",
          "name": "account",
          "type": "address"
        },
        {
          "indexed": true,
          "internalType": "address",
          "name": "sender",
          "type": "address"
        }
      ],
      "name": "RoleGranted",
      "type": "event"
    },
    {
      "anonymous": false,
      "inputs": [
        {
          "indexed": true,
          "internalType": "bytes32",
          "name": "role",
          "type": "bytes32"
        },
        {
          "indexed": true,
          "internalType": "address",
          "name": "account",
          "type": "address"
        },
        {
          "indexed": true,
          "internalType": "address",
          "name": "sender",
          "type": "address"
        }
      ],
      "name": "RoleRevoked",
      "type": "event"
    },
    {
      "inputs": [],
      "name": "BATCH_LIMIT",
      "outputs": [
        {
          "internalType": "uint256",
          "name": "",
          "type": "uint256"
        }
      ],
      "stateMutability": "view",
      "type": "function",
      "constant": true
    },
    {
      "inputs": [],
      "name": "DEFAULT_ADMIN_ROLE",
      "outputs": [
        {
          "internalType": "bytes32",
          "name": "",
          "type": "bytes32"
        }
      ],
      "stateMutability": "view",
      "type": "function",
      "constant": true
    },
    {
      "inputs": [],
      "name": "MANAGER_ROLE",
      "outputs": [
        {
          "internalType": "bytes32",
          "name": "",
          "type": "bytes32"
        }
      ],
      "stateMutability": "view",
      "type": "function",
      "constant": true
    },
    {
      "inputs": [],
      "name": "TOKEN_TYPE",
      "outputs": [
        {
          "internalType": "bytes32",
          "name": "",
          "type": "bytes32"
        }
      ],
      "stateMutability": "view",
      "type": "function",
      "constant": true
    },
    {
      "inputs": [],
      "name": "TRANSFER_EVENT_SIG",
      "outputs": [
        {
          "internalType": "bytes32",
          "name": "",
          "type": "bytes32"
        }
      ],
      "stateMutability": "view",
      "type": "function",
      "constant": true
    },
    {
      "inputs": [],
      "name": "TRANSFER_WITH_METADATA_EVENT_SIG",
      "outputs": [
        {
          "internalType": "bytes32",
          "name": "",
          "type": "bytes32"
        }
      ],
      "stateMutability": "view",
      "type": "function",
      "constant": true
    },
    {
      "inputs": [],
      "name": "WITHDRAW_BATCH_EVENT_SIG",
      "outputs": [
        {
          "internalType": "bytes32",
          "name": "",
          "type": "bytes32"
        }
      ],
      "stateMutability": "view",
      "type": "function",
      "constant": true
    },
    {
      "inputs": [
        {
          "internalType": "bytes32",
          "name": "role",
          "type": "bytes32"
        }
      ],
      "name": "getRoleAdmin",
      "outputs": [
        {
          "internalType": "bytes32",
          "name": "",
          "type": "bytes32"
        }
      ],
      "stateMutability": "view",
      "type": "function",
      "constant": true
    },
    {
      "inputs": [
        {
          "internalType": "bytes32",
          "name": "role",
          "type": "bytes32"
        },
        {
          "internalType": "uint256",
          "name": "index",
          "type": "uint256"
        }
      ],
      "name": "getRoleMember",
      "outputs": [
        {
          "internalType": "address",
          "name": "",
          "type": "address"
        }
      ],
      "stateMutability": "view",
      "type": "function",
      "constant": true
    },
    {
      "inputs": [
        {
          "internalType": "bytes32",
          "name": "role",
          "type": "bytes32"
        }
      ],
      "name": "getRoleMemberCount",
      "outputs": [
        {
          "internalType": "uint256",
          "name": "",
          "type": "uint256"
        }
      ],
      "stateMutability": "view",
      "type": "function",
      "constant": true
    },
    {
      "inputs": [
        {
          "internalType": "bytes32",
          "name": "role",
          "type": "bytes32"
        },
        {
          "internalType": "address",
          "name": "account",
          "type": "address"
        }
      ],
      "name": "grantRole",
      "outputs": [],
      "stateMutability": "nonpayable",
      "type": "function"
    },
    {
      "inputs": [
        {
          "internalType": "bytes32",
          "name": "role",
          "type": "bytes32"
        },
        {
          "internalType": "address",
          "name": "account",
          "type": "address"
        }
      ],
      "name": "hasRole",
      "outputs": [
        {
          "internalType": "bool",
          "name": "",
          "type": "bool"
        }
      ],
      "stateMutability": "view",
      "type": "function",
      "constant": true
    },
    {
      "inputs": [
        {
          "internalType": "bytes32",
          "name": "role",
          "type": "bytes32"
        },
        {
          "internalType": "address",
          "name": "account",
          "type": "address"
        }
      ],
      "name": "renounceRole",
      "outputs": [],
      "stateMutability": "nonpayable",
      "type": "function"
    },
    {
      "inputs": [
        {
          "internalType": "bytes32",
          "name": "role",
          "type": "bytes32"
        },
        {
          "internalType": "address",
          "name": "account",
          "type": "address"
        }
      ],
      "name": "revokeRole",
      "outputs": [],
      "stateMutability": "nonpayable",
      "type": "function"
    },
    {
      "inputs": [
        {
          "internalType": "address",
          "name": "_owner",
          "type": "address"
        }
      ],
      "name": "initialize",
      "outputs": [],
      "stateMutability": "nonpayable",
      "type": "function"
    },
    {
      "inputs": [
        {
          "internalType": "address",
          "name": "",
          "type": "address"
        },
        {
          "internalType": "address",
          "name": "",
          "type": "address"
        },
        {
          "internalType": "uint256",
          "name": "",
          "type": "uint256"
        },
        {
          "internalType": "bytes",
          "name": "",
          "type": "bytes"
        }
      ],
      "name": "onERC721Received",
      "outputs": [
        {
          "internalType": "bytes4",
          "name": "",
          "type": "bytes4"
        }
      ],
      "stateMutability": "nonpayable",
      "type": "function"
    },
    {
      "inputs": [
        {
          "internalType": "address",
          "name": "depositor",
          "type": "address"
        },
        {
          "internalType": "address",
          "name": "depositReceiver",
          "type": "address"
        },
        {
          "internalType": "address",
          "name": "rootToken",
          "type": "address"
        },
        {
          "internalType": "bytes",
          "name": "depositData",
          "type": "bytes"
        }
      ],
      "name": "lockTokens",
      "outputs": [],
      "stateMutability": "nonpayable",
      "type": "function"
    },
    {
      "inputs": [
        {
          "internalType": "address",
          "name": "",
          "type": "address"
        },
        {
          "internalType": "address",
          "name": "rootToken",
          "type": "address"
        },
        {
          "internalType": "bytes",
          "name": "log",
          "type": "bytes"
        }
      ],
      "name": "exitTokens",
      "outputs": [],
      "stateMutability": "nonpayable",
      "type": "function"
    }
  ],
  "bytecode": "0x60806040526002805460ff1916905534801561001a57600080fd5b50611f968061002a6000396000f3fe608060405234801561001057600080fd5b50600436106101165760003560e01c806391d14854116100a2578063c4d66de811610071578063c4d66de8146103bb578063ca15c873146103e1578063d547741f146103fe578063e375b64e1461042a578063ec87621c146104b957610116565b806391d14854146103635780639559c0bd146103a3578063a217fddf146103ab578063b017a30f146103b357610116565b80634794b430116100e95780634794b4301461024f57806349f5124b14610257578063609c92b81461025f5780638274664f146102675780639010d07c1461032457610116565b8063150b7a021461011b578063248a9ca3146101c65780632f2ff15d146101f557806336568abe14610223575b600080fd5b6101a96004803603608081101561013157600080fd5b6001600160a01b03823581169260208101359091169160408201359190810190608081016060820135600160201b81111561016b57600080fd5b82018360208201111561017d57600080fd5b803590602001918460018302840111600160201b8311171561019e57600080fd5b5090925090506104c1565b604080516001600160e01b03199092168252519081900360200190f35b6101e3600480360360208110156101dc57600080fd5b50356104d2565b60408051918252519081900360200190f35b6102216004803603604081101561020b57600080fd5b50803590602001356001600160a01b03166104ea565b005b6102216004803603604081101561023957600080fd5b50803590602001356001600160a01b0316610556565b6101e36105b7565b6101e36105db565b6101e36105ff565b6102216004803603606081101561027d57600080fd5b6001600160a01b038235811692602081013590911691810190606081016040820135600160201b8111156102b057600080fd5b8201836020820111156102c257600080fd5b803590602001918460018302840111600160201b831117156102e357600080fd5b91908080601f016020809104026020016040519081016040528093929190818152602001838380828437600092019190915250929550610623945050505050565b6103476004803603604081101561033a57600080fd5b50803590602001356110c1565b604080516001600160a01b039092168252519081900360200190f35b61038f6004803603604081101561037957600080fd5b50803590602001356001600160a01b03166110e8565b604080519115158252519081900360200190f35b6101e3611106565b6101e361110b565b6101e3611110565b610221600480360360208110156103d157600080fd5b50356001600160a01b0316611134565b6101e3600480360360208110156103f757600080fd5b50356111ee565b6102216004803603604081101561041457600080fd5b50803590602001356001600160a01b0316611205565b6102216004803603608081101561044057600080fd5b6001600160a01b0382358116926020810135821692604082013590921691810190608081016060820135600160201b81111561047b57600080fd5b82018360208201111561048d57600080fd5b803590602001918460018302840111600160201b831117156104ae57600080fd5b50909250905061125e565b6101e3611605565b630a85bd0160e11b95945050505050565b6000818152602081905260409020600201545b919050565b60008281526020819052604090206002015461050d90610508611617565b6110e8565b6105485760405162461bcd60e51b815260040180806020018281038252602f815260200180611e34602f913960400191505060405180910390fd5b610552828261161c565b5050565b61055e611617565b6001600160a01b0316816001600160a01b0316146105ad5760405162461bcd60e51b815260040180806020018281038252602f815260200180611f32602f913960400191505060405180910390fd5b610552828261168b565b7ff871896b17e9cb7a64941c62c188a4f5c621b86800e3d15452ece01ce56073df81565b7ff94915c6d1fd521cee85359239227480c7e8776d7caf1fc3bacad5c269b66a1481565b7fd4392723c111fcb98b073fe55873efb447bcd23cd3e49ec9ea2581930cd01ddc81565b600080516020611ee983398151915261063e81610508611617565b6001906106de5760405162461bcd60e51b81526020600482019081528254600260001961010060018416150201909116046024830181905290918291604490910190849080156106cf5780601f106106a4576101008083540402835291602001916106cf565b820191906000526020600020905b8154815290600101906020018083116106b257829003601f168201915b50509250505060405180910390fd5b5060606106f26106ed846116fa565b61171f565b905060606107138260018151811061070657fe5b602002602001015161171f565b90507fddf252ad1be2c89b69c2b068fc378daa952ba7f163c4a11628f55a4df523b3ef60001b6107568260008151811061074957fe5b6020026020010151611807565b141561099f57600061076e8260018151811061074957fe5b905060006001600160a01b031661078b8360028151811061074957fe5b6001600160a01b0316146107d05760405162461bcd60e51b8152600401808060200182810382526029815260200180611f096029913960400191505060405180910390fd5b600086905060006107e78460038151811061074957fe5b9050816001600160a01b0316634f558e79826040518263ffffffff1660e01b81526004018082815260200191505060206040518083038186803b15801561082d57600080fd5b505afa158015610841573d6000803e3d6000fd5b505050506040513d602081101561085757600080fd5b5051156108d35760408051632142170760e11b81523060048201526001600160a01b038581166024830152604482018490529151918416916342842e0e9160648082019260009290919082900301818387803b1580156108b657600080fd5b505af11580156108ca573d6000803e3d6000fd5b5050505061094c565b816001600160a01b03166340c10f1984836040518363ffffffff1660e01b815260040180836001600160a01b03166001600160a01b0316815260200182815260200192505050600060405180830381600087803b15801561093357600080fd5b505af1158015610947573d6000803e3d6000fd5b505050505b876001600160a01b0316836001600160a01b03167f0a1edd9f5e13f957158280d34c46fe349a4e13cca2018c77d00cd2fd976f0438836040518082815260200191505060405180910390a35050506110b9565b7ff871896b17e9cb7a64941c62c188a4f5c621b86800e3d15452ece01ce56073df60001b6109d38260008151811061074957fe5b1415610cdc5760006109eb8260018151811061074957fe5b90506060610a0c846002815181106109ff57fe5b6020026020010151611855565b90506060818060200190516020811015610a2557600080fd5b8101908080516040519392919084600160201b821115610a4457600080fd5b908301906020820185811115610a5957600080fd5b82518660208202830111600160201b82111715610a7557600080fd5b82525081516020918201928201910280838360005b83811015610aa2578181015183820152602001610a8a565b5050505091909101604052505082519293508a9150600090505b82811015610c48576000848281518110610ad257fe5b60200260200101519050826001600160a01b0316634f558e79826040518263ffffffff1660e01b81526004018082815260200191505060206040518083038186803b158015610b2057600080fd5b505afa158015610b34573d6000803e3d6000fd5b505050506040513d6020811015610b4a57600080fd5b505115610bc65760408051632142170760e11b81523060048201526001600160a01b038981166024830152604482018490529151918516916342842e0e9160648082019260009290919082900301818387803b158015610ba957600080fd5b505af1158015610bbd573d6000803e3d6000fd5b50505050610c3f565b826001600160a01b03166340c10f1988836040518363ffffffff1660e01b815260040180836001600160a01b03166001600160a01b0316815260200182815260200192505050600060405180830381600087803b158015610c2657600080fd5b505af1158015610c3a573d6000803e3d6000fd5b505050505b50600101610abc565b50896001600160a01b0316856001600160a01b03167fda153ed03804f29148d587a5a11c3b527fb70951aff0fc91d8136f29552a9bde856040518080602001828103825283818151815260200191508051906020019060200280838360005b83811015610cbf578181015183820152602001610ca7565b505050509050019250505060405180910390a350505050506110b9565b7ff94915c6d1fd521cee85359239227480c7e8776d7caf1fc3bacad5c269b66a1460001b610d108260008151811061074957fe5b1415611082576000610d288260018151811061074957fe5b905060006001600160a01b0316610d458360028151811061074957fe5b6001600160a01b031614610d8a5760405162461bcd60e51b8152600401808060200182810382526029815260200180611f096029913960400191505060405180910390fd5b60008690506000610da18460038151811061074957fe5b9050816001600160a01b0316634f558e79826040518263ffffffff1660e01b81526004018082815260200191505060206040518083038186803b158015610de757600080fd5b505afa158015610dfb573d6000803e3d6000fd5b505050506040513d6020811015610e1157600080fd5b505115610e705760408051632142170760e11b81523060048201526001600160a01b038581166024830152604482018490529151918416916342842e0e9160648082019260009290919082900301818387803b1580156108b657600080fd5b6060610e82866002815181106109ff57fe5b90506060818060200190516020811015610e9b57600080fd5b8101908080516040519392919084600160201b821115610eba57600080fd5b908301906020820185811115610ecf57600080fd5b8251600160201b811182820188101715610ee857600080fd5b82525081516020918201929091019080838360005b83811015610f15578181015183820152602001610efd565b50505050905090810190601f168015610f425780820380516001836020036101000a031916815260200191505b506040525050509050836001600160a01b03166394d008ef8685846040518463ffffffff1660e01b815260040180846001600160a01b03166001600160a01b0316815260200183815260200180602001828103825283818151815260200191508051906020019080838360005b83811015610fc7578181015183820152602001610faf565b50505050905090810190601f168015610ff45780820380516001836020036101000a031916815260200191505b50945050505050600060405180830381600087803b15801561101557600080fd5b505af1158015611029573d6000803e3d6000fd5b505050505050876001600160a01b0316836001600160a01b03167f0a1edd9f5e13f957158280d34c46fe349a4e13cca2018c77d00cd2fd976f0438836040518082815260200191505060405180910390a35050506110b9565b60405162461bcd60e51b815260040180806020018281038252602a815260200180611e63602a913960400191505060405180910390fd5b505050505050565b60008281526020819052604081206110df908363ffffffff6118d216565b90505b92915050565b60008281526020819052604081206110df908363ffffffff6118de16565b601481565b600081565b7fddf252ad1be2c89b69c2b068fc378daa952ba7f163c4a11628f55a4df523b3ef81565b60025460ff161561117d576040805162461bcd60e51b815260206004820152600e60248201526d185b1c9958591e481a5b9a5d195960921b604482015290519081900360640190fd5b6111bb6040518060400160405280601781526020017f4d696e7461626c654552433732315072656469636174650000000000000000008152506118f3565b6111c6600082610548565b6111de600080516020611ee983398151915282610548565b506002805460ff19166001179055565b60008181526020819052604081206110e290611991565b60008281526020819052604090206002015461122390610508611617565b6105ad5760405162461bcd60e51b8152600401808060200182810382526030815260200180611e8d6030913960400191505060405180910390fd5b600080516020611ee983398151915261127981610508611617565b6001906112df5760405162461bcd60e51b81526020600482019081528254600260001961010060018416150201909116046024830181905290918291604490910190849080156106cf5780601f106106a4576101008083540402835291602001916106cf565b5060208214156113be576000838360208110156112fb57600080fd5b5060408051913580835290519092506001600160a01b038088169289821692918b16917fe13244aa06bdc79480ed5fdc6ebe2bb37202fcdf33ecf45dc449f4201f3dc0879181900360200190a460408051632142170760e11b81526001600160a01b038981166004830152306024830152604482018490529151918716916342842e0e9160648082019260009290919082900301818387803b1580156113a057600080fd5b505af11580156113b4573d6000803e3d6000fd5b50505050506110b9565b6060838360208110156113d057600080fd5b810190602081018135600160201b8111156113ea57600080fd5b8201836020820111156113fc57600080fd5b803590602001918460208302840111600160201b8311171561141d57600080fd5b919080806020026020016040519081016040528093929190818152602001838360200280828437600081840152601f19601f8201169050808301925050505050505091929192905050509050846001600160a01b0316866001600160a01b0316886001600160a01b03167fdb55e3a0ae817693fd7b07170d81eab0eb2c239f36fcecbc98b6b58ac5667e7a846040518080602001828103825283818151815260200191508051906020019060200280838360005b838110156114e95781810151838201526020016114d1565b505050509050019250505060405180910390a48051601481111561153e5760405162461bcd60e51b815260040180806020018281038252602c815260200180611ebd602c913960400191505060405180910390fd5b60005b818110156115fa57866001600160a01b03166342842e0e8a3086858151811061156657fe5b60200260200101516040518463ffffffff1660e01b815260040180846001600160a01b03166001600160a01b03168152602001836001600160a01b03166001600160a01b031681526020018281526020019350505050600060405180830381600087803b1580156115d657600080fd5b505af11580156115ea573d6000803e3d6000fd5b5050600190920191506115419050565b505050505050505050565b600080516020611ee983398151915281565b335b90565b600082815260208190526040902061163a908263ffffffff61199c16565b1561055257611647611617565b6001600160a01b0316816001600160a01b0316837f2f8788117e7eff1d82e926ec794901d17c78024a50270940304540a733656f0d60405160405180910390a45050565b60008281526020819052604090206116a9908263ffffffff6119b116565b15610552576116b6611617565b6001600160a01b0316816001600160a01b0316837ff6391f5c32d9c69d2a47ea670b442974b53935d1edc7fd64eb21e047a839171b60405160405180910390a45050565b611702611d5f565b506040805180820190915281518152602082810190820152919050565b606061172a826119c6565b61173357600080fd5b600061173e83611a00565b905060608167ffffffffffffffff8111801561175957600080fd5b5060405190808252806020026020018201604052801561179357816020015b611780611d5f565b8152602001906001900390816117785790505b50905060006117a58560200151611a5c565b60208601510190506000805b848110156117fc576117c283611abf565b91506040518060400160405280838152602001848152508482815181106117e557fe5b6020908102919091010152918101916001016117b1565b509195945050505050565b80516000901580159061181c57508151602110155b61182557600080fd5b60008061183184611b58565b81519193509150602082101561184d5760208290036101000a90045b949350505050565b805160609061186357600080fd5b60008061186f84611b58565b9150915060608167ffffffffffffffff8111801561188c57600080fd5b506040519080825280601f01601f1916602001820160405280156118b7576020820181803683370190505b509050602081016118c9848285611b7e565b50949350505050565b60006110df8383611bcf565b60006110df836001600160a01b038416611c33565b806040516020018082805190602001908083835b602083106119265780518252601f199092019160209182019101611907565b51815160209384036101000a60001901801990921691161790527f3a20494e53554646494349454e545f5045524d495353494f4e530000000000009190930190815260408051808303600519018152601a909201905280516105529550600194509201919050611d79565b60006110e282611c4b565b60006110df836001600160a01b038416611c4f565b60006110df836001600160a01b038416611c99565b80516000906119d7575060006104e5565b6020820151805160001a9060c08210156119f6576000925050506104e5565b5060019392505050565b8051600090611a11575060006104e5565b60008090506000611a258460200151611a5c565b602085015185519181019250015b80821015611a5357611a4482611abf565b60019093019290910190611a33565b50909392505050565b8051600090811a6080811015611a765760009150506104e5565b60b8811080611a91575060c08110801590611a91575060f881105b15611aa05760019150506104e5565b60c0811015611ab45760b5190190506104e5565b60f5190190506104e5565b80516000908190811a6080811015611ada5760019150611b51565b60b8811015611aef57607e1981019150611b51565b60c0811015611b1c5760b78103600185019450806020036101000a85510460018201810193505050611b51565b60f8811015611b315760be1981019150611b51565b60f78103600185019450806020036101000a855104600182018101935050505b5092915050565b6000806000611b6a8460200151611a5c565b602085015194519481019594039392505050565b80611b8857611bca565b5b60208110611ba8578251825260209283019290910190601f1901611b89565b8015611bca578251825160208390036101000a60001901801990921691161782525b505050565b81546000908210611c115760405162461bcd60e51b8152600401808060200182810382526022815260200180611e126022913960400191505060405180910390fd5b826000018281548110611c2057fe5b9060005260206000200154905092915050565b60009081526001919091016020526040902054151590565b5490565b6000611c5b8383611c33565b611c91575081546001818101845560008481526020808220909301849055845484825282860190935260409020919091556110e2565b5060006110e2565b60008181526001830160205260408120548015611d555783546000198083019190810190600090879083908110611ccc57fe5b9060005260206000200154905080876000018481548110611ce957fe5b600091825260208083209091019290925582815260018981019092526040902090840190558654879080611d1957fe5b600190038181906000526020600020016000905590558660010160008781526020019081526020016000206000905560019450505050506110e2565b60009150506110e2565b604051806040016040528060008152602001600081525090565b828054600181600116156101000203166002900490600052602060002090601f016020900481019282601f10611dba57805160ff1916838001178555611de7565b82800160010185558215611de7579182015b82811115611de7578251825591602001919060010190611dcc565b50611df3929150611df7565b5090565b61161991905b80821115611df35760008155600101611dfd56fe456e756d657261626c655365743a20696e646578206f7574206f6620626f756e6473416363657373436f6e74726f6c3a2073656e646572206d75737420626520616e2061646d696e20746f206772616e744d696e7461626c654552433732315072656469636174653a20494e56414c49445f5349474e4154555245416363657373436f6e74726f6c3a2073656e646572206d75737420626520616e2061646d696e20746f207265766f6b654d696e7461626c654552433732315072656469636174653a20455843454544535f42415443485f4c494d4954241ecf16d79d0f8dbfb92cbc07fe17840425976cf0667f022fe9877caa831b084d696e7461626c654552433732315072656469636174653a20494e56414c49445f5245434549564552416363657373436f6e74726f6c3a2063616e206f6e6c792072656e6f756e636520726f6c657320666f722073656c66a2646970667358221220b3066a5cb53ddd59d4f71086659593747a955d37c90dfdbdb86ce3324e05c2c064736f6c63430006060033",
  "immutableReferences": {},
  "source": "pragma solidity 0.6.6;\n\nimport {IERC721Receiver} from \"@openzeppelin/contracts/token/ERC721/IERC721Receiver.sol\";\nimport {AccessControlMixin} from \"../../common/AccessControlMixin.sol\";\nimport {RLPReader} from \"../../lib/RLPReader.sol\";\nimport {IMintableERC721} from \"../RootToken/IMintableERC721.sol\";\nimport {ITokenPredicate} from \"./ITokenPredicate.sol\";\nimport {Initializable} from \"../../common/Initializable.sol\";\n\ncontract MintableERC721Predicate is ITokenPredicate, AccessControlMixin, Initializable, IERC721Receiver {\n    using RLPReader for bytes;\n    using RLPReader for RLPReader.RLPItem;\n\n    // keccak256(\"MANAGER_ROLE\")\n    bytes32 public constant MANAGER_ROLE = 0x241ecf16d79d0f8dbfb92cbc07fe17840425976cf0667f022fe9877caa831b08;\n    // keccak256(\"MintableERC721\")\n    bytes32 public constant TOKEN_TYPE = 0xd4392723c111fcb98b073fe55873efb447bcd23cd3e49ec9ea2581930cd01ddc;\n    // keccak256(\"Transfer(address,address,uint256)\")\n    bytes32 public constant TRANSFER_EVENT_SIG = 0xddf252ad1be2c89b69c2b068fc378daa952ba7f163c4a11628f55a4df523b3ef;\n    // keccak256(\"WithdrawnBatch(address,uint256[])\")\n    bytes32 public constant WITHDRAW_BATCH_EVENT_SIG = 0xf871896b17e9cb7a64941c62c188a4f5c621b86800e3d15452ece01ce56073df;\n    // keccak256(\"TransferWithMetadata(address,address,uint256,bytes)\")\n    bytes32 public constant TRANSFER_WITH_METADATA_EVENT_SIG = 0xf94915c6d1fd521cee85359239227480c7e8776d7caf1fc3bacad5c269b66a14;\n\n    // limit batching of tokens due to gas limit restrictions\n    uint256 public constant BATCH_LIMIT = 20;\n\n    event LockedMintableERC721(\n        address indexed depositor,\n        address indexed depositReceiver,\n        address indexed rootToken,\n        uint256 tokenId\n    );\n\n    event LockedMintableERC721Batch(\n        address indexed depositor,\n        address indexed depositReceiver,\n        address indexed rootToken,\n        uint256[] tokenIds\n    );\n\n    event ExitedMintableERC721(\n        address indexed exitor,\n        address indexed rootToken,\n        uint256 tokenId\n    );\n\n    event ExitedMintableERC721Batch(\n        address indexed exitor,\n        address indexed rootToken,\n        uint256[] tokenIds\n    );\n\n    constructor() public {}\n\n    function initialize(address _owner) external initializer {\n        _setupContractId(\"MintableERC721Predicate\");\n        _setupRole(DEFAULT_ADMIN_ROLE, _owner);\n        _setupRole(MANAGER_ROLE, _owner);\n    }\n\n    /**\n     * @notice accepts safe ERC721 transfer\n     */\n    function onERC721Received(\n        address,\n        address,\n        uint256,\n        bytes calldata\n    )\n        external\n        override\n        returns (bytes4)\n    {\n        return IERC721Receiver.onERC721Received.selector;\n    }\n\n    /**\n     * @notice Lock ERC721 token(s) for deposit, callable only by manager\n     * @param depositor Address who wants to deposit token\n     * @param depositReceiver Address (address) who wants to receive token on child chain\n     * @param rootToken Token which gets deposited\n     * @param depositData ABI encoded tokenId(s). It's possible to deposit batch of tokens.\n     */\n    function lockTokens(\n        address depositor,\n        address depositReceiver,\n        address rootToken,\n        bytes calldata depositData\n    )\n        external\n        override\n        only(MANAGER_ROLE)\n    {\n\n        // Locking single ERC721 token\n        if (depositData.length == 32) {\n\n            uint256 tokenId = abi.decode(depositData, (uint256));\n\n            // Emitting event that single token is getting locked in predicate\n            emit LockedMintableERC721(depositor, depositReceiver, rootToken, tokenId);\n\n            // Transferring token to this address, which will be\n            // released when attempted to be unlocked\n            IMintableERC721(rootToken).safeTransferFrom(depositor, address(this), tokenId);\n\n        } else {\n            // Locking a set a ERC721 token(s)\n\n            uint256[] memory tokenIds = abi.decode(depositData, (uint256[]));\n\n            // Emitting event that a set of ERC721 tokens are getting lockec\n            // in this predicate contract\n            emit LockedMintableERC721Batch(depositor, depositReceiver, rootToken, tokenIds);\n\n            // These many tokens are attempted to be deposited\n            // by user\n            uint256 length = tokenIds.length;\n            require(length <= BATCH_LIMIT, \"MintableERC721Predicate: EXCEEDS_BATCH_LIMIT\");\n\n            // Iteratively trying to transfer ERC721 token\n            // to this predicate address\n            for (uint256 i; i < length; i++) {\n\n                IMintableERC721(rootToken).safeTransferFrom(depositor, address(this), tokenIds[i]);\n\n            }\n\n        }\n\n    }\n\n    /**\n     * @notice Validates log signature, from and to address\n     * then checks if token already exists on root chain\n     * if token exits then transfers it to withdrawer\n     * if token doesn't exit then it is minted\n     * callable only by manager\n     * @param rootToken Token which gets withdrawn\n     * @param log Valid ERC721 burn log from child chain\n     */\n    function exitTokens(\n        address,\n        address rootToken,\n        bytes memory log\n    )\n        public\n        override\n        only(MANAGER_ROLE)\n    {\n        RLPReader.RLPItem[] memory logRLPList = log.toRlpItem().toList();\n        RLPReader.RLPItem[] memory logTopicRLPList = logRLPList[1].toList(); // topics\n\n        // If it's a simple exit ( with out metadata coming from L2 to L1 )\n        if(bytes32(logTopicRLPList[0].toUint()) == TRANSFER_EVENT_SIG) {\n\n            address withdrawer = address(logTopicRLPList[1].toUint()); // topic1 is from address\n\n            require(\n                address(logTopicRLPList[2].toUint()) == address(0), // topic2 is to address\n                \"MintableERC721Predicate: INVALID_RECEIVER\"\n            );\n\n            IMintableERC721 token = IMintableERC721(rootToken);\n\n            uint256 tokenId = logTopicRLPList[3].toUint(); // topic3 is tokenId field\n            if (token.exists(tokenId)) {\n                token.safeTransferFrom(\n                    address(this),\n                    withdrawer,\n                    tokenId\n                );\n            } else {\n                token.mint(withdrawer, tokenId);\n            }\n\n            emit ExitedMintableERC721(withdrawer, rootToken, tokenId);\n\n        } else if (bytes32(logTopicRLPList[0].toUint()) == WITHDRAW_BATCH_EVENT_SIG) { // topic0 is event sig\n            // If it's a simple batch exit, where a set of\n            // ERC721s were burnt in child chain with event signature\n            // looking like `WithdrawnBatch(address indexed user, uint256[] tokenIds);`\n            //\n            // @note This doesn't allow transfer of metadata cross chain\n            // For that check below `else if` block\n\n            address withdrawer = address(logTopicRLPList[1].toUint()); // topic1 is from address\n\n            // RLP encoded tokenId list\n            bytes memory logData = logRLPList[2].toBytes();\n\n            (uint256[] memory tokenIds) = abi.decode(logData, (uint256[]));\n            uint256 length = tokenIds.length;\n\n            IMintableERC721 token = IMintableERC721(rootToken);\n\n            for (uint256 i; i < length; i++) {\n\n                uint256 tokenId = tokenIds[i];\n\n                // Check if token exists or not\n                //\n                // If does, transfer token to withdrawer\n                if (token.exists(tokenId)) {\n                    token.safeTransferFrom(\n                        address(this),\n                        withdrawer,\n                        tokenId\n                    );\n                } else {\n                    // If token was minted on L2\n                    // we'll mint it here, on L1, during\n                    // exiting from L2\n                    token.mint(withdrawer, tokenId);\n                }\n\n            }\n\n            emit ExitedMintableERC721Batch(withdrawer, rootToken, tokenIds);\n\n        } else if (bytes32(logTopicRLPList[0].toUint()) == TRANSFER_WITH_METADATA_EVENT_SIG) { \n            // If this is NFT exit with metadata i.e. URI \n            //\n            // Note: If your token is only minted in L2, you can exit\n            // it with metadata. But if it was minted on L1, it'll be\n            // simply transferred to withdrawer address. And in that case,\n            // it's lot better to exit with `Transfer(address,address,uint256)`\n            // i.e. calling `withdraw` method on L2 contract\n            // event signature proof, which is defined under first `if` clause\n            //\n            // If you've called `withdrawWithMetadata`, you should submit\n            // proof of event signature `TransferWithMetadata(address,address,uint256,bytes)`\n\n            address withdrawer = address(logTopicRLPList[1].toUint()); // topic1 is from address\n\n            require(\n                address(logTopicRLPList[2].toUint()) == address(0), // topic2 is to address\n                \"MintableERC721Predicate: INVALID_RECEIVER\"\n            );\n\n            IMintableERC721 token = IMintableERC721(rootToken);\n\n            uint256 tokenId = logTopicRLPList[3].toUint(); // topic3 is tokenId field\n            if (token.exists(tokenId)) {\n                token.safeTransferFrom(\n                    address(this),\n                    withdrawer,\n                    tokenId\n                );\n            } else {\n                // Minting with metadata received from L2 i.e. emitted\n                // by event `TransferWithMetadata` during burning\n                bytes memory logData = logRLPList[2].toBytes();\n                bytes memory metaData = abi.decode(logData, (bytes));\n                \n                token.mint(withdrawer, tokenId, metaData);\n            }\n\n            emit ExitedMintableERC721(withdrawer, rootToken, tokenId);\n\n        } else {\n            // Attempting to exit with some event signature from L2, which is\n            // not ( yet ) supported by L1 exit manager\n            revert(\"MintableERC721Predicate: INVALID_SIGNATURE\");\n        }\n        \n    }\n}\n",
  "sourcePath": "/Users/ohm.jirapon/playground/blockhain/layer-2/plasma-ploygon/matic-cli/devnet/code/pos-portal/contracts/root/TokenPredicates/MintableERC721Predicate.sol",
  "compiler": {
    "name": "solc",
    "version": "0.6.6+commit.6c089d02.Linux.g++"
  },
  "schemaVersion": "3.4.9",
  "updatedAt": "2022-08-22T08:50:23.988Z",
  "networkType": "ethereum",
  "devdoc": {
    "methods": {
      "exitTokens(address,address,bytes)": {
        "params": {
          "log": "Valid ERC721 burn log from child chain",
          "rootToken": "Token which gets withdrawn"
        }
      },
      "getRoleAdmin(bytes32)": {
        "details": "Returns the admin role that controls `role`. See {grantRole} and {revokeRole}.     * To change a role's admin, use {_setRoleAdmin}."
      },
      "getRoleMember(bytes32,uint256)": {
        "details": "Returns one of the accounts that have `role`. `index` must be a value between 0 and {getRoleMemberCount}, non-inclusive.     * Role bearers are not sorted in any particular way, and their ordering may change at any point.     * WARNING: When using {getRoleMember} and {getRoleMemberCount}, make sure you perform all queries on the same block. See the following https://forum.openzeppelin.com/t/iterating-over-elements-on-enumerableset-in-openzeppelin-contracts/2296[forum post] for more information."
      },
      "getRoleMemberCount(bytes32)": {
        "details": "Returns the number of accounts that have `role`. Can be used together with {getRoleMember} to enumerate all bearers of a role."
      },
      "grantRole(bytes32,address)": {
        "details": "Grants `role` to `account`.     * If `account` had not been already granted `role`, emits a {RoleGranted} event.     * Requirements:     * - the caller must have ``role``'s admin role."
      },
      "hasRole(bytes32,address)": {
        "details": "Returns `true` if `account` has been granted `role`."
      },
      "lockTokens(address,address,address,bytes)": {
        "params": {
          "depositData": "ABI encoded tokenId(s). It's possible to deposit batch of tokens.",
          "depositReceiver": "Address (address) who wants to receive token on child chain",
          "depositor": "Address who wants to deposit token",
          "rootToken": "Token which gets deposited"
        }
      },
      "renounceRole(bytes32,address)": {
        "details": "Revokes `role` from the calling account.     * Roles are often managed via {grantRole} and {revokeRole}: this function's purpose is to provide a mechanism for accounts to lose their privileges if they are compromised (such as when a trusted device is misplaced).     * If the calling account had been granted `role`, emits a {RoleRevoked} event.     * Requirements:     * - the caller must be `account`."
      },
      "revokeRole(bytes32,address)": {
        "details": "Revokes `role` from `account`.     * If `account` had been granted `role`, emits a {RoleRevoked} event.     * Requirements:     * - the caller must have ``role``'s admin role."
      }
    }
  },
  "userdoc": {
    "methods": {
      "exitTokens(address,address,bytes)": {
        "notice": "Validates log signature, from and to address then checks if token already exists on root chain if token exits then transfers it to withdrawer if token doesn't exit then it is minted callable only by manager"
      },
      "lockTokens(address,address,address,bytes)": {
        "notice": "Lock ERC721 token(s) for deposit, callable only by manager"
      },
      "onERC721Received(address,address,uint256,bytes)": {
        "notice": "accepts safe ERC721 transfer"
      }
    }
  }
}