{
  "contractName": "MintableERC1155Predicate",
  "abi": [
    {
      "inputs": [],
      "stateMutability": "nonpayable",
      "type": "constructor"
    },
    {
      "anonymous": false,
      "inputs": [
        {
          "indexed": true,
          "internalType": "address",
          "name": "exitor",
          "type": "address"
        },
        {
          "indexed": true,
          "internalType": "address",
          "name": "rootToken",
          "type": "address"
        },
        {
          "indexed": false,
          "internalType": "uint256[]",
          "name": "ids",
          "type": "uint256[]"
        },
        {
          "indexed": false,
          "internalType": "uint256[]",
          "name": "amounts",
          "type": "uint256[]"
        }
      ],
      "name": "ExitedBatchMintableERC1155",
      "type": "event"
    },
    {
      "anonymous": false,
      "inputs": [
        {
          "indexed": true,
          "internalType": "address",
          "name": "exitor",
          "type": "address"
        },
        {
          "indexed": true,
          "internalType": "address",
          "name": "rootToken",
          "type": "address"
        },
        {
          "indexed": false,
          "internalType": "uint256",
          "name": "id",
          "type": "uint256"
        },
        {
          "indexed": false,
          "internalType": "uint256",
          "name": "amount",
          "type": "uint256"
        }
      ],
      "name": "ExitedMintableERC1155",
      "type": "event"
    },
    {
      "anonymous": false,
      "inputs": [
        {
          "indexed": true,
          "internalType": "address",
          "name": "depositor",
          "type": "address"
        },
        {
          "indexed": true,
          "internalType": "address",
          "name": "depositReceiver",
          "type": "address"
        },
        {
          "indexed": true,
          "internalType": "address",
          "name": "rootToken",
          "type": "address"
        },
        {
          "indexed": false,
          "internalType": "uint256[]",
          "name": "ids",
          "type": "uint256[]"
        },
        {
          "indexed": false,
          "internalType": "uint256[]",
          "name": "amounts",
          "type": "uint256[]"
        }
      ],
      "name": "LockedBatchMintableERC1155",
      "type": "event"
    },
    {
      "anonymous": false,
      "inputs": [
        {
          "indexed": true,
          "internalType": "bytes32",
          "name": "role",
          "type": "bytes32"
        },
        {
          "indexed": true,
          "internalType": "bytes32",
          "name": "previousAdminRole",
          "type": "bytes32"
        },
        {
          "indexed": true,
          "internalType": "bytes32",
          "name": "newAdminRole",
          "type": "bytes32"
        }
      ],
      "name": "RoleAdminChanged",
      "type": "event"
    },
    {
      "anonymous": false,
      "inputs": [
        {
          "indexed": true,
          "internalType": "bytes32",
          "name": "role",
          "type": "bytes32"
        },
        {
          "indexed": true,
          "internalType": "address",
          "name": "account",
          "type": "address"
        },
        {
          "indexed": true,
          "internalType": "address",
          "name": "sender",
          "type": "address"
        }
      ],
      "name": "RoleGranted",
      "type": "event"
    },
    {
      "anonymous": false,
      "inputs": [
        {
          "indexed": true,
          "internalType": "bytes32",
          "name": "role",
          "type": "bytes32"
        },
        {
          "indexed": true,
          "internalType": "address",
          "name": "account",
          "type": "address"
        },
        {
          "indexed": true,
          "internalType": "address",
          "name": "sender",
          "type": "address"
        }
      ],
      "name": "RoleRevoked",
      "type": "event"
    },
    {
      "inputs": [],
      "name": "DEFAULT_ADMIN_ROLE",
      "outputs": [
        {
          "internalType": "bytes32",
          "name": "",
          "type": "bytes32"
        }
      ],
      "stateMutability": "view",
      "type": "function",
      "constant": true
    },
    {
      "inputs": [],
      "name": "MANAGER_ROLE",
      "outputs": [
        {
          "internalType": "bytes32",
          "name": "",
          "type": "bytes32"
        }
      ],
      "stateMutability": "view",
      "type": "function",
      "constant": true
    },
    {
      "inputs": [],
      "name": "TOKEN_TYPE",
      "outputs": [
        {
          "internalType": "bytes32",
          "name": "",
          "type": "bytes32"
        }
      ],
      "stateMutability": "view",
      "type": "function",
      "constant": true
    },
    {
      "inputs": [],
      "name": "TRANSFER_BATCH_EVENT_SIG",
      "outputs": [
        {
          "internalType": "bytes32",
          "name": "",
          "type": "bytes32"
        }
      ],
      "stateMutability": "view",
      "type": "function",
      "constant": true
    },
    {
      "inputs": [],
      "name": "TRANSFER_SINGLE_EVENT_SIG",
      "outputs": [
        {
          "internalType": "bytes32",
          "name": "",
          "type": "bytes32"
        }
      ],
      "stateMutability": "view",
      "type": "function",
      "constant": true
    },
    {
      "inputs": [
        {
          "internalType": "bytes32",
          "name": "role",
          "type": "bytes32"
        }
      ],
      "name": "getRoleAdmin",
      "outputs": [
        {
          "internalType": "bytes32",
          "name": "",
          "type": "bytes32"
        }
      ],
      "stateMutability": "view",
      "type": "function",
      "constant": true
    },
    {
      "inputs": [
        {
          "internalType": "bytes32",
          "name": "role",
          "type": "bytes32"
        },
        {
          "internalType": "uint256",
          "name": "index",
          "type": "uint256"
        }
      ],
      "name": "getRoleMember",
      "outputs": [
        {
          "internalType": "address",
          "name": "",
          "type": "address"
        }
      ],
      "stateMutability": "view",
      "type": "function",
      "constant": true
    },
    {
      "inputs": [
        {
          "internalType": "bytes32",
          "name": "role",
          "type": "bytes32"
        }
      ],
      "name": "getRoleMemberCount",
      "outputs": [
        {
          "internalType": "uint256",
          "name": "",
          "type": "uint256"
        }
      ],
      "stateMutability": "view",
      "type": "function",
      "constant": true
    },
    {
      "inputs": [
        {
          "internalType": "bytes32",
          "name": "role",
          "type": "bytes32"
        },
        {
          "internalType": "address",
          "name": "account",
          "type": "address"
        }
      ],
      "name": "grantRole",
      "outputs": [],
      "stateMutability": "nonpayable",
      "type": "function"
    },
    {
      "inputs": [
        {
          "internalType": "bytes32",
          "name": "role",
          "type": "bytes32"
        },
        {
          "internalType": "address",
          "name": "account",
          "type": "address"
        }
      ],
      "name": "hasRole",
      "outputs": [
        {
          "internalType": "bool",
          "name": "",
          "type": "bool"
        }
      ],
      "stateMutability": "view",
      "type": "function",
      "constant": true
    },
    {
      "inputs": [
        {
          "internalType": "bytes32",
          "name": "role",
          "type": "bytes32"
        },
        {
          "internalType": "address",
          "name": "account",
          "type": "address"
        }
      ],
      "name": "renounceRole",
      "outputs": [],
      "stateMutability": "nonpayable",
      "type": "function"
    },
    {
      "inputs": [
        {
          "internalType": "bytes32",
          "name": "role",
          "type": "bytes32"
        },
        {
          "internalType": "address",
          "name": "account",
          "type": "address"
        }
      ],
      "name": "revokeRole",
      "outputs": [],
      "stateMutability": "nonpayable",
      "type": "function"
    },
    {
      "inputs": [
        {
          "internalType": "bytes4",
          "name": "interfaceId",
          "type": "bytes4"
        }
      ],
      "name": "supportsInterface",
      "outputs": [
        {
          "internalType": "bool",
          "name": "",
          "type": "bool"
        }
      ],
      "stateMutability": "view",
      "type": "function",
      "constant": true
    },
    {
      "inputs": [
        {
          "internalType": "address",
          "name": "_owner",
          "type": "address"
        }
      ],
      "name": "initialize",
      "outputs": [],
      "stateMutability": "nonpayable",
      "type": "function"
    },
    {
      "inputs": [
        {
          "internalType": "address",
          "name": "",
          "type": "address"
        },
        {
          "internalType": "address",
          "name": "",
          "type": "address"
        },
        {
          "internalType": "uint256",
          "name": "",
          "type": "uint256"
        },
        {
          "internalType": "uint256",
          "name": "",
          "type": "uint256"
        },
        {
          "internalType": "bytes",
          "name": "",
          "type": "bytes"
        }
      ],
      "name": "onERC1155Received",
      "outputs": [
        {
          "internalType": "bytes4",
          "name": "",
          "type": "bytes4"
        }
      ],
      "stateMutability": "nonpayable",
      "type": "function"
    },
    {
      "inputs": [
        {
          "internalType": "address",
          "name": "",
          "type": "address"
        },
        {
          "internalType": "address",
          "name": "",
          "type": "address"
        },
        {
          "internalType": "uint256[]",
          "name": "",
          "type": "uint256[]"
        },
        {
          "internalType": "uint256[]",
          "name": "",
          "type": "uint256[]"
        },
        {
          "internalType": "bytes",
          "name": "",
          "type": "bytes"
        }
      ],
      "name": "onERC1155BatchReceived",
      "outputs": [
        {
          "internalType": "bytes4",
          "name": "",
          "type": "bytes4"
        }
      ],
      "stateMutability": "nonpayable",
      "type": "function"
    },
    {
      "inputs": [
        {
          "internalType": "address",
          "name": "depositor",
          "type": "address"
        },
        {
          "internalType": "address",
          "name": "depositReceiver",
          "type": "address"
        },
        {
          "internalType": "address",
          "name": "rootToken",
          "type": "address"
        },
        {
          "internalType": "bytes",
          "name": "depositData",
          "type": "bytes"
        }
      ],
      "name": "lockTokens",
      "outputs": [],
      "stateMutability": "nonpayable",
      "type": "function"
    },
    {
      "inputs": [
        {
          "internalType": "address",
          "name": "",
          "type": "address"
        },
        {
          "internalType": "address",
          "name": "rootToken",
          "type": "address"
        },
        {
          "internalType": "bytes",
          "name": "log",
          "type": "bytes"
        }
      ],
      "name": "exitTokens",
      "outputs": [],
      "stateMutability": "nonpayable",
      "type": "function"
    }
  ],
  "bytecode": "0x60806040526003805460ff191690553480156200001b57600080fd5b50620000376301ffc9a760e01b6001600160e01b036200005816565b62000052630271189760e51b6001600160e01b036200005816565b620000dd565b6001600160e01b03198082161415620000b8576040805162461bcd60e51b815260206004820152601c60248201527f4552433136353a20696e76616c696420696e7465726661636520696400000000604482015290519081900360640190fd5b6001600160e01b0319166000908152602081905260409020805460ff19166001179055565b61280b80620000ed6000396000f3fe608060405234801561001057600080fd5b50600436106101165760003560e01c8063bc197c81116100a2578063e375b64e11610071578063e375b64e146104ca578063e9cff29114610559578063eacc7af214610561578063ec87621c14610569578063f23a6e611461057157610116565b8063bc197c8114610317578063c4d66de81461045b578063ca15c87314610481578063d547741f1461049e57610116565b8063609c92b8116100e9578063609c92b8146101df5780638274664f146101e75780639010d07c146102a457806391d14854146102e3578063a217fddf1461030f57610116565b806301ffc9a71461011b578063248a9ca3146101565780632f2ff15d1461018557806336568abe146101b3575b600080fd5b6101426004803603602081101561013157600080fd5b50356001600160e01b031916610604565b604080519115158252519081900360200190f35b6101736004803603602081101561016c57600080fd5b5035610627565b60408051918252519081900360200190f35b6101b16004803603604081101561019b57600080fd5b50803590602001356001600160a01b031661063c565b005b6101b1600480360360408110156101c957600080fd5b50803590602001356001600160a01b03166106a8565b610173610709565b6101b1600480360360608110156101fd57600080fd5b6001600160a01b038235811692602081013590911691810190606081016040820135600160201b81111561023057600080fd5b82018360208201111561024257600080fd5b803590602001918460018302840111600160201b8311171561026357600080fd5b91908080601f016020809104026020016040519081016040528093929190818152602001838380828437600092019190915250929550610730945050505050565b6102c7600480360360408110156102ba57600080fd5b5080359060200135611461565b604080516001600160a01b039092168252519081900360200190f35b610142600480360360408110156102f957600080fd5b50803590602001356001600160a01b0316611488565b6101736114a6565b61043e600480360360a081101561032d57600080fd5b6001600160a01b038235811692602081013590911691810190606081016040820135600160201b81111561036057600080fd5b82018360208201111561037257600080fd5b803590602001918460208302840111600160201b8311171561039357600080fd5b919390929091602081019035600160201b8111156103b057600080fd5b8201836020820111156103c257600080fd5b803590602001918460208302840111600160201b831117156103e357600080fd5b919390929091602081019035600160201b81111561040057600080fd5b82018360208201111561041257600080fd5b803590602001918460018302840111600160201b8311171561043357600080fd5b5090925090506114ab565b604080516001600160e01b03199092168252519081900360200190f35b6101b16004803603602081101561047157600080fd5b50356001600160a01b03166114bf565b6101736004803603602081101561049757600080fd5b503561158c565b6101b1600480360360408110156104b457600080fd5b50803590602001356001600160a01b03166115a3565b6101b1600480360360808110156104e057600080fd5b6001600160a01b0382358116926020810135821692604082013590921691810190608081016060820135600160201b81111561051b57600080fd5b82018360208201111561052d57600080fd5b803590602001918460018302840111600160201b8311171561054e57600080fd5b5090925090506115fc565b610173611a92565b610173611aad565b610173611ac8565b61043e600480360360a081101561058757600080fd5b6001600160a01b03823581169260208101359091169160408201359160608101359181019060a081016080820135600160201b8111156105c657600080fd5b8201836020820111156105d857600080fd5b803590602001918460018302840111600160201b831117156105f957600080fd5b509092509050611aec565b6001600160e01b0319811660009081526020819052604090205460ff165b919050565b60009081526001602052604090206002015490565b60008281526001602052604090206002015461065f9061065a611af8565b611488565b61069a5760405162461bcd60e51b815260040180806020018281038252602f8152602001806125e9602f913960400191505060405180910390fd5b6106a48282611afd565b5050565b6106b0611af8565b6001600160a01b0316816001600160a01b0316146106ff5760405162461bcd60e51b815260040180806020018281038252602f8152602001806127a7602f913960400191505060405180910390fd5b6106a48282611b6c565b604080516e4d696e7461626c654552433131353560881b8152905190819003600f01902081565b604080516b4d414e414745525f524f4c4560a01b8152905190819003600c01902061075d8161065a611af8565b6002906107fd5760405162461bcd60e51b81526020600482019081528254600260001961010060018416150201909116046024830181905290918291604490910190849080156107ee5780601f106107c3576101008083540402835291602001916107ee565b820191906000526020600020905b8154815290600101906020018083116107d157829003601f168201915b50509250505060405180910390fd5b50606061081161080c84611bdb565b611c00565b905060606108328260018151811061082557fe5b6020026020010151611c00565b905060606108538360028151811061084657fe5b6020026020010151611ce8565b905060006108748360028151811061086757fe5b6020026020010151611d65565b905060006001600160a01b03166108918460038151811061086757fe5b6001600160a01b0316146108d65760405162461bcd60e51b815260040180806020018281038252602a815260200180612652602a913960400191505060405180910390fd5b60006108e88460008151811061086757fe5b604051909150806037612770823960370190506040518091039020811415610d375760008084806020019051604081101561092257600080fd5b50805160209182015160408051627eeac760e11b81523060048201526024810184905290519295509093508c926000926001600160a01b0385169262fdd58e926044808301939192829003018186803b15801561097e57600080fd5b505afa158015610992573d6000803e3d6000fd5b505050506040513d60208110156109a857600080fd5b5051905082811015610bc757816001600160a01b031663731133e98786848703604051806020016040528060008152506040518563ffffffff1660e01b815260040180856001600160a01b03166001600160a01b0316815260200184815260200183815260200180602001828103825283818151815260200191508051906020019080838360005b83811015610a48578181015183820152602001610a30565b50505050905090810190601f168015610a755780820380516001836020036101000a031916815260200191505b5095505050505050600060405180830381600087803b158015610a9757600080fd5b505af1158015610aab573d6000803e3d6000fd5b50505050816001600160a01b031663f242432a30888785604051806020016040528060008152506040518663ffffffff1660e01b815260040180866001600160a01b03166001600160a01b03168152602001856001600160a01b03166001600160a01b0316815260200184815260200183815260200180602001828103825283818151815260200191508051906020019080838360005b83811015610b5a578181015183820152602001610b42565b50505050905090810190601f168015610b875780820380516001836020036101000a031916815260200191505b509650505050505050600060405180830381600087803b158015610baa57600080fd5b505af1158015610bbe573d6000803e3d6000fd5b50505050610cdb565b816001600160a01b031663f242432a30888787604051806020016040528060008152506040518663ffffffff1660e01b815260040180866001600160a01b03166001600160a01b03168152602001856001600160a01b03166001600160a01b0316815260200184815260200183815260200180602001828103825283818151815260200191508051906020019080838360005b83811015610c72578181015183820152602001610c5a565b50505050905090810190601f168015610c9f5780820380516001836020036101000a031916815260200191505b509650505050505050600060405180830381600087803b158015610cc257600080fd5b505af1158015610cd6573d6000803e3d6000fd5b505050505b8b6001600160a01b0316866001600160a01b03167f385a7b5ded58cef3ec245cc104f90cd7086dfc6e47047df1046e2af956a3c0098686604051808381526020018281526020019250505060405180910390a350505050611456565b60405180603a6126188239603a019050604051809103902081141561141f57606080848060200190516040811015610d6e57600080fd5b8101908080516040519392919084600160201b821115610d8d57600080fd5b908301906020820185811115610da257600080fd5b82518660208202830111600160201b82111715610dbe57600080fd5b82525081516020918201928201910280838360005b83811015610deb578181015183820152602001610dd3565b5050505090500160405260200180516040519392919084600160201b821115610e1357600080fd5b908301906020820185811115610e2857600080fd5b82518660208202830111600160201b82111715610e4457600080fd5b82525081516020918201928201910280838360005b83811015610e71578181015183820152602001610e59565b505050509050016040525050509150915060008a90506060816001600160a01b0316634e1273f4610ea3308751611db3565b866040518363ffffffff1660e01b8152600401808060200180602001838103835285818151815260200191508051906020019060200280838360005b83811015610ef7578181015183820152602001610edf565b50505050905001838103825284818151815260200191508051906020019060200280838360005b83811015610f36578181015183820152602001610f1e565b5050505090500194505050505060006040518083038186803b158015610f5b57600080fd5b505afa158015610f6f573d6000803e3d6000fd5b505050506040513d6000823e601f3d908101601f191682016040526020811015610f9857600080fd5b8101908080516040519392919084600160201b821115610fb757600080fd5b908301906020820185811115610fcc57600080fd5b82518660208202830111600160201b82111715610fe857600080fd5b82525081516020918201928201910280838360005b83811015611015578181015183820152602001610ffd565b50505050905001604052505050905060608060006110338487611ebf565b92509250925080156111b557846001600160a01b0316631f7fdffa8a8986604051806020016040528060008152506040518563ffffffff1660e01b815260040180856001600160a01b03166001600160a01b03168152602001806020018060200180602001848103845287818151815260200191508051906020019060200280838360005b838110156110d05781810151838201526020016110b8565b50505050905001848103835286818151815260200191508051906020019060200280838360005b8381101561110f5781810151838201526020016110f7565b50505050905001848103825285818151815260200191508051906020019080838360005b8381101561114b578181015183820152602001611133565b50505050905090810190601f1680156111785780820380516001836020036101000a031916815260200191505b50975050505050505050600060405180830381600087803b15801561119c57600080fd5b505af11580156111b0573d6000803e3d6000fd5b505050505b846001600160a01b0316632eb2c2d6308b8a86604051806020016040528060008152506040518663ffffffff1660e01b815260040180866001600160a01b03166001600160a01b03168152602001856001600160a01b03166001600160a01b03168152602001806020018060200180602001848103845287818151815260200191508051906020019060200280838360005b8381101561125f578181015183820152602001611247565b50505050905001848103835286818151815260200191508051906020019060200280838360005b8381101561129e578181015183820152602001611286565b50505050905001848103825285818151815260200191508051906020019080838360005b838110156112da5781810151838201526020016112c2565b50505050905090810190601f1680156113075780820380516001836020036101000a031916815260200191505b5098505050505050505050600060405180830381600087803b15801561132c57600080fd5b505af1158015611340573d6000803e3d6000fd5b505050508e6001600160a01b0316896001600160a01b03167fe7010bac2c165ded2e5a79552903a18608392de6b9d93e582cd7eabc748861b58989604051808060200180602001838103835285818151815260200191508051906020019060200280838360005b838110156113bf5781810151838201526020016113a7565b50505050905001838103825284818151815260200191508051906020019060200280838360005b838110156113fe5781810151838201526020016113e6565b5050505090500194505050505060405180910390a350505050505050611456565b60405162461bcd60e51b815260040180806020018281038252602e81526020018061270d602e913960400191505060405180910390fd5b505050505050505050565b600082815260016020526040812061147f908363ffffffff61208716565b90505b92915050565b600082815260016020526040812061147f908363ffffffff61209316565b600081565b63bc197c8160e01b98975050505050505050565b60035460ff1615611508576040805162461bcd60e51b815260206004820152600e60248201526d185b1c9958591e481a5b9a5d195960921b604482015290519081900360640190fd5b6115466040518060400160405280601881526020017f4d696e7461626c654552433131353550726564696361746500000000000000008152506120a8565b61155160008261069a565b604080516b4d414e414745525f524f4c4560a01b8152905190819003600c01902061157c908261069a565b506003805460ff19166001179055565b600081815260016020526040812061148290612146565b6000828152600160205260409020600201546115c19061065a611af8565b6106ff5760405162461bcd60e51b81526004018080602001828103825260308152602001806126a56030913960400191505060405180910390fd5b604080516b4d414e414745525f524f4c4560a01b8152905190819003600c0190206116298161065a611af8565b60029061168f5760405162461bcd60e51b81526020600482019081528254600260001961010060018416150201909116046024830181905290918291604490910190849080156107ee5780601f106107c3576101008083540402835291602001916107ee565b506060806060858560608110156116a557600080fd5b810190602081018135600160201b8111156116bf57600080fd5b8201836020820111156116d157600080fd5b803590602001918460208302840111600160201b831117156116f257600080fd5b9190808060200260200160405190810160405280939291908181526020018383602002808284376000920191909152509295949360208101935035915050600160201b81111561174157600080fd5b82018360208201111561175357600080fd5b803590602001918460208302840111600160201b8311171561177457600080fd5b9190808060200260200160405190810160405280939291908181526020018383602002808284376000920191909152509295949360208101935035915050600160201b8111156117c357600080fd5b8201836020820111156117d557600080fd5b803590602001918460018302840111600160201b831117156117f657600080fd5b91908080601f016020809104026020016040519081016040528093929190818152602001838380828437600081840152601f19601f820116905080830192505050505050509192919290505050925092509250866001600160a01b0316886001600160a01b03168a6001600160a01b03167f1f512d82dee9e34be6d1fbe7e9eee79cb3185b84686ce1968a3e95f76fdb8c6a8686604051808060200180602001838103835285818151815260200191508051906020019060200280838360005b838110156118ce5781810151838201526020016118b6565b50505050905001838103825284818151815260200191508051906020019060200280838360005b8381101561190d5781810151838201526020016118f5565b5050505090500194505050505060405180910390a4604051631759616b60e11b81526001600160a01b038a811660048301908152306024840181905260a060448501908152875160a48601528751938c1694632eb2c2d6948f948a938a938a936064820191608481019160c4909101906020808a01910280838360005b838110156119a257818101518382015260200161198a565b50505050905001848103835286818151815260200191508051906020019060200280838360005b838110156119e15781810151838201526020016119c9565b50505050905001848103825285818151815260200191508051906020019080838360005b83811015611a1d578181015183820152602001611a05565b50505050905090810190601f168015611a4a5780820380516001836020036101000a031916815260200191505b5098505050505050505050600060405180830381600087803b158015611a6f57600080fd5b505af1158015611a83573d6000803e3d6000fd5b50505050505050505050505050565b60405180603761277082396037019050604051809103902081565b60405180603a6126188239603a019050604051809103902081565b604080516b4d414e414745525f524f4c4560a01b8152905190819003600c01902081565b60009695505050505050565b335b90565b6000828152600160205260409020611b1b908263ffffffff61215116565b156106a457611b28611af8565b6001600160a01b0316816001600160a01b0316837f2f8788117e7eff1d82e926ec794901d17c78024a50270940304540a733656f0d60405160405180910390a45050565b6000828152600160205260409020611b8a908263ffffffff61216616565b156106a457611b97611af8565b6001600160a01b0316816001600160a01b0316837ff6391f5c32d9c69d2a47ea670b442974b53935d1edc7fd64eb21e047a839171b60405160405180910390a45050565b611be3612514565b506040805180820190915281518152602082810190820152919050565b6060611c0b8261217b565b611c1457600080fd5b6000611c1f836121b5565b905060608167ffffffffffffffff81118015611c3a57600080fd5b50604051908082528060200260200182016040528015611c7457816020015b611c61612514565b815260200190600190039081611c595790505b5090506000611c868560200151612211565b60208601510190506000805b84811015611cdd57611ca383612274565b9150604051806040016040528083815260200184815250848281518110611cc657fe5b602090810291909101015291810191600101611c92565b509195945050505050565b8051606090611cf657600080fd5b600080611d028461230d565b9150915060608167ffffffffffffffff81118015611d1f57600080fd5b506040519080825280601f01601f191660200182016040528015611d4a576020820181803683370190505b50905060208101611d5c848285612333565b50949350505050565b805160009015801590611d7a57508151602110155b611d8357600080fd5b600080611d8f8461230d565b815191935091506020821015611dab5760208290036101000a90045b949350505050565b60606001600160a01b038316611dfa5760405162461bcd60e51b815260040180806020018281038252602981526020018061267c6029913960400191505060405180910390fd5b60008211611e395760405162461bcd60e51b81526004018080602001828103825260388152602001806126d56038913960400191505060405180910390fd5b60608267ffffffffffffffff81118015611e5257600080fd5b50604051908082528060200260200182016040528015611e7c578160200160208202803683370190505b50905060005b83811015611eb75784828281518110611e9757fe5b6001600160a01b0390921660209283029190910190910152600101611e82565b509392505050565b60608060008351855114611f045760405162461bcd60e51b815260040180806020018281038252603581526020018061273b6035913960400191505060405180910390fd5b6060855167ffffffffffffffff81118015611f1e57600080fd5b50604051908082528060200260200182016040528015611f48578160200160208202803683370190505b5090506060865167ffffffffffffffff81118015611f6557600080fd5b50604051908082528060200260200182016040528015611f8f578160200160208202803683370190505b5090506000805b885181101561207857878181518110611fab57fe5b6020026020010151898281518110611fbf57fe5b6020026020010151101561204357888181518110611fd957fe5b6020026020010151888281518110611fed57fe5b60200260200101510384828151811061200257fe5b60200260200101818152505088818151811061201a57fe5b602002602001015183828151811061202e57fe5b60200260200101818152505060019150612070565b87818151811061204f57fe5b602002602001015183828151811061206357fe5b6020026020010181815250505b600101611f96565b50919450925090509250925092565b600061147f8383612384565b600061147f836001600160a01b0384166123e8565b806040516020018082805190602001908083835b602083106120db5780518252601f1990920191602091820191016120bc565b51815160209384036101000a60001901801990921691161790527f3a20494e53554646494349454e545f5045524d495353494f4e530000000000009190930190815260408051808303600519018152601a909201905280516106a4955060029450920191905061252e565b600061148282612400565b600061147f836001600160a01b038416612404565b600061147f836001600160a01b03841661244e565b805160009061218c57506000610622565b6020820151805160001a9060c08210156121ab57600092505050610622565b5060019392505050565b80516000906121c657506000610622565b600080905060006121da8460200151612211565b602085015185519181019250015b80821015612208576121f982612274565b600190930192909101906121e8565b50909392505050565b8051600090811a608081101561222b576000915050610622565b60b8811080612246575060c08110801590612246575060f881105b15612255576001915050610622565b60c08110156122695760b519019050610622565b60f519019050610622565b80516000908190811a608081101561228f5760019150612306565b60b88110156122a457607e1981019150612306565b60c08110156122d15760b78103600185019450806020036101000a85510460018201810193505050612306565b60f88110156122e65760be1981019150612306565b60f78103600185019450806020036101000a855104600182018101935050505b5092915050565b600080600061231f8460200151612211565b602085015194519481019594039392505050565b8061233d5761237f565b5b6020811061235d578251825260209283019290910190601f190161233e565b801561237f578251825160208390036101000a60001901801990921691161782525b505050565b815460009082106123c65760405162461bcd60e51b81526004018080602001828103825260228152602001806125c76022913960400191505060405180910390fd5b8260000182815481106123d557fe5b9060005260206000200154905092915050565b60009081526001919091016020526040902054151590565b5490565b600061241083836123e8565b61244657508154600181810184556000848152602080822090930184905584548482528286019093526040902091909155611482565b506000611482565b6000818152600183016020526040812054801561250a578354600019808301919081019060009087908390811061248157fe5b906000526020600020015490508087600001848154811061249e57fe5b6000918252602080832090910192909255828152600189810190925260409020908401905586548790806124ce57fe5b60019003818190600052602060002001600090559055866001016000878152602001908152602001600020600090556001945050505050611482565b6000915050611482565b604051806040016040528060008152602001600081525090565b828054600181600116156101000203166002900490600052602060002090601f016020900481019282601f1061256f57805160ff191683800117855561259c565b8280016001018555821561259c579182015b8281111561259c578251825591602001919060010190612581565b506125a89291506125ac565b5090565b611afa91905b808211156125a857600081556001016125b256fe456e756d657261626c655365743a20696e646578206f7574206f6620626f756e6473416363657373436f6e74726f6c3a2073656e646572206d75737420626520616e2061646d696e20746f206772616e745472616e73666572426174636828616464726573732c616464726573732c616464726573732c75696e743235365b5d2c75696e743235365b5d294d696e7461626c65455243313135355072656469636174653a20494e56414c49445f52454345495645524d696e7461626c65455243313135355072656469636174653a20496e76616c69642061646472657373416363657373436f6e74726f6c3a2073656e646572206d75737420626520616e2061646d696e20746f207265766f6b654d696e7461626c65455243313135355072656469636174653a20496e76616c696420726573756c74696e67206172726179206c656e6774684d696e7461626c65455243313135355072656469636174653a20494e56414c49445f57495448445241575f5349474d696e7461626c65455243313135355072656469636174653a204172726179206c656e677468206d69736d6174636820666f756e645472616e7366657253696e676c6528616464726573732c616464726573732c616464726573732c75696e743235362c75696e7432353629416363657373436f6e74726f6c3a2063616e206f6e6c792072656e6f756e636520726f6c657320666f722073656c66a2646970667358221220b47541c56c404efde643ce8d966011a8f4fc87161d6e11e9e223daf9848081fe64736f6c63430006060033",
  "immutableReferences": {},
  "source": "pragma solidity 0.6.6;\n\nimport {IMintableERC1155} from \"../RootToken/IMintableERC1155.sol\";\nimport {\n    ERC1155Receiver\n} from \"@openzeppelin/contracts/token/ERC1155/ERC1155Receiver.sol\";\nimport {AccessControlMixin} from \"../../common/AccessControlMixin.sol\";\nimport {RLPReader} from \"../../lib/RLPReader.sol\";\nimport {ITokenPredicate} from \"./ITokenPredicate.sol\";\nimport {Initializable} from \"../../common/Initializable.sol\";\n\ncontract MintableERC1155Predicate is\n    ITokenPredicate,\n    ERC1155Receiver,\n    AccessControlMixin,\n    Initializable\n{\n    using RLPReader for bytes;\n    using RLPReader for RLPReader.RLPItem;\n\n    bytes32 public constant MANAGER_ROLE = keccak256(\"MANAGER_ROLE\");\n    bytes32 public constant TOKEN_TYPE = keccak256(\"MintableERC1155\");\n\n    bytes32 public constant TRANSFER_SINGLE_EVENT_SIG = keccak256(\n        \"TransferSingle(address,address,address,uint256,uint256)\"\n    );\n    bytes32 public constant TRANSFER_BATCH_EVENT_SIG = keccak256(\n        \"TransferBatch(address,address,address,uint256[],uint256[])\"\n    );\n\n    event LockedBatchMintableERC1155(\n        address indexed depositor,\n        address indexed depositReceiver,\n        address indexed rootToken,\n        uint256[] ids,\n        uint256[] amounts\n    );\n\n    event ExitedMintableERC1155(\n        address indexed exitor,\n        address indexed rootToken,\n        uint256 id,\n        uint256 amount\n    );\n\n\n    event ExitedBatchMintableERC1155(\n        address indexed exitor,\n        address indexed rootToken,\n        uint256[] ids,\n        uint256[] amounts\n    );\n\n    constructor() public {}\n\n    function initialize(address _owner) external initializer {\n        _setupContractId(\"MintableERC1155Predicate\");\n        _setupRole(DEFAULT_ADMIN_ROLE, _owner);\n        _setupRole(MANAGER_ROLE, _owner);\n    }\n\n    /**\n     * @notice rejects single transfer\n     */\n    function onERC1155Received(\n        address,\n        address,\n        uint256,\n        uint256,\n        bytes calldata\n    ) external override returns (bytes4) {\n        return 0;\n    }\n\n    /**\n     * @notice accepts batch transfer\n     */\n    function onERC1155BatchReceived(\n        address,\n        address,\n        uint256[] calldata,\n        uint256[] calldata,\n        bytes calldata\n    ) external override returns (bytes4) {\n        return ERC1155Receiver(0).onERC1155BatchReceived.selector;\n    }\n\n    /**\n     * @notice Lock ERC1155 tokens for deposit, callable only by manager\n     * @param depositor Address who wants to deposit tokens\n     * @param depositReceiver Address (address) who wants to receive tokens on child chain\n     * @param rootToken Token which gets deposited\n     * @param depositData ABI encoded id array and amount array\n     */\n    function lockTokens(\n        address depositor,\n        address depositReceiver,\n        address rootToken,\n        bytes calldata depositData\n    ) external override only(MANAGER_ROLE) {\n        // forcing batch deposit since supporting both single and batch deposit introduces too much complexity\n        (\n            uint256[] memory ids,\n            uint256[] memory amounts,\n            bytes memory data\n        ) = abi.decode(depositData, (uint256[], uint256[], bytes));\n\n        emit LockedBatchMintableERC1155(\n            depositor,\n            depositReceiver,\n            rootToken,\n            ids,\n            amounts\n        );\n        IMintableERC1155(rootToken).safeBatchTransferFrom(\n            depositor,\n            address(this),\n            ids,\n            amounts,\n            data\n        );\n    }\n    \n    // Used when attempting to exit with single token, single amount/ id is converted into\n    // slice of amounts/ ids\n    // Generally size is going to be `1` i.e. single element array, but it's kept generic\n    function makeArrayWithValue(uint256 val, uint size) internal pure returns(uint256[] memory) {\n        require(\n            size > 0,\n            \"MintableERC1155Predicate: Invalid resulting array length\"\n        );\n\n        uint256[] memory vals = new uint256[](size);\n\n        for (uint256 i = 0; i < size; i++) {\n            vals[i] = val;\n        }\n\n        return vals;\n    }\n\n    /**\n     * @notice Creates an array of `size` by repeating provided address,\n     * to be required for passing to batch balance checking function of ERC1155 tokens.\n     * @param addr Address to be repeated `size` times in resulting array\n     * @param size Size of resulting array\n     */\n    function makeArrayWithAddress(address addr, uint256 size)\n        internal\n        pure\n        returns (address[] memory)\n    {\n        require(\n            addr != address(0),\n            \"MintableERC1155Predicate: Invalid address\"\n        );\n        require(\n            size > 0,\n            \"MintableERC1155Predicate: Invalid resulting array length\"\n        );\n\n        address[] memory addresses = new address[](size);\n\n        for (uint256 i = 0; i < size; i++) {\n            addresses[i] = addr;\n        }\n\n        return addresses;\n    }\n\n    /**\n     * @notice Calculates amount of tokens to be minted, by subtracting available\n     * token balances from amount of tokens to be exited\n     * @param tokenBalances Token balances this contract holds for some ordered token ids\n     * @param amountsToBeExited Amount of tokens being exited\n     */\n    function calculateAmountsToBeMinted(\n        uint256[] memory tokenBalances,\n        uint256[] memory amountsToBeExited\n    ) internal pure returns (uint256[] memory, uint256[] memory, bool) {\n        require(\n            tokenBalances.length == amountsToBeExited.length,\n            \"MintableERC1155Predicate: Array length mismatch found\"\n        );\n\n        // all cells zero initialized\n        uint256[] memory toBeMintedAmounts = new uint256[](\n            tokenBalances.length\n        );\n        // all cells zero initialized\n        uint256[] memory toBeTransferredAmounts = new uint256[](\n            tokenBalances.length\n        );\n        bool needMintStep;\n\n        // Iteratively calculating amounts of token to be minted/ transferred\n        //\n        // Please note, in some cases it can be 0, but that will not\n        // be a problem, due to implementation of mint/ transfer logic for ERC1155\n        for (uint256 i = 0; i < tokenBalances.length; i++) {\n            if (tokenBalances[i] < amountsToBeExited[i]) {\n                toBeMintedAmounts[i] = amountsToBeExited[i] - tokenBalances[i];\n                toBeTransferredAmounts[i] = tokenBalances[i];\n                needMintStep = true;\n            } else {\n                toBeTransferredAmounts[i] = amountsToBeExited[i];\n            }\n        }\n\n        return (toBeMintedAmounts, toBeTransferredAmounts, needMintStep);\n    }\n\n    /**\n     * @notice Validates log signature, from and to address\n     * then sends the correct tokenId, amount to withdrawer\n     * callable only by manager\n     * @param rootToken Token which gets withdrawn\n     * @param log Valid ERC1155 TransferSingle burn or TransferBatch burn log from child chain\n     */\n    function exitTokens(\n        address,\n        address rootToken,\n        bytes memory log\n    ) public override only(MANAGER_ROLE) {\n        RLPReader.RLPItem[] memory logRLPList = log.toRlpItem().toList();\n        RLPReader.RLPItem[] memory logTopicRLPList = logRLPList[1].toList(); // topics\n        bytes memory logData = logRLPList[2].toBytes();\n\n        address withdrawer = address(logTopicRLPList[2].toUint()); // topic2 is from address\n\n        require(\n            address(logTopicRLPList[3].toUint()) == address(0), // topic3 is to address\n            \"MintableERC1155Predicate: INVALID_RECEIVER\"\n        );\n\n        bytes32 eventSig = bytes32(logTopicRLPList[0].toUint());\n        if (eventSig == TRANSFER_SINGLE_EVENT_SIG) {\n            (uint256 id, uint256 amount) = abi.decode(\n                logData,\n                (uint256, uint256)\n            );\n\n            IMintableERC1155 token = IMintableERC1155(rootToken);\n\n            uint256 balance = token.balanceOf(address(this), id);\n            if (balance < amount) {\n                token.mint(withdrawer, id, amount - balance, bytes(\"\"));\n\n                token.safeTransferFrom(\n                    address(this),\n                    withdrawer,\n                    id,\n                    balance,\n                    bytes(\"\")\n                );\n            } else {\n                token.safeTransferFrom(\n                    address(this),\n                    withdrawer,\n                    id,\n                    amount,\n                    bytes(\"\")\n                );\n            }\n\n            emit ExitedMintableERC1155(withdrawer, rootToken, id, amount);\n\n        } else if (eventSig == TRANSFER_BATCH_EVENT_SIG) {\n            (uint256[] memory ids, uint256[] memory amounts) = abi.decode(\n                logData,\n                (uint256[], uint256[])\n            );\n\n            IMintableERC1155 token = IMintableERC1155(rootToken);\n\n            uint256[] memory balances = token.balanceOfBatch(makeArrayWithAddress(address(this), ids.length), ids);\n            (uint256[] memory toBeMinted, uint256[] memory toBeTransferred, bool needMintStep) = calculateAmountsToBeMinted(balances, amounts);\n\n            if(needMintStep) {\n                token.mintBatch(\n                    withdrawer,\n                    ids,\n                    toBeMinted,\n                    bytes(\"\")\n                );\n            }\n\n            token.safeBatchTransferFrom(\n                address(this),\n                withdrawer,\n                ids,\n                toBeTransferred,\n                bytes(\"\")\n            );\n\n            emit ExitedBatchMintableERC1155(withdrawer, rootToken, ids, amounts);\n        } else {\n            revert(\"MintableERC1155Predicate: INVALID_WITHDRAW_SIG\");\n        }\n    }\n}\n",
  "sourcePath": "/Users/ohm.jirapon/playground/blockhain/layer-2/plasma-ploygon/matic-cli/devnet/code/pos-portal/contracts/root/TokenPredicates/MintableERC1155Predicate.sol",
  "compiler": {
    "name": "solc",
    "version": "0.6.6+commit.6c089d02.Linux.g++"
  },
  "schemaVersion": "3.4.9",
  "updatedAt": "2022-08-22T08:50:24.000Z",
  "networkType": "ethereum",
  "devdoc": {
    "methods": {
      "exitTokens(address,address,bytes)": {
        "params": {
          "log": "Valid ERC1155 TransferSingle burn or TransferBatch burn log from child chain",
          "rootToken": "Token which gets withdrawn"
        }
      },
      "getRoleAdmin(bytes32)": {
        "details": "Returns the admin role that controls `role`. See {grantRole} and {revokeRole}.     * To change a role's admin, use {_setRoleAdmin}."
      },
      "getRoleMember(bytes32,uint256)": {
        "details": "Returns one of the accounts that have `role`. `index` must be a value between 0 and {getRoleMemberCount}, non-inclusive.     * Role bearers are not sorted in any particular way, and their ordering may change at any point.     * WARNING: When using {getRoleMember} and {getRoleMemberCount}, make sure you perform all queries on the same block. See the following https://forum.openzeppelin.com/t/iterating-over-elements-on-enumerableset-in-openzeppelin-contracts/2296[forum post] for more information."
      },
      "getRoleMemberCount(bytes32)": {
        "details": "Returns the number of accounts that have `role`. Can be used together with {getRoleMember} to enumerate all bearers of a role."
      },
      "grantRole(bytes32,address)": {
        "details": "Grants `role` to `account`.     * If `account` had not been already granted `role`, emits a {RoleGranted} event.     * Requirements:     * - the caller must have ``role``'s admin role."
      },
      "hasRole(bytes32,address)": {
        "details": "Returns `true` if `account` has been granted `role`."
      },
      "lockTokens(address,address,address,bytes)": {
        "params": {
          "depositData": "ABI encoded id array and amount array",
          "depositReceiver": "Address (address) who wants to receive tokens on child chain",
          "depositor": "Address who wants to deposit tokens",
          "rootToken": "Token which gets deposited"
        }
      },
      "renounceRole(bytes32,address)": {
        "details": "Revokes `role` from the calling account.     * Roles are often managed via {grantRole} and {revokeRole}: this function's purpose is to provide a mechanism for accounts to lose their privileges if they are compromised (such as when a trusted device is misplaced).     * If the calling account had been granted `role`, emits a {RoleRevoked} event.     * Requirements:     * - the caller must be `account`."
      },
      "revokeRole(bytes32,address)": {
        "details": "Revokes `role` from `account`.     * If `account` had been granted `role`, emits a {RoleRevoked} event.     * Requirements:     * - the caller must have ``role``'s admin role."
      },
      "supportsInterface(bytes4)": {
        "details": "See {IERC165-supportsInterface}.     * Time complexity O(1), guaranteed to always use less than 30 000 gas."
      }
    }
  },
  "userdoc": {
    "methods": {
      "exitTokens(address,address,bytes)": {
        "notice": "Validates log signature, from and to address then sends the correct tokenId, amount to withdrawer callable only by manager"
      },
      "lockTokens(address,address,address,bytes)": {
        "notice": "Lock ERC1155 tokens for deposit, callable only by manager"
      },
      "onERC1155BatchReceived(address,address,uint256[],uint256[],bytes)": {
        "notice": "accepts batch transfer"
      },
      "onERC1155Received(address,address,uint256,uint256,bytes)": {
        "notice": "rejects single transfer"
      }
    }
  }
}