{
  "contractName": "ProxyTestImplStorageLayoutChange",
  "abi": [
    {
      "inputs": [],
      "name": "a",
      "outputs": [
        {
          "internalType": "uint256",
          "name": "",
          "type": "uint256"
        }
      ],
      "stateMutability": "view",
      "type": "function"
    },
    {
      "inputs": [],
      "name": "b",
      "outputs": [
        {
          "internalType": "uint256",
          "name": "",
          "type": "uint256"
        }
      ],
      "stateMutability": "view",
      "type": "function"
    }
  ],
  "bytecode": "0x60806040526000805460ff19169055348015601957600080fd5b506097806100286000396000f3fe6080604052348015600f57600080fd5b506004361060325760003560e01c80630dbe671f1460375780634df7e3d014604f575b600080fd5b603d6055565b60408051918252519081900360200190f35b603d605b565b60025481565b6001548156fea2646970667358221220f3f39a1ab118c4b03ac70dec8d9b01730933dcfdaf31c0fd78a892dbfd57203d64736f6c63430006060033",
  "immutableReferences": {},
  "source": "pragma solidity 0.6.6;\n\nimport {Initializable} from \"../common/Initializable.sol\";\n\ncontract ProxyTestImplStorageLayoutChange is Initializable {\n    uint256 public b;\n    uint256 public a;\n}\n",
  "sourcePath": "/Users/ohm.jirapon/internal/layer-2/layer2-plasma-cli/devnet/code/pos-portal/contracts/test/ProxyTestImplStorageLayoutChange.sol",
  "compiler": {
    "name": "solc",
    "version": "0.6.6+commit.6c089d02.Linux.g++"
  },
  "schemaVersion": "3.2.1",
  "updatedAt": "2022-09-14T10:03:22.872Z",
  "devdoc": {
    "methods": {}
  },
  "userdoc": {
    "methods": {}
  }
}