{
  "contractName": "ChildERC721",
  "abi": [
    {
      "inputs": [
        {
          "internalType": "address",
          "name": "",
          "type": "address"
        },
        {
          "internalType": "address",
          "name": "_token",
          "type": "address"
        },
        {
          "internalType": "string",
          "name": "name",
          "type": "string"
        },
        {
          "internalType": "string",
          "name": "symbol",
          "type": "string"
        }
      ],
      "payable": false,
      "stateMutability": "nonpayable",
      "type": "constructor"
    },
    {
      "anonymous": false,
      "inputs": [
        {
          "indexed": true,
          "internalType": "address",
          "name": "owner",
          "type": "address"
        },
        {
          "indexed": true,
          "internalType": "address",
          "name": "approved",
          "type": "address"
        },
        {
          "indexed": true,
          "internalType": "uint256",
          "name": "tokenId",
          "type": "uint256"
        }
      ],
      "name": "Approval",
      "type": "event"
    },
    {
      "anonymous": false,
      "inputs": [
        {
          "indexed": true,
          "internalType": "address",
          "name": "owner",
          "type": "address"
        },
        {
          "indexed": true,
          "internalType": "address",
          "name": "operator",
          "type": "address"
        },
        {
          "indexed": false,
          "internalType": "bool",
          "name": "approved",
          "type": "bool"
        }
      ],
      "name": "ApprovalForAll",
      "type": "event"
    },
    {
      "anonymous": false,
      "inputs": [
        {
          "indexed": true,
          "internalType": "address",
          "name": "previousAddress",
          "type": "address"
        },
        {
          "indexed": true,
          "internalType": "address",
          "name": "newAddress",
          "type": "address"
        }
      ],
      "name": "ChildChainChanged",
      "type": "event"
    },
    {
      "anonymous": false,
      "inputs": [
        {
          "indexed": true,
          "internalType": "address",
          "name": "token",
          "type": "address"
        },
        {
          "indexed": true,
          "internalType": "address",
          "name": "from",
          "type": "address"
        },
        {
          "indexed": false,
          "internalType": "uint256",
          "name": "tokenId",
          "type": "uint256"
        }
      ],
      "name": "Deposit",
      "type": "event"
    },
    {
      "anonymous": false,
      "inputs": [
        {
          "indexed": true,
          "internalType": "address",
          "name": "token",
          "type": "address"
        },
        {
          "indexed": true,
          "internalType": "address",
          "name": "from",
          "type": "address"
        },
        {
          "indexed": true,
          "internalType": "address",
          "name": "to",
          "type": "address"
        },
        {
          "indexed": false,
          "internalType": "uint256",
          "name": "amount",
          "type": "uint256"
        },
        {
          "indexed": false,
          "internalType": "uint256",
          "name": "input1",
          "type": "uint256"
        },
        {
          "indexed": false,
          "internalType": "uint256",
          "name": "input2",
          "type": "uint256"
        },
        {
          "indexed": false,
          "internalType": "uint256",
          "name": "output1",
          "type": "uint256"
        },
        {
          "indexed": false,
          "internalType": "uint256",
          "name": "output2",
          "type": "uint256"
        }
      ],
      "name": "LogFeeTransfer",
      "type": "event"
    },
    {
      "anonymous": false,
      "inputs": [
        {
          "indexed": true,
          "internalType": "address",
          "name": "token",
          "type": "address"
        },
        {
          "indexed": true,
          "internalType": "address",
          "name": "from",
          "type": "address"
        },
        {
          "indexed": true,
          "internalType": "address",
          "name": "to",
          "type": "address"
        },
        {
          "indexed": false,
          "internalType": "uint256",
          "name": "tokenId",
          "type": "uint256"
        }
      ],
      "name": "LogTransfer",
      "type": "event"
    },
    {
      "anonymous": false,
      "inputs": [
        {
          "indexed": true,
          "internalType": "address",
          "name": "previousOwner",
          "type": "address"
        },
        {
          "indexed": true,
          "internalType": "address",
          "name": "newOwner",
          "type": "address"
        }
      ],
      "name": "OwnershipTransferred",
      "type": "event"
    },
    {
      "anonymous": false,
      "inputs": [
        {
          "indexed": true,
          "internalType": "address",
          "name": "previousAddress",
          "type": "address"
        },
        {
          "indexed": true,
          "internalType": "address",
          "name": "newAddress",
          "type": "address"
        }
      ],
      "name": "ParentChanged",
      "type": "event"
    },
    {
      "anonymous": false,
      "inputs": [
        {
          "indexed": true,
          "internalType": "address",
          "name": "previousAddress",
          "type": "address"
        },
        {
          "indexed": true,
          "internalType": "address",
          "name": "newAddress",
          "type": "address"
        }
      ],
      "name": "StateSyncerAddressChanged",
      "type": "event"
    },
    {
      "anonymous": false,
      "inputs": [
        {
          "indexed": true,
          "internalType": "address",
          "name": "from",
          "type": "address"
        },
        {
          "indexed": true,
          "internalType": "address",
          "name": "to",
          "type": "address"
        },
        {
          "indexed": true,
          "internalType": "uint256",
          "name": "tokenId",
          "type": "uint256"
        }
      ],
      "name": "Transfer",
      "type": "event"
    },
    {
      "anonymous": false,
      "inputs": [
        {
          "indexed": true,
          "internalType": "address",
          "name": "token",
          "type": "address"
        },
        {
          "indexed": true,
          "internalType": "address",
          "name": "from",
          "type": "address"
        },
        {
          "indexed": false,
          "internalType": "uint256",
          "name": "tokenId",
          "type": "uint256"
        }
      ],
      "name": "Withdraw",
      "type": "event"
    },
    {
      "constant": true,
      "inputs": [],
      "name": "CHAINID",
      "outputs": [
        {
          "internalType": "uint256",
          "name": "",
          "type": "uint256"
        }
      ],
      "payable": false,
      "stateMutability": "view",
      "type": "function"
    },
    {
      "constant": true,
      "inputs": [],
      "name": "EIP712_DOMAIN_HASH",
      "outputs": [
        {
          "internalType": "bytes32",
          "name": "",
          "type": "bytes32"
        }
      ],
      "payable": false,
      "stateMutability": "view",
      "type": "function"
    },
    {
      "constant": true,
      "inputs": [],
      "name": "EIP712_DOMAIN_SCHEMA_HASH",
      "outputs": [
        {
          "internalType": "bytes32",
          "name": "",
          "type": "bytes32"
        }
      ],
      "payable": false,
      "stateMutability": "view",
      "type": "function"
    },
    {
      "constant": true,
      "inputs": [],
      "name": "EIP712_TOKEN_TRANSFER_ORDER_SCHEMA_HASH",
      "outputs": [
        {
          "internalType": "bytes32",
          "name": "",
          "type": "bytes32"
        }
      ],
      "payable": false,
      "stateMutability": "view",
      "type": "function"
    },
    {
      "constant": true,
      "inputs": [
        {
          "internalType": "address",
          "name": "owner",
          "type": "address"
        }
      ],
      "name": "balanceOf",
      "outputs": [
        {
          "internalType": "uint256",
          "name": "",
          "type": "uint256"
        }
      ],
      "payable": false,
      "stateMutability": "view",
      "type": "function"
    },
    {
      "constant": false,
      "inputs": [
        {
          "internalType": "address",
          "name": "newAddress",
          "type": "address"
        }
      ],
      "name": "changeChildChain",
      "outputs": [],
      "payable": false,
      "stateMutability": "nonpayable",
      "type": "function"
    },
    {
      "constant": false,
      "inputs": [
        {
          "internalType": "address",
          "name": "newAddress",
          "type": "address"
        }
      ],
      "name": "changeStateSyncerAddress",
      "outputs": [],
      "payable": false,
      "stateMutability": "nonpayable",
      "type": "function"
    },
    {
      "constant": true,
      "inputs": [],
      "name": "childChain",
      "outputs": [
        {
          "internalType": "address",
          "name": "",
          "type": "address"
        }
      ],
      "payable": false,
      "stateMutability": "view",
      "type": "function"
    },
    {
      "constant": true,
      "inputs": [
        {
          "internalType": "bytes32",
          "name": "",
          "type": "bytes32"
        }
      ],
      "name": "disabledHashes",
      "outputs": [
        {
          "internalType": "bool",
          "name": "",
          "type": "bool"
        }
      ],
      "payable": false,
      "stateMutability": "view",
      "type": "function"
    },
    {
      "constant": true,
      "inputs": [
        {
          "internalType": "bytes32",
          "name": "hash",
          "type": "bytes32"
        },
        {
          "internalType": "bytes",
          "name": "sig",
          "type": "bytes"
        }
      ],
      "name": "ecrecovery",
      "outputs": [
        {
          "internalType": "address",
          "name": "result",
          "type": "address"
        }
      ],
      "payable": false,
      "stateMutability": "pure",
      "type": "function"
    },
    {
      "constant": true,
      "inputs": [
        {
          "internalType": "address",
          "name": "spender",
          "type": "address"
        },
        {
          "internalType": "uint256",
          "name": "tokenIdOrAmount",
          "type": "uint256"
        },
        {
          "internalType": "bytes32",
          "name": "data",
          "type": "bytes32"
        },
        {
          "internalType": "uint256",
          "name": "expiration",
          "type": "uint256"
        }
      ],
      "name": "getTokenTransferOrderHash",
      "outputs": [
        {
          "internalType": "bytes32",
          "name": "orderHash",
          "type": "bytes32"
        }
      ],
      "payable": false,
      "stateMutability": "view",
      "type": "function"
    },
    {
      "constant": true,
      "inputs": [],
      "name": "isOnlyStateSyncerContract",
      "outputs": [
        {
          "internalType": "bool",
          "name": "",
          "type": "bool"
        }
      ],
      "payable": false,
      "stateMutability": "view",
      "type": "function"
    },
    {
      "constant": true,
      "inputs": [],
      "name": "isOwner",
      "outputs": [
        {
          "internalType": "bool",
          "name": "",
          "type": "bool"
        }
      ],
      "payable": false,
      "stateMutability": "view",
      "type": "function"
    },
    {
      "constant": true,
      "inputs": [],
      "name": "name",
      "outputs": [
        {
          "internalType": "string",
          "name": "",
          "type": "string"
        }
      ],
      "payable": false,
      "stateMutability": "view",
      "type": "function"
    },
    {
      "constant": true,
      "inputs": [],
      "name": "networkId",
      "outputs": [
        {
          "internalType": "bytes",
          "name": "",
          "type": "bytes"
        }
      ],
      "payable": false,
      "stateMutability": "view",
      "type": "function"
    },
    {
      "constant": true,
      "inputs": [],
      "name": "owner",
      "outputs": [
        {
          "internalType": "address",
          "name": "",
          "type": "address"
        }
      ],
      "payable": false,
      "stateMutability": "view",
      "type": "function"
    },
    {
      "constant": true,
      "inputs": [
        {
          "internalType": "uint256",
          "name": "tokenId",
          "type": "uint256"
        }
      ],
      "name": "ownerOf",
      "outputs": [
        {
          "internalType": "address",
          "name": "",
          "type": "address"
        }
      ],
      "payable": false,
      "stateMutability": "view",
      "type": "function"
    },
    {
      "constant": true,
      "inputs": [],
      "name": "parent",
      "outputs": [
        {
          "internalType": "address",
          "name": "",
          "type": "address"
        }
      ],
      "payable": false,
      "stateMutability": "view",
      "type": "function"
    },
    {
      "constant": false,
      "inputs": [],
      "name": "renounceOwnership",
      "outputs": [],
      "payable": false,
      "stateMutability": "nonpayable",
      "type": "function"
    },
    {
      "constant": false,
      "inputs": [
        {
          "internalType": "address",
          "name": "from",
          "type": "address"
        },
        {
          "internalType": "address",
          "name": "to",
          "type": "address"
        },
        {
          "internalType": "uint256",
          "name": "tokenId",
          "type": "uint256"
        }
      ],
      "name": "safeTransferFrom",
      "outputs": [],
      "payable": false,
      "stateMutability": "nonpayable",
      "type": "function"
    },
    {
      "constant": false,
      "inputs": [
        {
          "internalType": "address",
          "name": "from",
          "type": "address"
        },
        {
          "internalType": "address",
          "name": "to",
          "type": "address"
        },
        {
          "internalType": "uint256",
          "name": "tokenId",
          "type": "uint256"
        },
        {
          "internalType": "bytes",
          "name": "_data",
          "type": "bytes"
        }
      ],
      "name": "safeTransferFrom",
      "outputs": [],
      "payable": false,
      "stateMutability": "nonpayable",
      "type": "function"
    },
    {
      "constant": false,
      "inputs": [
        {
          "internalType": "address",
          "name": "newAddress",
          "type": "address"
        }
      ],
      "name": "setParent",
      "outputs": [],
      "payable": false,
      "stateMutability": "nonpayable",
      "type": "function"
    },
    {
      "constant": true,
      "inputs": [],
      "name": "stateSyncer",
      "outputs": [
        {
          "internalType": "address",
          "name": "",
          "type": "address"
        }
      ],
      "payable": false,
      "stateMutability": "view",
      "type": "function"
    },
    {
      "constant": true,
      "inputs": [
        {
          "internalType": "bytes4",
          "name": "interfaceId",
          "type": "bytes4"
        }
      ],
      "name": "supportsInterface",
      "outputs": [
        {
          "internalType": "bool",
          "name": "",
          "type": "bool"
        }
      ],
      "payable": false,
      "stateMutability": "view",
      "type": "function"
    },
    {
      "constant": true,
      "inputs": [],
      "name": "symbol",
      "outputs": [
        {
          "internalType": "string",
          "name": "",
          "type": "string"
        }
      ],
      "payable": false,
      "stateMutability": "view",
      "type": "function"
    },
    {
      "constant": true,
      "inputs": [],
      "name": "token",
      "outputs": [
        {
          "internalType": "address",
          "name": "",
          "type": "address"
        }
      ],
      "payable": false,
      "stateMutability": "view",
      "type": "function"
    },
    {
      "constant": true,
      "inputs": [
        {
          "internalType": "uint256",
          "name": "index",
          "type": "uint256"
        }
      ],
      "name": "tokenByIndex",
      "outputs": [
        {
          "internalType": "uint256",
          "name": "",
          "type": "uint256"
        }
      ],
      "payable": false,
      "stateMutability": "view",
      "type": "function"
    },
    {
      "constant": true,
      "inputs": [
        {
          "internalType": "address",
          "name": "owner",
          "type": "address"
        },
        {
          "internalType": "uint256",
          "name": "index",
          "type": "uint256"
        }
      ],
      "name": "tokenOfOwnerByIndex",
      "outputs": [
        {
          "internalType": "uint256",
          "name": "",
          "type": "uint256"
        }
      ],
      "payable": false,
      "stateMutability": "view",
      "type": "function"
    },
    {
      "constant": true,
      "inputs": [
        {
          "internalType": "uint256",
          "name": "tokenId",
          "type": "uint256"
        }
      ],
      "name": "tokenURI",
      "outputs": [
        {
          "internalType": "string",
          "name": "",
          "type": "string"
        }
      ],
      "payable": false,
      "stateMutability": "view",
      "type": "function"
    },
    {
      "constant": true,
      "inputs": [],
      "name": "totalSupply",
      "outputs": [
        {
          "internalType": "uint256",
          "name": "",
          "type": "uint256"
        }
      ],
      "payable": false,
      "stateMutability": "view",
      "type": "function"
    },
    {
      "constant": false,
      "inputs": [
        {
          "internalType": "address",
          "name": "newOwner",
          "type": "address"
        }
      ],
      "name": "transferOwnership",
      "outputs": [],
      "payable": false,
      "stateMutability": "nonpayable",
      "type": "function"
    },
    {
      "constant": false,
      "inputs": [
        {
          "internalType": "bytes",
          "name": "sig",
          "type": "bytes"
        },
        {
          "internalType": "uint256",
          "name": "tokenId",
          "type": "uint256"
        },
        {
          "internalType": "bytes32",
          "name": "data",
          "type": "bytes32"
        },
        {
          "internalType": "uint256",
          "name": "expiration",
          "type": "uint256"
        },
        {
          "internalType": "address",
          "name": "to",
          "type": "address"
        }
      ],
      "name": "transferWithSig",
      "outputs": [
        {
          "internalType": "address",
          "name": "",
          "type": "address"
        }
      ],
      "payable": false,
      "stateMutability": "nonpayable",
      "type": "function"
    },
    {
      "constant": false,
      "inputs": [
        {
          "internalType": "address",
          "name": "to",
          "type": "address"
        },
        {
          "internalType": "uint256",
          "name": "tokenId",
          "type": "uint256"
        }
      ],
      "name": "approve",
      "outputs": [],
      "payable": false,
      "stateMutability": "nonpayable",
      "type": "function"
    },
    {
      "constant": true,
      "inputs": [
        {
          "internalType": "uint256",
          "name": "tokenId",
          "type": "uint256"
        }
      ],
      "name": "getApproved",
      "outputs": [
        {
          "internalType": "address",
          "name": "operator",
          "type": "address"
        }
      ],
      "payable": false,
      "stateMutability": "view",
      "type": "function"
    },
    {
      "constant": false,
      "inputs": [
        {
          "internalType": "address",
          "name": "operator",
          "type": "address"
        },
        {
          "internalType": "bool",
          "name": "_approved",
          "type": "bool"
        }
      ],
      "name": "setApprovalForAll",
      "outputs": [],
      "payable": false,
      "stateMutability": "nonpayable",
      "type": "function"
    },
    {
      "constant": true,
      "inputs": [
        {
          "internalType": "address",
          "name": "owner",
          "type": "address"
        },
        {
          "internalType": "address",
          "name": "operator",
          "type": "address"
        }
      ],
      "name": "isApprovedForAll",
      "outputs": [
        {
          "internalType": "bool",
          "name": "",
          "type": "bool"
        }
      ],
      "payable": false,
      "stateMutability": "view",
      "type": "function"
    },
    {
      "constant": false,
      "inputs": [
        {
          "internalType": "address",
          "name": "user",
          "type": "address"
        },
        {
          "internalType": "uint256",
          "name": "tokenId",
          "type": "uint256"
        }
      ],
      "name": "deposit",
      "outputs": [],
      "payable": false,
      "stateMutability": "nonpayable",
      "type": "function"
    },
    {
      "constant": false,
      "inputs": [
        {
          "internalType": "uint256",
          "name": "tokenId",
          "type": "uint256"
        }
      ],
      "name": "withdraw",
      "outputs": [],
      "payable": true,
      "stateMutability": "payable",
      "type": "function"
    },
    {
      "constant": false,
      "inputs": [
        {
          "internalType": "uint256",
          "name": "",
          "type": "uint256"
        },
        {
          "internalType": "bytes",
          "name": "data",
          "type": "bytes"
        }
      ],
      "name": "onStateReceive",
      "outputs": [],
      "payable": false,
      "stateMutability": "nonpayable",
      "type": "function"
    },
    {
      "constant": false,
      "inputs": [
        {
          "internalType": "address",
          "name": "from",
          "type": "address"
        },
        {
          "internalType": "address",
          "name": "to",
          "type": "address"
        },
        {
          "internalType": "uint256",
          "name": "tokenId",
          "type": "uint256"
        }
      ],
      "name": "transferFrom",
      "outputs": [],
      "payable": false,
      "stateMutability": "nonpayable",
      "type": "function"
    }
  ],
  "bytecode": "0x60806040523480156200001157600080fd5b5060405162002a7b38038062002a7b833981810160405260808110156200003757600080fd5b815160208301516040808501805191519395929483019291846401000000008211156200006357600080fd5b9083019060208201858111156200007957600080fd5b82516401000000008111828201881017156200009457600080fd5b82525081516020918201929091019080838360005b83811015620000c3578181015183820152602001620000a9565b50505050905090810190601f168015620000f15780820380516001836020036101000a031916815260200191505b50604052602001805160405193929190846401000000008211156200011557600080fd5b9083019060208201858111156200012b57600080fd5b82516401000000008111828201881017156200014657600080fd5b82525081516020918201929091019080838360005b83811015620001755781810151838201526020016200015b565b50505050905090810190601f168015620001a35780820380516001836020036101000a031916815260200191505b506040819052600080546001600160a01b031916331780825587955086945085935084926001600160a01b039190911691907f8be0079c531659141344cd1fd0a4f28419497f9722a3daafe3b4186f6b6457e0908290a360405180608001604052806052815260200162002a29605291396040516020018082805190602001908083835b60208310620002485780518252601f19909201916020918201910162000227565b51815160209384036101000a60001901801990921691161790526040805192909401828103601f190183528085528251928201929092208285018552600d83527f4d61746963204e6574776f726b00000000000000000000000000000000000000928201929092528351808501855260018082527f3100000000000000000000000000000000000000000000000000000000000000918301919091528451808301939093527fd26430275d0d30693378daeb558f6ed30c3a48ba5d665f52c16608e1c41b5cd7838601527fc89efdaa54c0f20c7adf612882df0950f5a951637e0307cdcb4c672f298b8bc660608401526202ea4260808401523060a0808501919091528551808503909101815260c09093019094528151910120909155506200039591507f01ffc9a7000000000000000000000000000000000000000000000000000000009050620004ec565b620003c97f80ac58cd000000000000000000000000000000000000000000000000000000006001600160e01b03620004ec16565b620003fd7f780e9d63000000000000000000000000000000000000000000000000000000006001600160e01b03620004ec16565b81516200041290600f90602085019062000559565b5080516200042890601090602084019062000559565b506200045d7f5b5e139f000000000000000000000000000000000000000000000000000000006001600160e01b03620004ec16565b5050601280546001600160a01b03191661100117908190556040516001600160a01b03919091169250600091507f98e6a46aa139a033b9c7f3ae4ad1c103ffdce3e7cf509326808ba8c4b5af11c0908290a36001600160a01b038316620004c357600080fd5b5050600280546001600160a01b0319166001600160a01b039290921691909117905550620005fe565b7fffffffff0000000000000000000000000000000000000000000000000000000080821614156200051c57600080fd5b7fffffffff00000000000000000000000000000000000000000000000000000000166000908152600660205260409020805460ff19166001179055565b828054600181600116156101000203166002900490600052602060002090601f016020900481019282601f106200059c57805160ff1916838001178555620005cc565b82800160010185558215620005cc579182015b82811115620005cc578251825591602001919060010190620005af565b50620005da929150620005de565b5090565b620005fb91905b80821115620005da5760008155600101620005e5565b90565b61241b806200060e6000396000f3fe60806040526004361061023b5760003560e01c806377d32e941161012e578063c87b56dd116100ab578063e985e9c51161006f578063e985e9c514610a2d578063ed9ef52414610a68578063f2fde38b14610a9b578063f4ef4d6914610ace578063fc0c546a14610ae35761023b565b8063c87b56dd14610991578063cc79f97b146109bb578063df555007146109d0578063e306f77914610a03578063e614d0d614610a185761023b565b8063a22cb465116100f2578063a22cb46514610801578063abceeba21461083c578063acd06cb314610851578063b789543c1461087b578063b88d4fde146108c05761023b565b806377d32e94146106f55780638da5cb5b146107ad5780638f32d59b146107c25780639025e64c146107d757806395d89b41146107ec5761023b565b80632f745c59116101bc57806355651f711161018057806355651f711461065957806360f96a8f1461066e5780636352211e1461068357806370a08231146106ad578063715018a6146106e05761023b565b80632f745c591461056557806342842e0e1461059e57806342fc47fb146105e157806347e7ef24146105f65780634f6ccce71461062f5761023b565b806318160ddd1161020357806318160ddd146103c657806319d27d9c146103ed57806323b872dd1461048357806326c53bea146104c65780632e1a7d4d146105485761023b565b806301ffc9a71461024057806306fdde0314610288578063081812fc14610312578063095ea7b3146103585780631499c59214610393575b600080fd5b34801561024c57600080fd5b506102746004803603602081101561026357600080fd5b50356001600160e01b031916610af8565b604080519115158252519081900360200190f35b34801561029457600080fd5b5061029d610b17565b6040805160208082528351818301528351919283929083019185019080838360005b838110156102d75781810151838201526020016102bf565b50505050905090810190601f1680156103045780820380516001836020036101000a031916815260200191505b509250505060405180910390f35b34801561031e57600080fd5b5061033c6004803603602081101561033557600080fd5b5035610bae565b604080516001600160a01b039092168252519081900360200190f35b34801561036457600080fd5b506103916004803603604081101561037b57600080fd5b506001600160a01b038135169060200135610bf0565b005b34801561039f57600080fd5b50610391600480360360208110156103b657600080fd5b50356001600160a01b0316610c30565b3480156103d257600080fd5b506103db610ce2565b60408051918252519081900360200190f35b3480156103f957600080fd5b5061033c600480360360a081101561041057600080fd5b810190602081018135600160201b81111561042a57600080fd5b82018360208201111561043c57600080fd5b803590602001918460018302840111600160201b8311171561045d57600080fd5b9193509150803590602081013590604081013590606001356001600160a01b0316610ce8565b34801561048f57600080fd5b50610391600480360360608110156104a657600080fd5b506001600160a01b03813581169160208101359091169060400135610e8c565b3480156104d257600080fd5b50610391600480360360408110156104e957600080fd5b81359190810190604081016020820135600160201b81111561050a57600080fd5b82018360208201111561051c57600080fd5b803590602001918460018302840111600160201b8311171561053d57600080fd5b509092509050610f46565b6103916004803603602081101561055e57600080fd5b5035611006565b34801561057157600080fd5b506103db6004803603604081101561058857600080fd5b506001600160a01b038135169060200135611073565b3480156105aa57600080fd5b50610391600480360360608110156105c157600080fd5b506001600160a01b038135811691602081013590911690604001356110c1565b3480156105ed57600080fd5b5061033c6110dc565b34801561060257600080fd5b506103916004803603604081101561061957600080fd5b506001600160a01b0381351690602001356110eb565b34801561063b57600080fd5b506103db6004803603602081101561065257600080fd5b503561119a565b34801561066557600080fd5b506102746111ce565b34801561067a57600080fd5b5061033c6111df565b34801561068f57600080fd5b5061033c600480360360208110156106a657600080fd5b50356111ee565b3480156106b957600080fd5b506103db600480360360208110156106d057600080fd5b50356001600160a01b0316611210565b3480156106ec57600080fd5b50610391611246565b34801561070157600080fd5b5061033c6004803603604081101561071857600080fd5b81359190810190604081016020820135600160201b81111561073957600080fd5b82018360208201111561074b57600080fd5b803590602001918460018302840111600160201b8311171561076c57600080fd5b91908080601f0160208091040260200160405190810160405280939291908181526020018383808284376000920191909152509295506112a1945050505050565b3480156107b957600080fd5b5061033c6113c4565b3480156107ce57600080fd5b506102746113d3565b3480156107e357600080fd5b5061029d6113e4565b3480156107f857600080fd5b5061029d611403565b34801561080d57600080fd5b506103916004803603604081101561082457600080fd5b506001600160a01b0381351690602001351515610bf0565b34801561084857600080fd5b506103db611464565b34801561085d57600080fd5b506102746004803603602081101561087457600080fd5b50356114ed565b34801561088757600080fd5b506103db6004803603608081101561089e57600080fd5b506001600160a01b038135169060208101359060408101359060600135611502565b3480156108cc57600080fd5b50610391600480360360808110156108e357600080fd5b6001600160a01b03823581169260208101359091169160408201359190810190608081016060820135600160201b81111561091d57600080fd5b82018360208201111561092f57600080fd5b803590602001918460018302840111600160201b8311171561095057600080fd5b91908080601f016020809104026020016040519081016040528093929190818152602001838380828437600092019190915250929550611521945050505050565b34801561099d57600080fd5b5061029d600480360360208110156109b457600080fd5b5035611547565b3480156109c757600080fd5b506103db6115fa565b3480156109dc57600080fd5b50610391600480360360208110156109f357600080fd5b50356001600160a01b0316611601565b348015610a0f57600080fd5b506103db6116b3565b348015610a2457600080fd5b506103db6116b9565b348015610a3957600080fd5b5061027460048036036040811015610a5057600080fd5b506001600160a01b0381358116916020013516610bae565b348015610a7457600080fd5b5061039160048036036020811015610a8b57600080fd5b50356001600160a01b0316611703565b348015610aa757600080fd5b5061039160048036036020811015610abe57600080fd5b50356001600160a01b03166117b5565b348015610ada57600080fd5b5061033c6117d2565b348015610aef57600080fd5b5061033c6117e1565b6001600160e01b03191660009081526006602052604090205460ff1690565b600f8054604080516020601f6002600019610100600188161502019095169490940493840181900481028201810190925282815260609390929091830182828015610ba35780601f10610b7857610100808354040283529160200191610ba3565b820191906000526020600020905b815481529060010190602001808311610b8657829003601f168201915b505050505090505b90565b6040805162461bcd60e51b815260206004820152601060248201526f44697361626c6564206665617475726560801b6044820152905160009181900360640190fd5b6040805162461bcd60e51b815260206004820152601060248201526f44697361626c6564206665617475726560801b604482015290519081900360640190fd5b610c386113d3565b610c4157600080fd5b6001600160a01b038116610c865760405162461bcd60e51b81526004018080602001828103825260338152602001806122336033913960400191505060405180910390fd5b6004546040516001600160a01b038084169216907fc9e4c719f349d4c91a37138eb5cf0ba2670c592a764f8c0b18c603ba9178cc1d90600090a3600480546001600160a01b0319166001600160a01b0392909216919091179055565b600d5490565b6000821580610cf75750824311155b610d3f576040805162461bcd60e51b815260206004820152601460248201527314da59db985d1d5c99481a5cc8195e1c1a5c995960621b604482015290519081900360640190fd5b6000610d56610d50338888886117f0565b306118ac565b60008181526005602052604090205490915060ff1615610daf576040805162461bcd60e51b815260206004820152600f60248201526e14da59c819195858dd1a5d985d1959608a1b604482015290519081900360640190fd5b6000818152600560209081526040808320805460ff191660011790558051601f8b01839004830281018301909152898152610e07918491908c908c90819084018382808284376000920191909152506112a192505050565b9050610e14818589611a02565b610e2f81858960405180602001604052806000815250611a5b565b610e80576040805162461bcd60e51b815260206004820152601d60248201527f5f636865636b4f6e4552433732315265636569766564206661696c6564000000604482015290519081900360640190fd5b98975050505050505050565b6004546001600160a01b031615801590610f2c57506004805460408051631ffb811f60e01b815233938101939093526001600160a01b038581166024850152604484018590529051911691631ffb811f9160648083019260209291908290030181600087803b158015610efe57600080fd5b505af1158015610f12573d6000803e3d6000fd5b505050506040513d6020811015610f2857600080fd5b5051155b15610f3657610f41565b610f41838383611a02565b505050565b610f4e6111ce565b610f895760405162461bcd60e51b81526004018080602001828103825260358152602001806122b86035913960400191505060405180910390fd5b60008083836040811015610f9c57600080fd5b506001600160a01b038135169250602001359050610fba8282611b8e565b6002546040805183815290516001600160a01b038086169316917f9b1bfa7fa9ee420a16e124f794c35ac9f90472acc99140eb2f6447c714cad8eb919081900360200190a35050505050565b33611010826111ee565b6001600160a01b03161461102357600080fd5b61102d3382611b8e565b60025460408051838152905133926001600160a01b0316917f9b1bfa7fa9ee420a16e124f794c35ac9f90472acc99140eb2f6447c714cad8eb919081900360200190a350565b600061107e83611210565b821061108957600080fd5b6001600160a01b0383166000908152600b602052604090208054839081106110ad57fe5b906000526020600020015490505b92915050565b610f4183838360405180602001604052806000815250611521565b6003546001600160a01b031681565b6003546001600160a01b031633146111345760405162461bcd60e51b815260040180806020018281038252603381526020018061237a6033913960400191505060405180910390fd5b6001600160a01b03821661114757600080fd5b6111518282611bda565b6002546040805183815290516001600160a01b038086169316917f5548c837ab068cf56a2c2479df0882a4922fd203edb7517321831d95078c5f62919081900360200190a35050565b60006111a4610ce2565b82106111af57600080fd5b600d82815481106111bc57fe5b90600052602060002001549050919050565b6012546001600160a01b0316331490565b6004546001600160a01b031681565b6000818152600760205260408120546001600160a01b0316806110bb57600080fd5b60006001600160a01b03821661122557600080fd5b6001600160a01b03821660009081526009602052604090206110bb90611bf7565b61124e6113d3565b61125757600080fd5b600080546040516001600160a01b03909116907f8be0079c531659141344cd1fd0a4f28419497f9722a3daafe3b4186f6b6457e0908390a3600080546001600160a01b0319169055565b60008060008084516041146112bc57600093505050506110bb565b50505060208201516040830151604184015160ff16601b8110156112de57601b015b8060ff16601b141580156112f657508060ff16601c14155b1561130757600093505050506110bb565b6040805160008152602080820180845289905260ff8416828401526060820186905260808201859052915160019260a0808401939192601f1981019281900390910190855afa15801561135e573d6000803e3d6000fd5b5050604051601f1901519450506001600160a01b0384166113bb576040805162461bcd60e51b815260206004820152601260248201527122b93937b91034b71032b1b932b1b7bb32b960711b604482015290519081900360640190fd5b50505092915050565b6000546001600160a01b031690565b6000546001600160a01b0316331490565b6040518060400160405280600381526020016201752160e91b81525081565b60108054604080516020601f6002600019610100600188161502019095169490940493840181900481028201810190925282815260609390929091830182828015610ba35780601f10610b7857610100808354040283529160200191610ba3565b6040518060800160405280605b815260200161231f605b91396040516020018082805190602001908083835b602083106114af5780518252601f199092019160209182019101611490565b6001836020036101000a0380198251168184511680821785525050505050509050019150506040516020818303038152906040528051906020012081565b60056020526000908152604090205460ff1681565b6000611518611513868686866117f0565b611bfb565b95945050505050565b61152c848484610e8c565b61153884848484611a5b565b61154157600080fd5b50505050565b606061155282611c09565b61155b57600080fd5b60008281526011602090815260409182902080548351601f6002600019610100600186161502019093169290920491820184900484028101840190945280845290918301828280156115ee5780601f106115c3576101008083540402835291602001916115ee565b820191906000526020600020905b8154815290600101906020018083116115d157829003601f168201915b50505050509050919050565b6202ea4281565b6116096113d3565b61161257600080fd5b6001600160a01b0381166116575760405162461bcd60e51b815260040180806020018281038252603a8152602001806123ad603a913960400191505060405180910390fd5b6012546040516001600160a01b038084169216907f98e6a46aa139a033b9c7f3ae4ad1c103ffdce3e7cf509326808ba8c4b5af11c090600090a3601280546001600160a01b0319166001600160a01b0392909216919091179055565b60015481565b60405180608001604052806052815260200161226660529139604051602001808280519060200190808383602083106114af5780518252601f199092019160209182019101611490565b61170b6113d3565b61171457600080fd5b6001600160a01b0381166117595760405162461bcd60e51b81526004018080602001828103825260328152602001806122ed6032913960400191505060405180910390fd5b6003546040516001600160a01b038084169216907f1f9f3556dd336016cdf20adaead7d5c73665dba664b60e8c17e9a4eb91ce1d3990600090a3600380546001600160a01b0319166001600160a01b0392909216919091179055565b6117bd6113d3565b6117c657600080fd5b6117cf81611c26565b50565b6012546001600160a01b031681565b6002546001600160a01b031681565b6000806040518060800160405280605b815260200161231f605b91396040516020018082805190602001908083835b6020831061183e5780518252601f19909201916020918201910161181f565b51815160209384036101000a60001901801990921691161790526040805192909401828103601f1901835280855282519282019290922082526001600160a01b038c169082015291820189905250606081018790526080810186905260a0902093505050505b949350505050565b600080604051806080016040528060528152602001612266605291396040516020018082805190602001908083835b602083106118fa5780518252601f1990920191602091820191016118db565b51815160209384036101000a60001901801990921691161790526040805192909401828103601f190183528085528251928201929092208285018552600d83526c4d61746963204e6574776f726b60981b928201929092528351808501855260018152603160f81b908201528351808201929092527fd26430275d0d30693378daeb558f6ed30c3a48ba5d665f52c16608e1c41b5cd7828501527fc89efdaa54c0f20c7adf612882df0950f5a951637e0307cdcb4c672f298b8bc660608301526202ea4260808301526001600160a01b03891660a0808401919091528451808403909101815260c0909201909352805192019190912093506118a49250869150839050611c94565b611a0d838383611cb6565b6002546040805183815290516001600160a01b0380861693878216939116917f6eabe333476233fd382224f233210cb808a7bc4c4de64f9d76628bf63c677b1a9181900360200190a4505050565b6000611a6f846001600160a01b0316611cd5565b611a7b575060016118a4565b604051630a85bd0160e11b815233600482018181526001600160a01b03888116602485015260448401879052608060648501908152865160848601528651600095928a169463150b7a029490938c938b938b939260a4019060208501908083838e5b83811015611af5578181015183820152602001611add565b50505050905090810190601f168015611b225780820380516001836020036101000a031916815260200191505b5095505050505050602060405180830381600087803b158015611b4457600080fd5b505af1158015611b58573d6000803e3d6000fd5b505050506040513d6020811015611b6e57600080fd5b50516001600160e01b031916630a85bd0160e11b14915050949350505050565b611b988282611cdb565b6000818152601160205260409020546002600019610100600184161502019091160415611bd6576000818152601160205260408120611bd6916121b0565b5050565b611be48282611d07565b611bee8282611da8565b611bd681611de6565b5490565b60006110bb82600154611c94565b6000908152600760205260409020546001600160a01b0316151590565b6001600160a01b038116611c3957600080fd5b600080546040516001600160a01b03808516939216917f8be0079c531659141344cd1fd0a4f28419497f9722a3daafe3b4186f6b6457e091a3600080546001600160a01b0319166001600160a01b0392909216919091179055565b60405161190160f01b8152600281019190915260228101919091526042902090565b611cc1838383611e2a565b611ccb8382611f0a565b610f418282611da8565b3b151590565b611ce58282611fff565b611cef8282611f0a565b6000818152600c6020526040812055611bd6816120a4565b6001600160a01b038216611d1a57600080fd5b611d2381611c09565b15611d2d57600080fd5b600081815260076020908152604080832080546001600160a01b0319166001600160a01b038716908117909155835260099091529020611d6c90612140565b60405181906001600160a01b038416906000907fddf252ad1be2c89b69c2b068fc378daa952ba7f163c4a11628f55a4df523b3ef908290a45050565b6001600160a01b039091166000908152600b602081815260408084208054868652600c84529185208290559282526001810183559183529091200155565b600d80546000838152600e60205260408120829055600182018355919091527fd7b6990105719101dabeb77144f2a3385c8033acd3af97e9423a695e81ad1eb50155565b826001600160a01b0316611e3d826111ee565b6001600160a01b031614611e5057600080fd5b6001600160a01b038216611e6357600080fd5b611e6c81612149565b6001600160a01b0383166000908152600960205260409020611e8d90612184565b6001600160a01b0382166000908152600960205260409020611eae90612140565b60008181526007602052604080822080546001600160a01b0319166001600160a01b0386811691821790925591518493918716917fddf252ad1be2c89b69c2b068fc378daa952ba7f163c4a11628f55a4df523b3ef91a4505050565b6001600160a01b0382166000908152600b6020526040812054611f3490600163ffffffff61219b16565b6000838152600c6020526040902054909150808214611fcf576001600160a01b0384166000908152600b60205260408120805484908110611f7157fe5b9060005260206000200154905080600b6000876001600160a01b03166001600160a01b031681526020019081526020016000208381548110611faf57fe5b6000918252602080832090910192909255918252600c9052604090208190555b6001600160a01b0384166000908152600b60205260409020805490611ff89060001983016121f4565b5050505050565b816001600160a01b0316612012826111ee565b6001600160a01b03161461202557600080fd5b61202e81612149565b6001600160a01b038216600090815260096020526040902061204f90612184565b60008181526007602052604080822080546001600160a01b0319169055518291906001600160a01b038516907fddf252ad1be2c89b69c2b068fc378daa952ba7f163c4a11628f55a4df523b3ef908390a45050565b600d546000906120bb90600163ffffffff61219b16565b6000838152600e6020526040812054600d80549394509092849081106120dd57fe5b9060005260206000200154905080600d83815481106120f857fe5b6000918252602080832090910192909255828152600e90915260409020829055600d80549061212b9060001983016121f4565b505050600091825250600e6020526040812055565b80546001019055565b6000818152600860205260409020546001600160a01b0316156117cf57600090815260086020526040902080546001600160a01b0319169055565b805461219790600163ffffffff61219b16565b9055565b6000828211156121aa57600080fd5b50900390565b50805460018160011615610100020316600290046000825580601f106121d657506117cf565b601f0160209004906000526020600020908101906117cf9190612214565b815481835581811115610f4157600083815260209020610f419181019083015b610bab91905b8082111561222e576000815560010161221a565b509056fe4368696c6420746f6b656e3a206e657720706172656e74206164647265737320697320746865207a65726f2061646472657373454950373132446f6d61696e28737472696e67206e616d652c737472696e672076657273696f6e2c75696e7432353620636861696e49642c6164647265737320766572696679696e67436f6e74726163742953746174652073796e6365723a2063616c6c6572206973206e6f74207468652073746174652073796e63657220636f6e74726163744368696c6420746f6b656e3a206e6577206368696c64206164647265737320697320746865207a65726f2061646472657373546f6b656e5472616e736665724f726465722861646472657373207370656e6465722c75696e7432353620746f6b656e49644f72416d6f756e742c6279746573333220646174612c75696e743235362065787069726174696f6e294368696c6420746f6b656e3a2063616c6c6572206973206e6f7420746865206368696c6420636861696e20636f6e747261637453746174652073796e6365723a206e65772073746174652073796e636572206164647265737320697320746865207a65726f2061646472657373a265627a7a72315820bb0a9dd81bef741cf9761e72ee3aed6778317133c29c6fb22a25a30fe853517464736f6c63430005110032454950373132446f6d61696e28737472696e67206e616d652c737472696e672076657273696f6e2c75696e7432353620636861696e49642c6164647265737320766572696679696e67436f6e747261637429",
  "source": "pragma solidity ^0.5.2;\n\nimport {ERC721Full} from \"openzeppelin-solidity/contracts/token/ERC721/ERC721Full.sol\";\n\nimport \"./ChildToken.sol\";\nimport \"./misc/IParentToken.sol\";\n\nimport {StateSyncerVerifier} from \"./bor/StateSyncerVerifier.sol\";\nimport {StateReceiver} from \"./bor/StateReceiver.sol\";\n\ncontract ChildERC721 is ChildToken, ERC721Full, StateSyncerVerifier, StateReceiver {\n    event Deposit(address indexed token, address indexed from, uint256 tokenId);\n\n    event Withdraw(\n        address indexed token,\n        address indexed from,\n        uint256 tokenId\n    );\n\n    event LogTransfer(\n        address indexed token,\n        address indexed from,\n        address indexed to,\n        uint256 tokenId\n    );\n\n    constructor(\n        address /* ignoring parent owner, use contract owner instead */,\n        address _token,\n        string memory name,\n        string memory symbol\n    ) public ERC721Full(name, symbol) {\n        require(_token != address(0x0));\n        token = _token;\n    }\n\n    function transferWithSig(\n        bytes calldata sig,\n        uint256 tokenId,\n        bytes32 data,\n        uint256 expiration,\n        address to\n    ) external returns (address) {\n        require(\n            expiration == 0 || block.number <= expiration,\n            \"Signature is expired\"\n        );\n\n        bytes32 dataHash = hashEIP712MessageWithAddress(\n            hashTokenTransferOrder(msg.sender, tokenId, data, expiration),\n            address(this)\n        );\n        require(disabledHashes[dataHash] == false, \"Sig deactivated\");\n        disabledHashes[dataHash] = true;\n\n        // recover address and send tokens\n        address from = ecrecovery(dataHash, sig);\n        _transferFrom(from, to, tokenId);\n        require(\n            _checkOnERC721Received(from, to, tokenId, \"\"),\n            \"_checkOnERC721Received failed\"\n        );\n        return from;\n    }\n\n    function approve(address to, uint256 tokenId) public {\n        revert(\"Disabled feature\");\n    }\n\n    function getApproved(uint256 tokenId)\n        public\n        view\n        returns (address operator)\n    {\n        revert(\"Disabled feature\");\n    }\n\n    function setApprovalForAll(address operator, bool _approved) public {\n        revert(\"Disabled feature\");\n    }\n\n    function isApprovedForAll(address owner, address operator)\n        public\n        view\n        returns (bool)\n    {\n        revert(\"Disabled feature\");\n    }\n\n    /**\n   * @notice Deposit tokens\n   * @param user address for deposit\n   * @param tokenId tokenId to mint to user's account\n   */\n    function deposit(address user, uint256 tokenId) public onlyChildChain {\n        require(user != address(0x0));\n        _mint(user, tokenId);\n        emit Deposit(token, user, tokenId);\n    }\n\n    /**\n   * @notice Withdraw tokens\n   * @param tokenId tokenId of the token to be withdrawn\n   */\n    function withdraw(uint256 tokenId) public payable {\n        require(ownerOf(tokenId) == msg.sender);\n        _burn(msg.sender, tokenId);\n        emit Withdraw(token, msg.sender, tokenId);\n    }\n\n    function onStateReceive(\n        uint256, /* id */\n        bytes calldata data\n    ) external onlyStateSyncer {\n        (address user, uint256 tokenId) = abi.decode(data, (address, uint256));\n        _burn(user, tokenId);\n        emit Withdraw(token, user, tokenId);\n    }\n\n    /**\n   * @dev Overriding the inherited method so that it emits LogTransfer\n   */\n    function transferFrom(address from, address to, uint256 tokenId) public {\n        if (\n            parent != address(0x0) &&\n            !IParentToken(parent).beforeTransfer(msg.sender, to, tokenId)\n        ) {\n            return;\n        }\n        _transferFrom(from, to, tokenId);\n    }\n\n    function _transferFrom(address from, address to, uint256 tokenId) internal {\n        super._transferFrom(from, to, tokenId);\n        emit LogTransfer(token, from, to, tokenId);\n    }\n}\n",
  "sourcePath": "/Users/ohm.jirapon/playground/blockhain/pos/plasma-ploygon/contracts/contracts/child/ChildERC721.sol",
  "compiler": {
    "name": "solc",
    "version": "0.5.17+commit.d19bba13.Linux.g++"
  },
  "schemaVersion": "3.4.7",
  "updatedAt": "2022-07-08T08:23:53.316Z",
  "devdoc": {
    "methods": {
      "balanceOf(address)": {
        "details": "Gets the balance of the specified address",
        "params": {
          "owner": "address to query the balance of"
        },
        "return": "uint256 representing the amount owned by the passed address"
      },
      "deposit(address,uint256)": {
        "params": {
          "tokenId": "tokenId to mint to user's account",
          "user": "address for deposit"
        }
      },
      "isOnlyStateSyncerContract()": {
        "details": "Returns true if the caller is the state syncer contract TODO: replace onlyOwner ownership with 0x1000 for validator majority"
      },
      "isOwner()": {
        "return": "true if `msg.sender` is the owner of the contract."
      },
      "name()": {
        "details": "Gets the token name",
        "return": "string representing the token name"
      },
      "owner()": {
        "return": "the address of the owner."
      },
      "ownerOf(uint256)": {
        "details": "Gets the owner of the specified token ID",
        "params": {
          "tokenId": "uint256 ID of the token to query the owner of"
        },
        "return": "address currently marked as the owner of the given token ID"
      },
      "renounceOwnership()": {
        "details": "Allows the current owner to relinquish control of the contract. It will not be possible to call the functions with the `onlyOwner` modifier anymore."
      },
      "safeTransferFrom(address,address,uint256)": {
        "details": "Safely transfers the ownership of a given token ID to another address If the target address is a contract, it must implement `onERC721Received`, which is called upon a safe transfer, and return the magic value `bytes4(keccak256(\"onERC721Received(address,address,uint256,bytes)\"))`; otherwise, the transfer is reverted. Requires the msg.sender to be the owner, approved, or operator",
        "params": {
          "from": "current owner of the token",
          "to": "address to receive the ownership of the given token ID",
          "tokenId": "uint256 ID of the token to be transferred"
        }
      },
      "safeTransferFrom(address,address,uint256,bytes)": {
        "details": "Safely transfers the ownership of a given token ID to another address If the target address is a contract, it must implement `onERC721Received`, which is called upon a safe transfer, and return the magic value `bytes4(keccak256(\"onERC721Received(address,address,uint256,bytes)\"))`; otherwise, the transfer is reverted. Requires the msg.sender to be the owner, approved, or operator",
        "params": {
          "_data": "bytes data to send along with a safe transfer check",
          "from": "current owner of the token",
          "to": "address to receive the ownership of the given token ID",
          "tokenId": "uint256 ID of the token to be transferred"
        }
      },
      "supportsInterface(bytes4)": {
        "details": "implement supportsInterface(bytes4) using a lookup table"
      },
      "symbol()": {
        "details": "Gets the token symbol",
        "return": "string representing the token symbol"
      },
      "tokenByIndex(uint256)": {
        "details": "Gets the token ID at a given index of all the tokens in this contract Reverts if the index is greater or equal to the total number of tokens",
        "params": {
          "index": "uint256 representing the index to be accessed of the tokens list"
        },
        "return": "uint256 token ID at the given index of the tokens list"
      },
      "tokenOfOwnerByIndex(address,uint256)": {
        "details": "Gets the token ID at a given index of the tokens list of the requested owner",
        "params": {
          "index": "uint256 representing the index to be accessed of the requested tokens list",
          "owner": "address owning the tokens list to be accessed"
        },
        "return": "uint256 token ID at the given index of the tokens list owned by the requested address"
      },
      "tokenURI(uint256)": {
        "details": "Returns an URI for a given token ID Throws if the token ID does not exist. May return an empty string.",
        "params": {
          "tokenId": "uint256 ID of the token to query"
        }
      },
      "totalSupply()": {
        "details": "Gets the total amount of tokens stored by the contract",
        "return": "uint256 representing the total amount of tokens"
      },
      "transferFrom(address,address,uint256)": {
        "details": "Overriding the inherited method so that it emits LogTransfer"
      },
      "transferOwnership(address)": {
        "details": "Allows the current owner to transfer control of the contract to a newOwner.",
        "params": {
          "newOwner": "The address to transfer ownership to."
        }
      },
      "withdraw(uint256)": {
        "params": {
          "tokenId": "tokenId of the token to be withdrawn"
        }
      }
    }
  },
  "userdoc": {
    "methods": {
      "deposit(address,uint256)": {
        "notice": "Deposit tokens"
      },
      "renounceOwnership()": {
        "notice": "Renouncing ownership will leave the contract without an owner, thereby removing any functionality that is only available to the owner."
      },
      "withdraw(uint256)": {
        "notice": "Withdraw tokens"
      }
    }
  }
}