{
  "contractName": "ChildERC721Mintable",
  "abi": [
    {
      "inputs": [
        {
          "internalType": "address",
          "name": "rootToken",
          "type": "address"
        },
        {
          "internalType": "string",
          "name": "name",
          "type": "string"
        },
        {
          "internalType": "string",
          "name": "symbol",
          "type": "string"
        }
      ],
      "payable": false,
      "stateMutability": "nonpayable",
      "type": "constructor"
    },
    {
      "anonymous": false,
      "inputs": [
        {
          "indexed": true,
          "internalType": "address",
          "name": "owner",
          "type": "address"
        },
        {
          "indexed": true,
          "internalType": "address",
          "name": "approved",
          "type": "address"
        },
        {
          "indexed": true,
          "internalType": "uint256",
          "name": "tokenId",
          "type": "uint256"
        }
      ],
      "name": "Approval",
      "type": "event"
    },
    {
      "anonymous": false,
      "inputs": [
        {
          "indexed": true,
          "internalType": "address",
          "name": "owner",
          "type": "address"
        },
        {
          "indexed": true,
          "internalType": "address",
          "name": "operator",
          "type": "address"
        },
        {
          "indexed": false,
          "internalType": "bool",
          "name": "approved",
          "type": "bool"
        }
      ],
      "name": "ApprovalForAll",
      "type": "event"
    },
    {
      "anonymous": false,
      "inputs": [
        {
          "indexed": true,
          "internalType": "address",
          "name": "previousAddress",
          "type": "address"
        },
        {
          "indexed": true,
          "internalType": "address",
          "name": "newAddress",
          "type": "address"
        }
      ],
      "name": "ChildChainChanged",
      "type": "event"
    },
    {
      "anonymous": false,
      "inputs": [
        {
          "indexed": true,
          "internalType": "address",
          "name": "token",
          "type": "address"
        },
        {
          "indexed": true,
          "internalType": "address",
          "name": "from",
          "type": "address"
        },
        {
          "indexed": false,
          "internalType": "uint256",
          "name": "tokenId",
          "type": "uint256"
        }
      ],
      "name": "Deposit",
      "type": "event"
    },
    {
      "anonymous": false,
      "inputs": [
        {
          "indexed": true,
          "internalType": "address",
          "name": "token",
          "type": "address"
        },
        {
          "indexed": true,
          "internalType": "address",
          "name": "from",
          "type": "address"
        },
        {
          "indexed": true,
          "internalType": "address",
          "name": "to",
          "type": "address"
        },
        {
          "indexed": false,
          "internalType": "uint256",
          "name": "amount",
          "type": "uint256"
        },
        {
          "indexed": false,
          "internalType": "uint256",
          "name": "input1",
          "type": "uint256"
        },
        {
          "indexed": false,
          "internalType": "uint256",
          "name": "input2",
          "type": "uint256"
        },
        {
          "indexed": false,
          "internalType": "uint256",
          "name": "output1",
          "type": "uint256"
        },
        {
          "indexed": false,
          "internalType": "uint256",
          "name": "output2",
          "type": "uint256"
        }
      ],
      "name": "LogFeeTransfer",
      "type": "event"
    },
    {
      "anonymous": false,
      "inputs": [
        {
          "indexed": true,
          "internalType": "address",
          "name": "token",
          "type": "address"
        },
        {
          "indexed": true,
          "internalType": "address",
          "name": "from",
          "type": "address"
        },
        {
          "indexed": true,
          "internalType": "address",
          "name": "to",
          "type": "address"
        },
        {
          "indexed": false,
          "internalType": "uint256",
          "name": "tokenId",
          "type": "uint256"
        }
      ],
      "name": "LogTransfer",
      "type": "event"
    },
    {
      "anonymous": false,
      "inputs": [
        {
          "indexed": true,
          "internalType": "address",
          "name": "account",
          "type": "address"
        }
      ],
      "name": "MinterAdded",
      "type": "event"
    },
    {
      "anonymous": false,
      "inputs": [
        {
          "indexed": true,
          "internalType": "address",
          "name": "account",
          "type": "address"
        }
      ],
      "name": "MinterRemoved",
      "type": "event"
    },
    {
      "anonymous": false,
      "inputs": [
        {
          "indexed": true,
          "internalType": "address",
          "name": "previousOwner",
          "type": "address"
        },
        {
          "indexed": true,
          "internalType": "address",
          "name": "newOwner",
          "type": "address"
        }
      ],
      "name": "OwnershipTransferred",
      "type": "event"
    },
    {
      "anonymous": false,
      "inputs": [
        {
          "indexed": true,
          "internalType": "address",
          "name": "previousAddress",
          "type": "address"
        },
        {
          "indexed": true,
          "internalType": "address",
          "name": "newAddress",
          "type": "address"
        }
      ],
      "name": "ParentChanged",
      "type": "event"
    },
    {
      "anonymous": false,
      "inputs": [
        {
          "indexed": true,
          "internalType": "address",
          "name": "previousAddress",
          "type": "address"
        },
        {
          "indexed": true,
          "internalType": "address",
          "name": "newAddress",
          "type": "address"
        }
      ],
      "name": "StateSyncerAddressChanged",
      "type": "event"
    },
    {
      "anonymous": false,
      "inputs": [
        {
          "indexed": true,
          "internalType": "address",
          "name": "from",
          "type": "address"
        },
        {
          "indexed": true,
          "internalType": "address",
          "name": "to",
          "type": "address"
        },
        {
          "indexed": true,
          "internalType": "uint256",
          "name": "tokenId",
          "type": "uint256"
        }
      ],
      "name": "Transfer",
      "type": "event"
    },
    {
      "anonymous": false,
      "inputs": [
        {
          "indexed": true,
          "internalType": "address",
          "name": "token",
          "type": "address"
        },
        {
          "indexed": true,
          "internalType": "address",
          "name": "from",
          "type": "address"
        },
        {
          "indexed": false,
          "internalType": "uint256",
          "name": "tokenId",
          "type": "uint256"
        }
      ],
      "name": "Withdraw",
      "type": "event"
    },
    {
      "constant": true,
      "inputs": [],
      "name": "CHAINID",
      "outputs": [
        {
          "internalType": "uint256",
          "name": "",
          "type": "uint256"
        }
      ],
      "payable": false,
      "stateMutability": "view",
      "type": "function"
    },
    {
      "constant": true,
      "inputs": [],
      "name": "EIP712_DOMAIN_HASH",
      "outputs": [
        {
          "internalType": "bytes32",
          "name": "",
          "type": "bytes32"
        }
      ],
      "payable": false,
      "stateMutability": "view",
      "type": "function"
    },
    {
      "constant": true,
      "inputs": [],
      "name": "EIP712_DOMAIN_SCHEMA_HASH",
      "outputs": [
        {
          "internalType": "bytes32",
          "name": "",
          "type": "bytes32"
        }
      ],
      "payable": false,
      "stateMutability": "view",
      "type": "function"
    },
    {
      "constant": true,
      "inputs": [],
      "name": "EIP712_TOKEN_TRANSFER_ORDER_SCHEMA_HASH",
      "outputs": [
        {
          "internalType": "bytes32",
          "name": "",
          "type": "bytes32"
        }
      ],
      "payable": false,
      "stateMutability": "view",
      "type": "function"
    },
    {
      "constant": false,
      "inputs": [
        {
          "internalType": "address",
          "name": "account",
          "type": "address"
        }
      ],
      "name": "addMinter",
      "outputs": [],
      "payable": false,
      "stateMutability": "nonpayable",
      "type": "function"
    },
    {
      "constant": false,
      "inputs": [
        {
          "internalType": "address",
          "name": "to",
          "type": "address"
        },
        {
          "internalType": "uint256",
          "name": "tokenId",
          "type": "uint256"
        }
      ],
      "name": "approve",
      "outputs": [],
      "payable": false,
      "stateMutability": "nonpayable",
      "type": "function"
    },
    {
      "constant": true,
      "inputs": [
        {
          "internalType": "address",
          "name": "owner",
          "type": "address"
        }
      ],
      "name": "balanceOf",
      "outputs": [
        {
          "internalType": "uint256",
          "name": "",
          "type": "uint256"
        }
      ],
      "payable": false,
      "stateMutability": "view",
      "type": "function"
    },
    {
      "constant": false,
      "inputs": [
        {
          "internalType": "address",
          "name": "newAddress",
          "type": "address"
        }
      ],
      "name": "changeChildChain",
      "outputs": [],
      "payable": false,
      "stateMutability": "nonpayable",
      "type": "function"
    },
    {
      "constant": false,
      "inputs": [
        {
          "internalType": "address",
          "name": "newAddress",
          "type": "address"
        }
      ],
      "name": "changeStateSyncerAddress",
      "outputs": [],
      "payable": false,
      "stateMutability": "nonpayable",
      "type": "function"
    },
    {
      "constant": true,
      "inputs": [],
      "name": "childChain",
      "outputs": [
        {
          "internalType": "address",
          "name": "",
          "type": "address"
        }
      ],
      "payable": false,
      "stateMutability": "view",
      "type": "function"
    },
    {
      "constant": false,
      "inputs": [
        {
          "internalType": "address",
          "name": "user",
          "type": "address"
        },
        {
          "internalType": "uint256",
          "name": "tokenId",
          "type": "uint256"
        }
      ],
      "name": "deposit",
      "outputs": [],
      "payable": false,
      "stateMutability": "nonpayable",
      "type": "function"
    },
    {
      "constant": true,
      "inputs": [
        {
          "internalType": "bytes32",
          "name": "",
          "type": "bytes32"
        }
      ],
      "name": "disabledHashes",
      "outputs": [
        {
          "internalType": "bool",
          "name": "",
          "type": "bool"
        }
      ],
      "payable": false,
      "stateMutability": "view",
      "type": "function"
    },
    {
      "constant": true,
      "inputs": [
        {
          "internalType": "bytes32",
          "name": "hash",
          "type": "bytes32"
        },
        {
          "internalType": "bytes",
          "name": "sig",
          "type": "bytes"
        }
      ],
      "name": "ecrecovery",
      "outputs": [
        {
          "internalType": "address",
          "name": "result",
          "type": "address"
        }
      ],
      "payable": false,
      "stateMutability": "pure",
      "type": "function"
    },
    {
      "constant": true,
      "inputs": [
        {
          "internalType": "uint256",
          "name": "tokenId",
          "type": "uint256"
        }
      ],
      "name": "getApproved",
      "outputs": [
        {
          "internalType": "address",
          "name": "operator",
          "type": "address"
        }
      ],
      "payable": false,
      "stateMutability": "view",
      "type": "function"
    },
    {
      "constant": true,
      "inputs": [
        {
          "internalType": "address",
          "name": "spender",
          "type": "address"
        },
        {
          "internalType": "uint256",
          "name": "tokenIdOrAmount",
          "type": "uint256"
        },
        {
          "internalType": "bytes32",
          "name": "data",
          "type": "bytes32"
        },
        {
          "internalType": "uint256",
          "name": "expiration",
          "type": "uint256"
        }
      ],
      "name": "getTokenTransferOrderHash",
      "outputs": [
        {
          "internalType": "bytes32",
          "name": "orderHash",
          "type": "bytes32"
        }
      ],
      "payable": false,
      "stateMutability": "view",
      "type": "function"
    },
    {
      "constant": true,
      "inputs": [
        {
          "internalType": "address",
          "name": "owner",
          "type": "address"
        },
        {
          "internalType": "address",
          "name": "operator",
          "type": "address"
        }
      ],
      "name": "isApprovedForAll",
      "outputs": [
        {
          "internalType": "bool",
          "name": "",
          "type": "bool"
        }
      ],
      "payable": false,
      "stateMutability": "view",
      "type": "function"
    },
    {
      "constant": true,
      "inputs": [
        {
          "internalType": "address",
          "name": "account",
          "type": "address"
        }
      ],
      "name": "isMinter",
      "outputs": [
        {
          "internalType": "bool",
          "name": "",
          "type": "bool"
        }
      ],
      "payable": false,
      "stateMutability": "view",
      "type": "function"
    },
    {
      "constant": true,
      "inputs": [],
      "name": "isOnlyStateSyncerContract",
      "outputs": [
        {
          "internalType": "bool",
          "name": "",
          "type": "bool"
        }
      ],
      "payable": false,
      "stateMutability": "view",
      "type": "function"
    },
    {
      "constant": true,
      "inputs": [],
      "name": "isOwner",
      "outputs": [
        {
          "internalType": "bool",
          "name": "",
          "type": "bool"
        }
      ],
      "payable": false,
      "stateMutability": "view",
      "type": "function"
    },
    {
      "constant": false,
      "inputs": [
        {
          "internalType": "address",
          "name": "to",
          "type": "address"
        },
        {
          "internalType": "uint256",
          "name": "tokenId",
          "type": "uint256"
        }
      ],
      "name": "mint",
      "outputs": [
        {
          "internalType": "bool",
          "name": "",
          "type": "bool"
        }
      ],
      "payable": false,
      "stateMutability": "nonpayable",
      "type": "function"
    },
    {
      "constant": false,
      "inputs": [
        {
          "internalType": "address",
          "name": "to",
          "type": "address"
        },
        {
          "internalType": "uint256",
          "name": "tokenId",
          "type": "uint256"
        },
        {
          "internalType": "string",
          "name": "tokenURI",
          "type": "string"
        }
      ],
      "name": "mintWithTokenURI",
      "outputs": [
        {
          "internalType": "bool",
          "name": "",
          "type": "bool"
        }
      ],
      "payable": false,
      "stateMutability": "nonpayable",
      "type": "function"
    },
    {
      "constant": true,
      "inputs": [],
      "name": "name",
      "outputs": [
        {
          "internalType": "string",
          "name": "",
          "type": "string"
        }
      ],
      "payable": false,
      "stateMutability": "view",
      "type": "function"
    },
    {
      "constant": true,
      "inputs": [],
      "name": "networkId",
      "outputs": [
        {
          "internalType": "bytes",
          "name": "",
          "type": "bytes"
        }
      ],
      "payable": false,
      "stateMutability": "view",
      "type": "function"
    },
    {
      "constant": false,
      "inputs": [
        {
          "internalType": "uint256",
          "name": "",
          "type": "uint256"
        },
        {
          "internalType": "bytes",
          "name": "data",
          "type": "bytes"
        }
      ],
      "name": "onStateReceive",
      "outputs": [],
      "payable": false,
      "stateMutability": "nonpayable",
      "type": "function"
    },
    {
      "constant": true,
      "inputs": [],
      "name": "owner",
      "outputs": [
        {
          "internalType": "address",
          "name": "",
          "type": "address"
        }
      ],
      "payable": false,
      "stateMutability": "view",
      "type": "function"
    },
    {
      "constant": true,
      "inputs": [
        {
          "internalType": "uint256",
          "name": "tokenId",
          "type": "uint256"
        }
      ],
      "name": "ownerOf",
      "outputs": [
        {
          "internalType": "address",
          "name": "",
          "type": "address"
        }
      ],
      "payable": false,
      "stateMutability": "view",
      "type": "function"
    },
    {
      "constant": true,
      "inputs": [],
      "name": "parent",
      "outputs": [
        {
          "internalType": "address",
          "name": "",
          "type": "address"
        }
      ],
      "payable": false,
      "stateMutability": "view",
      "type": "function"
    },
    {
      "constant": false,
      "inputs": [],
      "name": "renounceMinter",
      "outputs": [],
      "payable": false,
      "stateMutability": "nonpayable",
      "type": "function"
    },
    {
      "constant": false,
      "inputs": [],
      "name": "renounceOwnership",
      "outputs": [],
      "payable": false,
      "stateMutability": "nonpayable",
      "type": "function"
    },
    {
      "constant": false,
      "inputs": [
        {
          "internalType": "address",
          "name": "from",
          "type": "address"
        },
        {
          "internalType": "address",
          "name": "to",
          "type": "address"
        },
        {
          "internalType": "uint256",
          "name": "tokenId",
          "type": "uint256"
        }
      ],
      "name": "safeTransferFrom",
      "outputs": [],
      "payable": false,
      "stateMutability": "nonpayable",
      "type": "function"
    },
    {
      "constant": false,
      "inputs": [
        {
          "internalType": "address",
          "name": "from",
          "type": "address"
        },
        {
          "internalType": "address",
          "name": "to",
          "type": "address"
        },
        {
          "internalType": "uint256",
          "name": "tokenId",
          "type": "uint256"
        },
        {
          "internalType": "bytes",
          "name": "_data",
          "type": "bytes"
        }
      ],
      "name": "safeTransferFrom",
      "outputs": [],
      "payable": false,
      "stateMutability": "nonpayable",
      "type": "function"
    },
    {
      "constant": false,
      "inputs": [
        {
          "internalType": "address",
          "name": "operator",
          "type": "address"
        },
        {
          "internalType": "bool",
          "name": "_approved",
          "type": "bool"
        }
      ],
      "name": "setApprovalForAll",
      "outputs": [],
      "payable": false,
      "stateMutability": "nonpayable",
      "type": "function"
    },
    {
      "constant": false,
      "inputs": [
        {
          "internalType": "address",
          "name": "newAddress",
          "type": "address"
        }
      ],
      "name": "setParent",
      "outputs": [],
      "payable": false,
      "stateMutability": "nonpayable",
      "type": "function"
    },
    {
      "constant": true,
      "inputs": [],
      "name": "stateSyncer",
      "outputs": [
        {
          "internalType": "address",
          "name": "",
          "type": "address"
        }
      ],
      "payable": false,
      "stateMutability": "view",
      "type": "function"
    },
    {
      "constant": true,
      "inputs": [
        {
          "internalType": "bytes4",
          "name": "interfaceId",
          "type": "bytes4"
        }
      ],
      "name": "supportsInterface",
      "outputs": [
        {
          "internalType": "bool",
          "name": "",
          "type": "bool"
        }
      ],
      "payable": false,
      "stateMutability": "view",
      "type": "function"
    },
    {
      "constant": true,
      "inputs": [],
      "name": "symbol",
      "outputs": [
        {
          "internalType": "string",
          "name": "",
          "type": "string"
        }
      ],
      "payable": false,
      "stateMutability": "view",
      "type": "function"
    },
    {
      "constant": true,
      "inputs": [],
      "name": "token",
      "outputs": [
        {
          "internalType": "address",
          "name": "",
          "type": "address"
        }
      ],
      "payable": false,
      "stateMutability": "view",
      "type": "function"
    },
    {
      "constant": true,
      "inputs": [
        {
          "internalType": "uint256",
          "name": "index",
          "type": "uint256"
        }
      ],
      "name": "tokenByIndex",
      "outputs": [
        {
          "internalType": "uint256",
          "name": "",
          "type": "uint256"
        }
      ],
      "payable": false,
      "stateMutability": "view",
      "type": "function"
    },
    {
      "constant": true,
      "inputs": [
        {
          "internalType": "address",
          "name": "owner",
          "type": "address"
        },
        {
          "internalType": "uint256",
          "name": "index",
          "type": "uint256"
        }
      ],
      "name": "tokenOfOwnerByIndex",
      "outputs": [
        {
          "internalType": "uint256",
          "name": "",
          "type": "uint256"
        }
      ],
      "payable": false,
      "stateMutability": "view",
      "type": "function"
    },
    {
      "constant": true,
      "inputs": [
        {
          "internalType": "uint256",
          "name": "tokenId",
          "type": "uint256"
        }
      ],
      "name": "tokenURI",
      "outputs": [
        {
          "internalType": "string",
          "name": "",
          "type": "string"
        }
      ],
      "payable": false,
      "stateMutability": "view",
      "type": "function"
    },
    {
      "constant": true,
      "inputs": [],
      "name": "totalSupply",
      "outputs": [
        {
          "internalType": "uint256",
          "name": "",
          "type": "uint256"
        }
      ],
      "payable": false,
      "stateMutability": "view",
      "type": "function"
    },
    {
      "constant": false,
      "inputs": [
        {
          "internalType": "address",
          "name": "from",
          "type": "address"
        },
        {
          "internalType": "address",
          "name": "to",
          "type": "address"
        },
        {
          "internalType": "uint256",
          "name": "tokenId",
          "type": "uint256"
        }
      ],
      "name": "transferFrom",
      "outputs": [],
      "payable": false,
      "stateMutability": "nonpayable",
      "type": "function"
    },
    {
      "constant": false,
      "inputs": [
        {
          "internalType": "address",
          "name": "newOwner",
          "type": "address"
        }
      ],
      "name": "transferOwnership",
      "outputs": [],
      "payable": false,
      "stateMutability": "nonpayable",
      "type": "function"
    },
    {
      "constant": false,
      "inputs": [
        {
          "internalType": "bytes",
          "name": "sig",
          "type": "bytes"
        },
        {
          "internalType": "uint256",
          "name": "tokenId",
          "type": "uint256"
        },
        {
          "internalType": "bytes32",
          "name": "data",
          "type": "bytes32"
        },
        {
          "internalType": "uint256",
          "name": "expiration",
          "type": "uint256"
        },
        {
          "internalType": "address",
          "name": "to",
          "type": "address"
        }
      ],
      "name": "transferWithSig",
      "outputs": [
        {
          "internalType": "address",
          "name": "",
          "type": "address"
        }
      ],
      "payable": false,
      "stateMutability": "nonpayable",
      "type": "function"
    },
    {
      "constant": false,
      "inputs": [
        {
          "internalType": "uint256",
          "name": "tokenId",
          "type": "uint256"
        }
      ],
      "name": "withdraw",
      "outputs": [],
      "payable": true,
      "stateMutability": "payable",
      "type": "function"
    }
  ],
  "bytecode": "0x60806040523480156200001157600080fd5b5060405162002fb738038062002fb7833981810160405260608110156200003757600080fd5b8151602083018051604051929492938301929190846401000000008211156200005f57600080fd5b9083019060208201858111156200007557600080fd5b82516401000000008111828201881017156200009057600080fd5b82525081516020918201929091019080838360005b83811015620000bf578181015183820152602001620000a5565b50505050905090810190601f168015620000ed5780820380516001836020036101000a031916815260200191505b50604052602001805160405193929190846401000000008211156200011157600080fd5b9083019060208201858111156200012757600080fd5b82516401000000008111828201881017156200014257600080fd5b82525081516020918201929091019080838360005b838110156200017157818101518382015260200162000157565b50505050905090810190601f1680156200019f5780820380516001836020036101000a031916815260200191505b506040819052600080546001600160a01b03191633908117808355909550889450879350869284928492849284926001600160a01b039290921691907f8be0079c531659141344cd1fd0a4f28419497f9722a3daafe3b4186f6b6457e0908290a360405180608001604052806052815260200162002f65605291396040516020018082805190602001908083835b602083106200024e5780518252601f1990920191602091820191016200022d565b51815160209384036101000a60001901801990921691161790526040805192909401828103601f190183528085528251928201929092208285018552600d83527f4d61746963204e6574776f726b00000000000000000000000000000000000000928201929092528351808501855260018082527f3100000000000000000000000000000000000000000000000000000000000000918301919091528451808301939093527fd26430275d0d30693378daeb558f6ed30c3a48ba5d665f52c16608e1c41b5cd7838601527fc89efdaa54c0f20c7adf612882df0950f5a951637e0307cdcb4c672f298b8bc660608401526202ea4260808401523060a0808501919091528551808503909101815260c09093019094528151910120909155506200039b91507f01ffc9a700000000000000000000000000000000000000000000000000000000905062000500565b620003cf7f80ac58cd000000000000000000000000000000000000000000000000000000006001600160e01b036200050016565b620004037f780e9d63000000000000000000000000000000000000000000000000000000006001600160e01b036200050016565b81516200041890600f9060208501906200064e565b5080516200042e9060109060208401906200064e565b50620004637f5b5e139f000000000000000000000000000000000000000000000000000000006001600160e01b036200050016565b5050601280546001600160a01b03191661100117908190556040516001600160a01b03919091169250600091507f98e6a46aa139a033b9c7f3ae4ad1c103ffdce3e7cf509326808ba8c4b5af11c0908290a36001600160a01b038316620004c957600080fd5b5050600280546001600160a01b0319166001600160a01b039290921691909117905550620004f7336200056d565b505050620006f3565b7fffffffff0000000000000000000000000000000000000000000000000000000080821614156200053057600080fd5b7fffffffff00000000000000000000000000000000000000000000000000000000166000908152600660205260409020805460ff19166001179055565b62000588816013620005bf60201b620021631790919060201c565b6040516001600160a01b038216907f6ae172837ea30b801fbfcdd4108aa1d5bf8ff775444fd70256b44e6bf3dfc3f690600090a250565b6001600160a01b038116620005d357600080fd5b620005e882826001600160e01b036200061816565b15620005f357600080fd5b6001600160a01b0316600090815260209190915260409020805460ff19166001179055565b60006001600160a01b0382166200062e57600080fd5b506001600160a01b03166000908152602091909152604090205460ff1690565b828054600181600116156101000203166002900490600052602060002090601f016020900481019282601f106200069157805160ff1916838001178555620006c1565b82800160010185558215620006c1579182015b82811115620006c1578251825591602001919060010190620006a4565b50620006cf929150620006d3565b5090565b620006f091905b80821115620006cf5760008155600101620006da565b90565b61286280620007036000396000f3fe6080604052600436106102725760003560e01c806377d32e941161014f578063b789543c116100c1578063e614d0d61161007a578063e614d0d614610bc9578063e985e9c514610bde578063ed9ef52414610c19578063f2fde38b14610c4c578063f4ef4d6914610c7f578063fc0c546a14610c9457610272565b8063b789543c14610a2c578063b88d4fde14610a71578063c87b56dd14610b42578063cc79f97b14610b6c578063df55500714610b81578063e306f77914610bb457610272565b8063983b2d5611610113578063983b2d5614610937578063986502751461096a578063a22cb4651461097f578063aa271e1a146109ba578063abceeba2146109ed578063acd06cb314610a0257610272565b806377d32e941461082b5780638da5cb5b146108e35780638f32d59b146108f85780639025e64c1461090d57806395d89b411461092257610272565b806340c10f19116101e857806350bb4e7f116101ac57806350bb4e7f146106c957806355651f711461078f57806360f96a8f146107a45780636352211e146107b957806370a08231146107e3578063715018a61461081657610272565b806340c10f19146105d557806342842e0e1461060e57806342fc47fb1461065157806347e7ef24146106665780634f6ccce71461069f57610272565b806318160ddd1161023a57806318160ddd146103fd57806319d27d9c1461042457806323b872dd146104ba57806326c53bea146104fd5780632e1a7d4d1461057f5780632f745c591461059c57610272565b806301ffc9a71461027757806306fdde03146102bf578063081812fc14610349578063095ea7b31461038f5780631499c592146103ca575b600080fd5b34801561028357600080fd5b506102ab6004803603602081101561029a57600080fd5b50356001600160e01b031916610ca9565b604080519115158252519081900360200190f35b3480156102cb57600080fd5b506102d4610cc8565b6040805160208082528351818301528351919283929083019185019080838360005b8381101561030e5781810151838201526020016102f6565b50505050905090810190601f16801561033b5780820380516001836020036101000a031916815260200191505b509250505060405180910390f35b34801561035557600080fd5b506103736004803603602081101561036c57600080fd5b5035610d5f565b604080516001600160a01b039092168252519081900360200190f35b34801561039b57600080fd5b506103c8600480360360408110156103b257600080fd5b506001600160a01b038135169060200135610da1565b005b3480156103d657600080fd5b506103c8600480360360208110156103ed57600080fd5b50356001600160a01b0316610de1565b34801561040957600080fd5b50610412610e93565b60408051918252519081900360200190f35b34801561043057600080fd5b50610373600480360360a081101561044757600080fd5b810190602081018135600160201b81111561046157600080fd5b82018360208201111561047357600080fd5b803590602001918460018302840111600160201b8311171561049457600080fd5b9193509150803590602081013590604081013590606001356001600160a01b0316610e99565b3480156104c657600080fd5b506103c8600480360360608110156104dd57600080fd5b506001600160a01b0381358116916020810135909116906040013561103d565b34801561050957600080fd5b506103c86004803603604081101561052057600080fd5b81359190810190604081016020820135600160201b81111561054157600080fd5b82018360208201111561055357600080fd5b803590602001918460018302840111600160201b8311171561057457600080fd5b5090925090506110f7565b6103c86004803603602081101561059557600080fd5b50356111b7565b3480156105a857600080fd5b50610412600480360360408110156105bf57600080fd5b506001600160a01b038135169060200135611224565b3480156105e157600080fd5b506102ab600480360360408110156105f857600080fd5b506001600160a01b038135169060200135611272565b34801561061a57600080fd5b506103c86004803603606081101561063157600080fd5b506001600160a01b03813581169160208101359091169060400135611299565b34801561065d57600080fd5b506103736112b4565b34801561067257600080fd5b506103c86004803603604081101561068957600080fd5b506001600160a01b0381351690602001356112c3565b3480156106ab57600080fd5b50610412600480360360208110156106c257600080fd5b5035611372565b3480156106d557600080fd5b506102ab600480360360608110156106ec57600080fd5b6001600160a01b0382351691602081013591810190606081016040820135600160201b81111561071b57600080fd5b82018360208201111561072d57600080fd5b803590602001918460018302840111600160201b8311171561074e57600080fd5b91908080601f0160208091040260200160405190810160405280939291908181526020018383808284376000920191909152509295506113a6945050505050565b34801561079b57600080fd5b506102ab6113d8565b3480156107b057600080fd5b506103736113e9565b3480156107c557600080fd5b50610373600480360360208110156107dc57600080fd5b50356113f8565b3480156107ef57600080fd5b506104126004803603602081101561080657600080fd5b50356001600160a01b031661141a565b34801561082257600080fd5b506103c8611450565b34801561083757600080fd5b506103736004803603604081101561084e57600080fd5b81359190810190604081016020820135600160201b81111561086f57600080fd5b82018360208201111561088157600080fd5b803590602001918460018302840111600160201b831117156108a257600080fd5b91908080601f0160208091040260200160405190810160405280939291908181526020018383808284376000920191909152509295506114ab945050505050565b3480156108ef57600080fd5b506103736115ce565b34801561090457600080fd5b506102ab6115dd565b34801561091957600080fd5b506102d46115ee565b34801561092e57600080fd5b506102d461160d565b34801561094357600080fd5b506103c86004803603602081101561095a57600080fd5b50356001600160a01b031661166e565b34801561097657600080fd5b506103c861168c565b34801561098b57600080fd5b506103c8600480360360408110156109a257600080fd5b506001600160a01b0381351690602001351515610da1565b3480156109c657600080fd5b506102ab600480360360208110156109dd57600080fd5b50356001600160a01b0316611697565b3480156109f957600080fd5b506104126116aa565b348015610a0e57600080fd5b506102ab60048036036020811015610a2557600080fd5b5035611733565b348015610a3857600080fd5b5061041260048036036080811015610a4f57600080fd5b506001600160a01b038135169060208101359060408101359060600135611748565b348015610a7d57600080fd5b506103c860048036036080811015610a9457600080fd5b6001600160a01b03823581169260208101359091169160408201359190810190608081016060820135600160201b811115610ace57600080fd5b820183602082011115610ae057600080fd5b803590602001918460018302840111600160201b83111715610b0157600080fd5b91908080601f016020809104026020016040519081016040528093929190818152602001838380828437600092019190915250929550611767945050505050565b348015610b4e57600080fd5b506102d460048036036020811015610b6557600080fd5b503561178d565b348015610b7857600080fd5b50610412611840565b348015610b8d57600080fd5b506103c860048036036020811015610ba457600080fd5b50356001600160a01b0316611847565b348015610bc057600080fd5b506104126118f9565b348015610bd557600080fd5b506104126118ff565b348015610bea57600080fd5b506102ab60048036036040811015610c0157600080fd5b506001600160a01b0381358116916020013516610d5f565b348015610c2557600080fd5b506103c860048036036020811015610c3c57600080fd5b50356001600160a01b0316611949565b348015610c5857600080fd5b506103c860048036036020811015610c6f57600080fd5b50356001600160a01b03166119fb565b348015610c8b57600080fd5b50610373611a15565b348015610ca057600080fd5b50610373611a24565b6001600160e01b03191660009081526006602052604090205460ff1690565b600f8054604080516020601f6002600019610100600188161502019095169490940493840181900481028201810190925282815260609390929091830182828015610d545780601f10610d2957610100808354040283529160200191610d54565b820191906000526020600020905b815481529060010190602001808311610d3757829003601f168201915b505050505090505b90565b6040805162461bcd60e51b815260206004820152601060248201526f44697361626c6564206665617475726560801b6044820152905160009181900360640190fd5b6040805162461bcd60e51b815260206004820152601060248201526f44697361626c6564206665617475726560801b604482015290519081900360640190fd5b610de96115dd565b610df257600080fd5b6001600160a01b038116610e375760405162461bcd60e51b815260040180806020018281038252603381526020018061267a6033913960400191505060405180910390fd5b6004546040516001600160a01b038084169216907fc9e4c719f349d4c91a37138eb5cf0ba2670c592a764f8c0b18c603ba9178cc1d90600090a3600480546001600160a01b0319166001600160a01b0392909216919091179055565b600d5490565b6000821580610ea85750824311155b610ef0576040805162461bcd60e51b815260206004820152601460248201527314da59db985d1d5c99481a5cc8195e1c1a5c995960621b604482015290519081900360640190fd5b6000610f07610f0133888888611a33565b30611aef565b60008181526005602052604090205490915060ff1615610f60576040805162461bcd60e51b815260206004820152600f60248201526e14da59c819195858dd1a5d985d1959608a1b604482015290519081900360640190fd5b6000818152600560209081526040808320805460ff191660011790558051601f8b01839004830281018301909152898152610fb8918491908c908c90819084018382808284376000920191909152506114ab92505050565b9050610fc5818589611c45565b610fe081858960405180602001604052806000815250611c9e565b611031576040805162461bcd60e51b815260206004820152601d60248201527f5f636865636b4f6e4552433732315265636569766564206661696c6564000000604482015290519081900360640190fd5b98975050505050505050565b6004546001600160a01b0316158015906110dd57506004805460408051631ffb811f60e01b815233938101939093526001600160a01b038581166024850152604484018590529051911691631ffb811f9160648083019260209291908290030181600087803b1580156110af57600080fd5b505af11580156110c3573d6000803e3d6000fd5b505050506040513d60208110156110d957600080fd5b5051155b156110e7576110f2565b6110f2838383611c45565b505050565b6110ff6113d8565b61113a5760405162461bcd60e51b81526004018080602001828103825260358152602001806126ff6035913960400191505060405180910390fd5b6000808383604081101561114d57600080fd5b506001600160a01b03813516925060200135905061116b8282611dd1565b6002546040805183815290516001600160a01b038086169316917f9b1bfa7fa9ee420a16e124f794c35ac9f90472acc99140eb2f6447c714cad8eb919081900360200190a35050505050565b336111c1826113f8565b6001600160a01b0316146111d457600080fd5b6111de3382611dd1565b60025460408051838152905133926001600160a01b0316917f9b1bfa7fa9ee420a16e124f794c35ac9f90472acc99140eb2f6447c714cad8eb919081900360200190a350565b600061122f8361141a565b821061123a57600080fd5b6001600160a01b0383166000908152600b6020526040902080548390811061125e57fe5b906000526020600020015490505b92915050565b600061127d33611697565b61128657600080fd5b6112908383611e1d565b50600192915050565b6110f283838360405180602001604052806000815250611767565b6003546001600160a01b031681565b6003546001600160a01b0316331461130c5760405162461bcd60e51b81526004018080602001828103825260338152602001806127c16033913960400191505060405180910390fd5b6001600160a01b03821661131f57600080fd5b6113298282611e1d565b6002546040805183815290516001600160a01b038086169316917f5548c837ab068cf56a2c2479df0882a4922fd203edb7517321831d95078c5f62919081900360200190a35050565b600061137c610e93565b821061138757600080fd5b600d828154811061139457fe5b90600052602060002001549050919050565b60006113b133611697565b6113ba57600080fd5b6113c48484611e1d565b6113ce8383611e3a565b5060019392505050565b6012546001600160a01b0316331490565b6004546001600160a01b031681565b6000818152600760205260408120546001600160a01b03168061126c57600080fd5b60006001600160a01b03821661142f57600080fd5b6001600160a01b038216600090815260096020526040902061126c90611e6b565b6114586115dd565b61146157600080fd5b600080546040516001600160a01b03909116907f8be0079c531659141344cd1fd0a4f28419497f9722a3daafe3b4186f6b6457e0908390a3600080546001600160a01b0319169055565b60008060008084516041146114c6576000935050505061126c565b50505060208201516040830151604184015160ff16601b8110156114e857601b015b8060ff16601b1415801561150057508060ff16601c14155b15611511576000935050505061126c565b6040805160008152602080820180845289905260ff8416828401526060820186905260808201859052915160019260a0808401939192601f1981019281900390910190855afa158015611568573d6000803e3d6000fd5b5050604051601f1901519450506001600160a01b0384166115c5576040805162461bcd60e51b815260206004820152601260248201527122b93937b91034b71032b1b932b1b7bb32b960711b604482015290519081900360640190fd5b50505092915050565b6000546001600160a01b031690565b6000546001600160a01b0316331490565b6040518060400160405280600381526020016201752160e91b81525081565b60108054604080516020601f6002600019610100600188161502019095169490940493840181900481028201810190925282815260609390929091830182828015610d545780601f10610d2957610100808354040283529160200191610d54565b61167733611697565b61168057600080fd5b61168981611e6f565b50565b61169533611eb7565b565b600061126c60138363ffffffff611eff16565b6040518060800160405280605b8152602001612766605b91396040516020018082805190602001908083835b602083106116f55780518252601f1990920191602091820191016116d6565b6001836020036101000a0380198251168184511680821785525050505050509050019150506040516020818303038152906040528051906020012081565b60056020526000908152604090205460ff1681565b600061175e61175986868686611a33565b611f34565b95945050505050565b61177284848461103d565b61177e84848484611c9e565b61178757600080fd5b50505050565b606061179882611f42565b6117a157600080fd5b60008281526011602090815260409182902080548351601f6002600019610100600186161502019093169290920491820184900484028101840190945280845290918301828280156118345780601f1061180957610100808354040283529160200191611834565b820191906000526020600020905b81548152906001019060200180831161181757829003601f168201915b50505050509050919050565b6202ea4281565b61184f6115dd565b61185857600080fd5b6001600160a01b03811661189d5760405162461bcd60e51b815260040180806020018281038252603a8152602001806127f4603a913960400191505060405180910390fd5b6012546040516001600160a01b038084169216907f98e6a46aa139a033b9c7f3ae4ad1c103ffdce3e7cf509326808ba8c4b5af11c090600090a3601280546001600160a01b0319166001600160a01b0392909216919091179055565b60015481565b6040518060800160405280605281526020016126ad60529139604051602001808280519060200190808383602083106116f55780518252601f1990920191602091820191016116d6565b6119516115dd565b61195a57600080fd5b6001600160a01b03811661199f5760405162461bcd60e51b81526004018080602001828103825260328152602001806127346032913960400191505060405180910390fd5b6003546040516001600160a01b038084169216907f1f9f3556dd336016cdf20adaead7d5c73665dba664b60e8c17e9a4eb91ce1d3990600090a3600380546001600160a01b0319166001600160a01b0392909216919091179055565b611a036115dd565b611a0c57600080fd5b61168981611f5f565b6012546001600160a01b031681565b6002546001600160a01b031681565b6000806040518060800160405280605b8152602001612766605b91396040516020018082805190602001908083835b60208310611a815780518252601f199092019160209182019101611a62565b51815160209384036101000a60001901801990921691161790526040805192909401828103601f1901835280855282519282019290922082526001600160a01b038c169082015291820189905250606081018790526080810186905260a0902093505050505b949350505050565b6000806040518060800160405280605281526020016126ad605291396040516020018082805190602001908083835b60208310611b3d5780518252601f199092019160209182019101611b1e565b51815160209384036101000a60001901801990921691161790526040805192909401828103601f190183528085528251928201929092208285018552600d83526c4d61746963204e6574776f726b60981b928201929092528351808501855260018152603160f81b908201528351808201929092527fd26430275d0d30693378daeb558f6ed30c3a48ba5d665f52c16608e1c41b5cd7828501527fc89efdaa54c0f20c7adf612882df0950f5a951637e0307cdcb4c672f298b8bc660608301526202ea4260808301526001600160a01b03891660a0808401919091528451808403909101815260c090920190935280519201919091209350611ae79250869150839050611fcd565b611c50838383611fef565b6002546040805183815290516001600160a01b0380861693878216939116917f6eabe333476233fd382224f233210cb808a7bc4c4de64f9d76628bf63c677b1a9181900360200190a4505050565b6000611cb2846001600160a01b031661200e565b611cbe57506001611ae7565b604051630a85bd0160e11b815233600482018181526001600160a01b03888116602485015260448401879052608060648501908152865160848601528651600095928a169463150b7a029490938c938b938b939260a4019060208501908083838e5b83811015611d38578181015183820152602001611d20565b50505050905090810190601f168015611d655780820380516001836020036101000a031916815260200191505b5095505050505050602060405180830381600087803b158015611d8757600080fd5b505af1158015611d9b573d6000803e3d6000fd5b505050506040513d6020811015611db157600080fd5b50516001600160e01b031916630a85bd0160e11b14915050949350505050565b611ddb8282612014565b6000818152601160205260409020546002600019610100600184161502019091160415611e19576000818152601160205260408120611e199161257d565b5050565b611e278282612040565b611e3182826120e1565b611e198161211f565b611e4382611f42565b611e4c57600080fd5b600082815260116020908152604090912082516110f2928401906125c1565b5490565b611e8060138263ffffffff61216316565b6040516001600160a01b038216907f6ae172837ea30b801fbfcdd4108aa1d5bf8ff775444fd70256b44e6bf3dfc3f690600090a250565b611ec860138263ffffffff6121af16565b6040516001600160a01b038216907fe94479a9f7e1952cc78f2d6baab678adc1b772d936c6583def489e524cb6669290600090a250565b60006001600160a01b038216611f1457600080fd5b506001600160a01b03166000908152602091909152604090205460ff1690565b600061126c82600154611fcd565b6000908152600760205260409020546001600160a01b0316151590565b6001600160a01b038116611f7257600080fd5b600080546040516001600160a01b03808516939216917f8be0079c531659141344cd1fd0a4f28419497f9722a3daafe3b4186f6b6457e091a3600080546001600160a01b0319166001600160a01b0392909216919091179055565b60405161190160f01b8152600281019190915260228101919091526042902090565b611ffa8383836121f7565b61200483826122d7565b6110f282826120e1565b3b151590565b61201e82826123cc565b61202882826122d7565b6000818152600c6020526040812055611e1981612471565b6001600160a01b03821661205357600080fd5b61205c81611f42565b1561206657600080fd5b600081815260076020908152604080832080546001600160a01b0319166001600160a01b0387169081179091558352600990915290206120a59061250d565b60405181906001600160a01b038416906000907fddf252ad1be2c89b69c2b068fc378daa952ba7f163c4a11628f55a4df523b3ef908290a45050565b6001600160a01b039091166000908152600b602081815260408084208054868652600c84529185208290559282526001810183559183529091200155565b600d80546000838152600e60205260408120829055600182018355919091527fd7b6990105719101dabeb77144f2a3385c8033acd3af97e9423a695e81ad1eb50155565b6001600160a01b03811661217657600080fd5b6121808282611eff565b1561218a57600080fd5b6001600160a01b0316600090815260209190915260409020805460ff19166001179055565b6001600160a01b0381166121c257600080fd5b6121cc8282611eff565b6121d557600080fd5b6001600160a01b0316600090815260209190915260409020805460ff19169055565b826001600160a01b031661220a826113f8565b6001600160a01b03161461221d57600080fd5b6001600160a01b03821661223057600080fd5b61223981612516565b6001600160a01b038316600090815260096020526040902061225a90612551565b6001600160a01b038216600090815260096020526040902061227b9061250d565b60008181526007602052604080822080546001600160a01b0319166001600160a01b0386811691821790925591518493918716917fddf252ad1be2c89b69c2b068fc378daa952ba7f163c4a11628f55a4df523b3ef91a4505050565b6001600160a01b0382166000908152600b602052604081205461230190600163ffffffff61256816565b6000838152600c602052604090205490915080821461239c576001600160a01b0384166000908152600b6020526040812080548490811061233e57fe5b9060005260206000200154905080600b6000876001600160a01b03166001600160a01b03168152602001908152602001600020838154811061237c57fe5b6000918252602080832090910192909255918252600c9052604090208190555b6001600160a01b0384166000908152600b602052604090208054906123c590600019830161263f565b5050505050565b816001600160a01b03166123df826113f8565b6001600160a01b0316146123f257600080fd5b6123fb81612516565b6001600160a01b038216600090815260096020526040902061241c90612551565b60008181526007602052604080822080546001600160a01b0319169055518291906001600160a01b038516907fddf252ad1be2c89b69c2b068fc378daa952ba7f163c4a11628f55a4df523b3ef908390a45050565b600d5460009061248890600163ffffffff61256816565b6000838152600e6020526040812054600d80549394509092849081106124aa57fe5b9060005260206000200154905080600d83815481106124c557fe5b6000918252602080832090910192909255828152600e90915260409020829055600d8054906124f890600019830161263f565b505050600091825250600e6020526040812055565b80546001019055565b6000818152600860205260409020546001600160a01b03161561168957600090815260086020526040902080546001600160a01b0319169055565b805461256490600163ffffffff61256816565b9055565b60008282111561257757600080fd5b50900390565b50805460018160011615610100020316600290046000825580601f106125a35750611689565b601f016020900490600052602060002090810190611689919061265f565b828054600181600116156101000203166002900490600052602060002090601f016020900481019282601f1061260257805160ff191683800117855561262f565b8280016001018555821561262f579182015b8281111561262f578251825591602001919060010190612614565b5061263b92915061265f565b5090565b8154818355818111156110f2576000838152602090206110f29181019083015b610d5c91905b8082111561263b576000815560010161266556fe4368696c6420746f6b656e3a206e657720706172656e74206164647265737320697320746865207a65726f2061646472657373454950373132446f6d61696e28737472696e67206e616d652c737472696e672076657273696f6e2c75696e7432353620636861696e49642c6164647265737320766572696679696e67436f6e74726163742953746174652073796e6365723a2063616c6c6572206973206e6f74207468652073746174652073796e63657220636f6e74726163744368696c6420746f6b656e3a206e6577206368696c64206164647265737320697320746865207a65726f2061646472657373546f6b656e5472616e736665724f726465722861646472657373207370656e6465722c75696e7432353620746f6b656e49644f72416d6f756e742c6279746573333220646174612c75696e743235362065787069726174696f6e294368696c6420746f6b656e3a2063616c6c6572206973206e6f7420746865206368696c6420636861696e20636f6e747261637453746174652073796e6365723a206e65772073746174652073796e636572206164647265737320697320746865207a65726f2061646472657373a265627a7a72315820edef7c70b0218594e5c58cba3f3e6843c5b11c09fc5e2f7e325e31c97bf4612064736f6c63430005110032454950373132446f6d61696e28737472696e67206e616d652c737472696e672076657273696f6e2c75696e7432353620636861696e49642c6164647265737320766572696679696e67436f6e747261637429",
  "source": "pragma solidity ^0.5.2;\n\nimport \"openzeppelin-solidity/contracts/token/ERC721/ERC721Mintable.sol\";\nimport \"openzeppelin-solidity/contracts/token/ERC721/ERC721MetadataMintable.sol\";\n\nimport {ChildERC721} from \"./ChildERC721.sol\";\n\ncontract ChildERC721Mintable is\n    ChildERC721,\n    ERC721Mintable,\n    ERC721MetadataMintable\n{\n    constructor(address rootToken, string memory name, string memory symbol)\n        public\n        ChildERC721(\n            msg.sender, /* _owner */\n            rootToken,\n            name,\n            symbol\n        )\n    {}\n}\n",
  "sourcePath": "/Users/ohm.jirapon/playground/blockhain/pos/plasma-ploygon/contracts/contracts/child/ChildERC721Mintable.sol",
  "compiler": {
    "name": "solc",
    "version": "0.5.17+commit.d19bba13.Linux.g++"
  },
  "schemaVersion": "3.4.7",
  "updatedAt": "2022-07-08T08:23:53.358Z",
  "devdoc": {
    "methods": {
      "balanceOf(address)": {
        "details": "Gets the balance of the specified address",
        "params": {
          "owner": "address to query the balance of"
        },
        "return": "uint256 representing the amount owned by the passed address"
      },
      "deposit(address,uint256)": {
        "params": {
          "tokenId": "tokenId to mint to user's account",
          "user": "address for deposit"
        }
      },
      "isOnlyStateSyncerContract()": {
        "details": "Returns true if the caller is the state syncer contract TODO: replace onlyOwner ownership with 0x1000 for validator majority"
      },
      "isOwner()": {
        "return": "true if `msg.sender` is the owner of the contract."
      },
      "mint(address,uint256)": {
        "details": "Function to mint tokens",
        "params": {
          "to": "The address that will receive the minted tokens.",
          "tokenId": "The token id to mint."
        },
        "return": "A boolean that indicates if the operation was successful."
      },
      "mintWithTokenURI(address,uint256,string)": {
        "details": "Function to mint tokens",
        "params": {
          "to": "The address that will receive the minted tokens.",
          "tokenId": "The token id to mint.",
          "tokenURI": "The token URI of the minted token."
        },
        "return": "A boolean that indicates if the operation was successful."
      },
      "name()": {
        "details": "Gets the token name",
        "return": "string representing the token name"
      },
      "owner()": {
        "return": "the address of the owner."
      },
      "ownerOf(uint256)": {
        "details": "Gets the owner of the specified token ID",
        "params": {
          "tokenId": "uint256 ID of the token to query the owner of"
        },
        "return": "address currently marked as the owner of the given token ID"
      },
      "renounceOwnership()": {
        "details": "Allows the current owner to relinquish control of the contract. It will not be possible to call the functions with the `onlyOwner` modifier anymore."
      },
      "safeTransferFrom(address,address,uint256)": {
        "details": "Safely transfers the ownership of a given token ID to another address If the target address is a contract, it must implement `onERC721Received`, which is called upon a safe transfer, and return the magic value `bytes4(keccak256(\"onERC721Received(address,address,uint256,bytes)\"))`; otherwise, the transfer is reverted. Requires the msg.sender to be the owner, approved, or operator",
        "params": {
          "from": "current owner of the token",
          "to": "address to receive the ownership of the given token ID",
          "tokenId": "uint256 ID of the token to be transferred"
        }
      },
      "safeTransferFrom(address,address,uint256,bytes)": {
        "details": "Safely transfers the ownership of a given token ID to another address If the target address is a contract, it must implement `onERC721Received`, which is called upon a safe transfer, and return the magic value `bytes4(keccak256(\"onERC721Received(address,address,uint256,bytes)\"))`; otherwise, the transfer is reverted. Requires the msg.sender to be the owner, approved, or operator",
        "params": {
          "_data": "bytes data to send along with a safe transfer check",
          "from": "current owner of the token",
          "to": "address to receive the ownership of the given token ID",
          "tokenId": "uint256 ID of the token to be transferred"
        }
      },
      "supportsInterface(bytes4)": {
        "details": "implement supportsInterface(bytes4) using a lookup table"
      },
      "symbol()": {
        "details": "Gets the token symbol",
        "return": "string representing the token symbol"
      },
      "tokenByIndex(uint256)": {
        "details": "Gets the token ID at a given index of all the tokens in this contract Reverts if the index is greater or equal to the total number of tokens",
        "params": {
          "index": "uint256 representing the index to be accessed of the tokens list"
        },
        "return": "uint256 token ID at the given index of the tokens list"
      },
      "tokenOfOwnerByIndex(address,uint256)": {
        "details": "Gets the token ID at a given index of the tokens list of the requested owner",
        "params": {
          "index": "uint256 representing the index to be accessed of the requested tokens list",
          "owner": "address owning the tokens list to be accessed"
        },
        "return": "uint256 token ID at the given index of the tokens list owned by the requested address"
      },
      "tokenURI(uint256)": {
        "details": "Returns an URI for a given token ID Throws if the token ID does not exist. May return an empty string.",
        "params": {
          "tokenId": "uint256 ID of the token to query"
        }
      },
      "totalSupply()": {
        "details": "Gets the total amount of tokens stored by the contract",
        "return": "uint256 representing the total amount of tokens"
      },
      "transferFrom(address,address,uint256)": {
        "details": "Overriding the inherited method so that it emits LogTransfer"
      },
      "transferOwnership(address)": {
        "details": "Allows the current owner to transfer control of the contract to a newOwner.",
        "params": {
          "newOwner": "The address to transfer ownership to."
        }
      },
      "withdraw(uint256)": {
        "params": {
          "tokenId": "tokenId of the token to be withdrawn"
        }
      }
    }
  },
  "userdoc": {
    "methods": {
      "deposit(address,uint256)": {
        "notice": "Deposit tokens"
      },
      "renounceOwnership()": {
        "notice": "Renouncing ownership will leave the contract without an owner, thereby removing any functionality that is only available to the owner."
      },
      "withdraw(uint256)": {
        "notice": "Withdraw tokens"
      }
    }
  }
}