{
  "contractName": "ChildERC20",
  "abi": [
    {
      "inputs": [
        {
          "internalType": "address",
          "name": "",
          "type": "address"
        },
        {
          "internalType": "address",
          "name": "_token",
          "type": "address"
        },
        {
          "internalType": "string",
          "name": "_name",
          "type": "string"
        },
        {
          "internalType": "string",
          "name": "_symbol",
          "type": "string"
        },
        {
          "internalType": "uint8",
          "name": "_decimals",
          "type": "uint8"
        }
      ],
      "payable": false,
      "stateMutability": "nonpayable",
      "type": "constructor"
    },
    {
      "anonymous": false,
      "inputs": [
        {
          "indexed": true,
          "internalType": "address",
          "name": "owner",
          "type": "address"
        },
        {
          "indexed": true,
          "internalType": "address",
          "name": "spender",
          "type": "address"
        },
        {
          "indexed": false,
          "internalType": "uint256",
          "name": "value",
          "type": "uint256"
        }
      ],
      "name": "Approval",
      "type": "event"
    },
    {
      "anonymous": false,
      "inputs": [
        {
          "indexed": true,
          "internalType": "address",
          "name": "previousAddress",
          "type": "address"
        },
        {
          "indexed": true,
          "internalType": "address",
          "name": "newAddress",
          "type": "address"
        }
      ],
      "name": "ChildChainChanged",
      "type": "event"
    },
    {
      "anonymous": false,
      "inputs": [
        {
          "indexed": true,
          "internalType": "address",
          "name": "token",
          "type": "address"
        },
        {
          "indexed": true,
          "internalType": "address",
          "name": "from",
          "type": "address"
        },
        {
          "indexed": false,
          "internalType": "uint256",
          "name": "amount",
          "type": "uint256"
        },
        {
          "indexed": false,
          "internalType": "uint256",
          "name": "input1",
          "type": "uint256"
        },
        {
          "indexed": false,
          "internalType": "uint256",
          "name": "output1",
          "type": "uint256"
        }
      ],
      "name": "Deposit",
      "type": "event"
    },
    {
      "anonymous": false,
      "inputs": [
        {
          "indexed": true,
          "internalType": "address",
          "name": "token",
          "type": "address"
        },
        {
          "indexed": true,
          "internalType": "address",
          "name": "from",
          "type": "address"
        },
        {
          "indexed": true,
          "internalType": "address",
          "name": "to",
          "type": "address"
        },
        {
          "indexed": false,
          "internalType": "uint256",
          "name": "amount",
          "type": "uint256"
        },
        {
          "indexed": false,
          "internalType": "uint256",
          "name": "input1",
          "type": "uint256"
        },
        {
          "indexed": false,
          "internalType": "uint256",
          "name": "input2",
          "type": "uint256"
        },
        {
          "indexed": false,
          "internalType": "uint256",
          "name": "output1",
          "type": "uint256"
        },
        {
          "indexed": false,
          "internalType": "uint256",
          "name": "output2",
          "type": "uint256"
        }
      ],
      "name": "LogFeeTransfer",
      "type": "event"
    },
    {
      "anonymous": false,
      "inputs": [
        {
          "indexed": true,
          "internalType": "address",
          "name": "token",
          "type": "address"
        },
        {
          "indexed": true,
          "internalType": "address",
          "name": "from",
          "type": "address"
        },
        {
          "indexed": true,
          "internalType": "address",
          "name": "to",
          "type": "address"
        },
        {
          "indexed": false,
          "internalType": "uint256",
          "name": "amount",
          "type": "uint256"
        },
        {
          "indexed": false,
          "internalType": "uint256",
          "name": "input1",
          "type": "uint256"
        },
        {
          "indexed": false,
          "internalType": "uint256",
          "name": "input2",
          "type": "uint256"
        },
        {
          "indexed": false,
          "internalType": "uint256",
          "name": "output1",
          "type": "uint256"
        },
        {
          "indexed": false,
          "internalType": "uint256",
          "name": "output2",
          "type": "uint256"
        }
      ],
      "name": "LogTransfer",
      "type": "event"
    },
    {
      "anonymous": false,
      "inputs": [
        {
          "indexed": true,
          "internalType": "address",
          "name": "previousOwner",
          "type": "address"
        },
        {
          "indexed": true,
          "internalType": "address",
          "name": "newOwner",
          "type": "address"
        }
      ],
      "name": "OwnershipTransferred",
      "type": "event"
    },
    {
      "anonymous": false,
      "inputs": [
        {
          "indexed": true,
          "internalType": "address",
          "name": "previousAddress",
          "type": "address"
        },
        {
          "indexed": true,
          "internalType": "address",
          "name": "newAddress",
          "type": "address"
        }
      ],
      "name": "ParentChanged",
      "type": "event"
    },
    {
      "anonymous": false,
      "inputs": [
        {
          "indexed": true,
          "internalType": "address",
          "name": "previousAddress",
          "type": "address"
        },
        {
          "indexed": true,
          "internalType": "address",
          "name": "newAddress",
          "type": "address"
        }
      ],
      "name": "StateSyncerAddressChanged",
      "type": "event"
    },
    {
      "anonymous": false,
      "inputs": [
        {
          "indexed": true,
          "internalType": "address",
          "name": "from",
          "type": "address"
        },
        {
          "indexed": true,
          "internalType": "address",
          "name": "to",
          "type": "address"
        },
        {
          "indexed": false,
          "internalType": "uint256",
          "name": "value",
          "type": "uint256"
        }
      ],
      "name": "Transfer",
      "type": "event"
    },
    {
      "anonymous": false,
      "inputs": [
        {
          "indexed": true,
          "internalType": "address",
          "name": "token",
          "type": "address"
        },
        {
          "indexed": true,
          "internalType": "address",
          "name": "from",
          "type": "address"
        },
        {
          "indexed": false,
          "internalType": "uint256",
          "name": "amount",
          "type": "uint256"
        },
        {
          "indexed": false,
          "internalType": "uint256",
          "name": "input1",
          "type": "uint256"
        },
        {
          "indexed": false,
          "internalType": "uint256",
          "name": "output1",
          "type": "uint256"
        }
      ],
      "name": "Withdraw",
      "type": "event"
    },
    {
      "constant": true,
      "inputs": [],
      "name": "CHAINID",
      "outputs": [
        {
          "internalType": "uint256",
          "name": "",
          "type": "uint256"
        }
      ],
      "payable": false,
      "stateMutability": "view",
      "type": "function"
    },
    {
      "constant": true,
      "inputs": [],
      "name": "EIP712_DOMAIN_HASH",
      "outputs": [
        {
          "internalType": "bytes32",
          "name": "",
          "type": "bytes32"
        }
      ],
      "payable": false,
      "stateMutability": "view",
      "type": "function"
    },
    {
      "constant": true,
      "inputs": [],
      "name": "EIP712_DOMAIN_SCHEMA_HASH",
      "outputs": [
        {
          "internalType": "bytes32",
          "name": "",
          "type": "bytes32"
        }
      ],
      "payable": false,
      "stateMutability": "view",
      "type": "function"
    },
    {
      "constant": true,
      "inputs": [],
      "name": "EIP712_TOKEN_TRANSFER_ORDER_SCHEMA_HASH",
      "outputs": [
        {
          "internalType": "bytes32",
          "name": "",
          "type": "bytes32"
        }
      ],
      "payable": false,
      "stateMutability": "view",
      "type": "function"
    },
    {
      "constant": true,
      "inputs": [
        {
          "internalType": "address",
          "name": "owner",
          "type": "address"
        }
      ],
      "name": "balanceOf",
      "outputs": [
        {
          "internalType": "uint256",
          "name": "",
          "type": "uint256"
        }
      ],
      "payable": false,
      "stateMutability": "view",
      "type": "function"
    },
    {
      "constant": false,
      "inputs": [
        {
          "internalType": "address",
          "name": "newAddress",
          "type": "address"
        }
      ],
      "name": "changeChildChain",
      "outputs": [],
      "payable": false,
      "stateMutability": "nonpayable",
      "type": "function"
    },
    {
      "constant": false,
      "inputs": [
        {
          "internalType": "address",
          "name": "newAddress",
          "type": "address"
        }
      ],
      "name": "changeStateSyncerAddress",
      "outputs": [],
      "payable": false,
      "stateMutability": "nonpayable",
      "type": "function"
    },
    {
      "constant": true,
      "inputs": [],
      "name": "childChain",
      "outputs": [
        {
          "internalType": "address",
          "name": "",
          "type": "address"
        }
      ],
      "payable": false,
      "stateMutability": "view",
      "type": "function"
    },
    {
      "constant": true,
      "inputs": [],
      "name": "decimals",
      "outputs": [
        {
          "internalType": "uint8",
          "name": "",
          "type": "uint8"
        }
      ],
      "payable": false,
      "stateMutability": "view",
      "type": "function"
    },
    {
      "constant": false,
      "inputs": [
        {
          "internalType": "address",
          "name": "spender",
          "type": "address"
        },
        {
          "internalType": "uint256",
          "name": "subtractedValue",
          "type": "uint256"
        }
      ],
      "name": "decreaseAllowance",
      "outputs": [
        {
          "internalType": "bool",
          "name": "",
          "type": "bool"
        }
      ],
      "payable": false,
      "stateMutability": "nonpayable",
      "type": "function"
    },
    {
      "constant": true,
      "inputs": [
        {
          "internalType": "bytes32",
          "name": "",
          "type": "bytes32"
        }
      ],
      "name": "disabledHashes",
      "outputs": [
        {
          "internalType": "bool",
          "name": "",
          "type": "bool"
        }
      ],
      "payable": false,
      "stateMutability": "view",
      "type": "function"
    },
    {
      "constant": true,
      "inputs": [
        {
          "internalType": "bytes32",
          "name": "hash",
          "type": "bytes32"
        },
        {
          "internalType": "bytes",
          "name": "sig",
          "type": "bytes"
        }
      ],
      "name": "ecrecovery",
      "outputs": [
        {
          "internalType": "address",
          "name": "result",
          "type": "address"
        }
      ],
      "payable": false,
      "stateMutability": "pure",
      "type": "function"
    },
    {
      "constant": true,
      "inputs": [
        {
          "internalType": "address",
          "name": "spender",
          "type": "address"
        },
        {
          "internalType": "uint256",
          "name": "tokenIdOrAmount",
          "type": "uint256"
        },
        {
          "internalType": "bytes32",
          "name": "data",
          "type": "bytes32"
        },
        {
          "internalType": "uint256",
          "name": "expiration",
          "type": "uint256"
        }
      ],
      "name": "getTokenTransferOrderHash",
      "outputs": [
        {
          "internalType": "bytes32",
          "name": "orderHash",
          "type": "bytes32"
        }
      ],
      "payable": false,
      "stateMutability": "view",
      "type": "function"
    },
    {
      "constant": false,
      "inputs": [
        {
          "internalType": "address",
          "name": "spender",
          "type": "address"
        },
        {
          "internalType": "uint256",
          "name": "addedValue",
          "type": "uint256"
        }
      ],
      "name": "increaseAllowance",
      "outputs": [
        {
          "internalType": "bool",
          "name": "",
          "type": "bool"
        }
      ],
      "payable": false,
      "stateMutability": "nonpayable",
      "type": "function"
    },
    {
      "constant": true,
      "inputs": [],
      "name": "isOnlyStateSyncerContract",
      "outputs": [
        {
          "internalType": "bool",
          "name": "",
          "type": "bool"
        }
      ],
      "payable": false,
      "stateMutability": "view",
      "type": "function"
    },
    {
      "constant": true,
      "inputs": [],
      "name": "isOwner",
      "outputs": [
        {
          "internalType": "bool",
          "name": "",
          "type": "bool"
        }
      ],
      "payable": false,
      "stateMutability": "view",
      "type": "function"
    },
    {
      "constant": true,
      "inputs": [],
      "name": "name",
      "outputs": [
        {
          "internalType": "string",
          "name": "",
          "type": "string"
        }
      ],
      "payable": false,
      "stateMutability": "view",
      "type": "function"
    },
    {
      "constant": true,
      "inputs": [],
      "name": "networkId",
      "outputs": [
        {
          "internalType": "bytes",
          "name": "",
          "type": "bytes"
        }
      ],
      "payable": false,
      "stateMutability": "view",
      "type": "function"
    },
    {
      "constant": true,
      "inputs": [],
      "name": "owner",
      "outputs": [
        {
          "internalType": "address",
          "name": "",
          "type": "address"
        }
      ],
      "payable": false,
      "stateMutability": "view",
      "type": "function"
    },
    {
      "constant": true,
      "inputs": [],
      "name": "parent",
      "outputs": [
        {
          "internalType": "address",
          "name": "",
          "type": "address"
        }
      ],
      "payable": false,
      "stateMutability": "view",
      "type": "function"
    },
    {
      "constant": false,
      "inputs": [],
      "name": "renounceOwnership",
      "outputs": [],
      "payable": false,
      "stateMutability": "nonpayable",
      "type": "function"
    },
    {
      "constant": false,
      "inputs": [
        {
          "internalType": "address",
          "name": "newAddress",
          "type": "address"
        }
      ],
      "name": "setParent",
      "outputs": [],
      "payable": false,
      "stateMutability": "nonpayable",
      "type": "function"
    },
    {
      "constant": true,
      "inputs": [],
      "name": "stateSyncer",
      "outputs": [
        {
          "internalType": "address",
          "name": "",
          "type": "address"
        }
      ],
      "payable": false,
      "stateMutability": "view",
      "type": "function"
    },
    {
      "constant": true,
      "inputs": [],
      "name": "symbol",
      "outputs": [
        {
          "internalType": "string",
          "name": "",
          "type": "string"
        }
      ],
      "payable": false,
      "stateMutability": "view",
      "type": "function"
    },
    {
      "constant": true,
      "inputs": [],
      "name": "token",
      "outputs": [
        {
          "internalType": "address",
          "name": "",
          "type": "address"
        }
      ],
      "payable": false,
      "stateMutability": "view",
      "type": "function"
    },
    {
      "constant": true,
      "inputs": [],
      "name": "totalSupply",
      "outputs": [
        {
          "internalType": "uint256",
          "name": "",
          "type": "uint256"
        }
      ],
      "payable": false,
      "stateMutability": "view",
      "type": "function"
    },
    {
      "constant": false,
      "inputs": [
        {
          "internalType": "address",
          "name": "newOwner",
          "type": "address"
        }
      ],
      "name": "transferOwnership",
      "outputs": [],
      "payable": false,
      "stateMutability": "nonpayable",
      "type": "function"
    },
    {
      "constant": false,
      "inputs": [
        {
          "internalType": "bytes",
          "name": "sig",
          "type": "bytes"
        },
        {
          "internalType": "uint256",
          "name": "amount",
          "type": "uint256"
        },
        {
          "internalType": "bytes32",
          "name": "data",
          "type": "bytes32"
        },
        {
          "internalType": "uint256",
          "name": "expiration",
          "type": "uint256"
        },
        {
          "internalType": "address",
          "name": "to",
          "type": "address"
        }
      ],
      "name": "transferWithSig",
      "outputs": [
        {
          "internalType": "address",
          "name": "from",
          "type": "address"
        }
      ],
      "payable": false,
      "stateMutability": "nonpayable",
      "type": "function"
    },
    {
      "constant": false,
      "inputs": [
        {
          "internalType": "address",
          "name": "user",
          "type": "address"
        },
        {
          "internalType": "uint256",
          "name": "amount",
          "type": "uint256"
        }
      ],
      "name": "deposit",
      "outputs": [],
      "payable": false,
      "stateMutability": "nonpayable",
      "type": "function"
    },
    {
      "constant": false,
      "inputs": [
        {
          "internalType": "uint256",
          "name": "amount",
          "type": "uint256"
        }
      ],
      "name": "withdraw",
      "outputs": [],
      "payable": true,
      "stateMutability": "payable",
      "type": "function"
    },
    {
      "constant": false,
      "inputs": [
        {
          "internalType": "uint256",
          "name": "",
          "type": "uint256"
        },
        {
          "internalType": "bytes",
          "name": "data",
          "type": "bytes"
        }
      ],
      "name": "onStateReceive",
      "outputs": [],
      "payable": false,
      "stateMutability": "nonpayable",
      "type": "function"
    },
    {
      "constant": false,
      "inputs": [
        {
          "internalType": "address",
          "name": "to",
          "type": "address"
        },
        {
          "internalType": "uint256",
          "name": "value",
          "type": "uint256"
        }
      ],
      "name": "transfer",
      "outputs": [
        {
          "internalType": "bool",
          "name": "",
          "type": "bool"
        }
      ],
      "payable": false,
      "stateMutability": "nonpayable",
      "type": "function"
    },
    {
      "constant": true,
      "inputs": [
        {
          "internalType": "address",
          "name": "",
          "type": "address"
        },
        {
          "internalType": "address",
          "name": "",
          "type": "address"
        }
      ],
      "name": "allowance",
      "outputs": [
        {
          "internalType": "uint256",
          "name": "",
          "type": "uint256"
        }
      ],
      "payable": false,
      "stateMutability": "view",
      "type": "function"
    },
    {
      "constant": false,
      "inputs": [
        {
          "internalType": "address",
          "name": "",
          "type": "address"
        },
        {
          "internalType": "uint256",
          "name": "",
          "type": "uint256"
        }
      ],
      "name": "approve",
      "outputs": [
        {
          "internalType": "bool",
          "name": "",
          "type": "bool"
        }
      ],
      "payable": false,
      "stateMutability": "nonpayable",
      "type": "function"
    },
    {
      "constant": false,
      "inputs": [
        {
          "internalType": "address",
          "name": "",
          "type": "address"
        },
        {
          "internalType": "address",
          "name": "",
          "type": "address"
        },
        {
          "internalType": "uint256",
          "name": "",
          "type": "uint256"
        }
      ],
      "name": "transferFrom",
      "outputs": [
        {
          "internalType": "bool",
          "name": "",
          "type": "bool"
        }
      ],
      "payable": false,
      "stateMutability": "nonpayable",
      "type": "function"
    }
  ],
  "bytecode": "0x60806040523480156200001157600080fd5b506040516200236138038062002361833981810160405260a08110156200003757600080fd5b815160208301516040808501805191519395929483019291846401000000008211156200006357600080fd5b9083019060208201858111156200007957600080fd5b82516401000000008111828201881017156200009457600080fd5b82525081516020918201929091019080838360005b83811015620000c3578181015183820152602001620000a9565b50505050905090810190601f168015620000f15780820380516001836020036101000a031916815260200191505b50604052602001805160405193929190846401000000008211156200011557600080fd5b9083019060208201858111156200012b57600080fd5b82516401000000008111828201881017156200014657600080fd5b82525081516020918201929091019080838360005b83811015620001755781810151838201526020016200015b565b50505050905090810190601f168015620001a35780820380516001836020036101000a031916815260200191505b50604081905260209190910151600080546001600160a01b0319163317808255919450869350859285926001600160a01b031691907f8be0079c531659141344cd1fd0a4f28419497f9722a3daafe3b4186f6b6457e0908290a36040518060800160405280605281526020016200230f605291396040516020018082805190602001908083835b602083106200024b5780518252601f1990920191602091820191016200022a565b51815160209384036101000a60001901801990921691161790526040805192909401828103601f190183528085528251928201929092208285018552600d83527f4d61746963204e6574776f726b00000000000000000000000000000000000000928201929092528351808501855260018082527f3100000000000000000000000000000000000000000000000000000000000000918301919091528451808301939093527fd26430275d0d30693378daeb558f6ed30c3a48ba5d665f52c16608e1c41b5cd7838601527fc89efdaa54c0f20c7adf612882df0950f5a951637e0307cdcb4c672f298b8bc660608401526202ea4260808401523060a0808501919091528551808503909101815260c0909301909452815191810191909120909255508551620003839350600992509086019062000440565b5081516200039990600a90602085019062000440565b50600b805460ff191660ff9290921691909117610100600160a81b0319166210010017908190556040516001600160a01b03610100909204919091169250600091507f98e6a46aa139a033b9c7f3ae4ad1c103ffdce3e7cf509326808ba8c4b5af11c0908290a36001600160a01b0384166200041457600080fd5b5050600280546001600160a01b0319166001600160a01b03939093169290921790915550620004e59050565b828054600181600116156101000203166002900490600052602060002090601f016020900481019282601f106200048357805160ff1916838001178555620004b3565b82800160010185558215620004b3579182015b82811115620004b357825182559160200191906001019062000496565b50620004c1929150620004c5565b5090565b620004e291905b80821115620004c15760008155600101620004cc565b90565b611e1a80620004f56000396000f3fe6080604052600436106102045760003560e01c80638da5cb5b11610118578063cc79f97b116100a0578063e614d0d61161006f578063e614d0d614610894578063ed9ef524146108a9578063f2fde38b146108dc578063f4ef4d691461090f578063fc0c546a1461092457610204565b8063cc79f97b146107fc578063dd62ed3e14610811578063df5550071461084c578063e306f7791461087f57610204565b8063a457c2d7116100e7578063a457c2d714610706578063a9059cbb1461073f578063abceeba214610778578063acd06cb31461078d578063b789543c146107b757610204565b80638da5cb5b146106b25780638f32d59b146106c75780639025e64c146106dc57806395d89b41146106f157610204565b8063313ce5671161019b57806355651f711161016a57806355651f711461058657806360f96a8f1461059b57806370a08231146105b0578063715018a6146105e357806377d32e94146105f857610204565b8063313ce567146104d457806339509351146104ff57806342fc47fb1461053857806347e7ef241461054d57610204565b806319d27d9c116101d757806319d27d9c1461033c57806323b872dd146103f057806326c53bea146104335780632e1a7d4d146104b757610204565b806306fdde0314610209578063095ea7b3146102935780631499c592146102e057806318160ddd14610315575b600080fd5b34801561021557600080fd5b5061021e610939565b6040805160208082528351818301528351919283929083019185019080838360005b83811015610258578181015183820152602001610240565b50505050905090810190601f1680156102855780820380516001836020036101000a031916815260200191505b509250505060405180910390f35b34801561029f57600080fd5b506102cc600480360360408110156102b657600080fd5b506001600160a01b0381351690602001356109cf565b604080519115158252519081900360200190f35b3480156102ec57600080fd5b506103136004803603602081101561030357600080fd5b50356001600160a01b0316610a11565b005b34801561032157600080fd5b5061032a610ac3565b60408051918252519081900360200190f35b34801561034857600080fd5b506103d4600480360360a081101561035f57600080fd5b81019060208101813564010000000081111561037a57600080fd5b82018360208201111561038c57600080fd5b803590602001918460018302840111640100000000831117156103ae57600080fd5b9193509150803590602081013590604081013590606001356001600160a01b0316610ac9565b604080516001600160a01b039092168252519081900360200190f35b3480156103fc57600080fd5b506102cc6004803603606081101561041357600080fd5b506001600160a01b038135811691602081013590911690604001356109cf565b34801561043f57600080fd5b506103136004803603604081101561045657600080fd5b8135919081019060408101602082013564010000000081111561047857600080fd5b82018360208201111561048a57600080fd5b803590602001918460018302840111640100000000831117156104ac57600080fd5b509092509050610c0d565b610313600480360360208110156104cd57600080fd5b5035610ca2565b3480156104e057600080fd5b506104e9610caf565b6040805160ff9092168252519081900360200190f35b34801561050b57600080fd5b506102cc6004803603604081101561052257600080fd5b506001600160a01b038135169060200135610cb8565b34801561054457600080fd5b506103d4610d03565b34801561055957600080fd5b506103136004803603604081101561057057600080fd5b506001600160a01b038135169060200135610d12565b34801561059257600080fd5b506102cc610df1565b3480156105a757600080fd5b506103d4610e07565b3480156105bc57600080fd5b5061032a600480360360208110156105d357600080fd5b50356001600160a01b0316610e16565b3480156105ef57600080fd5b50610313610e31565b34801561060457600080fd5b506103d46004803603604081101561061b57600080fd5b8135919081019060408101602082013564010000000081111561063d57600080fd5b82018360208201111561064f57600080fd5b8035906020019184600183028401116401000000008311171561067157600080fd5b91908080601f016020809104026020016040519081016040528093929190818152602001838380828437600092019190915250929550610e8c945050505050565b3480156106be57600080fd5b506103d4610faf565b3480156106d357600080fd5b506102cc610fbe565b3480156106e857600080fd5b5061021e610fcf565b3480156106fd57600080fd5b5061021e610fee565b34801561071257600080fd5b506102cc6004803603604081101561072957600080fd5b506001600160a01b03813516906020013561104f565b34801561074b57600080fd5b506102cc6004803603604081101561076257600080fd5b506001600160a01b03813516906020013561108b565b34801561078457600080fd5b5061032a61114d565b34801561079957600080fd5b506102cc600480360360208110156107b057600080fd5b50356111d6565b3480156107c357600080fd5b5061032a600480360360808110156107da57600080fd5b506001600160a01b0381351690602081013590604081013590606001356111eb565b34801561080857600080fd5b5061032a61120a565b34801561081d57600080fd5b5061032a6004803603604081101561083457600080fd5b506001600160a01b03813581169160200135166109cf565b34801561085857600080fd5b506103136004803603602081101561086f57600080fd5b50356001600160a01b0316611211565b34801561088b57600080fd5b5061032a6112ce565b3480156108a057600080fd5b5061032a6112d4565b3480156108b557600080fd5b50610313600480360360208110156108cc57600080fd5b50356001600160a01b031661131e565b3480156108e857600080fd5b50610313600480360360208110156108ff57600080fd5b50356001600160a01b03166113d0565b34801561091b57600080fd5b506103d46113ea565b34801561093057600080fd5b506103d46113fe565b60098054604080516020601f60026000196101006001881615020190951694909404938401819004810282018101909252828152606093909290918301828280156109c55780601f1061099a576101008083540402835291602001916109c5565b820191906000526020600020905b8154815290600101906020018083116109a857829003601f168201915b5050505050905090565b6040805162461bcd60e51b815260206004820152601060248201526f44697361626c6564206665617475726560801b6044820152905160009181900360640190fd5b610a19610fbe565b610a2257600080fd5b6001600160a01b038116610a675760405162461bcd60e51b8152600401808060200182810382526033815260200180611c326033913960400191505060405180910390fd5b6004546040516001600160a01b038084169216907fc9e4c719f349d4c91a37138eb5cf0ba2670c592a764f8c0b18c603ba9178cc1d90600090a3600480546001600160a01b0319166001600160a01b0392909216919091179055565b60085490565b6000808511610ad757600080fd5b821580610ae45750824311155b610b2c576040805162461bcd60e51b815260206004820152601460248201527314da59db985d1d5c99481a5cc8195e1c1a5c995960621b604482015290519081900360640190fd5b6000610b43610b3d3388888861140d565b306114c6565b60008181526005602052604090205490915060ff1615610b9c576040805162461bcd60e51b815260206004820152600f60248201526e14da59c819195858dd1a5d985d1959608a1b604482015290519081900360640190fd5b600081815260056020908152604091829020805460ff191660011790558151601f8a01829004820281018201909252888252610bf49183918b908b9081908401838280828437600092019190915250610e8c92505050565b9150610c01828488611624565b50509695505050505050565b610c15610df1565b610c505760405162461bcd60e51b8152600401808060200182810382526035815260200180611cb76035913960400191505060405180910390fd5b60008083836040811015610c6357600080fd5b506001600160a01b0381351692506020013590506000610c8283610e16565b905081811015610c90578091505b610c9a8383611871565b505050505050565b610cac3382611871565b50565b600b5460ff1690565b3360008181526007602090815260408083206001600160a01b03871684529091528120549091610cf9918590610cf4908663ffffffff6118c416565b6118d6565b5060015b92915050565b6003546001600160a01b031681565b6003546001600160a01b03163314610d5b5760405162461bcd60e51b8152600401808060200182810382526033815260200180611d796033913960400191505060405180910390fd5b600081118015610d7357506001600160a01b03821615155b610d7c57600080fd5b6000610d8783610e16565b9050610d93838361195e565b6002546001600160a01b0380851691167f4e2ca0515ed1aef1395f66b5303bb5d6f1bf9d61a353fa53f73f8ac9973fa9f68484610dcf88610e16565b60408051938452602084019290925282820152519081900360600190a3505050565b600b5461010090046001600160a01b0316331490565b6004546001600160a01b031681565b6001600160a01b031660009081526006602052604090205490565b610e39610fbe565b610e4257600080fd5b600080546040516001600160a01b03909116907f8be0079c531659141344cd1fd0a4f28419497f9722a3daafe3b4186f6b6457e0908390a3600080546001600160a01b0319169055565b6000806000808451604114610ea75760009350505050610cfd565b50505060208201516040830151604184015160ff16601b811015610ec957601b015b8060ff16601b14158015610ee157508060ff16601c14155b15610ef25760009350505050610cfd565b6040805160008152602080820180845289905260ff8416828401526060820186905260808201859052915160019260a0808401939192601f1981019281900390910190855afa158015610f49573d6000803e3d6000fd5b5050604051601f1901519450506001600160a01b038416610fa6576040805162461bcd60e51b815260206004820152601260248201527122b93937b91034b71032b1b932b1b7bb32b960711b604482015290519081900360640190fd5b50505092915050565b6000546001600160a01b031690565b6000546001600160a01b0316331490565b6040518060400160405280600381526020016201752160e91b81525081565b600a8054604080516020601f60026000196101006001881615020190951694909404938401819004810282018101909252828152606093909290918301828280156109c55780601f1061099a576101008083540402835291602001916109c5565b3360008181526007602090815260408083206001600160a01b03871684529091528120549091610cf9918590610cf4908663ffffffff611a0816565b6004546000906001600160a01b03161580159061112e57506004805460408051631ffb811f60e01b815233938101939093526001600160a01b038681166024850152604484018690529051911691631ffb811f9160648083019260209291908290030181600087803b15801561110057600080fd5b505af1158015611114573d6000803e3d6000fd5b505050506040513d602081101561112a57600080fd5b5051155b1561113b57506000610cfd565b611146338484611624565b9392505050565b6040518060800160405280605b8152602001611d1e605b91396040516020018082805190602001908083835b602083106111985780518252601f199092019160209182019101611179565b6001836020036101000a0380198251168184511680821785525050505050509050019150506040516020818303038152906040528051906020012081565b60056020526000908152604090205460ff1681565b60006112016111fc8686868661140d565b611a1d565b95945050505050565b6202ea4281565b611219610fbe565b61122257600080fd5b6001600160a01b0381166112675760405162461bcd60e51b815260040180806020018281038252603a815260200180611dac603a913960400191505060405180910390fd5b600b546040516001600160a01b0380841692610100900416907f98e6a46aa139a033b9c7f3ae4ad1c103ffdce3e7cf509326808ba8c4b5af11c090600090a3600b80546001600160a01b0390921661010002610100600160a81b0319909216919091179055565b60015481565b604051806080016040528060528152602001611c6560529139604051602001808280519060200190808383602083106111985780518252601f199092019160209182019101611179565b611326610fbe565b61132f57600080fd5b6001600160a01b0381166113745760405162461bcd60e51b8152600401808060200182810382526032815260200180611cec6032913960400191505060405180910390fd5b6003546040516001600160a01b038084169216907f1f9f3556dd336016cdf20adaead7d5c73665dba664b60e8c17e9a4eb91ce1d3990600090a3600380546001600160a01b0319166001600160a01b0392909216919091179055565b6113d8610fbe565b6113e157600080fd5b610cac81611a2b565b600b5461010090046001600160a01b031681565b6002546001600160a01b031681565b6000806040518060800160405280605b8152602001611d1e605b91396040516020018082805190602001908083835b6020831061145b5780518252601f19909201916020918201910161143c565b51815160209384036101000a60001901801990921691161790526040805192909401828103601f1901835280855282519282019290922082526001600160a01b039b909b169a81019a909a5250880196909652505050606084019190915260808301525060a0902090565b600080604051806080016040528060528152602001611c65605291396040516020018082805190602001908083835b602083106115145780518252601f1990920191602091820191016114f5565b51815160209384036101000a60001901801990921691161790526040805192909401828103601f190183528085528251928201929092208285018552600d83526c4d61746963204e6574776f726b60981b928201929092528351808501855260018152603160f81b908201528351808201929092527fd26430275d0d30693378daeb558f6ed30c3a48ba5d665f52c16608e1c41b5cd7828501527fc89efdaa54c0f20c7adf612882df0950f5a951637e0307cdcb4c672f298b8bc660608301526202ea4260808301526001600160a01b03891660a0808401919091528451808403909101815260c09092019093528051920191909120935061161c9250869150839050611a99565b949350505050565b604080516370a0823160e01b81526001600160a01b03851660048201529051600091829130916370a08231916024808301926020929190829003018186803b15801561166f57600080fd5b505afa158015611683573d6000803e3d6000fd5b505050506040513d602081101561169957600080fd5b5051604080516370a0823160e01b81526001600160a01b0387166004820152905191925060009130916370a08231916024808301926020929190829003018186803b1580156116e757600080fd5b505afa1580156116fb573d6000803e3d6000fd5b505050506040513d602081101561171157600080fd5b50519050611720868686611abb565b600254604080516370a0823160e01b81526001600160a01b03898116600483018190529251818a1694909116917fe6497e3ee548a3372136af2fcb0696db31fc6cf20260707645068bd3fe97f3c49189918891889130916370a0823191602480820192602092909190829003018186803b15801561179d57600080fd5b505afa1580156117b1573d6000803e3d6000fd5b505050506040513d60208110156117c757600080fd5b5051604080516370a0823160e01b81526001600160a01b038f166004820152905130916370a08231916024808301926020929190829003018186803b15801561180f57600080fd5b505afa158015611823573d6000803e3d6000fd5b505050506040513d602081101561183957600080fd5b50516040805195865260208601949094528484019290925260608401526080830152519081900360a00190a450600195945050505050565b600061187c83610e16565b90506118888383611b88565b6002546001600160a01b0380851691167febff2602b3f468259e1e99f613fed6691f3a6526effe6ef3e768ba7ae7a36c4f8484610dcf88610e16565b60008282018381101561114657600080fd5b6001600160a01b0382166118e957600080fd5b6001600160a01b0383166118fc57600080fd5b6001600160a01b03808416600081815260076020908152604080832094871680845294825291829020859055815185815291517f8c5be1e5ebec7d5bd14f71427d1e84f3dd0314c0f7b2291e5b200ac8c7c3b9259281900390910190a3505050565b6001600160a01b03821661197157600080fd5b600854611984908263ffffffff6118c416565b6008556001600160a01b0382166000908152600660205260409020546119b0908263ffffffff6118c416565b6001600160a01b03831660008181526006602090815260408083209490945583518581529351929391927fddf252ad1be2c89b69c2b068fc378daa952ba7f163c4a11628f55a4df523b3ef9281900390910190a35050565b600082821115611a1757600080fd5b50900390565b6000610cfd82600154611a99565b6001600160a01b038116611a3e57600080fd5b600080546040516001600160a01b03808516939216917f8be0079c531659141344cd1fd0a4f28419497f9722a3daafe3b4186f6b6457e091a3600080546001600160a01b0319166001600160a01b0392909216919091179055565b60405161190160f01b8152600281019190915260228101919091526042902090565b6001600160a01b038216611ace57600080fd5b6001600160a01b038316600090815260066020526040902054611af7908263ffffffff611a0816565b6001600160a01b038085166000908152600660205260408082209390935590841681522054611b2c908263ffffffff6118c416565b6001600160a01b0380841660008181526006602090815260409182902094909455805185815290519193928716927fddf252ad1be2c89b69c2b068fc378daa952ba7f163c4a11628f55a4df523b3ef92918290030190a3505050565b6001600160a01b038216611b9b57600080fd5b600854611bae908263ffffffff611a0816565b6008556001600160a01b038216600090815260066020526040902054611bda908263ffffffff611a0816565b6001600160a01b0383166000818152600660209081526040808320949094558351858152935191937fddf252ad1be2c89b69c2b068fc378daa952ba7f163c4a11628f55a4df523b3ef929081900390910190a3505056fe4368696c6420746f6b656e3a206e657720706172656e74206164647265737320697320746865207a65726f2061646472657373454950373132446f6d61696e28737472696e67206e616d652c737472696e672076657273696f6e2c75696e7432353620636861696e49642c6164647265737320766572696679696e67436f6e74726163742953746174652073796e6365723a2063616c6c6572206973206e6f74207468652073746174652073796e63657220636f6e74726163744368696c6420746f6b656e3a206e6577206368696c64206164647265737320697320746865207a65726f2061646472657373546f6b656e5472616e736665724f726465722861646472657373207370656e6465722c75696e7432353620746f6b656e49644f72416d6f756e742c6279746573333220646174612c75696e743235362065787069726174696f6e294368696c6420746f6b656e3a2063616c6c6572206973206e6f7420746865206368696c6420636861696e20636f6e747261637453746174652073796e6365723a206e65772073746174652073796e636572206164647265737320697320746865207a65726f2061646472657373a265627a7a72315820d0cd170c33b1edf642311d6fe1099b7f798b36311279d64004fabec1bff49d7664736f6c63430005110032454950373132446f6d61696e28737472696e67206e616d652c737472696e672076657273696f6e2c75696e7432353620636861696e49642c6164647265737320766572696679696e67436f6e747261637429",
  "source": "pragma solidity ^0.5.2;\n\nimport {ERC20Detailed} from \"./ERC20Detailed.sol\";\nimport {ERC20} from \"openzeppelin-solidity/contracts/token/ERC20/ERC20.sol\";\n\nimport {StateSyncerVerifier} from \"./bor/StateSyncerVerifier.sol\";\nimport {StateReceiver} from \"./bor/StateReceiver.sol\";\nimport \"./BaseERC20.sol\";\nimport \"./misc/IParentToken.sol\";\n\ncontract ChildERC20 is BaseERC20, ERC20, ERC20Detailed, StateSyncerVerifier, StateReceiver {\n    constructor(\n        address /* ignoring parent owner, use contract owner instead */,\n        address _token,\n        string memory _name,\n        string memory _symbol,\n        uint8 _decimals\n    ) public ERC20Detailed(_name, _symbol, _decimals) {\n        require(_token != address(0x0));\n        token = _token;\n    }\n\n    /**\n   * Deposit tokens\n   *\n   * @param user address for address\n   * @param amount token balance\n   */\n    function deposit(address user, uint256 amount) public onlyChildChain {\n        // check for amount and user\n        require(amount > 0 && user != address(0x0));\n\n        // input balance\n        uint256 input1 = balanceOf(user);\n\n        // increase balance\n        _mint(user, amount);\n\n        // deposit events\n        emit Deposit(token, user, amount, input1, balanceOf(user));\n    }\n\n    /**\n   * Withdraw tokens\n   *\n   * @param amount tokens\n   */\n    function withdraw(uint256 amount) public payable {\n        _withdraw(msg.sender, amount);\n    }\n\n    function onStateReceive(\n        uint256, /* id */\n        bytes calldata data\n    ) external onlyStateSyncer {\n        (address user, uint256 burnAmount) = abi.decode(data, (address, uint256));\n        uint256 balance = balanceOf(user);\n        if (balance < burnAmount) {\n            burnAmount = balance;\n        }\n        _withdraw(user, burnAmount);\n    }\n\n    function _withdraw(address user, uint256 amount) internal {\n        uint256 input = balanceOf(user);\n        _burn(user, amount);\n        emit Withdraw(token, user, amount, input, balanceOf(user));\n    }\n\n    /// @dev Function that is called when a user or another contract wants to transfer funds.\n    /// @param to Address of token receiver.\n    /// @param value Number of tokens to transfer.\n    /// @return Returns success of function call.\n    function transfer(address to, uint256 value) public returns (bool) {\n        if (\n            parent != address(0x0) &&\n            !IParentToken(parent).beforeTransfer(msg.sender, to, value)\n        ) {\n            return false;\n        }\n        return _transferFrom(msg.sender, to, value);\n    }\n\n    function allowance(address, address) public view returns (uint256) {\n        revert(\"Disabled feature\");\n    }\n\n    function approve(address, uint256) public returns (bool) {\n        revert(\"Disabled feature\");\n    }\n\n    function transferFrom(address, address, uint256) public returns (bool) {\n        revert(\"Disabled feature\");\n    }\n}\n",
  "sourcePath": "/Users/ohm.jirapon/playground/blockhain/pos/plasma-ploygon/contracts/contracts/child/ChildERC20.sol",
  "compiler": {
    "name": "solc",
    "version": "0.5.17+commit.d19bba13.Linux.g++"
  },
  "schemaVersion": "3.4.7",
  "updatedAt": "2022-07-08T08:23:53.294Z",
  "devdoc": {
    "methods": {
      "balanceOf(address)": {
        "details": "Gets the balance of the specified address.",
        "params": {
          "owner": "The address to query the balance of."
        },
        "return": "A uint256 representing the amount owned by the passed address."
      },
      "decimals()": {
        "return": "the number of decimals of the token."
      },
      "decreaseAllowance(address,uint256)": {
        "details": "Decrease the amount of tokens that an owner allowed to a spender. approve should be called when _allowed[msg.sender][spender] == 0. To decrement allowed value is better to use this function to avoid 2 calls (and wait until the first transaction is mined) From MonolithDAO Token.sol Emits an Approval event.",
        "params": {
          "spender": "The address which will spend the funds.",
          "subtractedValue": "The amount of tokens to decrease the allowance by."
        }
      },
      "deposit(address,uint256)": {
        "params": {
          "amount": "token balance",
          "user": "address for address"
        }
      },
      "increaseAllowance(address,uint256)": {
        "details": "Increase the amount of tokens that an owner allowed to a spender. approve should be called when _allowed[msg.sender][spender] == 0. To increment allowed value is better to use this function to avoid 2 calls (and wait until the first transaction is mined) From MonolithDAO Token.sol Emits an Approval event.",
        "params": {
          "addedValue": "The amount of tokens to increase the allowance by.",
          "spender": "The address which will spend the funds."
        }
      },
      "isOnlyStateSyncerContract()": {
        "details": "Returns true if the caller is the state syncer contract TODO: replace onlyOwner ownership with 0x1000 for validator majority"
      },
      "isOwner()": {
        "return": "true if `msg.sender` is the owner of the contract."
      },
      "name()": {
        "return": "the name of the token."
      },
      "owner()": {
        "return": "the address of the owner."
      },
      "renounceOwnership()": {
        "details": "Allows the current owner to relinquish control of the contract. It will not be possible to call the functions with the `onlyOwner` modifier anymore."
      },
      "symbol()": {
        "return": "the symbol of the token."
      },
      "totalSupply()": {
        "details": "Total number of tokens in existence"
      },
      "transfer(address,uint256)": {
        "details": "Function that is called when a user or another contract wants to transfer funds.",
        "params": {
          "to": "Address of token receiver.",
          "value": "Number of tokens to transfer."
        },
        "return": "Returns success of function call."
      },
      "transferOwnership(address)": {
        "details": "Allows the current owner to transfer control of the contract to a newOwner.",
        "params": {
          "newOwner": "The address to transfer ownership to."
        }
      },
      "withdraw(uint256)": {
        "params": {
          "amount": "tokens"
        }
      }
    }
  },
  "userdoc": {
    "methods": {
      "deposit(address,uint256)": {
        "notice": "Deposit tokens"
      },
      "renounceOwnership()": {
        "notice": "Renouncing ownership will leave the contract without an owner, thereby removing any functionality that is only available to the owner."
      },
      "withdraw(uint256)": {
        "notice": "Withdraw tokens"
      }
    }
  }
}