{
  "contractName": "Common",
  "abi": [
    {
      "constant": true,
      "inputs": [
        {
          "internalType": "bytes",
          "name": "v",
          "type": "bytes"
        },
        {
          "internalType": "uint16",
          "name": "chainId",
          "type": "uint16"
        }
      ],
      "name": "getV",
      "outputs": [
        {
          "internalType": "uint8",
          "name": "",
          "type": "uint8"
        }
      ],
      "payable": false,
      "stateMutability": "pure",
      "type": "function"
    },
    {
      "constant": true,
      "inputs": [
        {
          "internalType": "address",
          "name": "_addr",
          "type": "address"
        }
      ],
      "name": "isContract",
      "outputs": [
        {
          "internalType": "bool",
          "name": "",
          "type": "bool"
        }
      ],
      "payable": false,
      "stateMutability": "view",
      "type": "function"
    },
    {
      "constant": true,
      "inputs": [
        {
          "internalType": "bytes",
          "name": "_arg",
          "type": "bytes"
        }
      ],
      "name": "toUint8",
      "outputs": [
        {
          "internalType": "uint8",
          "name": "",
          "type": "uint8"
        }
      ],
      "payable": false,
      "stateMutability": "pure",
      "type": "function"
    },
    {
      "constant": true,
      "inputs": [
        {
          "internalType": "bytes",
          "name": "_arg",
          "type": "bytes"
        }
      ],
      "name": "toUint16",
      "outputs": [
        {
          "internalType": "uint16",
          "name": "",
          "type": "uint16"
        }
      ],
      "payable": false,
      "stateMutability": "pure",
      "type": "function"
    }
  ],
  "bytecode": "0x610496610026600b82828239805160001a60731461001957fe5b30600052607381538281f3fe73000000000000000000000000000000000000000030146080604052600436106100565760003560e01c8063162790551461005b5780634d66a2ae146100955780637ae93b1914610152578063b40b539b1461020e575b600080fd5b6100816004803603602081101561007157600080fd5b50356001600160a01b03166102ba565b604080519115158252519081900360200190f35b61013b600480360360208110156100ab57600080fd5b8101906020810181356401000000008111156100c657600080fd5b8201836020820111156100d857600080fd5b803590602001918460018302840111640100000000831117156100fa57600080fd5b91908080601f0160208091040260200160405190810160405280939291908181526020018383808284376000920191909152509295506102c0945050505050565b6040805161ffff9092168252519081900360200190f35b6101f86004803603602081101561016857600080fd5b81019060208101813564010000000081111561018357600080fd5b82018360208201111561019557600080fd5b803590602001918460018302840111640100000000831117156101b757600080fd5b91908080601f016020809104026020016040519081016040528093929190818152602001838380828437600092019190915250929550610301945050505050565b6040805160ff9092168252519081900360200190f35b6101f86004803603604081101561022457600080fd5b81019060208101813564010000000081111561023f57600080fd5b82018360208201111561025157600080fd5b8035906020019184600183028401116401000000008311171561027357600080fd5b91908080601f0160208091040260200160405190810160405280939291908181526020018383808284376000920191909152509295505050903561ffff16915061031f9050565b3b151590565b6000816001815181106102cf57fe5b602001015160f81c60f81b60f81c60ff166008836000815181106102ef57fe5b016020015160f81c901b179050919050565b60008160008151811061031057fe5b016020015160f81c9050919050565b600061ffff8216156103515760088260020261ffff1661034861034186610366565b60006103b3565b03039050610360565b61035d61034184610366565b90505b92915050565b606080610375602084516103cf565b6040519080825280601f01601f19166020018201604052801561039f576020820181803883390190505b5090506103ac81846103e4565b9392505050565b600081602001835110156103c657600080fd5b50016020015190565b6000828211156103de57600080fd5b50900390565b6060806040519050835180825260208201818101602087015b818310156104155780518352602092830192016103fd565b50855184518101855292509050808201602086015b8183101561044257805183526020928301920161042a565b508651929092011591909101601f01601f19166040525090509291505056fea265627a7a72315820f9ab1e539e235dcd7bb7e177e0340920ba60405b3bdae1e34da306dd9b0c6bfe64736f6c63430005110032",
  "source": "pragma solidity ^0.5.2;\n\nimport \"./BytesLib.sol\";\n\nlibrary Common {\n    function getV(bytes memory v, uint16 chainId) public pure returns (uint8) {\n        if (chainId > 0) {\n            return\n                uint8(\n                    BytesLib.toUint(BytesLib.leftPad(v), 0) - (chainId * 2) - 8\n                );\n        } else {\n            return uint8(BytesLib.toUint(BytesLib.leftPad(v), 0));\n        }\n    }\n\n    //assemble the given address bytecode. If bytecode exists then the _addr is a contract.\n    function isContract(address _addr) public view returns (bool) {\n        uint256 length;\n        assembly {\n            //retrieve the size of the code on target address, this needs assembly\n            length := extcodesize(_addr)\n        }\n        return (length > 0);\n    }\n\n    // convert bytes to uint8\n    function toUint8(bytes memory _arg) public pure returns (uint8) {\n        return uint8(_arg[0]);\n    }\n\n    function toUint16(bytes memory _arg) public pure returns (uint16) {\n        return (uint16(uint8(_arg[0])) << 8) | uint16(uint8(_arg[1]));\n    }\n}\n",
  "sourcePath": "/Users/ohm.jirapon/playground/blockhain/pos/plasma-ploygon/contracts/contracts/common/lib/Common.sol",
  "compiler": {
    "name": "solc",
    "version": "0.5.17+commit.d19bba13.Linux.g++"
  },
  "schemaVersion": "3.4.7",
  "updatedAt": "2022-07-08T08:23:53.949Z",
  "devdoc": {
    "methods": {}
  },
  "userdoc": {
    "methods": {}
  }
}