{
  "contractName": "ContractWithoutFallback",
  "abi": [
    {
      "constant": false,
      "inputs": [
        {
          "internalType": "address",
          "name": "depositManager",
          "type": "address"
        },
        {
          "internalType": "address",
          "name": "token",
          "type": "address"
        },
        {
          "internalType": "uint256",
          "name": "amount",
          "type": "uint256"
        }
      ],
      "name": "deposit",
      "outputs": [],
      "payable": false,
      "stateMutability": "nonpayable",
      "type": "function"
    },
    {
      "constant": false,
      "inputs": [
        {
          "internalType": "address payable",
          "name": "withdrawManager",
          "type": "address"
        },
        {
          "internalType": "uint256",
          "name": "depositId",
          "type": "uint256"
        },
        {
          "internalType": "address",
          "name": "token",
          "type": "address"
        },
        {
          "internalType": "uint256",
          "name": "amountOrToken",
          "type": "uint256"
        }
      ],
      "name": "startExitWithDepositedTokens",
      "outputs": [],
      "payable": true,
      "stateMutability": "payable",
      "type": "function"
    }
  ],
  "bytecode": "0x608060405234801561001057600080fd5b5061025e806100206000396000f3fe6080604052600436106100295760003560e01c80631756baa01461002e5780638340f5491461006a575b600080fd5b6100686004803603608081101561004457600080fd5b506001600160a01b03813581169160208101359160408201351690606001356100ad565b005b34801561007657600080fd5b506100686004803603606081101561008d57600080fd5b506001600160a01b0381358116916020810135909116906040013561012e565b6040805163144a03b360e01b8152600481018590526001600160a01b0384811660248301526044820184905291519186169163144a03b39167016345785d8a000091606480830192600092919082900301818588803b15801561010f57600080fd5b505af1158015610123573d6000803e3d6000fd5b505050505050505050565b816001600160a01b031663095ea7b384836040518363ffffffff1660e01b815260040180836001600160a01b03166001600160a01b0316815260200182815260200192505050602060405180830381600087803b15801561018e57600080fd5b505af11580156101a2573d6000803e3d6000fd5b505050506040513d60208110156101b857600080fd5b505060408051634bff5c9360e11b81526001600160a01b038481166004830152602482018490529151918516916397feb9269160448082019260009290919082900301818387803b15801561020c57600080fd5b505af1158015610220573d6000803e3d6000fd5b5050505050505056fea265627a7a72315820e27a623182d8f39264b3f4fd5d05deba55d769c02cfa5829fe595f1ddfa461af64736f6c634300050b0032",
  "source": "pragma solidity ^0.5.2;\n\nimport {IERC20} from \"openzeppelin-solidity/contracts/token/ERC20/IERC20.sol\";\nimport \"../root/depositManager/IDepositManager.sol\";\nimport \"../root/withdrawManager/WithdrawManager.sol\";\n\ncontract ContractWithFallback {\n  function deposit(address depositManager, address token, uint256 amount) public {\n    IERC20(token).approve(depositManager, amount);\n    IDepositManager(depositManager).depositERC20(token, amount);\n  }\n\n  function startExitWithDepositedTokens(\n    address payable withdrawManager,\n    uint256 depositId,\n    address token,\n    uint256 amountOrToken) public payable {\n    WithdrawManager(withdrawManager).startExitWithDepositedTokens.value(10**17)(depositId, token, amountOrToken);\n  }\n\n  function() external payable {}\n}\n\ncontract ContractWithoutFallback {\n  function deposit(address depositManager, address token, uint256 amount) public {\n    IERC20(token).approve(depositManager, amount);\n    IDepositManager(depositManager).depositERC20(token, amount);\n  }\n\n  function startExitWithDepositedTokens(\n    address payable withdrawManager,\n    uint256 depositId,\n    address token,\n    uint256 amountOrToken) public payable {\n    WithdrawManager(withdrawManager).startExitWithDepositedTokens.value(10**17)(depositId, token, amountOrToken);\n  }\n}\n\ncontract ContractWitRevertingFallback {\n  function deposit(address depositManager, address token, uint256 amount) public {\n    IERC20(token).approve(depositManager, amount);\n    IDepositManager(depositManager).depositERC20(token, amount);\n  }\n\n  function startExitWithDepositedTokens(\n    address payable withdrawManager,\n    uint256 depositId,\n    address token,\n    uint256 amountOrToken) public payable {\n    WithdrawManager(withdrawManager).startExitWithDepositedTokens.value(10**17)(depositId, token, amountOrToken);\n  }\n\n  function() external payable {\n    revert(\"not implemented\");\n  }\n}\n",
  "sourcePath": "/Users/ohm.jirapon/playground/blockhain/pos/plasma-ploygon/contracts/contracts/test/ContractActor.sol",
  "compiler": {
    "name": "solc",
    "version": "0.5.11+commit.c082d0b4.Emscripten.clang"
  },
  "schemaVersion": "3.0.14",
  "updatedAt": "2022-06-30T04:57:18.891Z",
  "devdoc": {
    "methods": {}
  },
  "userdoc": {
    "methods": {}
  }
}