{
  "contractName": "DepositManager",
  "abi": [
    {
      "inputs": [],
      "payable": false,
      "stateMutability": "nonpayable",
      "type": "constructor"
    },
    {
      "anonymous": false,
      "inputs": [
        {
          "indexed": true,
          "internalType": "uint256",
          "name": "oldLimit",
          "type": "uint256"
        },
        {
          "indexed": true,
          "internalType": "uint256",
          "name": "newLimit",
          "type": "uint256"
        }
      ],
      "name": "MaxErc20DepositUpdate",
      "type": "event"
    },
    {
      "anonymous": false,
      "inputs": [
        {
          "indexed": true,
          "internalType": "address",
          "name": "owner",
          "type": "address"
        },
        {
          "indexed": true,
          "internalType": "address",
          "name": "token",
          "type": "address"
        },
        {
          "indexed": false,
          "internalType": "uint256",
          "name": "amountOrNFTId",
          "type": "uint256"
        },
        {
          "indexed": false,
          "internalType": "uint256",
          "name": "depositBlockId",
          "type": "uint256"
        }
      ],
      "name": "NewDepositBlock",
      "type": "event"
    },
    {
      "anonymous": false,
      "inputs": [
        {
          "indexed": true,
          "internalType": "address",
          "name": "previousOwner",
          "type": "address"
        },
        {
          "indexed": true,
          "internalType": "address",
          "name": "newOwner",
          "type": "address"
        }
      ],
      "name": "OwnershipTransferred",
      "type": "event"
    },
    {
      "payable": true,
      "stateMutability": "payable",
      "type": "fallback"
    },
    {
      "constant": true,
      "inputs": [],
      "name": "childChain",
      "outputs": [
        {
          "internalType": "address",
          "name": "",
          "type": "address"
        }
      ],
      "payable": false,
      "stateMutability": "view",
      "type": "function"
    },
    {
      "constant": true,
      "inputs": [
        {
          "internalType": "uint256",
          "name": "",
          "type": "uint256"
        }
      ],
      "name": "deposits",
      "outputs": [
        {
          "internalType": "bytes32",
          "name": "depositHash",
          "type": "bytes32"
        },
        {
          "internalType": "uint256",
          "name": "createdAt",
          "type": "uint256"
        }
      ],
      "payable": false,
      "stateMutability": "view",
      "type": "function"
    },
    {
      "constant": true,
      "inputs": [],
      "name": "governance",
      "outputs": [
        {
          "internalType": "contract IGovernance",
          "name": "",
          "type": "address"
        }
      ],
      "payable": false,
      "stateMutability": "view",
      "type": "function"
    },
    {
      "constant": true,
      "inputs": [],
      "name": "isOwner",
      "outputs": [
        {
          "internalType": "bool",
          "name": "",
          "type": "bool"
        }
      ],
      "payable": false,
      "stateMutability": "view",
      "type": "function"
    },
    {
      "constant": false,
      "inputs": [],
      "name": "lock",
      "outputs": [],
      "payable": false,
      "stateMutability": "nonpayable",
      "type": "function"
    },
    {
      "constant": true,
      "inputs": [],
      "name": "locked",
      "outputs": [
        {
          "internalType": "bool",
          "name": "",
          "type": "bool"
        }
      ],
      "payable": false,
      "stateMutability": "view",
      "type": "function"
    },
    {
      "constant": true,
      "inputs": [],
      "name": "maxErc20Deposit",
      "outputs": [
        {
          "internalType": "uint256",
          "name": "",
          "type": "uint256"
        }
      ],
      "payable": false,
      "stateMutability": "view",
      "type": "function"
    },
    {
      "constant": false,
      "inputs": [
        {
          "internalType": "address",
          "name": "",
          "type": "address"
        },
        {
          "internalType": "address",
          "name": "",
          "type": "address"
        },
        {
          "internalType": "uint256",
          "name": "",
          "type": "uint256"
        },
        {
          "internalType": "bytes",
          "name": "",
          "type": "bytes"
        }
      ],
      "name": "onERC721Received",
      "outputs": [
        {
          "internalType": "bytes4",
          "name": "",
          "type": "bytes4"
        }
      ],
      "payable": false,
      "stateMutability": "nonpayable",
      "type": "function"
    },
    {
      "constant": true,
      "inputs": [],
      "name": "owner",
      "outputs": [
        {
          "internalType": "address",
          "name": "",
          "type": "address"
        }
      ],
      "payable": false,
      "stateMutability": "view",
      "type": "function"
    },
    {
      "constant": true,
      "inputs": [],
      "name": "registry",
      "outputs": [
        {
          "internalType": "contract Registry",
          "name": "",
          "type": "address"
        }
      ],
      "payable": false,
      "stateMutability": "view",
      "type": "function"
    },
    {
      "constant": false,
      "inputs": [],
      "name": "renounceOwnership",
      "outputs": [],
      "payable": false,
      "stateMutability": "nonpayable",
      "type": "function"
    },
    {
      "constant": true,
      "inputs": [],
      "name": "rootChain",
      "outputs": [
        {
          "internalType": "contract RootChain",
          "name": "",
          "type": "address"
        }
      ],
      "payable": false,
      "stateMutability": "view",
      "type": "function"
    },
    {
      "constant": true,
      "inputs": [],
      "name": "stateSender",
      "outputs": [
        {
          "internalType": "contract StateSender",
          "name": "",
          "type": "address"
        }
      ],
      "payable": false,
      "stateMutability": "view",
      "type": "function"
    },
    {
      "constant": false,
      "inputs": [
        {
          "internalType": "address",
          "name": "newOwner",
          "type": "address"
        }
      ],
      "name": "transferOwnership",
      "outputs": [],
      "payable": false,
      "stateMutability": "nonpayable",
      "type": "function"
    },
    {
      "constant": false,
      "inputs": [],
      "name": "unlock",
      "outputs": [],
      "payable": false,
      "stateMutability": "nonpayable",
      "type": "function"
    },
    {
      "constant": false,
      "inputs": [
        {
          "internalType": "uint256",
          "name": "maxDepositAmount",
          "type": "uint256"
        }
      ],
      "name": "updateMaxErc20Deposit",
      "outputs": [],
      "payable": false,
      "stateMutability": "nonpayable",
      "type": "function"
    },
    {
      "constant": false,
      "inputs": [
        {
          "internalType": "address",
          "name": "_token",
          "type": "address"
        },
        {
          "internalType": "address",
          "name": "_user",
          "type": "address"
        },
        {
          "internalType": "uint256",
          "name": "_amountOrNFTId",
          "type": "uint256"
        }
      ],
      "name": "transferAssets",
      "outputs": [],
      "payable": false,
      "stateMutability": "nonpayable",
      "type": "function"
    },
    {
      "constant": false,
      "inputs": [
        {
          "internalType": "address",
          "name": "_token",
          "type": "address"
        },
        {
          "internalType": "uint256",
          "name": "_amount",
          "type": "uint256"
        }
      ],
      "name": "depositERC20",
      "outputs": [],
      "payable": false,
      "stateMutability": "nonpayable",
      "type": "function"
    },
    {
      "constant": false,
      "inputs": [
        {
          "internalType": "address",
          "name": "_token",
          "type": "address"
        },
        {
          "internalType": "uint256",
          "name": "_tokenId",
          "type": "uint256"
        }
      ],
      "name": "depositERC721",
      "outputs": [],
      "payable": false,
      "stateMutability": "nonpayable",
      "type": "function"
    },
    {
      "constant": false,
      "inputs": [
        {
          "internalType": "address[]",
          "name": "_tokens",
          "type": "address[]"
        },
        {
          "internalType": "uint256[]",
          "name": "_amountOrTokens",
          "type": "uint256[]"
        },
        {
          "internalType": "address",
          "name": "_user",
          "type": "address"
        }
      ],
      "name": "depositBulk",
      "outputs": [],
      "payable": false,
      "stateMutability": "nonpayable",
      "type": "function"
    },
    {
      "constant": false,
      "inputs": [],
      "name": "updateChildChainAndStateSender",
      "outputs": [],
      "payable": false,
      "stateMutability": "nonpayable",
      "type": "function"
    },
    {
      "constant": false,
      "inputs": [
        {
          "internalType": "address",
          "name": "_token",
          "type": "address"
        },
        {
          "internalType": "address",
          "name": "_user",
          "type": "address"
        },
        {
          "internalType": "uint256",
          "name": "_amount",
          "type": "uint256"
        }
      ],
      "name": "depositERC20ForUser",
      "outputs": [],
      "payable": false,
      "stateMutability": "nonpayable",
      "type": "function"
    },
    {
      "constant": false,
      "inputs": [
        {
          "internalType": "address",
          "name": "_token",
          "type": "address"
        },
        {
          "internalType": "address",
          "name": "_user",
          "type": "address"
        },
        {
          "internalType": "uint256",
          "name": "_tokenId",
          "type": "uint256"
        }
      ],
      "name": "depositERC721ForUser",
      "outputs": [],
      "payable": false,
      "stateMutability": "nonpayable",
      "type": "function"
    },
    {
      "constant": false,
      "inputs": [],
      "name": "depositEther",
      "outputs": [],
      "payable": true,
      "stateMutability": "payable",
      "type": "function"
    },
    {
      "constant": false,
      "inputs": [
        {
          "internalType": "address",
          "name": "_rootChain",
          "type": "address"
        }
      ],
      "name": "updateRootChain",
      "outputs": [],
      "payable": false,
      "stateMutability": "nonpayable",
      "type": "function"
    }
  ],
  "bytecode": "0x608060405268056bc75e2d6310000060085534801561001d57600080fd5b50600080546001600160a01b031916331780825560405182916001600160a01b03169082907f8be0079c531659141344cd1fd0a4f28419497f9722a3daafe3b4186f6b6457e0908290a3600280546001600160a01b0319166001600160a01b039290921691909117905550611866806100976000396000f3fe6080604052600436106101665760003560e01c80638f32d59b116100d1578063cb10f94c1161008a578063e7af7ba111610064578063e7af7ba1146105f7578063f22037111461061e578063f2fde38b14610651578063f83d08ba1461068457610166565b8063cb10f94c14610594578063cf309012146105a9578063d29a4bf6146105be57610166565b80638f32d59b146104c557806397feb926146104ee578063987ab9db1461052757806398ea5fca14610166578063a69df4b51461053c578063b02c43d01461055157610166565b80635aa6e675116101235780635aa6e67514610356578063715018a61461036b5780637b103999146103805780637b1f7117146103955780638b9e4f931461046d5780638da5cb5b146104b057610166565b8063072b153514610170578063150b7a02146101b357806342be8379146102a357806342fc47fb146102b857806349f4cc17146102e95780634b56c0711461032c575b61016e610699565b005b34801561017c57600080fd5b5061016e6004803603606081101561019357600080fd5b506001600160a01b0381358116916020810135909116906040013561077b565b3480156101bf57600080fd5b50610286600480360360808110156101d657600080fd5b6001600160a01b0382358116926020810135909116916040820135919081019060808101606082013564010000000081111561021157600080fd5b82018360208201111561022357600080fd5b8035906020019184600183028401116401000000008311171561024557600080fd5b91908080601f01602080910402602001604051908101604052809392919081815260200183838082843760009201919091525092955061084d945050505050565b604080516001600160e01b03199092168252519081900360200190f35b3480156102af57600080fd5b5061016e61085d565b3480156102c457600080fd5b506102cd61096e565b604080516001600160a01b039092168252519081900360200190f35b3480156102f557600080fd5b5061016e6004803603606081101561030c57600080fd5b506001600160a01b0381358116916020810135909116906040013561097d565b34801561033857600080fd5b5061016e6004803603602081101561034f57600080fd5b5035610d0e565b34801561036257600080fd5b506102cd610d54565b34801561037757600080fd5b5061016e610d63565b34801561038c57600080fd5b506102cd610dbe565b3480156103a157600080fd5b5061016e600480360360608110156103b857600080fd5b8101906020810181356401000000008111156103d357600080fd5b8201836020820111156103e557600080fd5b8035906020019184602083028401116401000000008311171561040757600080fd5b91939092909160208101903564010000000081111561042557600080fd5b82018360208201111561043757600080fd5b8035906020019184602083028401116401000000008311171561045957600080fd5b9193509150356001600160a01b0316610dcd565b34801561047957600080fd5b5061016e6004803603606081101561049057600080fd5b506001600160a01b03813581169160208101359091169060400135611037565b3480156104bc57600080fd5b506102cd6110a9565b3480156104d157600080fd5b506104da6110b8565b604080519115158252519081900360200190f35b3480156104fa57600080fd5b5061016e6004803603604081101561051157600080fd5b506001600160a01b0381351690602001356110c9565b34801561053357600080fd5b506102cd6110d4565b34801561054857600080fd5b5061016e6110e3565b34801561055d57600080fd5b5061057b6004803603602081101561057457600080fd5b50356110f5565b6040805192835260208301919091528051918290030190f35b3480156105a057600080fd5b506102cd61110e565b3480156105b557600080fd5b506104da61111d565b3480156105ca57600080fd5b5061016e600480360360408110156105e157600080fd5b506001600160a01b03813516906020013561112d565b34801561060357600080fd5b5061060c611138565b60408051918252519081900360200190f35b34801561062a57600080fd5b5061016e6004803603602081101561064157600080fd5b50356001600160a01b031661113e565b34801561065d57600080fd5b5061016e6004803603602081101561067457600080fd5b50356001600160a01b0316611171565b34801561069057600080fd5b5061016e61118e565b60035460408051638b9c948960e01b815290516000926001600160a01b031691638b9c9489916004808301926020929190829003018186803b1580156106de57600080fd5b505afa1580156106f2573d6000803e3d6000fd5b505050506040513d602081101561070857600080fd5b505160408051630d0e30db60e41b8152905191925082916001600160a01b0383169163d0e30db091349160048082019260009290919082900301818588803b15801561075357600080fd5b505af1158015610767573d6000803e3d6000fd5b505050505061077733833461119e565b5050565b600354604080516301f07db560e01b81526001600160a01b038681166004830152915191909216916301f07db5916024808301926020929190829003018186803b1580156107c857600080fd5b505afa1580156107dc573d6000803e3d6000fd5b505050506040513d60208110156107f257600080fd5b5051610832576040805162461bcd60e51b815260206004820152600a6024820152696e6f742065726337323160b01b604482015290519081900360640190fd5b61083d3384836112fc565b61084882848361119e565b505050565b630a85bd0160e11b949350505050565b60035460408051630c91702f60e31b8152815160009384936001600160a01b039091169263648b81789260048083019392829003018186803b1580156108a257600080fd5b505afa1580156108b6573d6000803e3d6000fd5b505050506040513d60408110156108cc57600080fd5b50805160209091015160055491935091506001600160a01b03808316911614158061090557506007546001600160a01b03838116911614155b6109405760405162461bcd60e51b815260040180806020018281038252603e8152602001806117ce603e913960400191505060405180910390fd5b600780546001600160a01b039384166001600160a01b03199182161790915560058054929093169116179055565b6007546001600160a01b031681565b600354604080516337b1d58560e01b815233600482015290516001600160a01b03909216916337b1d58591602480820192602092909190829003018186803b1580156109c857600080fd5b505afa1580156109dc573d6000803e3d6000fd5b505050506040513d60208110156109f257600080fd5b505160038111156109ff57fe5b60ff16610a4b576040805162461bcd60e51b81526020600482015260156024820152744e6f7420612076616c69642070726564696361746560581b604482015290519081900360640190fd5b60035460408051638b9c948960e01b815290516000926001600160a01b031691638b9c9489916004808301926020929190829003018186803b158015610a9057600080fd5b505afa158015610aa4573d6000803e3d6000fd5b505050506040513d6020811015610aba57600080fd5b5051600354604080516336a8279560e21b81526001600160a01b038881166004830152915193945091169163daa09e5491602480820192602092909190829003018186803b158015610b0b57600080fd5b505afa158015610b1f573d6000803e3d6000fd5b505050506040513d6020811015610b3557600080fd5b505115610bb157604080516323b872dd60e01b81523060048201526001600160a01b038581166024830152604482018590529151918616916323b872dd9160648082019260009290919082900301818387803b158015610b9457600080fd5b505af1158015610ba8573d6000803e3d6000fd5b50505050610d08565b806001600160a01b0316846001600160a01b03161415610c395760408051627b8a6760e11b8152600481018490526001600160a01b0385811660248301529151869283169162f714ce91604480830192600092919082900301818387803b158015610c1b57600080fd5b505af1158015610c2f573d6000803e3d6000fd5b5050505050610d08565b836001600160a01b031663a9059cbb84846040518363ffffffff1660e01b815260040180836001600160a01b03166001600160a01b0316815260200182815260200192505050602060405180830381600087803b158015610c9957600080fd5b505af1158015610cad573d6000803e3d6000fd5b505050506040513d6020811015610cc357600080fd5b5051610d08576040805162461bcd60e51b815260206004820152600f60248201526e1514905394d1915497d19052531151608a1b604482015290519081900360640190fd5b50505050565b610d16611371565b80610d2057600080fd5b6008546040518291907f010c0265813c273963aa5e8683cf5c45a3b744ba6369c22af0958ec5fcf16b2090600090a3600855565b6002546001600160a01b031681565b610d6b6110b8565b610d7457600080fd5b600080546040516001600160a01b03909116907f8be0079c531659141344cd1fd0a4f28419497f9722a3daafe3b4186f6b6457e0908390a3600080546001600160a01b0319169055565b6003546001600160a01b031681565b610dd56113ba565b838214610e19576040805162461bcd60e51b815260206004820152600d60248201526c125b9d985b1a5908125b9c1d5d609a1b604482015290519081900360640190fd5b6004805460408051635391f48360e01b8152928301879052516000926001600160a01b0390921691635391f48391602480830192602092919082900301818787803b158015610e6757600080fd5b505af1158015610e7b573d6000803e3d6000fd5b505050506040513d6020811015610e9157600080fd5b50516003549091506001600160a01b031660005b8681101561102d57816001600160a01b03166301f07db5898984818110610ec857fe5b905060200201356001600160a01b03166040518263ffffffff1660e01b815260040180826001600160a01b03166001600160a01b0316815260200191505060206040518083038186803b158015610f1e57600080fd5b505afa158015610f32573d6000803e3d6000fd5b505050506040513d6020811015610f4857600080fd5b505115610f8c57610f8733898984818110610f5f57fe5b905060200201356001600160a01b0316888885818110610f7b57fe5b905060200201356112fc565b610fd9565b610fd93330888885818110610f9d57fe5b905060200201358b8b86818110610fb057fe5b905060200201356001600160a01b03166001600160a01b0316611402909392919063ffffffff16565b61101284898984818110610fe957fe5b905060200201356001600160a01b031688888581811061100557fe5b905060200201358661145c565b61102383600163ffffffff61162616565b9250600101610ea5565b5050505050505050565b60085481111561108e576040805162461bcd60e51b815260206004820152601d60248201527f657863656564206d6178696d756d206465706f73697420616d6f756e74000000604482015290519081900360640190fd5b61083d6001600160a01b03841633308463ffffffff61140216565b6000546001600160a01b031690565b6000546001600160a01b0316331490565b610777823383611037565b6004546001600160a01b031681565b6110eb611371565b6110f361163f565b565b6006602052600090815260409020805460019091015482565b6005546001600160a01b031681565b600154600160a01b900460ff1681565b61077782338361077b565b60085481565b6111466110b8565b61114f57600080fd5b600480546001600160a01b0319166001600160a01b0392909216919091179055565b6111796110b8565b61118257600080fd5b61118b8161164e565b50565b611196611371565b6110f36116bc565b6111a66113ba565b60035460408051636416c18360e01b81526001600160a01b038086166004830152915185939290921691636416c18391602480820192602092909190829003018186803b1580156111f657600080fd5b505afa15801561120a573d6000803e3d6000fd5b505050506040513d602081101561122057600080fd5b5051611269576040805162461bcd60e51b81526020600482015260136024820152721513d2d15397d393d517d4d5541413d4951151606a1b604482015290519081900360640190fd5b610d08848484600460009054906101000a90046001600160a01b03166001600160a01b0316635391f48360016040518263ffffffff1660e01b815260040180828152602001915050602060405180830381600087803b1580156112cb57600080fd5b505af11580156112df573d6000803e3d6000fd5b505050506040513d60208110156112f557600080fd5b505161145c565b60408051632142170760e11b81526001600160a01b038581166004830152306024830152604482018490529151918416916342842e0e9160648082019260009290919082900301818387803b15801561135457600080fd5b505af1158015611368573d6000803e3d6000fd5b50505050505050565b6002546001600160a01b031633146110f35760405162461bcd60e51b815260040180806020018281038252602681526020018061180c6026913960400191505060405180910390fd5b600154600160a01b900460ff16156110f3576040805162461bcd60e51b81526020600482015260066024820152651b1bd8dad95960d21b604482015290519081900360640190fd5b604080516001600160a01b0385811660248301528416604482015260648082018490528251808303909101815260849091019091526020810180516001600160e01b03166323b872dd60e01b179052610d089085906116d1565b604080518082018252606086811b6bffffffffffffffffffffffff199081168284015286821b16607483015260888083018690528351808403909101815260a883018452805160209182012083524281840190815260008681526006835285812094518555905160019094019390935560055460075485516001600160a01b03808c1682860152808b168289015294810189905260808082018990528751808303909101815260a082018089526316f1983160e01b905291851660a4820181815260c48301988952835160e4840152835196909416976316f198319791969395909361010490930192908601918190849084905b83811015611568578181015183820152602001611550565b50505050905090810190601f1680156115955780820380516001836020036101000a031916815260200191505b509350505050600060405180830381600087803b1580156115b557600080fd5b505af11580156115c9573d6000803e3d6000fd5b50505050826001600160a01b0316846001600160a01b03167f1dadc8d0683c6f9824e885935c1bec6f76816730dcec148dda8cf25a7b9f797b8484604051808381526020018281526020019250505060405180910390a350505050565b60008282018381101561163857600080fd5b9392505050565b6001805460ff60a01b19169055565b6001600160a01b03811661166157600080fd5b600080546040516001600160a01b03808516939216917f8be0079c531659141344cd1fd0a4f28419497f9722a3daafe3b4186f6b6457e091a3600080546001600160a01b0319166001600160a01b0392909216919091179055565b6001805460ff60a01b1916600160a01b179055565b6116e3826001600160a01b03166117c7565b6116ec57600080fd5b60006060836001600160a01b0316836040518082805190602001908083835b6020831061172a5780518252601f19909201916020918201910161170b565b6001836020036101000a0380198251168184511680821785525050505050509050019150506000604051808303816000865af19150503d806000811461178c576040519150601f19603f3d011682016040523d82523d6000602084013e611791565b606091505b5091509150816117a057600080fd5b805115610d08578080602001905160208110156117bc57600080fd5b5051610d0857600080fd5b3b15159056fe41746c65617374206f6e65206f6620737461746553656e646572206f72206368696c64436861696e20616464726573732073686f756c64206368616e67654f6e6c7920676f7665726e616e636520636f6e747261637420697320617574686f72697a6564a265627a7a72315820a9f623dda53879882bdce8c957406a9051d8a681ef4a71e7f453a0f31b65062c64736f6c63430005110032",
  "source": "pragma solidity ^0.5.2;\n\nimport {ERC721Holder} from \"openzeppelin-solidity/contracts/token/ERC721/ERC721Holder.sol\";\nimport {IERC20} from \"openzeppelin-solidity/contracts/token/ERC20/IERC20.sol\";\nimport {IERC721} from \"openzeppelin-solidity/contracts/token/ERC721/IERC721.sol\";\nimport {SafeMath} from \"openzeppelin-solidity/contracts/math/SafeMath.sol\";\nimport {SafeERC20} from \"openzeppelin-solidity/contracts/token/ERC20/SafeERC20.sol\";\n\nimport {Registry} from \"../../common/Registry.sol\";\nimport {WETH} from \"../../common/tokens/WETH.sol\";\nimport {IDepositManager} from \"./IDepositManager.sol\";\nimport {DepositManagerStorage} from \"./DepositManagerStorage.sol\";\nimport {StateSender} from \"../stateSyncer/StateSender.sol\";\nimport {GovernanceLockable} from \"../../common/mixin/GovernanceLockable.sol\";\nimport {RootChain} from \"../RootChain.sol\";\n\n\ncontract DepositManager is DepositManagerStorage, IDepositManager, ERC721Holder {\n    using SafeMath for uint256;\n    using SafeERC20 for IERC20;\n\n    modifier isTokenMapped(address _token) {\n        require(registry.isTokenMapped(_token), \"TOKEN_NOT_SUPPORTED\");\n        _;\n    }\n\n    modifier isPredicateAuthorized() {\n        require(uint8(registry.predicates(msg.sender)) != 0, \"Not a valid predicate\");\n        _;\n    }\n\n    constructor() public GovernanceLockable(address(0x0)) {}\n\n    // deposit ETH by sending to this contract\n    function() external payable {\n        depositEther();\n    }\n\n    function updateMaxErc20Deposit(uint256 maxDepositAmount) public onlyGovernance {\n        require(maxDepositAmount != 0);\n        emit MaxErc20DepositUpdate(maxErc20Deposit, maxDepositAmount);\n        maxErc20Deposit = maxDepositAmount;\n    }\n\n    function transferAssets(\n        address _token,\n        address _user,\n        uint256 _amountOrNFTId\n    ) external isPredicateAuthorized {\n        address wethToken = registry.getWethTokenAddress();\n        if (registry.isERC721(_token)) {\n            IERC721(_token).transferFrom(address(this), _user, _amountOrNFTId);\n        } else if (_token == wethToken) {\n            WETH t = WETH(_token);\n            t.withdraw(_amountOrNFTId, _user);\n        } else {\n            require(IERC20(_token).transfer(_user, _amountOrNFTId), \"TRANSFER_FAILED\");\n        }\n    }\n\n    function depositERC20(address _token, uint256 _amount) external {\n        depositERC20ForUser(_token, msg.sender, _amount);\n    }\n\n    function depositERC721(address _token, uint256 _tokenId) external {\n        depositERC721ForUser(_token, msg.sender, _tokenId);\n    }\n\n    function depositBulk(\n        address[] calldata _tokens,\n        uint256[] calldata _amountOrTokens,\n        address _user\n    )\n        external\n        onlyWhenUnlocked // unlike other deposit functions, depositBulk doesn't invoke _safeCreateDepositBlock\n    {\n        require(_tokens.length == _amountOrTokens.length, \"Invalid Input\");\n        uint256 depositId = rootChain.updateDepositId(_tokens.length);\n        Registry _registry = registry;\n\n        for (uint256 i = 0; i < _tokens.length; i++) {\n            // will revert if token is not mapped\n            if (_registry.isTokenMappedAndIsErc721(_tokens[i])) {\n                _safeTransferERC721(msg.sender, _tokens[i], _amountOrTokens[i]);\n            } else {\n                IERC20(_tokens[i]).safeTransferFrom(msg.sender, address(this), _amountOrTokens[i]);\n            }\n\n            _createDepositBlock(_user, _tokens[i], _amountOrTokens[i], depositId);\n            depositId = depositId.add(1);\n        }\n    }\n\n    /**\n     * @dev Caches childChain and stateSender (frequently used variables) from registry\n     */\n    function updateChildChainAndStateSender() public {\n        (address _childChain, address _stateSender) = registry.getChildChainAndStateSender();\n        require(\n            _stateSender != address(stateSender) || _childChain != childChain,\n            \"Atleast one of stateSender or childChain address should change\"\n        );\n        childChain = _childChain;\n        stateSender = StateSender(_stateSender);\n    }\n\n    function depositERC20ForUser(\n        address _token,\n        address _user,\n        uint256 _amount\n    ) public {\n        require(_amount <= maxErc20Deposit, \"exceed maximum deposit amount\");\n        IERC20(_token).safeTransferFrom(msg.sender, address(this), _amount);\n        _safeCreateDepositBlock(_user, _token, _amount);\n    }\n\n    function depositERC721ForUser(\n        address _token,\n        address _user,\n        uint256 _tokenId\n    ) public {\n        require(registry.isTokenMappedAndIsErc721(_token), \"not erc721\");\n\n        _safeTransferERC721(msg.sender, _token, _tokenId);\n        _safeCreateDepositBlock(_user, _token, _tokenId);\n    }\n\n    // @todo: write depositEtherForUser\n    function depositEther() public payable {\n        address wethToken = registry.getWethTokenAddress();\n        WETH t = WETH(wethToken);\n        t.deposit.value(msg.value)();\n        _safeCreateDepositBlock(msg.sender, wethToken, msg.value);\n    }\n\n    function _safeCreateDepositBlock(\n        address _user,\n        address _token,\n        uint256 _amountOrToken\n    ) internal onlyWhenUnlocked isTokenMapped(_token) {\n        _createDepositBlock(\n            _user,\n            _token,\n            _amountOrToken,\n            rootChain.updateDepositId(1) /* returns _depositId */\n        );\n    }\n\n    function _createDepositBlock(\n        address _user,\n        address _token,\n        uint256 _amountOrToken,\n        uint256 _depositId\n    ) internal {\n        deposits[_depositId] = DepositBlock(keccak256(abi.encodePacked(_user, _token, _amountOrToken)), now);\n        stateSender.syncState(childChain, abi.encode(_user, _token, _amountOrToken, _depositId));\n        emit NewDepositBlock(_user, _token, _amountOrToken, _depositId);\n    }\n\n    // Housekeeping function. @todo remove later\n    function updateRootChain(address _rootChain) public onlyOwner {\n        rootChain = RootChain(_rootChain);\n    }\n\n    function _safeTransferERC721(address _user, address _token, uint256 _tokenId) private {\n        IERC721(_token).safeTransferFrom(_user, address(this), _tokenId);\n    }\n}\n",
  "sourcePath": "/Users/ohm.jirapon/playground/blockhain/pos/plasma-ploygon/contracts/contracts/root/depositManager/DepositManager.sol",
  "compiler": {
    "name": "solc",
    "version": "0.5.17+commit.d19bba13.Linux.g++"
  },
  "schemaVersion": "3.4.7",
  "updatedAt": "2022-07-08T08:23:54.198Z",
  "devdoc": {
    "methods": {
      "isOwner()": {
        "return": "true if `msg.sender` is the owner of the contract."
      },
      "owner()": {
        "return": "the address of the owner."
      },
      "renounceOwnership()": {
        "details": "Allows the current owner to relinquish control of the contract. It will not be possible to call the functions with the `onlyOwner` modifier anymore."
      },
      "transferOwnership(address)": {
        "details": "Allows the current owner to transfer control of the contract to a newOwner.",
        "params": {
          "newOwner": "The address to transfer ownership to."
        }
      },
      "updateChildChainAndStateSender()": {
        "details": "Caches childChain and stateSender (frequently used variables) from registry"
      }
    }
  },
  "userdoc": {
    "methods": {
      "renounceOwnership()": {
        "notice": "Renouncing ownership will leave the contract without an owner, thereby removing any functionality that is only available to the owner."
      }
    }
  }
}