{
  "contractName": "ERC20PredicateBurnOnly",
  "abi": [
    {
      "inputs": [
        {
          "internalType": "address",
          "name": "_withdrawManager",
          "type": "address"
        },
        {
          "internalType": "address",
          "name": "_depositManager",
          "type": "address"
        }
      ],
      "payable": false,
      "stateMutability": "nonpayable",
      "type": "constructor"
    },
    {
      "constant": true,
      "inputs": [],
      "name": "CHAINID",
      "outputs": [
        {
          "internalType": "uint256",
          "name": "",
          "type": "uint256"
        }
      ],
      "payable": false,
      "stateMutability": "view",
      "type": "function"
    },
    {
      "constant": true,
      "inputs": [],
      "name": "networkId",
      "outputs": [
        {
          "internalType": "bytes",
          "name": "",
          "type": "bytes"
        }
      ],
      "payable": false,
      "stateMutability": "view",
      "type": "function"
    },
    {
      "constant": false,
      "inputs": [
        {
          "internalType": "bytes",
          "name": "data",
          "type": "bytes"
        }
      ],
      "name": "onFinalizeExit",
      "outputs": [],
      "payable": false,
      "stateMutability": "nonpayable",
      "type": "function"
    },
    {
      "constant": false,
      "inputs": [
        {
          "internalType": "bytes",
          "name": "data",
          "type": "bytes"
        }
      ],
      "name": "startExitWithBurntTokens",
      "outputs": [],
      "payable": false,
      "stateMutability": "nonpayable",
      "type": "function"
    },
    {
      "constant": false,
      "inputs": [
        {
          "internalType": "bytes",
          "name": "exit",
          "type": "bytes"
        },
        {
          "internalType": "bytes",
          "name": "inputUtxo",
          "type": "bytes"
        },
        {
          "internalType": "bytes",
          "name": "challengeData",
          "type": "bytes"
        }
      ],
      "name": "verifyDeprecation",
      "outputs": [
        {
          "internalType": "bool",
          "name": "",
          "type": "bool"
        }
      ],
      "payable": false,
      "stateMutability": "nonpayable",
      "type": "function"
    },
    {
      "constant": true,
      "inputs": [
        {
          "internalType": "bytes",
          "name": "state",
          "type": "bytes"
        }
      ],
      "name": "interpretStateUpdate",
      "outputs": [
        {
          "internalType": "bytes",
          "name": "",
          "type": "bytes"
        }
      ],
      "payable": false,
      "stateMutability": "view",
      "type": "function"
    }
  ],
  "bytecode": "0x608060405234801561001057600080fd5b506040516110173803806110178339818101604052604081101561003357600080fd5b508051602090910151600080546001600160a01b039384166001600160a01b03199182161790915560018054939092169216919091179055610f9d8061007a6000396000f3fe608060405234801561001057600080fd5b50600436106100625760003560e01c80637bd94e03146100675780637c5264b4146100d757806382e3464c146101455780639025e64c14610228578063cc79f97b14610230578063ec58410c1461024a575b600080fd5b6100d56004803603602081101561007d57600080fd5b810190602081018135600160201b81111561009757600080fd5b8201836020820111156100a957600080fd5b803590602001918460018302840111600160201b831117156100ca57600080fd5b50909250905061036c565b005b6100d5600480360360208110156100ed57600080fd5b810190602081018135600160201b81111561010757600080fd5b82018360208201111561011957600080fd5b803590602001918460018302840111600160201b8311171561013a57600080fd5b50909250905061048a565b6101b36004803603602081101561015b57600080fd5b810190602081018135600160201b81111561017557600080fd5b82018360208201111561018757600080fd5b803590602001918460018302840111600160201b831117156101a857600080fd5b5090925090506107ef565b6040805160208082528351818301528351919283929083019185019080838360005b838110156101ed5781810151838201526020016101d5565b50505050905090810190601f16801561021a5780820380516001836020036101000a031916815260200191505b509250505060405180910390f35b6101b36107f7565b610238610816565b60408051918252519081900360200190f35b6103586004803603606081101561026057600080fd5b810190602081018135600160201b81111561027a57600080fd5b82018360208201111561028c57600080fd5b803590602001918460018302840111600160201b831117156102ad57600080fd5b919390929091602081019035600160201b8111156102ca57600080fd5b8201836020820111156102dc57600080fd5b803590602001918460018302840111600160201b831117156102fd57600080fd5b919390929091602081019035600160201b81111561031a57600080fd5b82018360208201111561032c57600080fd5b803590602001918460018302840111600160201b8311171561034d57600080fd5b50909250905061081d565b604080519115158252519081900360200190f35b6000546001600160a01b031633146103c3576040805162461bcd60e51b815260206004820152601560248201527427a7262cafaba4aa24222920abafa6a0a720a3a2a960591b604482015290519081900360640190fd5b600080600061040785858080601f01602080910402602001604051908101604052809392919081815260200183838082843760009201919091525061082992505050565b600154604080516349f4cc1760e01b81526001600160a01b03808716600483015280861660248301526044820185905291519599509397509195501692506349f4cc1791606480830192600092919082900301818387803b15801561046b57600080fd5b505af115801561047f573d6000803e3d6000fd5b505050505050505050565b610492610ed2565b6104d183838080601f01602080910402602001604051908101604052809392919081815260200183838082843760009201919091525061086692505050565b90506104db610ee5565b6104e482610898565b905060006104f18361097a565b9050600a8110610548576040805162461bcd60e51b815260206004820152601b60248201527f537570706f7274696e672061206d6178206f66203130206c6f67730000000000604482015290519081900360640190fd5b6000805460405163ad1d806960e01b81526024810183905260448101839052606060048201908152606482018890526001600160a01b039092169163ad1d80699189918991869182918190608401868680828437600081840152601f19601f8201169050808301925050509550505050505060206040518083038186803b1580156105d257600080fd5b505afa1580156105e6573d6000803e3d6000fd5b505050506040513d60208110156105fc57600080fd5b50519050610608610f06565b610611846109a3565b9050600061061e82610a10565b9050610628610ed2565b61063183610a33565b90507febff2602b3f468259e1e99f613fed6691f3a6526effe6ef3e768ba7ae7a36c4f61066d61066883600063ffffffff610a6216565b610a88565b146106bf576040805162461bcd60e51b815260206004820152601e60248201527f4e6f742061207769746864726177206576656e74207369676e61747572650000604482015290519081900360640190fd5b6106d361066882600263ffffffff610a6216565b6001600160a01b0316336001600160a01b0316146107225760405162461bcd60e51b8152600401808060200182810382526028815260200180610f416028913960400191505060405180910390fd5b600061073861066883600163ffffffff610a6216565b9050600061074f61074886610ad6565b6000610aec565b600080546040805163d931a86960e01b81523360048201526001600160a01b03898116602483015287811660448301526064820186905260848201859052600160a483018190528c901b60c4830152915194955091169263d931a8699260e48084019391929182900301818387803b1580156107ca57600080fd5b505af11580156107de573d6000803e3d6000fd5b505050505050505050505050505050565b606092915050565b6040518060400160405280600381526020016201752160e91b81525081565b6202ea4281565b60009695505050505050565b60008060008084806020019051608081101561084457600080fd5b5080516020820151604083015160609093015191989097509195509350915050565b61086e610ed2565b606061088161087c84610b08565b610b2d565b60408051602081019091529081529150505b919050565b6108a0610ee5565b6108c182600001516006815181106108b457fe5b6020026020010151610bfe565b60208201526108ce610f26565b6108db8260200151610b08565b90506108e681610c64565b156108fb576108f481610b2d565b8252610966565b606082602001519050606060018251036040519080825280601f01601f191660200182016040528015610935576020820181803883390190505b50905060008083602101915082602001905061095382828551610c9e565b61095f61087c84610b08565b8652505050505b61096f8361097a565b604083015250919050565b600061099d826000015160098151811061099057fe5b6020026020010151610a88565b92915050565b6109ab610f06565b6109b3610f26565b6109d483600001516003815181106109c757fe5b6020026020010151610b2d565b8360400151815181106109e357fe5b602002602001015190506040518060400160405280828152602001610a0783610b2d565b90529392505050565b600061099d8260200151600081518110610a2657fe5b6020026020010151610ce9565b610a3b610ed2565b6040518060200160405280610a5a84602001516001815181106109c757fe5b905292915050565b610a6a610f26565b8251805183908110610a7857fe5b6020026020010151905092915050565b805160009015801590610a9d57508151602110155b610aa657600080fd5b600080610ab284610d03565b815191935091506020821015610ace5760208290036101000a90045b949350505050565b606061099d82602001516002815181106108b457fe5b60008160200183511015610aff57600080fd5b50016020015190565b610b10610f26565b506040805180820190915281518152602082810190820152919050565b6060610b3882610c64565b610b4157600080fd5b6000610b4c83610d29565b9050606081604051908082528060200260200182016040528015610b8a57816020015b610b77610f26565b815260200190600190039081610b6f5790505b5090506000610b9c8560200151610d85565b60208601510190506000805b84811015610bf357610bb983610de8565b9150604051806040016040528083815260200184815250848281518110610bdc57fe5b602090810291909101015291810191600101610ba8565b509195945050505050565b8051606090610c0c57600080fd5b600080610c1884610d03565b915091506060816040519080825280601f01601f191660200182016040528015610c49576020820181803883390190505b50905060208101610c5b848285610e81565b50949350505050565b8051600090610c7557506000610893565b6020820151805160001a9060c0821015610c9457600092505050610893565b5060019392505050565b80610ca857610ce4565b5b60208110610cc8578251825260209283019290910190601f1901610ca9565b8251825160208390036101000a60001901801990921691161782525b505050565b8051600090601514610cfa57600080fd5b61099d82610a88565b6000806000610d158460200151610d85565b602085015194519481019594039392505050565b8051600090610d3a57506000610893565b60008090506000610d4e8460200151610d85565b602085015185519181019250015b80821015610d7c57610d6d82610de8565b60019093019290910190610d5c565b50909392505050565b8051600090811a6080811015610d9f576000915050610893565b60b8811080610dba575060c08110801590610dba575060f881105b15610dc9576001915050610893565b60c0811015610ddd5760b519019050610893565b60f519019050610893565b80516000908190811a6080811015610e035760019150610e7a565b60b8811015610e1857607e1981019150610e7a565b60c0811015610e455760b78103600185019450806020036101000a85510460018201810193505050610e7a565b60f8811015610e5a5760be1981019150610e7a565b60f78103600185019450806020036101000a855104600182018101935050505b5092915050565b80610e8b57610ce4565b5b60208110610eab578251825260209283019290910190601f1901610e8c565b8015610ce457915181516020939093036101000a6000190180199091169216919091179052565b6040518060200160405280606081525090565b60405180606001604052806060815260200160608152602001600081525090565b6040518060400160405280610f19610f26565b8152602001606081525090565b60405180604001604052806000815260200160008152509056fe5769746864726177657220616e64206275726e206578697420747820646f206e6f74206d61746368a265627a7a72315820161a7ed4e49c4997df867b60cefda2a2d88933a58d1887cb7463e9f04dcc12b364736f6c63430005110032",
  "source": "pragma solidity ^0.5.2;\n\nimport {BytesLib} from \"../../common/lib/BytesLib.sol\";\nimport {Common} from \"../../common/lib/Common.sol\";\nimport {Math} from \"openzeppelin-solidity/contracts/math/Math.sol\";\nimport {RLPEncode} from \"../../common/lib/RLPEncode.sol\";\nimport {RLPReader} from \"solidity-rlp/contracts/RLPReader.sol\";\nimport {SafeMath} from \"openzeppelin-solidity/contracts/math/SafeMath.sol\";\nimport {ExitPayloadReader} from \"../../common/lib/ExitPayloadReader.sol\";\nimport {IErcPredicate} from \"./IPredicate.sol\";\nimport {Registry} from \"../../common/Registry.sol\";\nimport {WithdrawManagerHeader} from \"../withdrawManager/WithdrawManagerStorage.sol\";\n\ncontract ERC20PredicateBurnOnly is IErcPredicate {\n    using RLPReader for bytes;\n    using RLPReader for RLPReader.RLPItem;\n    using SafeMath for uint256;\n\n    using ExitPayloadReader for bytes;\n    using ExitPayloadReader for ExitPayloadReader.ExitPayload;\n    using ExitPayloadReader for ExitPayloadReader.Receipt;\n    using ExitPayloadReader for ExitPayloadReader.Log;\n    using ExitPayloadReader for ExitPayloadReader.LogTopics;\n\n    // keccak256('Withdraw(address,address,uint256,uint256,uint256)')\n    bytes32 constant WITHDRAW_EVENT_SIG = 0xebff2602b3f468259e1e99f613fed6691f3a6526effe6ef3e768ba7ae7a36c4f;\n\n    constructor(\n        address _withdrawManager,\n        address _depositManager\n    ) public IErcPredicate(_withdrawManager, _depositManager) {\n    }\n\n    function startExitWithBurntTokens(bytes calldata data) external {\n        ExitPayloadReader.ExitPayload memory payload = data.toExitPayload();\n        ExitPayloadReader.Receipt memory receipt = payload.getReceipt();\n        uint256 logIndex = payload.getReceiptLogIndex();\n        require(logIndex < MAX_LOGS, \"Supporting a max of 10 logs\");\n        uint256 age = withdrawManager.verifyInclusion(\n            data,\n            0, /* offset */\n            false /* verifyTxInclusion */\n        );\n        ExitPayloadReader.Log memory log = receipt.getLog();\n\n        // \"address\" (contract address that emitted the log) field in the receipt\n        address childToken = log.getEmitter();\n        ExitPayloadReader.LogTopics memory topics = log.getTopics();\n        // now, inputItems[i] refers to i-th (0-based) topic in the topics array\n        // event Withdraw(address indexed token, address indexed from, uint256 amountOrTokenId, uint256 input1, uint256 output1)\n        require(\n            bytes32(topics.getField(0).toUint()) == WITHDRAW_EVENT_SIG,\n            \"Not a withdraw event signature\"\n        );\n        require(\n            msg.sender == address(topics.getField(2).toUint()), // from\n            \"Withdrawer and burn exit tx do not match\"\n        );\n        address rootToken = address(topics.getField(1).toUint());\n        uint256 exitAmount = BytesLib.toUint(log.getData(), 0); // amountOrTokenId\n        withdrawManager.addExitToQueue(\n            msg.sender,\n            childToken,\n            rootToken,\n            exitAmount,\n            bytes32(0x0),\n            true, /* isRegularExit */\n            age << 1\n        );\n    }\n\n    function verifyDeprecation(\n        bytes calldata exit,\n        bytes calldata inputUtxo,\n        bytes calldata challengeData\n    ) external returns (bool) {}\n\n    function interpretStateUpdate(bytes calldata state)\n        external\n        view\n        returns (bytes memory) {}\n}\n",
  "sourcePath": "/Users/ohm.jirapon/playground/blockhain/pos/plasma-ploygon/contracts/contracts/root/predicates/ERC20PredicateBurnOnly.sol",
  "compiler": {
    "name": "solc",
    "version": "0.5.17+commit.d19bba13.Linux.g++"
  },
  "schemaVersion": "3.4.7",
  "updatedAt": "2022-07-08T08:23:54.237Z",
  "devdoc": {
    "methods": {}
  },
  "userdoc": {
    "methods": {}
  }
}