{
  "contractName": "ERC20Predicate",
  "abi": [
    {
      "inputs": [
        {
          "internalType": "address",
          "name": "_withdrawManager",
          "type": "address"
        },
        {
          "internalType": "address",
          "name": "_depositManager",
          "type": "address"
        },
        {
          "internalType": "address",
          "name": "_registry",
          "type": "address"
        }
      ],
      "payable": false,
      "stateMutability": "nonpayable",
      "type": "constructor"
    },
    {
      "constant": true,
      "inputs": [],
      "name": "CHAINID",
      "outputs": [
        {
          "internalType": "uint256",
          "name": "",
          "type": "uint256"
        }
      ],
      "payable": false,
      "stateMutability": "view",
      "type": "function"
    },
    {
      "constant": true,
      "inputs": [],
      "name": "networkId",
      "outputs": [
        {
          "internalType": "bytes",
          "name": "",
          "type": "bytes"
        }
      ],
      "payable": false,
      "stateMutability": "view",
      "type": "function"
    },
    {
      "constant": false,
      "inputs": [
        {
          "internalType": "bytes",
          "name": "data",
          "type": "bytes"
        }
      ],
      "name": "onFinalizeExit",
      "outputs": [],
      "payable": false,
      "stateMutability": "nonpayable",
      "type": "function"
    },
    {
      "constant": false,
      "inputs": [
        {
          "internalType": "bytes",
          "name": "data",
          "type": "bytes"
        }
      ],
      "name": "startExitWithBurntTokens",
      "outputs": [],
      "payable": false,
      "stateMutability": "nonpayable",
      "type": "function"
    },
    {
      "constant": false,
      "inputs": [
        {
          "internalType": "bytes",
          "name": "data",
          "type": "bytes"
        },
        {
          "internalType": "bytes",
          "name": "exitTx",
          "type": "bytes"
        }
      ],
      "name": "startExitForOutgoingErc20Transfer",
      "outputs": [
        {
          "internalType": "address",
          "name": "",
          "type": "address"
        },
        {
          "internalType": "uint256",
          "name": "",
          "type": "uint256"
        }
      ],
      "payable": true,
      "stateMutability": "payable",
      "type": "function"
    },
    {
      "constant": false,
      "inputs": [
        {
          "internalType": "bytes",
          "name": "data",
          "type": "bytes"
        },
        {
          "internalType": "bytes",
          "name": "exitTx",
          "type": "bytes"
        }
      ],
      "name": "startExitForIncomingErc20Transfer",
      "outputs": [
        {
          "internalType": "address",
          "name": "",
          "type": "address"
        },
        {
          "internalType": "uint256",
          "name": "",
          "type": "uint256"
        }
      ],
      "payable": true,
      "stateMutability": "payable",
      "type": "function"
    },
    {
      "constant": false,
      "inputs": [
        {
          "internalType": "bytes",
          "name": "exit",
          "type": "bytes"
        },
        {
          "internalType": "bytes",
          "name": "inputUtxo",
          "type": "bytes"
        },
        {
          "internalType": "bytes",
          "name": "challengeData",
          "type": "bytes"
        }
      ],
      "name": "verifyDeprecation",
      "outputs": [
        {
          "internalType": "bool",
          "name": "",
          "type": "bool"
        }
      ],
      "payable": false,
      "stateMutability": "nonpayable",
      "type": "function"
    },
    {
      "constant": true,
      "inputs": [
        {
          "internalType": "bytes",
          "name": "state",
          "type": "bytes"
        }
      ],
      "name": "interpretStateUpdate",
      "outputs": [
        {
          "internalType": "bytes",
          "name": "",
          "type": "bytes"
        }
      ],
      "payable": false,
      "stateMutability": "view",
      "type": "function"
    }
  ],
  "bytecode": "0x608060405234801561001057600080fd5b5060405161353e38038061353e8339818101604052606081101561003357600080fd5b5080516020820151604090920151600080546001600160a01b039384166001600160a01b03199182161790915560018054948416948216949094179093556002805492909116919092161790556134af8061008f6000396000f3fe60806040526004361061007b5760003560e01c806382e3464c1161004e57806382e3464c146103175780639025e64c14610407578063cc79f97b1461041c578063ec58410c146104435761007b565b8063378383b3146100805780633cccdaaf146101615780637bd94e031461021f5780637c5264b41461029c575b600080fd5b61013e6004803603604081101561009657600080fd5b810190602081018135600160201b8111156100b057600080fd5b8201836020820111156100c257600080fd5b803590602001918460018302840111600160201b831117156100e357600080fd5b919390929091602081019035600160201b81111561010057600080fd5b82018360208201111561011257600080fd5b803590602001918460018302840111600160201b8311171561013357600080fd5b509092509050610572565b604080516001600160a01b03909316835260208301919091528051918290030190f35b61013e6004803603604081101561017757600080fd5b810190602081018135600160201b81111561019157600080fd5b8201836020820111156101a357600080fd5b803590602001918460018302840111600160201b831117156101c457600080fd5b919390929091602081019035600160201b8111156101e157600080fd5b8201836020820111156101f357600080fd5b803590602001918460018302840111600160201b8311171561021457600080fd5b509092509050610bf3565b34801561022b57600080fd5b5061029a6004803603602081101561024257600080fd5b810190602081018135600160201b81111561025c57600080fd5b82018360208201111561026e57600080fd5b803590602001918460018302840111600160201b8311171561028f57600080fd5b509092509050610fb3565b005b3480156102a857600080fd5b5061029a600480360360208110156102bf57600080fd5b810190602081018135600160201b8111156102d957600080fd5b8201836020820111156102eb57600080fd5b803590602001918460018302840111600160201b8311171561030c57600080fd5b5090925090506110d1565b34801561032357600080fd5b506103926004803603602081101561033a57600080fd5b810190602081018135600160201b81111561035457600080fd5b82018360208201111561036657600080fd5b803590602001918460018302840111600160201b8311171561038757600080fd5b50909250905061147b565b6040805160208082528351818301528351919283929083019185019080838360005b838110156103cc5781810151838201526020016103b4565b50505050905090810190601f1680156103f95780820380516001836020036101000a031916815260200191505b509250505060405180910390f35b34801561041357600080fd5b5061039261184a565b34801561042857600080fd5b50610431611869565b60408051918252519081900360200190f35b34801561044f57600080fd5b5061055e6004803603606081101561046657600080fd5b810190602081018135600160201b81111561048057600080fd5b82018360208201111561049257600080fd5b803590602001918460018302840111600160201b831117156104b357600080fd5b919390929091602081019035600160201b8111156104d057600080fd5b8201836020820111156104e257600080fd5b803590602001918460018302840111600160201b8311171561050357600080fd5b919390929091602081019035600160201b81111561052057600080fd5b82018360208201111561053257600080fd5b803590602001918460018302840111600160201b8311171561055357600080fd5b509092509050611870565b604080519115158252519081900360200190f35b60008067016345785d8a000034146105c7576040805162461bcd60e51b8152602060048201526013602482015272125b9d985b1a5908109bdb9908185b5bdd5b9d606a1b604482015290519081900360640190fd5b606061061061060b88888080601f016020809104026020016040519081016040528093929190818152602001838380828437600092019190915250611bc692505050565b611bec565b905061061a613128565b61065986868080601f016020809104026020016040519081016040528093929190818152602001838380828437600092019190915250611cbd92505050565b60608101519091506001600160a01b03163314156106be576040805162461bcd60e51b815260206004820152601e60248201527f53686f756c6420626520616e20696e636f6d696e67207472616e736665720000604482015290519081900360640190fd5b6106c6613154565b61070f6106e6846006815181106106d957fe5b6020026020010151611dce565b610703856009815181106106f657fe5b6020026020010151611e47565b84606001516000611ea5565b905080604001516001600160a01b031682604001516001600160a01b0316146107695760405162461bcd60e51b815260040180806020018281038252603f8152602001806133e6603f913960400191505060405180910390fd5b61077382826120c2565b825260208101516000805460405163ad1d806960e01b81526024810183905260448101839052606060048201908152606482018d905261084194936001600160a01b039093169263ad1d8069928f928f92918291908190608401868680828437600081840152601f19601f8201169050808301925050509550505050505060206040518083038186803b15801561080957600080fd5b505afa15801561081d573d6000803e3d6000fd5b505050506040513d602081101561083357600080fd5b50519063ffffffff61215e16565b602082015261084e613154565b600a845111156109e05761088361086b856010815181106106d957fe5b61087b866013815181106106f657fe5b336000611ea5565b905081604001516001600160a01b031681604001516001600160a01b0316146108dd5760405162461bcd60e51b815260040180806020018281038252602f815260200180613249602f913960400191505060405180910390fd5b81606001516001600160a01b031681606001516001600160a01b0316146109355760405162461bcd60e51b815260040180806020018281038252602e8152602001806133b8602e913960400191505060405180910390fd5b6109da81602001516000809054906101000a90046001600160a01b03166001600160a01b031663ad1d80698d8d600a60006040518563ffffffff1660e01b815260040180806020018460ff168152602001831515151581526020018281038252868682818152602001925080828437600081840152601f19601f8201169050808301925050509550505050505060206040518083038186803b15801561080957600080fd5b60208201525b6109e8612177565b600060016109fe846020015184602001516121b6565b60005460408601516060870151865189519490951b95506001600160a01b039092169363d931a86993339391610a3a919063ffffffff61215e16565b60208a0151604080516001600160e01b031960e089901b1681526001600160a01b039687166004820152948616602486015292909416604484015260648301526084820192909252600060a4820181905260c48201869052915160e4808301939282900301818387803b158015610ab057600080fd5b505af1158015610ac4573d6000803e3d6000fd5b50506000805460208701516060808a015190890151604080516322f192af60e01b8152600481018a905260248101949094526001600160a01b039283166044850152908216606484015251921694506322f192af9350608480820193929182900301818387803b158015610b3757600080fd5b505af1158015610b4b573d6000803e3d6000fd5b50506000805460208601516060880151604080516322f192af60e01b81526004810189905260248101939093523360448401526001600160a01b03918216606484015251921694506322f192af9350608480820193929182900301818387803b158015610bb757600080fd5b505af1158015610bcb573d6000803e3d6000fd5b50505050606083015182518551610be19161215e565b96509650505050505094509492505050565b60008067016345785d8a00003414610c48576040805162461bcd60e51b8152602060048201526013602482015272125b9d985b1a5908109bdb9908185b5bdd5b9d606a1b604482015290519081900360640190fd5b6060610c8c61060b88888080601f016020809104026020016040519081016040528093929190818152602001838380828437600092019190915250611bc692505050565b9050610c96613128565b610cd586868080601f016020809104026020016040519081016040528093929190818152602001838380828437600092019190915250611cbd92505050565b60608101519091506001600160a01b03163314610d39576040805162461bcd60e51b815260206004820152601e60248201527f53686f756c6420626520616e206f7574676f696e67207472616e736665720000604482015290519081900360640190fd5b610d41613154565b610d64610d54846006815181106106d957fe5b61087b856009815181106106f657fe5b905080604001516001600160a01b031682604001516001600160a01b031614610dbe5760405162461bcd60e51b815260040180806020018281038252603f8152602001806133e6603f913960400191505060405180910390fd5b610dc882826120c2565b825260208101516000805460405163ad1d806960e01b81526024810183905260448101839052606060048201908152606482018d9052610e5e94936001600160a01b039093169263ad1d8069928f928f92918291908190608401868680828437600081840152601f19601f8201169050808301925050509550505050505060206040518083038186803b15801561080957600080fd5b6020820152610e6b612177565b602080820151600080546040808601516060870151885196890151835163d931a86960e01b81523360048201526001600160a01b03938416602482015291831660448301526064820197909752608481019690965260a48601849052600194851b90941760c4860181905290519094939091169263d931a8699260e480830193919282900301818387803b158015610f0257600080fd5b505af1158015610f16573d6000803e3d6000fd5b50506000805460208601516060870151604080516322f192af60e01b81526004810189905260248101939093523360448401526001600160a01b03918216606484015251921694506322f192af9350608480820193929182900301818387803b158015610f8257600080fd5b505af1158015610f96573d6000803e3d6000fd5b505050606090920151925192955091935050505094509492505050565b6000546001600160a01b0316331461100a576040805162461bcd60e51b815260206004820152601560248201527427a7262cafaba4aa24222920abafa6a0a720a3a2a960591b604482015290519081900360640190fd5b600080600061104e85858080601f0160208091040260200160405190810160405280939291908181526020018383808284376000920191909152506121cd92505050565b600154604080516349f4cc1760e01b81526001600160a01b03808716600483015280861660248301526044820185905291519599509397509195501692506349f4cc1791606480830192600092919082900301818387803b1580156110b257600080fd5b505af11580156110c6573d6000803e3d6000fd5b505050505050505050565b606061111561060b84848080601f016020809104026020016040519081016040528093929190818152602001838380828437600092019190915250611bc692505050565b90506060611129826006815181106106d957fe5b9050606061113961060b83611bc6565b9050600061114d846009815181106106f657fe5b9050600a81106111a4576040805162461bcd60e51b815260206004820152601b60248201527f537570706f7274696e672061206d6178206f66203130206c6f67730000000000604482015290519081900360640190fd5b6000805460405163ad1d806960e01b81526024810183905260448101839052606060048201908152606482018990526001600160a01b039092169163ad1d8069918a918a91869182918190608401868680828437600081840152601f19601f8201169050808301925050509550505050505060206040518083038186803b15801561122e57600080fd5b505afa158015611242573d6000803e3d6000fd5b505050506040513d602081101561125857600080fd5b5051835190915061128c90611281908590600390811061127457fe5b6020026020010151611bec565b838151811061127457fe5b925060006112ad846000815181106112a057fe5b602002602001015161220a565b905060606112c1856002815181106106d957fe5b90506112d38560018151811061127457fe5b94507febff2602b3f468259e1e99f613fed6691f3a6526effe6ef3e768ba7ae7a36c4f60001b611309866000815181106106f657fe5b1461135b576040805162461bcd60e51b815260206004820152601e60248201527f4e6f742061207769746864726177206576656e74207369676e61747572650000604482015290519081900360640190fd5b600061136d866001815181106106f657fe5b905061137f866002815181106106f657fe5b6001600160a01b0316336001600160a01b0316146113ce5760405162461bcd60e51b81526004018080602001828103825260288152602001806132cd6028913960400191505060405180910390fd5b60006113db836000612224565b600080546040805163d931a86960e01b81523360048201526001600160a01b03898116602483015287811660448301526064820186905260848201859052600160a483018190528b901b60c4830152915194955091169263d931a8699260e48084019391929182900301818387803b15801561145657600080fd5b505af115801561146a573d6000803e3d6000fd5b505050505050505050505050505050565b60608060008060008686608081101561149357600080fd5b810190602081018135600160201b8111156114ad57600080fd5b8201836020820111156114bf57600080fd5b803590602001918460018302840111600160201b831117156114e057600080fd5b91908080601f016020809104026020016040519081016040528093929190818152602001838380828437600092019190915250929950506001600160a01b0383351697505050602081013515159450604001351515925060609150611549905061060b86611bc6565b9050606061155d826006815181106106d957fe5b90506000611571836009815181106106f657fe5b9050600a81106115c8576040805162461bcd60e51b815260206004820152601b60248201527f537570706f7274696e672061206d6178206f66203130206c6f67730000000000604482015290519081900360640190fd5b60606115d661060b84611bc6565b90506115eb6112818260038151811061127457fe5b90506115f5613154565b611605826000815181106112a057fe5b6001600160a01b03166040820152815160609061162990849060029081106106d957fe5b905061163b8360018151811061127457fe5b925061164d836001815181106106f657fe5b6001600160a01b0316606083015286156116705761166b838a612240565b611683565b61167b83828b61236a565b602084015282525b6116a861169785600a63ffffffff6125a216565b60208401519063ffffffff61215e16565b602083015287156117cb576117c56000809054906101000a90046001600160a01b03166001600160a01b031663ad1d80698c6000806040518463ffffffff1660e01b815260040180806020018460ff16815260200183151515158152602001828103825285818151815260200191508051906020019080838360005b8381101561173c578181015183820152602001611724565b50505050905090810190601f1680156117695780820380516001836020036101000a031916815260200191505b5094505050505060206040518083038186803b15801561178857600080fd5b505afa15801561179c573d6000803e3d6000fd5b505050506040513d60208110156117b257600080fd5b505160208401519063ffffffff61215e16565b60208301525b816000015182602001518360400151846060015160405160200180858152602001848152602001836001600160a01b03166001600160a01b03168152602001826001600160a01b03166001600160a01b031681526020019450505050506040516020818303038152906040529a50505050505050505050505b92915050565b6040518060400160405280600381526020016201752160e91b81525081565b6202ea4281565b600061187a61318e565b6118b988888080601f0160208091040260200160405190810160405280939291908181526020018383808284376000920191909152506125c992505050565b905060008060006118ff89898080601f0160208091040260200160405190810160405280939291908181526020018383808284376000920191909152506121cd92505050565b93505092509250606061194a61060b89898080601f016020809104026020016040519081016040528093929190818152602001838380828437600092019190915250611bc692505050565b9050611954613128565b61196c61196783600a815181106106d957fe5b61264d565b9050836001600160a01b031681606001516001600160a01b0316146119c25760405162461bcd60e51b815260040180806020018281038252604a8152602001806131de604a913960600191505060405180910390fd5b6119ca613154565b6119f96119dd846006815181106106d957fe5b6119ed856009815181106106f657fe5b84606001516001611ea5565b9050611aa081602001516000809054906101000a90046001600160a01b03166001600160a01b031663ad1d80698d8d600060016040518563ffffffff1660e01b815260040180806020018460ff168152602001831515151581526020018281038252868682818152602001925080828437600081840152601f19601f8201169050808301925050509550505050505060206040518083038186803b15801561080957600080fd5b602082015260408101516001600160a01b038581169116148015611ad95750836001600160a01b031682604001516001600160a01b0316145b611b145760405162461bcd60e51b815260040180806020018281038252604c815260200180613345604c913960600191505060405180910390fd5b8581602001511015611b6b578160200151876020015114611b665760405162461bcd60e51b81526004018080602001828103825260218152602001806132286021913960400191505060405180910390fd5b611bb2565b816020015187602001511415611bb25760405162461bcd60e51b81526004018080602001828103825260218152602001806132286021913960400191505060405180910390fd5b5060019d9c50505050505050505050505050565b611bce6131c3565b5060408051808201909152815181526020828101908201525b919050565b6060611bf78261270d565b611c0057600080fd5b6000611c0b83612747565b9050606081604051908082528060200260200182016040528015611c4957816020015b611c366131c3565b815260200190600190039081611c2e5790505b5090506000611c5b85602001516127a3565b60208601510190506000805b84811015611cb257611c7883612806565b9150604051806040016040528083815260200184815250848281518110611c9b57fe5b602090810291909101015291810191600101611c67565b509195945050505050565b611cc5613128565b6060611cd361060b84611bc6565b90508051600914611d23576040805162461bcd60e51b815260206004820152601560248201527409a82988c9ea49a8a88beae92a89088a482aebea8b605b1b604482015290519081900360640190fd5b611d33816003815181106112a057fe5b6001600160a01b03166040830152611d4a8161289f565b60208401526001600160a01b031660608301819052331415611da657611d7e611d79826005815181106106d957fe5b612c2f565b8360808101826003811115611d8f57fe5b6003811115611d9a57fe5b90529190915250611dc8565b611dbe611db9826005815181106106d957fe5b612cfc565b8252600260808301525b50919050565b8051606090611ddc57600080fd5b6000611deb83602001516127a3565b83516040805191839003808352601f19601f8201168301602001909152919250606090828015611e22576020820181803883390190505b5090506000816020019050611e3e848760200151018285612dc5565b50949350505050565b805160009015801590611e5c57508151602110155b611e6557600080fd5b6000611e7483602001516127a3565b83516020808601518301805193945091849003929190831015611e3e57506020919091036101000a90049392505050565b611ead613154565b600a8410611f02576040805162461bcd60e51b815260206004820152601b60248201527f537570706f7274696e672061206d6178206f66203130206c6f67730000000000604482015290519081900360640190fd5b6060611f1061060b87611bc6565b9050611f30611f258260038151811061127457fe5b868151811061127457fe5b9050611f42816000815181106112a057fe5b6001600160a01b031660408301528051606090611f6690839060029081106106d957fe5b9050611f788260018151811061127457fe5b91506000611f8c836000815181106106f657fe5b60001b9050611fa1836001815181106106f657fe5b6001600160a01b031660608501527f4dfe1bbbcf077ddc3e01291eea2d5c70c2b422b415d95645b9adcfd678cb1d63811415612064576002546060850151604080516306e86b7760e41b81526001600160a01b03928316600482015290519190921691636e86b770916024808301926020929190829003018186803b15801561202957600080fd5b505afa15801561203d573d6000803e3d6000fd5b505050506040513d602081101561205357600080fd5b50516001600160a01b031660608501525b8415612079576120748387612240565b61208c565b61208483838861236a565b602086015284525b6120b16120a088600a63ffffffff6125a216565b60208601519063ffffffff61215e16565b602085015250919695505050505050565b8151815160009111156121065760405162461bcd60e51b81526004018080602001828103825260288152602001806132a56028913960400191505060405180910390fd5b60018360800151600381111561211857fe5b141561213857825182516121319163ffffffff612e1016565b9050611844565b60038360800151600381111561214a57fe5b141561215857508051611844565b50505190565b60008282018381101561217057600080fd5b9392505050565b600080546040516001600160a01b03909116919067016345785d8a00009082818181858883f193505050501580156121b3573d6000803e3d6000fd5b50565b6000818310156121c65781612170565b5090919050565b6000806000808480602001905160808110156121e857600080fd5b5080516020820151604083015160609093015191989097509195509350915050565b805160009060151461221b57600080fd5b61184482611e47565b6000816020018351101561223757600080fd5b50016020015190565b6000612252836000815181106106f657fe5b90507febff2602b3f468259e1e99f613fed6691f3a6526effe6ef3e768ba7ae7a36c4f8114806122a157507fe6497e3ee548a3372136af2fcb0696db31fc6cf20260707645068bd3fe97f3c481145b806122cb57507f4dfe1bbbcf077ddc3e01291eea2d5c70c2b422b415d95645b9adcfd678cb1d6381145b6123065760405162461bcd60e51b815260040180806020018281038252602d815260200180613278602d913960400191505060405180910390fd5b612316836002815181106106f657fe5b6001600160a01b0316826001600160a01b0316146123655760405162461bcd60e51b815260040180806020018281038252602a815260200180613425602a913960400191505060405180910390fd5b505050565b600080600061237f866000815181106106f657fe5b90507f4e2ca0515ed1aef1395f66b5303bb5d6f1bf9d61a353fa53f73f8ac9973fa9f68114806123ce57507febff2602b3f468259e1e99f613fed6691f3a6526effe6ef3e768ba7ae7a36c4f81145b15612444576123e3866002815181106106f657fe5b6001600160a01b0316846001600160a01b0316146124325760405162461bcd60e51b81526004018080602001828103825260298152602001806132f56029913960400191505060405180910390fd5b61243d856040612224565b9250612599565b7fe6497e3ee548a3372136af2fcb0696db31fc6cf20260707645068bd3fe97f3c481148061249157507f4dfe1bbbcf077ddc3e01291eea2d5c70c2b422b415d95645b9adcfd678cb1d6381145b1561254c576124a6866002815181106106f657fe5b6001600160a01b0316846001600160a01b031614156124d1576124ca856060612224565b9250612547565b6124e1866003815181106106f657fe5b6001600160a01b0316846001600160a01b0316141561251057612505856080612224565b925060019150612547565b60405162461bcd60e51b815260040180806020018281038252602781526020018061331e6027913960400191505060405180910390fd5b612599565b6040805162461bcd60e51b815260206004820152601760248201527f457869742074797065206e6f7420737570706f72746564000000000000000000604482015290519081900360640190fd5b50935093915050565b6000826125b157506000611844565b828202828482816125be57fe5b041461217057600080fd5b6125d161318e565b60008060008060008680602001905160a08110156125ee57600080fd5b508051602080830151604080850151606080870151608097880151845160c081018652938452958301526001600160a01b03958616928201929092529390911690830152151591810191909152600060a0820152979650505050505050565b612655613128565b606061266361060b84611bc6565b905080516009146126b3576040805162461bcd60e51b815260206004820152601560248201527409a82988c9ea49a8a88beae92a89088a482aebea8b605b1b604482015290519081900360640190fd5b6126c3816003815181106112a057fe5b6001600160a01b031660408301526126da8161289f565b60208401526001600160a01b03166060830152805161270490611d7990839060059081106106d957fe5b50825250919050565b805160009061271e57506000611be7565b6020820151805160001a9060c082101561273d57600092505050611be7565b5060019392505050565b805160009061275857506000611be7565b6000809050600061276c84602001516127a3565b602085015185519181019250015b8082101561279a5761278b82612806565b6001909301929091019061277a565b50909392505050565b8051600090811a60808110156127bd576000915050611be7565b60b88110806127d8575060c081108015906127d8575060f881105b156127e7576001915050611be7565b60c08110156127fb5760b519019050611be7565b60f519019050611be7565b80516000908190811a60808110156128215760019150612898565b60b881101561283657607e1981019150612898565b60c08110156128635760b78103600185019450806020036101000a85510460018201810193505050612898565b60f88110156128785760be1981019150612898565b60f78103600185019450806020036101000a855104600182018101935050505b5092915050565b60408051600980825261014082019092526000918291606091816020015b60608152602001906001900390816128bd57905050905060005b60058160ff1611612916576128f4858260ff16815181106106d957fe5b828260ff168151811061290357fe5b60209081029190910101526001016128d7565b506040518060400160405280600381526020016201752160e91b8152508160068151811061294057fe5b6020026020010181905250604051806020016040528060008152508160078151811061296857fe5b6020026020010181905250604051806020016040528060008152508160088151811061299057fe5b60200260200101819052506129a481612e25565b80519060200120915060018273__Common________________________________63b40b539b6129da886006815181106106d957fe5b604080518082018252600381526201752160e91b602080830191825292516326b3515760e11b81526004810193845282516024820152825173__Common________________________________94634d66a2ae9493909283926044909101919080838360005b83811015612a58578181015183820152602001612a40565b50505050905090810190601f168015612a855780820380516001836020036101000a031916815260200191505b509250505060206040518083038186803b158015612aa257600080fd5b505af4158015612ab6573d6000803e3d6000fd5b505050506040513d6020811015612acc57600080fd5b5051604080516001600160e01b031960e086901b16815261ffff8316602482015260048101918252835160448201528351829160640190602086019080838360005b83811015612b26578181015183820152602001612b0e565b50505050905090810190601f168015612b535780820380516001836020036101000a031916815260200191505b50935050505060206040518083038186803b158015612b7157600080fd5b505af4158015612b85573d6000803e3d6000fd5b505050506040513d6020811015612b9b57600080fd5b50518651612bb090889060079081106106f657fe5b60001b612bc3886008815181106106f657fe5b60001b60405160008152602001604052604051808581526020018460ff1660ff1681526020018381526020018281526020019450505050506020604051602081039080840390855afa158015612c1d573d6000803e3d6000fd5b50505060206040510351925050915091565b6000806000612c49612c448560006004612e79565b612ef8565b90506001600160e01b03198116632e1a7d4d60e01b1415612c7a57612c6f846004612224565b925060039150612cf6565b6001600160e01b0319811663a9059cbb60e01b1415612ca957612c9e846024612224565b925060019150612cf6565b6040805162461bcd60e51b815260206004820152601a60248201527f457869742074782074797065206e6f7420737570706f72746564000000000000604482015290519081900360640190fd5b50915091565b600080612d0f612c448460006004612e79565b90506001600160e01b0319811663a9059cbb60e01b14612d605760405162461bcd60e51b81526004018080602001828103825260278152602001806133916027913960400191505060405180910390fd5b612d6b836004612224565b6001600160a01b0316336001600160a01b031614612dba5760405162461bcd60e51b815260040180806020018281038252602c81526020018061344f602c913960400191505060405180910390fd5b612170836024612224565b80612dcf57612365565b5b60208110612def578251825260209283019290910190601f1901612dd0565b915181516020939093036101000a6000190180199091169216919091179052565b600082821115612e1f57600080fd5b50900390565b60608060005b8351811015612e6357612e5982612e54868481518110612e4757fe5b6020026020010151612eff565b612f63565b9150600101612e2b565b50612170612e73825160c0612fe0565b82612f63565b606081830184511015612e8b57600080fd5b606082158015612ea657604051915060208201604052611e3e565b6040519150601f8416801560200281840101858101878315602002848b0101015b81831015612edf578051835260209283019201612ec7565b5050858452601f01601f19166040525050949350505050565b6020015190565b60608082516001148015612f275750608083600081518110612f1d57fe5b016020015160f81c105b15612f5257604080516001808252818301909252906020820181803883395085935061184492505050565b612170612f6184516080612fe0565b845b6060806040519050835180825260208201818101602087015b81831015612f94578051835260209283019201612f7c565b50855184518101855292509050808201602086015b81831015612fc1578051835260209283019201612fa9565b508651929092011591909101601f01601f191660405250905092915050565b6060603883101561303d5760408051600180825281830190925260609160208201818038833901905050905082840160f81b8160008151811061301f57fe5b60200101906001600160f81b031916908160001a9053509050611844565b600060015b80858161304b57fe5b04156130605760019091019061010002613042565b6060613070838660370101613094565b9050606061307d87613094565b90506130898282612f63565b945050505050611844565b6060600160ff8311156130a5575060025b806040519080825280601f01601f1916602001820160405280156130d0576020820181803883390190505b50915060005b818110156131215780600183030360080260020a84816130f257fe5b0460f81b83828151811061310257fe5b60200101906001600160f81b031916908160001a9053506001016130d6565b5050919050565b6040805160a0810182526000808252602082018190529181018290526060810182905290608082015290565b6040518060800160405280600081526020016000815260200160006001600160a01b0316815260200160006001600160a01b031681525090565b6040805160c081018252600080825260208201819052918101829052606081018290526080810182905260a081019190915290565b60405180604001604052806000815260200160008152509056fe4368616c6c656e6765207478206e6f74207369676e6564206279207468652070617274792077686f207369676e65642074686520696e707574205554584f20746f20746865206578697443616e6e6f74206368616c6c656e676520776974682074686520657869742074786368696c6420746f6b656e7320696e20746865207265666572656e6365642074787320646f206e6f74206d617463684c6f67207369676e617475726520646f65736e74207175616c69667920617320612076616c6964207370656e6445786974696e672077697468206d6f726520746f6b656e73207468616e207265666572656e6365645769746864726177657220616e64206275726e206578697420747820646f206e6f74206d617463685769746864726177657220616e64207265666572656e63656420747820646f206e6f74206d617463687478202f206c6f6720646f65736e7420636f6e6365726e20746865207061727469636970616e744c6f675472616e73666572526563656970742c206368616c6c656e6765547820746f6b656e20616e64206368616c6c656e676564207574786f20746f6b656e20646f206e6f74206d617463684f6e6c7920737570706f7274732065786974696e672066726f6d207472616e7366657220747873726f6f7420746f6b656e7320696e20746865207265666572656e6365642074787320646f206e6f74206d617463685265666572656e636520616e64206578697420747820646f206e6f7420636f72726573706f6e6420746f207468652073616d65206368696c6420746f6b656e7061727469636970616e7420616e64207265666572656e63656420747820646f206e6f74206d61746368457869746f722073686f756c642062652074686520726563656976657220696e207468652065786974207478a265627a7a723158209d9c7606f1ade288ceb79e67785be41e5f208aa9131fbeb60442d6c3cb0eebc364736f6c63430005110032",
  "source": "pragma solidity ^0.5.2;\n\nimport {BytesLib} from \"../../common/lib/BytesLib.sol\";\nimport {Common} from \"../../common/lib/Common.sol\";\nimport {Math} from \"openzeppelin-solidity/contracts/math/Math.sol\";\nimport {RLPEncode} from \"../../common/lib/RLPEncode.sol\";\nimport {RLPReader} from \"solidity-rlp/contracts/RLPReader.sol\";\nimport {SafeMath} from \"openzeppelin-solidity/contracts/math/SafeMath.sol\";\n\nimport {IErcPredicate} from \"./IPredicate.sol\";\nimport {Registry} from \"../../common/Registry.sol\";\nimport {\n    WithdrawManagerHeader\n} from \"../withdrawManager/WithdrawManagerStorage.sol\";\n\ncontract ERC20Predicate is IErcPredicate {\n    using RLPReader for bytes;\n    using RLPReader for RLPReader.RLPItem;\n    using SafeMath for uint256;\n\n    // keccak256('Deposit(address,address,uint256,uint256,uint256)')\n    bytes32 constant DEPOSIT_EVENT_SIG = 0x4e2ca0515ed1aef1395f66b5303bb5d6f1bf9d61a353fa53f73f8ac9973fa9f6;\n    // keccak256('Withdraw(address,address,uint256,uint256,uint256)')\n    bytes32 constant WITHDRAW_EVENT_SIG = 0xebff2602b3f468259e1e99f613fed6691f3a6526effe6ef3e768ba7ae7a36c4f;\n    // keccak256('LogTransfer(address,address,address,uint256,uint256,uint256,uint256,uint256)')\n    bytes32 constant LOG_TRANSFER_EVENT_SIG = 0xe6497e3ee548a3372136af2fcb0696db31fc6cf20260707645068bd3fe97f3c4;\n    // keccak256('LogFeeTransfer(address,address,address,uint256,uint256,uint256,uint256,uint256)')\n    bytes32 constant LOG_FEE_TRANSFER_EVENT_SIG = 0x4dfe1bbbcf077ddc3e01291eea2d5c70c2b422b415d95645b9adcfd678cb1d63;\n\n    // keccak256('withdraw(uint256)').slice(0, 4)\n    bytes4 constant WITHDRAW_FUNC_SIG = 0x2e1a7d4d;\n    // keccak256('transfer(address,uint256)').slice(0, 4)\n    bytes4 constant TRANSFER_FUNC_SIG = 0xa9059cbb;\n\n    Registry registry;\n\n    constructor(\n        address _withdrawManager,\n        address _depositManager,\n        address _registry\n    ) public IErcPredicate(_withdrawManager, _depositManager) {\n        registry = Registry(_registry);\n    }\n\n    function startExitWithBurntTokens(bytes calldata data) external {\n        RLPReader.RLPItem[] memory referenceTxData = data.toRlpItem().toList();\n        bytes memory receipt = referenceTxData[6].toBytes();\n        RLPReader.RLPItem[] memory inputItems = receipt.toRlpItem().toList();\n        uint256 logIndex = referenceTxData[9].toUint();\n        require(logIndex < MAX_LOGS, \"Supporting a max of 10 logs\");\n        uint256 age = withdrawManager.verifyInclusion(\n            data,\n            0, /* offset */\n            false /* verifyTxInclusion */\n        );\n        inputItems = inputItems[3].toList()[logIndex].toList(); // select log based on given logIndex\n\n        // \"address\" (contract address that emitted the log) field in the receipt\n        address childToken = RLPReader.toAddress(inputItems[0]);\n        bytes memory logData = inputItems[2].toBytes();\n        inputItems = inputItems[1].toList(); // topics\n        // now, inputItems[i] refers to i-th (0-based) topic in the topics array\n        // event Withdraw(address indexed token, address indexed from, uint256 amountOrTokenId, uint256 input1, uint256 output1)\n        require(\n            bytes32(inputItems[0].toUint()) == WITHDRAW_EVENT_SIG,\n            \"Not a withdraw event signature\"\n        );\n        address rootToken = address(RLPReader.toUint(inputItems[1]));\n        require(\n            msg.sender == address(inputItems[2].toUint()), // from\n            \"Withdrawer and burn exit tx do not match\"\n        );\n        uint256 exitAmount = BytesLib.toUint(logData, 0); // amountOrTokenId\n        withdrawManager.addExitToQueue(\n            msg.sender,\n            childToken,\n            rootToken,\n            exitAmount,\n            bytes32(0x0),\n            true, /* isRegularExit */\n            age << 1\n        );\n    }\n\n    /**\n   * @notice Start an exit by referencing the preceding (reference) transaction\n   * @param data RLP encoded data of the reference tx (proof-of-funds of exitor) that encodes the following fields\n      * headerNumber Header block number of which the reference tx was a part of\n      * blockProof Proof that the block header (in the child chain) is a leaf in the submitted merkle root\n      * blockNumber Block number of which the reference tx is a part of\n      * blockTime Reference tx block time\n      * blocktxRoot Transactions root of block\n      * blockReceiptsRoot Receipts root of block\n      * receipt Receipt of the reference transaction\n      * receiptProof Merkle proof of the reference receipt\n      * branchMask Merkle proof branchMask for the receipt\n      * logIndex Log Index to read from the receipt\n   * @param exitTx Signed exit transaction (outgoing transfer or burn)\n   * @return address rootToken that the exit corresponds to\n   * @return uint256 exitAmount\n   */\n    function startExitForOutgoingErc20Transfer(\n        bytes calldata data,\n        bytes calldata exitTx\n    )\n        external\n        payable\n        isBondProvided\n        returns (\n            address, /* rootToken */\n            uint256 /* exitAmount */\n        )\n    {\n        // referenceTx is a proof-of-funds of the party who signed the exit tx\n        // If the exitor is exiting with outgoing transfer, it will refer to their own preceding tx\n        // If the exitor is exiting with incoming transfer, it will refer to the counterparty's preceding tx\n        RLPReader.RLPItem[] memory referenceTx = data.toRlpItem().toList();\n\n        // Validate the exitTx - This may be an in-flight tx, so inclusion will not be checked\n        ExitTxData memory exitTxData = processExitTx(exitTx);\n        require(\n            exitTxData.signer == msg.sender,\n            \"Should be an outgoing transfer\"\n        );\n\n        // Process the receipt of the referenced tx\n        ReferenceTxData memory referenceTxData = processReferenceTx(\n            referenceTx[6].toBytes(), // receipt\n            referenceTx[9].toUint(), // logIndex\n            msg.sender, // participant whose proof-of-funds are to be checked in the reference tx\n            false /* isChallenge */\n        );\n        require(\n            exitTxData.childToken == referenceTxData.childToken,\n            \"Reference and exit tx do not correspond to the same child token\"\n        );\n        // exitTxData.amountOrToken represents the total exit amount based on the in-flight exit type\n        // re-using the variable here to avoid stack overflow\n        exitTxData.amountOrToken = validateSequential(\n            exitTxData,\n            referenceTxData\n        );\n\n        // Checking the inclusion of the receipt of the preceding tx is enough\n        // It is inconclusive to check the inclusion of the signed tx, hence verifyTxInclusion = false\n        // age is a measure of the position of the tx in the side chain\n        referenceTxData.age = withdrawManager\n            .verifyInclusion(\n            data,\n            0, /* offset */\n            false /* verifyTxInclusion */\n        )\n            .add(referenceTxData.age); // Add the logIndex and oIndex from the receipt\n\n        sendBond(); // send BOND_AMOUNT to withdrawManager\n\n        // last bit is to differentiate whether the sender or receiver of the in-flight tx is starting an exit\n        uint256 exitId = referenceTxData.age << 1;\n        exitId |= 1; // since msg.sender == exitTxData.signer\n        withdrawManager.addExitToQueue(\n            msg.sender,\n            referenceTxData.childToken,\n            referenceTxData.rootToken,\n            exitTxData.amountOrToken,\n            exitTxData.txHash,\n            false, /* isRegularExit */\n            exitId\n        );\n        withdrawManager.addInput(\n            exitId,\n            referenceTxData.age,\n            msg.sender,\n            referenceTxData.rootToken\n        );\n        return (referenceTxData.rootToken, exitTxData.amountOrToken);\n    }\n\n    /**\n   * @notice Start an exit by referencing the preceding (reference) transaction\n   * @param data RLP encoded data of the reference tx(s) that encodes the following fields for each tx\n      * headerNumber Header block number of which the reference tx was a part of\n      * blockProof Proof that the block header (in the child chain) is a leaf in the submitted merkle root\n      * blockNumber Block number of which the reference tx is a part of\n      * blockTime Reference tx block time\n      * blocktxRoot Transactions root of block\n      * blockReceiptsRoot Receipts root of block\n      * receipt Receipt of the reference transaction\n      * receiptProof Merkle proof of the reference receipt\n      * branchMask Merkle proof branchMask for the receipt\n      * logIndex Log Index to read from the receipt\n   * @param exitTx Signed exit transaction (incoming transfer)\n   * @return address rootToken that the exit corresponds to\n   * @return uint256 exitAmount\n   */\n    function startExitForIncomingErc20Transfer(\n        bytes calldata data,\n        bytes calldata exitTx\n    )\n        external\n        payable\n        isBondProvided\n        returns (\n            address, /* rootToken */\n            uint256 /* exitAmount */\n        )\n    {\n        // referenceTx is a proof-of-funds of the party who signed the exit tx\n        // If the exitor is exiting with outgoing transfer, it will refer to their own preceding tx\n        // If the exitor is exiting with incoming transfer, it will refer to the counterparty's preceding tx\n        RLPReader.RLPItem[] memory referenceTx = data.toRlpItem().toList();\n\n        // Validate the exitTx - This may be an in-flight tx, so inclusion will not be checked\n        ExitTxData memory exitTxData = processExitTx(exitTx);\n        require(\n            exitTxData.signer != msg.sender,\n            \"Should be an incoming transfer\"\n        );\n        // Process the receipt (i.e. proof-of-funds of the counterparty) of the referenced tx\n        ReferenceTxData memory referenceTxData = processReferenceTx(\n            referenceTx[6].toBytes(), // receipt\n            referenceTx[9].toUint(), // logIndex\n            exitTxData.signer,\n            false /* isChallenge */\n        );\n        require(\n            exitTxData.childToken == referenceTxData.childToken,\n            \"Reference and exit tx do not correspond to the same child token\"\n        );\n        exitTxData.amountOrToken = validateSequential(\n            exitTxData,\n            referenceTxData\n        );\n\n        // Checking the inclusion of the receipt of the preceding tx is enough\n        // It is inconclusive to check the inclusion of the signed tx, hence verifyTxInclusion = false\n        // age is a measure of the position of the tx in the side chain\n        referenceTxData.age = withdrawManager\n            .verifyInclusion(\n            data,\n            0, /* offset */\n            false /* verifyTxInclusion */\n        )\n            .add(referenceTxData.age); // Add the logIndex and oIndex from the receipt\n\n        ReferenceTxData memory _referenceTxData;\n        // referenceTx.length > 10 means the exitor sent along another input UTXO to the exit tx\n        // This will be used to exit with the pre-existing balance on the chain along with the couterparty signed exit tx\n        if (referenceTx.length > 10) {\n            _referenceTxData = processReferenceTx(\n                referenceTx[16].toBytes(), // receipt\n                referenceTx[19].toUint(), // logIndex\n                msg.sender, // participant\n                false /* isChallenge */\n            );\n            require(\n                _referenceTxData.childToken == referenceTxData.childToken,\n                \"child tokens in the referenced txs do not match\"\n            );\n            require(\n                _referenceTxData.rootToken == referenceTxData.rootToken,\n                \"root tokens in the referenced txs do not match\"\n            );\n            _referenceTxData.age = withdrawManager\n                .verifyInclusion(\n                data,\n                10, /* offset */\n                false /* verifyTxInclusion */\n            )\n                .add(_referenceTxData.age);\n        }\n\n        sendBond(); // send BOND_AMOUNT to withdrawManager\n\n        // last bit is to differentiate whether the sender or receiver of the in-flight tx is starting an exit\n        uint256 exitId = Math.max(referenceTxData.age, _referenceTxData.age) <<\n            1;\n        withdrawManager.addExitToQueue(\n            msg.sender,\n            referenceTxData.childToken,\n            referenceTxData.rootToken,\n            exitTxData.amountOrToken.add(_referenceTxData.closingBalance),\n            exitTxData.txHash,\n            false, /* isRegularExit */\n            exitId\n        );\n        withdrawManager.addInput(\n            exitId,\n            referenceTxData.age,\n            exitTxData.signer,\n            referenceTxData.rootToken\n        );\n        // If exitor did not have pre-exiting balance on the chain => _referenceTxData has default values;\n        // In that case, the following input acts as a \"dummy\" input UTXO to challenge token spends by the exitor\n        withdrawManager.addInput(\n            exitId,\n            _referenceTxData.age,\n            msg.sender,\n            referenceTxData.rootToken\n        );\n        return (\n            referenceTxData.rootToken,\n            exitTxData.amountOrToken.add(_referenceTxData.closingBalance)\n        );\n    }\n\n    /**\n   * @notice Verify the deprecation of a state update\n   * @param exit ABI encoded PlasmaExit data\n   * @param inputUtxo ABI encoded Input UTXO data\n   * @param challengeData RLP encoded data of the challenge reference tx that encodes the following fields\n      * headerNumber Header block number of which the reference tx was a part of\n      * blockProof Proof that the block header (in the child chain) is a leaf in the submitted merkle root\n      * blockNumber Block number of which the reference tx is a part of\n      * blockTime Reference tx block time\n      * blocktxRoot Transactions root of block\n      * blockReceiptsRoot Receipts root of block\n      * receipt Receipt of the reference transaction\n      * receiptProof Merkle proof of the reference receipt\n      * branchMask Merkle proof branchMask for the receipt\n      * logIndex Log Index to read from the receipt\n      * tx Challenge transaction\n      * txProof Merkle proof of the challenge tx\n   * @return Whether or not the state is deprecated\n   */\n    function verifyDeprecation(\n        bytes calldata exit,\n        bytes calldata inputUtxo,\n        bytes calldata challengeData\n    ) external returns (bool) {\n        PlasmaExit memory _exit = decodeExit(exit);\n        (uint256 age, address signer, , address childToken) = decodeInputUtxo(\n            inputUtxo\n        );\n        RLPReader.RLPItem[] memory _challengeData = challengeData\n            .toRlpItem()\n            .toList();\n        ExitTxData memory challengeTxData = processChallengeTx(\n            _challengeData[10].toBytes()\n        );\n        require(\n            challengeTxData.signer == signer,\n            \"Challenge tx not signed by the party who signed the input UTXO to the exit\"\n        );\n\n        // receipt alone is not enough for a challenge. It is required to check that the challenge tx was included as well\n        ReferenceTxData memory referenceTxData = processReferenceTx(\n            _challengeData[6].toBytes(), // receipt\n            _challengeData[9].toUint(), // logIndex\n            challengeTxData.signer,\n            true /* isChallenge */\n        );\n        referenceTxData.age = withdrawManager\n            .verifyInclusion(\n            challengeData,\n            0,\n            true /* verifyTxInclusion */\n        )\n            .add(referenceTxData.age);\n        require(\n            referenceTxData.childToken == childToken &&\n                challengeTxData.childToken == childToken,\n            \"LogTransferReceipt, challengeTx token and challenged utxo token do not match\"\n        );\n        if (referenceTxData.age < age) {\n            // this block shows that the exitor used an older, already checkpointed tx as in-flight to start an exit;\n            // only in that case, we can allow the challenge age to be < exit age\n            require(\n                _exit.txHash == challengeTxData.txHash,\n                \"Cannot challenge with the exit tx\"\n            );\n        } else {\n            require(\n                _exit.txHash != challengeTxData.txHash,\n                \"Cannot challenge with the exit tx\"\n            );\n        }\n        return true;\n    }\n\n    /**\n   * @notice Parse a ERC20 LogTransfer event in the receipt\n   * @param state abi encoded (data, participant, verifyInclusion)\n      * data is RLP encoded reference tx receipt that encodes the following fields\n        * headerNumber Header block number of which the reference tx was a part of\n        * blockProof Proof that the block header (in the child chain) is a leaf in the submitted merkle root\n        * blockNumber Block number of which the reference tx is a part of\n        * blockTime Reference tx block time\n        * blocktxRoot Transactions root of block\n        * blockReceiptsRoot Receipts root of block\n        * receipt Receipt of the reference transaction\n        * receiptProof Merkle proof of the reference receipt\n        * branchMask Merkle proof branchMask for the receipt\n        * logIndex Log Index to read from the receipt\n        * tx Challenge transaction\n        * txProof Merkle proof of the challenge tx\n    * @return abi encoded (closingBalance, ageOfUtxo, childToken, rootToken)\n   */\n    function interpretStateUpdate(bytes calldata state)\n        external\n        view\n        returns (bytes memory)\n    {\n        // isChallenge - Is the state being parsed for a challenge\n        (bytes memory _data, address participant, bool verifyInclusion, bool isChallenge) = abi\n            .decode(state, (bytes, address, bool, bool));\n        RLPReader.RLPItem[] memory referenceTx = _data.toRlpItem().toList();\n        bytes memory receipt = referenceTx[6].toBytes();\n        uint256 logIndex = referenceTx[9].toUint();\n        require(logIndex < MAX_LOGS, \"Supporting a max of 10 logs\");\n        RLPReader.RLPItem[] memory inputItems = receipt.toRlpItem().toList();\n        inputItems = inputItems[3].toList()[logIndex].toList(); // select log based on given logIndex\n        ReferenceTxData memory data;\n        data.childToken = RLPReader.toAddress(inputItems[0]); // \"address\" (contract address that emitted the log) field in the receipt\n        bytes memory logData = inputItems[2].toBytes();\n        inputItems = inputItems[1].toList(); // topics\n        data.rootToken = address(RLPReader.toUint(inputItems[1]));\n        if (isChallenge) {\n            processChallenge(inputItems, participant);\n        } else {\n            (data.closingBalance, data.age) = processStateUpdate(\n                inputItems,\n                logData,\n                participant\n            );\n        }\n        data.age = data.age.add(logIndex.mul(MAX_LOGS));\n        if (verifyInclusion) {\n            data.age = data.age.add(\n                withdrawManager.verifyInclusion(\n                    _data,\n                    0,\n                    false /* verifyTxInclusion */\n                )\n            );\n        }\n        return\n            abi.encode(\n                data.closingBalance,\n                data.age,\n                data.childToken,\n                data.rootToken\n            );\n    }\n\n    /**\n   * @dev Process the reference tx to start a MoreVP style exit\n   * @param receipt Receipt of the reference transaction\n   * @param logIndex Log Index to read from the receipt\n   * @param participant Either of exitor or a counterparty depending on the type of exit\n   * @param isChallenge Whether it is a challenge or start exit operation\n   * @return ReferenceTxData Parsed reference tx data\n   */\n    function processReferenceTx(\n        bytes memory receipt,\n        uint256 logIndex,\n        address participant,\n        bool isChallenge\n    ) internal view returns (ReferenceTxData memory data) {\n        require(logIndex < MAX_LOGS, \"Supporting a max of 10 logs\");\n        RLPReader.RLPItem[] memory inputItems = receipt.toRlpItem().toList();\n        inputItems = inputItems[3].toList()[logIndex].toList(); // select log based on given logIndex\n        data.childToken = RLPReader.toAddress(inputItems[0]); // \"address\" (contract address that emitted the log) field in the receipt\n        bytes memory logData = inputItems[2].toBytes();\n        inputItems = inputItems[1].toList(); // topics\n        // now, inputItems[i] refers to i-th (0-based) topic in the topics array\n        bytes32 eventSignature = bytes32(inputItems[0].toUint()); // inputItems[0] is the event signature\n        data.rootToken = address(RLPReader.toUint(inputItems[1]));\n\n        // When child chain is started, since child matic is a genenis contract at 0x1010,\n        // the root token corresponding to matic is not known, hence child token address is emitted in LogFeeTransfer events.\n        // Fix that anomaly here\n        if (eventSignature == LOG_FEE_TRANSFER_EVENT_SIG) {\n            data.rootToken = registry.childToRootToken(data.rootToken);\n        }\n\n        if (isChallenge) {\n            processChallenge(inputItems, participant);\n        } else {\n            (data.closingBalance, data.age) = processStateUpdate(\n                inputItems,\n                logData,\n                participant\n            );\n        }\n        // In our construction, we give an incrementing age to every log in a receipt\n        data.age = data.age.add(logIndex.mul(MAX_LOGS));\n    }\n\n    function validateSequential(\n        ExitTxData memory exitTxData,\n        ReferenceTxData memory referenceTxData\n    ) internal pure returns (uint256 exitAmount) {\n        // The closing balance of the referenced tx should be >= exit amount in exitTx\n        require(\n            referenceTxData.closingBalance >= exitTxData.amountOrToken,\n            \"Exiting with more tokens than referenced\"\n        );\n        // If exit tx has is an outgoing transfer from exitor's perspective, exit with closingBalance minus sent amount\n        if (exitTxData.exitType == ExitType.OutgoingTransfer) {\n            return referenceTxData.closingBalance.sub(exitTxData.amountOrToken);\n        }\n        // If exit tx was burnt tx, exit with the entire referenced balance not just that was burnt, since user only gets one chance to exit MoreVP style\n        if (exitTxData.exitType == ExitType.Burnt) {\n            return referenceTxData.closingBalance;\n        }\n        // If exit tx has is an incoming transfer from exitor's perspective, exit with exitAmount\n        return exitTxData.amountOrToken;\n    }\n\n    function processChallenge(\n        RLPReader.RLPItem[] memory inputItems,\n        address participant\n    ) internal pure {\n        bytes32 eventSignature = bytes32(inputItems[0].toUint());\n        // event Withdraw(address indexed token, address indexed from, uint256 amountOrTokenId, uint256 input1, uint256 output1)\n        // event Log(Fee)Transfer(\n        //   address indexed token, address indexed from, address indexed to,\n        //   uint256 amountOrTokenId, uint256 input1, uint256 input2, uint256 output1, uint256 output2)\n        require(\n            eventSignature == WITHDRAW_EVENT_SIG ||\n                eventSignature == LOG_TRANSFER_EVENT_SIG ||\n                eventSignature == LOG_FEE_TRANSFER_EVENT_SIG,\n            \"Log signature doesnt qualify as a valid spend\"\n        );\n        require(\n            participant == address(inputItems[2].toUint()), // from\n            \"participant and referenced tx do not match\"\n        );\n        // oIndex is always 0 for the 2 scenarios above, hence not returning it\n    }\n\n    /**\n   * @notice Parse the state update and check if this predicate recognizes it\n   * @param inputItems inputItems[i] refers to i-th (0-based) topic in the topics array in the log\n   * @param logData Data field (unindexed params) in the log\n   */\n    function processStateUpdate(\n        RLPReader.RLPItem[] memory inputItems,\n        bytes memory logData,\n        address participant\n    ) internal pure returns (uint256 closingBalance, uint256 oIndex) {\n        bytes32 eventSignature = bytes32(inputItems[0].toUint());\n        if (\n            eventSignature == DEPOSIT_EVENT_SIG ||\n            eventSignature == WITHDRAW_EVENT_SIG\n        ) {\n            // event Deposit(address indexed token, address indexed from, uint256 amountOrTokenId, uint256 input1, uint256 output1)\n            // event Withdraw(address indexed token, address indexed from, uint256 amountOrTokenId, uint256 input1, uint256 output1)\n            require(\n                participant == address(inputItems[2].toUint()), // from\n                \"Withdrawer and referenced tx do not match\"\n            );\n            closingBalance = BytesLib.toUint(logData, 64); // output1\n        } else if (\n            eventSignature == LOG_TRANSFER_EVENT_SIG ||\n            eventSignature == LOG_FEE_TRANSFER_EVENT_SIG\n        ) {\n            // event Log(Fee)Transfer(\n            //   address indexed token, address indexed from, address indexed to,\n            //   uint256 amountOrTokenId, uint256 input1, uint256 input2, uint256 output1, uint256 output2)\n            if (participant == address(inputItems[2].toUint())) {\n                // A. Participant transferred tokens\n                closingBalance = BytesLib.toUint(logData, 96); // output1\n            } else if (participant == address(inputItems[3].toUint())) {\n                // B. Participant received tokens\n                closingBalance = BytesLib.toUint(logData, 128); // output2\n                oIndex = 1;\n            } else {\n                revert(\"tx / log doesnt concern the participant\");\n            }\n        } else {\n            revert(\"Exit type not supported\");\n        }\n    }\n\n    /**\n   * @notice Process the transaction to start a MoreVP style exit from\n   * @param exitTx Signed exit transaction\n   */\n    function processExitTx(bytes memory exitTx)\n        internal\n        view\n        returns (ExitTxData memory txData)\n    {\n        RLPReader.RLPItem[] memory txList = exitTx.toRlpItem().toList();\n        require(txList.length == 9, \"MALFORMED_WITHDRAW_TX\");\n        txData.childToken = RLPReader.toAddress(txList[3]); // corresponds to \"to\" field in tx\n        (txData.signer, txData.txHash) = getAddressFromTx(txList);\n        if (txData.signer == msg.sender) {\n            // exit tx is signed by exitor\n            (txData.amountOrToken, txData.exitType) = processExitTxSender(\n                RLPReader.toBytes(txList[5])\n            );\n        } else {\n            // exitor is a counterparty in the provided tx\n            txData.amountOrToken = processExitTxCounterparty(\n                RLPReader.toBytes(txList[5])\n            );\n            txData.exitType = ExitType.IncomingTransfer;\n        }\n    }\n\n    /**\n   * @notice Process the challenge transaction\n   * @param exitTx Challenge transaction\n   * @return ExitTxData Parsed challenge transaction data\n   */\n    function processChallengeTx(bytes memory exitTx)\n        internal\n        pure\n        returns (ExitTxData memory txData)\n    {\n        RLPReader.RLPItem[] memory txList = exitTx.toRlpItem().toList();\n        require(txList.length == 9, \"MALFORMED_WITHDRAW_TX\");\n        txData.childToken = RLPReader.toAddress(txList[3]); // corresponds to \"to\" field in tx\n        (txData.signer, txData.txHash) = getAddressFromTx(txList);\n        // during a challenge, the tx signer must be the first party\n        (txData.amountOrToken, ) = processExitTxSender(\n            RLPReader.toBytes(txList[5])\n        );\n    }\n\n    /**\n   * @dev Processes transaction from the \"signer / sender\" perspective\n   * @param txData Transaction input data\n   * @return exitAmount Number of tokens burnt or sent\n   * @return burnt Whether the tokens were burnt\n   */\n    function processExitTxSender(bytes memory txData)\n        internal\n        pure\n        returns (uint256 amount, ExitType exitType)\n    {\n        bytes4 funcSig = BytesLib.toBytes4(BytesLib.slice(txData, 0, 4));\n        if (funcSig == WITHDRAW_FUNC_SIG) {\n            amount = BytesLib.toUint(txData, 4);\n            exitType = ExitType.Burnt;\n        } else if (funcSig == TRANSFER_FUNC_SIG) {\n            amount = BytesLib.toUint(txData, 36);\n            exitType = ExitType.OutgoingTransfer;\n        } else {\n            revert(\"Exit tx type not supported\");\n        }\n    }\n\n    /**\n   * @dev Processes transaction from the \"receiver\" perspective\n   * @param txData Transaction input data\n   * @return exitAmount Number of tokens received\n   */\n    function processExitTxCounterparty(bytes memory txData)\n        internal\n        view\n        returns (uint256 exitAmount)\n    {\n        bytes4 funcSig = BytesLib.toBytes4(BytesLib.slice(txData, 0, 4));\n        require(\n            funcSig == TRANSFER_FUNC_SIG,\n            \"Only supports exiting from transfer txs\"\n        );\n        require(\n            msg.sender == address(BytesLib.toUint(txData, 4)), // to\n            \"Exitor should be the receiver in the exit tx\"\n        );\n        exitAmount = BytesLib.toUint(txData, 36); // value\n    }\n}\n",
  "sourcePath": "/Users/ohm.jirapon/internal/layer-2/layer2-plasma-cli/devnet/code/contracts/contracts/root/predicates/ERC20Predicate.sol",
  "compiler": {
    "name": "solc",
    "version": "0.5.17+commit.d19bba13.Linux.g++"
  },
  "schemaVersion": "3.0.14",
  "updatedAt": "2022-09-14T09:54:21.060Z",
  "devdoc": {
    "methods": {
      "interpretStateUpdate(bytes)": {
        "params": {
          "state": "abi encoded (data, participant, verifyInclusion) data is RLP encoded reference tx receipt that encodes the following fields headerNumber Header block number of which the reference tx was a part of blockProof Proof that the block header (in the child chain) is a leaf in the submitted merkle root blockNumber Block number of which the reference tx is a part of blockTime Reference tx block time blocktxRoot Transactions root of block blockReceiptsRoot Receipts root of block receipt Receipt of the reference transaction receiptProof Merkle proof of the reference receipt branchMask Merkle proof branchMask for the receipt logIndex Log Index to read from the receipt tx Challenge transaction txProof Merkle proof of the challenge tx"
        },
        "return": "abi encoded (closingBalance, ageOfUtxo, childToken, rootToken)"
      },
      "startExitForIncomingErc20Transfer(bytes,bytes)": {
        "params": {
          "data": "RLP encoded data of the reference tx(s) that encodes the following fields for each tx headerNumber Header block number of which the reference tx was a part of blockProof Proof that the block header (in the child chain) is a leaf in the submitted merkle root blockNumber Block number of which the reference tx is a part of blockTime Reference tx block time blocktxRoot Transactions root of block blockReceiptsRoot Receipts root of block receipt Receipt of the reference transaction receiptProof Merkle proof of the reference receipt branchMask Merkle proof branchMask for the receipt logIndex Log Index to read from the receipt",
          "exitTx": "Signed exit transaction (incoming transfer)"
        },
        "return": "address rootToken that the exit corresponds touint256 exitAmount"
      },
      "startExitForOutgoingErc20Transfer(bytes,bytes)": {
        "params": {
          "data": "RLP encoded data of the reference tx (proof-of-funds of exitor) that encodes the following fields headerNumber Header block number of which the reference tx was a part of blockProof Proof that the block header (in the child chain) is a leaf in the submitted merkle root blockNumber Block number of which the reference tx is a part of blockTime Reference tx block time blocktxRoot Transactions root of block blockReceiptsRoot Receipts root of block receipt Receipt of the reference transaction receiptProof Merkle proof of the reference receipt branchMask Merkle proof branchMask for the receipt logIndex Log Index to read from the receipt",
          "exitTx": "Signed exit transaction (outgoing transfer or burn)"
        },
        "return": "address rootToken that the exit corresponds touint256 exitAmount"
      },
      "verifyDeprecation(bytes,bytes,bytes)": {
        "params": {
          "challengeData": "RLP encoded data of the challenge reference tx that encodes the following fields headerNumber Header block number of which the reference tx was a part of blockProof Proof that the block header (in the child chain) is a leaf in the submitted merkle root blockNumber Block number of which the reference tx is a part of blockTime Reference tx block time blocktxRoot Transactions root of block blockReceiptsRoot Receipts root of block receipt Receipt of the reference transaction receiptProof Merkle proof of the reference receipt branchMask Merkle proof branchMask for the receipt logIndex Log Index to read from the receipt tx Challenge transaction txProof Merkle proof of the challenge tx",
          "exit": "ABI encoded PlasmaExit data",
          "inputUtxo": "ABI encoded Input UTXO data"
        },
        "return": "Whether or not the state is deprecated"
      }
    }
  },
  "userdoc": {
    "methods": {
      "interpretStateUpdate(bytes)": {
        "notice": "Parse a ERC20 LogTransfer event in the receipt"
      },
      "startExitForIncomingErc20Transfer(bytes,bytes)": {
        "notice": "Start an exit by referencing the preceding (reference) transaction"
      },
      "startExitForOutgoingErc20Transfer(bytes,bytes)": {
        "notice": "Start an exit by referencing the preceding (reference) transaction"
      },
      "verifyDeprecation(bytes,bytes,bytes)": {
        "notice": "Verify the deprecation of a state update"
      }
    }
  }
}