{
  "contractName": "ERC721Predicate",
  "abi": [
    {
      "constant": false,
      "inputs": [
        {
          "internalType": "bytes",
          "name": "data",
          "type": "bytes"
        }
      ],
      "name": "onFinalizeExit",
      "outputs": [],
      "payable": false,
      "stateMutability": "nonpayable",
      "type": "function"
    },
    {
      "constant": true,
      "inputs": [],
      "name": "networkId",
      "outputs": [
        {
          "internalType": "bytes",
          "name": "",
          "type": "bytes"
        }
      ],
      "payable": false,
      "stateMutability": "view",
      "type": "function"
    },
    {
      "constant": true,
      "inputs": [],
      "name": "CHAINID",
      "outputs": [
        {
          "internalType": "uint256",
          "name": "",
          "type": "uint256"
        }
      ],
      "payable": false,
      "stateMutability": "view",
      "type": "function"
    },
    {
      "inputs": [
        {
          "internalType": "address",
          "name": "_withdrawManager",
          "type": "address"
        },
        {
          "internalType": "address",
          "name": "_depositManager",
          "type": "address"
        }
      ],
      "payable": false,
      "stateMutability": "nonpayable",
      "type": "constructor"
    },
    {
      "constant": false,
      "inputs": [
        {
          "internalType": "bytes",
          "name": "exit",
          "type": "bytes"
        },
        {
          "internalType": "bytes",
          "name": "inputUtxo",
          "type": "bytes"
        },
        {
          "internalType": "bytes",
          "name": "challengeData",
          "type": "bytes"
        }
      ],
      "name": "verifyDeprecation",
      "outputs": [
        {
          "internalType": "bool",
          "name": "",
          "type": "bool"
        }
      ],
      "payable": false,
      "stateMutability": "nonpayable",
      "type": "function"
    },
    {
      "constant": true,
      "inputs": [
        {
          "internalType": "bytes",
          "name": "state",
          "type": "bytes"
        }
      ],
      "name": "interpretStateUpdate",
      "outputs": [
        {
          "internalType": "bytes",
          "name": "b",
          "type": "bytes"
        }
      ],
      "payable": false,
      "stateMutability": "view",
      "type": "function"
    },
    {
      "constant": false,
      "inputs": [
        {
          "internalType": "bytes",
          "name": "data",
          "type": "bytes"
        }
      ],
      "name": "startExitWithBurntTokens",
      "outputs": [
        {
          "internalType": "bytes",
          "name": "",
          "type": "bytes"
        }
      ],
      "payable": false,
      "stateMutability": "nonpayable",
      "type": "function"
    },
    {
      "constant": false,
      "inputs": [
        {
          "internalType": "bytes",
          "name": "data",
          "type": "bytes"
        },
        {
          "internalType": "bytes",
          "name": "exitTx",
          "type": "bytes"
        }
      ],
      "name": "startExit",
      "outputs": [
        {
          "internalType": "bytes",
          "name": "",
          "type": "bytes"
        }
      ],
      "payable": true,
      "stateMutability": "payable",
      "type": "function"
    }
  ],
  "bytecode": "0x608060405234801561001057600080fd5b50604051612c45380380612c458339818101604052604081101561003357600080fd5b508051602090910151600080546001600160a01b039384166001600160a01b03199182161790915560018054939092169216919091179055612bcb8061007a6000396000f3fe6080604052600436106100705760003560e01c806382e3464c1161004e57806382e3464c146103415780639025e64c146103bc578063cc79f97b146103d1578063ec58410c146103f857610070565b806328b4b53d146100755780637bd94e03146102135780637c5264b414610290575b600080fd5b61019e6004803603604081101561008b57600080fd5b810190602081018135600160201b8111156100a557600080fd5b8201836020820111156100b757600080fd5b803590602001918460018302840111600160201b831117156100d857600080fd5b91908080601f0160208091040260200160405190810160405280939291908181526020018383808284376000920191909152509295949360208101935035915050600160201b81111561012a57600080fd5b82018360208201111561013c57600080fd5b803590602001918460018302840111600160201b8311171561015d57600080fd5b91908080601f016020809104026020016040519081016040528093929190818152602001838380828437600092019190915250929550610527945050505050565b6040805160208082528351818301528351919283929083019185019080838360005b838110156101d85781810151838201526020016101c0565b50505050905090810190601f1680156102055780820380516001836020036101000a031916815260200191505b509250505060405180910390f35b34801561021f57600080fd5b5061028e6004803603602081101561023657600080fd5b810190602081018135600160201b81111561025057600080fd5b82018360208201111561026257600080fd5b803590602001918460018302840111600160201b8311171561028357600080fd5b509092509050610947565b005b34801561029c57600080fd5b5061019e600480360360208110156102b357600080fd5b810190602081018135600160201b8111156102cd57600080fd5b8201836020820111156102df57600080fd5b803590602001918460018302840111600160201b8311171561030057600080fd5b91908080601f016020809104026020016040519081016040528093929190818152602001838380828437600092019190915250929550610a65945050505050565b34801561034d57600080fd5b5061019e6004803603602081101561036457600080fd5b810190602081018135600160201b81111561037e57600080fd5b82018360208201111561039057600080fd5b803590602001918460018302840111600160201b831117156103b157600080fd5b509092509050610e58565b3480156103c857600080fd5b5061019e6111b6565b3480156103dd57600080fd5b506103e66111d5565b60408051918252519081900360200190f35b34801561040457600080fd5b506105136004803603606081101561041b57600080fd5b810190602081018135600160201b81111561043557600080fd5b82018360208201111561044757600080fd5b803590602001918460018302840111600160201b8311171561046857600080fd5b919390929091602081019035600160201b81111561048557600080fd5b82018360208201111561049757600080fd5b803590602001918460018302840111600160201b831117156104b857600080fd5b919390929091602081019035600160201b8111156104d557600080fd5b8201836020820111156104e757600080fd5b803590602001918460018302840111600160201b8311171561050857600080fd5b5090925090506111dc565b604080519115158252519081900360200190f35b606067016345785d8a0000341461057b576040805162461bcd60e51b8152602060048201526013602482015272125b9d985b1a5908109bdb9908185b5bdd5b9d606a1b604482015290519081900360640190fd5b606061058e61058985611520565b611545565b90506105986128f6565b6105a184611616565b90506000806105f66105c6856006815181106105b957fe5b6020026020010151611727565b6105e3866009815181106105d657fe5b602002602001015161178d565b60608601516040870151875160006117db565b91509150610602611971565b60006107428261073661062c600a6106208a6009815181106105d657fe5b9063ffffffff6119b016565b6000809054906101000a90046001600160a01b03166001600160a01b031663ad1d80698d6000806040518463ffffffff1660e01b815260040180806020018460ff16815260200183151515158152602001828103825285818151815260200191508051906020019080838360005b838110156106b257818101518382015260200161069a565b50505050905090810190601f1680156106df5780820380516001836020036101000a031916815260200191505b5094505050505060206040518083038186803b1580156106fe57600080fd5b505afa158015610712573d6000803e3d6000fd5b505050506040513d602081101561072857600080fd5b50519063ffffffff6119de16565b9063ffffffff6119de16565b60008054604080880151885160208a0151835163d931a86960e01b81523360048201526001600160a01b0393841660248201528a841660448201526064810192909252608482015260a48101859052600186901b60c482018190529251959650919492169263d931a8699260e48084019382900301818387803b1580156107c857600080fd5b505af11580156107dc573d6000803e3d6000fd5b5050600080546060890151604080516322f192af60e01b815260048101889052602481018990526001600160a01b0392831660448201528a8316606482015290519190921694506322f192af93506084808301939282900301818387803b15801561084657600080fd5b505af115801561085a573d6000803e3d6000fd5b50506000546001600160a01b031691506322f192af90508261088385600163ffffffff6119f016565b604080516001600160e01b031960e086901b168152600481019390935260248301919091523360448301526001600160a01b038816606483015251608480830192600092919082900301818387803b1580156108de57600080fd5b505af11580156108f2573d6000803e3d6000fd5b5050865160409788015188516001600160a01b039889166020820152808a019290925296909616606087015250506080808501919091528451808503909101815260a090930190935250925050505b92915050565b6000546001600160a01b0316331461099e576040805162461bcd60e51b815260206004820152601560248201527427a7262cafaba4aa24222920abafa6a0a720a3a2a960591b604482015290519081900360640190fd5b60008060006109e285858080601f016020809104026020016040519081016040528093929190818152602001838380828437600092019190915250611a0592505050565b600154604080516349f4cc1760e01b81526001600160a01b03808716600483015280861660248301526044820185905291519599509397509195501692506349f4cc1791606480830192600092919082900301818387803b158015610a4657600080fd5b505af1158015610a5a573d6000803e3d6000fd5b505050505050505050565b606080610a7461058984611520565b90506060610a88826006815181106105b957fe5b90506060610a9861058983611520565b6000805460405163ad1d806960e01b8152602481018390526044810183905260606004820190815289516064830152895194955092936001600160a01b039092169263ad1d8069928a9286928392909182916084909101906020870190808383885b83811015610b12578181015183820152602001610afa565b50505050905090810190601f168015610b3f5780820380516001836020036101000a031916815260200191505b5094505050505060206040518083038186803b158015610b5e57600080fd5b505afa158015610b72573d6000803e3d6000fd5b505050506040513d6020811015610b8857600080fd5b50518451909150600090610ba390869060099081106105d657fe5b9050600a8110610bfa576040805162461bcd60e51b815260206004820152601b60248201527f537570706f7274696e672061206d6178206f66203130206c6f67730000000000604482015290519081900360640190fd5b610c25610c1a84600381518110610c0d57fe5b6020026020010151611545565b8281518110610c0d57fe5b92506000610c4684600081518110610c3957fe5b6020026020010151611a42565b90506060610c5a856002815181106105b957fe5b9050610c6c85600181518110610c0d57fe5b94507f9b1bfa7fa9ee420a16e124f794c35ac9f90472acc99140eb2f6447c714cad8eb60001b610ca2866000815181106105d657fe5b14610cf4576040805162461bcd60e51b815260206004820152601e60248201527f4e6f742061207769746864726177206576656e74207369676e61747572650000604482015290519081900360640190fd5b6000610d06866001815181106105d657fe5b9050610d18866002815181106105d657fe5b6001600160a01b0316336001600160a01b031614610d675760405162461bcd60e51b8152600401808060200182810382526028815260200180612acd6028913960400191505060405180910390fd5b6000610d74836000611a5c565b600080546040805163d931a86960e01b81523360048201526001600160a01b03898116602483015287811660448301526064820186905260848201859052600160a483018190528c901b60c4830181905292519596509194919092169263d931a8699260e4808201939182900301818387803b158015610df357600080fd5b505af1158015610e07573d6000803e3d6000fd5b5050604080516001600160a01b03968716602082015280820195909552949096166060840152506080808301919091528251808303909101815260a09091019091529750505050505050505b919050565b606080600080600086866080811015610e7057600080fd5b810190602081018135600160201b811115610e8a57600080fd5b820183602082011115610e9c57600080fd5b803590602001918460018302840111600160201b83111715610ebd57600080fd5b91908080601f016020809104026020016040519081016040528093929190818152602001838380828437600092019190915250929950506001600160a01b0383351697505050602081013515159450604001351515925060609150610f26905061058986611520565b90506060610f3a826006815181106105b957fe5b90506000610f4e836009815181106105d657fe5b9050600a8110610fa5576040805162461bcd60e51b815260206004820152601b60248201527f537570706f7274696e672061206d6178206f66203130206c6f67730000000000604482015290519081900360640190fd5b6060610fb361058984611520565b9050610fd3610fc882600381518110610c0d57fe5b8381518110610c0d57fe5b9050610fdd612922565b610fed82600081518110610c3957fe5b6001600160a01b03166040820152815160609061101190849060029081106105b957fe5b905061102383600181518110610c0d57fe5b9250611035836001815181106105d657fe5b6001600160a01b0316606083015261104e816000611a5c565b8252861561106557611060838a611a78565b611075565b61106f838a611b78565b60208301525b61109a61108985600a63ffffffff6119b016565b60208401519063ffffffff6119de16565b602083015287156111385761113282602001516000809054906101000a90046001600160a01b03166001600160a01b031663ad1d80698d6000806040518463ffffffff1660e01b815260040180806020018460ff1681526020018315151515815260200182810382528581815181526020019150805190602001908083836000838110156106b257818101518382015260200161069a565b60208301525b816000015182602001518360400151846060015160405160200180858152602001848152602001836001600160a01b03166001600160a01b03168152602001826001600160a01b03166001600160a01b031681526020019450505050506040516020818303038152906040529a505050505050505050505092915050565b6040518060400160405280600381526020016201752160e91b81525081565b6202ea4281565b60006111e661295c565b61122588888080601f016020809104026020016040519081016040528093929190818152602001838380828437600092019190915250611cb692505050565b905060008061126988888080601f016020809104026020016040519081016040528093929190818152602001838380828437600092019190915250611a0592505050565b50509150915060606112b361058988888080601f01602080910402602001604051908101604052809392919081815260200183838082843760009201919091525061152092505050565b90506112bd6128f6565b6112d56112d083600a815181106105b957fe5b611d3a565b9050826001600160a01b031681606001516001600160a01b03161461132b5760405162461bcd60e51b815260040180806020018281038252604a8152602001806129fc604a913960600191505060405180910390fd5b80604001516001600160a01b031685606001516001600160a01b0316146113835760405162461bcd60e51b815260040180806020018281038252602f8152602001806129cd602f913960400191505060405180910390fd5b8060200151856020015114156113ca5760405162461bcd60e51b8152600401808060200182810382526021815260200180612a7f6021913960400191505060405180910390fd5b8051855114611418576040805162461bcd60e51b81526020600482015260156024820152740e8ded6cadc92c840c8decae6dc4ee840dac2e8c6d605b1b604482015290519081900360640190fd5b6000805460405163ad1d806960e01b815260248101839052600160448201819052606060048301908152606483018c90526001600160a01b039093169263ad1d8069928d928d9287928190608401868680828437600081840152601f19601f8201169050808301925050509550505050505060206040518083038186803b1580156114a257600080fd5b505afa1580156114b6573d6000803e3d6000fd5b505050506040513d60208110156114cc57600080fd5b5051835190915061150b906114e890859060069081106105b957fe5b6114f8856009815181106105d657fe5b60608501516040860151865160016117db565b5050939093119b9a5050505050505050505050565b611528612991565b506040805180820190915281518152602082810190820152919050565b606061155082611dfa565b61155957600080fd5b600061156483611e34565b90506060816040519080825280602002602001820160405280156115a257816020015b61158f612991565b8152602001906001900390816115875790505b50905060006115b48560200151611e90565b60208601510190506000805b8481101561160b576115d183611ef3565b91506040518060400160405280838152602001848152508482815181106115f457fe5b6020908102919091010152918101916001016115c0565b509195945050505050565b61161e6128f6565b606061162c61058984611520565b9050805160091461167c576040805162461bcd60e51b815260206004820152601560248201527409a82988c9ea49a8a88beae92a89088a482aebea8b605b1b604482015290519081900360640190fd5b61168c81600381518110610c3957fe5b6001600160a01b031660408301526116a381611f8c565b60208401526001600160a01b0316606083018190523314156116ff576116d76116d2826005815181106105b957fe5b61231c565b83608081018260038111156116e857fe5b60038111156116f357fe5b90529190915250611721565b611717611712826005815181106105b957fe5b61246f565b8252600260808301525b50919050565b805160609061173557600080fd5b6000806117418461257c565b915091506060816040519080825280601f01601f191660200182016040528015611772576020820181803883390190505b509050602081016117848482856125a2565b50949350505050565b8051600090158015906117a257508151602110155b6117ab57600080fd5b6000806117b78461257c565b8151919350915060208210156117d35760208290036101000a90045b949350505050565b600080600a8710611833576040805162461bcd60e51b815260206004820152601b60248201527f537570706f7274696e672061206d6178206f66203130206c6f67730000000000604482015290519081900360640190fd5b60606118416105898a611520565b905061186161185682600381518110610c0d57fe5b8981518110610c0d57fe5b905061187381600081518110610c3957fe5b6001600160a01b0316866001600160a01b0316146118c25760405162461bcd60e51b8152600401808060200182810382526039815260200180612a466039913960400191505060405180910390fd5b60606118d4826002815181106105b957fe5b90506118e682600181518110610c0d57fe5b91506118f8826001815181106105d657fe5b9350841561190f5761190a8289611a78565b61191c565b6119198289611b78565b92505b611927816000611a5c565b86146119645760405162461bcd60e51b815260040180806020018281038252602a815260200180612b1c602a913960400191505060405180910390fd5b5050965096945050505050565b600080546040516001600160a01b03909116919067016345785d8a00009082818181858883f193505050501580156119ad573d6000803e3d6000fd5b50565b6000826119bf57506000610941565b828202828482816119cc57fe5b04146119d757600080fd5b9392505050565b6000828201838110156119d757600080fd5b6000828211156119ff57600080fd5b50900390565b600080600080848060200190516080811015611a2057600080fd5b5080516020820151604083015160609093015191989097509195509350915050565b8051600090601514611a5357600080fd5b6109418261178d565b60008160200183511015611a6f57600080fd5b50016020015190565b6000611a8a836000815181106105d657fe5b90507f9b1bfa7fa9ee420a16e124f794c35ac9f90472acc99140eb2f6447c714cad8eb811480611ad957507f6eabe333476233fd382224f233210cb808a7bc4c4de64f9d76628bf63c677b1a81145b611b145760405162461bcd60e51b815260040180806020018281038252602d815260200180612aa0602d913960400191505060405180910390fd5b611b24836002815181106105d657fe5b6001600160a01b0316826001600160a01b031614611b735760405162461bcd60e51b815260040180806020018281038252602a815260200180612b6d602a913960400191505060405180910390fd5b505050565b600080611b8b846000815181106105d657fe5b905060007f5548c837ab068cf56a2c2479df0882a4922fd203edb7517321831d95078c5f62821415611bce57611bc7856002815181106105d657fe5b9050611c5e565b7f6eabe333476233fd382224f233210cb808a7bc4c4de64f9d76628bf63c677b1a821415611c1157611c06856003815181106105d657fe5b905060019250611c5e565b6040805162461bcd60e51b815260206004820152601760248201527f457869742074797065206e6f7420737570706f72746564000000000000000000604482015290519081900360640190fd5b806001600160a01b0316846001600160a01b031614611cae5760405162461bcd60e51b8152600401808060200182810382526027815260200180612af56027913960400191505060405180910390fd5b505092915050565b611cbe61295c565b60008060008060008680602001905160a0811015611cdb57600080fd5b508051602080830151604080850151606080870151608097880151845160c081018652938452958301526001600160a01b03958616928201929092529390911690830152151591810191909152600060a0820152979650505050505050565b611d426128f6565b6060611d5061058984611520565b90508051600914611da0576040805162461bcd60e51b815260206004820152601560248201527409a82988c9ea49a8a88beae92a89088a482aebea8b605b1b604482015290519081900360640190fd5b611db081600381518110610c3957fe5b6001600160a01b03166040830152611dc781611f8c565b60208401526001600160a01b031660608301528051611df1906116d290839060059081106105b957fe5b50825250919050565b8051600090611e0b57506000610e53565b6020820151805160001a9060c0821015611e2a57600092505050610e53565b5060019392505050565b8051600090611e4557506000610e53565b60008090506000611e598460200151611e90565b602085015185519181019250015b80821015611e8757611e7882611ef3565b60019093019290910190611e67565b50909392505050565b8051600090811a6080811015611eaa576000915050610e53565b60b8811080611ec5575060c08110801590611ec5575060f881105b15611ed4576001915050610e53565b60c0811015611ee85760b519019050610e53565b60f519019050610e53565b80516000908190811a6080811015611f0e5760019150611f85565b60b8811015611f2357607e1981019150611f85565b60c0811015611f505760b78103600185019450806020036101000a85510460018201810193505050611f85565b60f8811015611f655760be1981019150611f85565b60f78103600185019450806020036101000a855104600182018101935050505b5092915050565b60408051600980825261014082019092526000918291606091816020015b6060815260200190600190039081611faa57905050905060005b60058160ff161161200357611fe1858260ff16815181106105b957fe5b828260ff1681518110611ff057fe5b6020908102919091010152600101611fc4565b506040518060400160405280600381526020016201752160e91b8152508160068151811061202d57fe5b6020026020010181905250604051806020016040528060008152508160078151811061205557fe5b6020026020010181905250604051806020016040528060008152508160088151811061207d57fe5b6020026020010181905250612091816125f3565b80519060200120915060018273__Common________________________________63b40b539b6120c7886006815181106105b957fe5b604080518082018252600381526201752160e91b602080830191825292516326b3515760e11b81526004810193845282516024820152825173__Common________________________________94634d66a2ae9493909283926044909101919080838360005b8381101561214557818101518382015260200161212d565b50505050905090810190601f1680156121725780820380516001836020036101000a031916815260200191505b509250505060206040518083038186803b15801561218f57600080fd5b505af41580156121a3573d6000803e3d6000fd5b505050506040513d60208110156121b957600080fd5b5051604080516001600160e01b031960e086901b16815261ffff8316602482015260048101918252835160448201528351829160640190602086019080838360005b838110156122135781810151838201526020016121fb565b50505050905090810190601f1680156122405780820380516001836020036101000a031916815260200191505b50935050505060206040518083038186803b15801561225e57600080fd5b505af4158015612272573d6000803e3d6000fd5b505050506040513d602081101561228857600080fd5b5051865161229d90889060079081106105d657fe5b60001b6122b0886008815181106105d657fe5b60001b60405160008152602001604052604051808581526020018460ff1660ff1681526020018381526020018281526020019450505050506020604051602081039080840390855afa15801561230a573d6000803e3d6000fd5b50505060206040510351925050915091565b60008060006123366123318560006004612647565b6126c6565b90506001600160e01b03198116632e1a7d4d60e01b14156123aa578351602414612394576040805162461bcd60e51b815260206004820152600a602482015269092dcecc2d8d2c840e8f60b31b604482015290519081900360640190fd5b61239f846004611a5c565b925060039150612469565b6001600160e01b031981166323b872dd60e01b141561241c578351606414612406576040805162461bcd60e51b815260206004820152600a602482015269092dcecc2d8d2c840e8f60b31b604482015290519081900360640190fd5b612411846044611a5c565b925060019150612469565b6040805162461bcd60e51b815260206004820152601a60248201527f457869742074782074797065206e6f7420737570706f72746564000000000000604482015290519081900360640190fd5b50915091565b600081516064146124b4576040805162461bcd60e51b815260206004820152600a602482015269092dcecc2d8d2c840e8f60b31b604482015290519081900360640190fd5b60006124c66123318460006004612647565b90506001600160e01b031981166323b872dd60e01b146125175760405162461bcd60e51b8152600401808060200182810382526027815260200180612b466027913960400191505060405180910390fd5b612522836024611a5c565b6001600160a01b0316336001600160a01b0316146125715760405162461bcd60e51b81526004018080602001828103825260218152602001806129ac6021913960400191505060405180910390fd5b6119d7836044611a5c565b600080600061258e8460200151611e90565b602085015194519481019594039392505050565b806125ac57611b73565b5b602081106125cc578251825260209283019290910190601f19016125ad565b8015611b7357915181516020939093036101000a6000190180199091169216919091179052565b60608060005b8351811015612631576126278261262286848151811061261557fe5b60200260200101516126cd565b612731565b91506001016125f9565b506119d7612641825160c06127ae565b82612731565b60608183018451101561265957600080fd5b60608215801561267457604051915060208201604052611784565b6040519150601f8416801560200281840101858101878315602002848b0101015b818310156126ad578051835260209283019201612695565b5050858452601f01601f19166040525050949350505050565b6020015190565b606080825160011480156126f557506080836000815181106126eb57fe5b016020015160f81c105b1561272057604080516001808252818301909252906020820181803883395085935061094192505050565b6119d761272f845160806127ae565b845b6060806040519050835180825260208201818101602087015b8183101561276257805183526020928301920161274a565b50855184518101855292509050808201602086015b8183101561278f578051835260209283019201612777565b508651929092011591909101601f01601f191660405250905092915050565b6060603883101561280b5760408051600180825281830190925260609160208201818038833901905050905082840160f81b816000815181106127ed57fe5b60200101906001600160f81b031916908160001a9053509050610941565b600060015b80858161281957fe5b041561282e5760019091019061010002612810565b606061283e838660370101612862565b9050606061284b87612862565b90506128578282612731565b945050505050610941565b6060600160ff831115612873575060025b806040519080825280601f01601f19166020018201604052801561289e576020820181803883390190505b50915060005b818110156128ef5780600183030360080260020a84816128c057fe5b0460f81b8382815181106128d057fe5b60200101906001600160f81b031916908160001a9053506001016128a4565b5050919050565b6040805160a0810182526000808252602082018190529181018290526060810182905290608082015290565b6040518060800160405280600081526020016000815260200160006001600160a01b0316815260200160006001600160a01b031681525090565b6040805160c081018252600080825260208201819052918101829052606081018290526080810182905260a081019190915290565b60405180604001604052806000815260200160008152509056fe4578697420747820646f65736e7420636f6e6365726e2074686520657869746f724368616c6c656e676520747820746f6b656e20646f65736e74206d617463682077697468206578697420746f6b656e4368616c6c656e6765207478206e6f74207369676e6564206279207468652070617274792077686f207369676e65642074686520696e707574205554584f20746f2074686520657869745265666572656e636520616e64206578697420747820646f206e6f7420636f72726573706f6e6420746f207468652073616d6520746f6b656e43616e6e6f74206368616c6c656e676520776974682074686520657869742074784c6f67207369676e617475726520646f65736e74207175616c69667920617320612076616c6964207370656e645769746864726177657220616e64206275726e206578697420747820646f206e6f74206d617463687478202f206c6f6720646f65736e7420636f6e6365726e20746865207061727469636970616e74546f6b656e496420696e2074686520747820616e64206c6f674461746120646f206e6f74206d617463684f6e6c7920737570706f7274732065786974696e672066726f6d207472616e73666572207478737061727469636970616e7420616e64207265666572656e63656420747820646f206e6f74206d61746368a265627a7a7231582045a4d5faa69d7dfe8be981a4cf5ebd77ae6b20a2807a72bfcdb7409f6ab718d964736f6c634300050b0032",
  "source": "pragma solidity ^0.5.2;\n\nimport {RLPReader} from \"solidity-rlp/contracts/RLPReader.sol\";\nimport {SafeMath} from \"openzeppelin-solidity/contracts/math/SafeMath.sol\";\n\nimport {BytesLib} from \"../../common/lib/BytesLib.sol\";\nimport {Common} from \"../../common/lib/Common.sol\";\nimport {RLPEncode} from \"../../common/lib/RLPEncode.sol\";\n\nimport {IErcPredicate} from \"./IPredicate.sol\";\n\ncontract ERC721Predicate is IErcPredicate {\n    using RLPReader for bytes;\n    using RLPReader for RLPReader.RLPItem;\n    using SafeMath for uint256;\n\n    // keccak256('Deposit(address,address,uint256)')\n    bytes32 constant DEPOSIT_EVENT_SIG = 0x5548c837ab068cf56a2c2479df0882a4922fd203edb7517321831d95078c5f62;\n    // keccak256('Withdraw(address,address,uint256)')\n    bytes32 constant WITHDRAW_EVENT_SIG = 0x9b1bfa7fa9ee420a16e124f794c35ac9f90472acc99140eb2f6447c714cad8eb;\n    // keccak256('LogTransfer(address,address,address,uint256)')\n    bytes32 constant E721_LOG_TRANSFER_EVENT_SIG = 0x6eabe333476233fd382224f233210cb808a7bc4c4de64f9d76628bf63c677b1a;\n    // keccak256('withdraw(uint256)').slice(0, 4)\n    bytes4 constant WITHDRAW_FUNC_SIG = 0x2e1a7d4d;\n    // keccak256('transferFrom(address,address,uint256)').slice(0, 4)\n    bytes4 constant TRANSFER_FROM_FUNC_SIG = 0x23b872dd;\n\n    constructor(address _withdrawManager, address _depositManager)\n        public\n        IErcPredicate(_withdrawManager, _depositManager)\n    {}\n\n    /**\n   * @notice Verify the deprecation of a state update\n   * @param exit ABI encoded PlasmaExit data\n   * @param inputUtxo ABI encoded Input UTXO data\n   * @param challengeData RLP encoded data of the challenge reference tx that encodes the following fields\n      * headerNumber Header block number of which the reference tx was a part of\n      * blockProof Proof that the block header (in the child chain) is a leaf in the submitted merkle root\n      * blockNumber Block number of which the reference tx is a part of\n      * blockTime Reference tx block time\n      * blocktxRoot Transactions root of block\n      * blockReceiptsRoot Receipts root of block\n      * receipt Receipt of the reference transaction\n      * receiptProof Merkle proof of the reference receipt\n      * branchMask Merkle proof branchMask for the receipt\n      * logIndex Log Index to read from the receipt\n      * tx Challenge transaction\n      * txProof Merkle proof of the challenge tx\n   * @return Whether or not the state is deprecated\n   */\n    function verifyDeprecation(\n        bytes calldata exit,\n        bytes calldata inputUtxo,\n        bytes calldata challengeData\n    ) external returns (bool) {\n        PlasmaExit memory _exit = decodeExit(exit);\n        (uint256 age, address signer, , ) = decodeInputUtxo(inputUtxo);\n        RLPReader.RLPItem[] memory referenceTxData = challengeData\n            .toRlpItem()\n            .toList();\n\n        ExitTxData memory challengeTxData = processChallengeTx(\n            referenceTxData[10].toBytes()\n        );\n        require(\n            challengeTxData.signer == signer,\n            \"Challenge tx not signed by the party who signed the input UTXO to the exit\"\n        );\n        require(\n            _exit.token == challengeTxData.childToken,\n            \"Challenge tx token doesnt match with exit token\"\n        );\n        require(\n            _exit.txHash != challengeTxData.txHash,\n            \"Cannot challenge with the exit tx\"\n        );\n        require(\n            _exit.receiptAmountOrNFTId == challengeTxData.amountOrToken,\n            \"tokenId doesn't match\"\n        );\n        uint256 ageOfChallengeTx = withdrawManager.verifyInclusion(\n            challengeData,\n            0,\n            true /* verifyTxInclusion */\n        );\n        processReferenceTx(\n            referenceTxData[6].toBytes(), // receipt\n            referenceTxData[9].toUint(), // logIndex\n            challengeTxData.signer,\n            challengeTxData.childToken,\n            challengeTxData.amountOrToken,\n            true // isChallenge\n        );\n        return ageOfChallengeTx > age;\n    }\n\n    function interpretStateUpdate(bytes calldata state)\n        external\n        view\n        returns (bytes memory b)\n    {\n        (bytes memory _data, address participant, bool verifyInclusion, bool isChallenge) = abi\n            .decode(state, (bytes, address, bool, bool));\n        RLPReader.RLPItem[] memory referenceTx = _data.toRlpItem().toList();\n        bytes memory receipt = referenceTx[6].toBytes();\n        uint256 logIndex = referenceTx[9].toUint();\n        require(logIndex < MAX_LOGS, \"Supporting a max of 10 logs\");\n        RLPReader.RLPItem[] memory inputItems = receipt.toRlpItem().toList();\n        inputItems = inputItems[3].toList()[logIndex].toList(); // select log based on given logIndex\n        ReferenceTxData memory data;\n        data.childToken = RLPReader.toAddress(inputItems[0]); // \"address\" (contract address that emitted the log) field in the receipt\n        bytes memory logData = inputItems[2].toBytes();\n        inputItems = inputItems[1].toList(); // topics\n        data.rootToken = address(RLPReader.toUint(inputItems[1]));\n        // event LogTransfer(address indexed token, address indexed from, address indexed to, uint256 tokenId);\n        data.closingBalance = BytesLib.toUint(logData, 0); // first un-indexed param in LogTransfer\n        if (isChallenge) {\n            processChallenge(inputItems, participant);\n        } else {\n            data.age = processStateUpdate(inputItems, participant);\n        }\n        data.age = data.age.add(logIndex.mul(MAX_LOGS));\n        if (verifyInclusion) {\n            data.age = withdrawManager\n                .verifyInclusion(\n                _data,\n                0,\n                false /* verifyTxInclusion */\n            )\n                .add(data.age);\n        }\n        return\n            abi.encode(\n                data.closingBalance,\n                data.age,\n                data.childToken,\n                data.rootToken\n            );\n    }\n\n    function startExitWithBurntTokens(bytes memory data)\n        public\n        returns (bytes memory)\n    {\n        RLPReader.RLPItem[] memory referenceTxData = data.toRlpItem().toList();\n        bytes memory receipt = referenceTxData[6].toBytes();\n        RLPReader.RLPItem[] memory inputItems = receipt.toRlpItem().toList();\n        uint256 age = withdrawManager.verifyInclusion(\n            data,\n            0, /* offset */\n            false /* verifyTxInclusion */\n        );\n        uint256 logIndex = referenceTxData[9].toUint();\n        require(logIndex < MAX_LOGS, \"Supporting a max of 10 logs\");\n        inputItems = inputItems[3].toList()[logIndex].toList(); // select log based on given logIndex\n\n        // \"address\" (contract address that emitted the log) field in the receipt\n        address childToken = RLPReader.toAddress(inputItems[0]);\n        bytes memory logData = inputItems[2].toBytes();\n        inputItems = inputItems[1].toList(); // topics\n        // now, inputItems[i] refers to i-th (0-based) topic in the topics array\n        // event Withdraw(address indexed token, address indexed from, uint256 amountOrTokenId, uint256 input1, uint256 output1)\n        require(\n            bytes32(inputItems[0].toUint()) == WITHDRAW_EVENT_SIG,\n            \"Not a withdraw event signature\"\n        );\n        address rootToken = address(RLPReader.toUint(inputItems[1]));\n        require(\n            msg.sender == address(inputItems[2].toUint()), // from\n            \"Withdrawer and burn exit tx do not match\"\n        );\n        uint256 tokenId = BytesLib.toUint(logData, 0);\n        uint256 exitId = age << 1; // last bit is reserved for housekeeping in erc20Predicate\n        withdrawManager.addExitToQueue(\n            msg.sender,\n            childToken,\n            rootToken,\n            tokenId,\n            bytes32(0x0), /* txHash */\n            true, /* isRegularExit */\n            exitId\n        );\n        return abi.encode(rootToken, tokenId, childToken, exitId);\n    }\n\n    /**\n   * @notice Start an exit by referencing the preceding (reference) transaction\n   * @param data RLP encoded data of the reference tx(s) that encodes the following fields for each tx\n      * headerNumber Header block number of which the reference tx was a part of\n      * blockProof Proof that the block header (in the child chain) is a leaf in the submitted merkle root\n      * blockNumber Block number of which the reference tx is a part of\n      * blockTime Reference tx block time\n      * blocktxRoot Transactions root of block\n      * blockReceiptsRoot Receipts root of block\n      * receipt Receipt of the reference transaction\n      * receiptProof Merkle proof of the reference receipt\n      * branchMask Merkle proof branchMask for the receipt\n      * logIndex Log Index to read from the receipt\n   * @param exitTx Signed exit transaction\n   * @return abi encoded bytes array that encodes the following fields\n      * address rootToken: Token that the exit corresponds to\n      * uint256 tokenId: TokenId being exited\n      * address childToken: Child token that the exit corresponds to\n      * uint256 exitId\n   */\n    function startExit(bytes memory data, bytes memory exitTx)\n        public\n        payable\n        isBondProvided\n        returns (bytes memory)\n    {\n        // referenceTx is a proof-of-funds of the party who signed the exit tx\n        RLPReader.RLPItem[] memory referenceTxData = data.toRlpItem().toList();\n\n        // Validate the exitTx - This may be an in-flight tx, so inclusion will not be checked\n        ExitTxData memory exitTxData = processExitTx(exitTx);\n\n        // process the receipt of the referenced tx\n        (address rootToken, uint256 oIndex) = processReferenceTx(\n            referenceTxData[6].toBytes(), // receipt\n            referenceTxData[9].toUint(), // logIndex\n            exitTxData.signer,\n            exitTxData.childToken,\n            exitTxData.amountOrToken,\n            false // isChallenge\n        );\n\n        sendBond(); // send BOND_AMOUNT to withdrawManager\n\n        // verifyInclusion returns the position of the receipt in child chain\n        uint256 ageOfUtxo = withdrawManager\n            .verifyInclusion(\n            data,\n            0, /* offset */\n            false /* verifyTxInclusion */\n        )\n            .add(referenceTxData[9].toUint().mul(MAX_LOGS)) // logIndex * MAX_LOGS\n            .add(oIndex); // whether exitTxData.signer is a sender or receiver in the referenced receipt\n        uint256 exitId = ageOfUtxo << 1; // last bit is reserved for housekeeping in erc20Predicate\n        withdrawManager.addExitToQueue(\n            msg.sender,\n            exitTxData.childToken,\n            rootToken,\n            exitTxData.amountOrToken,\n            exitTxData.txHash,\n            false, /* isRegularExit */\n            exitId\n        );\n\n        withdrawManager.addInput(\n            exitId,\n            ageOfUtxo,\n            exitTxData.signer,\n            rootToken\n        );\n        // Adding a dummy input, owner being the exitor to challenge spends that the exitor made after the transaction being exited from\n        withdrawManager.addInput(\n            exitId,\n            ageOfUtxo.sub(1),\n            msg.sender,\n            rootToken\n        );\n        return\n            abi.encode(\n                rootToken,\n                exitTxData.amountOrToken,\n                exitTxData.childToken,\n                exitId\n            );\n    }\n\n    /**\n   * @notice Process the reference tx to start a MoreVP style exit\n   * @param receipt Receipt of the reference transaction\n   * @param logIndex Log Index to read from the receipt\n   * @param participant Either of exitor or a counterparty depending on the type of exit\n   */\n    function processReferenceTx(\n        bytes memory receipt,\n        uint256 logIndex,\n        address participant,\n        address childToken,\n        uint256 tokenId,\n        bool isChallenge\n    ) internal pure returns (address rootToken, uint256 oIndex) {\n        require(logIndex < 10, \"Supporting a max of 10 logs\");\n        RLPReader.RLPItem[] memory inputItems = receipt.toRlpItem().toList();\n        inputItems = inputItems[3].toList()[logIndex].toList(); // select log based on given logIndex\n        require(\n            childToken == RLPReader.toAddress(inputItems[0]), // \"address\" (contract address that emitted the log) field in the receipt\n            \"Reference and exit tx do not correspond to the same token\"\n        );\n        bytes memory logData = inputItems[2].toBytes();\n        inputItems = inputItems[1].toList(); // topics\n        // now, inputItems[i] refers to i-th (0-based) topic in the topics array\n        // inputItems[0] is the event signature\n        rootToken = address(RLPReader.toUint(inputItems[1]));\n        if (isChallenge) {\n            processChallenge(inputItems, participant);\n        } else {\n            oIndex = processStateUpdate(inputItems, participant);\n        }\n        // tokenId is the first param in logData in all 3 of Deposit, Withdraw and LogTransfer\n        require(\n            tokenId == BytesLib.toUint(logData, 0),\n            \"TokenId in the tx and logData do not match\"\n        );\n    }\n\n    /**\n   * @notice Parse the state update and check if this predicate recognizes it\n   * @param inputItems inputItems[i] refers to i-th (0-based) topic in the topics array in the log\n   */\n    function processStateUpdate(\n        RLPReader.RLPItem[] memory inputItems,\n        address participant\n    ) internal pure returns (uint256 oIndex) {\n        bytes32 eventSignature = bytes32(inputItems[0].toUint());\n        address _participant;\n        if (eventSignature == DEPOSIT_EVENT_SIG) {\n            // event Deposit(address indexed token, address indexed from, uint256 amountOrTokenId, uint256 input1, uint256 output1)\n            _participant = address(inputItems[2].toUint()); // from\n        } else if (eventSignature == E721_LOG_TRANSFER_EVENT_SIG) {\n            // event LogTransfer(\n            //   address indexed token, address indexed from, address indexed to,\n            //   uint256 amountOrTokenId);\n            // Only makes sense to reference an incoming transfer, unlike erc20 where outgoing transfer also makes sense\n            _participant = address(inputItems[3].toUint()); // to\n            oIndex = 1;\n        } else {\n            revert(\"Exit type not supported\");\n        }\n        require(\n            participant == _participant,\n            \"tx / log doesnt concern the participant\"\n        );\n    }\n\n    /**\n   * @notice Parse the state update and check if this predicate recognizes it\n   * @param inputItems inputItems[i] refers to i-th (0-based) topic in the topics array in the log\n   */\n    function processChallenge(\n        RLPReader.RLPItem[] memory inputItems,\n        address participant\n    ) internal pure {\n        bytes32 eventSignature = bytes32(inputItems[0].toUint());\n        // event Withdraw(address indexed token, address indexed from, uint256 amountOrTokenId, uint256 input1, uint256 output1)\n        // event LogTransfer(\n        //   address indexed token, address indexed from, address indexed to,\n        //   uint256 amountOrTokenId, uint256 input1, uint256 input2, uint256 output1, uint256 output2)\n        require(\n            eventSignature == WITHDRAW_EVENT_SIG ||\n                eventSignature == E721_LOG_TRANSFER_EVENT_SIG,\n            \"Log signature doesnt qualify as a valid spend\"\n        );\n        require(\n            participant == address(inputItems[2].toUint()), // from\n            \"participant and referenced tx do not match\"\n        );\n        // oIndex is always 0 for the 2 scenarios above, hence not returning it\n    }\n\n    /**\n   * @notice Process the transaction to start a MoreVP style exit from\n   * @param exitTx Signed exit transaction\n   */\n    function processExitTx(bytes memory exitTx)\n        internal\n        view\n        returns (ExitTxData memory txData)\n    {\n        RLPReader.RLPItem[] memory txList = exitTx.toRlpItem().toList();\n        require(txList.length == 9, \"MALFORMED_WITHDRAW_TX\");\n        txData.childToken = RLPReader.toAddress(txList[3]); // corresponds to \"to\" field in tx\n        (txData.signer, txData.txHash) = getAddressFromTx(txList);\n        if (txData.signer == msg.sender) {\n            // exit tx is signed by exitor himself\n            (txData.amountOrToken, txData.exitType) = processExitTxSender(\n                RLPReader.toBytes(txList[5])\n            );\n        } else {\n            // exitor is a counterparty in the provided tx\n            txData.amountOrToken = processExitTxCounterparty(\n                RLPReader.toBytes(txList[5])\n            );\n            txData.exitType = ExitType.IncomingTransfer;\n        }\n    }\n\n    /**\n   * @notice Process the challenge transaction\n   * @param challengeTx Challenge transaction\n   * @return ExitTxData Parsed challenge transaction data\n   */\n    function processChallengeTx(bytes memory challengeTx)\n        internal\n        pure\n        returns (ExitTxData memory txData)\n    {\n        RLPReader.RLPItem[] memory txList = challengeTx.toRlpItem().toList();\n        require(txList.length == 9, \"MALFORMED_WITHDRAW_TX\");\n        txData.childToken = RLPReader.toAddress(txList[3]); // corresponds to \"to\" field in tx\n        (txData.signer, txData.txHash) = getAddressFromTx(txList);\n        // during a challenge, the tx signer must be the first party\n        (txData.amountOrToken, ) = processExitTxSender(\n            RLPReader.toBytes(txList[5])\n        );\n    }\n\n    function processExitTxSender(bytes memory txData)\n        internal\n        pure\n        returns (uint256 tokenId, ExitType exitType)\n    {\n        bytes4 funcSig = BytesLib.toBytes4(BytesLib.slice(txData, 0, 4));\n        if (funcSig == WITHDRAW_FUNC_SIG) {\n            // function withdraw(uint256 tokenId)\n            require(txData.length == 36, \"Invalid tx\"); // 4 bytes for funcSig and a single bytes32 parameter\n            tokenId = BytesLib.toUint(txData, 4);\n            exitType = ExitType.Burnt;\n        } else if (funcSig == TRANSFER_FROM_FUNC_SIG) {\n            // function transferFrom(address from, address to, uint256 tokenId)\n            require(txData.length == 100, \"Invalid tx\"); // 4 bytes for funcSig and a 3 bytes32 parameters (from, to, tokenId)\n            tokenId = BytesLib.toUint(txData, 68);\n            exitType = ExitType.OutgoingTransfer;\n        } else {\n            revert(\"Exit tx type not supported\");\n        }\n    }\n\n    function processExitTxCounterparty(bytes memory txData)\n        internal\n        view\n        returns (uint256 tokenId)\n    {\n        require(txData.length == 100, \"Invalid tx\"); // 4 bytes for funcSig and a 2 bytes32 parameters (to, value)\n        bytes4 funcSig = BytesLib.toBytes4(BytesLib.slice(txData, 0, 4));\n        require(\n            funcSig == TRANSFER_FROM_FUNC_SIG,\n            \"Only supports exiting from transfer txs\"\n        );\n        require(\n            msg.sender == address(BytesLib.toUint(txData, 36)), // to\n            \"Exit tx doesnt concern the exitor\"\n        );\n        tokenId = BytesLib.toUint(txData, 68); // NFT ID\n    }\n}\n",
  "sourcePath": "/Users/ohm.jirapon/playground/blockhain/pos/plasma-ploygon/contracts/contracts/root/predicates/ERC721Predicate.sol",
  "compiler": {
    "name": "solc",
    "version": "0.5.11+commit.c082d0b4.Emscripten.clang"
  },
  "schemaVersion": "3.0.14",
  "updatedAt": "2022-06-30T05:05:38.105Z",
  "devdoc": {
    "methods": {
      "startExit(bytes,bytes)": {
        "params": {
          "data": "RLP encoded data of the reference tx(s) that encodes the following fields for each tx headerNumber Header block number of which the reference tx was a part of blockProof Proof that the block header (in the child chain) is a leaf in the submitted merkle root blockNumber Block number of which the reference tx is a part of blockTime Reference tx block time blocktxRoot Transactions root of block blockReceiptsRoot Receipts root of block receipt Receipt of the reference transaction receiptProof Merkle proof of the reference receipt branchMask Merkle proof branchMask for the receipt logIndex Log Index to read from the receipt",
          "exitTx": "Signed exit transaction"
        },
        "return": "abi encoded bytes array that encodes the following fields address rootToken: Token that the exit corresponds to uint256 tokenId: TokenId being exited address childToken: Child token that the exit corresponds to uint256 exitId"
      },
      "verifyDeprecation(bytes,bytes,bytes)": {
        "params": {
          "challengeData": "RLP encoded data of the challenge reference tx that encodes the following fields headerNumber Header block number of which the reference tx was a part of blockProof Proof that the block header (in the child chain) is a leaf in the submitted merkle root blockNumber Block number of which the reference tx is a part of blockTime Reference tx block time blocktxRoot Transactions root of block blockReceiptsRoot Receipts root of block receipt Receipt of the reference transaction receiptProof Merkle proof of the reference receipt branchMask Merkle proof branchMask for the receipt logIndex Log Index to read from the receipt tx Challenge transaction txProof Merkle proof of the challenge tx",
          "exit": "ABI encoded PlasmaExit data",
          "inputUtxo": "ABI encoded Input UTXO data"
        },
        "return": "Whether or not the state is deprecated"
      }
    }
  },
  "userdoc": {
    "methods": {
      "startExit(bytes,bytes)": {
        "notice": "Start an exit by referencing the preceding (reference) transaction"
      },
      "verifyDeprecation(bytes,bytes,bytes)": {
        "notice": "Verify the deprecation of a state update"
      }
    }
  }
}