{
  "contractName": "ERC721PredicateBurnOnly",
  "abi": [
    {
      "inputs": [
        {
          "internalType": "address",
          "name": "_withdrawManager",
          "type": "address"
        },
        {
          "internalType": "address",
          "name": "_depositManager",
          "type": "address"
        }
      ],
      "payable": false,
      "stateMutability": "nonpayable",
      "type": "constructor"
    },
    {
      "constant": true,
      "inputs": [],
      "name": "CHAINID",
      "outputs": [
        {
          "internalType": "uint256",
          "name": "",
          "type": "uint256"
        }
      ],
      "payable": false,
      "stateMutability": "view",
      "type": "function"
    },
    {
      "constant": true,
      "inputs": [],
      "name": "networkId",
      "outputs": [
        {
          "internalType": "bytes",
          "name": "",
          "type": "bytes"
        }
      ],
      "payable": false,
      "stateMutability": "view",
      "type": "function"
    },
    {
      "constant": false,
      "inputs": [
        {
          "internalType": "bytes",
          "name": "data",
          "type": "bytes"
        }
      ],
      "name": "onFinalizeExit",
      "outputs": [],
      "payable": false,
      "stateMutability": "nonpayable",
      "type": "function"
    },
    {
      "constant": false,
      "inputs": [
        {
          "internalType": "bytes",
          "name": "exit",
          "type": "bytes"
        },
        {
          "internalType": "bytes",
          "name": "inputUtxo",
          "type": "bytes"
        },
        {
          "internalType": "bytes",
          "name": "challengeData",
          "type": "bytes"
        }
      ],
      "name": "verifyDeprecation",
      "outputs": [
        {
          "internalType": "bool",
          "name": "",
          "type": "bool"
        }
      ],
      "payable": false,
      "stateMutability": "nonpayable",
      "type": "function"
    },
    {
      "constant": true,
      "inputs": [
        {
          "internalType": "bytes",
          "name": "state",
          "type": "bytes"
        }
      ],
      "name": "interpretStateUpdate",
      "outputs": [
        {
          "internalType": "bytes",
          "name": "b",
          "type": "bytes"
        }
      ],
      "payable": false,
      "stateMutability": "view",
      "type": "function"
    },
    {
      "constant": false,
      "inputs": [
        {
          "internalType": "bytes",
          "name": "data",
          "type": "bytes"
        }
      ],
      "name": "startExitWithBurntTokens",
      "outputs": [
        {
          "internalType": "bytes",
          "name": "",
          "type": "bytes"
        }
      ],
      "payable": false,
      "stateMutability": "nonpayable",
      "type": "function"
    }
  ],
  "bytecode": "0x608060405234801561001057600080fd5b5060405161108d38038061108d8339818101604052604081101561003357600080fd5b508051602090910151600080546001600160a01b039384166001600160a01b031991821617909155600180549390921692169190911790556110138061007a6000396000f3fe608060405234801561001057600080fd5b50600436106100625760003560e01c80637bd94e03146100675780637c5264b4146100d757806382e3464c146101f05780639025e64c1461025e578063cc79f97b14610266578063ec58410c14610280575b600080fd5b6100d56004803603602081101561007d57600080fd5b810190602081018135600160201b81111561009757600080fd5b8201836020820111156100a957600080fd5b803590602001918460018302840111600160201b831117156100ca57600080fd5b5090925090506103a2565b005b61017b600480360360208110156100ed57600080fd5b810190602081018135600160201b81111561010757600080fd5b82018360208201111561011957600080fd5b803590602001918460018302840111600160201b8311171561013a57600080fd5b91908080601f0160208091040260200160405190810160405280939291908181526020018383808284376000920191909152509295506104c0945050505050565b6040805160208082528351818301528351919283929083019185019080838360005b838110156101b557818101518382015260200161019d565b50505050905090810190601f1680156101e25780820380516001836020036101000a031916815260200191505b509250505060405180910390f35b61017b6004803603602081101561020657600080fd5b810190602081018135600160201b81111561022057600080fd5b82018360208201111561023257600080fd5b803590602001918460018302840111600160201b8311171561025357600080fd5b509092509050610867565b61017b61086f565b61026e61088e565b60408051918252519081900360200190f35b61038e6004803603606081101561029657600080fd5b810190602081018135600160201b8111156102b057600080fd5b8201836020820111156102c257600080fd5b803590602001918460018302840111600160201b831117156102e357600080fd5b919390929091602081019035600160201b81111561030057600080fd5b82018360208201111561031257600080fd5b803590602001918460018302840111600160201b8311171561033357600080fd5b919390929091602081019035600160201b81111561035057600080fd5b82018360208201111561036257600080fd5b803590602001918460018302840111600160201b8311171561038357600080fd5b509092509050610895565b604080519115158252519081900360200190f35b6000546001600160a01b031633146103f9576040805162461bcd60e51b815260206004820152601560248201527427a7262cafaba4aa24222920abafa6a0a720a3a2a960591b604482015290519081900360640190fd5b600080600061043d85858080601f0160208091040260200160405190810160405280939291908181526020018383808284376000920191909152506108a192505050565b600154604080516349f4cc1760e01b81526001600160a01b03808716600483015280861660248301526044820185905291519599509397509195501692506349f4cc1791606480830192600092919082900301818387803b1580156104a157600080fd5b505af11580156104b5573d6000803e3d6000fd5b505050505050505050565b6000805460405163ad1d806960e01b815260248101839052604481018390526060600482018181528551606484015285519194936001600160a01b03169263ad1d8069928792869283928291608401906020870190808383885b8381101561053257818101518382015260200161051a565b50505050905090810190601f16801561055f5780820380516001836020036101000a031916815260200191505b5094505050505060206040518083038186803b15801561057e57600080fd5b505afa158015610592573d6000803e3d6000fd5b505050506040513d60208110156105a857600080fd5b505190506105b4610f48565b6105bd846108de565b90506105c7610f5b565b6105d08261090e565b905060006105dd836109f0565b9050600a8110610634576040805162461bcd60e51b815260206004820152601b60248201527f537570706f7274696e672061206d6178206f66203130206c6f67730000000000604482015290519081900360640190fd5b61063c610f7c565b61064583610a19565b9050600061065282610a86565b905061065c610f48565b61066583610aa9565b90507f9b1bfa7fa9ee420a16e124f794c35ac9f90472acc99140eb2f6447c714cad8eb6106a161069c83600063ffffffff610ad816565b610afe565b146106f3576040805162461bcd60e51b815260206004820152601e60248201527f4e6f742061207769746864726177206576656e74207369676e61747572650000604482015290519081900360640190fd5b61070761069c82600263ffffffff610ad816565b6001600160a01b0316336001600160a01b0316146107565760405162461bcd60e51b8152600401808060200182810382526028815260200180610fb76028913960400191505060405180910390fd5b600061076c61069c83600163ffffffff610ad816565b9050600061078361077c86610b4c565b6000610b62565b600080546040805163d931a86960e01b81523360048201526001600160a01b03898116602483015287811660448301526064820186905260848201859052600160a483018190528f901b60c4830181905292519596509194919092169263d931a8699260e4808201939182900301818387803b15801561080257600080fd5b505af1158015610816573d6000803e3d6000fd5b5050604080516001600160a01b03968716602082015280820195909552949096166060840152506080808301919091528251808303909101815260a09091019091529750505050505050505b919050565b606092915050565b6040518060400160405280600381526020016201752160e91b81525081565b6202ea4281565b60009695505050505050565b6000806000808480602001905160808110156108bc57600080fd5b5080516020820151604083015160609093015191989097509195509350915050565b6108e6610f48565b60606108f96108f484610b7e565b610ba3565b60408051602081019091529081529392505050565b610916610f5b565b610937826000015160068151811061092a57fe5b6020026020010151610c74565b6020820152610944610f9c565b6109518260200151610b7e565b905061095c81610cda565b156109715761096a81610ba3565b82526109dc565b606082602001519050606060018251036040519080825280601f01601f1916602001820160405280156109ab576020820181803883390190505b5090506000808360210191508260200190506109c982828551610d14565b6109d56108f484610b7e565b8652505050505b6109e5836109f0565b604083015250919050565b6000610a138260000151600981518110610a0657fe5b6020026020010151610afe565b92915050565b610a21610f7c565b610a29610f9c565b610a4a8360000151600381518110610a3d57fe5b6020026020010151610ba3565b836040015181518110610a5957fe5b602002602001015190506040518060400160405280828152602001610a7d83610ba3565b90529392505050565b6000610a138260200151600081518110610a9c57fe5b6020026020010151610d5f565b610ab1610f48565b6040518060200160405280610ad08460200151600181518110610a3d57fe5b905292915050565b610ae0610f9c565b8251805183908110610aee57fe5b6020026020010151905092915050565b805160009015801590610b1357508151602110155b610b1c57600080fd5b600080610b2884610d79565b815191935091506020821015610b445760208290036101000a90045b949350505050565b6060610a13826020015160028151811061092a57fe5b60008160200183511015610b7557600080fd5b50016020015190565b610b86610f9c565b506040805180820190915281518152602082810190820152919050565b6060610bae82610cda565b610bb757600080fd5b6000610bc283610d9f565b9050606081604051908082528060200260200182016040528015610c0057816020015b610bed610f9c565b815260200190600190039081610be55790505b5090506000610c128560200151610dfb565b60208601510190506000805b84811015610c6957610c2f83610e5e565b9150604051806040016040528083815260200184815250848281518110610c5257fe5b602090810291909101015291810191600101610c1e565b509195945050505050565b8051606090610c8257600080fd5b600080610c8e84610d79565b915091506060816040519080825280601f01601f191660200182016040528015610cbf576020820181803883390190505b50905060208101610cd1848285610ef7565b50949350505050565b8051600090610ceb57506000610862565b6020820151805160001a9060c0821015610d0a57600092505050610862565b5060019392505050565b80610d1e57610d5a565b5b60208110610d3e578251825260209283019290910190601f1901610d1f565b8251825160208390036101000a60001901801990921691161782525b505050565b8051600090601514610d7057600080fd5b610a1382610afe565b6000806000610d8b8460200151610dfb565b602085015194519481019594039392505050565b8051600090610db057506000610862565b60008090506000610dc48460200151610dfb565b602085015185519181019250015b80821015610df257610de382610e5e565b60019093019290910190610dd2565b50909392505050565b8051600090811a6080811015610e15576000915050610862565b60b8811080610e30575060c08110801590610e30575060f881105b15610e3f576001915050610862565b60c0811015610e535760b519019050610862565b60f519019050610862565b80516000908190811a6080811015610e795760019150610ef0565b60b8811015610e8e57607e1981019150610ef0565b60c0811015610ebb5760b78103600185019450806020036101000a85510460018201810193505050610ef0565b60f8811015610ed05760be1981019150610ef0565b60f78103600185019450806020036101000a855104600182018101935050505b5092915050565b80610f0157610d5a565b5b60208110610f21578251825260209283019290910190601f1901610f02565b8015610d5a57915181516020939093036101000a6000190180199091169216919091179052565b6040518060200160405280606081525090565b60405180606001604052806060815260200160608152602001600081525090565b6040518060400160405280610f8f610f9c565b8152602001606081525090565b60405180604001604052806000815260200160008152509056fe5769746864726177657220616e64206275726e206578697420747820646f206e6f74206d61746368a265627a7a72315820bb8f809f473dee0bbbc7f218ee0aceb28b07b6bf1b6ccfbdddc42059e3b61b7664736f6c63430005110032",
  "source": "pragma solidity ^0.5.2;\n\nimport {RLPReader} from \"solidity-rlp/contracts/RLPReader.sol\";\nimport {SafeMath} from \"openzeppelin-solidity/contracts/math/SafeMath.sol\";\n\nimport {BytesLib} from \"../../common/lib/BytesLib.sol\";\nimport {Common} from \"../../common/lib/Common.sol\";\nimport {RLPEncode} from \"../../common/lib/RLPEncode.sol\";\nimport {ExitPayloadReader} from \"../../common/lib/ExitPayloadReader.sol\";\nimport {IErcPredicate} from \"./IPredicate.sol\";\n\ncontract ERC721PredicateBurnOnly is IErcPredicate {\n    using RLPReader for bytes;\n    using RLPReader for RLPReader.RLPItem;\n    using SafeMath for uint256;\n\n    using ExitPayloadReader for bytes;\n    using ExitPayloadReader for ExitPayloadReader.ExitPayload;\n    using ExitPayloadReader for ExitPayloadReader.Receipt;\n    using ExitPayloadReader for ExitPayloadReader.Log;\n    using ExitPayloadReader for ExitPayloadReader.LogTopics;\n\n    // keccak256('Withdraw(address,address,uint256)')\n    bytes32 constant WITHDRAW_EVENT_SIG = 0x9b1bfa7fa9ee420a16e124f794c35ac9f90472acc99140eb2f6447c714cad8eb;\n\n    constructor(address _withdrawManager, address _depositManager)\n        public\n        IErcPredicate(_withdrawManager, _depositManager)\n    {}\n\n    function verifyDeprecation(\n        bytes calldata exit,\n        bytes calldata inputUtxo,\n        bytes calldata challengeData\n    ) external returns (bool) {}\n\n    function interpretStateUpdate(bytes calldata state)\n        external\n        view\n        returns (bytes memory b) {}\n\n    function startExitWithBurntTokens(bytes memory data)\n        public\n        returns (bytes memory)\n    {\n        uint256 age = withdrawManager.verifyInclusion(\n            data,\n            0, /* offset */\n            false /* verifyTxInclusion */\n        );\n\n        ExitPayloadReader.ExitPayload memory payload = data.toExitPayload();\n        ExitPayloadReader.Receipt memory receipt = payload.getReceipt();\n        uint256 logIndex = payload.getReceiptLogIndex();\n        require(logIndex < MAX_LOGS, \"Supporting a max of 10 logs\");\n        ExitPayloadReader.Log memory log = receipt.getLog();\n\n        // \"address\" (contract address that emitted the log) field in the receipt\n        address childToken = log.getEmitter();\n        ExitPayloadReader.LogTopics memory topics = log.getTopics();\n        // now, inputItems[i] refers to i-th (0-based) topic in the topics array\n        // event Withdraw(address indexed token, address indexed from, uint256 amountOrTokenId, uint256 input1, uint256 output1)\n        require(\n            bytes32(topics.getField(0).toUint()) == WITHDRAW_EVENT_SIG,\n            \"Not a withdraw event signature\"\n        );\n        require(\n            msg.sender == address(topics.getField(2).toUint()), // from\n            \"Withdrawer and burn exit tx do not match\"\n        );\n        address rootToken = address(topics.getField(1).toUint());\n        uint256 tokenId = BytesLib.toUint(log.getData(), 0);\n        uint256 exitId = age << 1;\n        withdrawManager.addExitToQueue(\n            msg.sender,\n            childToken,\n            rootToken,\n            tokenId,\n            bytes32(0x0), /* txHash */\n            true, /* isRegularExit */\n            exitId\n        );\n        return abi.encode(rootToken, tokenId, childToken, exitId);\n    }\n}\n",
  "sourcePath": "/Users/ohm.jirapon/playground/blockhain/pos/plasma-ploygon/contracts/contracts/root/predicates/ERC721PredicateBurnOnly.sol",
  "compiler": {
    "name": "solc",
    "version": "0.5.17+commit.d19bba13.Linux.g++"
  },
  "schemaVersion": "3.4.7",
  "updatedAt": "2022-07-08T08:23:54.276Z",
  "devdoc": {
    "methods": {}
  },
  "userdoc": {
    "methods": {}
  }
}