{
  "contractName": "EventsHub",
  "abi": [
    {
      "anonymous": false,
      "inputs": [
        {
          "indexed": true,
          "internalType": "uint256",
          "name": "validatorId",
          "type": "uint256"
        },
        {
          "indexed": true,
          "internalType": "address",
          "name": "user",
          "type": "address"
        },
        {
          "indexed": false,
          "internalType": "uint256",
          "name": "amount",
          "type": "uint256"
        },
        {
          "indexed": false,
          "internalType": "uint256",
          "name": "nonce",
          "type": "uint256"
        }
      ],
      "name": "DelegatorUnstakeWithId",
      "type": "event"
    },
    {
      "anonymous": false,
      "inputs": [
        {
          "indexed": false,
          "internalType": "uint256",
          "name": "rewardDecreasePerCheckpoint",
          "type": "uint256"
        },
        {
          "indexed": false,
          "internalType": "uint256",
          "name": "maxRewardedCheckpoints",
          "type": "uint256"
        },
        {
          "indexed": false,
          "internalType": "uint256",
          "name": "checkpointRewardDelta",
          "type": "uint256"
        }
      ],
      "name": "RewardParams",
      "type": "event"
    },
    {
      "anonymous": false,
      "inputs": [
        {
          "indexed": true,
          "internalType": "uint256",
          "name": "validatorId",
          "type": "uint256"
        },
        {
          "indexed": true,
          "internalType": "address",
          "name": "user",
          "type": "address"
        },
        {
          "indexed": true,
          "internalType": "uint256",
          "name": "amount",
          "type": "uint256"
        },
        {
          "indexed": false,
          "internalType": "uint256",
          "name": "tokens",
          "type": "uint256"
        },
        {
          "indexed": false,
          "internalType": "uint256",
          "name": "nonce",
          "type": "uint256"
        }
      ],
      "name": "ShareBurnedWithId",
      "type": "event"
    },
    {
      "anonymous": false,
      "inputs": [
        {
          "indexed": true,
          "internalType": "uint256",
          "name": "validatorId",
          "type": "uint256"
        },
        {
          "indexed": true,
          "internalType": "uint256",
          "name": "newCommissionRate",
          "type": "uint256"
        },
        {
          "indexed": true,
          "internalType": "uint256",
          "name": "oldCommissionRate",
          "type": "uint256"
        }
      ],
      "name": "UpdateCommissionRate",
      "type": "event"
    },
    {
      "constant": true,
      "inputs": [],
      "name": "registry",
      "outputs": [
        {
          "internalType": "contract Registry",
          "name": "",
          "type": "address"
        }
      ],
      "payable": false,
      "stateMutability": "view",
      "type": "function"
    },
    {
      "constant": false,
      "inputs": [
        {
          "internalType": "contract Registry",
          "name": "_registry",
          "type": "address"
        }
      ],
      "name": "initialize",
      "outputs": [],
      "payable": false,
      "stateMutability": "nonpayable",
      "type": "function"
    },
    {
      "constant": false,
      "inputs": [
        {
          "internalType": "uint256",
          "name": "validatorId",
          "type": "uint256"
        },
        {
          "internalType": "address",
          "name": "user",
          "type": "address"
        },
        {
          "internalType": "uint256",
          "name": "amount",
          "type": "uint256"
        },
        {
          "internalType": "uint256",
          "name": "tokens",
          "type": "uint256"
        },
        {
          "internalType": "uint256",
          "name": "nonce",
          "type": "uint256"
        }
      ],
      "name": "logShareBurnedWithId",
      "outputs": [],
      "payable": false,
      "stateMutability": "nonpayable",
      "type": "function"
    },
    {
      "constant": false,
      "inputs": [
        {
          "internalType": "uint256",
          "name": "validatorId",
          "type": "uint256"
        },
        {
          "internalType": "address",
          "name": "user",
          "type": "address"
        },
        {
          "internalType": "uint256",
          "name": "amount",
          "type": "uint256"
        },
        {
          "internalType": "uint256",
          "name": "nonce",
          "type": "uint256"
        }
      ],
      "name": "logDelegatorUnstakedWithId",
      "outputs": [],
      "payable": false,
      "stateMutability": "nonpayable",
      "type": "function"
    },
    {
      "constant": false,
      "inputs": [
        {
          "internalType": "uint256",
          "name": "rewardDecreasePerCheckpoint",
          "type": "uint256"
        },
        {
          "internalType": "uint256",
          "name": "maxRewardedCheckpoints",
          "type": "uint256"
        },
        {
          "internalType": "uint256",
          "name": "checkpointRewardDelta",
          "type": "uint256"
        }
      ],
      "name": "logRewardParams",
      "outputs": [],
      "payable": false,
      "stateMutability": "nonpayable",
      "type": "function"
    },
    {
      "constant": false,
      "inputs": [
        {
          "internalType": "uint256",
          "name": "validatorId",
          "type": "uint256"
        },
        {
          "internalType": "uint256",
          "name": "newCommissionRate",
          "type": "uint256"
        },
        {
          "internalType": "uint256",
          "name": "oldCommissionRate",
          "type": "uint256"
        }
      ],
      "name": "logUpdateCommissionRate",
      "outputs": [],
      "payable": false,
      "stateMutability": "nonpayable",
      "type": "function"
    }
  ],
  "bytecode": "0x60806040526000805460ff1916905534801561001a57600080fd5b506107798061002a6000396000f3fe608060405234801561001057600080fd5b50600436106100625760003560e01c80635536b682146100675780636e699d87146100a75780637b103999146100df578063abf158d514610103578063c4d66de81461012c578063c98cc00214610152575b600080fd5b6100a5600480360360a081101561007d57600080fd5b508035906001600160a01b03602082013516906040810135906060810135906080013561017b565b005b6100a5600480360360808110156100bd57600080fd5b508035906001600160a01b036020820135169060408101359060600135610312565b6100e76104a7565b604080516001600160a01b039092168252519081900360200190f35b6100a56004803603606081101561011957600080fd5b50803590602081013590604001356104bb565b6100a56004803603602081101561014257600080fd5b50356001600160a01b03166105ba565b6100a56004803603606081101561016857600080fd5b5080359060208101359060400135610635565b8460008060019054906101000a90046001600160a01b03166001600160a01b031663287be3e46040518163ffffffff1660e01b815260040160206040518083038186803b1580156101cb57600080fd5b505afa1580156101df573d6000803e3d6000fd5b505050506040513d60208110156101f557600080fd5b505160408051630d6a8b9160e21b81526004810185905290516001600160a01b03909216916335aa2e449160248082019260e092909190829003018186803b15801561024057600080fd5b505afa158015610254573d6000803e3d6000fd5b505050506040513d60e081101561026a57600080fd5b5060c0015190506001600160a01b03811633146102be576040805162461bcd60e51b815260206004820152600d60248201526c3737ba103b30b634b230ba37b960991b604482015290519081900360640190fd5b84866001600160a01b0316887f502f5a6697a92e602c626b931a4a771fef4360eb9cece7bf906f10c5cec96aaa8787604051808381526020018281526020019250505060405180910390a450505050505050565b8360008060019054906101000a90046001600160a01b03166001600160a01b031663287be3e46040518163ffffffff1660e01b815260040160206040518083038186803b15801561036257600080fd5b505afa158015610376573d6000803e3d6000fd5b505050506040513d602081101561038c57600080fd5b505160408051630d6a8b9160e21b81526004810185905290516001600160a01b03909216916335aa2e449160248082019260e092909190829003018186803b1580156103d757600080fd5b505afa1580156103eb573d6000803e3d6000fd5b505050506040513d60e081101561040157600080fd5b5060c0015190506001600160a01b0381163314610455576040805162461bcd60e51b815260206004820152600d60248201526c3737ba103b30b634b230ba37b960991b604482015290519081900360640190fd5b846001600160a01b0316867f7beb9bef91040fcf7607c78d4fc668370a9036788d7e6f202a4a2db5b0c28c808686604051808381526020018281526020019250505060405180910390a3505050505050565b60005461010090046001600160a01b031681565b60005460408051630a1ef8f960e21b81529051339261010090046001600160a01b03169163287be3e4916004808301926020929190829003018186803b15801561050457600080fd5b505afa158015610518573d6000803e3d6000fd5b505050506040513d602081101561052e57600080fd5b50516001600160a01b0316146105755760405162461bcd60e51b81526004018080602001828103825260218152602001806107246021913960400191505060405180910390fd5b604080518481526020810184905280820183905290517f801c2d11f1d1780f228c2a497cf5eae033694c8eb057d636044683def26e03ec9181900360600190a1505050565b60005460ff1615610603576040805162461bcd60e51b815260206004820152600e60248201526d185b1c9958591e481a5b9a5d195960921b604482015290519081900360640190fd5b600080546001600160a01b0390921661010002610100600160a81b031960ff1990931660011792909216919091179055565b60005460408051630a1ef8f960e21b81529051339261010090046001600160a01b03169163287be3e4916004808301926020929190829003018186803b15801561067e57600080fd5b505afa158015610692573d6000803e3d6000fd5b505050506040513d60208110156106a857600080fd5b50516001600160a01b0316146106ef5760405162461bcd60e51b81526004018080602001828103825260218152602001806107246021913960400191505060405180910390fd5b8082847f7d5da5ece9d43013d62ab966f4704ca376b92be29ca6fbb958154baf1c0dc17e60405160405180910390a450505056fe496e76616c69642073656e6465722c206e6f74207374616b65206d616e61676572a265627a7a72315820157ca9334b30a3406638e098c16d21e4fcd70eef5d60f042a8a2dd224382d44b64736f6c63430005110032",
  "source": "pragma solidity ^0.5.2;\n\nimport {Registry} from \"../common/Registry.sol\";\nimport {Initializable} from \"../common/mixin/Initializable.sol\";\n\ncontract IStakeManagerEventsHub {\n    struct Validator {\n        uint256 amount;\n        uint256 reward;\n        uint256 activationEpoch;\n        uint256 deactivationEpoch;\n        uint256 jailTime;\n        address signer;\n        address contractAddress;\n    }\n\n    mapping(uint256 => Validator) public validators;\n}\n\ncontract EventsHub is Initializable {\n    Registry public registry;\n\n    modifier onlyValidatorContract(uint256 validatorId) {\n        address _contract;\n        (, , , , , , _contract) = IStakeManagerEventsHub(registry.getStakeManagerAddress()).validators(validatorId);\n        require(_contract == msg.sender, \"not validator\");\n        _;\n    }\n\n    modifier onlyStakeManager() {\n        require(registry.getStakeManagerAddress() == msg.sender,\n        \"Invalid sender, not stake manager\");\n        _;\n    }\n\n    function initialize(Registry _registry) external initializer {\n        registry = _registry;\n    }\n\n    event ShareBurnedWithId(\n        uint256 indexed validatorId,\n        address indexed user,\n        uint256 indexed amount,\n        uint256 tokens,\n        uint256 nonce\n    );\n\n    function logShareBurnedWithId(\n        uint256 validatorId,\n        address user,\n        uint256 amount,\n        uint256 tokens,\n        uint256 nonce\n    ) public onlyValidatorContract(validatorId) {\n        emit ShareBurnedWithId(validatorId, user, amount, tokens, nonce);\n    }\n\n    event DelegatorUnstakeWithId(\n        uint256 indexed validatorId,\n        address indexed user,\n        uint256 amount,\n        uint256 nonce\n    );\n\n    function logDelegatorUnstakedWithId(\n        uint256 validatorId,\n        address user,\n        uint256 amount,\n        uint256 nonce\n    ) public onlyValidatorContract(validatorId) {\n        emit DelegatorUnstakeWithId(validatorId, user, amount, nonce);\n    }\n\n    event RewardParams(\n        uint256 rewardDecreasePerCheckpoint,\n        uint256 maxRewardedCheckpoints,\n        uint256 checkpointRewardDelta\n    );\n\n    function logRewardParams(\n        uint256 rewardDecreasePerCheckpoint,\n        uint256 maxRewardedCheckpoints,\n        uint256 checkpointRewardDelta\n    ) public onlyStakeManager {\n        emit RewardParams(rewardDecreasePerCheckpoint, maxRewardedCheckpoints, checkpointRewardDelta);\n    }\n\n    event UpdateCommissionRate(\n        uint256 indexed validatorId,\n        uint256 indexed newCommissionRate,\n        uint256 indexed oldCommissionRate\n    );\n\n    function logUpdateCommissionRate(\n        uint256 validatorId,\n        uint256 newCommissionRate,\n        uint256 oldCommissionRate\n    ) public onlyStakeManager {\n        emit UpdateCommissionRate(\n            validatorId,\n            newCommissionRate,\n            oldCommissionRate\n        );\n    }\n}\n",
  "sourcePath": "/root/matic-cli/devnet/code/contracts/contracts/staking/EventsHub.sol",
  "compiler": {
    "name": "solc",
    "version": "0.5.17+commit.d19bba13.Linux.g++"
  },
  "schemaVersion": "3.0.14",
  "updatedAt": "2022-07-11T04:28:40.282Z",
  "devdoc": {
    "methods": {}
  },
  "userdoc": {
    "methods": {}
  }
}