{
  "contractName": "FallbackManager",
  "abi": [
    {
      "payable": true,
      "stateMutability": "payable",
      "type": "fallback"
    },
    {
      "constant": false,
      "inputs": [
        {
          "internalType": "address",
          "name": "handler",
          "type": "address"
        }
      ],
      "name": "setFallbackHandler",
      "outputs": [],
      "payable": false,
      "stateMutability": "nonpayable",
      "type": "function"
    }
  ],
  "bytecode": "0x608060405234801561001057600080fd5b5061018c806100206000396000f3fe60806040526004361061001e5760003560e01c8063f08a03231461008f575b600034118061002b575036155b156100355761008d565b7f6c9a6c4a39284e37ed1cf53d337577d14212a4870fb976a4366c693b939918d580546001600160a01b0381161561008a57366000803760008036600080855af13d6000803e80610085573d6000fd5b3d6000f35b50505b005b34801561009b57600080fd5b5061008d600480360360208110156100b257600080fd5b50356001600160a01b03163330146100fb5760405162461bcd60e51b815260040180806020018281038252602c81526020018061012c602c913960400191505060405180910390fd5b61010481610107565b50565b7f6c9a6c4a39284e37ed1cf53d337577d14212a4870fb976a4366c693b939918d55556fe4d6574686f642063616e206f6e6c792062652063616c6c65642066726f6d207468697320636f6e7472616374a265627a7a7231582075b213cab641edae5f510a6e0e30a678a62c4ad6767cf3db21a51618ef61305764736f6c63430005110032",
  "source": "/**\n *Submitted for verification at Etherscan.io on 2019-12-26\n*/\n\npragma solidity >=0.5.0 <0.7.0;\n\n/// @title SelfAuthorized - authorizes current contract to perform actions\n/// @author Richard Meissner - <richard@gnosis.pm>\ncontract SelfAuthorized {\n    modifier authorized() {\n        require(msg.sender == address(this), \"Method can only be called from this contract\");\n        _;\n    }\n}\n\n\n\n/// @title MasterCopy - Base for master copy contracts (should always be first super contract)\n///         This contract is tightly coupled to our proxy contract (see `proxies/Proxy.sol`)\n/// @author Richard Meissner - <richard@gnosis.io>\ncontract MasterCopy is SelfAuthorized {\n\n    event ChangedMasterCopy(address masterCopy);\n\n    // masterCopy always needs to be first declared variable, to ensure that it is at the same location as in the Proxy contract.\n    // It should also always be ensured that the address is stored alone (uses a full word)\n    address private masterCopy;\n\n    /// @dev Allows to upgrade the contract. This can only be done via a Safe transaction.\n    /// @param _masterCopy New contract address.\n    function changeMasterCopy(address _masterCopy)\n        public\n        authorized\n    {\n        // Master copy address cannot be null.\n        require(_masterCopy != address(0), \"Invalid master copy address provided\");\n        masterCopy = _masterCopy;\n        emit ChangedMasterCopy(_masterCopy);\n    }\n}\n\n\n/// @title Module - Base class for modules.\n/// @author Stefan George - <stefan@gnosis.pm>\n/// @author Richard Meissner - <richard@gnosis.pm>\ncontract Module is MasterCopy {\n\n    ModuleManager public manager;\n\n    modifier authorized() {\n        require(msg.sender == address(manager), \"Method can only be called from manager\");\n        _;\n    }\n\n    function setManager()\n        internal\n    {\n        // manager can only be 0 at initalization of contract.\n        // Check ensures that setup function can only be called once.\n        require(address(manager) == address(0), \"Manager has already been set\");\n        manager = ModuleManager(msg.sender);\n    }\n}\n\n\n\n\n\n/// @title Enum - Collection of enums\n/// @author Richard Meissner - <richard@gnosis.pm>\ncontract Enum {\n    enum Operation {\n        Call,\n        DelegateCall\n    }\n}\n\n\n\n\n\n/// @title Executor - A contract that can execute transactions\n/// @author Richard Meissner - <richard@gnosis.pm>\ncontract Executor {\n\n    function execute(address to, uint256 value, bytes memory data, Enum.Operation operation, uint256 txGas)\n        internal\n        returns (bool success)\n    {\n        if (operation == Enum.Operation.Call)\n            success = executeCall(to, value, data, txGas);\n        else if (operation == Enum.Operation.DelegateCall)\n            success = executeDelegateCall(to, data, txGas);\n        else\n            success = false;\n    }\n\n    function executeCall(address to, uint256 value, bytes memory data, uint256 txGas)\n        internal\n        returns (bool success)\n    {\n        // solium-disable-next-line security/no-inline-assembly\n        assembly {\n            success := call(txGas, to, value, add(data, 0x20), mload(data), 0, 0)\n        }\n    }\n\n    function executeDelegateCall(address to, bytes memory data, uint256 txGas)\n        internal\n        returns (bool success)\n    {\n        // solium-disable-next-line security/no-inline-assembly\n        assembly {\n            success := delegatecall(txGas, to, add(data, 0x20), mload(data), 0, 0)\n        }\n    }\n}\n\n\n\n/// @title SecuredTokenTransfer - Secure token transfer\n/// @author Richard Meissner - <richard@gnosis.pm>\ncontract SecuredTokenTransfer {\n\n    /// @dev Transfers a token and returns if it was a success\n    /// @param token Token that should be transferred\n    /// @param receiver Receiver to whom the token should be transferred\n    /// @param amount The amount of tokens that should be transferred\n    function transferToken (\n        address token,\n        address receiver,\n        uint256 amount\n    )\n        internal\n        returns (bool transferred)\n    {\n        bytes memory data = abi.encodeWithSignature(\"transfer(address,uint256)\", receiver, amount);\n        // solium-disable-next-line security/no-inline-assembly\n        assembly {\n            let success := call(sub(gas, 10000), token, 0, add(data, 0x20), mload(data), 0, 0)\n            let ptr := mload(0x40)\n            mstore(0x40, add(ptr, returndatasize()))\n            returndatacopy(ptr, 0, returndatasize())\n            switch returndatasize()\n            case 0 { transferred := success }\n            case 0x20 { transferred := iszero(or(iszero(success), iszero(mload(ptr)))) }\n            default { transferred := 0 }\n        }\n    }\n}\n\n\n\n\n\n\n\n\n\n\n/// @title Module Manager - A contract that manages modules that can execute transactions via this contract\n/// @author Stefan George - <stefan@gnosis.pm>\n/// @author Richard Meissner - <richard@gnosis.pm>\ncontract ModuleManager is SelfAuthorized, Executor {\n\n    event EnabledModule(Module module);\n    event DisabledModule(Module module);\n    event ExecutionFromModuleSuccess(address indexed module);\n    event ExecutionFromModuleFailure(address indexed module);\n\n    address internal constant SENTINEL_MODULES = address(0x1);\n\n    mapping (address => address) internal modules;\n\n    function setupModules(address to, bytes memory data)\n        internal\n    {\n        require(modules[SENTINEL_MODULES] == address(0), \"Modules have already been initialized\");\n        modules[SENTINEL_MODULES] = SENTINEL_MODULES;\n        if (to != address(0))\n            // Setup has to complete successfully or transaction fails.\n            require(executeDelegateCall(to, data, gasleft()), \"Could not finish initialization\");\n    }\n\n    /// @dev Allows to add a module to the whitelist.\n    ///      This can only be done via a Safe transaction.\n    /// @param module Module to be whitelisted.\n    function enableModule(Module module)\n        public\n        authorized\n    {\n        // Module address cannot be null or sentinel.\n        require(address(module) != address(0) && address(module) != SENTINEL_MODULES, \"Invalid module address provided\");\n        // Module cannot be added twice.\n        require(modules[address(module)] == address(0), \"Module has already been added\");\n        modules[address(module)] = modules[SENTINEL_MODULES];\n        modules[SENTINEL_MODULES] = address(module);\n        emit EnabledModule(module);\n    }\n\n    /// @dev Allows to remove a module from the whitelist.\n    ///      This can only be done via a Safe transaction.\n    /// @param prevModule Module that pointed to the module to be removed in the linked list\n    /// @param module Module to be removed.\n    function disableModule(Module prevModule, Module module)\n        public\n        authorized\n    {\n        // Validate module address and check that it corresponds to module index.\n        require(address(module) != address(0) && address(module) != SENTINEL_MODULES, \"Invalid module address provided\");\n        require(modules[address(prevModule)] == address(module), \"Invalid prevModule, module pair provided\");\n        modules[address(prevModule)] = modules[address(module)];\n        modules[address(module)] = address(0);\n        emit DisabledModule(module);\n    }\n\n    /// @dev Allows a Module to execute a Safe transaction without any further confirmations.\n    /// @param to Destination address of module transaction.\n    /// @param value Ether value of module transaction.\n    /// @param data Data payload of module transaction.\n    /// @param operation Operation type of module transaction.\n    function execTransactionFromModule(address to, uint256 value, bytes memory data, Enum.Operation operation)\n        public\n        returns (bool success)\n    {\n        // Only whitelisted modules are allowed.\n        require(msg.sender != SENTINEL_MODULES && modules[msg.sender] != address(0), \"Method can only be called from an enabled module\");\n        // Execute transaction without further confirmations.\n        success = execute(to, value, data, operation, gasleft());\n        if (success) emit ExecutionFromModuleSuccess(msg.sender);\n        else emit ExecutionFromModuleFailure(msg.sender);\n    }\n\n    /// @dev Allows a Module to execute a Safe transaction without any further confirmations and return data\n    /// @param to Destination address of module transaction.\n    /// @param value Ether value of module transaction.\n    /// @param data Data payload of module transaction.\n    /// @param operation Operation type of module transaction.\n    function execTransactionFromModuleReturnData(address to, uint256 value, bytes memory data, Enum.Operation operation)\n        public\n        returns (bool success, bytes memory returnData)\n    {\n        success = execTransactionFromModule(to, value, data, operation);\n        // solium-disable-next-line security/no-inline-assembly\n        assembly {\n            // Load free memory location\n            let ptr := mload(0x40)\n            // We allocate memory for the return data by setting the free memory location to\n            // current free memory location + data size + 32 bytes for data size value\n            mstore(0x40, add(ptr, add(returndatasize(), 0x20)))\n            // Store the size\n            mstore(ptr, returndatasize())\n            // Store the data\n            returndatacopy(add(ptr, 0x20), 0, returndatasize())\n            // Point the return data to the correct memory location\n            returnData := ptr\n        }\n    }\n\n    /// @dev Returns array of first 10 modules.\n    /// @return Array of modules.\n    function getModules()\n        public\n        view\n        returns (address[] memory)\n    {\n        (address[] memory array,) = getModulesPaginated(SENTINEL_MODULES, 10);\n        return array;\n    }\n\n    /// @dev Returns array of modules.\n    /// @param start Start of the page.\n    /// @param pageSize Maximum number of modules that should be returned.\n    /// @return Array of modules.\n    function getModulesPaginated(address start, uint256 pageSize)\n        public\n        view\n        returns (address[] memory array, address next)\n    {\n        // Init array with max page size\n        array = new address[](pageSize);\n\n        // Populate return array\n        uint256 moduleCount = 0;\n        address currentModule = modules[start];\n        while(currentModule != address(0x0) && currentModule != SENTINEL_MODULES && moduleCount < pageSize) {\n            array[moduleCount] = currentModule;\n            currentModule = modules[currentModule];\n            moduleCount++;\n        }\n        next = currentModule;\n        // Set correct size of returned array\n        // solium-disable-next-line security/no-inline-assembly\n        assembly {\n            mstore(array, moduleCount)\n        }\n    }\n}\n\n\n\n\n/// @title OwnerManager - Manages a set of owners and a threshold to perform actions.\n/// @author Stefan George - <stefan@gnosis.pm>\n/// @author Richard Meissner - <richard@gnosis.pm>\ncontract OwnerManager is SelfAuthorized {\n\n    event AddedOwner(address owner);\n    event RemovedOwner(address owner);\n    event ChangedThreshold(uint256 threshold);\n\n    address internal constant SENTINEL_OWNERS = address(0x1);\n\n    mapping(address => address) internal owners;\n    uint256 ownerCount;\n    uint256 internal threshold;\n\n    /// @dev Setup function sets initial storage of contract.\n    /// @param _owners List of Safe owners.\n    /// @param _threshold Number of required confirmations for a Safe transaction.\n    function setupOwners(address[] memory _owners, uint256 _threshold)\n        internal\n    {\n        // Threshold can only be 0 at initialization.\n        // Check ensures that setup function can only be called once.\n        require(threshold == 0, \"Owners have already been setup\");\n        // Validate that threshold is smaller than number of added owners.\n        require(_threshold <= _owners.length, \"Threshold cannot exceed owner count\");\n        // There has to be at least one Safe owner.\n        require(_threshold >= 1, \"Threshold needs to be greater than 0\");\n        // Initializing Safe owners.\n        address currentOwner = SENTINEL_OWNERS;\n        for (uint256 i = 0; i < _owners.length; i++) {\n            // Owner address cannot be null.\n            address owner = _owners[i];\n            require(owner != address(0) && owner != SENTINEL_OWNERS, \"Invalid owner address provided\");\n            // No duplicate owners allowed.\n            require(owners[owner] == address(0), \"Duplicate owner address provided\");\n            owners[currentOwner] = owner;\n            currentOwner = owner;\n        }\n        owners[currentOwner] = SENTINEL_OWNERS;\n        ownerCount = _owners.length;\n        threshold = _threshold;\n    }\n\n    /// @dev Allows to add a new owner to the Safe and update the threshold at the same time.\n    ///      This can only be done via a Safe transaction.\n    /// @param owner New owner address.\n    /// @param _threshold New threshold.\n    function addOwnerWithThreshold(address owner, uint256 _threshold)\n        public\n        authorized\n    {\n        // Owner address cannot be null.\n        require(owner != address(0) && owner != SENTINEL_OWNERS, \"Invalid owner address provided\");\n        // No duplicate owners allowed.\n        require(owners[owner] == address(0), \"Address is already an owner\");\n        owners[owner] = owners[SENTINEL_OWNERS];\n        owners[SENTINEL_OWNERS] = owner;\n        ownerCount++;\n        emit AddedOwner(owner);\n        // Change threshold if threshold was changed.\n        if (threshold != _threshold)\n            changeThreshold(_threshold);\n    }\n\n    /// @dev Allows to remove an owner from the Safe and update the threshold at the same time.\n    ///      This can only be done via a Safe transaction.\n    /// @param prevOwner Owner that pointed to the owner to be removed in the linked list\n    /// @param owner Owner address to be removed.\n    /// @param _threshold New threshold.\n    function removeOwner(address prevOwner, address owner, uint256 _threshold)\n        public\n        authorized\n    {\n        // Only allow to remove an owner, if threshold can still be reached.\n        require(ownerCount - 1 >= _threshold, \"New owner count needs to be larger than new threshold\");\n        // Validate owner address and check that it corresponds to owner index.\n        require(owner != address(0) && owner != SENTINEL_OWNERS, \"Invalid owner address provided\");\n        require(owners[prevOwner] == owner, \"Invalid prevOwner, owner pair provided\");\n        owners[prevOwner] = owners[owner];\n        owners[owner] = address(0);\n        ownerCount--;\n        emit RemovedOwner(owner);\n        // Change threshold if threshold was changed.\n        if (threshold != _threshold)\n            changeThreshold(_threshold);\n    }\n\n    /// @dev Allows to swap/replace an owner from the Safe with another address.\n    ///      This can only be done via a Safe transaction.\n    /// @param prevOwner Owner that pointed to the owner to be replaced in the linked list\n    /// @param oldOwner Owner address to be replaced.\n    /// @param newOwner New owner address.\n    function swapOwner(address prevOwner, address oldOwner, address newOwner)\n        public\n        authorized\n    {\n        // Owner address cannot be null.\n        require(newOwner != address(0) && newOwner != SENTINEL_OWNERS, \"Invalid owner address provided\");\n        // No duplicate owners allowed.\n        require(owners[newOwner] == address(0), \"Address is already an owner\");\n        // Validate oldOwner address and check that it corresponds to owner index.\n        require(oldOwner != address(0) && oldOwner != SENTINEL_OWNERS, \"Invalid owner address provided\");\n        require(owners[prevOwner] == oldOwner, \"Invalid prevOwner, owner pair provided\");\n        owners[newOwner] = owners[oldOwner];\n        owners[prevOwner] = newOwner;\n        owners[oldOwner] = address(0);\n        emit RemovedOwner(oldOwner);\n        emit AddedOwner(newOwner);\n    }\n\n    /// @dev Allows to update the number of required confirmations by Safe owners.\n    ///      This can only be done via a Safe transaction.\n    /// @param _threshold New threshold.\n    function changeThreshold(uint256 _threshold)\n        public\n        authorized\n    {\n        // Validate that threshold is smaller than number of owners.\n        require(_threshold <= ownerCount, \"Threshold cannot exceed owner count\");\n        // There has to be at least one Safe owner.\n        require(_threshold >= 1, \"Threshold needs to be greater than 0\");\n        threshold = _threshold;\n        emit ChangedThreshold(threshold);\n    }\n\n    function getThreshold()\n        public\n        view\n        returns (uint256)\n    {\n        return threshold;\n    }\n\n    function isOwner(address owner)\n        public\n        view\n        returns (bool)\n    {\n        return owner != SENTINEL_OWNERS && owners[owner] != address(0);\n    }\n\n    /// @dev Returns array of owners.\n    /// @return Array of Safe owners.\n    function getOwners()\n        public\n        view\n        returns (address[] memory)\n    {\n        address[] memory array = new address[](ownerCount);\n\n        // populate return array\n        uint256 index = 0;\n        address currentOwner = owners[SENTINEL_OWNERS];\n        while(currentOwner != SENTINEL_OWNERS) {\n            array[index] = currentOwner;\n            currentOwner = owners[currentOwner];\n            index ++;\n        }\n        return array;\n    }\n}\n\n\n\n\n\n/// @title Fallback Manager - A contract that manages fallback calls made to this contract\n/// @author Richard Meissner - <richard@gnosis.pm>\ncontract FallbackManager is SelfAuthorized {\n\n    // keccak256(\"fallback_manager.handler.address\")\n    bytes32 internal constant FALLBACK_HANDLER_STORAGE_SLOT = 0x6c9a6c4a39284e37ed1cf53d337577d14212a4870fb976a4366c693b939918d5;\n\n    function internalSetFallbackHandler(address handler) internal {\n        bytes32 slot = FALLBACK_HANDLER_STORAGE_SLOT;\n        // solium-disable-next-line security/no-inline-assembly\n        assembly {\n            sstore(slot, handler)\n        }\n    }\n\n    /// @dev Allows to add a contract to handle fallback calls.\n    ///      Only fallback calls without value and with data will be forwarded.\n    ///      This can only be done via a Safe transaction.\n    /// @param handler contract to handle fallbacks calls.\n    function setFallbackHandler(address handler)\n        public\n        authorized\n    {\n        internalSetFallbackHandler(handler);\n    }\n\n    function ()\n        external\n        payable\n    {\n        // Only calls without value and with data will be forwarded\n        if (msg.value > 0 || msg.data.length == 0) {\n            return;\n        }\n        bytes32 slot = FALLBACK_HANDLER_STORAGE_SLOT;\n        address handler;\n        // solium-disable-next-line security/no-inline-assembly\n        assembly {\n            handler := sload(slot)\n        }\n\n        if (handler != address(0)) {\n            // solium-disable-next-line security/no-inline-assembly\n            assembly {\n                calldatacopy(0, 0, calldatasize())\n                let success := call(gas, handler, 0, 0, calldatasize(), 0, 0)\n                returndatacopy(0, 0, returndatasize())\n                if eq(success, 0) { revert(0, returndatasize()) }\n                return(0, returndatasize())\n            }\n        }\n    }\n}\n\n\n\n\n\n\n\n/// @title SignatureDecoder - Decodes signatures that a encoded as bytes\n/// @author Ricardo Guilherme Schmidt (Status Research & Development GmbH)\n/// @author Richard Meissner - <richard@gnosis.pm>\ncontract SignatureDecoder {\n\n    /// @dev Recovers address who signed the message\n    /// @param messageHash operation ethereum signed message hash\n    /// @param messageSignature message `txHash` signature\n    /// @param pos which signature to read\n    function recoverKey (\n        bytes32 messageHash,\n        bytes memory messageSignature,\n        uint256 pos\n    )\n        internal\n        pure\n        returns (address)\n    {\n        uint8 v;\n        bytes32 r;\n        bytes32 s;\n        (v, r, s) = signatureSplit(messageSignature, pos);\n        return ecrecover(messageHash, v, r, s);\n    }\n\n    /// @dev divides bytes signature into `uint8 v, bytes32 r, bytes32 s`.\n    /// @notice Make sure to peform a bounds check for @param pos, to avoid out of bounds access on @param signatures\n    /// @param pos which signature to read. A prior bounds check of this parameter should be performed, to avoid out of bounds access\n    /// @param signatures concatenated rsv signatures\n    function signatureSplit(bytes memory signatures, uint256 pos)\n        internal\n        pure\n        returns (uint8 v, bytes32 r, bytes32 s)\n    {\n        // The signature format is a compact form of:\n        //   {bytes32 r}{bytes32 s}{uint8 v}\n        // Compact means, uint8 is not padded to 32 bytes.\n        // solium-disable-next-line security/no-inline-assembly\n        assembly {\n            let signaturePos := mul(0x41, pos)\n            r := mload(add(signatures, add(signaturePos, 0x20)))\n            s := mload(add(signatures, add(signaturePos, 0x40)))\n            // Here we are loading the last 32 bytes, including 31 bytes\n            // of 's'. There is no 'mload8' to do this.\n            //\n            // 'byte' is not working due to the Solidity parser, so lets\n            // use the second best option, 'and'\n            v := and(mload(add(signatures, add(signaturePos, 0x41))), 0xff)\n        }\n    }\n}\n\n\n\n\ncontract ISignatureValidatorConstants {\n    // bytes4(keccak256(\"isValidSignature(bytes,bytes)\")\n    bytes4 constant internal EIP1271_MAGIC_VALUE = 0x20c13b0b;\n}\n\ncontract ISignatureValidator is ISignatureValidatorConstants {\n\n    /**\n    * @dev Should return whether the signature provided is valid for the provided data\n    * @param _data Arbitrary length data signed on the behalf of address(this)\n    * @param _signature Signature byte array associated with _data\n    *\n    * MUST return the bytes4 magic value 0x20c13b0b when function passes.\n    * MUST NOT modify state (using STATICCALL for solc < 0.5, view modifier for solc > 0.5)\n    * MUST allow external calls\n    */\n    function isValidSignature(\n        bytes memory _data,\n        bytes memory _signature)\n        public\n        view\n        returns (bytes4);\n}\n\n\n/**\n * @title SafeMath\n * @dev Math operations with safety checks that revert on error\n * TODO: remove once open zeppelin update to solc 0.5.0\n */\nlibrary SafeMath {\n\n  /**\n  * @dev Multiplies two numbers, reverts on overflow.\n  */\n  function mul(uint256 a, uint256 b) internal pure returns (uint256) {\n    // Gas optimization: this is cheaper than requiring 'a' not being zero, but the\n    // benefit is lost if 'b' is also tested.\n    // See: https://github.com/OpenZeppelin/openzeppelin-solidity/pull/522\n    if (a == 0) {\n      return 0;\n    }\n\n    uint256 c = a * b;\n    require(c / a == b);\n\n    return c;\n  }\n\n  /**\n  * @dev Integer division of two numbers truncating the quotient, reverts on division by zero.\n  */\n  function div(uint256 a, uint256 b) internal pure returns (uint256) {\n    require(b > 0); // Solidity only automatically asserts when dividing by 0\n    uint256 c = a / b;\n    // assert(a == b * c + a % b); // There is no case in which this doesn't hold\n\n    return c;\n  }\n\n  /**\n  * @dev Subtracts two numbers, reverts on overflow (i.e. if subtrahend is greater than minuend).\n  */\n  function sub(uint256 a, uint256 b) internal pure returns (uint256) {\n    require(b <= a);\n    uint256 c = a - b;\n\n    return c;\n  }\n\n  /**\n  * @dev Adds two numbers, reverts on overflow.\n  */\n  function add(uint256 a, uint256 b) internal pure returns (uint256) {\n    uint256 c = a + b;\n    require(c >= a);\n\n    return c;\n  }\n\n  /**\n  * @dev Divides two numbers and returns the remainder (unsigned integer modulo),\n  * reverts when dividing by zero.\n  */\n  function mod(uint256 a, uint256 b) internal pure returns (uint256) {\n    require(b != 0);\n    return a % b;\n  }\n}\n\n/// @title Gnosis Safe - A multisignature wallet with support for confirmations using signed messages based on ERC191.\n/// @author Stefan George - <stefan@gnosis.io>\n/// @author Richard Meissner - <richard@gnosis.io>\n/// @author Ricardo Guilherme Schmidt - (Status Research & Development GmbH) - Gas Token Payment\ncontract GnosisSafe\n    is MasterCopy, ModuleManager, OwnerManager, SignatureDecoder, SecuredTokenTransfer, ISignatureValidatorConstants, FallbackManager {\n\n    using SafeMath for uint256;\n\n    string public constant NAME = \"Gnosis Safe\";\n    string public constant VERSION = \"1.1.1\";\n\n    //keccak256(\n    //    \"EIP712Domain(address verifyingContract)\"\n    //);\n    bytes32 private constant DOMAIN_SEPARATOR_TYPEHASH = 0x035aff83d86937d35b32e04f0ddc6ff469290eef2f1b692d8a815c89404d4749;\n\n    //keccak256(\n    //    \"SafeTx(address to,uint256 value,bytes data,uint8 operation,uint256 safeTxGas,uint256 baseGas,uint256 gasPrice,address gasToken,address refundReceiver,uint256 nonce)\"\n    //);\n    bytes32 private constant SAFE_TX_TYPEHASH = 0xbb8310d486368db6bd6f849402fdd73ad53d316b5a4b2644ad6efe0f941286d8;\n\n    //keccak256(\n    //    \"SafeMessage(bytes message)\"\n    //);\n    bytes32 private constant SAFE_MSG_TYPEHASH = 0x60b3cbf8b4a223d68d641b3b6ddf9a298e7f33710cf3d3a9d1146b5a6150fbca;\n\n    event ApproveHash(\n        bytes32 indexed approvedHash,\n        address indexed owner\n    );\n    event SignMsg(\n        bytes32 indexed msgHash\n    );\n    event ExecutionFailure(\n        bytes32 txHash, uint256 payment\n    );\n    event ExecutionSuccess(\n        bytes32 txHash, uint256 payment\n    );\n\n    uint256 public nonce;\n    bytes32 public domainSeparator;\n    // Mapping to keep track of all message hashes that have been approve by ALL REQUIRED owners\n    mapping(bytes32 => uint256) public signedMessages;\n    // Mapping to keep track of all hashes (message or transaction) that have been approve by ANY owners\n    mapping(address => mapping(bytes32 => uint256)) public approvedHashes;\n\n    // This constructor ensures that this contract can only be used as a master copy for Proxy contracts\n    constructor() public {\n        // By setting the threshold it is not possible to call setup anymore,\n        // so we create a Safe with 0 owners and threshold 1.\n        // This is an unusable Safe, perfect for the mastercopy\n        threshold = 1;\n    }\n\n    /// @dev Setup function sets initial storage of contract.\n    /// @param _owners List of Safe owners.\n    /// @param _threshold Number of required confirmations for a Safe transaction.\n    /// @param to Contract address for optional delegate call.\n    /// @param data Data payload for optional delegate call.\n    /// @param fallbackHandler Handler for fallback calls to this contract\n    /// @param paymentToken Token that should be used for the payment (0 is ETH)\n    /// @param payment Value that should be paid\n    /// @param paymentReceiver Adddress that should receive the payment (or 0 if tx.origin)\n    function setup(\n        address[] calldata _owners,\n        uint256 _threshold,\n        address to,\n        bytes calldata data,\n        address fallbackHandler,\n        address paymentToken,\n        uint256 payment,\n        address payable paymentReceiver\n    )\n        external\n    {\n        require(domainSeparator == 0, \"Domain Separator already set!\");\n        domainSeparator = keccak256(abi.encode(DOMAIN_SEPARATOR_TYPEHASH, this));\n        setupOwners(_owners, _threshold);\n        if (fallbackHandler != address(0)) internalSetFallbackHandler(fallbackHandler);\n        // As setupOwners can only be called if the contract has not been initialized we don't need a check for setupModules\n        setupModules(to, data);\n\n        if (payment > 0) {\n            // To avoid running into issues with EIP-170 we reuse the handlePayment function (to avoid adjusting code of that has been verified we do not adjust the method itself)\n            // baseGas = 0, gasPrice = 1 and gas = payment => amount = (payment + 0) * 1 = payment\n            handlePayment(payment, 0, 1, paymentToken, paymentReceiver);\n        }\n    }\n\n    /// @dev Allows to execute a Safe transaction confirmed by required number of owners and then pays the account that submitted the transaction.\n    ///      Note: The fees are always transfered, even if the user transaction fails.\n    /// @param to Destination address of Safe transaction.\n    /// @param value Ether value of Safe transaction.\n    /// @param data Data payload of Safe transaction.\n    /// @param operation Operation type of Safe transaction.\n    /// @param safeTxGas Gas that should be used for the Safe transaction.\n    /// @param baseGas Gas costs for that are indipendent of the transaction execution(e.g. base transaction fee, signature check, payment of the refund)\n    /// @param gasPrice Gas price that should be used for the payment calculation.\n    /// @param gasToken Token address (or 0 if ETH) that is used for the payment.\n    /// @param refundReceiver Address of receiver of gas payment (or 0 if tx.origin).\n    /// @param signatures Packed signature data ({bytes32 r}{bytes32 s}{uint8 v})\n    function execTransaction(\n        address to,\n        uint256 value,\n        bytes calldata data,\n        Enum.Operation operation,\n        uint256 safeTxGas,\n        uint256 baseGas,\n        uint256 gasPrice,\n        address gasToken,\n        address payable refundReceiver,\n        bytes calldata signatures\n    )\n        external\n        returns (bool success)\n    {\n        bytes32 txHash;\n        // Use scope here to limit variable lifetime and prevent `stack too deep` errors\n        {\n            bytes memory txHashData = encodeTransactionData(\n                to, value, data, operation, // Transaction info\n                safeTxGas, baseGas, gasPrice, gasToken, refundReceiver, // Payment info\n                nonce\n            );\n            // Increase nonce and execute transaction.\n            nonce++;\n            txHash = keccak256(txHashData);\n            checkSignatures(txHash, txHashData, signatures, true);\n        }\n        require(gasleft() >= safeTxGas, \"Not enough gas to execute safe transaction\");\n        // Use scope here to limit variable lifetime and prevent `stack too deep` errors\n        {\n            uint256 gasUsed = gasleft();\n            // If no safeTxGas has been set and the gasPrice is 0 we assume that all available gas can be used\n            success = execute(to, value, data, operation, safeTxGas == 0 && gasPrice == 0 ? gasleft() : safeTxGas);\n            gasUsed = gasUsed.sub(gasleft());\n            // We transfer the calculated tx costs to the tx.origin to avoid sending it to intermediate contracts that have made calls\n            uint256 payment = 0;\n            if (gasPrice > 0) {\n                payment = handlePayment(gasUsed, baseGas, gasPrice, gasToken, refundReceiver);\n            }\n            if (success) emit ExecutionSuccess(txHash, payment);\n            else emit ExecutionFailure(txHash, payment);\n        }\n    }\n\n    function handlePayment(\n        uint256 gasUsed,\n        uint256 baseGas,\n        uint256 gasPrice,\n        address gasToken,\n        address payable refundReceiver\n    )\n        private\n        returns (uint256 payment)\n    {\n        // solium-disable-next-line security/no-tx-origin\n        address payable receiver = refundReceiver == address(0) ? tx.origin : refundReceiver;\n        if (gasToken == address(0)) {\n            // For ETH we will only adjust the gas price to not be higher than the actual used gas price\n            payment = gasUsed.add(baseGas).mul(gasPrice < tx.gasprice ? gasPrice : tx.gasprice);\n            // solium-disable-next-line security/no-send\n            require(receiver.send(payment), \"Could not pay gas costs with ether\");\n        } else {\n            payment = gasUsed.add(baseGas).mul(gasPrice);\n            require(transferToken(gasToken, receiver, payment), \"Could not pay gas costs with token\");\n        }\n    }\n\n    /**\n    * @dev Checks whether the signature provided is valid for the provided data, hash. Will revert otherwise.\n    * @param dataHash Hash of the data (could be either a message hash or transaction hash)\n    * @param data That should be signed (this is passed to an external validator contract)\n    * @param signatures Signature data that should be verified. Can be ECDSA signature, contract signature (EIP-1271) or approved hash.\n    * @param consumeHash Indicates that in case of an approved hash the storage can be freed to save gas\n    */\n    function checkSignatures(bytes32 dataHash, bytes memory data, bytes memory signatures, bool consumeHash)\n        internal\n    {\n        // Load threshold to avoid multiple storage loads\n        uint256 _threshold = threshold;\n        // Check that a threshold is set\n        require(_threshold > 0, \"Threshold needs to be defined!\");\n        // Check that the provided signature data is not too short\n        require(signatures.length >= _threshold.mul(65), \"Signatures data too short\");\n        // There cannot be an owner with address 0.\n        address lastOwner = address(0);\n        address currentOwner;\n        uint8 v;\n        bytes32 r;\n        bytes32 s;\n        uint256 i;\n        for (i = 0; i < _threshold; i++) {\n            (v, r, s) = signatureSplit(signatures, i);\n            // If v is 0 then it is a contract signature\n            if (v == 0) {\n                // When handling contract signatures the address of the contract is encoded into r\n                currentOwner = address(uint256(r));\n\n                // Check that signature data pointer (s) is not pointing inside the static part of the signatures bytes\n                // This check is not completely accurate, since it is possible that more signatures than the threshold are send.\n                // Here we only check that the pointer is not pointing inside the part that is being processed\n                require(uint256(s) >= _threshold.mul(65), \"Invalid contract signature location: inside static part\");\n\n                // Check that signature data pointer (s) is in bounds (points to the length of data -> 32 bytes)\n                require(uint256(s).add(32) <= signatures.length, \"Invalid contract signature location: length not present\");\n\n                // Check if the contract signature is in bounds: start of data is s + 32 and end is start + signature length\n                uint256 contractSignatureLen;\n                // solium-disable-next-line security/no-inline-assembly\n                assembly {\n                    contractSignatureLen := mload(add(add(signatures, s), 0x20))\n                }\n                require(uint256(s).add(32).add(contractSignatureLen) <= signatures.length, \"Invalid contract signature location: data not complete\");\n\n                // Check signature\n                bytes memory contractSignature;\n                // solium-disable-next-line security/no-inline-assembly\n                assembly {\n                    // The signature data for contract signatures is appended to the concatenated signatures and the offset is stored in s\n                    contractSignature := add(add(signatures, s), 0x20)\n                }\n                require(ISignatureValidator(currentOwner).isValidSignature(data, contractSignature) == EIP1271_MAGIC_VALUE, \"Invalid contract signature provided\");\n            // If v is 1 then it is an approved hash\n            } else if (v == 1) {\n                // When handling approved hashes the address of the approver is encoded into r\n                currentOwner = address(uint256(r));\n                // Hashes are automatically approved by the sender of the message or when they have been pre-approved via a separate transaction\n                require(msg.sender == currentOwner || approvedHashes[currentOwner][dataHash] != 0, \"Hash has not been approved\");\n                // Hash has been marked for consumption. If this hash was pre-approved free storage\n                if (consumeHash && msg.sender != currentOwner) {\n                    approvedHashes[currentOwner][dataHash] = 0;\n                }\n            } else if (v > 30) {\n                // To support eth_sign and similar we adjust v and hash the messageHash with the Ethereum message prefix before applying ecrecover\n                currentOwner = ecrecover(keccak256(abi.encodePacked(\"\\x19Ethereum Signed Message:\\n32\", dataHash)), v - 4, r, s);\n            } else {\n                // Use ecrecover with the messageHash for EOA signatures\n                currentOwner = ecrecover(dataHash, v, r, s);\n            }\n            require (\n                currentOwner > lastOwner && owners[currentOwner] != address(0) && currentOwner != SENTINEL_OWNERS,\n                \"Invalid owner provided\"\n            );\n            lastOwner = currentOwner;\n        }\n    }\n\n    /// @dev Allows to estimate a Safe transaction.\n    ///      This method is only meant for estimation purpose, therefore two different protection mechanism against execution in a transaction have been made:\n    ///      1.) The method can only be called from the safe itself\n    ///      2.) The response is returned with a revert\n    ///      When estimating set `from` to the address of the safe.\n    ///      Since the `estimateGas` function includes refunds, call this method to get an estimated of the costs that are deducted from the safe with `execTransaction`\n    /// @param to Destination address of Safe transaction.\n    /// @param value Ether value of Safe transaction.\n    /// @param data Data payload of Safe transaction.\n    /// @param operation Operation type of Safe transaction.\n    /// @return Estimate without refunds and overhead fees (base transaction and payload data gas costs).\n    function requiredTxGas(address to, uint256 value, bytes calldata data, Enum.Operation operation)\n        external\n        authorized\n        returns (uint256)\n    {\n        uint256 startGas = gasleft();\n        // We don't provide an error message here, as we use it to return the estimate\n        // solium-disable-next-line error-reason\n        require(execute(to, value, data, operation, gasleft()));\n        uint256 requiredGas = startGas - gasleft();\n        // Convert response to string and return via error message\n        revert(string(abi.encodePacked(requiredGas)));\n    }\n\n    /**\n    * @dev Marks a hash as approved. This can be used to validate a hash that is used by a signature.\n    * @param hashToApprove The hash that should be marked as approved for signatures that are verified by this contract.\n    */\n    function approveHash(bytes32 hashToApprove)\n        external\n    {\n        require(owners[msg.sender] != address(0), \"Only owners can approve a hash\");\n        approvedHashes[msg.sender][hashToApprove] = 1;\n        emit ApproveHash(hashToApprove, msg.sender);\n    }\n\n    /**\n    * @dev Marks a message as signed\n    * @param _data Arbitrary length data that should be marked as signed on the behalf of address(this)\n    */\n    function signMessage(bytes calldata _data)\n        external\n        authorized\n    {\n        bytes32 msgHash = getMessageHash(_data);\n        signedMessages[msgHash] = 1;\n        emit SignMsg(msgHash);\n    }\n\n    /**\n    * Implementation of ISignatureValidator (see `interfaces/ISignatureValidator.sol`)\n    * @dev Should return whether the signature provided is valid for the provided data.\n    *       The save does not implement the interface since `checkSignatures` is not a view method.\n    *       The method will not perform any state changes (see parameters of `checkSignatures`)\n    * @param _data Arbitrary length data signed on the behalf of address(this)\n    * @param _signature Signature byte array associated with _data\n    * @return a bool upon valid or invalid signature with corresponding _data\n    */\n    function isValidSignature(bytes calldata _data, bytes calldata _signature)\n        external\n        returns (bytes4)\n    {\n        bytes32 messageHash = getMessageHash(_data);\n        if (_signature.length == 0) {\n            require(signedMessages[messageHash] != 0, \"Hash not approved\");\n        } else {\n            // consumeHash needs to be false, as the state should not be changed\n            checkSignatures(messageHash, _data, _signature, false);\n        }\n        return EIP1271_MAGIC_VALUE;\n    }\n\n    /// @dev Returns hash of a message that can be signed by owners.\n    /// @param message Message that should be hashed\n    /// @return Message hash.\n    function getMessageHash(\n        bytes memory message\n    )\n        public\n        view\n        returns (bytes32)\n    {\n        bytes32 safeMessageHash = keccak256(\n            abi.encode(SAFE_MSG_TYPEHASH, keccak256(message))\n        );\n        return keccak256(\n            abi.encodePacked(byte(0x19), byte(0x01), domainSeparator, safeMessageHash)\n        );\n    }\n\n    /// @dev Returns the bytes that are hashed to be signed by owners.\n    /// @param to Destination address.\n    /// @param value Ether value.\n    /// @param data Data payload.\n    /// @param operation Operation type.\n    /// @param safeTxGas Fas that should be used for the safe transaction.\n    /// @param baseGas Gas costs for data used to trigger the safe transaction.\n    /// @param gasPrice Maximum gas price that should be used for this transaction.\n    /// @param gasToken Token address (or 0 if ETH) that is used for the payment.\n    /// @param refundReceiver Address of receiver of gas payment (or 0 if tx.origin).\n    /// @param _nonce Transaction nonce.\n    /// @return Transaction hash bytes.\n    function encodeTransactionData(\n        address to,\n        uint256 value,\n        bytes memory data,\n        Enum.Operation operation,\n        uint256 safeTxGas,\n        uint256 baseGas,\n        uint256 gasPrice,\n        address gasToken,\n        address refundReceiver,\n        uint256 _nonce\n    )\n        public\n        view\n        returns (bytes memory)\n    {\n        bytes32 safeTxHash = keccak256(\n            abi.encode(SAFE_TX_TYPEHASH, to, value, keccak256(data), operation, safeTxGas, baseGas, gasPrice, gasToken, refundReceiver, _nonce)\n        );\n        return abi.encodePacked(byte(0x19), byte(0x01), domainSeparator, safeTxHash);\n    }\n\n    /// @dev Returns hash to be signed by owners.\n    /// @param to Destination address.\n    /// @param value Ether value.\n    /// @param data Data payload.\n    /// @param operation Operation type.\n    /// @param safeTxGas Fas that should be used for the safe transaction.\n    /// @param baseGas Gas costs for data used to trigger the safe transaction.\n    /// @param gasPrice Maximum gas price that should be used for this transaction.\n    /// @param gasToken Token address (or 0 if ETH) that is used for the payment.\n    /// @param refundReceiver Address of receiver of gas payment (or 0 if tx.origin).\n    /// @param _nonce Transaction nonce.\n    /// @return Transaction hash.\n    function getTransactionHash(\n        address to,\n        uint256 value,\n        bytes memory data,\n        Enum.Operation operation,\n        uint256 safeTxGas,\n        uint256 baseGas,\n        uint256 gasPrice,\n        address gasToken,\n        address refundReceiver,\n        uint256 _nonce\n    )\n        public\n        view\n        returns (bytes32)\n    {\n        return keccak256(encodeTransactionData(to, value, data, operation, safeTxGas, baseGas, gasPrice, gasToken, refundReceiver, _nonce));\n    }\n}\n",
  "sourcePath": "/Users/ohm.jirapon/playground/blockhain/pos/plasma-ploygon/contracts/contracts/common/gnosis/GnosisSafe.sol",
  "compiler": {
    "name": "solc",
    "version": "0.5.17+commit.d19bba13.Linux.g++"
  },
  "schemaVersion": "3.4.7",
  "updatedAt": "2022-07-08T08:23:53.665Z",
  "devdoc": {
    "author": "Richard Meissner - <richard@gnosis.pm>",
    "methods": {
      "setFallbackHandler(address)": {
        "details": "Allows to add a contract to handle fallback calls.      Only fallback calls without value and with data will be forwarded.      This can only be done via a Safe transaction.",
        "params": {
          "handler": "contract to handle fallbacks calls."
        }
      }
    },
    "title": "Fallback Manager - A contract that manages fallback calls made to this contract"
  },
  "userdoc": {
    "methods": {}
  }
}