{
  "contractName": "Governable",
  "abi": [
    {
      "inputs": [
        {
          "internalType": "address",
          "name": "_governance",
          "type": "address"
        }
      ],
      "payable": false,
      "stateMutability": "nonpayable",
      "type": "constructor"
    },
    {
      "constant": true,
      "inputs": [],
      "name": "governance",
      "outputs": [
        {
          "internalType": "contract IGovernance",
          "name": "",
          "type": "address"
        }
      ],
      "payable": false,
      "stateMutability": "view",
      "type": "function"
    }
  ],
  "bytecode": "0x608060405234801561001057600080fd5b506040516100f73803806100f78339818101604052602081101561003357600080fd5b5051600080546001600160a01b039092166001600160a01b03199092169190911790556093806100646000396000f3fe6080604052348015600f57600080fd5b506004361060285760003560e01c80635aa6e67514602d575b600080fd5b6033604f565b604080516001600160a01b039092168252519081900360200190f35b6000546001600160a01b03168156fea265627a7a723158209cdd3b893ce042422a456db1429b18244472ee75400c9fd0176d4b1031a0a8e564736f6c63430005110032",
  "source": "pragma solidity ^0.5.2;\n\nimport {IGovernance} from \"./IGovernance.sol\";\n\ncontract Governable {\n    IGovernance public governance;\n\n    constructor(address _governance) public {\n        governance = IGovernance(_governance);\n    }\n\n    modifier onlyGovernance() {\n        _assertGovernance();\n        _;\n    }\n\n    function _assertGovernance() private view {\n        require(\n            msg.sender == address(governance),\n            \"Only governance contract is authorized\"\n        );\n    }\n}\n",
  "sourcePath": "/Users/ohm.jirapon/playground/blockhain/pos/plasma-ploygon/contracts/contracts/common/governance/Governable.sol",
  "compiler": {
    "name": "solc",
    "version": "0.5.17+commit.d19bba13.Linux.g++"
  },
  "schemaVersion": "3.4.7",
  "updatedAt": "2022-07-08T08:23:53.910Z",
  "devdoc": {
    "methods": {}
  },
  "userdoc": {
    "methods": {}
  }
}