{
  "contractName": "GovernanceLockable",
  "abi": [
    {
      "inputs": [
        {
          "internalType": "address",
          "name": "governance",
          "type": "address"
        }
      ],
      "payable": false,
      "stateMutability": "nonpayable",
      "type": "constructor"
    },
    {
      "constant": true,
      "inputs": [],
      "name": "governance",
      "outputs": [
        {
          "internalType": "contract IGovernance",
          "name": "",
          "type": "address"
        }
      ],
      "payable": false,
      "stateMutability": "view",
      "type": "function"
    },
    {
      "constant": true,
      "inputs": [],
      "name": "locked",
      "outputs": [
        {
          "internalType": "bool",
          "name": "",
          "type": "bool"
        }
      ],
      "payable": false,
      "stateMutability": "view",
      "type": "function"
    },
    {
      "constant": false,
      "inputs": [],
      "name": "lock",
      "outputs": [],
      "payable": false,
      "stateMutability": "nonpayable",
      "type": "function"
    },
    {
      "constant": false,
      "inputs": [],
      "name": "unlock",
      "outputs": [],
      "payable": false,
      "stateMutability": "nonpayable",
      "type": "function"
    }
  ],
  "bytecode": "0x608060405234801561001057600080fd5b506040516102103803806102108339818101604052602081101561003357600080fd5b5051600080546001600160a01b0390921661010002610100600160a81b03199092169190911790556101a68061006a6000396000f3fe608060405234801561001057600080fd5b506004361061004c5760003560e01c80635aa6e67514610051578063a69df4b514610075578063cf3090121461007f578063f83d08ba1461009b575b600080fd5b6100596100a3565b604080516001600160a01b039092168252519081900360200190f35b61007d6100b7565b005b6100876100c9565b604080519115158252519081900360200190f35b61007d6100d2565b60005461010090046001600160a01b031681565b6100bf6100e2565b6100c7610130565b565b60005460ff1681565b6100da6100e2565b6100c761013c565b60005461010090046001600160a01b031633146100c75760405162461bcd60e51b815260040180806020018281038252602681526020018061014c6026913960400191505060405180910390fd5b6000805460ff19169055565b6000805460ff1916600117905556fe4f6e6c7920676f7665726e616e636520636f6e747261637420697320617574686f72697a6564a265627a7a72315820028274366b3acc41790c7df87cbf02e1b65b52ee923fbc3d802ce5ffd85429e064736f6c63430005110032",
  "source": "pragma solidity ^0.5.2;\n\nimport {Governable} from \"../governance/Governable.sol\";\nimport {Lockable} from \"./Lockable.sol\";\n\ncontract GovernanceLockable is Lockable, Governable {\n    constructor(address governance) public Governable(governance) {}\n\n    function lock() public onlyGovernance {\n        super.lock();\n    }\n\n    function unlock() public onlyGovernance {\n        super.unlock();\n    }\n}\n",
  "sourcePath": "/Users/ohm.jirapon/playground/blockhain/pos/plasma-ploygon/contracts/contracts/common/mixin/GovernanceLockable.sol",
  "compiler": {
    "name": "solc",
    "version": "0.5.17+commit.d19bba13.Linux.g++"
  },
  "schemaVersion": "3.4.7",
  "updatedAt": "2022-07-08T08:23:54.113Z",
  "devdoc": {
    "methods": {}
  },
  "userdoc": {
    "methods": {}
  }
}