{
  "contractName": "ISlashingManager",
  "abi": [
    {
      "constant": true,
      "inputs": [],
      "name": "VOTE_TYPE",
      "outputs": [
        {
          "internalType": "uint8",
          "name": "",
          "type": "uint8"
        }
      ],
      "payable": false,
      "stateMutability": "view",
      "type": "function"
    },
    {
      "constant": true,
      "inputs": [],
      "name": "heimdallId",
      "outputs": [
        {
          "internalType": "bytes32",
          "name": "",
          "type": "bytes32"
        }
      ],
      "payable": false,
      "stateMutability": "view",
      "type": "function"
    },
    {
      "constant": true,
      "inputs": [],
      "name": "jailCheckpoints",
      "outputs": [
        {
          "internalType": "uint256",
          "name": "",
          "type": "uint256"
        }
      ],
      "payable": false,
      "stateMutability": "view",
      "type": "function"
    },
    {
      "constant": true,
      "inputs": [],
      "name": "logger",
      "outputs": [
        {
          "internalType": "contract StakingInfo",
          "name": "",
          "type": "address"
        }
      ],
      "payable": false,
      "stateMutability": "view",
      "type": "function"
    },
    {
      "constant": true,
      "inputs": [],
      "name": "proposerRate",
      "outputs": [
        {
          "internalType": "uint256",
          "name": "",
          "type": "uint256"
        }
      ],
      "payable": false,
      "stateMutability": "view",
      "type": "function"
    },
    {
      "constant": true,
      "inputs": [],
      "name": "registry",
      "outputs": [
        {
          "internalType": "contract Registry",
          "name": "",
          "type": "address"
        }
      ],
      "payable": false,
      "stateMutability": "view",
      "type": "function"
    },
    {
      "constant": true,
      "inputs": [],
      "name": "reportRate",
      "outputs": [
        {
          "internalType": "uint256",
          "name": "",
          "type": "uint256"
        }
      ],
      "payable": false,
      "stateMutability": "view",
      "type": "function"
    },
    {
      "constant": true,
      "inputs": [],
      "name": "slashingNonce",
      "outputs": [
        {
          "internalType": "uint256",
          "name": "",
          "type": "uint256"
        }
      ],
      "payable": false,
      "stateMutability": "view",
      "type": "function"
    }
  ],
  "bytecode": "0x608060405260056001556032600255600560035534801561001f57600080fd5b506101878061002f6000396000f3fe608060405234801561001057600080fd5b50600436106100885760003560e01c8063c25593be1161005b578063c25593be146100db578063d5b844eb146100e3578063f24ccbfe14610101578063fbc3dd361461010957610088565b80633199e3051461008d578063556b2ce9146100a75780637b103999146100af578063a2d32176146100d3575b600080fd5b610095610111565b60408051918252519081900360200190f35b610095610117565b6100b761011d565b604080516001600160a01b039092168252519081900360200190f35b61009561012c565b610095610132565b6100eb610138565b6040805160ff9092168252519081900360200190f35b6100b761013d565b61009561014c565b60025481565b60035481565b6005546001600160a01b031681565b60045481565b60015481565b600281565b6006546001600160a01b031681565b6000548156fea265627a7a7231582087816465f8d0e050273d386692c9a90b6b31f94a41da1109699595c8d9e0bf7d64736f6c63430005110032",
  "source": "pragma solidity ^0.5.2;\nimport {StakingInfo} from \"../StakingInfo.sol\";\nimport {Registry} from \"../../common/Registry.sol\";\n\n\ncontract ISlashingManager {\n    bytes32 public heimdallId;\n    uint8 public constant VOTE_TYPE = 2;\n    uint256 public reportRate = 5; // dummy default value\n    uint256 public proposerRate = 50; // dummy default value\n    uint256 public jailCheckpoints = 5; // checkpoints\n    uint256 public slashingNonce;\n    Registry public registry;\n    StakingInfo public logger;\n}\n",
  "sourcePath": "/Users/ohm.jirapon/internal/layer-2/layer2-plasma-cli/devnet/code/contracts/contracts/staking/slashing/ISlashingManager.sol",
  "compiler": {
    "name": "solc",
    "version": "0.5.17+commit.d19bba13.Linux.g++"
  },
  "schemaVersion": "3.0.14",
  "updatedAt": "2022-09-14T09:49:12.520Z",
  "devdoc": {
    "methods": {}
  },
  "userdoc": {
    "methods": {}
  }
}