{
  "contractName": "IStakeManagerEventsHub",
  "abi": [
    {
      "constant": true,
      "inputs": [
        {
          "internalType": "uint256",
          "name": "",
          "type": "uint256"
        }
      ],
      "name": "validators",
      "outputs": [
        {
          "internalType": "uint256",
          "name": "amount",
          "type": "uint256"
        },
        {
          "internalType": "uint256",
          "name": "reward",
          "type": "uint256"
        },
        {
          "internalType": "uint256",
          "name": "activationEpoch",
          "type": "uint256"
        },
        {
          "internalType": "uint256",
          "name": "deactivationEpoch",
          "type": "uint256"
        },
        {
          "internalType": "uint256",
          "name": "jailTime",
          "type": "uint256"
        },
        {
          "internalType": "address",
          "name": "signer",
          "type": "address"
        },
        {
          "internalType": "address",
          "name": "contractAddress",
          "type": "address"
        }
      ],
      "payable": false,
      "stateMutability": "view",
      "type": "function"
    }
  ],
  "bytecode": "0x608060405234801561001057600080fd5b50610109806100206000396000f3fe6080604052348015600f57600080fd5b506004361060285760003560e01c806335aa2e4414602d575b600080fd5b604760048036036020811015604157600080fd5b5035608b565b60408051978852602088019690965286860194909452606086019290925260808501526001600160a01b0390811660a08501521660c0830152519081900360e00190f35b6000602081905290815260409020805460018201546002830154600384015460048501546005860154600690960154949593949293919290916001600160a01b0390811691168756fea265627a7a723158207ce94ecfb5137acd06c0004f010e576dfe3bd648c5421a192caf9a377d09dcda64736f6c63430005110032",
  "source": "pragma solidity ^0.5.2;\n\nimport {Registry} from \"../common/Registry.sol\";\nimport {Initializable} from \"../common/mixin/Initializable.sol\";\n\ncontract IStakeManagerEventsHub {\n    struct Validator {\n        uint256 amount;\n        uint256 reward;\n        uint256 activationEpoch;\n        uint256 deactivationEpoch;\n        uint256 jailTime;\n        address signer;\n        address contractAddress;\n    }\n\n    mapping(uint256 => Validator) public validators;\n}\n\ncontract EventsHub is Initializable {\n    Registry public registry;\n\n    modifier onlyValidatorContract(uint256 validatorId) {\n        address _contract;\n        (, , , , , , _contract) = IStakeManagerEventsHub(registry.getStakeManagerAddress()).validators(validatorId);\n        require(_contract == msg.sender, \"not validator\");\n        _;\n    }\n\n    modifier onlyStakeManager() {\n        require(registry.getStakeManagerAddress() == msg.sender,\n        \"Invalid sender, not stake manager\");\n        _;\n    }\n\n    function initialize(Registry _registry) external initializer {\n        registry = _registry;\n    }\n\n    event ShareBurnedWithId(\n        uint256 indexed validatorId,\n        address indexed user,\n        uint256 indexed amount,\n        uint256 tokens,\n        uint256 nonce\n    );\n\n    function logShareBurnedWithId(\n        uint256 validatorId,\n        address user,\n        uint256 amount,\n        uint256 tokens,\n        uint256 nonce\n    ) public onlyValidatorContract(validatorId) {\n        emit ShareBurnedWithId(validatorId, user, amount, tokens, nonce);\n    }\n\n    event DelegatorUnstakeWithId(\n        uint256 indexed validatorId,\n        address indexed user,\n        uint256 amount,\n        uint256 nonce\n    );\n\n    function logDelegatorUnstakedWithId(\n        uint256 validatorId,\n        address user,\n        uint256 amount,\n        uint256 nonce\n    ) public onlyValidatorContract(validatorId) {\n        emit DelegatorUnstakeWithId(validatorId, user, amount, nonce);\n    }\n\n    event RewardParams(\n        uint256 rewardDecreasePerCheckpoint,\n        uint256 maxRewardedCheckpoints,\n        uint256 checkpointRewardDelta\n    );\n\n    function logRewardParams(\n        uint256 rewardDecreasePerCheckpoint,\n        uint256 maxRewardedCheckpoints,\n        uint256 checkpointRewardDelta\n    ) public onlyStakeManager {\n        emit RewardParams(rewardDecreasePerCheckpoint, maxRewardedCheckpoints, checkpointRewardDelta);\n    }\n\n    event UpdateCommissionRate(\n        uint256 indexed validatorId,\n        uint256 indexed newCommissionRate,\n        uint256 indexed oldCommissionRate\n    );\n\n    function logUpdateCommissionRate(\n        uint256 validatorId,\n        uint256 newCommissionRate,\n        uint256 oldCommissionRate\n    ) public onlyStakeManager {\n        emit UpdateCommissionRate(\n            validatorId,\n            newCommissionRate,\n            oldCommissionRate\n        );\n    }\n}\n",
  "sourcePath": "/Users/ohm.jirapon/playground/blockhain/pos/plasma-ploygon/contracts/contracts/staking/EventsHub.sol",
  "compiler": {
    "name": "solc",
    "version": "0.5.17+commit.d19bba13.Linux.g++"
  },
  "schemaVersion": "3.4.7",
  "updatedAt": "2022-07-08T08:23:54.479Z",
  "devdoc": {
    "methods": {}
  },
  "userdoc": {
    "methods": {}
  }
}