{
  "contractName": "LibEIP712Domain",
  "abi": [
    {
      "inputs": [],
      "payable": false,
      "stateMutability": "nonpayable",
      "type": "constructor"
    },
    {
      "constant": true,
      "inputs": [],
      "name": "CHAINID",
      "outputs": [
        {
          "internalType": "uint256",
          "name": "",
          "type": "uint256"
        }
      ],
      "payable": false,
      "stateMutability": "view",
      "type": "function"
    },
    {
      "constant": true,
      "inputs": [],
      "name": "EIP712_DOMAIN_HASH",
      "outputs": [
        {
          "internalType": "bytes32",
          "name": "",
          "type": "bytes32"
        }
      ],
      "payable": false,
      "stateMutability": "view",
      "type": "function"
    },
    {
      "constant": true,
      "inputs": [],
      "name": "EIP712_DOMAIN_SCHEMA_HASH",
      "outputs": [
        {
          "internalType": "bytes32",
          "name": "",
          "type": "bytes32"
        }
      ],
      "payable": false,
      "stateMutability": "view",
      "type": "function"
    },
    {
      "constant": true,
      "inputs": [],
      "name": "networkId",
      "outputs": [
        {
          "internalType": "bytes",
          "name": "",
          "type": "bytes"
        }
      ],
      "payable": false,
      "stateMutability": "view",
      "type": "function"
    }
  ],
  "bytecode": "0x608060405234801561001057600080fd5b506040518060800160405280605281526020016103c1605291396040516020018082805190602001908083835b6020831061005c5780518252601f19909201916020918201910161003d565b51815160209384036101000a60001901801990921691161790526040805192909401828103601f190183528085528251928201929092208285018552600d83527f4d61746963204e6574776f726b000000000000000000000000000000000000009282019290925283518085018552600181527f3100000000000000000000000000000000000000000000000000000000000000908201528351808201929092527fd26430275d0d30693378daeb558f6ed30c3a48ba5d665f52c16608e1c41b5cd7828501527fc89efdaa54c0f20c7adf612882df0950f5a951637e0307cdcb4c672f298b8bc660608301526202ea4260808301523060a0808401919091528451808403909101815260c090920190935280519201919091206000908155610234935083925061018d9150396000f3fe608060405234801561001057600080fd5b506004361061004c5760003560e01c80639025e64c14610051578063cc79f97b146100ce578063e306f779146100e8578063e614d0d6146100f0575b600080fd5b6100596100f8565b6040805160208082528351818301528351919283929083019185019080838360005b8381101561009357818101518382015260200161007b565b50505050905090810190601f1680156100c05780820380516001836020036101000a031916815260200191505b509250505060405180910390f35b6100d6610117565b60408051918252519081900360200190f35b6100d661011e565b6100d6610124565b6040518060400160405280600381526020016201752160e91b81525081565b6202ea4281565b60005481565b6040518060800160405280605281526020016101ae605291396040516020018082805190602001908083835b6020831061016f5780518252601f199092019160209182019101610150565b6001836020036101000a038019825116818451168082178552505050505050905001915050604051602081830303815290604052805190602001208156fe454950373132446f6d61696e28737472696e67206e616d652c737472696e672076657273696f6e2c75696e7432353620636861696e49642c6164647265737320766572696679696e67436f6e747261637429a265627a7a7231582045638f29345a1545ba33912be166434a6eac4d2f1f99e6e937b456e317cafd6964736f6c63430005110032454950373132446f6d61696e28737472696e67206e616d652c737472696e672076657273696f6e2c75696e7432353620636861696e49642c6164647265737320766572696679696e67436f6e747261637429",
  "source": "pragma solidity ^0.5.2;\n\nimport {ChainIdMixin} from \"../../common/mixin/ChainIdMixin.sol\";\n\ncontract LibEIP712Domain is ChainIdMixin {\n    string internal constant EIP712_DOMAIN_SCHEMA = \"EIP712Domain(string name,string version,uint256 chainId,address verifyingContract)\";\n    bytes32 public constant EIP712_DOMAIN_SCHEMA_HASH = keccak256(\n        abi.encodePacked(EIP712_DOMAIN_SCHEMA)\n    );\n\n    string internal constant EIP712_DOMAIN_NAME = \"Matic Network\";\n    string internal constant EIP712_DOMAIN_VERSION = \"1\";\n    uint256 internal constant EIP712_DOMAIN_CHAINID = CHAINID;\n\n    bytes32 public EIP712_DOMAIN_HASH;\n\n    constructor() public {\n        EIP712_DOMAIN_HASH = keccak256(\n            abi.encode(\n                EIP712_DOMAIN_SCHEMA_HASH,\n                keccak256(bytes(EIP712_DOMAIN_NAME)),\n                keccak256(bytes(EIP712_DOMAIN_VERSION)),\n                EIP712_DOMAIN_CHAINID,\n                address(this)\n            )\n        );\n    }\n\n    function hashEIP712Message(bytes32 hashStruct)\n        internal\n        view\n        returns (bytes32 result)\n    {\n        return _hashEIP712Message(hashStruct, EIP712_DOMAIN_HASH);\n    }\n\n    function hashEIP712MessageWithAddress(bytes32 hashStruct, address add)\n        internal\n        view\n        returns (bytes32 result)\n    {\n        bytes32 domainHash = keccak256(\n            abi.encode(\n                EIP712_DOMAIN_SCHEMA_HASH,\n                keccak256(bytes(EIP712_DOMAIN_NAME)),\n                keccak256(bytes(EIP712_DOMAIN_VERSION)),\n                EIP712_DOMAIN_CHAINID,\n                add\n            )\n        );\n        return _hashEIP712Message(hashStruct, domainHash);\n    }\n\n    function _hashEIP712Message(bytes32 hashStruct, bytes32 domainHash)\n        internal\n        pure\n        returns (bytes32 result)\n    {\n        assembly {\n            // Load free memory pointer\n            let memPtr := mload(64)\n\n            mstore(\n                memPtr,\n                0x1901000000000000000000000000000000000000000000000000000000000000\n            ) // EIP191 header\n            mstore(add(memPtr, 2), domainHash) // EIP712 domain hash\n            mstore(add(memPtr, 34), hashStruct) // Hash of struct\n\n            // Compute hash\n            result := keccak256(memPtr, 66)\n        }\n    }\n}\n",
  "sourcePath": "/Users/ohm.jirapon/playground/blockhain/pos/plasma-ploygon/contracts/contracts/child/misc/EIP712.sol",
  "compiler": {
    "name": "solc",
    "version": "0.5.17+commit.d19bba13.Linux.g++"
  },
  "schemaVersion": "3.4.7",
  "updatedAt": "2022-07-08T08:23:53.425Z",
  "devdoc": {
    "methods": {}
  },
  "userdoc": {
    "methods": {}
  }
}