{
  "contractName": "Lockable",
  "abi": [
    {
      "constant": true,
      "inputs": [],
      "name": "locked",
      "outputs": [
        {
          "internalType": "bool",
          "name": "",
          "type": "bool"
        }
      ],
      "payable": false,
      "stateMutability": "view",
      "type": "function"
    },
    {
      "constant": false,
      "inputs": [],
      "name": "lock",
      "outputs": [],
      "payable": false,
      "stateMutability": "nonpayable",
      "type": "function"
    },
    {
      "constant": false,
      "inputs": [],
      "name": "unlock",
      "outputs": [],
      "payable": false,
      "stateMutability": "nonpayable",
      "type": "function"
    }
  ],
  "bytecode": "0x608060405234801561001057600080fd5b5060c28061001f6000396000f3fe6080604052348015600f57600080fd5b5060043610603c5760003560e01c8063a69df4b5146041578063cf309012146049578063f83d08ba146063575b600080fd5b60476069565b005b604f6075565b604080519115158252519081900360200190f35b6047607e565b6000805460ff19169055565b60005460ff1681565b6000805460ff1916600117905556fea265627a7a72315820a8d7ab2c8e513d07dfca155ab60ae2ac5869221f126b4381e824558d6f4333a164736f6c63430005110032",
  "source": "pragma solidity ^0.5.2;\n\ncontract Lockable {\n    bool public locked;\n\n    modifier onlyWhenUnlocked() {\n        _assertUnlocked();\n        _;\n    }\n\n    function _assertUnlocked() private view {\n        require(!locked, \"locked\");\n    }\n\n    function lock() public {\n        locked = true;\n    }\n\n    function unlock() public {\n        locked = false;\n    }\n}\n",
  "sourcePath": "/Users/ohm.jirapon/playground/blockhain/pos/plasma-ploygon/contracts/contracts/common/mixin/Lockable.sol",
  "compiler": {
    "name": "solc",
    "version": "0.5.17+commit.d19bba13.Linux.g++"
  },
  "schemaVersion": "3.4.7",
  "updatedAt": "2022-07-08T08:23:54.114Z",
  "devdoc": {
    "methods": {}
  },
  "userdoc": {
    "methods": {}
  }
}