{
  "contractName": "MarketplacePredicateTest",
  "abi": [
    {
      "inputs": [],
      "payable": false,
      "stateMutability": "nonpayable",
      "type": "constructor"
    },
    {
      "constant": true,
      "inputs": [],
      "name": "CHAINID",
      "outputs": [
        {
          "internalType": "uint256",
          "name": "",
          "type": "uint256"
        }
      ],
      "payable": false,
      "stateMutability": "view",
      "type": "function"
    },
    {
      "constant": true,
      "inputs": [],
      "name": "networkId",
      "outputs": [
        {
          "internalType": "bytes",
          "name": "",
          "type": "bytes"
        }
      ],
      "payable": false,
      "stateMutability": "view",
      "type": "function"
    },
    {
      "constant": false,
      "inputs": [
        {
          "internalType": "bytes",
          "name": "data",
          "type": "bytes"
        }
      ],
      "name": "onFinalizeExit",
      "outputs": [],
      "payable": false,
      "stateMutability": "nonpayable",
      "type": "function"
    },
    {
      "constant": true,
      "inputs": [],
      "name": "registry",
      "outputs": [
        {
          "internalType": "contract Registry",
          "name": "",
          "type": "address"
        }
      ],
      "payable": false,
      "stateMutability": "view",
      "type": "function"
    },
    {
      "constant": true,
      "inputs": [],
      "name": "rootChain",
      "outputs": [
        {
          "internalType": "contract IRootChain",
          "name": "",
          "type": "address"
        }
      ],
      "payable": false,
      "stateMutability": "view",
      "type": "function"
    },
    {
      "constant": false,
      "inputs": [
        {
          "internalType": "bytes",
          "name": "data",
          "type": "bytes"
        },
        {
          "internalType": "bytes",
          "name": "exitTx",
          "type": "bytes"
        }
      ],
      "name": "startExit",
      "outputs": [],
      "payable": true,
      "stateMutability": "payable",
      "type": "function"
    },
    {
      "constant": true,
      "inputs": [
        {
          "internalType": "bytes",
          "name": "exit",
          "type": "bytes"
        },
        {
          "internalType": "bytes",
          "name": "inputUtxo",
          "type": "bytes"
        },
        {
          "internalType": "bytes",
          "name": "challengeData",
          "type": "bytes"
        }
      ],
      "name": "verifyDeprecation",
      "outputs": [
        {
          "internalType": "bool",
          "name": "",
          "type": "bool"
        }
      ],
      "payable": false,
      "stateMutability": "view",
      "type": "function"
    },
    {
      "constant": true,
      "inputs": [
        {
          "internalType": "address",
          "name": "predicate",
          "type": "address"
        },
        {
          "internalType": "bytes",
          "name": "data",
          "type": "bytes"
        },
        {
          "internalType": "address",
          "name": "participant",
          "type": "address"
        }
      ],
      "name": "processLogTransferReceiptTest",
      "outputs": [
        {
          "internalType": "bytes",
          "name": "b",
          "type": "bytes"
        }
      ],
      "payable": false,
      "stateMutability": "view",
      "type": "function"
    },
    {
      "constant": true,
      "inputs": [
        {
          "internalType": "bytes",
          "name": "exitTx",
          "type": "bytes"
        }
      ],
      "name": "processExitTx",
      "outputs": [
        {
          "internalType": "bytes",
          "name": "b",
          "type": "bytes"
        }
      ],
      "payable": false,
      "stateMutability": "view",
      "type": "function"
    },
    {
      "constant": true,
      "inputs": [
        {
          "internalType": "bytes",
          "name": "exitTx",
          "type": "bytes"
        }
      ],
      "name": "testGetAddressFromTx",
      "outputs": [
        {
          "internalType": "address",
          "name": "signer",
          "type": "address"
        },
        {
          "internalType": "bytes32",
          "name": "txHash",
          "type": "bytes32"
        }
      ],
      "payable": false,
      "stateMutability": "pure",
      "type": "function"
    }
  ],
  "bytecode": "0x608060405234801561001057600080fd5b50600080546001600160a01b03199081169091556003805482169055600280549091169055613244806100446000396000f3fe6080604052600436106100915760003560e01c8063987ab9db11610059578063987ab9db14610360578063cc79f97b14610375578063dc989e001461039c578063ec58410c1461044d578063ef472d691461057c57610091565b806328b4b53d146100965780633abb8086146101565780637b1039991461022a5780637bd94e031461025b5780639025e64c146102d6575b600080fd5b610154600480360360408110156100ac57600080fd5b810190602081018135600160201b8111156100c657600080fd5b8201836020820111156100d857600080fd5b803590602001918460018302840111600160201b831117156100f957600080fd5b919390929091602081019035600160201b81111561011657600080fd5b82018360208201111561012857600080fd5b803590602001918460018302840111600160201b8311171561014957600080fd5b509092509050610648565b005b34801561016257600080fd5b506102076004803603602081101561017957600080fd5b810190602081018135600160201b81111561019357600080fd5b8201836020820111156101a557600080fd5b803590602001918460018302840111600160201b831117156101c657600080fd5b91908080601f0160208091040260200160405190810160405280939291908181526020018383808284376000920191909152509295506110d6945050505050565b604080516001600160a01b03909316835260208301919091528051918290030190f35b34801561023657600080fd5b5061023f6110fd565b604080516001600160a01b039092168252519081900360200190f35b34801561026757600080fd5b506101546004803603602081101561027e57600080fd5b810190602081018135600160201b81111561029857600080fd5b8201836020820111156102aa57600080fd5b803590602001918460018302840111600160201b831117156102cb57600080fd5b50909250905061110c565b3480156102e257600080fd5b506102eb61122a565b6040805160208082528351818301528351919283929083019185019080838360005b8381101561032557818101518382015260200161030d565b50505050905090810190601f1680156103525780820380516001836020036101000a031916815260200191505b509250505060405180910390f35b34801561036c57600080fd5b5061023f611249565b34801561038157600080fd5b5061038a611258565b60408051918252519081900360200190f35b3480156103a857600080fd5b506102eb600480360360208110156103bf57600080fd5b810190602081018135600160201b8111156103d957600080fd5b8201836020820111156103eb57600080fd5b803590602001918460018302840111600160201b8311171561040c57600080fd5b91908080601f01602080910402602001604051908101604052809392919081815260200183838082843760009201919091525092955061125f945050505050565b34801561045957600080fd5b506105686004803603606081101561047057600080fd5b810190602081018135600160201b81111561048a57600080fd5b82018360208201111561049c57600080fd5b803590602001918460018302840111600160201b831117156104bd57600080fd5b919390929091602081019035600160201b8111156104da57600080fd5b8201836020820111156104ec57600080fd5b803590602001918460018302840111600160201b8311171561050d57600080fd5b919390929091602081019035600160201b81111561052a57600080fd5b82018360208201111561053c57600080fd5b803590602001918460018302840111600160201b8311171561055d57600080fd5b509092509050611307565b604080519115158252519081900360200190f35b34801561058857600080fd5b506102eb6004803603606081101561059f57600080fd5b6001600160a01b038235169190810190604081016020820135600160201b8111156105c957600080fd5b8201836020820111156105db57600080fd5b803590602001918460018302840111600160201b831117156105fc57600080fd5b91908080601f016020809104026020016040519081016040528093929190818152602001838380828437600092019190915250929550505090356001600160a01b031691506116929050565b67016345785d8a0000341461069a576040805162461bcd60e51b8152602060048201526013602482015272125b9d985b1a5908109bdb9908185b5bdd5b9d606a1b604482015290519081900360640190fd5b60606106e36106de86868080601f01602080910402602001604051908101604052809392919081815260200183838082843760009201919091525061172292505050565b611748565b905060006060610706836000815181106106f957fe5b6020026020010151611819565b806020019051604081101561071a57600080fd5b815160208301805160405192949293830192919084600160201b82111561074057600080fd5b90830190602082018581111561075557600080fd5b8251600160201b81118282018810171561076e57600080fd5b82525081516020918201929091019080838360005b8381101561079b578181015183820152602001610783565b50505050905090810190601f1680156107c85780820380516001836020036101000a031916815260200191505b5060408181526002546337b1d58560e01b83526001600160a01b0380891660048501529151979950959750909416946337b1d585946024808201955060209450919250829003018186803b15801561081f57600080fd5b505afa158015610833573d6000803e3d6000fd5b505050506040513d602081101561084957600080fd5b5051600381111561085657fe5b60ff166108a2576040805162461bcd60e51b81526020600482015260156024820152744e6f7420612076616c69642070726564696361746560581b604482015290519081900360640190fd5b6108aa612ed7565b6108eb86868080601f01602080910402602001604051908101604052809392919081815260200183838082843760009201919091525033925061187f915050565b9050600360009054906101000a90046001600160a01b03166001600160a01b031663b87e1b666040518163ffffffff1660e01b815260040160206040518083038186803b15801561093b57600080fd5b505afa15801561094f573d6000803e3d6000fd5b505050506040513d602081101561096557600080fd5b505160c0820151116109a85760405162461bcd60e51b815260040180806020018281038252604981526020018061317f6049913960600191505060405180910390fd5b6109b0612f13565b6109bf848433600160006119b9565b60408082015190840151825185519394506109d993611c62565b6109e9856001815181106106f957fe5b80602001905160408110156109fd57600080fd5b815160208301805160405192949293830192919084600160201b821115610a2357600080fd5b908301906020820185811115610a3857600080fd5b8251600160201b811182820188101715610a5157600080fd5b82525081516020918201929091019080838360005b83811015610a7e578181015183820152602001610a66565b50505050905090810190601f168015610aab5780820380516001836020036101000a031916815260200191505b5060408181526002546337b1d58560e01b83526001600160a01b0380891660048501529151979b50959950909416946337b1d585946024808201955060209450919250829003018186803b158015610b0257600080fd5b505afa158015610b16573d6000803e3d6000fd5b505050506040513d6020811015610b2c57600080fd5b50516003811115610b3957fe5b60ff16610b85576040805162461bcd60e51b81526020600482015260156024820152744e6f7420612076616c69642070726564696361746560581b604482015290519081900360640190fd5b610b8d612f13565b610ba085858560800151600160006119b9565b9050610bbe8160400151846060015183600001518660200151611c62565b6000610be087600189510381518110610bd357fe5b6020026020010151611dce565b9050610bea612f13565b875160041415610d5457610c04886003815181106106f957fe5b8060200190516040811015610c1857600080fd5b815160208301805160405192949293830192919084600160201b821115610c3e57600080fd5b908301906020820185811115610c5357600080fd5b8251600160201b811182820188101715610c6c57600080fd5b82525081516020918201929091019080838360005b83811015610c99578181015183820152602001610c81565b50505050905090810190601f168015610cc65780820380516001836020036101000a031916815260200191505b5060405250929950909750610ce491508890508733600160006119b9565b905080604001516001600160a01b031683604001516001600160a01b031614610d54576040805162461bcd60e51b815260206004820152601860248201527f4368696c6420746f6b656e20646f65736e74206d617463680000000000000000604482015290519081900360640190fd5b610d5c611e1c565b60006001610d7f610d7587602001518760200151611e5b565b8460200151611e5b565b901b905084604001516001600160a01b0316836001600160a01b03161415610e65576000546060860151875187516001600160a01b039093169263d931a8699233928892610dd29163ffffffff611e7616565b60a08c0151604080516001600160e01b031960e089901b1681526001600160a01b039687166004820152948616602486015292909416604484015260648301526084820192909252600060a4820181905260c48201869052915160e4808301939282900301818387803b158015610e4857600080fd5b505af1158015610e5c573d6000803e3d6000fd5b50505050610f46565b83604001516001600160a01b0316836001600160a01b03161415610f46576000546060850151835160208901516001600160a01b039093169263d931a8699233928892610eb79163ffffffff611e8b16565b60a08c0151604080516001600160e01b031960e089901b1681526001600160a01b039687166004820152948616602486015292909416604484015260648301526084820192909252600060a4820181905260c48201869052915160e4808301939282900301818387803b158015610f2d57600080fd5b505af1158015610f41573d6000803e3d6000fd5b505050505b6000805460208701516060880151604080516322f192af60e01b81526004810187905260248101939093523360448401526001600160a01b039182166064840152519216926322f192af9260848084019382900301818387803b158015610fac57600080fd5b505af1158015610fc0573d6000803e3d6000fd5b505060008054602088015160808b015160608a0151604080516322f192af60e01b8152600481018a905260248101949094526001600160a01b039283166044850152908216606484015251921694506322f192af9350608480820193929182900301818387803b15801561103357600080fd5b505af1158015611047573d6000803e3d6000fd5b5050600080546060860151604080516322f192af60e01b815260048101889052602481018590523360448201526001600160a01b03928316606482015290519190921694506322f192af93506084808301939282900301818387803b1580156110af57600080fd5b505af11580156110c3573d6000803e3d6000fd5b5050505050505050505050505050505050565b60008060606110e76106de85611722565b90506110f281611e9d565b909590945092505050565b6002546001600160a01b031681565b6000546001600160a01b03163314611163576040805162461bcd60e51b815260206004820152601560248201527427a7262cafaba4aa24222920abafa6a0a720a3a2a960591b604482015290519081900360640190fd5b60008060006111a785858080601f01602080910402602001604051908101604052809392919081815260200183838082843760009201919091525061222d92505050565b600154604080516349f4cc1760e01b81526001600160a01b03808716600483015280861660248301526044820185905291519599509397509195501692506349f4cc1791606480830192600092919082900301818387803b15801561120b57600080fd5b505af115801561121f573d6000803e3d6000fd5b505050505050505050565b6040518060400160405280600381526020016201752160e91b81525081565b6003546001600160a01b031681565b6202ea4281565b6060611269612ed7565b611273833361187f565b90508060000151816020015182604001518360600151846080015160405160200180868152602001858152602001846001600160a01b03166001600160a01b03168152602001836001600160a01b03166001600160a01b03168152602001826001600160a01b03166001600160a01b0316815260200195505050505050604051602081830303815290604052915050919050565b6000611311612f4d565b61135088888080601f01602080910402602001604051908101604052809392919081815260200183838082843760009201919091525061226a92505050565b90506000806000806113978a8a8080601f01602080910402602001604051908101604052809392919081815260200183838082843760009201919091525061222d92505050565b935093509350935060606113e36106de8a8a8080601f01602080910402602001604051908101604052809392919081815260200183838082843760009201919091525061172292505050565b90506113ed612ed7565b61140661140083600a815181106106f957fe5b8661187f565b9050611410612f13565b611456858c8c8080601f0160208091040260200160405190810160405280939291908181526020018383808284376000920191909152508b9250600191508190506119b9565b905060028054604080516337b1d58560e01b81526001600160a01b038981166004830152915191909216916337b1d585916024808301926020929190829003018186803b1580156114a657600080fd5b505afa1580156114ba573d6000803e3d6000fd5b505050506040513d60208110156114d057600080fd5b505160038111156114dd57fe5b141561153057875181511480156114f5575087518251145b6115305760405162461bcd60e51b81526004018080602001828103825260488152602001806131c86048913960600191505060405180910390fd5b8160c0015161154282602001516122ee565b111561157f5760405162461bcd60e51b81526004018080602001828103825260368152602001806130fd6036913960400191505060405180910390fd5b836001600160a01b031681604001516001600160a01b03161480156115b95750836001600160a01b031682604001516001600160a01b0316145b6115f45760405162461bcd60e51b815260040180806020018281038252604c815260200180613133604c913960600191505060405180910390fd5b87602001518260a00151141561163b5760405162461bcd60e51b815260040180806020018281038252602181526020018061307c6021913960400191505060405180910390fd5b8681602001511161167d5760405162461bcd60e51b81526004018080602001828103825260568152602001806130266056913960600191505060405180910390fd5b5060019e9d5050505050505050505050505050565b606061169c612f13565b6116aa8585856000806119b9565b9050806000015181602001518260400151836060015160405160200180858152602001848152602001836001600160a01b03166001600160a01b03168152602001826001600160a01b03166001600160a01b031681526020019450505050506040516020818303038152906040529150509392505050565b61172a612f82565b5060408051808201909152815181526020828101908201525b919050565b606061175382612302565b61175c57600080fd5b60006117678361233c565b90506060816040519080825280602002602001820160405280156117a557816020015b611792612f82565b81526020019060019003908161178a5790505b50905060006117b78560200151612398565b60208601510190506000805b8481101561180e576117d4836123fb565b91506040518060400160405280838152602001848152508482815181106117f757fe5b6020908102919091010152918101916001016117c3565b509195945050505050565b805160609061182757600080fd5b60008061183384612494565b915091506060816040519080825280601f01601f191660200182016040528015611864576020820181803883390190505b509050602081016118768482856124ba565b50949350505050565b611887612ed7565b60606118956106de85611722565b905080516009146118e5576040805162461bcd60e51b815260206004820152601560248201527409a82988c9ea49a8a88beae92a89088a482aebea8b605b1b604482015290519081900360640190fd5b6000611904826003815181106118f757fe5b602002602001015161250b565b90506000611910612f9c565b611928611923856005815181106106f957fe5b612525565b90925090506001600160e01b031982166339982e7960e21b14611992576040805162461bcd60e51b815260206004820152601c60248201527f4e6f7420657865637574654f72646572207472616e73616374696f6e00000000604482015290519081900360640190fd5b61199d8184886125c9565b94506119a884611e9d565b60a087015250939695505050505050565b6119c1612f13565b6060866001600160a01b03166382e3464c878787876040516020018080602001856001600160a01b03166001600160a01b031681526020018415151515815260200183151515158152602001828103825286818151815260200191508051906020019080838360005b83811015611a42578181015183820152602001611a2a565b50505050905090810190601f168015611a6f5780820380516001836020036101000a031916815260200191505b50955050505050506040516020818303038152906040526040518263ffffffff1660e01b81526004018080602001828103825283818151815260200191508051906020019080838360005b83811015611ad2578181015183820152602001611aba565b50505050905090810190601f168015611aff5780820380516001836020036101000a031916815260200191505b509250505060006040518083038186803b158015611b1c57600080fd5b505afa158015611b30573d6000803e3d6000fd5b505050506040513d6000823e601f3d908101601f191682016040526020811015611b5957600080fd5b8101908080516040519392919084600160201b821115611b7857600080fd5b908301906020820185811115611b8d57600080fd5b8251600160201b811182820188101715611ba657600080fd5b82525081516020918201929091019080838360005b83811015611bd3578181015183820152602001611bbb565b50505050905090810190601f168015611c005780820380516001836020036101000a031916815260200191505b506040525050509050808060200190516080811015611c1e57600080fd5b5080516020808301516040808501516060958601516001600160a01b0390811696890196909652949094169386019390935284019190915282525095945050505050565b826001600160a01b0316846001600160a01b031614611cc8576040805162461bcd60e51b815260206004820152601960248201527f4368696c6420746f6b656e7320646f206e6f74206d6174636800000000000000604482015290519081900360640190fd5b6002546040805163bbfe7cd360e01b81526001600160a01b0387811660048301529151919092169163bbfe7cd3916024808301926020929190829003018186803b158015611d1557600080fd5b505afa158015611d29573d6000803e3d6000fd5b505050506040513d6020811015611d3f57600080fd5b505115611d8957808214611d845760405162461bcd60e51b81526004018080602001828103825260248152602001806130026024913960400191505060405180910390fd5b611dc8565b80821015611dc85760405162461bcd60e51b815260040180806020018281038252602881526020018061309d6028913960400191505060405180910390fd5b50505050565b805160009015801590611de357508151602110155b611dec57600080fd5b600080611df884612494565b815191935091506020821015611e145760208290036101000a90045b949350505050565b600080546040516001600160a01b03909116919067016345785d8a00009082818181858883f19350505050158015611e58573d6000803e3d6000fd5b50565b600081831015611e6b5781611e6d565b825b90505b92915050565b600082821115611e8557600080fd5b50900390565b600082820183811015611e6d57600080fd5b60408051600980825261014082019092526000918291606091816020015b6060815260200190600190039081611ebb57905050905060005b60058160ff1611611f1457611ef2858260ff16815181106106f957fe5b828260ff1681518110611f0157fe5b6020908102919091010152600101611ed5565b506040518060400160405280600381526020016201752160e91b81525081600681518110611f3e57fe5b60200260200101819052506040518060200160405280600081525081600781518110611f6657fe5b60200260200101819052506040518060200160405280600081525081600881518110611f8e57fe5b6020026020010181905250611fa2816129dd565b80519060200120915060018273__Common________________________________63b40b539b611fd8886006815181106106f957fe5b604080518082018252600381526201752160e91b602080830191825292516326b3515760e11b81526004810193845282516024820152825173__Common________________________________94634d66a2ae9493909283926044909101919080838360005b8381101561205657818101518382015260200161203e565b50505050905090810190601f1680156120835780820380516001836020036101000a031916815260200191505b509250505060206040518083038186803b1580156120a057600080fd5b505af41580156120b4573d6000803e3d6000fd5b505050506040513d60208110156120ca57600080fd5b5051604080516001600160e01b031960e086901b16815261ffff8316602482015260048101918252835160448201528351829160640190602086019080838360005b8381101561212457818101518382015260200161210c565b50505050905090810190601f1680156121515780820380516001836020036101000a031916815260200191505b50935050505060206040518083038186803b15801561216f57600080fd5b505af4158015612183573d6000803e3d6000fd5b505050506040513d602081101561219957600080fd5b505186516121ae9088906007908110610bd357fe5b60001b6121c188600881518110610bd357fe5b60001b60405160008152602001604052604051808581526020018460ff1660ff1681526020018381526020018281526020019450505050506020604051602081039080840390855afa15801561221b573d6000803e3d6000fd5b50505060206040510351925050915091565b60008060008084806020019051608081101561224857600080fd5b5080516020820151604083015160609093015191989097509195509350915050565b612272612f4d565b60008060008060008680602001905160a081101561228f57600080fd5b508051602080830151604080850151606080870151608097880151845160c081018652938452958301526001600160a01b03958616928201929092529390911690830152151591810191909152600060a0820152979650505050505050565b60201c6b7fffffffffffffffffffffff1690565b805160009061231357506000611743565b6020820151805160001a9060c082101561233257600092505050611743565b5060019392505050565b805160009061234d57506000611743565b600080905060006123618460200151612398565b602085015185519181019250015b8082101561238f57612380826123fb565b6001909301929091019061236f565b50909392505050565b8051600090811a60808110156123b2576000915050611743565b60b88110806123cd575060c081108015906123cd575060f881105b156123dc576001915050611743565b60c08110156123f05760b519019050611743565b60f519019050611743565b80516000908190811a6080811015612416576001915061248d565b60b881101561242b57607e198101915061248d565b60c08110156124585760b78103600185019450806020036101000a8551046001820181019350505061248d565b60f881101561246d5760be198101915061248d565b60f78103600185019450806020036101000a855104600182018101935050505b5092915050565b60008060006124a68460200151612398565b602085015194519481019594039392505050565b806124c457612506565b5b602081106124e4578251825260209283019290910190601f19016124c5565b8015612506578251825160208390036101000a60001901801990921691161782525b505050565b805160009060151461251c57600080fd5b611e7082611dce565b600061252f612f9c565b61254461253f8460006004612a31565b612ab0565b9150612551836044612ab7565b6040820152612561836064612ab7565b6060820152612571836084612ab7565b6001600160a01b03166080820152600061258c8460a4612ab7565b905061259a8460c483612a31565b825260c481016125aa8582612ab7565b91506125ba858260200184612a31565b83602001819052505050915091565b6125d1612ed7565b6125d9612fd7565b84516125e490612ad3565b90506125ee612fd7565b6125fb8660200151612ad3565b82516040808501518982015184518386015184516020808201949094526bffffffffffffffffffffffff19606093841b16818701526054808201929092528551808203909201825260748101808752825192850192909220928e015163250e38bf60e01b9092526001600160a01b039687166078820152958c16609887015260b886019390935260d885015260f8840191909152905192935060009273__TransferWithSigUtils__________________9263250e38bf92610118808301939192829003018186803b1580156126d057600080fd5b505af41580156126e4573d6000803e3d6000fd5b505050506040513d60208110156126fa57600080fd5b50516020840151909150600090612712908390612bc6565b905073__TransferWithSigUtils__________________63250e38bf84600001518986604001518c6040015189600001518a6040015160405160200180848152602001836001600160a01b03166001600160a01b031660601b81526014018281526020019350505050604051602081830303815290604052805190602001208d606001516040518663ffffffff1660e01b815260040180866001600160a01b03166001600160a01b03168152602001856001600160a01b03166001600160a01b031681526020018481526020018381526020018281526020019550505050505060206040518083038186803b15801561280a57600080fd5b505af415801561281e573d6000803e3d6000fd5b505050506040513d602081101561283457600080fd5b5051602084015190925060009061284c908490612bc6565b9050806001600160a01b031689608001516001600160a01b0316146128b8576040805162461bcd60e51b815260206004820152601c60248201527f4f726465727320617265206e6f7420636f6d706c696d656e7461727900000000604482015290519081900360640190fd5b866001600160a01b0316826001600160a01b0316141561292b576040805160e08101825286820151815285820151602082015295516001600160a01b039081169187019190915293518416606080870191909152931660808501525050600060a083015285015160c082015290506129d6565b866001600160a01b0316816001600160a01b0316141561299f57506040805160e08101825284820151815285820151602082015293516001600160a01b0390811691850191909152935184166060808501919091529316608083015250600060a08201529085015160c082015290506129d6565b60405162461bcd60e51b81526004018080602001828103825260388152602001806130c56038913960400191505060405180910390fd5b9392505050565b60608060005b8351811015612a1b57612a1182612a0c8684815181106129ff57fe5b6020026020010151612cae565b612d12565b91506001016129e3565b506129d6612a2b825160c0612d8f565b82612d12565b606081830184511015612a4357600080fd5b606082158015612a5e57604051915060208201604052611876565b6040519150601f8416801560200281840101858101878315602002848b0101015b81831015612a97578051835260209283019201612a7f565b5050858452601f01601f19166040525050949350505050565b6020015190565b60008160200183511015612aca57600080fd5b50016020015190565b612adb612fd7565b818060200190516060811015612af057600080fd5b815160208301805160405192949293830192919084600160201b821115612b1657600080fd5b908301906020820185811115612b2b57600080fd5b8251600160201b811182820188101715612b4457600080fd5b82525081516020918201929091019080838360005b83811015612b71578181015183820152602001612b59565b50505050905090810190601f168015612b9e5780820380516001836020036101000a031916815260200191505b5060409081526020918201519087015285019290925250506001600160a01b03168152919050565b6000806000808451604114612be15760009350505050611e70565b50505060208201516040830151604184015160ff16601b811015612c0357601b015b8060ff16601b14158015612c1b57508060ff16601c14155b15612c2c5760009350505050611e70565b60408051600080825260208083018085528a905260ff85168385015260608301879052608083018690529251909260019260a080820193601f1981019281900390910190855afa158015612c84573d6000803e3d6000fd5b5050604051601f1901519150506001600160a01b038116612ca457600080fd5b9695505050505050565b60608082516001148015612cd65750608083600081518110612ccc57fe5b016020015160f81c105b15612d01576040805160018082528183019092529060208201818038833950859350611e7092505050565b611e6d612d1084516080612d8f565b845b6060806040519050835180825260208201818101602087015b81831015612d43578051835260209283019201612d2b565b50855184518101855292509050808201602086015b81831015612d70578051835260209283019201612d58565b508651929092011591909101601f01601f191660405250905092915050565b60606038831015612dec5760408051600180825281830190925260609160208201818038833901905050905082840160f81b81600081518110612dce57fe5b60200101906001600160f81b031916908160001a9053509050611e70565b600060015b808581612dfa57fe5b0415612e0f5760019091019061010002612df1565b6060612e1f838660370101612e43565b90506060612e2c87612e43565b9050612e388282612d12565b945050505050611e70565b6060600160ff831115612e54575060025b806040519080825280601f01601f191660200182016040528015612e7f576020820181803883390190505b50915060005b81811015612ed05780600183030360080260020a8481612ea157fe5b0460f81b838281518110612eb157fe5b60200101906001600160f81b031916908160001a905350600101612e85565b5050919050565b6040805160e081018252600080825260208201819052918101829052606081018290526080810182905260a0810182905260c081019190915290565b6040518060800160405280600081526020016000815260200160006001600160a01b0316815260200160006001600160a01b031681525090565b6040805160c081018252600080825260208201819052918101829052606081018290526080810182905260a081019190915290565b604051806040016040528060008152602001600081525090565b6040518060a001604052806060815260200160608152602001600080191681526020016000815260200160006001600160a01b031681525090565b604051806060016040528060006001600160a01b031681526020016060815260200160008152509056fe53616d652065726337323120746f6b656e20776173206e6f74207265666572656e636564416765206f66206368616c6c656e6765206c6f6720696e207468652072656365697074206e6565647320746f206265206d6f726520726563656e74207468616e205574786f206265696e67206368616c6c656e67656443616e6e6f74206368616c6c656e6765207769746820746865206578697420747845786974696e672077697468206d6f726520746f6b656e73207468616e207265666572656e63656450726f766964656420747820646f65736e7420636f6e6365726e2074686520657869746f72202874726164655061727469636970616e7429546865206d61726b6574706c616365206f72646572207761732065787069726564207768656e2069742077617320696e636c756465644c6f675472616e73666572526563656970742c206368616c6c656e6765547820746f6b656e20616e64206368616c6c656e676564207574786f20746f6b656e20646f206e6f74206d6174636854686520696e666c696768742065786974206973206e6f742076616c69642c206265636175736520746865206d61726b6574706c616365206f726465722068617320657870697265644c6f675472616e73666572526563656970742c206368616c6c656e67655478204e465420616e64206368616c6c656e676564207574786f204e465420646f206e6f74206d61746368a265627a7a72315820700d3bb707a513fa6e7cc231c35ad62beb93296f93f781a76f5853aee604a52864736f6c63430005110032",
  "source": "pragma solidity ^0.5.2;\n\nimport {RLPReader} from \"solidity-rlp/contracts/RLPReader.sol\";\n\nimport {\n    MarketplacePredicate\n} from \"../root/predicates/MarketplacePredicate.sol\";\nimport {ERC20Predicate} from \"../root/predicates/ERC20Predicate.sol\";\n\ncontract MarketplacePredicateTest is MarketplacePredicate {\n    constructor()\n        public\n        MarketplacePredicate(address(0x0), address(0x0), address(0x0))\n    {}\n\n    function processLogTransferReceiptTest(\n        address predicate,\n        bytes memory data,\n        address participant\n    ) public view returns (bytes memory b) {\n        ReferenceTxData memory _referenceTx = super.processLogTransferReceipt(\n            predicate,\n            data,\n            participant,\n            false,\n            false\n        );\n        b = abi.encode(\n            _referenceTx.closingBalance,\n            _referenceTx.age,\n            _referenceTx.childToken,\n            _referenceTx.rootToken\n        );\n    }\n\n    function processExitTx(bytes memory exitTx)\n        public\n        view\n        returns (bytes memory b)\n    {\n        ExitTxData memory txData = super.processExitTx(exitTx, msg.sender);\n        b = abi.encode(\n            txData.amount1,\n            txData.amount2,\n            txData.token1,\n            txData.token2,\n            txData.counterParty\n        );\n    }\n\n    function testGetAddressFromTx(bytes memory exitTx)\n        public\n        pure\n        returns (address signer, bytes32 txHash)\n    {\n        RLPReader.RLPItem[] memory txList = exitTx.toRlpItem().toList();\n        (signer, txHash) = getAddressFromTx(txList);\n    }\n\n    function decodeExitTx(bytes memory exitTx)\n        internal\n        pure\n        returns (ExitTxData memory txData)\n    {\n        (\n            txData.amount1,\n            txData.amount2,\n            txData.token1,\n            txData.token2,\n            txData.counterParty\n        ) = abi.decode(exitTx, (uint256, uint256, address, address, address));\n    }\n}\n",
  "sourcePath": "/Users/ohm.jirapon/playground/blockhain/pos/plasma-ploygon/contracts/contracts/test/MarketplacePredicateTest.sol",
  "compiler": {
    "name": "solc",
    "version": "0.5.17+commit.d19bba13.Linux.g++"
  },
  "schemaVersion": "3.4.7",
  "updatedAt": "2022-07-08T08:23:54.720Z",
  "devdoc": {
    "methods": {
      "startExit(bytes,bytes)": {
        "params": {
          "data": "RLP encoded array of input utxos data[n] ( 1 < n <= 3) is abi encoded as (predicateAddress, RLP encoded reference tx) data[n][1] is RLP encoded reference tx that encodes the following fields headerNumber Header block number of which the reference tx was a part of blockProof Proof that the block header (in the child chain) is a leaf in the submitted merkle root blockNumber Block number of which the reference tx is a part of blockTime Reference tx block time blocktxRoot Transactions root of block blockReceiptsRoot Receipts root of block receipt Receipt of the reference transaction receiptProof Merkle proof of the reference receipt branchMask Merkle proof branchMask for the receipt logIndex Log Index to read from the receipt data[2] is the child token that the user wishes to start an exit for",
          "exitTx": "Signed (marketplace.executeOrder) exit transaction"
        }
      },
      "verifyDeprecation(bytes,bytes,bytes)": {
        "params": {
          "challengeData": "RLP encoded data of the challenge reference tx that encodes the following fields headerNumber Header block number of which the reference tx was a part of blockProof Proof that the block header (in the child chain) is a leaf in the submitted merkle root blockNumber Block number of which the reference tx is a part of blockTime Reference tx block time blocktxRoot Transactions root of block blockReceiptsRoot Receipts root of block receipt Receipt of the reference transaction receiptProof Merkle proof of the reference receipt branchMask Merkle proof branchMask for the receipt logIndex Log Index to read from the receipt tx Challenge transaction txProof Merkle proof of the challenge tx",
          "exit": "ABI encoded PlasmaExit data",
          "inputUtxo": "ABI encoded Input UTXO data"
        },
        "return": "Whether or not the state is deprecated"
      }
    }
  },
  "userdoc": {
    "methods": {
      "startExit(bytes,bytes)": {
        "notice": "Start an exit from in-flight marketplace tx"
      },
      "verifyDeprecation(bytes,bytes,bytes)": {
        "notice": "Verify the deprecation of a state update"
      }
    }
  }
}