{
  "contractName": "Marketplace",
  "abi": [
    {
      "constant": false,
      "inputs": [
        {
          "internalType": "bytes",
          "name": "data1",
          "type": "bytes"
        },
        {
          "internalType": "bytes",
          "name": "data2",
          "type": "bytes"
        },
        {
          "internalType": "bytes32",
          "name": "orderId",
          "type": "bytes32"
        },
        {
          "internalType": "uint256",
          "name": "expiration",
          "type": "uint256"
        },
        {
          "internalType": "address",
          "name": "taker",
          "type": "address"
        }
      ],
      "name": "executeOrder",
      "outputs": [],
      "payable": false,
      "stateMutability": "nonpayable",
      "type": "function"
    }
  ],
  "bytecode": "0x608060405234801561001057600080fd5b50610617806100206000396000f3fe608060405234801561001057600080fd5b506004361061002b5760003560e01c8063e660b9e414610030575b600080fd5b610171600480360360a081101561004657600080fd5b81019060208101813564010000000081111561006157600080fd5b82018360208201111561007357600080fd5b8035906020019184600183028401116401000000008311171561009557600080fd5b91908080601f01602080910402602001604051908101604052809392919081815260200183838082843760009201919091525092959493602081019350359150506401000000008111156100e857600080fd5b8201836020820111156100fa57600080fd5b8035906020019184600183028401116401000000008311171561011c57600080fd5b91908080601f01602080910402602001604051908101604052809392919081815260200183838082843760009201919091525092955050823593505050602081013590604001356001600160a01b0316610173565b005b61017b6105b8565b610184866104c3565b905061018e6105b8565b610197866104c3565b9050600082600001516001600160a01b03166319d27d9c84602001518560400151898660000151876040015160405160200180848152602001836001600160a01b03166001600160a01b031660601b815260140182815260200193505050506040516020818303038152906040528051906020012089896040518663ffffffff1660e01b81526004018080602001868152602001858152602001848152602001836001600160a01b03166001600160a01b03168152602001828103825287818151815260200191508051906020019080838360005b8381101561028457818101518382015260200161026c565b50505050905090810190601f1680156102b15780820380516001836020036101000a031916815260200191505b509650505050505050602060405180830381600087803b1580156102d457600080fd5b505af11580156102e8573d6000803e3d6000fd5b505050506040513d60208110156102fe57600080fd5b5051825160208085015160408087015188518983015183518087018f905260609290921b6bffffffffffffffffffffffff1916828501526054808301919091528351808303909101815260748201938490528051908601206306749f6760e21b9093526098810182905260b8810183905260d881018c90526001600160a01b0380881660f883015260a0607883019081528551610118840152855198995060009891909716966319d27d9c969394938e938b938392610138909201918901908083838f5b838110156103da5781810151838201526020016103c2565b50505050905090810190601f1680156104075780820380516001836020036101000a031916815260200191505b509650505050505050602060405180830381600087803b15801561042a57600080fd5b505af115801561043e573d6000803e3d6000fd5b505050506040513d602081101561045457600080fd5b505190506001600160a01b03858116908216146104b8576040805162461bcd60e51b815260206004820152601c60248201527f4f726465727320617265206e6f7420636f6d706c696d656e7461727900000000604482015290519081900360640190fd5b505050505050505050565b6104cb6105b8565b8180602001905160608110156104e057600080fd5b81516020830180516040519294929383019291908464010000000082111561050757600080fd5b90830190602082018581111561051c57600080fd5b825164010000000081118282018810171561053657600080fd5b82525081516020918201929091019080838360005b8381101561056357818101518382015260200161054b565b50505050905090810190601f1680156105905780820380516001836020036101000a031916815260200191505b5060409081526020918201519087015285019290925250506001600160a01b03168152919050565b604051806060016040528060006001600160a01b031681526020016060815260200160008152509056fea265627a7a72315820ec567372c0fa8fe53ee65ae474e4562f064a22abb477e7c38cfbb231f65da00e64736f6c63430005110032",
  "source": "pragma solidity ^0.5.2;\n\ninterface MarketplaceToken {\n    function transferWithSig(\n        bytes calldata sig,\n        uint256 tokenIdOrAmount,\n        bytes32 data,\n        uint256 expiration,\n        address to\n    ) external returns (address);\n}\n\ncontract Marketplace {\n    struct Order {\n        address token;\n        bytes sig;\n        uint256 tokenIdOrAmount;\n    }\n\n    function executeOrder(\n        bytes memory data1,\n        bytes memory data2,\n        bytes32 orderId,\n        uint256 expiration,\n        address taker\n    ) public {\n        Order memory order1 = decode(data1);\n        Order memory order2 = decode(data2);\n\n        // Transferring order1.token tokens from tradeParticipant1 to address2\n        address tradeParticipant1 = MarketplaceToken(order1.token)\n            .transferWithSig(\n            order1.sig,\n            order1.tokenIdOrAmount,\n            keccak256(\n                abi.encodePacked(orderId, order2.token, order2.tokenIdOrAmount)\n            ),\n            expiration,\n            taker\n        );\n\n        // Transferring token2 from tradeParticipant2 to tradeParticipant1\n        address tradeParticipant2 = MarketplaceToken(order2.token)\n            .transferWithSig(\n            order2.sig,\n            order2.tokenIdOrAmount,\n            keccak256(\n                abi.encodePacked(orderId, order1.token, order1.tokenIdOrAmount)\n            ),\n            expiration,\n            tradeParticipant1\n        );\n        require(taker == tradeParticipant2, \"Orders are not complimentary\");\n    }\n\n    function decode(bytes memory data)\n        internal\n        pure\n        returns (Order memory order)\n    {\n        (order.token, order.sig, order.tokenIdOrAmount) = abi.decode(\n            data,\n            (address, bytes, uint256)\n        );\n    }\n}\n",
  "sourcePath": "/Users/ohm.jirapon/playground/blockhain/pos/plasma-ploygon/contracts/contracts/child/misc/Marketplace.sol",
  "compiler": {
    "name": "solc",
    "version": "0.5.17+commit.d19bba13.Linux.g++"
  },
  "schemaVersion": "3.4.7",
  "updatedAt": "2022-07-08T08:23:53.464Z",
  "devdoc": {
    "methods": {}
  },
  "userdoc": {
    "methods": {}
  }
}