{
  "contractName": "MarketplacePredicate",
  "abi": [
    {
      "constant": true,
      "inputs": [],
      "name": "registry",
      "outputs": [
        {
          "internalType": "contract Registry",
          "name": "",
          "type": "address"
        }
      ],
      "payable": false,
      "stateMutability": "view",
      "type": "function"
    },
    {
      "constant": false,
      "inputs": [
        {
          "internalType": "bytes",
          "name": "data",
          "type": "bytes"
        }
      ],
      "name": "onFinalizeExit",
      "outputs": [],
      "payable": false,
      "stateMutability": "nonpayable",
      "type": "function"
    },
    {
      "constant": true,
      "inputs": [],
      "name": "networkId",
      "outputs": [
        {
          "internalType": "bytes",
          "name": "",
          "type": "bytes"
        }
      ],
      "payable": false,
      "stateMutability": "view",
      "type": "function"
    },
    {
      "constant": true,
      "inputs": [],
      "name": "rootChain",
      "outputs": [
        {
          "internalType": "contract IRootChain",
          "name": "",
          "type": "address"
        }
      ],
      "payable": false,
      "stateMutability": "view",
      "type": "function"
    },
    {
      "constant": true,
      "inputs": [],
      "name": "CHAINID",
      "outputs": [
        {
          "internalType": "uint256",
          "name": "",
          "type": "uint256"
        }
      ],
      "payable": false,
      "stateMutability": "view",
      "type": "function"
    },
    {
      "inputs": [
        {
          "internalType": "address",
          "name": "_rootChain",
          "type": "address"
        },
        {
          "internalType": "address",
          "name": "_withdrawManager",
          "type": "address"
        },
        {
          "internalType": "address",
          "name": "_registry",
          "type": "address"
        }
      ],
      "payable": false,
      "stateMutability": "nonpayable",
      "type": "constructor"
    },
    {
      "constant": false,
      "inputs": [
        {
          "internalType": "bytes",
          "name": "data",
          "type": "bytes"
        },
        {
          "internalType": "bytes",
          "name": "exitTx",
          "type": "bytes"
        }
      ],
      "name": "startExit",
      "outputs": [],
      "payable": true,
      "stateMutability": "payable",
      "type": "function"
    },
    {
      "constant": true,
      "inputs": [
        {
          "internalType": "bytes",
          "name": "exit",
          "type": "bytes"
        },
        {
          "internalType": "bytes",
          "name": "inputUtxo",
          "type": "bytes"
        },
        {
          "internalType": "bytes",
          "name": "challengeData",
          "type": "bytes"
        }
      ],
      "name": "verifyDeprecation",
      "outputs": [
        {
          "internalType": "bool",
          "name": "",
          "type": "bool"
        }
      ],
      "payable": false,
      "stateMutability": "view",
      "type": "function"
    }
  ],
  "bytecode": "0x608060405234801561001057600080fd5b50604051612fd9380380612fd98339818101604052606081101561003357600080fd5b5080516020820151604090920151600080546001600160a01b03199081166001600160a01b03958616178255600380548216948616949094179093556002805490931693909116929092179055612f4990819061009090396000f3fe6080604052600436106100705760003560e01c80639025e64c1161004e5780639025e64c146101e1578063987ab9db1461026b578063cc79f97b14610280578063ec58410c146102a757610070565b806328b4b53d146100755780637b103999146101355780637bd94e0314610166575b600080fd5b6101336004803603604081101561008b57600080fd5b810190602081018135600160201b8111156100a557600080fd5b8201836020820111156100b757600080fd5b803590602001918460018302840111600160201b831117156100d857600080fd5b919390929091602081019035600160201b8111156100f557600080fd5b82018360208201111561010757600080fd5b803590602001918460018302840111600160201b8311171561012857600080fd5b5090925090506103d6565b005b34801561014157600080fd5b5061014a610e64565b604080516001600160a01b039092168252519081900360200190f35b34801561017257600080fd5b506101336004803603602081101561018957600080fd5b810190602081018135600160201b8111156101a357600080fd5b8201836020820111156101b557600080fd5b803590602001918460018302840111600160201b831117156101d657600080fd5b509092509050610e73565b3480156101ed57600080fd5b506101f6610f91565b6040805160208082528351818301528351919283929083019185019080838360005b83811015610230578181015183820152602001610218565b50505050905090810190601f16801561025d5780820380516001836020036101000a031916815260200191505b509250505060405180910390f35b34801561027757600080fd5b5061014a610fb0565b34801561028c57600080fd5b50610295610fbf565b60408051918252519081900360200190f35b3480156102b357600080fd5b506103c2600480360360608110156102ca57600080fd5b810190602081018135600160201b8111156102e457600080fd5b8201836020820111156102f657600080fd5b803590602001918460018302840111600160201b8311171561031757600080fd5b919390929091602081019035600160201b81111561033457600080fd5b82018360208201111561034657600080fd5b803590602001918460018302840111600160201b8311171561036757600080fd5b919390929091602081019035600160201b81111561038457600080fd5b82018360208201111561039657600080fd5b803590602001918460018302840111600160201b831117156103b757600080fd5b509092509050610fc6565b604080519115158252519081900360200190f35b67016345785d8a00003414610428576040805162461bcd60e51b8152602060048201526013602482015272125b9d985b1a5908109bdb9908185b5bdd5b9d606a1b604482015290519081900360640190fd5b606061047161046c86868080601f01602080910402602001604051908101604052809392919081815260200183838082843760009201919091525061135192505050565b611377565b9050600060606104948360008151811061048757fe5b6020026020010151611448565b80602001905160408110156104a857600080fd5b815160208301805160405192949293830192919084600160201b8211156104ce57600080fd5b9083019060208201858111156104e357600080fd5b8251600160201b8111828201881017156104fc57600080fd5b82525081516020918201929091019080838360005b83811015610529578181015183820152602001610511565b50505050905090810190601f1680156105565780820380516001836020036101000a031916815260200191505b5060408181526002546337b1d58560e01b83526001600160a01b0380891660048501529151979950959750909416946337b1d585946024808201955060209450919250829003018186803b1580156105ad57600080fd5b505afa1580156105c1573d6000803e3d6000fd5b505050506040513d60208110156105d757600080fd5b505160038111156105e457fe5b60ff16610630576040805162461bcd60e51b81526020600482015260156024820152744e6f7420612076616c69642070726564696361746560581b604482015290519081900360640190fd5b610638612bdc565b61067986868080601f0160208091040260200160405190810160405280939291908181526020018383808284376000920191909152503392506114ae915050565b9050600360009054906101000a90046001600160a01b03166001600160a01b031663b87e1b666040518163ffffffff1660e01b815260040160206040518083038186803b1580156106c957600080fd5b505afa1580156106dd573d6000803e3d6000fd5b505050506040513d60208110156106f357600080fd5b505160c0820151116107365760405162461bcd60e51b8152600401808060200182810382526049815260200180612e846049913960600191505060405180910390fd5b61073e612c18565b61074d848433600160006115e8565b604080820151908401518251855193945061076793611891565b6107778560018151811061048757fe5b806020019051604081101561078b57600080fd5b815160208301805160405192949293830192919084600160201b8211156107b157600080fd5b9083019060208201858111156107c657600080fd5b8251600160201b8111828201881017156107df57600080fd5b82525081516020918201929091019080838360005b8381101561080c5781810151838201526020016107f4565b50505050905090810190601f1680156108395780820380516001836020036101000a031916815260200191505b5060408181526002546337b1d58560e01b83526001600160a01b0380891660048501529151979b50959950909416946337b1d585946024808201955060209450919250829003018186803b15801561089057600080fd5b505afa1580156108a4573d6000803e3d6000fd5b505050506040513d60208110156108ba57600080fd5b505160038111156108c757fe5b60ff16610913576040805162461bcd60e51b81526020600482015260156024820152744e6f7420612076616c69642070726564696361746560581b604482015290519081900360640190fd5b61091b612c18565b61092e85858560800151600160006115e8565b905061094c8160400151846060015183600001518660200151611891565b600061096e8760018951038151811061096157fe5b60200260200101516119fd565b9050610978612c18565b875160041415610ae2576109928860038151811061048757fe5b80602001905160408110156109a657600080fd5b815160208301805160405192949293830192919084600160201b8211156109cc57600080fd5b9083019060208201858111156109e157600080fd5b8251600160201b8111828201881017156109fa57600080fd5b82525081516020918201929091019080838360005b83811015610a27578181015183820152602001610a0f565b50505050905090810190601f168015610a545780820380516001836020036101000a031916815260200191505b5060405250929950909750610a7291508890508733600160006115e8565b905080604001516001600160a01b031683604001516001600160a01b031614610ae2576040805162461bcd60e51b815260206004820152601860248201527f4368696c6420746f6b656e20646f65736e74206d617463680000000000000000604482015290519081900360640190fd5b610aea611a4b565b60006001610b0d610b0387602001518760200151611a8a565b8460200151611a8a565b901b905084604001516001600160a01b0316836001600160a01b03161415610bf3576000546060860151875187516001600160a01b039093169263d931a8699233928892610b609163ffffffff611aa516565b60a08c0151604080516001600160e01b031960e089901b1681526001600160a01b039687166004820152948616602486015292909416604484015260648301526084820192909252600060a4820181905260c48201869052915160e4808301939282900301818387803b158015610bd657600080fd5b505af1158015610bea573d6000803e3d6000fd5b50505050610cd4565b83604001516001600160a01b0316836001600160a01b03161415610cd4576000546060850151835160208901516001600160a01b039093169263d931a8699233928892610c459163ffffffff611aba16565b60a08c0151604080516001600160e01b031960e089901b1681526001600160a01b039687166004820152948616602486015292909416604484015260648301526084820192909252600060a4820181905260c48201869052915160e4808301939282900301818387803b158015610cbb57600080fd5b505af1158015610ccf573d6000803e3d6000fd5b505050505b6000805460208701516060880151604080516322f192af60e01b81526004810187905260248101939093523360448401526001600160a01b039182166064840152519216926322f192af9260848084019382900301818387803b158015610d3a57600080fd5b505af1158015610d4e573d6000803e3d6000fd5b505060008054602088015160808b015160608a0151604080516322f192af60e01b8152600481018a905260248101949094526001600160a01b039283166044850152908216606484015251921694506322f192af9350608480820193929182900301818387803b158015610dc157600080fd5b505af1158015610dd5573d6000803e3d6000fd5b5050600080546060860151604080516322f192af60e01b815260048101889052602481018590523360448201526001600160a01b03928316606482015290519190921694506322f192af93506084808301939282900301818387803b158015610e3d57600080fd5b505af1158015610e51573d6000803e3d6000fd5b5050505050505050505050505050505050565b6002546001600160a01b031681565b6000546001600160a01b03163314610eca576040805162461bcd60e51b815260206004820152601560248201527427a7262cafaba4aa24222920abafa6a0a720a3a2a960591b604482015290519081900360640190fd5b6000806000610f0e85858080601f016020809104026020016040519081016040528093929190818152602001838380828437600092019190915250611acc92505050565b600154604080516349f4cc1760e01b81526001600160a01b03808716600483015280861660248301526044820185905291519599509397509195501692506349f4cc1791606480830192600092919082900301818387803b158015610f7257600080fd5b505af1158015610f86573d6000803e3d6000fd5b505050505050505050565b6040518060400160405280600381526020016201752160e91b81525081565b6003546001600160a01b031681565b6202ea4281565b6000610fd0612c52565b61100f88888080601f016020809104026020016040519081016040528093929190818152602001838380828437600092019190915250611b0992505050565b90506000806000806110568a8a8080601f016020809104026020016040519081016040528093929190818152602001838380828437600092019190915250611acc92505050565b935093509350935060606110a261046c8a8a8080601f01602080910402602001604051908101604052809392919081815260200183838082843760009201919091525061135192505050565b90506110ac612bdc565b6110c56110bf83600a8151811061048757fe5b866114ae565b90506110cf612c18565b611115858c8c8080601f0160208091040260200160405190810160405280939291908181526020018383808284376000920191909152508b9250600191508190506115e8565b905060028054604080516337b1d58560e01b81526001600160a01b038981166004830152915191909216916337b1d585916024808301926020929190829003018186803b15801561116557600080fd5b505afa158015611179573d6000803e3d6000fd5b505050506040513d602081101561118f57600080fd5b5051600381111561119c57fe5b14156111ef57875181511480156111b4575087518251145b6111ef5760405162461bcd60e51b8152600401808060200182810382526048815260200180612ecd6048913960600191505060405180910390fd5b8160c001516112018260200151611b8d565b111561123e5760405162461bcd60e51b8152600401808060200182810382526036815260200180612e026036913960400191505060405180910390fd5b836001600160a01b031681604001516001600160a01b03161480156112785750836001600160a01b031682604001516001600160a01b0316145b6112b35760405162461bcd60e51b815260040180806020018281038252604c815260200180612e38604c913960600191505060405180910390fd5b87602001518260a0015114156112fa5760405162461bcd60e51b8152600401808060200182810382526021815260200180612d816021913960400191505060405180910390fd5b8681602001511161133c5760405162461bcd60e51b8152600401808060200182810382526056815260200180612d2b6056913960600191505060405180910390fd5b5060019e9d5050505050505050505050505050565b611359612c87565b5060408051808201909152815181526020828101908201525b919050565b606061138282611ba1565b61138b57600080fd5b600061139683611bdb565b90506060816040519080825280602002602001820160405280156113d457816020015b6113c1612c87565b8152602001906001900390816113b95790505b50905060006113e68560200151611c37565b60208601510190506000805b8481101561143d5761140383611c9a565b915060405180604001604052808381526020018481525084828151811061142657fe5b6020908102919091010152918101916001016113f2565b509195945050505050565b805160609061145657600080fd5b60008061146284611d33565b915091506060816040519080825280601f01601f191660200182016040528015611493576020820181803883390190505b509050602081016114a5848285611d59565b50949350505050565b6114b6612bdc565b60606114c461046c85611351565b90508051600914611514576040805162461bcd60e51b815260206004820152601560248201527409a82988c9ea49a8a88beae92a89088a482aebea8b605b1b604482015290519081900360640190fd5b60006115338260038151811061152657fe5b6020026020010151611daa565b9050600061153f612ca1565b6115576115528560058151811061048757fe5b611dc4565b90925090506001600160e01b031982166339982e7960e21b146115c1576040805162461bcd60e51b815260206004820152601c60248201527f4e6f7420657865637574654f72646572207472616e73616374696f6e00000000604482015290519081900360640190fd5b6115cc818488611e68565b94506115d78461243a565b60a087015250939695505050505050565b6115f0612c18565b6060866001600160a01b03166382e3464c878787876040516020018080602001856001600160a01b03166001600160a01b031681526020018415151515815260200183151515158152602001828103825286818151815260200191508051906020019080838360005b83811015611671578181015183820152602001611659565b50505050905090810190601f16801561169e5780820380516001836020036101000a031916815260200191505b50955050505050506040516020818303038152906040526040518263ffffffff1660e01b81526004018080602001828103825283818151815260200191508051906020019080838360005b838110156117015781810151838201526020016116e9565b50505050905090810190601f16801561172e5780820380516001836020036101000a031916815260200191505b509250505060006040518083038186803b15801561174b57600080fd5b505afa15801561175f573d6000803e3d6000fd5b505050506040513d6000823e601f3d908101601f19168201604052602081101561178857600080fd5b8101908080516040519392919084600160201b8211156117a757600080fd5b9083019060208201858111156117bc57600080fd5b8251600160201b8111828201881017156117d557600080fd5b82525081516020918201929091019080838360005b838110156118025781810151838201526020016117ea565b50505050905090810190601f16801561182f5780820380516001836020036101000a031916815260200191505b50604052505050905080806020019051608081101561184d57600080fd5b5080516020808301516040808501516060958601516001600160a01b0390811696890196909652949094169386019390935284019190915282525095945050505050565b826001600160a01b0316846001600160a01b0316146118f7576040805162461bcd60e51b815260206004820152601960248201527f4368696c6420746f6b656e7320646f206e6f74206d6174636800000000000000604482015290519081900360640190fd5b6002546040805163bbfe7cd360e01b81526001600160a01b0387811660048301529151919092169163bbfe7cd3916024808301926020929190829003018186803b15801561194457600080fd5b505afa158015611958573d6000803e3d6000fd5b505050506040513d602081101561196e57600080fd5b5051156119b8578082146119b35760405162461bcd60e51b8152600401808060200182810382526024815260200180612d076024913960400191505060405180910390fd5b6119f7565b808210156119f75760405162461bcd60e51b8152600401808060200182810382526028815260200180612da26028913960400191505060405180910390fd5b50505050565b805160009015801590611a1257508151602110155b611a1b57600080fd5b600080611a2784611d33565b815191935091506020821015611a435760208290036101000a90045b949350505050565b600080546040516001600160a01b03909116919067016345785d8a00009082818181858883f19350505050158015611a87573d6000803e3d6000fd5b50565b600081831015611a9a5781611a9c565b825b90505b92915050565b600082821115611ab457600080fd5b50900390565b600082820183811015611a9c57600080fd5b600080600080848060200190516080811015611ae757600080fd5b5080516020820151604083015160609093015191989097509195509350915050565b611b11612c52565b60008060008060008680602001905160a0811015611b2e57600080fd5b508051602080830151604080850151606080870151608097880151845160c081018652938452958301526001600160a01b03958616928201929092529390911690830152151591810191909152600060a0820152979650505050505050565b60201c6b7fffffffffffffffffffffff1690565b8051600090611bb257506000611372565b6020820151805160001a9060c0821015611bd157600092505050611372565b5060019392505050565b8051600090611bec57506000611372565b60008090506000611c008460200151611c37565b602085015185519181019250015b80821015611c2e57611c1f82611c9a565b60019093019290910190611c0e565b50909392505050565b8051600090811a6080811015611c51576000915050611372565b60b8811080611c6c575060c08110801590611c6c575060f881105b15611c7b576001915050611372565b60c0811015611c8f5760b519019050611372565b60f519019050611372565b80516000908190811a6080811015611cb55760019150611d2c565b60b8811015611cca57607e1981019150611d2c565b60c0811015611cf75760b78103600185019450806020036101000a85510460018201810193505050611d2c565b60f8811015611d0c5760be1981019150611d2c565b60f78103600185019450806020036101000a855104600182018101935050505b5092915050565b6000806000611d458460200151611c37565b602085015194519481019594039392505050565b80611d6357611da5565b5b60208110611d83578251825260209283019290910190601f1901611d64565b8015611da5578251825160208390036101000a60001901801990921691161782525b505050565b8051600090601514611dbb57600080fd5b611a9f826119fd565b6000611dce612ca1565b611de3611dde84600060046127ca565b612849565b9150611df0836044612850565b6040820152611e00836064612850565b6060820152611e10836084612850565b6001600160a01b031660808201526000611e2b8460a4612850565b9050611e398460c4836127ca565b825260c48101611e498582612850565b9150611e598582602001846127ca565b83602001819052505050915091565b611e70612bdc565b611e78612cdc565b8451611e839061286c565b9050611e8d612cdc565b611e9a866020015161286c565b82516040808501518982015184518386015184516020808201949094526bffffffffffffffffffffffff19606093841b16818701526054808201929092528551808203909201825260748101808752825192850192909220928e015163250e38bf60e01b9092526001600160a01b039687166078820152958c16609887015260b886019390935260d885015260f8840191909152905192935060009273__TransferWithSigUtils__________________9263250e38bf92610118808301939192829003018186803b158015611f6f57600080fd5b505af4158015611f83573d6000803e3d6000fd5b505050506040513d6020811015611f9957600080fd5b505160208481015160408051631df4cba560e21b8152600481018581526024820192835283516044830152835195965060009573__ECVerify______________________________956377d32e94958995909490926064909101918501908083838c5b83811015612014578181015183820152602001611ffc565b50505050905090810190601f1680156120415780820380516001836020036101000a031916815260200191505b50935050505060206040518083038186803b15801561205f57600080fd5b505af4158015612073573d6000803e3d6000fd5b505050506040513d602081101561208957600080fd5b8101908080519060200190929190505050905073__TransferWithSigUtils__________________63250e38bf84600001518986604001518c6040015189600001518a6040015160405160200180848152602001836001600160a01b03166001600160a01b031660601b81526014018281526020019350505050604051602081830303815290604052805190602001208d606001516040518663ffffffff1660e01b815260040180866001600160a01b03166001600160a01b03168152602001856001600160a01b03166001600160a01b031681526020018481526020018381526020018281526020019550505050505060206040518083038186803b15801561219257600080fd5b505af41580156121a6573d6000803e3d6000fd5b505050506040513d60208110156121bc57600080fd5b505160208481015160408051631df4cba560e21b8152600481018581526024820192835283516044830152835195975060009573__ECVerify______________________________956377d32e94958a95909490926064909101918501908083838c5b8381101561223757818101518382015260200161221f565b50505050905090810190601f1680156122645780820380516001836020036101000a031916815260200191505b50935050505060206040518083038186803b15801561228257600080fd5b505af4158015612296573d6000803e3d6000fd5b505050506040513d60208110156122ac57600080fd5b505160808a01519091506001600160a01b03808316911614612315576040805162461bcd60e51b815260206004820152601c60248201527f4f726465727320617265206e6f7420636f6d706c696d656e7461727900000000604482015290519081900360640190fd5b866001600160a01b0316826001600160a01b03161415612388576040805160e08101825286820151815285820151602082015295516001600160a01b039081169187019190915293518416606080870191909152931660808501525050600060a083015285015160c08201529050612433565b866001600160a01b0316816001600160a01b031614156123fc57506040805160e08101825284820151815285820151602082015293516001600160a01b0390811691850191909152935184166060808501919091529316608083015250600060a08201529085015160c08201529050612433565b60405162461bcd60e51b8152600401808060200182810382526038815260200180612dca6038913960400191505060405180910390fd5b9392505050565b60408051600980825261014082019092526000918291606091816020015b606081526020019060019003908161245857905050905060005b60058160ff16116124b15761248f858260ff168151811061048757fe5b828260ff168151811061249e57fe5b6020908102919091010152600101612472565b506040518060400160405280600381526020016201752160e91b815250816006815181106124db57fe5b6020026020010181905250604051806020016040528060008152508160078151811061250357fe5b6020026020010181905250604051806020016040528060008152508160088151811061252b57fe5b602002602001018190525061253f8161295f565b80519060200120915060018273__Common________________________________63b40b539b6125758860068151811061048757fe5b604080518082018252600381526201752160e91b602080830191825292516326b3515760e11b81526004810193845282516024820152825173__Common________________________________94634d66a2ae9493909283926044909101919080838360005b838110156125f35781810151838201526020016125db565b50505050905090810190601f1680156126205780820380516001836020036101000a031916815260200191505b509250505060206040518083038186803b15801561263d57600080fd5b505af4158015612651573d6000803e3d6000fd5b505050506040513d602081101561266757600080fd5b5051604080516001600160e01b031960e086901b16815261ffff8316602482015260048101918252835160448201528351829160640190602086019080838360005b838110156126c15781810151838201526020016126a9565b50505050905090810190601f1680156126ee5780820380516001836020036101000a031916815260200191505b50935050505060206040518083038186803b15801561270c57600080fd5b505af4158015612720573d6000803e3d6000fd5b505050506040513d602081101561273657600080fd5b5051865161274b908890600790811061096157fe5b60001b61275e8860088151811061096157fe5b60001b60405160008152602001604052604051808581526020018460ff1660ff1681526020018381526020018281526020019450505050506020604051602081039080840390855afa1580156127b8573d6000803e3d6000fd5b50505060206040510351925050915091565b6060818301845110156127dc57600080fd5b6060821580156127f7576040519150602082016040526114a5565b6040519150601f8416801560200281840101858101878315602002848b0101015b81831015612830578051835260209283019201612818565b5050858452601f01601f19166040525050949350505050565b6020015190565b6000816020018351101561286357600080fd5b50016020015190565b612874612cdc565b81806020019051606081101561288957600080fd5b815160208301805160405192949293830192919084600160201b8211156128af57600080fd5b9083019060208201858111156128c457600080fd5b8251600160201b8111828201881017156128dd57600080fd5b82525081516020918201929091019080838360005b8381101561290a5781810151838201526020016128f2565b50505050905090810190601f1680156129375780820380516001836020036101000a031916815260200191505b5060409081526020918201519087015285019290925250506001600160a01b03168152919050565b60608060005b835181101561299d576129938261298e86848151811061298157fe5b60200260200101516129b3565b612a17565b9150600101612965565b506124336129ad825160c0612a94565b82612a17565b606080825160011480156129db57506080836000815181106129d157fe5b016020015160f81c105b15612a06576040805160018082528183019092529060208201818038833950859350611a9f92505050565b611a9c612a1584516080612a94565b845b6060806040519050835180825260208201818101602087015b81831015612a48578051835260209283019201612a30565b50855184518101855292509050808201602086015b81831015612a75578051835260209283019201612a5d565b508651929092011591909101601f01601f191660405250905092915050565b60606038831015612af15760408051600180825281830190925260609160208201818038833901905050905082840160f81b81600081518110612ad357fe5b60200101906001600160f81b031916908160001a9053509050611a9f565b600060015b808581612aff57fe5b0415612b145760019091019061010002612af6565b6060612b24838660370101612b48565b90506060612b3187612b48565b9050612b3d8282612a17565b945050505050611a9f565b6060600160ff831115612b59575060025b806040519080825280601f01601f191660200182016040528015612b84576020820181803883390190505b50915060005b81811015612bd55780600183030360080260020a8481612ba657fe5b0460f81b838281518110612bb657fe5b60200101906001600160f81b031916908160001a905350600101612b8a565b5050919050565b6040805160e081018252600080825260208201819052918101829052606081018290526080810182905260a0810182905260c081019190915290565b6040518060800160405280600081526020016000815260200160006001600160a01b0316815260200160006001600160a01b031681525090565b6040805160c081018252600080825260208201819052918101829052606081018290526080810182905260a081019190915290565b604051806040016040528060008152602001600081525090565b6040518060a001604052806060815260200160608152602001600080191681526020016000815260200160006001600160a01b031681525090565b604051806060016040528060006001600160a01b031681526020016060815260200160008152509056fe53616d652065726337323120746f6b656e20776173206e6f74207265666572656e636564416765206f66206368616c6c656e6765206c6f6720696e207468652072656365697074206e6565647320746f206265206d6f726520726563656e74207468616e205574786f206265696e67206368616c6c656e67656443616e6e6f74206368616c6c656e6765207769746820746865206578697420747845786974696e672077697468206d6f726520746f6b656e73207468616e207265666572656e63656450726f766964656420747820646f65736e7420636f6e6365726e2074686520657869746f72202874726164655061727469636970616e7429546865206d61726b6574706c616365206f72646572207761732065787069726564207768656e2069742077617320696e636c756465644c6f675472616e73666572526563656970742c206368616c6c656e6765547820746f6b656e20616e64206368616c6c656e676564207574786f20746f6b656e20646f206e6f74206d6174636854686520696e666c696768742065786974206973206e6f742076616c69642c206265636175736520746865206d61726b6574706c616365206f726465722068617320657870697265644c6f675472616e73666572526563656970742c206368616c6c656e67655478204e465420616e64206368616c6c656e676564207574786f204e465420646f206e6f74206d61746368a265627a7a72315820f3946d5bf784ef55240c651f9ccd2b845bec82428f51937597c3322fdbf351b364736f6c634300050b0032",
  "source": "pragma solidity ^0.5.2;\n\nimport {BytesLib} from \"../../common/lib/BytesLib.sol\";\nimport {Common} from \"../../common/lib/Common.sol\";\nimport {ECVerify} from \"../../common/lib/ECVerify.sol\";\nimport {Math} from \"openzeppelin-solidity/contracts/math/Math.sol\";\nimport {RLPEncode} from \"../../common/lib/RLPEncode.sol\";\nimport {RLPReader} from \"solidity-rlp/contracts/RLPReader.sol\";\nimport {SafeMath} from \"openzeppelin-solidity/contracts/math/SafeMath.sol\";\n\nimport {IPredicate, PredicateUtils} from \"./IPredicate.sol\";\nimport {IRootChain} from \"../IRootChain.sol\";\nimport {IWithdrawManager} from \"../withdrawManager/IWithdrawManager.sol\";\nimport {Registry} from \"../../common/Registry.sol\";\nimport {TransferWithSigUtils} from \"./TransferWithSigUtils.sol\";\n\ncontract MarketplacePredicate is PredicateUtils {\n    using RLPReader for bytes;\n    using RLPReader for RLPReader.RLPItem;\n    using SafeMath for uint256;\n\n    // 0xe660b9e4 = keccak256('executeOrder(bytes,bytes,bytes32,uint256,address)').slice(0, 4)\n    bytes4 constant EXECUTE_ORDER_FUNC_SIG = 0xe660b9e4;\n\n    Registry public registry;\n    IRootChain public rootChain;\n\n    struct ExecuteOrderData {\n        bytes data1;\n        bytes data2;\n        bytes32 orderId;\n        uint256 expiration;\n        address taker;\n    }\n\n    struct Order {\n        address token;\n        bytes sig;\n        uint256 amount;\n    }\n\n    struct ExitTxData {\n        // token1 and amount1 correspond to what the utxoOwner (tradeParticipant) signed over\n        uint256 amount1;\n        uint256 amount2;\n        address token1;\n        address token2;\n        address counterParty;\n        bytes32 txHash;\n        uint256 expiration;\n    }\n\n    struct ReferenceTxData {\n        uint256 closingBalance;\n        uint256 age;\n        address childToken;\n        address rootToken;\n    }\n\n    constructor(address _rootChain, address _withdrawManager, address _registry)\n        public\n    {\n        withdrawManager = IWithdrawManager(_withdrawManager);\n        rootChain = IRootChain(_rootChain);\n        registry = Registry(_registry);\n    }\n\n    /**\n   * @notice Start an exit from in-flight marketplace tx\n   * @param data RLP encoded array of input utxos\n      * data[n] ( 1 < n <= 3) is abi encoded as (predicateAddress, RLP encoded reference tx)\n      * data[n][1] is RLP encoded reference tx that encodes the following fields\n        * headerNumber Header block number of which the reference tx was a part of\n        * blockProof Proof that the block header (in the child chain) is a leaf in the submitted merkle root\n        * blockNumber Block number of which the reference tx is a part of\n        * blockTime Reference tx block time\n        * blocktxRoot Transactions root of block\n        * blockReceiptsRoot Receipts root of block\n        * receipt Receipt of the reference transaction\n        * receiptProof Merkle proof of the reference receipt\n        * branchMask Merkle proof branchMask for the receipt\n        * logIndex Log Index to read from the receipt\n      * data[2] is the child token that the user wishes to start an exit for\n   * @param exitTx  Signed (marketplace.executeOrder) exit transaction\n   */\n    function startExit(bytes calldata data, bytes calldata exitTx)\n        external\n        payable\n        isBondProvided\n    {\n        RLPReader.RLPItem[] memory referenceTx = data.toRlpItem().toList();\n        (address predicate, bytes memory preState) = abi.decode(\n            referenceTx[0].toBytes(),\n            (address, bytes)\n        );\n        require(\n            uint8(registry.predicates(predicate)) != 0,\n            \"Not a valid predicate\"\n        );\n        ExitTxData memory exitTxData = processExitTx(exitTx, msg.sender);\n        require(\n            exitTxData.expiration > rootChain.getLastChildBlock(),\n            \"The inflight exit is not valid, because the marketplace order has expired\"\n        );\n\n        // process the first input, which is the proof-of-exitor's funds for token t1 which exitor transferred to counterparty as part of the marketplace tx\n        ReferenceTxData memory reference1 = processLogTransferReceipt(\n            predicate,\n            preState,\n            msg.sender,\n            true, /* verifyInclusionInCheckpoint */\n            false /* isChallenge */\n        );\n\n        validateTokenBalance(\n            reference1.childToken,\n            exitTxData.token1,\n            reference1.closingBalance,\n            exitTxData.amount1\n        );\n\n        // process the second input, which is the proof-of-counterparty's funds for token t2 which the counterparty transferred to exitor as part of the marketplace tx\n        (predicate, preState) = abi.decode(\n            referenceTx[1].toBytes(),\n            (address, bytes)\n        );\n        require(\n            uint8(registry.predicates(predicate)) != 0,\n            \"Not a valid predicate\"\n        );\n        ReferenceTxData memory reference2 = processLogTransferReceipt(\n            predicate,\n            preState,\n            exitTxData.counterParty,\n            true, /*verifyInclusionInCheckpoint*/\n            false /* isChallenge */\n        );\n        validateTokenBalance(\n            reference2.childToken,\n            exitTxData.token2,\n            reference2.closingBalance,\n            exitTxData.amount2\n        );\n\n        // The last element in referenceTx array refers to the child token being exited\n        address exitChildToken = address(\n            RLPReader.toUint(referenceTx[referenceTx.length - 1])\n        );\n        ReferenceTxData memory reference3;\n        // referenceTx.length == 4 means the exitor sent along another input UTXO for token t2\n        // This will be used to exit with the pre-existing balance for token t2 on the chain\n        // @todo This part is untested\n        if (referenceTx.length == 4) {\n            (predicate, preState) = abi.decode(\n                referenceTx[3].toBytes(),\n                (address, bytes)\n            );\n            reference3 = processLogTransferReceipt(\n                predicate,\n                preState,\n                msg.sender,\n                true, /* verifyInclusionInCheckpoint */\n                false /* isChallenge */\n            );\n            require(\n                reference2.childToken == reference3.childToken,\n                \"Child token doesnt match\"\n            );\n        }\n\n        sendBond(); // send BOND_AMOUNT to withdrawManager\n\n        // uint256 ageOfYoungestInput = ;\n        // exitId is the age of the youngest input + a reserved last bit\n        uint256 exitId = Math.max(\n            Math.max(reference1.age, reference2.age),\n            reference3.age\n        ) <<\n            1;\n        if (exitChildToken == reference1.childToken) {\n            withdrawManager.addExitToQueue(\n                msg.sender,\n                exitChildToken,\n                reference1.rootToken,\n                reference1.closingBalance.sub(exitTxData.amount1),\n                exitTxData.txHash,\n                false, /* isRegularExit */\n                exitId\n            );\n        } else if (exitChildToken == reference2.childToken) {\n            withdrawManager.addExitToQueue(\n                msg.sender,\n                exitChildToken,\n                reference2.rootToken,\n                exitTxData.amount2.add(reference3.closingBalance),\n                exitTxData.txHash,\n                false, /* isRegularExit */\n                exitId\n            );\n        }\n        // @todo Support batch\n        withdrawManager.addInput(\n            exitId,\n            reference1.age, /* age of input */\n            msg.sender, /* party whom this utxo belongs to */\n            reference1.rootToken\n        );\n        withdrawManager.addInput(\n            exitId,\n            reference2.age,\n            exitTxData.counterParty,\n            reference2.rootToken\n        );\n        // If exitor did not have pre=exiting balance on the chain for token t2\n        // In that case, the following input acts as a \"dummy\" input UTXO to challenge token t2 spends by the exitor\n        withdrawManager.addInput(exitId, 0, msg.sender, reference3.rootToken);\n    }\n\n    /**\n   * @notice Verify the deprecation of a state update\n   * @param exit ABI encoded PlasmaExit data\n   * @param inputUtxo ABI encoded Input UTXO data\n   * @param challengeData RLP encoded data of the challenge reference tx that encodes the following fields\n      * headerNumber Header block number of which the reference tx was a part of\n      * blockProof Proof that the block header (in the child chain) is a leaf in the submitted merkle root\n      * blockNumber Block number of which the reference tx is a part of\n      * blockTime Reference tx block time\n      * blocktxRoot Transactions root of block\n      * blockReceiptsRoot Receipts root of block\n      * receipt Receipt of the reference transaction\n      * receiptProof Merkle proof of the reference receipt\n      * branchMask Merkle proof branchMask for the receipt\n      * logIndex Log Index to read from the receipt\n      * tx Challenge transaction\n      * txProof Merkle proof of the challenge tx\n   * @return Whether or not the state is deprecated\n   */\n    function verifyDeprecation(\n        bytes calldata exit,\n        bytes calldata inputUtxo,\n        bytes calldata challengeData\n    ) external view returns (bool) {\n        PlasmaExit memory _exit = decodeExit(exit);\n        (uint256 age, address utxoOwner, address predicate, address childToken) = decodeInputUtxo(\n            inputUtxo\n        );\n\n        RLPReader.RLPItem[] memory _challengeData = challengeData\n            .toRlpItem()\n            .toList();\n        ExitTxData memory challengeTxData = processExitTx(\n            _challengeData[10].toBytes(),\n            utxoOwner\n        );\n\n        // receipt alone is not enough for a challenge. It is required to check that the challenge tx was included as well\n        // Challenge will be considered successful if a more recent LogTransfer event is found\n        // Interestingly, that will be determined by erc20/721 predicate\n        ReferenceTxData memory referenceTxData = processLogTransferReceipt(\n            predicate,\n            challengeData,\n            utxoOwner,\n            true, /* verifyInclusionInCheckpoint */\n            true /* isChallenge */\n        );\n\n        // this assertion is required only for erc721 because the spend should correspond to the same NFT\n        if (registry.predicates(predicate) == Registry.Type.ERC721) {\n            require(\n                referenceTxData.closingBalance == _exit.receiptAmountOrNFTId &&\n                    challengeTxData.amount1 == _exit.receiptAmountOrNFTId,\n                \"LogTransferReceipt, challengeTx NFT and challenged utxo NFT do not match\"\n            );\n        }\n        // assert transferWithSig was still valid when it was included in the child chain\n        require(\n            getChildBlockNumberFromAge(referenceTxData.age) <=\n                challengeTxData.expiration,\n            \"The marketplace order was expired when it was included\"\n        );\n        require(\n            referenceTxData.childToken == childToken &&\n                challengeTxData.token1 == childToken,\n            \"LogTransferReceipt, challengeTx token and challenged utxo token do not match\"\n        );\n        require(\n            challengeTxData.txHash != _exit.txHash,\n            \"Cannot challenge with the exit tx\"\n        );\n        require(\n            referenceTxData.age > age,\n            \"Age of challenge log in the receipt needs to be more recent than Utxo being challenged\"\n        );\n        return true;\n    }\n\n    function getChildBlockNumberFromAge(uint256 age)\n        internal\n        pure\n        returns (uint256)\n    {\n        // age is represented as (getExitableAt(createdAt) << 127) | (blockNumber << 32) | branchMask.toRlpItem().toUint();\n        return (age << 129) >> 161;\n    }\n\n    function validateTokenBalance(\n        address childToken,\n        address _childToken,\n        uint256 closingBalance,\n        uint256 amount\n    ) internal view {\n        require(childToken == _childToken, \"Child tokens do not match\");\n        if (registry.isChildTokenErc721(childToken)) {\n            require(\n                closingBalance == amount,\n                \"Same erc721 token was not referenced\"\n            );\n        } else {\n            require(\n                closingBalance >= amount,\n                \"Exiting with more tokens than referenced\"\n            );\n        }\n    }\n\n    function processLogTransferReceipt(\n        address predicate,\n        bytes memory preState,\n        address participant,\n        bool verifyInclusionInCheckpoint,\n        bool isChallenge\n    ) internal view returns (ReferenceTxData memory _referenceTx) {\n        bytes memory _preState = IPredicate(predicate).interpretStateUpdate(\n            abi.encode(\n                preState,\n                participant,\n                verifyInclusionInCheckpoint,\n                isChallenge\n            )\n        );\n        (\n            _referenceTx.closingBalance,\n            _referenceTx.age,\n            _referenceTx.childToken,\n            _referenceTx.rootToken\n        ) = abi.decode(_preState, (uint256, uint256, address, address));\n    }\n\n    function processExitTx(bytes memory exitTx, address tradeParticipant)\n        internal\n        pure\n        returns (ExitTxData memory txData)\n    {\n        RLPReader.RLPItem[] memory txList = exitTx.toRlpItem().toList();\n        require(txList.length == 9, \"MALFORMED_WITHDRAW_TX\");\n        address marketplaceContract = RLPReader.toAddress(txList[3]); // \"to\" field in tx\n        (bytes4 funcSig, ExecuteOrderData memory executeOrder) = decodeExecuteOrder(\n            RLPReader.toBytes(txList[5])\n        );\n        require(\n            funcSig == EXECUTE_ORDER_FUNC_SIG,\n            \"Not executeOrder transaction\"\n        );\n        txData = verifySignatures(\n            executeOrder,\n            marketplaceContract,\n            tradeParticipant\n        );\n        (, txData.txHash) = getAddressFromTx(txList);\n    }\n\n    function verifySignatures(\n        ExecuteOrderData memory executeOrder,\n        address marketplaceContract,\n        address tradeParticipant\n    ) internal pure returns (ExitTxData memory) {\n        Order memory order1 = decodeOrder(executeOrder.data1);\n        Order memory order2 = decodeOrder(executeOrder.data2);\n        bytes32 dataHash = TransferWithSigUtils.getTokenTransferOrderHash(\n            order1.token, // used to evaluate EIP712_DOMAIN_HASH\n            marketplaceContract, // spender\n            order1.amount,\n            keccak256(\n                abi.encodePacked(\n                    executeOrder.orderId,\n                    order2.token,\n                    order2.amount\n                )\n            ),\n            executeOrder.expiration\n        );\n        // Cannot check for deactivated sigs here on the root chain\n        address tradeParticipant1 = ECVerify.ecrecovery(dataHash, order1.sig);\n        dataHash = TransferWithSigUtils.getTokenTransferOrderHash(\n            order2.token, // used to evaluate EIP712_DOMAIN_HASH\n            marketplaceContract, // spender\n            order2.amount,\n            keccak256(\n                abi.encodePacked(\n                    executeOrder.orderId,\n                    order1.token,\n                    order1.amount\n                )\n            ),\n            executeOrder.expiration\n        );\n        // Cannot check for deactivated sigs here on the root chain\n        address tradeParticipant2 = ECVerify.ecrecovery(dataHash, order2.sig);\n        require(\n            executeOrder.taker == tradeParticipant2,\n            \"Orders are not complimentary\"\n        );\n        // token1 and amount1 in ExitTxData should correspond to what the tradeParticipant signed over (spent in the trade)\n        if (tradeParticipant1 == tradeParticipant) {\n            return\n                ExitTxData(\n                    order1.amount,\n                    order2.amount,\n                    order1.token,\n                    order2.token,\n                    tradeParticipant2,\n                    bytes32(0),\n                    executeOrder.expiration\n                );\n        } else if (tradeParticipant2 == tradeParticipant) {\n            return\n                ExitTxData(\n                    order2.amount,\n                    order1.amount,\n                    order2.token,\n                    order1.token,\n                    tradeParticipant1,\n                    bytes32(0),\n                    executeOrder.expiration\n                );\n        }\n        revert(\"Provided tx doesnt concern the exitor (tradeParticipant)\");\n    }\n\n    function decodeExecuteOrder(bytes memory orderData)\n        internal\n        pure\n        returns (bytes4 funcSig, ExecuteOrderData memory order)\n    {\n        funcSig = BytesLib.toBytes4(BytesLib.slice(orderData, 0, 4));\n        // 32 + 32 bytes of some (yet to figure out) offset\n        order.orderId = bytes32(BytesLib.toUint(orderData, 68));\n        order.expiration = BytesLib.toUint(orderData, 100);\n        order.taker = address(BytesLib.toUint(orderData, 132));\n        uint256 length = BytesLib.toUint(orderData, 164);\n        order.data1 = BytesLib.slice(orderData, 196, length);\n        uint256 offset = 196 + length;\n        length = BytesLib.toUint(orderData, offset);\n        order.data2 = BytesLib.slice(orderData, offset + 32, length);\n    }\n\n    function decodeOrder(bytes memory data)\n        internal\n        pure\n        returns (Order memory order)\n    {\n        (order.token, order.sig, order.amount) = abi.decode(\n            data,\n            (address, bytes, uint256)\n        );\n    }\n}\n",
  "sourcePath": "/Users/ohm.jirapon/playground/blockhain/pos/plasma-ploygon/contracts/contracts/root/predicates/MarketplacePredicate.sol",
  "compiler": {
    "name": "solc",
    "version": "0.5.11+commit.c082d0b4.Emscripten.clang"
  },
  "schemaVersion": "3.0.14",
  "updatedAt": "2022-06-14T12:06:33.611Z",
  "devdoc": {
    "methods": {
      "startExit(bytes,bytes)": {
        "params": {
          "data": "RLP encoded array of input utxos data[n] ( 1 < n <= 3) is abi encoded as (predicateAddress, RLP encoded reference tx) data[n][1] is RLP encoded reference tx that encodes the following fields headerNumber Header block number of which the reference tx was a part of blockProof Proof that the block header (in the child chain) is a leaf in the submitted merkle root blockNumber Block number of which the reference tx is a part of blockTime Reference tx block time blocktxRoot Transactions root of block blockReceiptsRoot Receipts root of block receipt Receipt of the reference transaction receiptProof Merkle proof of the reference receipt branchMask Merkle proof branchMask for the receipt logIndex Log Index to read from the receipt data[2] is the child token that the user wishes to start an exit for",
          "exitTx": "Signed (marketplace.executeOrder) exit transaction"
        }
      },
      "verifyDeprecation(bytes,bytes,bytes)": {
        "params": {
          "challengeData": "RLP encoded data of the challenge reference tx that encodes the following fields headerNumber Header block number of which the reference tx was a part of blockProof Proof that the block header (in the child chain) is a leaf in the submitted merkle root blockNumber Block number of which the reference tx is a part of blockTime Reference tx block time blocktxRoot Transactions root of block blockReceiptsRoot Receipts root of block receipt Receipt of the reference transaction receiptProof Merkle proof of the reference receipt branchMask Merkle proof branchMask for the receipt logIndex Log Index to read from the receipt tx Challenge transaction txProof Merkle proof of the challenge tx",
          "exit": "ABI encoded PlasmaExit data",
          "inputUtxo": "ABI encoded Input UTXO data"
        },
        "return": "Whether or not the state is deprecated"
      }
    }
  },
  "userdoc": {
    "methods": {
      "startExit(bytes,bytes)": {
        "notice": "Start an exit from in-flight marketplace tx"
      },
      "verifyDeprecation(bytes,bytes,bytes)": {
        "notice": "Verify the deprecation of a state update"
      }
    }
  }
}