{
  "contractName": "MintableERC721Predicate",
  "abi": [
    {
      "inputs": [
        {
          "internalType": "address",
          "name": "_withdrawManager",
          "type": "address"
        },
        {
          "internalType": "address",
          "name": "_depositManager",
          "type": "address"
        }
      ],
      "payable": false,
      "stateMutability": "nonpayable",
      "type": "constructor"
    },
    {
      "constant": true,
      "inputs": [],
      "name": "CHAINID",
      "outputs": [
        {
          "internalType": "uint256",
          "name": "",
          "type": "uint256"
        }
      ],
      "payable": false,
      "stateMutability": "view",
      "type": "function"
    },
    {
      "constant": true,
      "inputs": [
        {
          "internalType": "uint256",
          "name": "",
          "type": "uint256"
        }
      ],
      "name": "exitToMintableTokenInfo",
      "outputs": [
        {
          "internalType": "string",
          "name": "uri",
          "type": "string"
        },
        {
          "internalType": "address",
          "name": "minter",
          "type": "address"
        },
        {
          "internalType": "bool",
          "name": "isVanillaMint",
          "type": "bool"
        }
      ],
      "payable": false,
      "stateMutability": "view",
      "type": "function"
    },
    {
      "constant": true,
      "inputs": [
        {
          "internalType": "bytes",
          "name": "state",
          "type": "bytes"
        }
      ],
      "name": "interpretStateUpdate",
      "outputs": [
        {
          "internalType": "bytes",
          "name": "b",
          "type": "bytes"
        }
      ],
      "payable": false,
      "stateMutability": "view",
      "type": "function"
    },
    {
      "constant": true,
      "inputs": [],
      "name": "networkId",
      "outputs": [
        {
          "internalType": "bytes",
          "name": "",
          "type": "bytes"
        }
      ],
      "payable": false,
      "stateMutability": "view",
      "type": "function"
    },
    {
      "constant": false,
      "inputs": [
        {
          "internalType": "bytes",
          "name": "data",
          "type": "bytes"
        },
        {
          "internalType": "bytes",
          "name": "exitTx",
          "type": "bytes"
        }
      ],
      "name": "startExit",
      "outputs": [
        {
          "internalType": "bytes",
          "name": "",
          "type": "bytes"
        }
      ],
      "payable": true,
      "stateMutability": "payable",
      "type": "function"
    },
    {
      "constant": false,
      "inputs": [
        {
          "internalType": "bytes",
          "name": "data",
          "type": "bytes"
        }
      ],
      "name": "startExitWithBurntTokens",
      "outputs": [
        {
          "internalType": "bytes",
          "name": "",
          "type": "bytes"
        }
      ],
      "payable": false,
      "stateMutability": "nonpayable",
      "type": "function"
    },
    {
      "constant": false,
      "inputs": [
        {
          "internalType": "bytes",
          "name": "exit",
          "type": "bytes"
        },
        {
          "internalType": "bytes",
          "name": "inputUtxo",
          "type": "bytes"
        },
        {
          "internalType": "bytes",
          "name": "challengeData",
          "type": "bytes"
        }
      ],
      "name": "verifyDeprecation",
      "outputs": [
        {
          "internalType": "bool",
          "name": "",
          "type": "bool"
        }
      ],
      "payable": false,
      "stateMutability": "nonpayable",
      "type": "function"
    },
    {
      "constant": false,
      "inputs": [
        {
          "internalType": "bytes",
          "name": "data",
          "type": "bytes"
        },
        {
          "internalType": "bytes",
          "name": "mintTx",
          "type": "bytes"
        }
      ],
      "name": "startExitForMintableBurntToken",
      "outputs": [],
      "payable": false,
      "stateMutability": "nonpayable",
      "type": "function"
    },
    {
      "constant": false,
      "inputs": [
        {
          "internalType": "bytes",
          "name": "data",
          "type": "bytes"
        },
        {
          "internalType": "bytes",
          "name": "mintTx",
          "type": "bytes"
        },
        {
          "internalType": "bytes",
          "name": "exitTx",
          "type": "bytes"
        }
      ],
      "name": "startExitForMintableToken",
      "outputs": [],
      "payable": true,
      "stateMutability": "payable",
      "type": "function"
    },
    {
      "constant": false,
      "inputs": [
        {
          "internalType": "bytes",
          "name": "data",
          "type": "bytes"
        },
        {
          "internalType": "bytes",
          "name": "mintTx",
          "type": "bytes"
        }
      ],
      "name": "startExitForMetadataMintableBurntToken",
      "outputs": [],
      "payable": false,
      "stateMutability": "nonpayable",
      "type": "function"
    },
    {
      "constant": false,
      "inputs": [
        {
          "internalType": "bytes",
          "name": "data",
          "type": "bytes"
        },
        {
          "internalType": "bytes",
          "name": "mintTx",
          "type": "bytes"
        },
        {
          "internalType": "bytes",
          "name": "exitTx",
          "type": "bytes"
        }
      ],
      "name": "startExitForMetadataMintableToken",
      "outputs": [],
      "payable": true,
      "stateMutability": "payable",
      "type": "function"
    },
    {
      "constant": false,
      "inputs": [
        {
          "internalType": "bytes",
          "name": "data",
          "type": "bytes"
        }
      ],
      "name": "onFinalizeExit",
      "outputs": [],
      "payable": false,
      "stateMutability": "nonpayable",
      "type": "function"
    }
  ],
  "bytecode": "0x608060405234801561001057600080fd5b5060405161415b38038061415b8339818101604052604081101561003357600080fd5b508051602090910151600080546001600160a01b039384166001600160a01b031991821617909155600180549390921692169190911790556140e18061007a6000396000f3fe6080604052600436106100a75760003560e01c80639025e64c116100645780639025e64c146105845780639087ea4c14610599578063983134b9146106a7578063b0199891146107b5578063cc79f97b14610880578063ec58410c146108a7576100a7565b8063026c521d146100ac57806328b4b53d146101725780637bd94e03146103105780637c5264b41461038d57806382e3464c1461043e57806384be6fc8146104b9575b600080fd5b3480156100b857600080fd5b506100d6600480360360208110156100cf57600080fd5b50356109d6565b6040518080602001846001600160a01b03166001600160a01b0316815260200183151515158152602001828103825285818151815260200191508051906020019080838360005b8381101561013557818101518382015260200161011d565b50505050905090810190601f1680156101625780820380516001836020036101000a031916815260200191505b5094505050505060405180910390f35b61029b6004803603604081101561018857600080fd5b810190602081018135600160201b8111156101a257600080fd5b8201836020820111156101b457600080fd5b803590602001918460018302840111600160201b831117156101d557600080fd5b91908080601f0160208091040260200160405190810160405280939291908181526020018383808284376000920191909152509295949360208101935035915050600160201b81111561022757600080fd5b82018360208201111561023957600080fd5b803590602001918460018302840111600160201b8311171561025a57600080fd5b91908080601f016020809104026020016040519081016040528093929190818152602001838380828437600092019190915250929550610a8d945050505050565b6040805160208082528351818301528351919283929083019185019080838360005b838110156102d55781810151838201526020016102bd565b50505050905090810190601f1680156103025780820380516001836020036101000a031916815260200191505b509250505060405180910390f35b34801561031c57600080fd5b5061038b6004803603602081101561033357600080fd5b810190602081018135600160201b81111561034d57600080fd5b82018360208201111561035f57600080fd5b803590602001918460018302840111600160201b8311171561038057600080fd5b509092509050610ead565b005b34801561039957600080fd5b5061029b600480360360208110156103b057600080fd5b810190602081018135600160201b8111156103ca57600080fd5b8201836020820111156103dc57600080fd5b803590602001918460018302840111600160201b831117156103fd57600080fd5b91908080601f01602080910402602001604051908101604052809392919081815260200183838082843760009201919091525092955061123b945050505050565b34801561044a57600080fd5b5061029b6004803603602081101561046157600080fd5b810190602081018135600160201b81111561047b57600080fd5b82018360208201111561048d57600080fd5b803590602001918460018302840111600160201b831117156104ae57600080fd5b50909250905061162e565b3480156104c557600080fd5b5061038b600480360360408110156104dc57600080fd5b810190602081018135600160201b8111156104f657600080fd5b82018360208201111561050857600080fd5b803590602001918460018302840111600160201b8311171561052957600080fd5b919390929091602081019035600160201b81111561054657600080fd5b82018360208201111561055857600080fd5b803590602001918460018302840111600160201b8311171561057957600080fd5b50909250905061198c565b34801561059057600080fd5b5061029b611a46565b61038b600480360360608110156105af57600080fd5b810190602081018135600160201b8111156105c957600080fd5b8201836020820111156105db57600080fd5b803590602001918460018302840111600160201b831117156105fc57600080fd5b919390929091602081019035600160201b81111561061957600080fd5b82018360208201111561062b57600080fd5b803590602001918460018302840111600160201b8311171561064c57600080fd5b919390929091602081019035600160201b81111561066957600080fd5b82018360208201111561067b57600080fd5b803590602001918460018302840111600160201b8311171561069c57600080fd5b509092509050611a65565b61038b600480360360608110156106bd57600080fd5b810190602081018135600160201b8111156106d757600080fd5b8201836020820111156106e957600080fd5b803590602001918460018302840111600160201b8311171561070a57600080fd5b919390929091602081019035600160201b81111561072757600080fd5b82018360208201111561073957600080fd5b803590602001918460018302840111600160201b8311171561075a57600080fd5b919390929091602081019035600160201b81111561077757600080fd5b82018360208201111561078957600080fd5b803590602001918460018302840111600160201b831117156107aa57600080fd5b509092509050611b5f565b3480156107c157600080fd5b5061038b600480360360408110156107d857600080fd5b810190602081018135600160201b8111156107f257600080fd5b82018360208201111561080457600080fd5b803590602001918460018302840111600160201b8311171561082557600080fd5b919390929091602081019035600160201b81111561084257600080fd5b82018360208201111561085457600080fd5b803590602001918460018302840111600160201b8311171561087557600080fd5b509092509050611c4d565b34801561088c57600080fd5b50610895611d07565b60408051918252519081900360200190f35b3480156108b357600080fd5b506109c2600480360360608110156108ca57600080fd5b810190602081018135600160201b8111156108e457600080fd5b8201836020820111156108f657600080fd5b803590602001918460018302840111600160201b8311171561091757600080fd5b919390929091602081019035600160201b81111561093457600080fd5b82018360208201111561094657600080fd5b803590602001918460018302840111600160201b8311171561096757600080fd5b919390929091602081019035600160201b81111561098457600080fd5b82018360208201111561099657600080fd5b803590602001918460018302840111600160201b831117156109b757600080fd5b509092509050611d0e565b604080519115158252519081900360200190f35b600260208181526000928352604092839020805484516001821615610100026000190190911693909304601f8101839004830284018301909452838352928391830182828015610a675780601f10610a3c57610100808354040283529160200191610a67565b820191906000526020600020905b815481529060010190602001808311610a4a57829003601f168201915b505050600190930154919250506001600160a01b0381169060ff600160a01b9091041683565b606067016345785d8a00003414610ae1576040805162461bcd60e51b8152602060048201526013602482015272125b9d985b1a5908109bdb9908185b5bdd5b9d606a1b604482015290519081900360640190fd5b6060610af4610aef85612052565b612077565b9050610afe613a58565b610b0784612148565b9050600080610b5c610b2c85600681518110610b1f57fe5b6020026020010151612259565b610b4986600981518110610b3c57fe5b60200260200101516122bf565b606086015160408701518751600061230d565b91509150610b686124a3565b6000610ca882610c9c610b92600a610b868a600981518110610b3c57fe5b9063ffffffff6124e216565b6000809054906101000a90046001600160a01b03166001600160a01b031663ad1d80698d6000806040518463ffffffff1660e01b815260040180806020018460ff16815260200183151515158152602001828103825285818151815260200191508051906020019080838360005b83811015610c18578181015183820152602001610c00565b50505050905090810190601f168015610c455780820380516001836020036101000a031916815260200191505b5094505050505060206040518083038186803b158015610c6457600080fd5b505afa158015610c78573d6000803e3d6000fd5b505050506040513d6020811015610c8e57600080fd5b50519063ffffffff61251016565b9063ffffffff61251016565b60008054604080880151885160208a0151835163d931a86960e01b81523360048201526001600160a01b0393841660248201528a841660448201526064810192909252608482015260a48101859052600186901b60c482018190529251959650919492169263d931a8699260e48084019382900301818387803b158015610d2e57600080fd5b505af1158015610d42573d6000803e3d6000fd5b5050600080546060890151604080516322f192af60e01b815260048101889052602481018990526001600160a01b0392831660448201528a8316606482015290519190921694506322f192af93506084808301939282900301818387803b158015610dac57600080fd5b505af1158015610dc0573d6000803e3d6000fd5b50506000546001600160a01b031691506322f192af905082610de985600163ffffffff61252216565b604080516001600160e01b031960e086901b168152600481019390935260248301919091523360448301526001600160a01b038816606483015251608480830192600092919082900301818387803b158015610e4457600080fd5b505af1158015610e58573d6000803e3d6000fd5b5050865160409788015188516001600160a01b039889166020820152808a019290925296909616606087015250506080808501919091528451808503909101815260a090930190935250925050505b92915050565b6000546001600160a01b03163314610f04576040805162461bcd60e51b815260206004820152601560248201527427a7262cafaba4aa24222920abafa6a0a720a3a2a960591b604482015290519081900360640190fd5b600080600080610f4986868080601f01602080910402602001604051908101604052809392919081815260200183838082843760009201919091525061253792505050565b600084815260026020908152604091829020600181015483516355138f0d60e11b81526001600160a01b0391821660048201529351979b5095995093975091955091939287169263aa271e1a926024808201939291829003018186803b158015610fb257600080fd5b505afa158015610fc6573d6000803e3d6000fd5b505050506040513d6020811015610fdc57600080fd5b50516110195760405162461bcd60e51b8152600401808060200182810382526047815260200180613f4a6047913960600191505060405180910390fd5b6001810154600160a01b900460ff16156110f757604080516340c10f1960e01b81526001600160a01b03858116600483015260248201859052915186928316916340c10f199160448083019260209291908290030181600087803b15801561108057600080fd5b505af1158015611094573d6000803e3d6000fd5b505050506040513d60208110156110aa57600080fd5b50516110f1576040805162461bcd60e51b81526020600482015260116024820152701513d2d15397d352539517d19052531151607a1b604482015290519081900360640190fd5b50611232565b6040516350bb4e7f60e01b81526001600160a01b038481166004830190815260248301859052606060448401908152845460026000196101006001841615020190911604606485018190528894938516936350bb4e7f9389938993899360840190849080156111a75780601f1061117c576101008083540402835291602001916111a7565b820191906000526020600020905b81548152906001019060200180831161118a57829003601f168201915b5050945050505050602060405180830381600087803b1580156111c957600080fd5b505af11580156111dd573d6000803e3d6000fd5b505050506040513d60208110156111f357600080fd5b50516112305760405162461bcd60e51b8152600401808060200182810382526039815260200180613cca6039913960400191505060405180910390fd5b505b50505050505050565b60608061124a610aef84612052565b9050606061125e82600681518110610b1f57fe5b9050606061126e610aef83612052565b6000805460405163ad1d806960e01b8152602481018390526044810183905260606004820190815289516064830152895194955092936001600160a01b039092169263ad1d8069928a9286928392909182916084909101906020870190808383885b838110156112e85781810151838201526020016112d0565b50505050905090810190601f1680156113155780820380516001836020036101000a031916815260200191505b5094505050505060206040518083038186803b15801561133457600080fd5b505afa158015611348573d6000803e3d6000fd5b505050506040513d602081101561135e57600080fd5b505184519091506000906113799086906009908110610b3c57fe5b9050600a81106113d0576040805162461bcd60e51b815260206004820152601b60248201527f537570706f7274696e672061206d6178206f66203130206c6f67730000000000604482015290519081900360640190fd5b6113fb6113f0846003815181106113e357fe5b6020026020010151612077565b82815181106113e357fe5b9250600061141c8460008151811061140f57fe5b6020026020010151612574565b9050606061143085600281518110610b1f57fe5b9050611442856001815181106113e357fe5b94507f9b1bfa7fa9ee420a16e124f794c35ac9f90472acc99140eb2f6447c714cad8eb60001b61147886600081518110610b3c57fe5b146114ca576040805162461bcd60e51b815260206004820152601e60248201527f4e6f742061207769746864726177206576656e74207369676e61747572650000604482015290519081900360640190fd5b60006114dc86600181518110610b3c57fe5b90506114ee86600281518110610b3c57fe5b6001600160a01b0316336001600160a01b03161461153d5760405162461bcd60e51b8152600401808060200182810382526028815260200180613d036028913960400191505060405180910390fd5b600061154a83600061258e565b600080546040805163d931a86960e01b81523360048201526001600160a01b03898116602483015287811660448301526064820186905260848201859052600160a483018190528c901b60c4830181905292519596509194919092169263d931a8699260e4808201939182900301818387803b1580156115c957600080fd5b505af11580156115dd573d6000803e3d6000fd5b5050604080516001600160a01b03968716602082015280820195909552949096166060840152506080808301919091528251808303909101815260a09091019091529750505050505050505b919050565b60608060008060008686608081101561164657600080fd5b810190602081018135600160201b81111561166057600080fd5b82018360208201111561167257600080fd5b803590602001918460018302840111600160201b8311171561169357600080fd5b91908080601f016020809104026020016040519081016040528093929190818152602001838380828437600092019190915250929950506001600160a01b03833516975050506020810135151594506040013515159250606091506116fc9050610aef86612052565b9050606061171082600681518110610b1f57fe5b9050600061172483600981518110610b3c57fe5b9050600a811061177b576040805162461bcd60e51b815260206004820152601b60248201527f537570706f7274696e672061206d6178206f66203130206c6f67730000000000604482015290519081900360640190fd5b6060611789610aef84612052565b90506117a961179e826003815181106113e357fe5b83815181106113e357fe5b90506117b3613a84565b6117c38260008151811061140f57fe5b6001600160a01b0316604082015281516060906117e79084906002908110610b1f57fe5b90506117f9836001815181106113e357fe5b925061180b83600181518110610b3c57fe5b6001600160a01b0316606083015261182481600061258e565b8252861561183b57611836838a6125aa565b61184b565b611845838a6126aa565b60208301525b61187061185f85600a63ffffffff6124e216565b60208401519063ffffffff61251016565b6020830152871561190e5761190882602001516000809054906101000a90046001600160a01b03166001600160a01b031663ad1d80698d6000806040518463ffffffff1660e01b815260040180806020018460ff168152602001831515151581526020018281038252858181518152602001915080519060200190808383600083811015610c18578181015183820152602001610c00565b60208301525b816000015182602001518360400151846060015160405160200180858152602001848152602001836001600160a01b03166001600160a01b03168152602001826001600160a01b03166001600160a01b031681526020019450505050506040516020818303038152906040529a505050505050505050505092915050565b6000806000806119d188888080601f01602080910402602001604051908101604052809392919081815260200183838082843760009201919091525061123b92505050565b80602001905160808110156119e557600080fd5b5080516020808301516040808501516060909501518151601f8c018590048502810185019092528a825293985090965092945090925061123091908890889081908401838280828437600092019190915250889250879150869050856127e8565b6040518060400160405280600381526020016201752160e91b81525081565b600080600080611ade8a8a8080601f01602080910402602001604051908101604052809392919081815260200183838082843760009201919091525050604080516020601f8c018190048102820181019092528a815292508a9150899081908401838280828437600092019190915250610a8d92505050565b8060200190516080811015611af257600080fd5b5080516020808301516040808501516060909501518151601f8e018590048502810185019092528c8252939850909650929450909250611b5391908a908a9081908401838280828437600092019190915250889250879150869050856129cc565b50505050505050505050565b600080600080611bd88a8a8080601f01602080910402602001604051908101604052809392919081815260200183838082843760009201919091525050604080516020601f8c018190048102820181019092528a815292508a9150899081908401838280828437600092019190915250610a8d92505050565b8060200190516080811015611bec57600080fd5b5080516020808301516040808501516060909501518151601f8e018590048502810185019092528c8252939850909650929450909250611b5391908a908a9081908401838280828437600092019190915250889250879150869050856127e8565b600080600080611c9288888080601f01602080910402602001604051908101604052809392919081815260200183838082843760009201919091525061123b92505050565b8060200190516080811015611ca657600080fd5b5080516020808301516040808501516060909501518151601f8c018590048502810185019092528a825293985090965092945090925061123091908890889081908401838280828437600092019190915250889250879150869050856129cc565b6202ea4281565b6000611d18613abe565b611d5788888080601f016020809104026020016040519081016040528093929190818152602001838380828437600092019190915250612bbc92505050565b9050600080611d9b88888080601f01602080910402602001604051908101604052809392919081815260200183838082843760009201919091525061253792505050565b5050915091506060611de5610aef88888080601f01602080910402602001604051908101604052809392919081815260200183838082843760009201919091525061205292505050565b9050611def613a58565b611e07611e0283600a81518110610b1f57fe5b612c40565b9050826001600160a01b031681606001516001600160a01b031614611e5d5760405162461bcd60e51b815260040180806020018281038252604a815260200180613bf9604a913960600191505060405180910390fd5b80604001516001600160a01b031685606001516001600160a01b031614611eb55760405162461bcd60e51b815260040180806020018281038252602f815260200180613bca602f913960400191505060405180910390fd5b806020015185602001511415611efc5760405162461bcd60e51b8152600401808060200182810382526021815260200180613c7c6021913960400191505060405180910390fd5b8051855114611f4a576040805162461bcd60e51b81526020600482015260156024820152740e8ded6cadc92c840c8decae6dc4ee840dac2e8c6d605b1b604482015290519081900360640190fd5b6000805460405163ad1d806960e01b815260248101839052600160448201819052606060048301908152606483018c90526001600160a01b039093169263ad1d8069928d928d9287928190608401868680828437600081840152601f19601f8201169050808301925050509550505050505060206040518083038186803b158015611fd457600080fd5b505afa158015611fe8573d6000803e3d6000fd5b505050506040513d6020811015611ffe57600080fd5b5051835190915061203d9061201a9085906006908110610b1f57fe5b61202a85600981518110610b3c57fe5b606085015160408601518651600161230d565b5050939093119b9a5050505050505050505050565b61205a613af3565b506040805180820190915281518152602082810190820152919050565b606061208282612d00565b61208b57600080fd5b600061209683612d3a565b90506060816040519080825280602002602001820160405280156120d457816020015b6120c1613af3565b8152602001906001900390816120b95790505b50905060006120e68560200151612d96565b60208601510190506000805b8481101561213d5761210383612df9565b915060405180604001604052808381526020018481525084828151811061212657fe5b6020908102919091010152918101916001016120f2565b509195945050505050565b612150613a58565b606061215e610aef84612052565b905080516009146121ae576040805162461bcd60e51b815260206004820152601560248201527409a82988c9ea49a8a88beae92a89088a482aebea8b605b1b604482015290519081900360640190fd5b6121be8160038151811061140f57fe5b6001600160a01b031660408301526121d581612e92565b60208401526001600160a01b0316606083018190523314156122315761220961220482600581518110610b1f57fe5b613222565b836080810182600381111561221a57fe5b600381111561222557fe5b90529190915250612253565b61224961224482600581518110610b1f57fe5b613375565b8252600260808301525b50919050565b805160609061226757600080fd5b60008061227384613482565b915091506060816040519080825280601f01601f1916602001820160405280156122a4576020820181803883390190505b509050602081016122b68482856134a8565b50949350505050565b8051600090158015906122d457508151602110155b6122dd57600080fd5b6000806122e984613482565b8151919350915060208210156123055760208290036101000a90045b949350505050565b600080600a8710612365576040805162461bcd60e51b815260206004820152601b60248201527f537570706f7274696e672061206d6178206f66203130206c6f67730000000000604482015290519081900360640190fd5b6060612373610aef8a612052565b9050612393612388826003815181106113e357fe5b89815181106113e357fe5b90506123a58160008151811061140f57fe5b6001600160a01b0316866001600160a01b0316146123f45760405162461bcd60e51b8152600401808060200182810382526039815260200180613c436039913960400191505060405180910390fd5b606061240682600281518110610b1f57fe5b9050612418826001815181106113e357fe5b915061242a82600181518110610b3c57fe5b935084156124415761243c82896125aa565b61244e565b61244b82896126aa565b92505b61245981600061258e565b86146124965760405162461bcd60e51b815260040180806020018281038252602a815260200180613e0c602a913960400191505060405180910390fd5b5050965096945050505050565b600080546040516001600160a01b03909116919067016345785d8a00009082818181858883f193505050501580156124df573d6000803e3d6000fd5b50565b6000826124f157506000610ea7565b828202828482816124fe57fe5b041461250957600080fd5b9392505050565b60008282018381101561250957600080fd5b60008282111561253157600080fd5b50900390565b60008060008084806020019051608081101561255257600080fd5b5080516020820151604083015160609093015191989097509195509350915050565b805160009060151461258557600080fd5b610ea7826122bf565b600081602001835110156125a157600080fd5b50016020015190565b60006125bc83600081518110610b3c57fe5b90507f9b1bfa7fa9ee420a16e124f794c35ac9f90472acc99140eb2f6447c714cad8eb81148061260b57507f6eabe333476233fd382224f233210cb808a7bc4c4de64f9d76628bf63c677b1a81145b6126465760405162461bcd60e51b815260040180806020018281038252602d815260200180613c9d602d913960400191505060405180910390fd5b61265683600281518110610b3c57fe5b6001600160a01b0316826001600160a01b0316146126a55760405162461bcd60e51b815260040180806020018281038252602a815260200180613fe1602a913960400191505060405180910390fd5b505050565b6000806126bd84600081518110610b3c57fe5b905060007f5548c837ab068cf56a2c2479df0882a4922fd203edb7517321831d95078c5f62821415612700576126f985600281518110610b3c57fe5b9050612790565b7f6eabe333476233fd382224f233210cb808a7bc4c4de64f9d76628bf63c677b1a8214156127435761273885600381518110610b3c57fe5b905060019250612790565b6040805162461bcd60e51b815260206004820152601760248201527f457869742074797065206e6f7420737570706f72746564000000000000000000604482015290519081900360640190fd5b806001600160a01b0316846001600160a01b0316146127e05760405162461bcd60e51b8152600401808060200182810382526027815260200180613d2b6027913960400191505060405180910390fd5b505092915050565b6000849050806001600160a01b0316634f558e79856040518263ffffffff1660e01b81526004018082815260200191505060206040518083038186803b15801561283157600080fd5b505afa158015612845573d6000803e3d6000fd5b505050506040513d602081101561285b57600080fd5b5051156128995760405162461bcd60e51b8152600401808060200182810382526052815260200180613e5d6052913960600191505060405180910390fd5b60606128a7610aef88612052565b905060606128c46128be83600581518110610b1f57fe5b876134f9565b905060006128d183612e92565b50604080516060810182528481526001600160a01b03831660208083019190915260008284018190528981526002825292909220815180519495509193909261291e928492910190613b0d565b506020820151600190910180546040909301511515600160a01b0260ff60a01b196001600160a01b039093166001600160a01b03199094169390931791909116919091179055825160009061297a908590600390811061140f57fe5b9050806001600160a01b0316876001600160a01b031614611b535760405162461bcd60e51b815260040180806020018281038252605c815260200180614051605c913960600191505060405180910390fd5b60606129da610aef87612052565b90506129f56129ef82600581518110610b1f57fe5b85613682565b6000859050806001600160a01b0316634f558e79866040518263ffffffff1660e01b81526004018082815260200191505060206040518083038186803b158015612a3e57600080fd5b505afa158015612a52573d6000803e3d6000fd5b505050506040513d6020811015612a6857600080fd5b505115612aa65760405162461bcd60e51b815260040180806020018281038252604681526020018061400b6046913960600191505060405180910390fd5b6000612ab183612e92565b506040805160808101825260006060820181815282526001600160a01b038416602080840191909152600183850152888252600281529290208151805194955091939092612b03928492910190613b0d565b506020820151600190910180546040909301511515600160a01b0260ff60a01b196001600160a01b039093166001600160a01b031990941693909317919091169190911790558251600090612b5f908590600390811061140f57fe5b9050806001600160a01b0316866001600160a01b031614612bb15760405162461bcd60e51b8152600401808060200182810382526050815260200180613f916050913960600191505060405180910390fd5b505050505050505050565b612bc4613abe565b60008060008060008680602001905160a0811015612be157600080fd5b508051602080830151604080850151606080870151608097880151845160c081018652938452958301526001600160a01b03958616928201929092529390911690830152151591810191909152600060a0820152979650505050505050565b612c48613a58565b6060612c56610aef84612052565b90508051600914612ca6576040805162461bcd60e51b815260206004820152601560248201527409a82988c9ea49a8a88beae92a89088a482aebea8b605b1b604482015290519081900360640190fd5b612cb68160038151811061140f57fe5b6001600160a01b03166040830152612ccd81612e92565b60208401526001600160a01b031660608301528051612cf7906122049083906005908110610b1f57fe5b50825250919050565b8051600090612d1157506000611629565b6020820151805160001a9060c0821015612d3057600092505050611629565b5060019392505050565b8051600090612d4b57506000611629565b60008090506000612d5f8460200151612d96565b602085015185519181019250015b80821015612d8d57612d7e82612df9565b60019093019290910190612d6d565b50909392505050565b8051600090811a6080811015612db0576000915050611629565b60b8811080612dcb575060c08110801590612dcb575060f881105b15612dda576001915050611629565b60c0811015612dee5760b519019050611629565b60f519019050611629565b80516000908190811a6080811015612e145760019150612e8b565b60b8811015612e2957607e1981019150612e8b565b60c0811015612e565760b78103600185019450806020036101000a85510460018201810193505050612e8b565b60f8811015612e6b5760be1981019150612e8b565b60f78103600185019450806020036101000a855104600182018101935050505b5092915050565b60408051600980825261014082019092526000918291606091816020015b6060815260200190600190039081612eb057905050905060005b60058160ff1611612f0957612ee7858260ff1681518110610b1f57fe5b828260ff1681518110612ef657fe5b6020908102919091010152600101612eca565b506040518060400160405280600381526020016201752160e91b81525081600681518110612f3357fe5b60200260200101819052506040518060200160405280600081525081600781518110612f5b57fe5b60200260200101819052506040518060200160405280600081525081600881518110612f8357fe5b6020026020010181905250612f9781613755565b80519060200120915060018273__Common________________________________63b40b539b612fcd88600681518110610b1f57fe5b604080518082018252600381526201752160e91b602080830191825292516326b3515760e11b81526004810193845282516024820152825173__Common________________________________94634d66a2ae9493909283926044909101919080838360005b8381101561304b578181015183820152602001613033565b50505050905090810190601f1680156130785780820380516001836020036101000a031916815260200191505b509250505060206040518083038186803b15801561309557600080fd5b505af41580156130a9573d6000803e3d6000fd5b505050506040513d60208110156130bf57600080fd5b5051604080516001600160e01b031960e086901b16815261ffff8316602482015260048101918252835160448201528351829160640190602086019080838360005b83811015613119578181015183820152602001613101565b50505050905090810190601f1680156131465780820380516001836020036101000a031916815260200191505b50935050505060206040518083038186803b15801561316457600080fd5b505af4158015613178573d6000803e3d6000fd5b505050506040513d602081101561318e57600080fd5b505186516131a39088906007908110610b3c57fe5b60001b6131b688600881518110610b3c57fe5b60001b60405160008152602001604052604051808581526020018460ff1660ff1681526020018381526020018281526020019450505050506020604051602081039080840390855afa158015613210573d6000803e3d6000fd5b50505060206040510351925050915091565b600080600061323c61323785600060046137a9565b613828565b90506001600160e01b03198116632e1a7d4d60e01b14156132b057835160241461329a576040805162461bcd60e51b815260206004820152600a602482015269092dcecc2d8d2c840e8f60b31b604482015290519081900360640190fd5b6132a584600461258e565b92506003915061336f565b6001600160e01b031981166323b872dd60e01b141561332257835160641461330c576040805162461bcd60e51b815260206004820152600a602482015269092dcecc2d8d2c840e8f60b31b604482015290519081900360640190fd5b61331784604461258e565b92506001915061336f565b6040805162461bcd60e51b815260206004820152601a60248201527f457869742074782074797065206e6f7420737570706f72746564000000000000604482015290519081900360640190fd5b50915091565b600081516064146133ba576040805162461bcd60e51b815260206004820152600a602482015269092dcecc2d8d2c840e8f60b31b604482015290519081900360640190fd5b60006133cc61323784600060046137a9565b90506001600160e01b031981166323b872dd60e01b1461341d5760405162461bcd60e51b8152600401808060200182810382526027815260200180613e366027913960400191505060405180910390fd5b61342883602461258e565b6001600160a01b0316336001600160a01b0316146134775760405162461bcd60e51b8152600401808060200182810382526021815260200180613ba96021913960400191505060405180910390fd5b61250983604461258e565b60008060006134948460200151612d96565b602085015194519481019594039392505050565b806134b2576126a5565b5b602081106134d2578251825260209283019290910190601f19016134b3565b80156126a557915181516020939093036101000a6000190180199091169216919091179052565b6060600061350d61323785600060046137a9565b90506350bb4e7f60e01b6001600160e01b031982161461355e5760405162461bcd60e51b815260040180806020018281038252605c815260200180613db0605c913960600191505060405180910390fd5b600061356f856004808851036137a9565b806020019051606081101561358357600080fd5b81516020830151604080850180519151939592948301929184600160201b8211156135ad57600080fd5b9083019060208201858111156135c257600080fd5b8251600160201b8111828201881017156135db57600080fd5b82525081516020918201929091019080838360005b838110156136085781810151838201526020016135f0565b50505050905090810190601f1680156136355780820380516001836020036101000a031916815260200191505b5060405250919650919350505084821490506127e05760405162461bcd60e51b815260040180806020018281038252605e815260200180613d52605e913960600191505060405180910390fd5b600061369461323784600060046137a9565b90506340c10f1960e01b6001600160e01b03198216146136e55760405162461bcd60e51b8152600401808060200182810382526049815260200180613eaf6049913960600191505060405180910390fd5b60006136f6846004808751036137a9565b806020019051604081101561370a57600080fd5b5060200151905082811461374f5760405162461bcd60e51b8152600401808060200182810382526052815260200180613ef86052913960600191505060405180910390fd5b50505050565b60608060005b8351811015613793576137898261378486848151811061377757fe5b602002602001015161382f565b613893565b915060010161375b565b506125096137a3825160c0613910565b82613893565b6060818301845110156137bb57600080fd5b6060821580156137d6576040519150602082016040526122b6565b6040519150601f8416801560200281840101858101878315602002848b0101015b8183101561380f5780518352602092830192016137f7565b5050858452601f01601f19166040525050949350505050565b6020015190565b60608082516001148015613857575060808360008151811061384d57fe5b016020015160f81c105b15613882576040805160018082528183019092529060208201818038833950859350610ea792505050565b61250961389184516080613910565b845b6060806040519050835180825260208201818101602087015b818310156138c45780518352602092830192016138ac565b50855184518101855292509050808201602086015b818310156138f15780518352602092830192016138d9565b508651929092011591909101601f01601f191660405250905092915050565b6060603883101561396d5760408051600180825281830190925260609160208201818038833901905050905082840160f81b8160008151811061394f57fe5b60200101906001600160f81b031916908160001a9053509050610ea7565b600060015b80858161397b57fe5b04156139905760019091019061010002613972565b60606139a08386603701016139c4565b905060606139ad876139c4565b90506139b98282613893565b945050505050610ea7565b6060600160ff8311156139d5575060025b806040519080825280601f01601f191660200182016040528015613a00576020820181803883390190505b50915060005b81811015613a515780600183030360080260020a8481613a2257fe5b0460f81b838281518110613a3257fe5b60200101906001600160f81b031916908160001a905350600101613a06565b5050919050565b6040805160a0810182526000808252602082018190529181018290526060810182905290608082015290565b6040518060800160405280600081526020016000815260200160006001600160a01b0316815260200160006001600160a01b031681525090565b6040805160c081018252600080825260208201819052918101829052606081018290526080810182905260a081019190915290565b604051806040016040528060008152602001600081525090565b828054600181600116156101000203166002900490600052602060002090601f016020900481019282601f10613b4e57805160ff1916838001178555613b7b565b82800160010185558215613b7b579182015b82811115613b7b578251825591602001919060010190613b60565b50613b87929150613b8b565b5090565b613ba591905b80821115613b875760008155600101613b91565b9056fe4578697420747820646f65736e7420636f6e6365726e2074686520657869746f724368616c6c656e676520747820746f6b656e20646f65736e74206d617463682077697468206578697420746f6b656e4368616c6c656e6765207478206e6f74207369676e6564206279207468652070617274792077686f207369676e65642074686520696e707574205554584f20746f2074686520657869745265666572656e636520616e64206578697420747820646f206e6f7420636f72726573706f6e6420746f207468652073616d6520746f6b656e43616e6e6f74206368616c6c656e676520776974682074686520657869742074784c6f67207369676e617475726520646f65736e74207175616c69667920617320612076616c6964207370656e644d696e7461626c654552433732315072656469636174652e6f6e46696e616c697a65457869743a20544f4b454e5f4d494e545f4641494c45445769746864726177657220616e64206275726e206578697420747820646f206e6f74206d617463687478202f206c6f6720646f65736e7420636f6e6365726e20746865207061727469636970616e744d696e7461626c654552433732315072656469636174652e5f70726f636573735261774d696e7457697468546f6b656e5552493a20546f6b656e49647320696e206578697420616e64206d696e7420747820646f206e6f74206d617463684d696e7461626c654552433732315072656469636174652e5f70726f636573735261774d696e7457697468546f6b656e5552493a2066756e6353696720646f6573206e6f74206d61746368206d696e7457697468546f6b656e555249546f6b656e496420696e2074686520747820616e64206c6f674461746120646f206e6f74206d617463684f6e6c7920737570706f7274732065786974696e672066726f6d207472616e73666572207478734d696e7461626c654552433732315072656469636174652e70726f636573734d696e7457697468546f6b656e5552493a20546f6b656e206265696e672065786974656420616c7265616479206578697374734d696e7461626c654552433732315072656469636174652e5f70726f636573735261774d696e743a2066756e6353696720646f6573206e6f74206d617463682077697468206d696e744d696e7461626c654552433732315072656469636174652e5f70726f636573735261774d696e743a20546f6b656e49647320696e206578697420616e64206d696e7420747820646f206e6f74206d617463684d696e7461626c654552433732315072656469636174652e70726f636573734d696e7457697468546f6b656e5552493a204e6f7420617574686f72697a656420746f206d696e744d696e7461626c654552433732315072656469636174652e70726f636573734d696e743b20546f6b656e20696e207265666572656e636520616e64206d696e7420747820617265206e6f742073616d657061727469636970616e7420616e64207265666572656e63656420747820646f206e6f74206d617463684d696e7461626c654552433732315072656469636174652e70726f636573734d696e743a20546f6b656e206265696e672065786974656420616c7265616479206578697374734d696e7461626c654552433732315072656469636174652e70726f636573734d696e7457697468546f6b656e5552493b20546f6b656e20696e207265666572656e636520616e64206d696e7420747820617265206e6f742073616d65a265627a7a7231582023fbec19cfbf40d34abd1ee39ec264f238dd7295c5a2cc5ee73f66fff32df41864736f6c63430005110032",
  "source": "pragma solidity ^0.5.2;\n\nimport {RLPReader} from \"solidity-rlp/contracts/RLPReader.sol\";\nimport {SafeMath} from \"openzeppelin-solidity/contracts/math/SafeMath.sol\";\n\nimport {BytesLib} from \"../../common/lib/BytesLib.sol\";\nimport {Common} from \"../../common/lib/Common.sol\";\nimport {RLPEncode} from \"../../common/lib/RLPEncode.sol\";\n\nimport {ERC721Predicate} from \"./ERC721Predicate.sol\";\nimport {\n    ERC721PlasmaMintable\n} from \"../../common/tokens/ERC721PlasmaMintable.sol\";\n\ncontract MintableERC721Predicate is ERC721Predicate {\n    struct MintableTokenInfo {\n        string uri;\n        address minter;\n        bool isVanillaMint;\n    }\n\n    mapping(uint256 => MintableTokenInfo) public exitToMintableTokenInfo;\n\n    constructor(address _withdrawManager, address _depositManager)\n        public\n        ERC721Predicate(_withdrawManager, _depositManager)\n    {}\n\n    /**\n   * @notice Start an exit for a token that was minted and burnt on the side chain\n   * @param data RLP encoded data of the burn tx\n   * @param mintTx Signed mint transaction\n   */\n    function startExitForMintableBurntToken(\n        bytes calldata data,\n        bytes calldata mintTx\n    ) external {\n        (address rootToken, uint256 tokenId, address childToken, uint256 exitId) = abi\n            .decode(\n            startExitWithBurntTokens(data),\n            (address, uint256, address, uint256)\n        );\n        processMint(mintTx, rootToken, tokenId, childToken, exitId);\n    }\n\n    /**\n   * @notice Start a MoreVP style exit for a token that was minted on the side chain\n   * @param data RLP encoded data of the burn tx\n   * @param mintTx Signed mint transaction\n   */\n    function startExitForMintableToken(\n        bytes calldata data,\n        bytes calldata mintTx,\n        bytes calldata exitTx\n    ) external payable {\n        (address rootToken, uint256 tokenId, address childToken, uint256 exitId) = abi\n            .decode(\n            startExit(data, exitTx),\n            (address, uint256, address, uint256)\n        );\n        processMint(mintTx, rootToken, tokenId, childToken, exitId);\n    }\n\n    /**\n   * @notice Start an exit for a token with metadata that was minted and burnt on the side chain\n   * @param data RLP encoded data of the burn tx\n   * @param mintTx Signed mint transaction\n   */\n    function startExitForMetadataMintableBurntToken(\n        bytes calldata data,\n        bytes calldata mintTx\n    ) external {\n        (address rootToken, uint256 tokenId, address childToken, uint256 exitId) = abi\n            .decode(\n            startExitWithBurntTokens(data),\n            (address, uint256, address, uint256)\n        );\n        processMintWithTokenURI(mintTx, rootToken, tokenId, childToken, exitId);\n    }\n\n    /**\n   * @notice Start a MoreVP style exit for a token with metadata that was minted on the side chain\n   * @param data RLP encoded data of the burn tx\n   * @param mintTx Signed mint transaction\n   * @param exitTx Signed exit transaction\n   */\n    function startExitForMetadataMintableToken(\n        bytes calldata data,\n        bytes calldata mintTx,\n        bytes calldata exitTx\n    ) external payable {\n        (address rootToken, uint256 tokenId, address childToken, uint256 exitId) = abi\n            .decode(\n            startExit(data, exitTx),\n            (address, uint256, address, uint256)\n        );\n        processMintWithTokenURI(mintTx, rootToken, tokenId, childToken, exitId);\n    }\n\n    function onFinalizeExit(bytes calldata data) external onlyWithdrawManager {\n        (uint256 exitId, address token, address exitor, uint256 tokenId) = decodeExitForProcessExit(\n            data\n        );\n        MintableTokenInfo storage info = exitToMintableTokenInfo[exitId];\n\n        // check that the signer of the mint tx is a valid minter in the root contract\n        require(\n            ERC721PlasmaMintable(token).isMinter(info.minter),\n            \"MintableERC721Predicate.processMintWithTokenURI: Not authorized to mint\"\n        );\n\n        // this predicate contract should have been added to the root token minter role\n        if (info.isVanillaMint) {\n            ERC721PlasmaMintable _token = ERC721PlasmaMintable(token);\n            require(_token.mint(exitor, tokenId), \"TOKEN_MINT_FAILED\");\n        } else {\n            ERC721PlasmaMintable _token = ERC721PlasmaMintable(token);\n            require(\n                _token.mintWithTokenURI(exitor, tokenId, info.uri),\n                \"MintableERC721Predicate.onFinalizeExit: TOKEN_MINT_FAILED\"\n            );\n        }\n    }\n\n    function processMint(\n        bytes memory mintTx,\n        address rootToken,\n        uint256 tokenId,\n        address childToken,\n        uint256 exitId\n    ) internal {\n        RLPReader.RLPItem[] memory txList = mintTx.toRlpItem().toList();\n        _processRawMint(RLPReader.toBytes(txList[5]), tokenId);\n        ERC721PlasmaMintable token = ERC721PlasmaMintable(rootToken);\n        require(\n            !token.exists(tokenId),\n            \"MintableERC721Predicate.processMint: Token being exited already exists\"\n        );\n\n        // Will lazily (at the time of processExits) check that the signer of the mint tx is a valid minter in the root contract\n        (address minter, ) = getAddressFromTx(txList);\n        exitToMintableTokenInfo[exitId] = MintableTokenInfo(\n            \"\",\n            /* uri */\n            minter,\n            true /* isVanillaMint */\n        );\n        address _childToken = RLPReader.toAddress(txList[3]); // corresponds to \"to\" field in tx\n        require(\n            childToken == _childToken,\n            \"MintableERC721Predicate.processMint; Token in reference and mint tx are not same\"\n        );\n    }\n\n    function _processRawMint(bytes memory txData, uint256 tokenId)\n        internal\n        pure\n    {\n        bytes4 funcSig = BytesLib.toBytes4(BytesLib.slice(txData, 0, 4));\n        require(\n            funcSig == 0x40c10f19, // keccak256('mint(address,uint256)').slice(0, 4)\n            \"MintableERC721Predicate._processRawMint: funcSig does not match with mint\"\n        );\n        uint256 _tokenId;\n        (, _tokenId) = abi.decode(\n            BytesLib.slice(txData, 4, txData.length - 4),\n            (address, uint256)\n        );\n        require(\n            _tokenId == tokenId,\n            \"MintableERC721Predicate._processRawMint: TokenIds in exit and mint tx do not match\"\n        );\n    }\n\n    function processMintWithTokenURI(\n        bytes memory mintTx,\n        address rootToken,\n        uint256 tokenId,\n        address childToken,\n        uint256 exitId\n    ) internal {\n        ERC721PlasmaMintable token = ERC721PlasmaMintable(rootToken);\n        require(\n            !token.exists(tokenId),\n            \"MintableERC721Predicate.processMintWithTokenURI: Token being exited already exists\"\n        );\n\n        RLPReader.RLPItem[] memory txList = mintTx.toRlpItem().toList();\n        string memory uri = _processRawMintWithTokenURI(\n            RLPReader.toBytes(txList[5]),\n            tokenId\n        );\n        // Will lazily (at the time of processExits) check that the signer of the mint tx is a valid minter in the root contract\n        (address minter, ) = getAddressFromTx(txList);\n        exitToMintableTokenInfo[exitId] = MintableTokenInfo(\n            uri,\n            minter,\n            false /* isVanillaMint */\n        );\n        address _childToken = RLPReader.toAddress(txList[3]); // corresponds to \"to\" field in tx\n        require(\n            childToken == _childToken,\n            \"MintableERC721Predicate.processMintWithTokenURI; Token in reference and mint tx are not same\"\n        );\n    }\n\n    function _processRawMintWithTokenURI(bytes memory txData, uint256 tokenId)\n        internal\n        pure\n        returns (string memory uri)\n    {\n        bytes4 funcSig = BytesLib.toBytes4(BytesLib.slice(txData, 0, 4));\n        require(\n            funcSig == 0x50bb4e7f, // keccak256('mintWithTokenURI(address,uint256,string)').slice(0, 4)\n            \"MintableERC721Predicate._processRawMintWithTokenURI: funcSig does not match mintWithTokenURI\"\n        );\n        uint256 _tokenId;\n        (, _tokenId, uri) = abi.decode(\n            BytesLib.slice(txData, 4, txData.length - 4),\n            (address, uint256, string)\n        );\n        require(\n            _tokenId == tokenId,\n            \"MintableERC721Predicate._processRawMintWithTokenURI: TokenIds in exit and mint tx do not match\"\n        );\n    }\n}\n",
  "sourcePath": "/Users/ohm.jirapon/playground/blockhain/pos/plasma-ploygon/contracts/contracts/root/predicates/MintableERC721Predicate.sol",
  "compiler": {
    "name": "solc",
    "version": "0.5.17+commit.d19bba13.Linux.g++"
  },
  "schemaVersion": "3.4.7",
  "updatedAt": "2022-07-08T08:23:54.357Z",
  "devdoc": {
    "methods": {
      "startExit(bytes,bytes)": {
        "params": {
          "data": "RLP encoded data of the reference tx(s) that encodes the following fields for each tx headerNumber Header block number of which the reference tx was a part of blockProof Proof that the block header (in the child chain) is a leaf in the submitted merkle root blockNumber Block number of which the reference tx is a part of blockTime Reference tx block time blocktxRoot Transactions root of block blockReceiptsRoot Receipts root of block receipt Receipt of the reference transaction receiptProof Merkle proof of the reference receipt branchMask Merkle proof branchMask for the receipt logIndex Log Index to read from the receipt",
          "exitTx": "Signed exit transaction"
        },
        "return": "abi encoded bytes array that encodes the following fields address rootToken: Token that the exit corresponds to uint256 tokenId: TokenId being exited address childToken: Child token that the exit corresponds to uint256 exitId"
      },
      "startExitForMetadataMintableBurntToken(bytes,bytes)": {
        "params": {
          "data": "RLP encoded data of the burn tx",
          "mintTx": "Signed mint transaction"
        }
      },
      "startExitForMetadataMintableToken(bytes,bytes,bytes)": {
        "params": {
          "data": "RLP encoded data of the burn tx",
          "exitTx": "Signed exit transaction",
          "mintTx": "Signed mint transaction"
        }
      },
      "startExitForMintableBurntToken(bytes,bytes)": {
        "params": {
          "data": "RLP encoded data of the burn tx",
          "mintTx": "Signed mint transaction"
        }
      },
      "startExitForMintableToken(bytes,bytes,bytes)": {
        "params": {
          "data": "RLP encoded data of the burn tx",
          "mintTx": "Signed mint transaction"
        }
      },
      "verifyDeprecation(bytes,bytes,bytes)": {
        "params": {
          "challengeData": "RLP encoded data of the challenge reference tx that encodes the following fields headerNumber Header block number of which the reference tx was a part of blockProof Proof that the block header (in the child chain) is a leaf in the submitted merkle root blockNumber Block number of which the reference tx is a part of blockTime Reference tx block time blocktxRoot Transactions root of block blockReceiptsRoot Receipts root of block receipt Receipt of the reference transaction receiptProof Merkle proof of the reference receipt branchMask Merkle proof branchMask for the receipt logIndex Log Index to read from the receipt tx Challenge transaction txProof Merkle proof of the challenge tx",
          "exit": "ABI encoded PlasmaExit data",
          "inputUtxo": "ABI encoded Input UTXO data"
        },
        "return": "Whether or not the state is deprecated"
      }
    }
  },
  "userdoc": {
    "methods": {
      "startExit(bytes,bytes)": {
        "notice": "Start an exit by referencing the preceding (reference) transaction"
      },
      "startExitForMetadataMintableBurntToken(bytes,bytes)": {
        "notice": "Start an exit for a token with metadata that was minted and burnt on the side chain"
      },
      "startExitForMetadataMintableToken(bytes,bytes,bytes)": {
        "notice": "Start a MoreVP style exit for a token with metadata that was minted on the side chain"
      },
      "startExitForMintableBurntToken(bytes,bytes)": {
        "notice": "Start an exit for a token that was minted and burnt on the side chain"
      },
      "startExitForMintableToken(bytes,bytes,bytes)": {
        "notice": "Start a MoreVP style exit for a token that was minted on the side chain"
      },
      "verifyDeprecation(bytes,bytes,bytes)": {
        "notice": "Verify the deprecation of a state update"
      }
    }
  }
}