{
  "contractName": "ParentTokenMock",
  "abi": [
    {
      "anonymous": false,
      "inputs": [
        {
          "indexed": true,
          "internalType": "address",
          "name": "previousOwner",
          "type": "address"
        },
        {
          "indexed": true,
          "internalType": "address",
          "name": "newOwner",
          "type": "address"
        }
      ],
      "name": "OwnershipTransferred",
      "type": "event"
    },
    {
      "constant": true,
      "inputs": [],
      "name": "isOwner",
      "outputs": [
        {
          "internalType": "bool",
          "name": "",
          "type": "bool"
        }
      ],
      "payable": false,
      "stateMutability": "view",
      "type": "function"
    },
    {
      "constant": true,
      "inputs": [],
      "name": "owner",
      "outputs": [
        {
          "internalType": "address",
          "name": "",
          "type": "address"
        }
      ],
      "payable": false,
      "stateMutability": "view",
      "type": "function"
    },
    {
      "constant": false,
      "inputs": [],
      "name": "renounceOwnership",
      "outputs": [],
      "payable": false,
      "stateMutability": "nonpayable",
      "type": "function"
    },
    {
      "constant": false,
      "inputs": [
        {
          "internalType": "address",
          "name": "newOwner",
          "type": "address"
        }
      ],
      "name": "transferOwnership",
      "outputs": [],
      "payable": false,
      "stateMutability": "nonpayable",
      "type": "function"
    },
    {
      "constant": false,
      "inputs": [
        {
          "internalType": "address",
          "name": "sender",
          "type": "address"
        },
        {
          "internalType": "address",
          "name": "to",
          "type": "address"
        },
        {
          "internalType": "uint256",
          "name": "value",
          "type": "uint256"
        }
      ],
      "name": "beforeTransfer",
      "outputs": [
        {
          "internalType": "bool",
          "name": "",
          "type": "bool"
        }
      ],
      "payable": false,
      "stateMutability": "nonpayable",
      "type": "function"
    },
    {
      "constant": false,
      "inputs": [
        {
          "internalType": "address",
          "name": "user",
          "type": "address"
        }
      ],
      "name": "updatePermission",
      "outputs": [],
      "payable": false,
      "stateMutability": "nonpayable",
      "type": "function"
    }
  ],
  "bytecode": "0x60806040819052600080546001600160a01b03191633178082556001600160a01b0316917f8be0079c531659141344cd1fd0a4f28419497f9722a3daafe3b4186f6b6457e0908290a36102db806100576000396000f3fe608060405234801561001057600080fd5b50600436106100625760003560e01c80631ffb811f14610067578063715018a6146100b15780637aee4abe146100bb5780638da5cb5b146100e15780638f32d59b14610105578063f2fde38b1461010d575b600080fd5b61009d6004803603606081101561007d57600080fd5b506001600160a01b03813581169160208101359091169060400135610133565b604080519115158252519081900360200190f35b6100b9610153565b005b6100b9600480360360208110156100d157600080fd5b50356001600160a01b03166101ae565b6100e96101fb565b604080516001600160a01b039092168252519081900360200190f35b61009d61020a565b6100b96004803603602081101561012357600080fd5b50356001600160a01b031661021b565b50506001600160a01b031660009081526001602052604090205460ff1690565b61015b61020a565b61016457600080fd5b600080546040516001600160a01b03909116907f8be0079c531659141344cd1fd0a4f28419497f9722a3daafe3b4186f6b6457e0908390a3600080546001600160a01b0319169055565b6101b661020a565b6101bf57600080fd5b6001600160a01b0381166101d257600080fd5b6001600160a01b03166000908152600160205260409020805460ff19811660ff90911615179055565b6000546001600160a01b031690565b6000546001600160a01b0316331490565b61022361020a565b61022c57600080fd5b61023581610238565b50565b6001600160a01b03811661024b57600080fd5b600080546040516001600160a01b03808516939216917f8be0079c531659141344cd1fd0a4f28419497f9722a3daafe3b4186f6b6457e091a3600080546001600160a01b0319166001600160a01b039290921691909117905556fea265627a7a72315820137e5488f170e8c34520e778c8b45c63c8b18bfe6257c811d464f31d27363f9764736f6c63430005110032",
  "source": "pragma solidity ^0.5.2;\n\nimport \"openzeppelin-solidity/contracts/ownership/Ownable.sol\";\n\nimport \"./IParentToken.sol\";\n// demo token parent contract\n\ncontract ParentTokenMock is IParentToken, Ownable {\n    mapping(address => bool) isAllowed;\n    function beforeTransfer(address sender, address to, uint256 value)\n        external\n        returns (bool)\n    {\n        return isAllowed[sender];\n    }\n\n    function updatePermission(address user) public onlyOwner {\n        require(user != address(0x0));\n        isAllowed[user] = !isAllowed[user];\n    }\n}\n",
  "sourcePath": "/Users/ohm.jirapon/playground/blockhain/pos/plasma-ploygon/contracts/contracts/child/misc/ParentTokenMock.sol",
  "compiler": {
    "name": "solc",
    "version": "0.5.17+commit.d19bba13.Linux.g++"
  },
  "schemaVersion": "3.4.7",
  "updatedAt": "2022-07-08T08:23:53.505Z",
  "devdoc": {
    "methods": {
      "isOwner()": {
        "return": "true if `msg.sender` is the owner of the contract."
      },
      "owner()": {
        "return": "the address of the owner."
      },
      "renounceOwnership()": {
        "details": "Allows the current owner to relinquish control of the contract. It will not be possible to call the functions with the `onlyOwner` modifier anymore."
      },
      "transferOwnership(address)": {
        "details": "Allows the current owner to transfer control of the contract to a newOwner.",
        "params": {
          "newOwner": "The address to transfer ownership to."
        }
      }
    }
  },
  "userdoc": {
    "methods": {
      "renounceOwnership()": {
        "notice": "Renouncing ownership will leave the contract without an owner, thereby removing any functionality that is only available to the owner."
      }
    }
  }
}