{
  "contractName": "PriorityQueue",
  "abi": [
    {
      "inputs": [],
      "payable": false,
      "stateMutability": "nonpayable",
      "type": "constructor"
    },
    {
      "anonymous": false,
      "inputs": [
        {
          "indexed": true,
          "internalType": "address",
          "name": "previousOwner",
          "type": "address"
        },
        {
          "indexed": true,
          "internalType": "address",
          "name": "newOwner",
          "type": "address"
        }
      ],
      "name": "OwnershipTransferred",
      "type": "event"
    },
    {
      "constant": true,
      "inputs": [],
      "name": "currentSize",
      "outputs": [
        {
          "internalType": "uint256",
          "name": "",
          "type": "uint256"
        }
      ],
      "payable": false,
      "stateMutability": "view",
      "type": "function"
    },
    {
      "constant": true,
      "inputs": [],
      "name": "isOwner",
      "outputs": [
        {
          "internalType": "bool",
          "name": "",
          "type": "bool"
        }
      ],
      "payable": false,
      "stateMutability": "view",
      "type": "function"
    },
    {
      "constant": true,
      "inputs": [],
      "name": "owner",
      "outputs": [
        {
          "internalType": "address",
          "name": "",
          "type": "address"
        }
      ],
      "payable": false,
      "stateMutability": "view",
      "type": "function"
    },
    {
      "constant": false,
      "inputs": [],
      "name": "renounceOwnership",
      "outputs": [],
      "payable": false,
      "stateMutability": "nonpayable",
      "type": "function"
    },
    {
      "constant": false,
      "inputs": [
        {
          "internalType": "address",
          "name": "newOwner",
          "type": "address"
        }
      ],
      "name": "transferOwnership",
      "outputs": [],
      "payable": false,
      "stateMutability": "nonpayable",
      "type": "function"
    },
    {
      "constant": false,
      "inputs": [
        {
          "internalType": "uint256",
          "name": "_priority",
          "type": "uint256"
        },
        {
          "internalType": "uint256",
          "name": "_value",
          "type": "uint256"
        }
      ],
      "name": "insert",
      "outputs": [],
      "payable": false,
      "stateMutability": "nonpayable",
      "type": "function"
    },
    {
      "constant": true,
      "inputs": [],
      "name": "getMin",
      "outputs": [
        {
          "internalType": "uint256",
          "name": "",
          "type": "uint256"
        },
        {
          "internalType": "uint256",
          "name": "",
          "type": "uint256"
        }
      ],
      "payable": false,
      "stateMutability": "view",
      "type": "function"
    },
    {
      "constant": false,
      "inputs": [],
      "name": "delMin",
      "outputs": [
        {
          "internalType": "uint256",
          "name": "",
          "type": "uint256"
        },
        {
          "internalType": "uint256",
          "name": "",
          "type": "uint256"
        }
      ],
      "payable": false,
      "stateMutability": "nonpayable",
      "type": "function"
    }
  ],
  "bytecode": "0x608060405234801561001057600080fd5b50600080546001600160a01b03191633178082556040516001600160a01b039190911691907f8be0079c531659141344cd1fd0a4f28419497f9722a3daafe3b4186f6b6457e0908290a3604080516020810190915260008152610076906001908161007c565b506100e9565b8280548282559060005260206000209081019282156100bc579160200282015b828111156100bc578251829060ff1690559160200191906001019061009c565b506100c89291506100cc565b5090565b6100e691905b808211156100c857600081556001016100d2565b90565b610757806100f86000396000f3fe608060405234801561001057600080fd5b50600436106100885760003560e01c8063b07576ac1161005b578063b07576ac146100fa578063bda1504b1461011b578063d6362e9714610135578063f2fde38b1461013d57610088565b80631d834a1b1461008d578063715018a6146100b25780638da5cb5b146100ba5780638f32d59b146100de575b600080fd5b6100b0600480360360408110156100a357600080fd5b5080359060200135610163565b005b6100b06101d8565b6100c2610233565b604080516001600160a01b039092168252519081900360200190f35b6100e6610243565b604080519115158252519081900360200190f35b610102610254565b6040805192835260208301919091528051918290030190f35b610123610325565b60408051918252519081900360200190f35b61010261032b565b6100b06004803603602081101561015357600080fd5b50356001600160a01b0316610356565b61016b610243565b61017457600080fd5b6001805480820182556000829052608084901b83177fb10e2d527612073b26eecdfd717e6a320cf44b4afac2b0732d9fcbe2b7fa0cf690910181905560025490916101c5919063ffffffff61037316565b60028190556101d39061038e565b505050565b6101e0610243565b6101e957600080fd5b600080546040516001600160a01b03909116907f8be0079c531659141344cd1fd0a4f28419497f9722a3daafe3b4186f6b6457e0908390a3600080546001600160a01b0319169055565b6000546001600160a01b03165b90565b6000546001600160a01b0316331490565b60008061025f610243565b61026857600080fd5b60006001808154811061027757fe5b9060005260206000200154905060016002548154811061029357fe5b9060005260206000200154600180815481106102ab57fe5b90600052602060002001819055506001600254815481106102c857fe5b60009182526020822001556002546102e790600163ffffffff61046216565b6002556102f46001610477565b600180546103079163ffffffff61046216565b6103126001826106e5565b5061031c81610542565b92509250509091565b60025481565b60008061034e6001808154811061033e57fe5b9060005260206000200154610542565b915091509091565b61035e610243565b61036757600080fd5b6103708161055f565b50565b60008282018381101561038557600080fd5b90505b92915050565b600180548291829160009190839081106103a457fe5b906000526020600020015490505b60016103c584600263ffffffff6105cd16565b815481106103cf57fe5b906000526020600020015481101561043a5760016103f484600263ffffffff6105cd16565b815481106103fe57fe5b90600052602060002001546001848154811061041657fe5b60009182526020909120015561043383600263ffffffff6105cd16565b92506103b2565b81831461045c57806001848154811061044f57fe5b6000918252602090912001555b50505050565b60008282111561047157600080fd5b50900390565b6001805482918291600091908390811061048d57fe5b9060005260206000200154905060006104a5846105ef565b90505b60025481111580156104d05750600181815481106104c257fe5b906000526020600020015482115b1561051957600181815481106104e257fe5b9060005260206000200154600185815481106104fa57fe5b600091825260209091200155925082610512816105ef565b90506104a8565b82841461053b57816001858154811061052e57fe5b6000918252602090912001555b5050505050565b608081901c6fffffffffffffffffffffffffffffffff8216915091565b6001600160a01b03811661057257600080fd5b600080546040516001600160a01b03808516939216917f8be0079c531659141344cd1fd0a4f28419497f9722a3daafe3b4186f6b6457e091a3600080546001600160a01b0319166001600160a01b0392909216919091179055565b60008082116105db57600080fd5b60008284816105e657fe5b04949350505050565b6000600254610619600161060d6002866106be90919063ffffffff16565b9063ffffffff61037316565b11156106375761063082600263ffffffff6106be16565b90506106b9565b600161064e8161060d85600263ffffffff6106be16565b8154811061065857fe5b600091825260209091200154600161067784600263ffffffff6106be16565b8154811061068157fe5b906000526020600020015410156106a35761063082600263ffffffff6106be16565b610630600161060d84600263ffffffff6106be16565b919050565b6000826106cd57506000610388565b828202828482816106da57fe5b041461038557600080fd5b8154818355818111156101d3576000838152602090206101d391810190830161024091905b8082111561071e576000815560010161070a565b509056fea265627a7a723158209286642ee3ce3c6c0b61e1e2587d60f3f34e529b470b256cedfa0e704f794d8564736f6c63430005110032",
  "source": "pragma solidity ^0.5.2;\n\nimport \"openzeppelin-solidity/contracts/ownership/Ownable.sol\";\nimport {SafeMath} from \"openzeppelin-solidity/contracts/math/SafeMath.sol\";\n\n/**\n * @title PriorityQueue\n * @dev A priority queue implementation.\n */\ncontract PriorityQueue is Ownable {\n    using SafeMath for uint256;\n\n    uint256[] heapList;\n    uint256 public currentSize;\n\n    constructor() public {\n        heapList = [0];\n    }\n\n    /**\n  * @dev Inserts an element into the priority queue.\n  * @param _priority Priority to insert.\n  * @param _value Some additional value.\n  */\n    function insert(uint256 _priority, uint256 _value) public onlyOwner {\n        uint256 element = (_priority << 128) | _value;\n        heapList.push(element);\n        currentSize = currentSize.add(1);\n        _percUp(currentSize);\n    }\n\n    /**\n  * @dev Returns the top element of the heap.\n  * @return The smallest element in the priority queue.\n  */\n    function getMin() public view returns (uint256, uint256) {\n        return _splitElement(heapList[1]);\n    }\n\n    /**\n  * @dev Deletes the top element of the heap and shifts everything up.\n  * @return The smallest element in the priorty queue.\n  */\n    function delMin() public onlyOwner returns (uint256, uint256) {\n        uint256 retVal = heapList[1];\n        heapList[1] = heapList[currentSize];\n        delete heapList[currentSize];\n        currentSize = currentSize.sub(1);\n        _percDown(1);\n        heapList.length = heapList.length.sub(1);\n        return _splitElement(retVal);\n    }\n\n    /**\n  * @dev Determines the minimum child of a given node in the tree.\n  * @param _index Index of the node in the tree.\n  * @return The smallest child node.\n  */\n    function _minChild(uint256 _index) private view returns (uint256) {\n        if (_index.mul(2).add(1) > currentSize) {\n            return _index.mul(2);\n        } else {\n            if (heapList[_index.mul(2)] < heapList[_index.mul(2).add(1)]) {\n                return _index.mul(2);\n            } else {\n                return _index.mul(2).add(1);\n            }\n        }\n    }\n\n    /**\n   * @dev Bubbles the element at some index up.\n   */\n    function _percUp(uint256 _index) private {\n        uint256 index = _index;\n        uint256 j = index;\n        uint256 newVal = heapList[index];\n\n        while (newVal < heapList[index.div(2)]) {\n            heapList[index] = heapList[index.div(2)];\n            index = index.div(2);\n        }\n\n        if (index != j) {\n            heapList[index] = newVal;\n        }\n    }\n\n    /**\n   * @dev Bubbles the element at some index down.\n   */\n    function _percDown(uint256 _index) private {\n        uint256 index = _index;\n        uint256 j = index;\n        uint256 newVal = heapList[index];\n        uint256 mc = _minChild(index);\n        while (mc <= currentSize && newVal > heapList[mc]) {\n            heapList[index] = heapList[mc];\n            index = mc;\n            mc = _minChild(index);\n        }\n\n        if (index != j) {\n            heapList[index] = newVal;\n        }\n    }\n\n    /**\n   * @dev Split an element into its priority and value.\n   * @param _element Element to decode.\n   * @return A tuple containing the priority and value.\n   */\n    function _splitElement(uint256 _element)\n        private\n        pure\n        returns (uint256, uint256)\n    {\n        uint256 priority = _element >> 128;\n        uint256 value = uint256(uint128(_element));\n        return (priority, value);\n    }\n}\n",
  "sourcePath": "/root/matic-cli/devnet/code/contracts/contracts/common/lib/PriorityQueue.sol",
  "compiler": {
    "name": "solc",
    "version": "0.5.17+commit.d19bba13.Linux.g++"
  },
  "schemaVersion": "3.0.14",
  "updatedAt": "2022-07-06T11:11:58.237Z",
  "devdoc": {
    "details": "A priority queue implementation.",
    "methods": {
      "delMin()": {
        "details": "Deletes the top element of the heap and shifts everything up.",
        "return": "The smallest element in the priorty queue."
      },
      "getMin()": {
        "details": "Returns the top element of the heap.",
        "return": "The smallest element in the priority queue."
      },
      "insert(uint256,uint256)": {
        "details": "Inserts an element into the priority queue.",
        "params": {
          "_priority": "Priority to insert.",
          "_value": "Some additional value."
        }
      },
      "isOwner()": {
        "return": "true if `msg.sender` is the owner of the contract."
      },
      "owner()": {
        "return": "the address of the owner."
      },
      "renounceOwnership()": {
        "details": "Allows the current owner to relinquish control of the contract. It will not be possible to call the functions with the `onlyOwner` modifier anymore."
      },
      "transferOwnership(address)": {
        "details": "Allows the current owner to transfer control of the contract to a newOwner.",
        "params": {
          "newOwner": "The address to transfer ownership to."
        }
      }
    },
    "title": "PriorityQueue"
  },
  "userdoc": {
    "methods": {
      "renounceOwnership()": {
        "notice": "Renouncing ownership will leave the contract without an owner, thereby removing any functionality that is only available to the owner."
      }
    }
  }
}