{
  "contractName": "ProxyTestImplStorageLayoutChange",
  "abi": [
    {
      "constant": true,
      "inputs": [],
      "name": "a",
      "outputs": [
        {
          "internalType": "uint256",
          "name": "",
          "type": "uint256"
        }
      ],
      "payable": false,
      "stateMutability": "view",
      "type": "function"
    },
    {
      "constant": true,
      "inputs": [],
      "name": "b",
      "outputs": [
        {
          "internalType": "uint256",
          "name": "",
          "type": "uint256"
        }
      ],
      "payable": false,
      "stateMutability": "view",
      "type": "function"
    }
  ],
  "bytecode": "0x60806040526000805460ff19169055348015601957600080fd5b506096806100286000396000f3fe6080604052348015600f57600080fd5b506004361060325760003560e01c80630dbe671f1460375780634df7e3d014604f575b600080fd5b603d6055565b60408051918252519081900360200190f35b603d605b565b60025481565b6001548156fea265627a7a723158207a21df7f5b7b7c67c869dbf59f47a7ee414542ffd3f527633d9946b375bfbccf64736f6c63430005110032",
  "source": "pragma solidity ^0.5.2;\n\nimport {Initializable} from \"../../common/mixin/Initializable.sol\";\n\ncontract ProxyTestImplStorageLayoutChange is Initializable {\n    uint256 public b;\n    uint256 public a;\n}\n",
  "sourcePath": "/Users/ohm.jirapon/playground/blockhain/pos/plasma-ploygon/contracts/contracts/test/Proxy/ProxyTestImplStorageLayoutChange.sol",
  "compiler": {
    "name": "solc",
    "version": "0.5.17+commit.d19bba13.Linux.g++"
  },
  "schemaVersion": "3.4.7",
  "updatedAt": "2022-07-08T08:23:54.741Z",
  "devdoc": {
    "methods": {}
  },
  "userdoc": {
    "methods": {}
  }
}