{
  "contractName": "ProxyTestImpl",
  "abi": [
    {
      "inputs": [],
      "payable": false,
      "stateMutability": "nonpayable",
      "type": "constructor"
    },
    {
      "constant": true,
      "inputs": [],
      "name": "a",
      "outputs": [
        {
          "internalType": "uint256",
          "name": "",
          "type": "uint256"
        }
      ],
      "payable": false,
      "stateMutability": "view",
      "type": "function"
    },
    {
      "constant": true,
      "inputs": [],
      "name": "b",
      "outputs": [
        {
          "internalType": "uint256",
          "name": "",
          "type": "uint256"
        }
      ],
      "payable": false,
      "stateMutability": "view",
      "type": "function"
    },
    {
      "constant": true,
      "inputs": [],
      "name": "ctorInit",
      "outputs": [
        {
          "internalType": "uint256",
          "name": "",
          "type": "uint256"
        }
      ],
      "payable": false,
      "stateMutability": "view",
      "type": "function"
    },
    {
      "constant": false,
      "inputs": [],
      "name": "init",
      "outputs": [],
      "payable": false,
      "stateMutability": "nonpayable",
      "type": "function"
    }
  ],
  "bytecode": "0x60806040526000805460ff19169055600180556002805534801561002257600080fd5b506003805561011e806100366000396000f3fe6080604052348015600f57600080fd5b506004361060465760003560e01c80630dbe671f14604b5780634df7e3d014606357806394eb090c146069578063e1c7392a14606f575b600080fd5b60516077565b60408051918252519081900360200190f35b6051607d565b60516083565b60756089565b005b60015481565b60025481565b60035481565b60005460ff161560d1576040805162461bcd60e51b815260206004820152600e60248201526d185b1c9958591e481a5b9a5d195960921b604482015290519081900360640190fd5b6000805460ff1916600190811790915580556002805556fea265627a7a7231582040eb04d9b5cede878b1d226e4357557219d658c3e331a00398d80a0ddfb4f42364736f6c63430005110032",
  "source": "pragma solidity ^0.5.2;\n\nimport {Initializable} from \"../../common/mixin/Initializable.sol\";\n\ncontract ProxyTestImpl is Initializable {\n    uint256 public a = 1;\n    uint256 public b = 2;\n    uint256 public ctorInit;\n\n    constructor() public {\n        ctorInit = 3;\n    }\n\n    function init() public initializer {\n        a = 1;\n        b = 2;\n    }\n}\n",
  "sourcePath": "/Users/ohm.jirapon/playground/blockhain/pos/plasma-ploygon/contracts/contracts/test/Proxy/ProxyTestImpl.sol",
  "compiler": {
    "name": "solc",
    "version": "0.5.17+commit.d19bba13.Linux.g++"
  },
  "schemaVersion": "3.4.7",
  "updatedAt": "2022-07-08T08:23:54.723Z",
  "devdoc": {
    "methods": {}
  },
  "userdoc": {
    "methods": {}
  }
}