{
  "contractName": "Proxy",
  "abi": [
    {
      "inputs": [
        {
          "internalType": "address",
          "name": "_proxyTo",
          "type": "address"
        }
      ],
      "payable": false,
      "stateMutability": "nonpayable",
      "type": "constructor"
    },
    {
      "anonymous": false,
      "inputs": [
        {
          "indexed": false,
          "internalType": "address",
          "name": "_prevOwner",
          "type": "address"
        },
        {
          "indexed": false,
          "internalType": "address",
          "name": "_newOwner",
          "type": "address"
        }
      ],
      "name": "OwnerUpdate",
      "type": "event"
    },
    {
      "anonymous": false,
      "inputs": [
        {
          "indexed": true,
          "internalType": "address",
          "name": "previousOwner",
          "type": "address"
        },
        {
          "indexed": true,
          "internalType": "address",
          "name": "newOwner",
          "type": "address"
        }
      ],
      "name": "OwnershipTransferred",
      "type": "event"
    },
    {
      "anonymous": false,
      "inputs": [
        {
          "indexed": true,
          "internalType": "address",
          "name": "_new",
          "type": "address"
        },
        {
          "indexed": true,
          "internalType": "address",
          "name": "_old",
          "type": "address"
        }
      ],
      "name": "ProxyUpdated",
      "type": "event"
    },
    {
      "payable": true,
      "stateMutability": "payable",
      "type": "fallback"
    },
    {
      "constant": true,
      "inputs": [],
      "name": "isOwner",
      "outputs": [
        {
          "internalType": "bool",
          "name": "",
          "type": "bool"
        }
      ],
      "payable": false,
      "stateMutability": "view",
      "type": "function"
    },
    {
      "constant": true,
      "inputs": [],
      "name": "owner",
      "outputs": [
        {
          "internalType": "address",
          "name": "",
          "type": "address"
        }
      ],
      "payable": false,
      "stateMutability": "view",
      "type": "function"
    },
    {
      "constant": true,
      "inputs": [],
      "name": "proxyType",
      "outputs": [
        {
          "internalType": "uint256",
          "name": "proxyTypeId",
          "type": "uint256"
        }
      ],
      "payable": false,
      "stateMutability": "pure",
      "type": "function"
    },
    {
      "constant": false,
      "inputs": [],
      "name": "renounceOwnership",
      "outputs": [],
      "payable": false,
      "stateMutability": "nonpayable",
      "type": "function"
    },
    {
      "constant": false,
      "inputs": [
        {
          "internalType": "address",
          "name": "newOwner",
          "type": "address"
        }
      ],
      "name": "transferOwnership",
      "outputs": [],
      "payable": false,
      "stateMutability": "nonpayable",
      "type": "function"
    },
    {
      "constant": true,
      "inputs": [],
      "name": "implementation",
      "outputs": [
        {
          "internalType": "address",
          "name": "",
          "type": "address"
        }
      ],
      "payable": false,
      "stateMutability": "view",
      "type": "function"
    },
    {
      "constant": false,
      "inputs": [
        {
          "internalType": "address",
          "name": "_newProxyTo",
          "type": "address"
        }
      ],
      "name": "updateImplementation",
      "outputs": [],
      "payable": false,
      "stateMutability": "nonpayable",
      "type": "function"
    }
  ],
  "bytecode": "0x608060405234801561001057600080fd5b506040516106e23803806106e28339818101604052602081101561003357600080fd5b5051600080546001600160a01b03191633178082556040516001600160a01b039190911691907f8be0079c531659141344cd1fd0a4f28419497f9722a3daafe3b4186f6b6457e0908290a3610090816001600160e01b0361009616565b5061021d565b6100a76001600160e01b036101e916565b6100b057600080fd5b6001600160a01b03811661012557604080517f08c379a000000000000000000000000000000000000000000000000000000000815260206004820152601560248201527f494e56414c49445f50524f58595f414444524553530000000000000000000000604482015290519081900360640190fd5b610137816001600160e01b036101fa16565b61018c576040517f08c379a00000000000000000000000000000000000000000000000000000000081526004018080602001828103825260258152602001806106bd6025913960400191505060405180910390fd5b6001546040516001600160a01b03918216918316907fd32d24edea94f55e932d9a008afc425a8561462d1b1f57bc6e508e9a6b9509e190600090a3600180546001600160a01b0319166001600160a01b0392909216919091179055565b6000546001600160a01b0316331490565b60006001600160a01b03821661021257506000610218565b50803b15155b919050565b6104918061022c6000396000f3fe6080604052600436106100705760003560e01c8063715018a61161004e578063715018a6146101475780638da5cb5b1461015c5780638f32d59b14610171578063f2fde38b1461019a57610070565b8063025b22bc146100bc5780634555d5c9146100ef5780635c60da1b14610116575b60015460408051602036601f81018290048202830182019093528282526100ba936001600160a01b031692600091819084018382808284376000920191909152506101cd92505050565b005b3480156100c857600080fd5b506100ba600480360360208110156100df57600080fd5b50356001600160a01b03166101f5565b3480156100fb57600080fd5b506101046102fa565b60408051918252519081900360200190f35b34801561012257600080fd5b5061012b6102ff565b604080516001600160a01b039092168252519081900360200190f35b34801561015357600080fd5b506100ba61030e565b34801561016857600080fd5b5061012b610369565b34801561017d57600080fd5b50610186610378565b604080519115158252519081900360200190f35b3480156101a657600080fd5b506100ba600480360360208110156101bd57600080fd5b50356001600160a01b0316610389565b600080825160208401856127105a03f43d604051816000823e8280156101f1578282f35b8282fd5b6101fd610378565b61020657600080fd5b6001600160a01b038116610259576040805162461bcd60e51b8152602060048201526015602482015274494e56414c49445f50524f58595f4144445245535360581b604482015290519081900360640190fd5b610262816103a6565b61029d5760405162461bcd60e51b81526004018080602001828103825260258152602001806104386025913960400191505060405180910390fd5b6001546040516001600160a01b03918216918316907fd32d24edea94f55e932d9a008afc425a8561462d1b1f57bc6e508e9a6b9509e190600090a3600180546001600160a01b0319166001600160a01b0392909216919091179055565b600290565b6001546001600160a01b031690565b610316610378565b61031f57600080fd5b600080546040516001600160a01b03909116907f8be0079c531659141344cd1fd0a4f28419497f9722a3daafe3b4186f6b6457e0908390a3600080546001600160a01b0319169055565b6000546001600160a01b031690565b6000546001600160a01b0316331490565b610391610378565b61039a57600080fd5b6103a3816103c9565b50565b60006001600160a01b0382166103be575060006103c4565b50803b15155b919050565b6001600160a01b0381166103dc57600080fd5b600080546040516001600160a01b03808516939216917f8be0079c531659141344cd1fd0a4f28419497f9722a3daafe3b4186f6b6457e091a3600080546001600160a01b0319166001600160a01b039290921691909117905556fe44455354494e4154494f4e5f414444524553535f49535f4e4f545f415f434f4e5452414354a265627a7a72315820466690be8e82414c75e3f29c1eadfafd85c30942c69be9ba0173743be7342ea964736f6c6343000511003244455354494e4154494f4e5f414444524553535f49535f4e4f545f415f434f4e5452414354",
  "source": "pragma solidity ^0.5.2;\nimport {DelegateProxy} from \"./DelegateProxy.sol\";\nimport {ProxyStorage} from \"./ProxyStorage.sol\";\n\n\ncontract Proxy is ProxyStorage, DelegateProxy {\n    event ProxyUpdated(address indexed _new, address indexed _old);\n    event OwnerUpdate(address _prevOwner, address _newOwner);\n\n    constructor(address _proxyTo) public {\n        updateImplementation(_proxyTo);\n    }\n\n    function() external payable {\n        // require(currentContract != 0, \"If app code has not been set yet, do not call\");\n        // Todo: filter out some calls or handle in the end fallback\n        delegatedFwd(proxyTo, msg.data);\n    }\n\n    function implementation() external view returns (address) {\n        return proxyTo;\n    }\n\n    function updateImplementation(address _newProxyTo) public onlyOwner {\n        require(_newProxyTo != address(0x0), \"INVALID_PROXY_ADDRESS\");\n        require(isContract(_newProxyTo), \"DESTINATION_ADDRESS_IS_NOT_A_CONTRACT\");\n        emit ProxyUpdated(_newProxyTo, proxyTo);\n        proxyTo = _newProxyTo;\n    }\n\n    function isContract(address _target) internal view returns (bool) {\n        if (_target == address(0)) {\n            return false;\n        }\n\n        uint256 size;\n        assembly {\n            size := extcodesize(_target)\n        }\n        return size > 0;\n    }\n}\n",
  "sourcePath": "/Users/ohm.jirapon/playground/blockhain/pos/plasma-ploygon/contracts/contracts/common/misc/Proxy.sol",
  "compiler": {
    "name": "solc",
    "version": "0.5.17+commit.d19bba13.Linux.g++"
  },
  "schemaVersion": "3.4.7",
  "updatedAt": "2022-07-08T08:23:54.092Z",
  "devdoc": {
    "methods": {
      "isOwner()": {
        "return": "true if `msg.sender` is the owner of the contract."
      },
      "owner()": {
        "return": "the address of the owner."
      },
      "renounceOwnership()": {
        "details": "Allows the current owner to relinquish control of the contract. It will not be possible to call the functions with the `onlyOwner` modifier anymore."
      },
      "transferOwnership(address)": {
        "details": "Allows the current owner to transfer control of the contract to a newOwner.",
        "params": {
          "newOwner": "The address to transfer ownership to."
        }
      }
    }
  },
  "userdoc": {
    "methods": {
      "renounceOwnership()": {
        "notice": "Renouncing ownership will leave the contract without an owner, thereby removing any functionality that is only available to the owner."
      }
    }
  }
}