{
  "contractName": "RootChainStorage",
  "abi": [
    {
      "anonymous": false,
      "inputs": [
        {
          "indexed": true,
          "internalType": "address",
          "name": "proposer",
          "type": "address"
        },
        {
          "indexed": true,
          "internalType": "uint256",
          "name": "headerBlockId",
          "type": "uint256"
        },
        {
          "indexed": true,
          "internalType": "uint256",
          "name": "reward",
          "type": "uint256"
        },
        {
          "indexed": false,
          "internalType": "uint256",
          "name": "start",
          "type": "uint256"
        },
        {
          "indexed": false,
          "internalType": "uint256",
          "name": "end",
          "type": "uint256"
        },
        {
          "indexed": false,
          "internalType": "bytes32",
          "name": "root",
          "type": "bytes32"
        }
      ],
      "name": "NewHeaderBlock",
      "type": "event"
    },
    {
      "anonymous": false,
      "inputs": [
        {
          "indexed": true,
          "internalType": "address",
          "name": "previousOwner",
          "type": "address"
        },
        {
          "indexed": true,
          "internalType": "address",
          "name": "newOwner",
          "type": "address"
        }
      ],
      "name": "OwnershipTransferred",
      "type": "event"
    },
    {
      "anonymous": false,
      "inputs": [
        {
          "indexed": true,
          "internalType": "address",
          "name": "proposer",
          "type": "address"
        },
        {
          "indexed": true,
          "internalType": "uint256",
          "name": "headerBlockId",
          "type": "uint256"
        }
      ],
      "name": "ResetHeaderBlock",
      "type": "event"
    },
    {
      "constant": true,
      "inputs": [],
      "name": "CHAINID",
      "outputs": [
        {
          "internalType": "uint256",
          "name": "",
          "type": "uint256"
        }
      ],
      "payable": false,
      "stateMutability": "view",
      "type": "function"
    },
    {
      "constant": true,
      "inputs": [],
      "name": "VOTE_TYPE",
      "outputs": [
        {
          "internalType": "uint8",
          "name": "",
          "type": "uint8"
        }
      ],
      "payable": false,
      "stateMutability": "view",
      "type": "function"
    },
    {
      "constant": true,
      "inputs": [],
      "name": "_nextHeaderBlock",
      "outputs": [
        {
          "internalType": "uint256",
          "name": "",
          "type": "uint256"
        }
      ],
      "payable": false,
      "stateMutability": "view",
      "type": "function"
    },
    {
      "constant": true,
      "inputs": [
        {
          "internalType": "uint256",
          "name": "",
          "type": "uint256"
        }
      ],
      "name": "headerBlocks",
      "outputs": [
        {
          "internalType": "bytes32",
          "name": "root",
          "type": "bytes32"
        },
        {
          "internalType": "uint256",
          "name": "start",
          "type": "uint256"
        },
        {
          "internalType": "uint256",
          "name": "end",
          "type": "uint256"
        },
        {
          "internalType": "uint256",
          "name": "createdAt",
          "type": "uint256"
        },
        {
          "internalType": "address",
          "name": "proposer",
          "type": "address"
        }
      ],
      "payable": false,
      "stateMutability": "view",
      "type": "function"
    },
    {
      "constant": true,
      "inputs": [],
      "name": "heimdallId",
      "outputs": [
        {
          "internalType": "bytes32",
          "name": "",
          "type": "bytes32"
        }
      ],
      "payable": false,
      "stateMutability": "view",
      "type": "function"
    },
    {
      "constant": true,
      "inputs": [],
      "name": "isOwner",
      "outputs": [
        {
          "internalType": "bool",
          "name": "",
          "type": "bool"
        }
      ],
      "payable": false,
      "stateMutability": "view",
      "type": "function"
    },
    {
      "constant": true,
      "inputs": [],
      "name": "networkId",
      "outputs": [
        {
          "internalType": "bytes",
          "name": "",
          "type": "bytes"
        }
      ],
      "payable": false,
      "stateMutability": "view",
      "type": "function"
    },
    {
      "constant": true,
      "inputs": [],
      "name": "owner",
      "outputs": [
        {
          "internalType": "address",
          "name": "",
          "type": "address"
        }
      ],
      "payable": false,
      "stateMutability": "view",
      "type": "function"
    },
    {
      "constant": false,
      "inputs": [],
      "name": "renounceOwnership",
      "outputs": [],
      "payable": false,
      "stateMutability": "nonpayable",
      "type": "function"
    },
    {
      "constant": false,
      "inputs": [
        {
          "internalType": "address",
          "name": "newOwner",
          "type": "address"
        }
      ],
      "name": "transferOwnership",
      "outputs": [],
      "payable": false,
      "stateMutability": "nonpayable",
      "type": "function"
    }
  ],
  "bytecode": "0x608060408190526127106003556001600455600080546001600160a01b03191633178082556001600160a01b0316917f8be0079c531659141344cd1fd0a4f28419497f9722a3daafe3b4186f6b6457e0908290a36103d3806100626000396000f3fe608060405234801561001057600080fd5b506004361061009e5760003560e01c80639025e64c116100665780639025e64c14610158578063cc79f97b146101d5578063d5b844eb146101dd578063f2fde38b146101fb578063fbc3dd36146102215761009e565b806341539d4a146100a3578063715018a6146100f45780638d978d88146100fe5780638da5cb5b146101185780638f32d59b1461013c575b600080fd5b6100c0600480360360208110156100b957600080fd5b5035610229565b6040805195865260208601949094528484019290925260608401526001600160a01b03166080830152519081900360a00190f35b6100fc610261565b005b6101066102bc565b60408051918252519081900360200190f35b6101206102c2565b604080516001600160a01b039092168252519081900360200190f35b6101446102d1565b604080519115158252519081900360200190f35b6101606102e2565b6040805160208082528351818301528351919283929083019185019080838360005b8381101561019a578181015183820152602001610182565b50505050905090810190601f1680156101c75780820380516001836020036101000a031916815260200191505b509250505060405180910390f35b610106610301565b6101e5610308565b6040805160ff9092168252519081900360200190f35b6100fc6004803603602081101561021157600080fd5b50356001600160a01b031661030d565b61010661032a565b60056020526000908152604090208054600182015460028301546003840154600490940154929391929091906001600160a01b031685565b6102696102d1565b61027257600080fd5b600080546040516001600160a01b03909116907f8be0079c531659141344cd1fd0a4f28419497f9722a3daafe3b4186f6b6457e0908390a3600080546001600160a01b0319169055565b60035481565b6000546001600160a01b031690565b6000546001600160a01b0316331490565b6040518060400160405280600381526020016201752160e91b81525081565b6202ea4281565b600281565b6103156102d1565b61031e57600080fd5b61032781610330565b50565b60025481565b6001600160a01b03811661034357600080fd5b600080546040516001600160a01b03808516939216917f8be0079c531659141344cd1fd0a4f28419497f9722a3daafe3b4186f6b6457e091a3600080546001600160a01b0319166001600160a01b039290921691909117905556fea265627a7a72315820888672cf8d954b04a92960c17796a84259f2b58a38fd95d6f94efdade1ccb1af64736f6c63430005110032",
  "source": "pragma solidity ^0.5.2;\n\nimport {Registry} from \"../common/Registry.sol\";\nimport {ProxyStorage} from \"../common/misc/ProxyStorage.sol\";\nimport {ChainIdMixin} from \"../common/mixin/ChainIdMixin.sol\";\n\n\ncontract RootChainHeader {\n    event NewHeaderBlock(\n        address indexed proposer,\n        uint256 indexed headerBlockId,\n        uint256 indexed reward,\n        uint256 start,\n        uint256 end,\n        bytes32 root\n    );\n    // housekeeping event\n    event ResetHeaderBlock(address indexed proposer, uint256 indexed headerBlockId);\n    struct HeaderBlock {\n        bytes32 root;\n        uint256 start;\n        uint256 end;\n        uint256 createdAt;\n        address proposer;\n    }\n}\n\n\ncontract RootChainStorage is ProxyStorage, RootChainHeader, ChainIdMixin {\n    bytes32 public heimdallId;\n    uint8 public constant VOTE_TYPE = 2;\n\n    uint16 internal constant MAX_DEPOSITS = 10000;\n    uint256 public _nextHeaderBlock = MAX_DEPOSITS;\n    uint256 internal _blockDepositId = 1;\n    mapping(uint256 => HeaderBlock) public headerBlocks;\n    Registry internal registry;\n}\n",
  "sourcePath": "/Users/ohm.jirapon/playground/blockhain/pos/plasma-ploygon/contracts/contracts/root/RootChainStorage.sol",
  "compiler": {
    "name": "solc",
    "version": "0.5.17+commit.d19bba13.Linux.g++"
  },
  "schemaVersion": "3.4.7",
  "updatedAt": "2022-07-08T08:23:54.196Z",
  "devdoc": {
    "methods": {
      "isOwner()": {
        "return": "true if `msg.sender` is the owner of the contract."
      },
      "owner()": {
        "return": "the address of the owner."
      },
      "renounceOwnership()": {
        "details": "Allows the current owner to relinquish control of the contract. It will not be possible to call the functions with the `onlyOwner` modifier anymore."
      },
      "transferOwnership(address)": {
        "details": "Allows the current owner to transfer control of the contract to a newOwner.",
        "params": {
          "newOwner": "The address to transfer ownership to."
        }
      }
    }
  },
  "userdoc": {
    "methods": {
      "renounceOwnership()": {
        "notice": "Renouncing ownership will leave the contract without an owner, thereby removing any functionality that is only available to the owner."
      }
    }
  }
}