{
  "contractName": "SlashingManager",
  "abi": [
    {
      "inputs": [
        {
          "internalType": "address",
          "name": "_registry",
          "type": "address"
        },
        {
          "internalType": "address",
          "name": "_logger",
          "type": "address"
        },
        {
          "internalType": "string",
          "name": "_heimdallId",
          "type": "string"
        }
      ],
      "payable": false,
      "stateMutability": "nonpayable",
      "type": "constructor"
    },
    {
      "anonymous": false,
      "inputs": [
        {
          "indexed": true,
          "internalType": "address",
          "name": "previousOwner",
          "type": "address"
        },
        {
          "indexed": true,
          "internalType": "address",
          "name": "newOwner",
          "type": "address"
        }
      ],
      "name": "OwnershipTransferred",
      "type": "event"
    },
    {
      "constant": true,
      "inputs": [],
      "name": "VOTE_TYPE",
      "outputs": [
        {
          "internalType": "uint8",
          "name": "",
          "type": "uint8"
        }
      ],
      "payable": false,
      "stateMutability": "view",
      "type": "function"
    },
    {
      "constant": true,
      "inputs": [],
      "name": "heimdallId",
      "outputs": [
        {
          "internalType": "bytes32",
          "name": "",
          "type": "bytes32"
        }
      ],
      "payable": false,
      "stateMutability": "view",
      "type": "function"
    },
    {
      "constant": true,
      "inputs": [],
      "name": "isOwner",
      "outputs": [
        {
          "internalType": "bool",
          "name": "",
          "type": "bool"
        }
      ],
      "payable": false,
      "stateMutability": "view",
      "type": "function"
    },
    {
      "constant": true,
      "inputs": [],
      "name": "jailCheckpoints",
      "outputs": [
        {
          "internalType": "uint256",
          "name": "",
          "type": "uint256"
        }
      ],
      "payable": false,
      "stateMutability": "view",
      "type": "function"
    },
    {
      "constant": true,
      "inputs": [],
      "name": "logger",
      "outputs": [
        {
          "internalType": "contract StakingInfo",
          "name": "",
          "type": "address"
        }
      ],
      "payable": false,
      "stateMutability": "view",
      "type": "function"
    },
    {
      "constant": true,
      "inputs": [],
      "name": "owner",
      "outputs": [
        {
          "internalType": "address",
          "name": "",
          "type": "address"
        }
      ],
      "payable": false,
      "stateMutability": "view",
      "type": "function"
    },
    {
      "constant": true,
      "inputs": [],
      "name": "proposerRate",
      "outputs": [
        {
          "internalType": "uint256",
          "name": "",
          "type": "uint256"
        }
      ],
      "payable": false,
      "stateMutability": "view",
      "type": "function"
    },
    {
      "constant": true,
      "inputs": [],
      "name": "registry",
      "outputs": [
        {
          "internalType": "contract Registry",
          "name": "",
          "type": "address"
        }
      ],
      "payable": false,
      "stateMutability": "view",
      "type": "function"
    },
    {
      "constant": false,
      "inputs": [],
      "name": "renounceOwnership",
      "outputs": [],
      "payable": false,
      "stateMutability": "nonpayable",
      "type": "function"
    },
    {
      "constant": true,
      "inputs": [],
      "name": "reportRate",
      "outputs": [
        {
          "internalType": "uint256",
          "name": "",
          "type": "uint256"
        }
      ],
      "payable": false,
      "stateMutability": "view",
      "type": "function"
    },
    {
      "constant": true,
      "inputs": [],
      "name": "slashingNonce",
      "outputs": [
        {
          "internalType": "uint256",
          "name": "",
          "type": "uint256"
        }
      ],
      "payable": false,
      "stateMutability": "view",
      "type": "function"
    },
    {
      "constant": false,
      "inputs": [
        {
          "internalType": "address",
          "name": "newOwner",
          "type": "address"
        }
      ],
      "name": "transferOwnership",
      "outputs": [],
      "payable": false,
      "stateMutability": "nonpayable",
      "type": "function"
    },
    {
      "constant": false,
      "inputs": [
        {
          "internalType": "bytes",
          "name": "data",
          "type": "bytes"
        },
        {
          "internalType": "bytes",
          "name": "sigs",
          "type": "bytes"
        }
      ],
      "name": "updateSlashedAmounts",
      "outputs": [],
      "payable": false,
      "stateMutability": "nonpayable",
      "type": "function"
    },
    {
      "constant": true,
      "inputs": [
        {
          "internalType": "bytes32",
          "name": "voteHash",
          "type": "bytes32"
        },
        {
          "internalType": "bytes",
          "name": "sigs",
          "type": "bytes"
        }
      ],
      "name": "verifyConsensus",
      "outputs": [
        {
          "internalType": "bool",
          "name": "",
          "type": "bool"
        }
      ],
      "payable": false,
      "stateMutability": "view",
      "type": "function"
    },
    {
      "constant": false,
      "inputs": [
        {
          "internalType": "uint256",
          "name": "newReportRate",
          "type": "uint256"
        }
      ],
      "name": "updateReportRate",
      "outputs": [],
      "payable": false,
      "stateMutability": "nonpayable",
      "type": "function"
    },
    {
      "constant": false,
      "inputs": [
        {
          "internalType": "uint256",
          "name": "newProposerRate",
          "type": "uint256"
        }
      ],
      "name": "updateProposerRate",
      "outputs": [],
      "payable": false,
      "stateMutability": "nonpayable",
      "type": "function"
    },
    {
      "constant": false,
      "inputs": [
        {
          "internalType": "string",
          "name": "_heimdallId",
          "type": "string"
        }
      ],
      "name": "setHeimdallId",
      "outputs": [],
      "payable": false,
      "stateMutability": "nonpayable",
      "type": "function"
    },
    {
      "constant": false,
      "inputs": [
        {
          "internalType": "uint256",
          "name": "value",
          "type": "uint256"
        },
        {
          "internalType": "address",
          "name": "token",
          "type": "address"
        },
        {
          "internalType": "address",
          "name": "destination",
          "type": "address"
        }
      ],
      "name": "drainTokens",
      "outputs": [],
      "payable": false,
      "stateMutability": "nonpayable",
      "type": "function"
    }
  ],
  "bytecode": "0x608060405260056001556032600255600560035534801561001f57600080fd5b506040516116603803806116608339818101604052606081101561004257600080fd5b8151602083015160408085018051915193959294830192918464010000000082111561006d57600080fd5b90830190602082018581111561008257600080fd5b825164010000000081118282018810171561009c57600080fd5b82525081516020918201929091019080838360005b838110156100c95781810151838201526020016100b1565b50505050905090810190601f1680156100f65780820380516001836020036101000a031916815260200191505b506040819052600780546001600160a01b0319163317908190556001600160a01b03169350600092507f8be0079c531659141344cd1fd0a4f28419497f9722a3daafe3b4186f6b6457e091508290a3600580546001600160a01b038086166001600160a01b03199283161790925560068054928516929091169190911790556040518151829160209081019182918401908083835b602083106101aa5780518252601f19909201916020918201910161018b565b6001836020036101000a03801982511681845116808217855250505050505090500191505060405160208183030381529060405280519060200120600081905550505050611463806101fd6000396000f3fe608060405234801561001057600080fd5b50600436106101165760003560e01c8063b7a071e9116100a2578063e5bbd4a711610071578063e5bbd4a7146103e2578063ea0688b3146103ff578063f24ccbfe146104a3578063f2fde38b146104ab578063fbc3dd36146104d157610116565b8063b7a071e9146102f4578063bbcfbbb014610311578063c25593be146103bc578063d5b844eb146103c457610116565b8063715018a6116100e9578063715018a61461029c5780637b103999146102a45780638da5cb5b146102c85780638f32d59b146102d0578063a2d32176146102ec57610116565b80633199e3051461011b57806343f7505a14610135578063556b2ce91461016b57806367a4f7c614610173575b600080fd5b6101236104d9565b60408051918252519081900360200190f35b6101696004803603606081101561014b57600080fd5b508035906001600160a01b03602082013581169160400135166104df565b005b6101236105c4565b6101696004803603604081101561018957600080fd5b810190602081018135600160201b8111156101a357600080fd5b8201836020820111156101b557600080fd5b803590602001918460018302840111600160201b831117156101d657600080fd5b91908080601f0160208091040260200160405190810160405280939291908181526020018383808284376000920191909152509295949360208101935035915050600160201b81111561022857600080fd5b82018360208201111561023a57600080fd5b803590602001918460018302840111600160201b8311171561025b57600080fd5b91908080601f0160208091040260200160405190810160405280939291908181526020018383808284376000920191909152509295506105ca945050505050565b610169610cf9565b6102ac610d54565b604080516001600160a01b039092168252519081900360200190f35b6102ac610d63565b6102d8610d72565b604080519115158252519081900360200190f35b610123610d83565b6101696004803603602081101561030a57600080fd5b5035610d89565b6102d86004803603604081101561032757600080fd5b81359190810190604081016020820135600160201b81111561034857600080fd5b82018360208201111561035a57600080fd5b803590602001918460018302840111600160201b8311171561037b57600080fd5b91908080601f016020809104026020016040519081016040528093929190818152602001838380828437600092019190915250929550610dac945050505050565b6101236110f8565b6103cc6110fe565b6040805160ff9092168252519081900360200190f35b610169600480360360208110156103f857600080fd5b5035611103565b6101696004803603602081101561041557600080fd5b810190602081018135600160201b81111561042f57600080fd5b82018360208201111561044157600080fd5b803590602001918460018302840111600160201b8311171561046257600080fd5b91908080601f016020809104026020016040519081016040528093929190818152602001838380828437600092019190915250929550611126945050505050565b6102ac6111ae565b610169600480360360208110156104c157600080fd5b50356001600160a01b03166111bd565b6101236111da565b60025481565b6104e7610d72565b6104f057600080fd5b816001600160a01b031663a9059cbb82856040518363ffffffff1660e01b815260040180836001600160a01b03166001600160a01b0316815260200182815260200192505050602060405180830381600087803b15801561055057600080fd5b505af1158015610564573d6000803e3d6000fd5b505050506040513d602081101561057a57600080fd5b50516105bf576040805162461bcd60e51b815260206004820152600f60248201526e151c985b9cd9995c8819985a5b1959608a1b604482015290519081900360640190fd5b505050565b60035481565b60008060608480602001905160608110156105e457600080fd5b81516020830151604080850180519151939592948301929184600160201b82111561060e57600080fd5b90830190602082018581111561062357600080fd5b8251600160201b81118282018810171561063c57600080fd5b82525081516020918201929091019080838360005b83811015610669578181015183820152602001610651565b50505050905090810190601f1680156106965780820380516001836020036101000a031916815260200191505b506040525050509250925092506106b960016004546111e090919063ffffffff16565b6004819055831461070a576040805162461bcd60e51b8152602060048201526016602482015275496e76616c696420736c617368696e67206e6f6e636560501b604482015290519081900360640190fd5b60055460408051630a1ef8f960e21b815290516000926001600160a01b03169163287be3e4916004808301926020929190829003018186803b15801561074f57600080fd5b505afa158015610763573d6000803e3d6000fd5b505050506040513d602081101561077957600080fd5b50516040805180820182526001808252600160f81b60208381019182529351949550600094859461085b94938d93929091019182918083835b602083106107d15780518252601f1990920191602091820191016107b2565b51815160209384036101000a600019018019909216911617905285519190930192850191508083835b602083106108195780518252601f1990920191602091820191016107fa565b6001836020036101000a038019825116818451168082178552505050505050905001925050506040516020818303038152906040528051906020012088610dac565b6108a3576040805162461bcd60e51b81526020600482015260146024820152730c8bcccacc48141bddd95c881c995c5d5a5c995960621b604482015290519081900360640190fd5b6000836001600160a01b0316635e47655f866040518263ffffffff1660e01b81526004018080602001828103825283818151815260200191508051906020019080838360005b838110156109015781810151838201526020016108e9565b50505050905090810190601f16801561092e5780820380516001836020036101000a031916815260200191505b5092505050602060405180830381600087803b15801561094d57600080fd5b505af1158015610961573d6000803e3d6000fd5b505050506040513d602081101561097757600080fd5b505160065460408051637dbbe4a760e11b8152600481018b90526024810184905290519293506001600160a01b039091169163fb77c94e9160448082019260009290919082900301818387803b1580156109d057600080fd5b505af11580156109e4573d6000803e3d6000fd5b505050506000610a106064610a04600154856111f990919063ffffffff16565b9063ffffffff61122016565b9050610a22828263ffffffff61124216565b9150846001600160a01b031663bc8756a9600084306040518463ffffffff1660e01b815260040180848152602001838152602001826001600160a01b03166001600160a01b031681526020019350505050602060405180830381600087803b158015610a8d57600080fd5b505af1158015610aa1573d6000803e3d6000fd5b505050506040513d6020811015610ab757600080fd5b5051610afc576040805162461bcd60e51b815260206004820152600f60248201526e151c985b9cd9995c8819985a5b1959608a1b604482015290519081900360640190fd5b336001600160a01b03881614610c1d576000610b286064610a04600254856111f990919063ffffffff16565b9050856001600160a01b031663bc8756a96000838b6040518463ffffffff1660e01b815260040180848152602001838152602001826001600160a01b03166001600160a01b031681526020019350505050602060405180830381600087803b158015610b9357600080fd5b505af1158015610ba7573d6000803e3d6000fd5b505050506040513d6020811015610bbd57600080fd5b5051610c09576040805162461bcd60e51b8152602060048201526016602482015275109bdd5b9d1e481d1c985b9cd9995c8819985a5b195960521b604482015290519081900360640190fd5b610c19828263ffffffff61124216565b9150505b6040805163bc8756a960e01b81526000600482018190526024820184905233604483015291516001600160a01b0388169263bc8756a992606480820193602093909283900390910190829087803b158015610c7757600080fd5b505af1158015610c8b573d6000803e3d6000fd5b505050506040513d6020811015610ca157600080fd5b5051610ced576040805162461bcd60e51b8152602060048201526016602482015275109bdd5b9d1e481d1c985b9cd9995c8819985a5b195960521b604482015290519081900360640190fd5b50505050505050505050565b610d01610d72565b610d0a57600080fd5b6007546040516000916001600160a01b0316907f8be0079c531659141344cd1fd0a4f28419497f9722a3daafe3b4186f6b6457e0908390a3600780546001600160a01b0319169055565b6005546001600160a01b031681565b6007546001600160a01b031690565b6007546001600160a01b0316331490565b60045481565b610d91610d72565b610d9a57600080fd5b60008111610da757600080fd5b600155565b600080600560009054906101000a90046001600160a01b03166001600160a01b031663287be3e46040518163ffffffff1660e01b815260040160206040518083038186803b158015610dfd57600080fd5b505afa158015610e11573d6000803e3d6000fd5b505050506040513d6020811015610e2757600080fd5b50519050600080805b85518167ffffffffffffffff16101561105c576060610e5b878367ffffffffffffffff166041611257565b90506000610e6f898363ffffffff6112d716565b90506000866001600160a01b0316633862da0b836040518263ffffffff1660e01b815260040180826001600160a01b03166001600160a01b0316815260200191505060206040518083038186803b158015610ec957600080fd5b505afa158015610edd573d6000803e3d6000fd5b505050506040513d6020811015610ef357600080fd5b505190506001600160a01b038281169086161415610f135750505061105c565b866001600160a01b0316632649263a826040518263ffffffff1660e01b81526004018082815260200191505060206040518083038186803b158015610f5757600080fd5b505afa158015610f6b573d6000803e3d6000fd5b505050506040513d6020811015610f8157600080fd5b50518015610fa05750846001600160a01b0316826001600160a01b0316115b1561105157819450600080886001600160a01b03166335aa2e44846040518263ffffffff1660e01b8152600401808281526020019150506101a06040518083038186803b158015610ff057600080fd5b505afa158015611004573d6000803e3d6000fd5b505050506040513d6101a081101561101b57600080fd5b50805161016090910151909250905061103a828263ffffffff6111e016565b915061104c888363ffffffff6111e016565b975050505b505050604101610e30565b506110e960016110dd6003610a046002886001600160a01b031663a47690716040518163ffffffff1660e01b815260040160206040518083038186803b1580156110a557600080fd5b505afa1580156110b9573d6000803e3d6000fd5b505050506040513d60208110156110cf57600080fd5b50519063ffffffff6111f916565b9063ffffffff6111e016565b82101593505050505b92915050565b60015481565b600281565b61110b610d72565b61111457600080fd5b6000811161112157600080fd5b600255565b61112e610d72565b61113757600080fd5b806040516020018082805190602001908083835b6020831061116a5780518252601f19909201916020918201910161114b565b6001836020036101000a0380198251168184511680821785525050505050509050019150506040516020818303038152906040528051906020012060008190555050565b6006546001600160a01b031681565b6111c5610d72565b6111ce57600080fd5b6111d7816113bf565b50565b60005481565b6000828201838110156111f257600080fd5b9392505050565b600082611208575060006110f2565b8282028284828161121557fe5b04146111f257600080fd5b600080821161122e57600080fd5b600082848161123957fe5b04949350505050565b60008282111561125157600080fd5b50900390565b60608183018451101561126957600080fd5b606082158015611284576040519150602082016040526112ce565b6040519150601f8416801560200281840101858101878315602002848b0101015b818310156112bd5780518352602092830192016112a5565b5050858452601f01601f1916604052505b50949350505050565b60008060008084516041146112f257600093505050506110f2565b50505060208201516040830151604184015160ff16601b81101561131457601b015b8060ff16601b1415801561132c57508060ff16601c14155b1561133d57600093505050506110f2565b60408051600080825260208083018085528a905260ff85168385015260608301879052608083018690529251909260019260a080820193601f1981019281900390910190855afa158015611395573d6000803e3d6000fd5b5050604051601f1901519150506001600160a01b0381166113b557600080fd5b9695505050505050565b6001600160a01b0381166113d257600080fd5b6007546040516001600160a01b038084169216907f8be0079c531659141344cd1fd0a4f28419497f9722a3daafe3b4186f6b6457e090600090a3600780546001600160a01b0319166001600160a01b039290921691909117905556fea265627a7a7231582088d53b1df30a08ce9774bd708b16d9860531ea3be9522c2aea761d5fc0671bf064736f6c63430005110032",
  "source": "pragma solidity ^0.5.2;\n\nimport {Ownable} from \"openzeppelin-solidity/contracts/ownership/Ownable.sol\";\nimport {SafeMath} from \"openzeppelin-solidity/contracts/math/SafeMath.sol\";\nimport {RLPReader} from \"solidity-rlp/contracts/RLPReader.sol\";\nimport {IERC20} from \"openzeppelin-solidity/contracts/token/ERC20/IERC20.sol\";\n\nimport {BytesLib} from \"../../common/lib/BytesLib.sol\";\nimport {ECVerify} from \"../../common/lib/ECVerify.sol\";\n\nimport {StakeManager} from \"../stakeManager/StakeManager.sol\";\nimport {IValidatorShare} from \"../validatorShare/IValidatorShare.sol\";\nimport {Registry} from \"../../common/Registry.sol\";\nimport {StakingInfo} from \"../StakingInfo.sol\";\nimport \"./ISlashingManager.sol\";\n\n\ncontract SlashingManager is ISlashingManager, Ownable {\n    using SafeMath for uint256;\n    using ECVerify for bytes32;\n    using RLPReader for bytes;\n    using RLPReader for RLPReader.RLPItem;\n\n    modifier onlyStakeManager() {\n        require(registry.getStakeManagerAddress() == msg.sender);\n        _;\n    }\n\n    constructor(\n        address _registry,\n        address _logger,\n        string memory _heimdallId\n    ) public {\n        registry = Registry(_registry);\n        logger = StakingInfo(_logger);\n        heimdallId = keccak256(abi.encodePacked(_heimdallId));\n    }\n\n    function updateSlashedAmounts(bytes memory data, bytes memory sigs) public {\n        (uint256 _slashingNonce, address proposer, bytes memory _slashingInfoList) = abi.decode(\n            data,\n            (uint256, address, bytes)\n        );\n\n        slashingNonce = slashingNonce.add(1);\n        require(slashingNonce == _slashingNonce, \"Invalid slashing nonce\");\n        StakeManager stakeManager = StakeManager(registry.getStakeManagerAddress());\n\n        uint256 stakePower;\n        uint256 activeTwoByThree;\n        require(verifyConsensus(keccak256(abi.encodePacked(bytes(hex\"01\"), data)), sigs), \"2/3+1 Power required\");\n        //slashingInfoList[]=[[valiD,am,isJailed]]\n        uint256 slashedAmount = stakeManager.slash(_slashingInfoList);\n        logger.logSlashed(_slashingNonce, slashedAmount);\n\n        uint256 bounty = (slashedAmount.mul(reportRate)).div(100);\n        slashedAmount = slashedAmount.sub(bounty);\n\n        require(\n            stakeManager.transferFunds(\n                0, //placeholder\n                slashedAmount,\n                address(this)\n            ),\n            \"Transfer failed\"\n        );\n        // Transfer bounty to slashing reporter\n        if (msg.sender != proposer) {\n            // bounty\n            uint256 _bounty = (bounty.mul(proposerRate)).div(100);\n            require(\n                stakeManager.transferFunds(\n                    0, //placeholder\n                    _bounty,\n                    proposer\n                ),\n                \"Bounty transfer failed\"\n            );\n            bounty = bounty.sub(_bounty);\n        }\n        require(\n            stakeManager.transferFunds(\n                0, //placeholder\n                bounty,\n                msg.sender\n            ),\n            \"Bounty transfer failed\"\n        );\n    }\n\n    function verifyConsensus(bytes32 voteHash, bytes memory sigs) public view returns (bool) {\n        StakeManager stakeManager = StakeManager(registry.getStakeManagerAddress());\n        // total voting power\n        uint256 _stakePower;\n        address lastAdd; // cannot have address(0x0) as an owner\n        for (uint64 i = 0; i < sigs.length; i += 65) {\n            bytes memory sigElement = BytesLib.slice(sigs, i, 65);\n            address signer = voteHash.ecrecovery(sigElement);\n\n            uint256 validatorId = stakeManager.signerToValidator(signer);\n            // check if signer is staker and not proposer\n            if (signer == lastAdd) {\n                break;\n            } else if (stakeManager.isValidator(validatorId) && signer > lastAdd) {\n                lastAdd = signer;\n                uint256 amount;\n                uint256 delegatedAmount;\n                (amount,,,,,,,,,,,delegatedAmount,) = stakeManager.validators(validatorId);\n\n                // add delegation power\n                amount = amount.add(delegatedAmount);\n                _stakePower = _stakePower.add(amount);\n            }\n        }\n        return (_stakePower >= stakeManager.currentValidatorSetTotalStake().mul(2).div(3).add(1));\n    }\n\n    function updateReportRate(uint256 newReportRate) public onlyOwner {\n        require(newReportRate > 0);\n        reportRate = newReportRate;\n    }\n\n    function updateProposerRate(uint256 newProposerRate) public onlyOwner {\n        require(newProposerRate > 0);\n        proposerRate = newProposerRate;\n    }\n\n    // Housekeeping function. @todo remove later\n    function setHeimdallId(string memory _heimdallId) public onlyOwner {\n        heimdallId = keccak256(abi.encodePacked(_heimdallId));\n    }\n\n    // Housekeeping function. @todo remove later\n    function drainTokens(\n        uint256 value,\n        address token,\n        address destination\n    ) external onlyOwner {\n        require(IERC20(token).transfer(destination, value), \"Transfer failed\");\n    }\n}\n",
  "sourcePath": "/Users/ohm.jirapon/playground/blockhain/pos/plasma-ploygon/contracts/contracts/staking/slashing/SlashingManager.sol",
  "compiler": {
    "name": "solc",
    "version": "0.5.17+commit.d19bba13.Linux.g++"
  },
  "schemaVersion": "3.4.7",
  "updatedAt": "2022-07-08T08:23:54.522Z",
  "devdoc": {
    "methods": {
      "isOwner()": {
        "return": "true if `msg.sender` is the owner of the contract."
      },
      "owner()": {
        "return": "the address of the owner."
      },
      "renounceOwnership()": {
        "details": "Allows the current owner to relinquish control of the contract. It will not be possible to call the functions with the `onlyOwner` modifier anymore."
      },
      "transferOwnership(address)": {
        "details": "Allows the current owner to transfer control of the contract to a newOwner.",
        "params": {
          "newOwner": "The address to transfer ownership to."
        }
      }
    }
  },
  "userdoc": {
    "methods": {
      "renounceOwnership()": {
        "notice": "Renouncing ownership will leave the contract without an owner, thereby removing any functionality that is only available to the owner."
      }
    }
  }
}