{
  "contractName": "StakeManager",
  "abi": [
    {
      "constant": true,
      "inputs": [],
      "name": "auctionPeriod",
      "outputs": [
        {
          "internalType": "uint256",
          "name": "",
          "type": "uint256"
        }
      ],
      "payable": false,
      "stateMutability": "view",
      "type": "function"
    },
    {
      "constant": true,
      "inputs": [],
      "name": "totalRewards",
      "outputs": [
        {
          "internalType": "uint256",
          "name": "",
          "type": "uint256"
        }
      ],
      "payable": false,
      "stateMutability": "view",
      "type": "function"
    },
    {
      "constant": true,
      "inputs": [],
      "name": "WITHDRAWAL_DELAY",
      "outputs": [
        {
          "internalType": "uint256",
          "name": "",
          "type": "uint256"
        }
      ],
      "payable": false,
      "stateMutability": "view",
      "type": "function"
    },
    {
      "constant": true,
      "inputs": [],
      "name": "accountStateRoot",
      "outputs": [
        {
          "internalType": "bytes32",
          "name": "",
          "type": "bytes32"
        }
      ],
      "payable": false,
      "stateMutability": "view",
      "type": "function"
    },
    {
      "constant": true,
      "inputs": [],
      "name": "checkPointBlockInterval",
      "outputs": [
        {
          "internalType": "uint256",
          "name": "",
          "type": "uint256"
        }
      ],
      "payable": false,
      "stateMutability": "view",
      "type": "function"
    },
    {
      "constant": true,
      "inputs": [],
      "name": "NFTContract",
      "outputs": [
        {
          "internalType": "contract StakingNFT",
          "name": "",
          "type": "address"
        }
      ],
      "payable": false,
      "stateMutability": "view",
      "type": "function"
    },
    {
      "constant": true,
      "inputs": [],
      "name": "proposerBonus",
      "outputs": [
        {
          "internalType": "uint256",
          "name": "",
          "type": "uint256"
        }
      ],
      "payable": false,
      "stateMutability": "view",
      "type": "function"
    },
    {
      "constant": true,
      "inputs": [
        {
          "internalType": "uint256",
          "name": "",
          "type": "uint256"
        }
      ],
      "name": "validators",
      "outputs": [
        {
          "internalType": "uint256",
          "name": "amount",
          "type": "uint256"
        },
        {
          "internalType": "uint256",
          "name": "reward",
          "type": "uint256"
        },
        {
          "internalType": "uint256",
          "name": "activationEpoch",
          "type": "uint256"
        },
        {
          "internalType": "uint256",
          "name": "deactivationEpoch",
          "type": "uint256"
        },
        {
          "internalType": "uint256",
          "name": "jailTime",
          "type": "uint256"
        },
        {
          "internalType": "address",
          "name": "signer",
          "type": "address"
        },
        {
          "internalType": "address",
          "name": "contractAddress",
          "type": "address"
        },
        {
          "internalType": "enum StakeManagerStorage.Status",
          "name": "status",
          "type": "uint8"
        }
      ],
      "payable": false,
      "stateMutability": "view",
      "type": "function"
    },
    {
      "constant": true,
      "inputs": [
        {
          "internalType": "address",
          "name": "",
          "type": "address"
        }
      ],
      "name": "signerToValidator",
      "outputs": [
        {
          "internalType": "uint256",
          "name": "",
          "type": "uint256"
        }
      ],
      "payable": false,
      "stateMutability": "view",
      "type": "function"
    },
    {
      "constant": true,
      "inputs": [],
      "name": "minDeposit",
      "outputs": [
        {
          "internalType": "uint256",
          "name": "",
          "type": "uint256"
        }
      ],
      "payable": false,
      "stateMutability": "view",
      "type": "function"
    },
    {
      "constant": true,
      "inputs": [],
      "name": "signerUpdateLimit",
      "outputs": [
        {
          "internalType": "uint256",
          "name": "",
          "type": "uint256"
        }
      ],
      "payable": false,
      "stateMutability": "view",
      "type": "function"
    },
    {
      "constant": true,
      "inputs": [],
      "name": "validatorThreshold",
      "outputs": [
        {
          "internalType": "uint256",
          "name": "",
          "type": "uint256"
        }
      ],
      "payable": false,
      "stateMutability": "view",
      "type": "function"
    },
    {
      "constant": true,
      "inputs": [
        {
          "internalType": "uint256",
          "name": "",
          "type": "uint256"
        }
      ],
      "name": "validatorAuction",
      "outputs": [
        {
          "internalType": "uint256",
          "name": "amount",
          "type": "uint256"
        },
        {
          "internalType": "uint256",
          "name": "startEpoch",
          "type": "uint256"
        },
        {
          "internalType": "address",
          "name": "user",
          "type": "address"
        }
      ],
      "payable": false,
      "stateMutability": "view",
      "type": "function"
    },
    {
      "constant": true,
      "inputs": [],
      "name": "delegationEnabled",
      "outputs": [
        {
          "internalType": "bool",
          "name": "",
          "type": "bool"
        }
      ],
      "payable": false,
      "stateMutability": "view",
      "type": "function"
    },
    {
      "constant": true,
      "inputs": [],
      "name": "NFTCounter",
      "outputs": [
        {
          "internalType": "uint256",
          "name": "",
          "type": "uint256"
        }
      ],
      "payable": false,
      "stateMutability": "view",
      "type": "function"
    },
    {
      "constant": true,
      "inputs": [],
      "name": "governance",
      "outputs": [
        {
          "internalType": "contract IGovernance",
          "name": "",
          "type": "address"
        }
      ],
      "payable": false,
      "stateMutability": "view",
      "type": "function"
    },
    {
      "constant": true,
      "inputs": [
        {
          "internalType": "uint256",
          "name": "",
          "type": "uint256"
        }
      ],
      "name": "validatorState",
      "outputs": [
        {
          "internalType": "int256",
          "name": "amount",
          "type": "int256"
        },
        {
          "internalType": "int256",
          "name": "stakerCount",
          "type": "int256"
        }
      ],
      "payable": false,
      "stateMutability": "view",
      "type": "function"
    },
    {
      "constant": true,
      "inputs": [],
      "name": "dynasty",
      "outputs": [
        {
          "internalType": "uint256",
          "name": "",
          "type": "uint256"
        }
      ],
      "payable": false,
      "stateMutability": "view",
      "type": "function"
    },
    {
      "constant": false,
      "inputs": [],
      "name": "renounceOwnership",
      "outputs": [],
      "payable": false,
      "stateMutability": "nonpayable",
      "type": "function"
    },
    {
      "constant": true,
      "inputs": [],
      "name": "currentEpoch",
      "outputs": [
        {
          "internalType": "uint256",
          "name": "",
          "type": "uint256"
        }
      ],
      "payable": false,
      "stateMutability": "view",
      "type": "function"
    },
    {
      "constant": true,
      "inputs": [],
      "name": "replacementCoolDown",
      "outputs": [
        {
          "internalType": "uint256",
          "name": "",
          "type": "uint256"
        }
      ],
      "payable": false,
      "stateMutability": "view",
      "type": "function"
    },
    {
      "constant": true,
      "inputs": [
        {
          "internalType": "address",
          "name": "",
          "type": "address"
        }
      ],
      "name": "userFeeExit",
      "outputs": [
        {
          "internalType": "uint256",
          "name": "",
          "type": "uint256"
        }
      ],
      "payable": false,
      "stateMutability": "view",
      "type": "function"
    },
    {
      "constant": true,
      "inputs": [],
      "name": "registry",
      "outputs": [
        {
          "internalType": "address",
          "name": "",
          "type": "address"
        }
      ],
      "payable": false,
      "stateMutability": "view",
      "type": "function"
    },
    {
      "constant": true,
      "inputs": [],
      "name": "CHECKPOINT_REWARD",
      "outputs": [
        {
          "internalType": "uint256",
          "name": "",
          "type": "uint256"
        }
      ],
      "payable": false,
      "stateMutability": "view",
      "type": "function"
    },
    {
      "constant": true,
      "inputs": [],
      "name": "totalStaked",
      "outputs": [
        {
          "internalType": "uint256",
          "name": "",
          "type": "uint256"
        }
      ],
      "payable": false,
      "stateMutability": "view",
      "type": "function"
    },
    {
      "constant": true,
      "inputs": [],
      "name": "owner",
      "outputs": [
        {
          "internalType": "address",
          "name": "",
          "type": "address"
        }
      ],
      "payable": false,
      "stateMutability": "view",
      "type": "function"
    },
    {
      "constant": true,
      "inputs": [],
      "name": "isOwner",
      "outputs": [
        {
          "internalType": "bool",
          "name": "",
          "type": "bool"
        }
      ],
      "payable": false,
      "stateMutability": "view",
      "type": "function"
    },
    {
      "constant": true,
      "inputs": [],
      "name": "rootChain",
      "outputs": [
        {
          "internalType": "address",
          "name": "",
          "type": "address"
        }
      ],
      "payable": false,
      "stateMutability": "view",
      "type": "function"
    },
    {
      "constant": true,
      "inputs": [],
      "name": "totalHeimdallFee",
      "outputs": [
        {
          "internalType": "uint256",
          "name": "",
          "type": "uint256"
        }
      ],
      "payable": false,
      "stateMutability": "view",
      "type": "function"
    },
    {
      "constant": false,
      "inputs": [],
      "name": "unlock",
      "outputs": [],
      "payable": false,
      "stateMutability": "nonpayable",
      "type": "function"
    },
    {
      "constant": true,
      "inputs": [],
      "name": "factory",
      "outputs": [
        {
          "internalType": "contract ValidatorShareFactory",
          "name": "",
          "type": "address"
        }
      ],
      "payable": false,
      "stateMutability": "view",
      "type": "function"
    },
    {
      "constant": true,
      "inputs": [],
      "name": "totalRewardsLiquidated",
      "outputs": [
        {
          "internalType": "uint256",
          "name": "",
          "type": "uint256"
        }
      ],
      "payable": false,
      "stateMutability": "view",
      "type": "function"
    },
    {
      "constant": true,
      "inputs": [],
      "name": "locked",
      "outputs": [
        {
          "internalType": "bool",
          "name": "",
          "type": "bool"
        }
      ],
      "payable": false,
      "stateMutability": "view",
      "type": "function"
    },
    {
      "constant": true,
      "inputs": [
        {
          "internalType": "uint256",
          "name": "",
          "type": "uint256"
        }
      ],
      "name": "latestSignerUpdateEpoch",
      "outputs": [
        {
          "internalType": "uint256",
          "name": "",
          "type": "uint256"
        }
      ],
      "payable": false,
      "stateMutability": "view",
      "type": "function"
    },
    {
      "constant": false,
      "inputs": [
        {
          "internalType": "address",
          "name": "newRootChain",
          "type": "address"
        }
      ],
      "name": "changeRootChain",
      "outputs": [],
      "payable": false,
      "stateMutability": "nonpayable",
      "type": "function"
    },
    {
      "constant": true,
      "inputs": [],
      "name": "logger",
      "outputs": [
        {
          "internalType": "contract StakingInfo",
          "name": "",
          "type": "address"
        }
      ],
      "payable": false,
      "stateMutability": "view",
      "type": "function"
    },
    {
      "constant": false,
      "inputs": [
        {
          "internalType": "address",
          "name": "newOwner",
          "type": "address"
        }
      ],
      "name": "transferOwnership",
      "outputs": [],
      "payable": false,
      "stateMutability": "nonpayable",
      "type": "function"
    },
    {
      "constant": false,
      "inputs": [],
      "name": "lock",
      "outputs": [],
      "payable": false,
      "stateMutability": "nonpayable",
      "type": "function"
    },
    {
      "constant": true,
      "inputs": [],
      "name": "minHeimdallFee",
      "outputs": [
        {
          "internalType": "uint256",
          "name": "",
          "type": "uint256"
        }
      ],
      "payable": false,
      "stateMutability": "view",
      "type": "function"
    },
    {
      "constant": true,
      "inputs": [],
      "name": "token",
      "outputs": [
        {
          "internalType": "contract IERC20",
          "name": "",
          "type": "address"
        }
      ],
      "payable": false,
      "stateMutability": "view",
      "type": "function"
    },
    {
      "inputs": [],
      "payable": false,
      "stateMutability": "nonpayable",
      "type": "constructor"
    },
    {
      "anonymous": false,
      "inputs": [
        {
          "indexed": true,
          "internalType": "address",
          "name": "previousRootChain",
          "type": "address"
        },
        {
          "indexed": true,
          "internalType": "address",
          "name": "newRootChain",
          "type": "address"
        }
      ],
      "name": "RootChainChanged",
      "type": "event"
    },
    {
      "anonymous": false,
      "inputs": [
        {
          "indexed": true,
          "internalType": "address",
          "name": "previousOwner",
          "type": "address"
        },
        {
          "indexed": true,
          "internalType": "address",
          "name": "newOwner",
          "type": "address"
        }
      ],
      "name": "OwnershipTransferred",
      "type": "event"
    },
    {
      "constant": false,
      "inputs": [
        {
          "internalType": "bool",
          "name": "enabled",
          "type": "bool"
        }
      ],
      "name": "setDelegationEnabled",
      "outputs": [],
      "payable": false,
      "stateMutability": "nonpayable",
      "type": "function"
    },
    {
      "constant": false,
      "inputs": [
        {
          "internalType": "address",
          "name": "user",
          "type": "address"
        },
        {
          "internalType": "uint256",
          "name": "heimdallFee",
          "type": "uint256"
        }
      ],
      "name": "topUpForFee",
      "outputs": [],
      "payable": false,
      "stateMutability": "nonpayable",
      "type": "function"
    },
    {
      "constant": true,
      "inputs": [
        {
          "internalType": "uint256",
          "name": "tokenId",
          "type": "uint256"
        }
      ],
      "name": "ownerOf",
      "outputs": [
        {
          "internalType": "address",
          "name": "",
          "type": "address"
        }
      ],
      "payable": false,
      "stateMutability": "view",
      "type": "function"
    },
    {
      "constant": true,
      "inputs": [],
      "name": "epoch",
      "outputs": [
        {
          "internalType": "uint256",
          "name": "",
          "type": "uint256"
        }
      ],
      "payable": false,
      "stateMutability": "view",
      "type": "function"
    },
    {
      "constant": true,
      "inputs": [],
      "name": "withdrawalDelay",
      "outputs": [
        {
          "internalType": "uint256",
          "name": "",
          "type": "uint256"
        }
      ],
      "payable": false,
      "stateMutability": "view",
      "type": "function"
    },
    {
      "constant": true,
      "inputs": [
        {
          "internalType": "uint256",
          "name": "validatorId",
          "type": "uint256"
        }
      ],
      "name": "validatorStake",
      "outputs": [
        {
          "internalType": "uint256",
          "name": "",
          "type": "uint256"
        }
      ],
      "payable": false,
      "stateMutability": "view",
      "type": "function"
    },
    {
      "constant": false,
      "inputs": [
        {
          "internalType": "uint256",
          "name": "accumFeeAmount",
          "type": "uint256"
        },
        {
          "internalType": "uint256",
          "name": "index",
          "type": "uint256"
        },
        {
          "internalType": "bytes",
          "name": "proof",
          "type": "bytes"
        }
      ],
      "name": "claimFee",
      "outputs": [],
      "payable": false,
      "stateMutability": "nonpayable",
      "type": "function"
    },
    {
      "constant": false,
      "inputs": [
        {
          "internalType": "uint256",
          "name": "amount",
          "type": "uint256"
        },
        {
          "internalType": "uint256",
          "name": "heimdallFee",
          "type": "uint256"
        },
        {
          "internalType": "bool",
          "name": "acceptDelegation",
          "type": "bool"
        },
        {
          "internalType": "bytes",
          "name": "signerPubkey",
          "type": "bytes"
        }
      ],
      "name": "stake",
      "outputs": [],
      "payable": false,
      "stateMutability": "nonpayable",
      "type": "function"
    },
    {
      "constant": true,
      "inputs": [
        {
          "internalType": "address",
          "name": "user",
          "type": "address"
        }
      ],
      "name": "totalStakedFor",
      "outputs": [
        {
          "internalType": "uint256",
          "name": "",
          "type": "uint256"
        }
      ],
      "payable": false,
      "stateMutability": "view",
      "type": "function"
    },
    {
      "constant": true,
      "inputs": [],
      "name": "supportsHistory",
      "outputs": [
        {
          "internalType": "bool",
          "name": "",
          "type": "bool"
        }
      ],
      "payable": false,
      "stateMutability": "pure",
      "type": "function"
    },
    {
      "constant": false,
      "inputs": [
        {
          "internalType": "uint256",
          "name": "validatorId",
          "type": "uint256"
        },
        {
          "internalType": "uint256",
          "name": "amount",
          "type": "uint256"
        }
      ],
      "name": "startAuction",
      "outputs": [],
      "payable": false,
      "stateMutability": "nonpayable",
      "type": "function"
    },
    {
      "constant": false,
      "inputs": [
        {
          "internalType": "uint256",
          "name": "validatorId",
          "type": "uint256"
        },
        {
          "internalType": "uint256",
          "name": "heimdallFee",
          "type": "uint256"
        },
        {
          "internalType": "bool",
          "name": "acceptDelegation",
          "type": "bool"
        },
        {
          "internalType": "bytes",
          "name": "signerPubkey",
          "type": "bytes"
        }
      ],
      "name": "confirmAuctionBid",
      "outputs": [],
      "payable": false,
      "stateMutability": "nonpayable",
      "type": "function"
    },
    {
      "constant": false,
      "inputs": [
        {
          "internalType": "uint256",
          "name": "validatorId",
          "type": "uint256"
        }
      ],
      "name": "unstake",
      "outputs": [],
      "payable": false,
      "stateMutability": "nonpayable",
      "type": "function"
    },
    {
      "constant": false,
      "inputs": [
        {
          "internalType": "uint256",
          "name": "validatorId",
          "type": "uint256"
        }
      ],
      "name": "forceUnstake",
      "outputs": [],
      "payable": false,
      "stateMutability": "nonpayable",
      "type": "function"
    },
    {
      "constant": false,
      "inputs": [
        {
          "internalType": "uint256",
          "name": "validatorId",
          "type": "uint256"
        },
        {
          "internalType": "uint256",
          "name": "amount",
          "type": "uint256"
        },
        {
          "internalType": "address",
          "name": "delegator",
          "type": "address"
        }
      ],
      "name": "transferFunds",
      "outputs": [
        {
          "internalType": "bool",
          "name": "",
          "type": "bool"
        }
      ],
      "payable": false,
      "stateMutability": "nonpayable",
      "type": "function"
    },
    {
      "constant": false,
      "inputs": [
        {
          "internalType": "uint256",
          "name": "validatorId",
          "type": "uint256"
        },
        {
          "internalType": "uint256",
          "name": "amount",
          "type": "uint256"
        },
        {
          "internalType": "address",
          "name": "delegator",
          "type": "address"
        }
      ],
      "name": "delegationDeposit",
      "outputs": [
        {
          "internalType": "bool",
          "name": "",
          "type": "bool"
        }
      ],
      "payable": false,
      "stateMutability": "nonpayable",
      "type": "function"
    },
    {
      "constant": false,
      "inputs": [
        {
          "internalType": "address",
          "name": "user",
          "type": "address"
        },
        {
          "internalType": "uint256",
          "name": "amount",
          "type": "uint256"
        },
        {
          "internalType": "uint256",
          "name": "heimdallFee",
          "type": "uint256"
        },
        {
          "internalType": "bool",
          "name": "acceptDelegation",
          "type": "bool"
        },
        {
          "internalType": "bytes",
          "name": "signerPubkey",
          "type": "bytes"
        }
      ],
      "name": "stakeFor",
      "outputs": [],
      "payable": false,
      "stateMutability": "nonpayable",
      "type": "function"
    },
    {
      "constant": false,
      "inputs": [
        {
          "internalType": "uint256",
          "name": "validatorId",
          "type": "uint256"
        }
      ],
      "name": "unstakeClaim",
      "outputs": [],
      "payable": false,
      "stateMutability": "nonpayable",
      "type": "function"
    },
    {
      "constant": false,
      "inputs": [
        {
          "internalType": "uint256",
          "name": "validatorId",
          "type": "uint256"
        },
        {
          "internalType": "uint256",
          "name": "amount",
          "type": "uint256"
        },
        {
          "internalType": "bool",
          "name": "stakeRewards",
          "type": "bool"
        }
      ],
      "name": "restake",
      "outputs": [],
      "payable": false,
      "stateMutability": "nonpayable",
      "type": "function"
    },
    {
      "constant": false,
      "inputs": [
        {
          "internalType": "uint256",
          "name": "validatorId",
          "type": "uint256"
        }
      ],
      "name": "withdrawRewards",
      "outputs": [],
      "payable": false,
      "stateMutability": "nonpayable",
      "type": "function"
    },
    {
      "constant": true,
      "inputs": [
        {
          "internalType": "address",
          "name": "user",
          "type": "address"
        }
      ],
      "name": "getValidatorId",
      "outputs": [
        {
          "internalType": "uint256",
          "name": "",
          "type": "uint256"
        }
      ],
      "payable": false,
      "stateMutability": "view",
      "type": "function"
    },
    {
      "constant": false,
      "inputs": [
        {
          "internalType": "address",
          "name": "_token",
          "type": "address"
        }
      ],
      "name": "setToken",
      "outputs": [],
      "payable": false,
      "stateMutability": "nonpayable",
      "type": "function"
    },
    {
      "constant": false,
      "inputs": [
        {
          "internalType": "uint256",
          "name": "newThreshold",
          "type": "uint256"
        }
      ],
      "name": "updateValidatorThreshold",
      "outputs": [],
      "payable": false,
      "stateMutability": "nonpayable",
      "type": "function"
    },
    {
      "constant": false,
      "inputs": [
        {
          "internalType": "uint256",
          "name": "_blocks",
          "type": "uint256"
        }
      ],
      "name": "updateCheckPointBlockInterval",
      "outputs": [],
      "payable": false,
      "stateMutability": "nonpayable",
      "type": "function"
    },
    {
      "constant": false,
      "inputs": [
        {
          "internalType": "uint256",
          "name": "newReward",
          "type": "uint256"
        }
      ],
      "name": "updateCheckpointReward",
      "outputs": [],
      "payable": false,
      "stateMutability": "nonpayable",
      "type": "function"
    },
    {
      "constant": false,
      "inputs": [
        {
          "internalType": "uint256",
          "name": "validatorId",
          "type": "uint256"
        },
        {
          "internalType": "address",
          "name": "newContractAddress",
          "type": "address"
        }
      ],
      "name": "updateContractAddress",
      "outputs": [],
      "payable": false,
      "stateMutability": "nonpayable",
      "type": "function"
    },
    {
      "constant": false,
      "inputs": [
        {
          "internalType": "address",
          "name": "newFactory",
          "type": "address"
        }
      ],
      "name": "updateContractFactory",
      "outputs": [],
      "payable": false,
      "stateMutability": "nonpayable",
      "type": "function"
    },
    {
      "constant": false,
      "inputs": [
        {
          "internalType": "uint256",
          "name": "validatorId",
          "type": "uint256"
        },
        {
          "internalType": "int256",
          "name": "amount",
          "type": "int256"
        }
      ],
      "name": "updateValidatorState",
      "outputs": [],
      "payable": false,
      "stateMutability": "nonpayable",
      "type": "function"
    },
    {
      "constant": false,
      "inputs": [
        {
          "internalType": "uint256",
          "name": "newDynasty",
          "type": "uint256"
        }
      ],
      "name": "updateDynastyValue",
      "outputs": [],
      "payable": false,
      "stateMutability": "nonpayable",
      "type": "function"
    },
    {
      "constant": false,
      "inputs": [
        {
          "internalType": "uint256",
          "name": "forNCheckpoints",
          "type": "uint256"
        }
      ],
      "name": "stopAuctions",
      "outputs": [],
      "payable": false,
      "stateMutability": "nonpayable",
      "type": "function"
    },
    {
      "constant": false,
      "inputs": [
        {
          "internalType": "uint256",
          "name": "newProposerBonus",
          "type": "uint256"
        }
      ],
      "name": "updateProposerBonus",
      "outputs": [],
      "payable": false,
      "stateMutability": "nonpayable",
      "type": "function"
    },
    {
      "constant": false,
      "inputs": [
        {
          "internalType": "uint256",
          "name": "_limit",
          "type": "uint256"
        }
      ],
      "name": "updateSignerUpdateLimit",
      "outputs": [],
      "payable": false,
      "stateMutability": "nonpayable",
      "type": "function"
    },
    {
      "constant": false,
      "inputs": [
        {
          "internalType": "uint256",
          "name": "_minDeposit",
          "type": "uint256"
        },
        {
          "internalType": "uint256",
          "name": "_minHeimdallFee",
          "type": "uint256"
        }
      ],
      "name": "updateMinAmounts",
      "outputs": [],
      "payable": false,
      "stateMutability": "nonpayable",
      "type": "function"
    },
    {
      "constant": false,
      "inputs": [
        {
          "internalType": "uint256",
          "name": "validatorId",
          "type": "uint256"
        },
        {
          "internalType": "bytes",
          "name": "signerPubkey",
          "type": "bytes"
        }
      ],
      "name": "updateSigner",
      "outputs": [],
      "payable": false,
      "stateMutability": "nonpayable",
      "type": "function"
    },
    {
      "constant": true,
      "inputs": [],
      "name": "currentValidatorSetSize",
      "outputs": [
        {
          "internalType": "uint256",
          "name": "",
          "type": "uint256"
        }
      ],
      "payable": false,
      "stateMutability": "view",
      "type": "function"
    },
    {
      "constant": true,
      "inputs": [],
      "name": "currentValidatorSetTotalStake",
      "outputs": [
        {
          "internalType": "uint256",
          "name": "",
          "type": "uint256"
        }
      ],
      "payable": false,
      "stateMutability": "view",
      "type": "function"
    },
    {
      "constant": true,
      "inputs": [
        {
          "internalType": "uint256",
          "name": "validatorId",
          "type": "uint256"
        }
      ],
      "name": "getValidatorContract",
      "outputs": [
        {
          "internalType": "address",
          "name": "",
          "type": "address"
        }
      ],
      "payable": false,
      "stateMutability": "view",
      "type": "function"
    },
    {
      "constant": true,
      "inputs": [
        {
          "internalType": "uint256",
          "name": "validatorId",
          "type": "uint256"
        }
      ],
      "name": "isValidator",
      "outputs": [
        {
          "internalType": "bool",
          "name": "",
          "type": "bool"
        }
      ],
      "payable": false,
      "stateMutability": "view",
      "type": "function"
    },
    {
      "constant": false,
      "inputs": [
        {
          "internalType": "uint256",
          "name": "blockInterval",
          "type": "uint256"
        },
        {
          "internalType": "bytes32",
          "name": "voteHash",
          "type": "bytes32"
        },
        {
          "internalType": "bytes32",
          "name": "stateRoot",
          "type": "bytes32"
        },
        {
          "internalType": "address",
          "name": "proposer",
          "type": "address"
        },
        {
          "internalType": "bytes",
          "name": "sigs",
          "type": "bytes"
        }
      ],
      "name": "checkSignatures",
      "outputs": [
        {
          "internalType": "uint256",
          "name": "",
          "type": "uint256"
        }
      ],
      "payable": false,
      "stateMutability": "nonpayable",
      "type": "function"
    },
    {
      "constant": false,
      "inputs": [
        {
          "internalType": "bytes",
          "name": "_slashingInfoList",
          "type": "bytes"
        }
      ],
      "name": "slash",
      "outputs": [
        {
          "internalType": "uint256",
          "name": "",
          "type": "uint256"
        }
      ],
      "payable": false,
      "stateMutability": "nonpayable",
      "type": "function"
    },
    {
      "constant": false,
      "inputs": [
        {
          "internalType": "uint256",
          "name": "validatorId",
          "type": "uint256"
        }
      ],
      "name": "unjail",
      "outputs": [],
      "payable": false,
      "stateMutability": "nonpayable",
      "type": "function"
    },
    {
      "constant": true,
      "inputs": [
        {
          "internalType": "bytes",
          "name": "pub",
          "type": "bytes"
        }
      ],
      "name": "pubToAddress",
      "outputs": [
        {
          "internalType": "address",
          "name": "",
          "type": "address"
        }
      ],
      "payable": false,
      "stateMutability": "pure",
      "type": "function"
    },
    {
      "constant": false,
      "inputs": [
        {
          "internalType": "uint256",
          "name": "validatorId",
          "type": "uint256"
        },
        {
          "internalType": "address",
          "name": "_token",
          "type": "address"
        },
        {
          "internalType": "address payable",
          "name": "destination",
          "type": "address"
        },
        {
          "internalType": "uint256",
          "name": "amount",
          "type": "uint256"
        }
      ],
      "name": "drainValidatorShares",
      "outputs": [],
      "payable": false,
      "stateMutability": "nonpayable",
      "type": "function"
    },
    {
      "constant": false,
      "inputs": [
        {
          "internalType": "address",
          "name": "destination",
          "type": "address"
        },
        {
          "internalType": "uint256",
          "name": "amount",
          "type": "uint256"
        }
      ],
      "name": "drain",
      "outputs": [],
      "payable": false,
      "stateMutability": "nonpayable",
      "type": "function"
    },
    {
      "constant": false,
      "inputs": [
        {
          "internalType": "address",
          "name": "_NFTContract",
          "type": "address"
        },
        {
          "internalType": "address",
          "name": "_stakingLogger",
          "type": "address"
        },
        {
          "internalType": "address",
          "name": "_validatorShareFactory",
          "type": "address"
        }
      ],
      "name": "reinitialize",
      "outputs": [],
      "payable": false,
      "stateMutability": "nonpayable",
      "type": "function"
    }
  ],
  "bytecode": "0x6080604052610dd86009556001600a55610dd8600b556901119931efd9147c0000600c55670de0b6b3a7640000600d55670de0b6b3a7640000600e55610100600f556064601055600b60115560016013556004600b54816200005d57fe5b04601655600a601755601a805460ff191660011790553480156200008057600080fd5b50600080546001600160a01b031916331780825560405182916001600160a01b03169082907f8be0079c531659141344cd1fd0a4f28419497f9722a3daafe3b4186f6b6457e0908290a3600280546001600160a01b0319166001600160a01b039290921691909117905550615b5480620000fb6000396000f3fe608060405234801561001057600080fd5b50600436106104b75760003560e01c806377939d1011610278578063bc8756a91161015c578063e8afa8e8116100ce578063f41a964211610092578063f41a96421461108d578063f4547a4d14611138578063f771fc8714611164578063f83d08ba14611181578063fba58f3414611189578063fc0c546a14611191576104b7565b8063e8afa8e814610ffd578063eceec1d314611023578063f24ccbfe14611040578063f28699fa14611048578063f2fde38b14611067576104b7565b8063cf30901211610120578063cf30901214610ed4578063d011027414610edc578063d7f5549d14610f80578063d86d53e714610f9d578063e1edc93014610fba578063e6692f4914610fe0576104b7565b8063bc8756a914610df2578063c45a015514610e24578063c8b194a214610e2c578063cbf383d514610eaf578063cd6b838814610ecc576104b7565b80639342c8f4116101f5578063a440ab1e116101b9578063a440ab1e14610d6e578063a476907114610d8b578063a69df4b514610d93578063a7ab696114610d9b578063b184be8114610da3578063b1d23f0214610dcf576104b7565b80639342c8f414610d01578063987ab9db14610d1e5780639a8a624314610d265780639b33f43414610d2e5780639ff1150014610d4b576104b7565b8063817b1cd21161023c578063817b1cd214610cc45780638da5cb5b14610ccc5780638f32d59b14610cd4578063900cf0cf14610cdc5780639146014914610ce4576104b7565b806377939d1014610c7e57806378f84a4414610c865780637b10399914610cac5780637d66975214610cb45780637f952d9514610cbc576104b7565b80634b341aed1161039f5780635c2488551161031c57806368cb812a116102e057806368cb812a14610b7c5780636901b25314610c2c5780637033e4a614610c5e5780637060054d14610c66578063715018a614610c6e5780637667180814610c76576104b7565b80635c24885514610a215780635e47655f14610a575780636352211e14610afb5780636365679814610b185780636400e38514610b44576104b7565b80635325e144116103635780635325e144146109a857806354b8c601146109ec5780635508d8e1146109f457806356342d8c146109fc5780635aa6e67514610a19576104b7565b80634b341aed146108885780634e3c83f1146108ae5780634fd101d7146108b65780634fdd20f1146108be5780634fee13fc14610985576104b7565b806317c2b9101161043857806331c2273b116103fc57806331c2273b1461075c578063342745861461078057806335aa2e44146107885780633862da0b1461081e57806341b3d1851461084457806348ab8b2a1461084c576104b7565b806317c2b910146106d357806325316411146106db5780632649263a146106e357806328cc4e41146107145780632e17de781461073f576104b7565b80630ebb172a1161047f5780630ebb172a14610645578063144fa6d71461064d57806316827b1b14610673578063174e683214610690578063178c2c83146106b6576104b7565b8063028c4c67146104bc578063066647a01461054157806306cfb104146106185780630cccfc58146106355780630e15561a1461063d575b600080fd5b61053f600480360360808110156104d257600080fd5b813591602081013591604082013515159190810190608081016060820135600160201b81111561050157600080fd5b82018360208201111561051357600080fd5b803590602001918460018302840111600160201b8311171561053457600080fd5b509092509050611199565b005b610606600480360360a081101561055757600080fd5b8135916020810135916040820135916001600160a01b036060820135169181019060a081016080820135600160201b81111561059257600080fd5b8201836020820111156105a457600080fd5b803590602001918460018302840111600160201b831117156105c557600080fd5b91908080601f0160208091040260200160405190810160405280939291908181526020018383808284376000920191909152509295506111e3945050505050565b60408051918252519081900360200190f35b61053f6004803603602081101561062e57600080fd5b503561135c565b610606611372565b610606611378565b61060661137e565b61053f6004803603602081101561066357600080fd5b50356001600160a01b0316611384565b61053f6004803603602081101561068957600080fd5b50356113ca565b610606600480360360208110156106a657600080fd5b50356001600160a01b031661145f565b61053f600480360360208110156106cc57600080fd5b50356114e9565b61060661182b565b610606611831565b610700600480360360208110156106f957600080fd5b5035611837565b604080519115158252519081900360200190f35b61053f6004803603606081101561072a57600080fd5b508035906020810135906040013515156118b8565b61053f6004803603602081101561075557600080fd5b5035611ce7565b610764611e99565b604080516001600160a01b039092168252519081900360200190f35b610606611ea8565b6107a56004803603602081101561079e57600080fd5b5035611eae565b60405180898152602001888152602001878152602001868152602001858152602001846001600160a01b03166001600160a01b03168152602001836001600160a01b03166001600160a01b0316815260200182600381111561080357fe5b60ff1681526020019850505050505050505060405180910390f35b6106066004803603602081101561083457600080fd5b50356001600160a01b0316611f04565b610606611f16565b61053f6004803603608081101561086257600080fd5b508035906001600160a01b03602082013581169160408101359091169060600135611f1c565b6106066004803603602081101561089e57600080fd5b50356001600160a01b0316612016565b61060661214d565b610606612153565b61053f600480360360a08110156108d457600080fd5b6001600160a01b0382351691602081013591604082013591606081013515159181019060a081016080820135600160201b81111561091157600080fd5b82018360208201111561092357600080fd5b803590602001918460018302840111600160201b8311171561094457600080fd5b91908080601f016020809104026020016040519081016040528093929190818152602001838380828437600092019190915250929550612159945050505050565b61053f6004803603604081101561099b57600080fd5b5080359060200135612260565b6109c5600480360360208110156109be57600080fd5b5035612818565b6040805193845260208401929092526001600160a01b031682820152519081900360600190f35b610700612842565b61060661284b565b61076460048036036020811015610a1257600080fd5b5035612851565b61076461286f565b610a3e60048036036020811015610a3757600080fd5b503561287e565b6040805192835260208301919091528051918290030190f35b61060660048036036020811015610a6d57600080fd5b810190602081018135600160201b811115610a8757600080fd5b820183602082011115610a9957600080fd5b803590602001918460018302840111600160201b83111715610aba57600080fd5b91908080601f016020809104026020016040519081016040528093929190818152602001838380828437600092019190915250929550612897945050505050565b61076460048036036020811015610b1157600080fd5b5035612b78565b61053f60048036036040811015610b2e57600080fd5b506001600160a01b038135169060200135612bc4565b61053f60048036036060811015610b5a57600080fd5b506001600160a01b038135811691602081013582169160409091013516612c1f565b61053f60048036036060811015610b9257600080fd5b813591602081013591810190606081016040820135600160201b811115610bb857600080fd5b820183602082011115610bca57600080fd5b803590602001918460018302840111600160201b83111715610beb57600080fd5b91908080601f016020809104026020016040519081016040528093929190818152602001838380828437600092019190915250929550612ca7945050505050565b61070060048036036060811015610c4257600080fd5b50803590602081013590604001356001600160a01b0316612ee5565b610700613035565b61060661303a565b61053f613040565b61060661309b565b6106066130a1565b61060660048036036020811015610c9c57600080fd5b50356001600160a01b03166130a7565b6107646130b9565b6106066130c8565b6106066130ce565b6106066130e6565b6107646130ec565b6107006130fb565b61060661310c565b61053f60048036036020811015610cfa57600080fd5b5035613112565b61053f60048036036020811015610d1757600080fd5b5035613132565b6107646133ae565b6106066133bd565b61053f60048036036020811015610d4457600080fd5b50356133c3565b61053f60048036036040811015610d6157600080fd5b5080359060200135613488565b61053f60048036036020811015610d8457600080fd5b503561350c565b610606613577565b61053f61358c565b6106066135e4565b61053f60048036036040811015610db957600080fd5b506001600160a01b0381351690602001356135ea565b61053f60048036036040811015610de557600080fd5b50803590602001356136f9565b61070060048036036060811015610e0857600080fd5b50803590602081013590604001356001600160a01b0316613715565b61076461386f565b61053f60048036036080811015610e4257600080fd5b813591602081013591604082013515159190810190608081016060820135600160201b811115610e7157600080fd5b820183602082011115610e8357600080fd5b803590602001918460018302840111600160201b83111715610ea457600080fd5b50909250905061387e565b61053f60048036036020811015610ec557600080fd5b5035613cd6565b610606613d6b565b610700613d71565b61076460048036036020811015610ef257600080fd5b810190602081018135600160201b811115610f0c57600080fd5b820183602082011115610f1e57600080fd5b803590602001918460018302840111600160201b83111715610f3f57600080fd5b91908080601f016020809104026020016040519081016040528093929190818152602001838380828437600092019190915250929550613d81945050505050565b61060660048036036020811015610f9657600080fd5b5035613dd6565b61053f60048036036020811015610fb357600080fd5b5035613de7565b61053f60048036036020811015610fd057600080fd5b50356001600160a01b03166140e1565b61053f60048036036020811015610ff657600080fd5b5035614114565b61053f6004803603602081101561101357600080fd5b50356001600160a01b03166141d9565b6106066004803603602081101561103957600080fd5b5035614259565b61076461426b565b61053f6004803603602081101561105e57600080fd5b5035151561427a565b61053f6004803603602081101561107d57600080fd5b50356001600160a01b03166142d6565b61053f600480360360408110156110a357600080fd5b81359190810190604081016020820135600160201b8111156110c457600080fd5b8201836020820111156110d657600080fd5b803590602001918460018302840111600160201b831117156110f757600080fd5b91908080601f0160208091040260200160405190810160405280939291908181526020018383808284376000920191909152509295506142f0945050505050565b61053f6004803603604081101561114e57600080fd5b50803590602001356001600160a01b03166145ca565b61053f6004803603602081101561117a57600080fd5b50356146c0565b61053f6146e4565b610606614742565b610764614748565b6111dc3386868686868080601f01602080910402602001604051908101604052809392919081815260200183838082843760009201919091525061215992505050565b5050505050565b6003546000906001600160a01b031633146111fd57600080fd5b6000611226600f5461121a600c548a61475790919063ffffffff16565b9063ffffffff61478716565b9050611234600c54826147a9565b90506000611252606461121a6017548561475790919063ffffffff16565b6001600160a01b038087166000908152601c60209081526040808320548352601b909152902060068101549293509116156112fc5760068101548154604080516301a6632160e31b8152600481018690526024810192909252516001600160a01b0390921691630d3319089160448082019260009290919082900301818387803b1580156112df57600080fd5b505af11580156112f3573d6000803e3d6000fd5b50505050611317565b6001810154611311908363ffffffff6147bf16565b60018201555b611327838363ffffffff6147d116565b92506000611333613577565b601889905590506113426147e6565b61134e81858b89614838565b9a9950505050505050505050565b6113646130fb565b61136d57600080fd5b601055565b60165481565b60145481565b60095481565b61138c6130fb565b61139557600080fd5b6001600160a01b0381166113a857600080fd5b600480546001600160a01b0319166001600160a01b0392909216919091179055565b6113d26130fb565b6113db57600080fd5b600081116113e857600080fd5b60065460115460408051630f1980a560e41b8152600481018590526024810192909252516001600160a01b039092169163f1980a509160448082019260009290919082900301818387803b15801561143f57600080fd5b505af1158015611453573d6000803e3d6000fd5b50505060119190915550565b60075460408051632f745c5960e01b81526001600160a01b038481166004830152600060248301819052925192931691632f745c5991604480820192602092909190829003018186803b1580156114b557600080fd5b505afa1580156114c9573d6000803e3d6000fd5b505050506040513d60208110156114df57600080fd5b505190505b919050565b600754604080516331a9108f60e11b8152600481018490529051839233926001600160a01b0390911691636352211e91602480820192602092909190829003018186803b15801561153957600080fd5b505afa15801561154d573d6000803e3d6000fd5b505050506040513d602081101561156357600080fd5b50516001600160a01b03161461157857600080fd5b60026000838152601b6020526040902060060154600160a01b900460ff1660038111156115a157fe5b146115f3576040805162461bcd60e51b815260206004820152601760248201527f56616c696461746f72206973206e6f74206a61696c6564000000000000000000604482015290519081900360640190fd5b6000828152601b602052604090206003015415611657576040805162461bcd60e51b815260206004820152601b60248201527f56616c696461746f7220616c726561647920756e7374616b696e670000000000604482015290519081900360640190fd5b600a546000838152601b60205260409020600401548110156116b9576040805162461bcd60e51b8152602060048201526016602482015275125b98dbdb5c1b195d19481a985a5b081c195c9a5bd960521b604482015290519081900360640190fd5b6000838152601b6020526040902054600d548110156116d757600080fd5b6000848152601b60205260408120600601546001600160a01b03161561177b576000858152601b602090815260408083206006015481516322f0f2f960e01b815291516001600160a01b03909116936322f0f2f993600480850194919392918390030190829087803b15801561174c57600080fd5b505af1158015611760573d6000803e3d6000fd5b505050506040513d602081101561177657600080fd5b505190505b6117968361178f848463ffffffff6147bf16565b6001614b74565b6000858152601b60205260408082206006808201805460ff60a01b1916600160a01b17905554600590910154825163f92ec5af60e01b8152600481018a90526001600160a01b039182166024820152925191169263f92ec5af926044808201939182900301818387803b15801561180c57600080fd5b505af1158015611820573d6000803e3d6000fd5b505050505050505050565b60185481565b600f5481565b6000818152601b60205260408120600281015460038201548254600690930154600a5492939192600160a01b90910460ff16908215801590611883575084158015906118835750808511155b8015611896575083158061189657508084115b80156118ad575060018260038111156118ab57fe5b145b979650505050505050565b600254600160a01b900460ff1615611903576040805162461bcd60e51b8152602060048201526009602482015268125cc8131bd8dad95960ba1b604482015290519081900360640190fd5b600754604080516331a9108f60e11b8152600481018690529051859233926001600160a01b0390911691636352211e91602480820192602092909190829003018186803b15801561195357600080fd5b505afa158015611967573d6000803e3d6000fd5b505050506040513d602081101561197d57600080fd5b50516001600160a01b03161461199257600080fd5b6000848152601b6020526040902060030154156119ec576040805162461bcd60e51b81526020600482015260136024820152724e6f20757365206f662072657374616b696e6760681b604482015290519081900360640190fd5b8215611ac25760048054604080516323b872dd60e01b8152339381019390935230602484015260448301869052516001600160a01b03909116916323b872dd9160648083019260209291908290030181600087803b158015611a4d57600080fd5b505af1158015611a61573d6000803e3d6000fd5b505050506040513d6020811015611a7757600080fd5b5051611ac2576040805162461bcd60e51b8152602060048201526015602482015274151c985b9cd9995c881cdd185ad94819985a5b1959605a1b604482015290519081900360640190fd5b8115611b9d576000848152601b6020526040902060010154611aeb90849063ffffffff6147bf16565b6000858152601b60205260409020600601549093506001600160a01b03168015611b8957611b86816001600160a01b03166332ba2e536040518163ffffffff1660e01b8152600401602060405180830381600087803b158015611b4d57600080fd5b505af1158015611b61573d6000803e3d6000fd5b505050506040513d6020811015611b7757600080fd5b5051859063ffffffff6147bf16565b93505b506000848152601b60205260408120600101555b601254600090611bb3908563ffffffff6147bf16565b60128190556000868152601b6020526040902054909150611bda908563ffffffff6147bf16565b6000868152601b6020908152604080832093909355600a54808352601d909152828220805488019055600654835163532e19a960e01b8152600481018a9052935191936001600160a01b039091169263532e19a99260248084019382900301818387803b158015611c4a57600080fd5b505af1158015611c5e573d6000803e3d6000fd5b50506006546000898152601b6020526040808220548151631585a9f360e21b8152600481018d905260248101919091526044810188905290516001600160a01b039093169450635616a7cc93506064808201939182900301818387803b158015611cc757600080fd5b505af1158015611cdb573d6000803e3d6000fd5b50505050505050505050565b600754604080516331a9108f60e11b8152600481018490529051839233926001600160a01b0390911691636352211e91602480820192602092909190829003018186803b158015611d3757600080fd5b505afa158015611d4b573d6000803e3d6000fd5b505050506040513d6020811015611d6157600080fd5b50516001600160a01b031614611d7657600080fd5b6000828152601f602052604090205415611dd7576040805162461bcd60e51b815260206004820152601b60248201527f5761697420666f722061756374696f6e20636f6d706c6574696f6e0000000000604482015290519081900360640190fd5b6000828152601b602052604090206002015415801590611e0657506000828152601b6020526040902060030154155b8015611e68575060016000838152601b6020526040902060060154600160a01b900460ff166003811115611e3657fe5b1480611e68575060026000838152601b6020526040902060060154600160a01b900460ff166003811115611e6657fe5b145b611e7157600080fd5b600a54600090611e8890600163ffffffff6147bf16565b9050611e948382614b96565b505050565b6007546001600160a01b031681565b60175481565b601b602052600090815260409020805460018201546002830154600384015460048501546005860154600690960154949593949293919290916001600160a01b039081169190811690600160a01b900460ff1688565b601c6020526000908152604090205481565b600d5481565b6002546001600160a01b03163314611f655760405162461bcd60e51b8152600401808060200182810382526026815260200180615aaa6026913960400191505060405180910390fd5b6000848152601b60205260409020600601546001600160a01b031680611fbc5760405162461bcd60e51b815260040180806020018281038252602a815260200180615ad0602a913960400191505060405180910390fd5b6040805163abf59fc960e01b81526001600160a01b0386811660048301528581166024830152604482018590529151839283169163abf59fc991606480830192600092919082900301818387803b158015611cc757600080fd5b60006001600160a01b03821615806120a45750600754604080516370a0823160e01b81526001600160a01b038581166004830152915191909216916370a08231916024808301926020929190829003018186803b15801561207657600080fd5b505afa15801561208a573d6000803e3d6000fd5b505050506040513d60208110156120a057600080fd5b5051155b156120b1575060006114e4565b60075460408051632f745c5960e01b81526001600160a01b0385811660048301526000602483018190529251601b949190911691632f745c59916044808301926020929190829003018186803b15801561210a57600080fd5b505afa15801561211e573d6000803e3d6000fd5b505050506040513d602081101561213457600080fd5b5051815260208101919091526040016000205492915050565b60105481565b60115481565b600254600160a01b900460ff16156121a4576040805162461bcd60e51b8152602060048201526009602482015268125cc8131bd8dad95960ba1b604482015290519081900360640190fd5b6011546121af6130ce565b106121eb5760405162461bcd60e51b8152600401808060200182810382526021815260200180615a656021913960400191505060405180910390fd5b600d548411612241576040805162461bcd60e51b815260206004820152601960248201527f6d696e206465706f736974206c696d6974206661696c65642100000000000000604482015290519081900360640190fd5b61224c858486614e25565b61225885858484615002565b505050505050565b600254600160a01b900460ff16156122ab576040805162461bcd60e51b8152602060048201526009602482015268125cc8131bd8dad95960ba1b604482015290519081900360640190fd5b6000828152601b6020526040902080546003909101541580156122cd57508015155b61231e576040805162461bcd60e51b815260206004820181905260248201527f496e76616c69642076616c696461746f7220666f7220616e2061756374696f6e604482015290519081900360640190fd5b336000818152601c60209081526040918290205460075483516370a0823160e01b81526004810195909552925190936001600160a01b03909316926370a08231926024808301939192829003018186803b15801561237b57600080fd5b505afa15801561238f573d6000803e3d6000fd5b505050506040513d60208110156123a557600080fd5b50511580156123b657506000198114155b6123fe576040805162461bcd60e51b8152602060048201526014602482015273416c72656164792075736564206164647265737360601b604482015290519081900360640190fd5b600a546019548015806124115750818111155b612454576040805162461bcd60e51b815260206004820152600f60248201526e10dbdbdb191bdddb881c195c9a5bd9608a1b604482015290519081900360640190fd5b601654600b5461246a908263ffffffff6147bf16565b6000888152601b602052604090206002015461248d90859063ffffffff6147d116565b8161249457fe5b0611156124e1576040805162461bcd60e51b8152602060048201526016602482015275125b9d985b1a5908185d58dd1a5bdb881c195c9a5bd960521b604482015290519081900360640190fd5b6000868152601b602052604090206006015484906001600160a01b0316801561257c57612579816001600160a01b0316633a09bf446040518163ffffffff1660e01b815260040160206040518083038186803b15801561254057600080fd5b505afa158015612554573d6000803e3d6000fd5b505050506040513d602081101561256a57600080fd5b5051839063ffffffff6147bf16565b91505b6000888152601f6020526040902080546125968482615417565b93508884106125de576040805162461bcd60e51b815260206004820152600f60248201526e26bab9ba103134b2103434b3b432b960891b604482015290519081900360640190fd5b60048054604080516323b872dd60e01b81523393810193909352306024840152604483018c9052516001600160a01b03909116916323b872dd9160648083019260209291908290030181600087803b15801561263957600080fd5b505af115801561264d573d6000803e3d6000fd5b505050506040513d602081101561266357600080fd5b50516126af576040805162461bcd60e51b8152602060048201526016602482015275151c985b9cd9995c88185b5bdd5b9d0819985a5b195960521b604482015290519081900360640190fd5b8015612781576004805460028401546040805163a9059cbb60e01b81526001600160a01b0392831694810194909452602484018590525191169163a9059cbb9160448083019260209291908290030181600087803b15801561271057600080fd5b505af1158015612724573d6000803e3d6000fd5b505050506040513d602081101561273a57600080fd5b5051612781576040805162461bcd60e51b8152602060048201526011602482015270109a59081c995d1d5c9b8819985a5b1959607a1b604482015290519081900360640190fd5b8882556002820180546001600160a01b0319163317905560065460408051630934a6df60e01b8152600481018d9052602481018b9052604481018c905290516001600160a01b039290921691630934a6df9160648082019260009290919082900301818387803b1580156127f457600080fd5b505af1158015612808573d6000803e3d6000fd5b5050505050505050505050505050565b601f602052600090815260409020805460018201546002909201549091906001600160a01b031683565b601a5460ff1681565b60135481565b6000908152601b60205260409020600601546001600160a01b031690565b6002546001600160a01b031681565b601d602052600090815260409020805460019091015482565b6000336001600160a01b0316600560009054906101000a90046001600160a01b03166001600160a01b031663d580b4186040518163ffffffff1660e01b815260040160206040518083038186803b1580156128f157600080fd5b505afa158015612905573d6000803e3d6000fd5b505050506040513d602081101561291b57600080fd5b50516001600160a01b031614612978576040805162461bcd60e51b815260206004820181905260248201527f53656e646572206d75737420626520736c617368696e67206d616e6167657221604482015290519081900360640190fd5b606061298b61298684615427565b61544c565b905060008080805b8451811015612b4b5760606129ba8683815181106129ad57fe5b602002602001015161544c565b905060006129db826000815181106129ce57fe5b602002602001015161551d565b905060006129ef836001815181106129ce57fe5b9050612a01858263ffffffff6147bf16565b6000838152601b60205260409020600601549095506001600160a01b031615612ac9576000828152601b602090815260408083206006810154905482516314454c8560e31b815260048101919091526024810186905291516001600160a01b039091169263a22a6428926044808201939182900301818787803b158015612a8757600080fd5b505af1158015612a9b573d6000803e3d6000fd5b505050506040513d6020811015612ab157600080fd5b50519050612ac5828263ffffffff6147d116565b9150505b6000828152601b6020526040902054612ae8908263ffffffff6147d116565b6000838152601b60205260409020558251612b179084906002908110612b0a57fe5b602002602001015161556b565b15612b4057612b37612b2a8360016155af565b879063ffffffff6147bf16565b60019097019695505b505050600101612993565b50600a54612b6f90612b63838563ffffffff6147bf16565b60000385600003614b74565b95945050505050565b600754604080516331a9108f60e11b81526004810184905290516000926001600160a01b031691636352211e916024808301926020929190829003018186803b1580156114b557600080fd5b600254600160a01b900460ff1615612c0f576040805162461bcd60e51b8152602060048201526009602482015268125cc8131bd8dad95960ba1b604482015290519081900360640190fd5b612c1b82826000614e25565b5050565b6002546001600160a01b03163314612c685760405162461bcd60e51b8152600401808060200182810382526026815260200180615aaa6026913960400191505060405180910390fd5b600780546001600160a01b039485166001600160a01b031991821617909155600680549385169382169390931790925560088054919093169116179055565b604080513360208083018290528284018790528351808403850181526060840194859052805190820120601854631b23d15760e21b909552606484018181526084850188905260a48501869052608060c48601908152875160e48701528751949673__Merkle________________________________96636c8f455c9694958b9592948b9490939092610104019185019080838360005b83811015612d56578181015183820152602001612d3e565b50505050905090810190601f168015612d835780820380516001836020036101000a031916815260200191505b509550505050505060206040518083038186803b158015612da357600080fd5b505af4158015612db7573d6000803e3d6000fd5b505050506040513d6020811015612dcd57600080fd5b5051612e12576040805162461bcd60e51b815260206004820152600f60248201526e2bb937b7339030b1b190383937b7b360891b604482015290519081900360640190fd5b6001600160a01b0381166000908152601e6020526040812054612e3c90869063ffffffff6147d116565b9050612e488282615725565b6001600160a01b038083166000818152601e602090815260408083208a905560048054825163a9059cbb60e01b815291820195909552602481018790529051939094169363a9059cbb9360448083019491928390030190829087803b158015612eb057600080fd5b505af1158015612ec4573d6000803e3d6000fd5b505050506040513d6020811015612eda57600080fd5b50516111dc57600080fd5b601a5460009060ff16612f38576040805162461bcd60e51b815260206004820152601660248201527511195b1959d85d1a5bdb881a5cc8191a5cd8589b195960521b604482015290519081900360640190fd5b6000848152601b60205260409020600601546001600160a01b03163314612fa1576040805162461bcd60e51b8152602060048201526018602482015277496e76616c696420636f6e7472616374206164647265737360401b604482015290519081900360640190fd5b60048054604080516323b872dd60e01b81526001600160a01b038681169482019490945230602482015260448101879052905192909116916323b872dd916064808201926020929091908290030181600087803b15801561300157600080fd5b505af1158015613015573d6000803e3d6000fd5b505050506040513d602081101561302b57600080fd5b5051949350505050565b600090565b600b5481565b6130486130fb565b61305157600080fd5b600080546040516001600160a01b03909116907f8be0079c531659141344cd1fd0a4f28419497f9722a3daafe3b4186f6b6457e0908390a3600080546001600160a01b0319169055565b600a5481565b60195481565b601e6020526000908152604090205481565b6005546001600160a01b031681565b600c5481565b600a546000908152601d602052604090206001015490565b60125481565b6000546001600160a01b031690565b6000546001600160a01b0316331490565b600a5490565b61311a6130fb565b61312357600080fd5b61312f81600a54614b96565b50565b600754604080516331a9108f60e11b8152600481018490529051839233926001600160a01b0390911691636352211e91602480820192602092909190829003018186803b15801561318257600080fd5b505afa158015613196573d6000803e3d6000fd5b505050506040513d60208110156131ac57600080fd5b50516001600160a01b0316146131c157600080fd5b6000828152601b6020526040902060018101546006909101546001600160a01b0316801561323e5761323b816001600160a01b03166332ba2e536040518163ffffffff1660e01b8152600401602060405180830381600087803b15801561322757600080fd5b505af1158015612554573d6000803e3d6000fd5b91505b601554613251908363ffffffff6147bf16565b6015556000848152601b6020908152604080832060010183905560048054825163a9059cbb60e01b815233928101929092526024820187905291516001600160a01b039092169363a9059cbb9360448084019491939192918390030190829087803b1580156132bf57600080fd5b505af11580156132d3573d6000803e3d6000fd5b505050506040513d60208110156132e957600080fd5b5051613332576040805162461bcd60e51b8152602060048201526013602482015272496e737566666963656e74207265776172647360681b604482015290519081900360640190fd5b60065460155460408051635b42d93560e11b815260048101889052602481018690526044810192909252516001600160a01b039092169163b685b26a9160648082019260009290919082900301818387803b15801561339057600080fd5b505af11580156133a4573d6000803e3d6000fd5b5050505050505050565b6003546001600160a01b031681565b60215481565b6133cb6130fb565b6133d457600080fd5b6006546017546040805163a3b1d8cb60e01b8152600481018590526024810192909252516001600160a01b039092169163a3b1d8cb9160448082019260009290919082900301818387803b15801561342b57600080fd5b505af115801561343f573d6000803e3d6000fd5b505050506064811115613483576040805162461bcd60e51b8152602060048201526007602482015266746f6f2062696760c81b604482015290519081900360640190fd5b601755565b6000828152601b60205260409020600601546001600160a01b031633146134f1576040805162461bcd60e51b8152602060048201526018602482015277496e76616c696420636f6e7472616374206164647265737360401b604482015290519081900360640190fd5b600a546000908152601d602052604090208054909101905550565b6135146130fb565b61351d57600080fd5b60008111613572576040805162461bcd60e51b815260206004820181905260248201527f426c6f636b7320696e74657276616c206d757374206265206e6f6e2d7a65726f604482015290519081900360640190fd5b600f55565b600a546000908152601d602052604090205490565b6002546001600160a01b031633146135d55760405162461bcd60e51b8152600401808060200182810382526026815260200180615aaa6026913960400191505060405180910390fd5b6002805460ff60a01b19169055565b60095490565b6002546001600160a01b031633146136335760405162461bcd60e51b8152600401808060200182810382526026815260200180615aaa6026913960400191505060405180910390fd5b600480546040805163a9059cbb60e01b81526001600160a01b0386811694820194909452602481018590529051929091169163a9059cbb916044808201926020929091908290030181600087803b15801561368d57600080fd5b505af11580156136a1573d6000803e3d6000fd5b505050506040513d60208110156136b757600080fd5b5051612c1b576040805162461bcd60e51b815260206004820152600c60248201526b111c985a5b8819985a5b195960a21b604482015290519081900360640190fd5b6137016130fb565b61370a57600080fd5b600d91909155600e55565b6000336001600160a01b0316600560009054906101000a90046001600160a01b03166001600160a01b031663d580b4186040518163ffffffff1660e01b815260040160206040518083038186803b15801561376f57600080fd5b505afa158015613783573d6000803e3d6000fd5b505050506040513d602081101561379957600080fd5b50516001600160a01b031614806137c957506000848152601b60205260409020600601546001600160a01b031633145b613815576040805162461bcd60e51b8152602060048201526018602482015277496e76616c696420636f6e7472616374206164647265737360401b604482015290519081900360640190fd5b600480546040805163a9059cbb60e01b81526001600160a01b0386811694820194909452602481018790529051929091169163a9059cbb916044808201926020929091908290030181600087803b15801561300157600080fd5b6008546001600160a01b031681565b600254600160a01b900460ff16156138c9576040805162461bcd60e51b8152602060048201526009602482015268125cc8131bd8dad95960ba1b604482015290519081900360640190fd5b6000858152601f6020526040902060028101546001600160a01b0316338114806138fa5750866138f83361145f565b145b6139355760405162461bcd60e51b8152600401808060200182810382526024815260200180615a866024913960400191505060405180910390fd5b600a54601654600b5461394f90829063ffffffff6147bf16565b600185015461396590849063ffffffff6147d116565b8161396c57fe5b0610156139c0576040805162461bcd60e51b815260206004820181905260248201527f4e6f7420616c6c6f776564206265666f72652061756374696f6e506572696f64604482015290519081900360640190fd5b6000888152601b6020526040902080548454600690920154909182916001600160a01b03168015613a6357613a60816001600160a01b0316633a09bf446040518163ffffffff1660e01b815260040160206040518083038186803b158015613a2757600080fd5b505afa158015613a3b573d6000803e3d6000fd5b505050506040513d6020811015613a5157600080fd5b5051849063ffffffff6147bf16565b92505b818310158015613a82575060008c8152601b6020526040902060030154155b15613bd157600480546040805163a9059cbb60e01b81526001600160a01b038a811694820194909452602481018690529051929091169163a9059cbb916044808201926020929091908290030181600087803b158015613ae157600080fd5b505af1158015613af5573d6000803e3d6000fd5b505050506040513d6020811015613b0b57600080fd5b5051613b52576040805162461bcd60e51b8152602060048201526011602482015270109a59081c995d1d5c9b8819985a5b1959607a1b604482015290519081900360640190fd5b600187018590556006546040805163e12ab1af60e01b8152600481018f9052602481018f90526044810187905290516001600160a01b039092169163e12ab1af9160648082019260009290919082900301818387803b158015613bb457600080fd5b505af1158015613bc8573d6000803e3d6000fd5b50505050613cb2565b613bdd868c6000614e25565b613be78c86614b96565b6000613c2b87848d8d8d8080601f01602080910402602001604051908101604052809392919081815260200183838082843760009201919091525061500292505050565b9050600660009054906101000a90046001600160a01b03166001600160a01b031663e12ab1af828f866040518463ffffffff1660e01b8152600401808481526020018381526020018281526020019350505050600060405180830381600087803b158015613c9857600080fd5b505af1158015613cac573d6000803e3d6000fd5b50505050505b505060008555505050600290910180546001600160a01b0319169055505050505050565b613cde6130fb565b613ce757600080fd5b60008111613cf457600080fd5b600654600c5460408051632dbe9d3160e21b8152600481018590526024810192909252516001600160a01b039092169163b6fa74c49160448082019260009290919082900301818387803b158015613d4b57600080fd5b505af1158015613d5f573d6000803e3d6000fd5b505050600c9190915550565b60155481565b600254600160a01b900460ff1681565b60008151604014613dca576040805162461bcd60e51b815260206004820152600e60248201526d496e76616c6964207075626b657960901b604482015290519081900360640190fd5b50805160209091012090565b602080526000908152604090205481565b600754604080516331a9108f60e11b8152600481018490529051839233926001600160a01b0390911691636352211e91602480820192602092909190829003018186803b158015613e3757600080fd5b505afa158015613e4b573d6000803e3d6000fd5b505050506040513d6020811015613e6157600080fd5b50516001600160a01b031614613e7657600080fd5b6000828152601b60205260409020600301548015801590613eac5750600a54600954613ea990839063ffffffff6147bf16565b11155b8015613edf575060036000848152601b6020526040902060060154600160a01b900460ff166003811115613edc57fe5b14155b613ee857600080fd5b6000838152601b6020526040812054601254909190613f0d908363ffffffff6147d116565b601281905560075460408051630852cd8d60e31b81526004810189905290519293506001600160a01b03909116916342966c689160248082019260009290919082900301818387803b158015613f6257600080fd5b505af1158015613f76573d6000803e3d6000fd5b5050506000868152601b6020818152604080842060058101546001600160a01b039081168652601c845282862060001990558b8652938352600601805460ff60a01b1916600360a01b17905560048054825163a9059cbb60e01b8152339281019290925260248201899052915191909316945063a9059cbb936044808501948390030190829087803b15801561400b57600080fd5b505af115801561401f573d6000803e3d6000fd5b505050506040513d602081101561403557600080fd5b5051614080576040805162461bcd60e51b8152602060048201526015602482015274151c985b9cd9995c881cdd185ad94819985a5b1959605a1b604482015290519081900360640190fd5b6006546040805163ae2e26b160e01b815233600482015260248101889052604481018590526064810184905290516001600160a01b039092169163ae2e26b19160848082019260009290919082900301818387803b15801561180c57600080fd5b6140e96130fb565b6140f257600080fd5b600880546001600160a01b0319166001600160a01b0392909216919091179055565b61411c6130fb565b61412557600080fd5b6000811161413257600080fd5b600654600b5460408051635071805360e11b8152600481018590526024810192909252516001600160a01b039092169163a0e300a69160448082019260009290919082900301818387803b15801561418957600080fd5b505af115801561419d573d6000803e3d6000fd5b505050600b8290555060098190556141bc81600463ffffffff61478716565b6016819055600a546141d39163ffffffff6147bf16565b60195550565b6141e16130fb565b6141ea57600080fd5b6001600160a01b0381166141fd57600080fd5b6003546040516001600160a01b038084169216907f211c9015fc81c0dbd45bd99f0f29fc1c143bfd53442d5ffd722bbbef7a887fe990600090a3600380546001600160a01b0319166001600160a01b0392909216919091179055565b6000908152601b602052604090205490565b6006546001600160a01b031681565b6002546001600160a01b031633146142c35760405162461bcd60e51b8152600401808060200182810382526026815260200180615aaa6026913960400191505060405180910390fd5b601a805460ff1916911515919091179055565b6142de6130fb565b6142e757600080fd5b61312f816157a4565b600754604080516331a9108f60e11b8152600481018590529051849233926001600160a01b0390911691636352211e91602480820192602092909190829003018186803b15801561434057600080fd5b505afa158015614354573d6000803e3d6000fd5b505050506040513d602081101561436a57600080fd5b50516001600160a01b03161461437f57600080fd5b600061438a83613d81565b90506001600160a01b038116158015906143ba57506001600160a01b0381166000908152601c6020526040902054155b6143fc576040805162461bcd60e51b815260206004820152600e60248201526d24b73b30b634b21039b4b3b732b960911b604482015290519081900360640190fd5b600a54601054600086815260208052604090205461441f9163ffffffff6147bf16565b811015614473576040805162461bcd60e51b815260206004820152601a60248201527f496e76616c696420636865636b706f696e74206e756d62657221000000000000604482015290519081900360640190fd5b6000858152601b6020908152604080832060050154600654915163b80fbce560e01b8152600481018a81526001600160a01b039283166024830181905288841660448401526080606484019081528b5160848501528b519197949095169563b80fbce5958d9589958c958f95909460a490920192918601918190849084905b8381101561450a5781810151838201526020016144f2565b50505050905090810190601f1680156145375780820380516001836020036101000a031916815260200191505b5095505050505050600060405180830381600087803b15801561455957600080fd5b505af115801561456d573d6000803e3d6000fd5b5050506001600160a01b039182166000908152601c60209081526040808320600019905595909316808252858220899055978152601b835284812060050180546001600160a01b0319169098179097555080529320929092555050565b6145d26130fb565b6145db57600080fd5b306001600160a01b0316816001600160a01b0316638da5cb5b6040518163ffffffff1660e01b815260040160206040518083038186803b15801561461e57600080fd5b505afa158015614632573d6000803e3d6000fd5b505050506040513d602081101561464857600080fd5b50516001600160a01b03161461468f5760405162461bcd60e51b8152600401808060200182810382526026815260200180615afa6026913960400191505060405180910390fd5b6000918252601b602052604090912060060180546001600160a01b0319166001600160a01b03909216919091179055565b6146c86130fb565b6146d157600080fd5b600a546141d3908263ffffffff6147bf16565b6002546001600160a01b0316331461472d5760405162461bcd60e51b8152600401808060200182810382526026815260200180615aaa6026913960400191505060405180910390fd5b6002805460ff60a01b1916600160a01b179055565b600e5481565b6004546001600160a01b031681565b60008261476657506000614781565b8282028284828161477357fe5b041461477e57600080fd5b90505b92915050565b600080821161479557600080fd5b60008284816147a057fe5b04949350505050565b60008183106147b8578161477e565b5090919050565b60008282018381101561477e57600080fd5b6000828211156147e057600080fd5b50900390565b600a5460006147fc82600163ffffffff6147bf16565b6000818152601d602052604080822080549583529082208054909501815560019081018054918601805490920190559381905590925550600a55565b60008080805b84518167ffffffffffffffff161015614ab857600073__ECVerify______________________________6377d32e94886148848967ffffffffffffffff87166041615812565b6040518363ffffffff1660e01b81526004018083815260200180602001828103825283818151815260200191508051906020019080838360005b838110156148d65781810151838201526020016148be565b50505050905090810190601f1680156149035780820380516001836020036101000a031916815260200191505b50935050505060206040518083038186803b15801561492157600080fd5b505af4158015614935573d6000803e3d6000fd5b505050506040513d602081101561494b57600080fd5b50516001600160a01b038082166000818152601c6020526040902054929350908516141561497a575050614ab8565b61498381611837565b80156149a05750836001600160a01b0316826001600160a01b0316115b15614aae576000818152601b60205260408120600681015493955085939091906001600160a01b03168015614a6057806001600160a01b031663b37f25908d8f6149e988614259565b6040518463ffffffff1660e01b8152600401808481526020018381526020018281526020019350505050602060405180830381600087803b158015614a2d57600080fd5b505af1158015614a41573d6000803e3d6000fd5b505050506040513d6020811015614a5757600080fd5b50519150614a98565b82600001549150614a92614a818e61121a8f8661475790919063ffffffff16565b60018501549063ffffffff6147bf16565b60018401555b614aa8888363ffffffff6147bf16565b97505050505b505060410161483e565b50614ad7614ac4613577565b600c5461121a908563ffffffff61475716565b601454909650614aed908763ffffffff6147bf16565b601455614b1f6001614b13600361121a6002614b07613577565b9063ffffffff61475716565b9063ffffffff6147bf16565b821015614b69576040805162461bcd60e51b8152602060048201526013602482015272322f332b31206e6f6e2d6d616a6f726974792160681b604482015290519081900360640190fd5b509395945050505050565b6000928352601d60205260409092208054909101815560010180549091019055565b6000828152601b602052604081205490614baf84612b78565b6000858152601b6020526040812060038101869055600181015460069091015492935090916001600160a01b03168015614ca7576000819050614c3a816001600160a01b03166332ba2e536040518163ffffffff1660e01b8152600401602060405180830381600087803b158015614c2657600080fd5b505af1158015613a3b573d6000803e3d6000fd5b9250806001600160a01b031663753868e36040518163ffffffff1660e01b8152600401602060405180830381600087803b158015614c7757600080fd5b505af1158015614c8b573d6000803e3d6000fd5b505050506040513d6020811015614ca157600080fd5b50519350505b6000878152601b6020908152604080832060010183905560048054825163a9059cbb60e01b81526001600160a01b038a81169382019390935260248101889052925191169363a9059cbb93604480850194919392918390030190829087803b158015614d1257600080fd5b505af1158015614d26573d6000803e3d6000fd5b505050506040513d6020811015614d3c57600080fd5b5051614d8f576040805162461bcd60e51b815260206004820152601760248201527f52657761726473207472616e73666572206661696c6564000000000000000000604482015290519081900360640190fd5b614da186848701600003600019614b74565b60065460408051635e04d48360e01b81526001600160a01b038781166004830152602482018b9052604482018a90526064820189905291519190921691635e04d48391608480830192600092919082900301818387803b158015614e0457600080fd5b505af1158015614e18573d6000803e3d6000fd5b5050505050505050505050565b600e54821015614e7c576040805162461bcd60e51b815260206004820152601760248201527f4e6f7420656e6f756768206865696d64616c6c20666565000000000000000000604482015290519081900360640190fd5b6004546001600160a01b03166323b872dd3330614e9f868663ffffffff6147bf16565b6040518463ffffffff1660e01b815260040180846001600160a01b03166001600160a01b03168152602001836001600160a01b03166001600160a01b031681526020018281526020019350505050602060405180830381600087803b158015614f0757600080fd5b505af1158015614f1b573d6000803e3d6000fd5b505050506040513d6020811015614f3157600080fd5b5051614f7a576040805162461bcd60e51b8152602060048201526013602482015272119959481d1c985b9cd9995c8819985a5b1959606a1b604482015290519081900360640190fd5b602154614f8d908363ffffffff6147bf16565b6021556006546040805163a449d79560e01b81526001600160a01b038681166004830152602482018690529151919092169163a449d79591604480830192600092919082900301818387803b158015614fe557600080fd5b505af1158015614ff9573d6000803e3d6000fd5b50505050505050565b60008061500e83613d81565b90506001600160a01b0381161580159061503e57506001600160a01b0381166000908152601c6020526040902054155b615080576040805162461bcd60e51b815260206004820152600e60248201526d24b73b30b634b21039b4b3b732b960911b604482015290519081900360640190fd5b600a546013546006546012546001600160a01b03909116906000906150ab908a63ffffffff6147bf16565b9050806012819055506040518061010001604052808a8152602001600081526020018581526020016000815260200160008152602001866001600160a01b03168152602001896150fc57600061518a565b6008546005546040805163d4ad267360e01b8152600481018990526001600160a01b03888116602483015292831660448201529051919092169163d4ad26739160648083019260209291908290030181600087803b15801561515d57600080fd5b505af1158015615171573d6000803e3d6000fd5b505050506040513d602081101561518757600080fd5b50515b6001600160a01b03168152602001600190526000848152601b60209081526040918290208351815590830151600182015590820151600282015560608201516003808301919091556080830151600483015560a08301516005830180546001600160a01b039283166001600160a01b03199182161790915560c08501516006850180549190931691161780825560e08501519260ff60a01b1990911690600160a01b90849081111561523857fe5b02179055505050600083815260208052604080822086905560075481516340c10f1960e01b81526001600160a01b038e8116600483015260248201889052925192909116926340c10f199260448084019382900301818387803b15801561529e57600080fd5b505af11580156152b2573d6000803e3d6000fd5b5050506001600160a01b0386166000908152601c60205260409020849055506152dd848a6001614b74565b83601f600085815260200190815260200160002060010181905550816001600160a01b03166333a8383c868986888e876040518763ffffffff1660e01b815260040180876001600160a01b03166001600160a01b0316815260200180602001868152602001858152602001848152602001838152602001828103825287818151815260200191508051906020019080838360005b83811015615389578181015183820152602001615371565b50505050905090810190601f1680156153b65780820380516001836020036101000a031916815260200191505b50975050505050505050600060405180830381600087803b1580156153da57600080fd5b505af11580156153ee573d6000803e3d6000fd5b505050506154066001846147bf90919063ffffffff16565b601355509098975050505050505050565b6000818310156147b8578161477e565b61542f615a4a565b506040805180820190915281518152602082810190820152919050565b606061545782615892565b61546057600080fd5b600061546b836158cc565b90506060816040519080825280602002602001820160405280156154a957816020015b615496615a4a565b81526020019060019003908161548e5790505b50905060006154bb8560200151615928565b60208601510190506000805b84811015615512576154d88361598b565b91506040518060400160405280838152602001848152508482815181106154fb57fe5b6020908102919091010152918101916001016154c7565b509195945050505050565b80516000901580159061553257508151602110155b61553b57600080fd5b60008061554784615a24565b8151919350915060208210156155635760208290036101000a90045b949350505050565b805160009060011461557c57600080fd5b6020820151805160001a908115806155945750608082145b156155a4576000925050506114e4565b6001925050506114e4565b6000828152601b602052604081206006015481906001600160a01b031615615655576000848152601b6020908152604080832060060154815163753868e360e01b815291516001600160a01b039091169363753868e393600480850194919392918390030190829087803b15801561562657600080fd5b505af115801561563a573d6000803e3d6000fd5b505050506040513d602081101561565057600080fd5b505190505b600a54615668818563ffffffff6147bf16565b6000868152601b60205260408082206004808201949094556006808201805460ff60a01b1916600160a11b1790555460059091015482516381dc101b60e01b81529485018a9052602485018690526001600160a01b03908116604486015291519116926381dc101b92606480830193919282900301818387803b1580156156ee57600080fd5b505af1158015615702573d6000803e3d6000fd5b5050506000868152601b6020526040902054612b6f91508363ffffffff6147bf16565b602154615738908263ffffffff6147d116565b6021556006546040805163122b648160e01b81526001600160a01b038581166004830152602482018590529151919092169163122b648191604480830192600092919082900301818387803b15801561579057600080fd5b505af1158015612258573d6000803e3d6000fd5b6001600160a01b0381166157b757600080fd5b600080546040516001600160a01b03808516939216917f8be0079c531659141344cd1fd0a4f28419497f9722a3daafe3b4186f6b6457e091a3600080546001600160a01b0319166001600160a01b0392909216919091179055565b60608183018451101561582457600080fd5b60608215801561583f57604051915060208201604052615889565b6040519150601f8416801560200281840101858101878315602002848b0101015b81831015615878578051835260209283019201615860565b5050858452601f01601f1916604052505b50949350505050565b80516000906158a3575060006114e4565b6020820151805160001a9060c08210156158c2576000925050506114e4565b5060019392505050565b80516000906158dd575060006114e4565b600080905060006158f18460200151615928565b602085015185519181019250015b8082101561591f576159108261598b565b600190930192909101906158ff565b50909392505050565b8051600090811a60808110156159425760009150506114e4565b60b881108061595d575060c0811080159061595d575060f881105b1561596c5760019150506114e4565b60c08110156159805760b5190190506114e4565b60f5190190506114e4565b80516000908190811a60808110156159a65760019150615a1d565b60b88110156159bb57607e1981019150615a1d565b60c08110156159e85760b78103600185019450806020036101000a85510460018201810193505050615a1d565b60f88110156159fd5760be1981019150615a1d565b60f78103600185019450806020036101000a855104600182018101935050505b5092915050565b6000806000615a368460200151615928565b602085015194519481019594039392505050565b60405180604001604052806000815260200160008152509056fe56616c696461746f7220736574205468726573686f6c64206578636565646564214f6e6c7920626964646572206f722076616c696461746f722063616e20636f6e6669726d4f6e6c7920676f7665726e616e636520636f6e747261637420697320617574686f72697a6564756e6b6e6f776e2076616c696461746f72206f72206e6f2064656c65676174696f6e20656e61626c65644f776e6572206f6620636f6e7472616374206d757374206265207374616b654d616e61676572a265627a7a72315820439f66fd9f3525c3fdea330c7e516c5d6f312fdaf8868f30624c68b82c9305b864736f6c634300050b0032",
  "source": "pragma solidity ^0.5.2;\n\nimport {IERC20} from \"openzeppelin-solidity/contracts/token/ERC20/IERC20.sol\";\nimport {Math} from \"openzeppelin-solidity/contracts/math/Math.sol\";\nimport {SafeMath} from \"openzeppelin-solidity/contracts/math/SafeMath.sol\";\nimport {Ownable} from \"openzeppelin-solidity/contracts/ownership/Ownable.sol\";\nimport {RLPReader} from \"solidity-rlp/contracts/RLPReader.sol\";\n\nimport {BytesLib} from \"../../common/lib/BytesLib.sol\";\nimport {ECVerify} from \"../../common/lib/ECVerify.sol\";\nimport {Merkle} from \"../../common/lib/Merkle.sol\";\nimport {Lockable} from \"../../common/mixin/Lockable.sol\";\nimport {RootChainable} from \"../../common/mixin/RootChainable.sol\";\nimport {Registry} from \"../../common/Registry.sol\";\nimport {IStakeManager} from \"./IStakeManager.sol\";\nimport {IValidatorShare} from \"../validatorShare/IValidatorShare.sol\";\nimport {StakingInfo} from \"../StakingInfo.sol\";\nimport {StakingNFT} from \"./StakingNFT.sol\";\nimport {ValidatorShareFactory} from \"../validatorShare/ValidatorShareFactory.sol\";\nimport {ISlashingManager} from \"../slashing/ISlashingManager.sol\";\nimport {StakeManagerStorage} from \"./StakeManagerStorage.sol\";\nimport {Governable} from \"../../common/governance/Governable.sol\";\n\n\ncontract StakeManager is IStakeManager, StakeManagerStorage {\n    using SafeMath for uint256;\n    using ECVerify for bytes32;\n    using Merkle for bytes32;\n    using RLPReader for bytes;\n    using RLPReader for RLPReader.RLPItem;\n\n    uint256 private constant INCORRECT_VALIDATOR_ID = 2**256 - 1;\n\n    modifier onlyStaker(uint256 validatorId) {\n        require(NFTContract.ownerOf(validatorId) == msg.sender);\n        _;\n    }\n\n    constructor() public Lockable(address(0x0)) {}\n\n    function setDelegationEnabled(bool enabled) public onlyGovernance {\n        delegationEnabled = enabled;\n    }\n\n    // TopUp heimdall fee\n    function topUpForFee(address user, uint256 heimdallFee) public onlyWhenUnlocked {\n        _transferAndTopUp(user, heimdallFee, 0);\n    }\n\n    function ownerOf(uint256 tokenId) public view returns (address) {\n        return NFTContract.ownerOf(tokenId);\n    }\n\n    function epoch() public view returns (uint256) {\n        return currentEpoch;\n    }\n\n    function withdrawalDelay() public view returns (uint256) {\n        return WITHDRAWAL_DELAY;\n    }\n\n    function validatorStake(uint256 validatorId) public view returns (uint256) {\n        return validators[validatorId].amount;\n    }\n\n    function _transferAndTopUp(\n        address user,\n        uint256 fee,\n        uint256 additionalAmount\n    ) private {\n        require(fee >= minHeimdallFee, \"Not enough heimdall fee\");\n        require(token.transferFrom(msg.sender, address(this), fee.add(additionalAmount)), \"Fee transfer failed\");\n        totalHeimdallFee = totalHeimdallFee.add(fee);\n        logger.logTopUpFee(user, fee);\n    }\n\n    function _claimFee(address user, uint256 amount) private {\n        totalHeimdallFee = totalHeimdallFee.sub(amount);\n        logger.logClaimFee(user, amount);\n    }\n\n    function claimFee(\n        uint256 accumFeeAmount,\n        uint256 index,\n        bytes memory proof\n    ) public {\n        address user = msg.sender;\n        //Ignoring other params becuase rewards distribution is on chain\n        require(\n            keccak256(abi.encode(user, accumFeeAmount)).checkMembership(index, accountStateRoot, proof),\n            \"Wrong acc proof\"\n        );\n        uint256 withdrawAmount = accumFeeAmount.sub(userFeeExit[user]);\n        _claimFee(user, withdrawAmount);\n        userFeeExit[user] = accumFeeAmount;\n        require(token.transfer(user, withdrawAmount));\n    }\n\n    function stake(\n        uint256 amount,\n        uint256 heimdallFee,\n        bool acceptDelegation,\n        bytes calldata signerPubkey\n    ) external {\n        stakeFor(msg.sender, amount, heimdallFee, acceptDelegation, signerPubkey);\n    }\n\n    function totalStakedFor(address user) external view returns (uint256) {\n        if (user == address(0x0) || NFTContract.balanceOf(user) == 0) {\n            return 0;\n        }\n        return validators[NFTContract.tokenOfOwnerByIndex(user, 0)].amount;\n    }\n\n    function supportsHistory() external pure returns (bool) {\n        return false;\n    }\n\n    function startAuction(uint256 validatorId, uint256 amount) external onlyWhenUnlocked {\n        uint256 currentValidatorAmount = validators[validatorId].amount;\n\n        require(\n            validators[validatorId].deactivationEpoch == 0 && currentValidatorAmount != 0,\n            \"Invalid validator for an auction\"\n        );\n        uint256 senderValidatorId = signerToValidator[msg.sender];\n        // make sure that signer wasn't used already\n        require(\n            NFTContract.balanceOf(msg.sender) == 0 && // existing validators can't bid\n                senderValidatorId != INCORRECT_VALIDATOR_ID,\n            \"Already used address\"\n        );\n\n        uint256 _currentEpoch = currentEpoch;\n        uint256 _replacementCoolDown = replacementCoolDown;\n        // when dynasty period is updated validators are in cooldown period\n        require(_replacementCoolDown == 0 || _replacementCoolDown <= _currentEpoch, \"Cooldown period\");\n        // (auctionPeriod--dynasty)--(auctionPeriod--dynasty)--(auctionPeriod--dynasty)\n        // if it's auctionPeriod then will get residue smaller then auctionPeriod\n        // from (CurrentPeriod of validator )%(auctionPeriod--dynasty)\n        // make sure that its `auctionPeriod` window\n        // dynasty = 30, auctionPeriod = 7, activationEpoch = 1, currentEpoch = 39\n        // residue 1 = (39-1)% (7+30), if residue <= auctionPeriod it's `auctionPeriod`\n\n        require(\n            (_currentEpoch.sub(validators[validatorId].activationEpoch) % dynasty.add(auctionPeriod)) <= auctionPeriod,\n            \"Invalid auction period\"\n        );\n\n        uint256 perceivedStake = currentValidatorAmount;\n        address _contract = validators[validatorId].contractAddress;\n\n        if (_contract != address(0x0)) {\n            perceivedStake = perceivedStake.add(IValidatorShare(_contract).activeAmount());\n        }\n\n        Auction storage auction = validatorAuction[validatorId];\n        uint256 currentAuctionAmount = auction.amount;\n\n        perceivedStake = Math.max(perceivedStake, currentAuctionAmount);\n\n        require(perceivedStake < amount, \"Must bid higher\");\n        require(token.transferFrom(msg.sender, address(this), amount), \"Transfer amount failed\");\n\n        //replace prev auction\n        if (currentAuctionAmount != 0) {\n            require(token.transfer(auction.user, currentAuctionAmount), \"Bid return failed\");\n        }\n\n        // create new auction\n        auction.amount = amount;\n        auction.user = msg.sender;\n\n        logger.logStartAuction(validatorId, currentValidatorAmount, amount);\n    }\n\n    function confirmAuctionBid(\n        uint256 validatorId,\n        uint256 heimdallFee, /** for new validator */\n        bool acceptDelegation,\n        bytes calldata signerPubkey\n    ) external onlyWhenUnlocked {\n        Auction storage auction = validatorAuction[validatorId];\n        address auctionUser = auction.user;\n\n        require(\n            msg.sender == auctionUser || getValidatorId(msg.sender) == validatorId,\n            \"Only bidder or validator can confirm\"\n        );\n\n        uint256 _currentEpoch = currentEpoch;\n        require(\n            _currentEpoch.sub(auction.startEpoch) % auctionPeriod.add(dynasty) >= auctionPeriod,\n            \"Not allowed before auctionPeriod\"\n        );\n\n        uint256 validatorAmount = validators[validatorId].amount;\n        uint256 perceivedStake = validatorAmount;\n        uint256 auctionAmount = auction.amount;\n        address contractAddr = validators[validatorId].contractAddress;\n\n        if (contractAddr != address(0x0)) {\n            perceivedStake = perceivedStake.add(IValidatorShare(contractAddr).activeAmount());\n        }\n\n        // validator is last auctioner\n        if (perceivedStake >= auctionAmount && validators[validatorId].deactivationEpoch == 0) {\n            require(token.transfer(auctionUser, auctionAmount), \"Bid return failed\");\n            //cleanup auction data\n            auction.startEpoch = _currentEpoch;\n            logger.logConfirmAuction(validatorId, validatorId, validatorAmount);\n        } else {\n            // dethrone\n            _transferAndTopUp(auctionUser, heimdallFee, 0);\n            _unstake(validatorId, _currentEpoch);\n\n            uint256 newValidatorId = _stakeFor(auctionUser, auctionAmount, acceptDelegation, signerPubkey);\n            logger.logConfirmAuction(newValidatorId, validatorId, auctionAmount);\n        }\n\n        auction.amount = 0;\n        auction.user = address(0x0);\n    }\n\n    function unstake(uint256 validatorId) external onlyStaker(validatorId) {\n        require(validatorAuction[validatorId].amount == 0, \"Wait for auction completion\");\n        require(\n            validators[validatorId].activationEpoch > 0 &&\n                validators[validatorId].deactivationEpoch == 0 &&\n                (validators[validatorId].status == Status.Active || validators[validatorId].status == Status.Locked)\n        );\n\n        uint256 exitEpoch = currentEpoch.add(1); // notice period\n        _unstake(validatorId, exitEpoch);\n    }\n\n    // Housekeeping function. @todo remove later\n    function forceUnstake(uint256 validatorId) external onlyOwner {\n        _unstake(validatorId, currentEpoch);\n    }\n\n    function transferFunds(\n        uint256 validatorId,\n        uint256 amount,\n        address delegator\n    ) external returns (bool) {\n        require(\n            Registry(registry).getSlashingManagerAddress() == msg.sender ||\n                validators[validatorId].contractAddress == msg.sender,\n            \"Invalid contract address\"\n        );\n        return token.transfer(delegator, amount);\n    }\n\n    function delegationDeposit(\n        uint256 validatorId,\n        uint256 amount,\n        address delegator\n    ) external returns (bool) {\n        require(delegationEnabled, \"Delegation is disabled\");\n        require(validators[validatorId].contractAddress == msg.sender, \"Invalid contract address\");\n        return token.transferFrom(delegator, address(this), amount);\n    }\n\n    function stakeFor(\n        address user,\n        uint256 amount,\n        uint256 heimdallFee,\n        bool acceptDelegation,\n        bytes memory signerPubkey\n    ) public onlyWhenUnlocked {\n        require(currentValidatorSetSize() < validatorThreshold, \"Validator set Threshold exceeded!\");\n        require(amount > minDeposit, \"min deposit limit failed!\");\n        _transferAndTopUp(user, heimdallFee, amount);\n        _stakeFor(user, amount, acceptDelegation, signerPubkey);\n    }\n\n    function unstakeClaim(uint256 validatorId) public onlyStaker(validatorId) {\n        uint256 deactivationEpoch = validators[validatorId].deactivationEpoch;\n        // can only claim stake back after WITHDRAWAL_DELAY\n        require(\n            deactivationEpoch > 0 &&\n                deactivationEpoch.add(WITHDRAWAL_DELAY) <= currentEpoch &&\n                validators[validatorId].status != Status.Unstaked\n        );\n\n        uint256 amount = validators[validatorId].amount;\n        uint256 newTotalStaked = totalStaked.sub(amount);\n        totalStaked = newTotalStaked;\n\n        NFTContract.burn(validatorId);\n\n        signerToValidator[validators[validatorId].signer] = INCORRECT_VALIDATOR_ID;\n        validators[validatorId].status = Status.Unstaked;\n        require(token.transfer(msg.sender, amount), \"Transfer stake failed\");\n        logger.logUnstaked(msg.sender, validatorId, amount, newTotalStaked);\n    }\n\n    // slashing and jail interface\n    function restake(\n        uint256 validatorId,\n        uint256 amount,\n        bool stakeRewards\n    ) public onlyWhenUnlocked onlyStaker(validatorId) {\n        require(validators[validatorId].deactivationEpoch == 0, \"No use of restaking\");\n\n        if (amount > 0) {\n            require(token.transferFrom(msg.sender, address(this), amount), \"Transfer stake failed\");\n        }\n\n        if (stakeRewards) {\n            amount = amount.add(validators[validatorId].reward);\n            address contractAddr = validators[validatorId].contractAddress;\n            if (contractAddr != address(0x0)) {\n                amount = amount.add(IValidatorShare(contractAddr).withdrawRewardsValidator());\n            }\n            validators[validatorId].reward = 0;\n        }\n\n        uint256 newTotalStaked = totalStaked.add(amount);\n        totalStaked = newTotalStaked;\n        validators[validatorId].amount = validators[validatorId].amount.add(amount);\n\n        uint256 _currentEpoch = currentEpoch;\n        validatorState[_currentEpoch].amount = (validatorState[_currentEpoch].amount + int256(amount));\n\n        logger.logStakeUpdate(validatorId);\n        logger.logRestaked(validatorId, validators[validatorId].amount, newTotalStaked);\n    }\n\n    function withdrawRewards(uint256 validatorId) public onlyStaker(validatorId) {\n        uint256 amount = validators[validatorId].reward;\n        address contractAddr = validators[validatorId].contractAddress;\n        if (contractAddr != address(0x0)) {\n            amount = amount.add(IValidatorShare(contractAddr).withdrawRewardsValidator());\n        }\n\n        totalRewardsLiquidated = totalRewardsLiquidated.add(amount);\n        validators[validatorId].reward = 0;\n        require(token.transfer(msg.sender, amount), \"Insufficent rewards\");\n        logger.logClaimRewards(validatorId, amount, totalRewardsLiquidated);\n    }\n\n    function getValidatorId(address user) public view returns (uint256) {\n        return NFTContract.tokenOfOwnerByIndex(user, 0);\n    }\n\n    // set staking Token\n    function setToken(address _token) public onlyOwner {\n        require(_token != address(0x0));\n        token = IERC20(_token);\n    }\n\n    // Change the number of validators required to allow a passed header root\n    function updateValidatorThreshold(uint256 newThreshold) public onlyOwner {\n        require(newThreshold > 0);\n        logger.logThresholdChange(newThreshold, validatorThreshold);\n        validatorThreshold = newThreshold;\n    }\n\n    function updateCheckPointBlockInterval(uint256 _blocks) public onlyOwner {\n        require(_blocks > 0, \"Blocks interval must be non-zero\");\n        checkPointBlockInterval = _blocks;\n    }\n\n    // Change reward for each checkpoint\n    function updateCheckpointReward(uint256 newReward) public onlyOwner {\n        require(newReward > 0);\n        logger.logRewardUpdate(newReward, CHECKPOINT_REWARD);\n        CHECKPOINT_REWARD = newReward;\n    }\n\n    // Change delegation contract for a validator\n    // @note: Users must exit before this update or all funds may get lost\n    function updateContractAddress(uint256 validatorId, address newContractAddress) public onlyOwner {\n        require(IValidatorShare(newContractAddress).owner() == address(this), \"Owner of contract must be stakeManager\");\n        validators[validatorId].contractAddress = newContractAddress;\n    }\n\n    // Update delegation contract factory\n    function updateContractFactory(address newFactory) public onlyOwner {\n        factory = ValidatorShareFactory(newFactory);\n    }\n\n    function updateValidatorState(uint256 validatorId, int256 amount) public {\n        require(validators[validatorId].contractAddress == msg.sender, \"Invalid contract address\");\n        uint256 _currentEpoch = currentEpoch;\n        validatorState[_currentEpoch].amount = (validatorState[_currentEpoch].amount + amount);\n    }\n\n    function updateDynastyValue(uint256 newDynasty) public onlyOwner {\n        require(newDynasty > 0);\n        logger.logDynastyValueChange(newDynasty, dynasty);\n        dynasty = newDynasty;\n        WITHDRAWAL_DELAY = newDynasty;\n        auctionPeriod = newDynasty.div(4);\n        // set cooldown period\n        replacementCoolDown = currentEpoch.add(auctionPeriod);\n    }\n\n    // Housekeeping function. @todo remove later\n    function stopAuctions(uint256 forNCheckpoints) public onlyOwner {\n        replacementCoolDown = currentEpoch.add(forNCheckpoints);\n    }\n\n    function updateProposerBonus(uint256 newProposerBonus) public onlyOwner {\n        logger.logProposerBonusChange(newProposerBonus, proposerBonus);\n        require(newProposerBonus <= 100, \"too big\");\n        proposerBonus = newProposerBonus;\n    }\n\n    function updateSignerUpdateLimit(uint256 _limit) public onlyOwner {\n        signerUpdateLimit = _limit;\n    }\n\n    function updateMinAmounts(uint256 _minDeposit, uint256 _minHeimdallFee) public onlyOwner {\n        minDeposit = _minDeposit;\n        minHeimdallFee = _minHeimdallFee;\n    }\n\n    function updateSigner(uint256 validatorId, bytes memory signerPubkey) public onlyStaker(validatorId) {\n        address signer = pubToAddress(signerPubkey);\n        require(signer != address(0x0) && signerToValidator[signer] == 0, \"Invalid signer\");\n\n        uint256 _currentEpoch = currentEpoch;\n        require(\n            _currentEpoch >= latestSignerUpdateEpoch[validatorId].add(signerUpdateLimit),\n            \"Invalid checkpoint number!\"\n        );\n\n        address currentSigner = validators[validatorId].signer;\n        // update signer event\n        logger.logSignerChange(validatorId, currentSigner, signer, signerPubkey);\n\n        signerToValidator[currentSigner] = INCORRECT_VALIDATOR_ID;\n        signerToValidator[signer] = validatorId;\n        validators[validatorId].signer = signer;\n        // reset update time to current time\n        latestSignerUpdateEpoch[validatorId] = _currentEpoch;\n    }\n\n    function currentValidatorSetSize() public view returns (uint256) {\n        return uint256(validatorState[currentEpoch].stakerCount);\n    }\n\n    function currentValidatorSetTotalStake() public view returns (uint256) {\n        return uint256(validatorState[currentEpoch].amount);\n    }\n\n    function getValidatorContract(uint256 validatorId) public view returns (address) {\n        return validators[validatorId].contractAddress;\n    }\n\n    function isValidator(uint256 validatorId) public view returns (bool) {\n        uint256 activationEpoch = validators[validatorId].activationEpoch;\n        uint256 deactivationEpoch = validators[validatorId].deactivationEpoch;\n        uint256 amount = validators[validatorId].amount;\n        Status status = validators[validatorId].status;\n        uint256 _currentEpoch = currentEpoch;\n\n        return (amount > 0 &&\n            (activationEpoch != 0 && activationEpoch <= _currentEpoch) &&\n            (deactivationEpoch == 0 || deactivationEpoch > _currentEpoch) &&\n            status == Status.Active);\n    }\n\n    function checkSignatures(\n        uint256 blockInterval,\n        bytes32 voteHash,\n        bytes32 stateRoot,\n        address proposer,\n        bytes memory sigs\n    ) public onlyRootChain returns (uint256) {\n        // checkpoint rewards are based on BlockInterval multiplied on `CHECKPOINT_REWARD`\n        // for bigger checkpoints reward is capped at `CHECKPOINT_REWARD`\n        // if interval is 50% of checkPointBlockInterval then reward R is half of `CHECKPOINT_REWARD`\n        // and then stakePower is 90% of currentValidatorSetTotalStake then final reward is 90% of R\n        uint256 reward = blockInterval.mul(CHECKPOINT_REWARD).div(checkPointBlockInterval);\n        reward = Math.min(CHECKPOINT_REWARD, reward);\n\n        uint256 _proposerBonus = reward.mul(proposerBonus).div(100);\n        Validator storage _proposer = validators[signerToValidator[proposer]];\n        if (_proposer.contractAddress != address(0x0)) {\n            IValidatorShare(_proposer.contractAddress).addProposerBonus(_proposerBonus, _proposer.amount);\n        } else {\n            _proposer.reward = _proposer.reward.add(_proposerBonus);\n        }\n\n        reward = reward.sub(_proposerBonus);\n        uint256 stakePower = currentValidatorSetTotalStake();\n        // update stateMerkleTree root for accounts balance on heimdall chain\n        accountStateRoot = stateRoot;\n        _finalizeCommit();\n        return checkSignature(stakePower, reward, voteHash, sigs);\n    }\n\n    function checkSignature(\n        uint256 checkpointStakePower,\n        uint256 reward,\n        bytes32 voteHash,\n        bytes memory sigs\n    ) internal returns (uint256) {\n        // total voting power\n        uint256 totalStakePower;\n        address lastAdd; // cannot have address(0x0) as an owner\n        for (uint64 i = 0; i < sigs.length; i += 65) {\n            address signer = voteHash.ecrecovery(BytesLib.slice(sigs, i, 65));\n            uint256 validatorId = signerToValidator[signer];\n            // check if signer is staker and not proposer\n            if (signer == lastAdd) {\n                break;\n            } else if (isValidator(validatorId) && signer > lastAdd) {\n                lastAdd = signer;\n\n                Validator storage validator = validators[validatorId];\n                uint256 valPow;\n                // add delegation power\n                address contractAddr = validator.contractAddress;\n                if (contractAddr != address(0x0)) {\n                    valPow = IValidatorShare(contractAddr).updateRewards(\n                        reward,\n                        checkpointStakePower,\n                        validatorStake(validatorId)\n                    );\n                } else {\n                    valPow = validator.amount;\n                    validator.reward = validator.reward.add(valPow.mul(reward).div(checkpointStakePower));\n                }\n                totalStakePower = totalStakePower.add(valPow);\n            }\n        }\n\n        reward = CHECKPOINT_REWARD.mul(totalStakePower).div(currentValidatorSetTotalStake());\n        totalRewards = totalRewards.add(reward);\n        require(totalStakePower >= currentValidatorSetTotalStake().mul(2).div(3).add(1), \"2/3+1 non-majority!\");\n\n        return reward;\n    }\n\n    function slash(bytes memory _slashingInfoList) public returns (uint256) {\n        require(Registry(registry).getSlashingManagerAddress() == msg.sender, \"Sender must be slashing manager!\");\n        RLPReader.RLPItem[] memory slashingInfoList = _slashingInfoList.toRlpItem().toList();\n        int256 valJailed = 0;\n        uint256 jailedAmount = 0;\n        uint256 totalAmount;\n        for (uint256 i = 0; i < slashingInfoList.length; i++) {\n            RLPReader.RLPItem[] memory slashData = slashingInfoList[i].toList();\n            uint256 validatorId = slashData[0].toUint();\n            uint256 _amount = slashData[1].toUint();\n            totalAmount = totalAmount.add(_amount);\n\n            if (validators[validatorId].contractAddress != address(0x0)) {\n                uint256 delSlashedAmount = IValidatorShare(validators[validatorId].contractAddress).slash(\n                    validators[validatorId].amount,\n                    _amount\n                );\n                _amount = _amount.sub(delSlashedAmount);\n            }\n\n            validators[validatorId].amount = validators[validatorId].amount.sub(_amount);\n            if (slashData[2].toBoolean()) {\n                jailedAmount = jailedAmount.add(_jail(validatorId, 1));\n                valJailed++;\n            }\n        }\n\n        //update timeline\n        updateTimeLine(currentEpoch, -int256(totalAmount.add(jailedAmount)), -valJailed);\n\n        return totalAmount;\n    }\n\n    function unjail(uint256 validatorId) public onlyStaker(validatorId) {\n        require(validators[validatorId].status == Status.Locked, \"Validator is not jailed\");\n        require(validators[validatorId].deactivationEpoch == 0, \"Validator already unstaking\");\n\n        uint256 _currentEpoch = currentEpoch;\n        require(validators[validatorId].jailTime <= _currentEpoch, \"Incomplete jail period\");\n\n        uint256 amount = validators[validatorId].amount;\n        require(amount >= minDeposit);\n\n        uint256 delegationAmount = 0;\n        if (validators[validatorId].contractAddress != address(0x0)) {\n            delegationAmount = IValidatorShare(validators[validatorId].contractAddress).unlockContract();\n        }\n\n        // undo timline so that validator is normal validator\n        updateTimeLine(_currentEpoch, int256(amount.add(delegationAmount)), 1);\n\n        validators[validatorId].status = Status.Active;\n        logger.logUnjailed(validatorId, validators[validatorId].signer);\n    }\n\n    function _jail(uint256 validatorId, uint256 jailCheckpoints) internal returns (uint256) {\n        uint256 delegationAmount = 0;\n        if (validators[validatorId].contractAddress != address(0x0)) {\n            delegationAmount = IValidatorShare(validators[validatorId].contractAddress).lockContract();\n        }\n\n        uint256 _currentEpoch = currentEpoch;\n        validators[validatorId].jailTime = _currentEpoch.add(jailCheckpoints);\n        validators[validatorId].status = Status.Locked;\n        logger.logJailed(validatorId, _currentEpoch, validators[validatorId].signer);\n        return validators[validatorId].amount.add(delegationAmount);\n    }\n\n    function _stakeFor(\n        address user,\n        uint256 amount,\n        bool acceptDelegation,\n        bytes memory signerPubkey\n    ) internal returns (uint256) {\n        address signer = pubToAddress(signerPubkey);\n        require(signer != address(0x0) && signerToValidator[signer] == 0, \"Invalid signer\");\n\n        uint256 _currentEpoch = currentEpoch;\n        uint256 validatorId = NFTCounter;\n        StakingInfo _logger = logger;\n        uint256 newTotalStaked = totalStaked.add(amount);\n        totalStaked = newTotalStaked;\n\n        validators[validatorId] = Validator({\n            reward: 0,\n            amount: amount,\n            activationEpoch: _currentEpoch,\n            deactivationEpoch: 0,\n            jailTime: 0,\n            signer: signer,\n            contractAddress: acceptDelegation ? factory.create(validatorId, address(_logger), registry) : address(0x0),\n            status: Status.Active\n        });\n\n        latestSignerUpdateEpoch[validatorId] = _currentEpoch;\n        NFTContract.mint(user, validatorId);\n\n        signerToValidator[signer] = validatorId;\n        updateTimeLine(_currentEpoch, int256(amount), 1);\n        // no Auctions for 1 dynasty\n        validatorAuction[validatorId].startEpoch = _currentEpoch;\n        _logger.logStaked(signer, signerPubkey, validatorId, _currentEpoch, amount, newTotalStaked);\n        NFTCounter = validatorId.add(1);\n\n        return validatorId;\n    }\n\n    function _unstake(uint256 validatorId, uint256 exitEpoch) internal {\n        uint256 amount = validators[validatorId].amount;\n        address validator = ownerOf(validatorId);\n\n        validators[validatorId].deactivationEpoch = exitEpoch;\n\n        // unbond all delegators in future\n        int256 delegationAmount = 0;\n        uint256 rewards = validators[validatorId].reward;\n        address contractAddr = validators[validatorId].contractAddress;\n        if (contractAddr != address(0x0)) {\n            IValidatorShare validatorShare = IValidatorShare(contractAddr);\n            rewards = rewards.add(validatorShare.withdrawRewardsValidator());\n            delegationAmount = int256(validatorShare.lockContract());\n        }\n\n        validators[validatorId].reward = 0;\n        require(token.transfer(validator, rewards), \"Rewards transfer failed\");\n        //  update future\n        updateTimeLine(exitEpoch, -(int256(amount) + delegationAmount), -1);\n\n        logger.logUnstakeInit(validator, validatorId, exitEpoch, amount);\n    }\n\n    function _finalizeCommit() internal {\n        uint256 _currentEpoch = currentEpoch;\n        uint256 nextEpoch = _currentEpoch.add(1);\n        // update totalstake and validator count\n        validatorState[nextEpoch].amount = (validatorState[_currentEpoch].amount + validatorState[nextEpoch].amount);\n        validatorState[nextEpoch].stakerCount = (validatorState[_currentEpoch].stakerCount +\n            validatorState[nextEpoch].stakerCount);\n\n        // erase old data/history\n        delete validatorState[_currentEpoch];\n        currentEpoch = nextEpoch;\n    }\n\n    function updateTimeLine(\n        uint256 targetEpoch,\n        int256 amount,\n        int256 stakerCount\n    ) private {\n        validatorState[targetEpoch].amount += amount;\n        validatorState[targetEpoch].stakerCount += stakerCount;\n    }\n\n    function pubToAddress(bytes memory pub) public pure returns (address) {\n        require(pub.length == 64, \"Invalid pubkey\");\n        return address(uint160(uint256(keccak256(pub))));\n    }\n\n    function drainValidatorShares(\n        uint256 validatorId,\n        address _token,\n        address payable destination,\n        uint256 amount\n    ) external onlyGovernance {\n        address contractAddr = validators[validatorId].contractAddress;\n        require(contractAddr != address(0x0), \"unknown validator or no delegation enabled\");\n        IValidatorShare validatorShare = IValidatorShare(contractAddr);\n        validatorShare.drain(_token, destination, amount);\n    }\n\n    function drain(address destination, uint256 amount) external onlyGovernance {\n        require(token.transfer(destination, amount), \"Drain failed\");\n    }\n\n    function reinitialize(\n        address _NFTContract,\n        address _stakingLogger,\n        address _validatorShareFactory\n    ) external onlyGovernance {\n        NFTContract = StakingNFT(_NFTContract);\n        logger = StakingInfo(_stakingLogger);\n        factory = ValidatorShareFactory(_validatorShareFactory);\n    }\n}\n",
  "sourcePath": "/Users/ohm.jirapon/playground/blockhain/pos/plasma-ploygon/contracts/contracts/staking/stakeManager/StakeManager.sol",
  "compiler": {
    "name": "solc",
    "version": "0.5.11+commit.c082d0b4.Emscripten.clang"
  },
  "schemaVersion": "3.0.14",
  "updatedAt": "2022-06-14T12:06:33.479Z",
  "devdoc": {
    "methods": {
      "changeRootChain(address)": {
        "details": "Allows the current owner to change root chain address.",
        "params": {
          "newRootChain": "The address to new rootchain."
        }
      },
      "isOwner()": {
        "return": "true if `msg.sender` is the owner of the contract."
      },
      "owner()": {
        "return": "the address of the owner."
      },
      "renounceOwnership()": {
        "details": "Allows the current owner to relinquish control of the contract. It will not be possible to call the functions with the `onlyOwner` modifier anymore."
      },
      "transferOwnership(address)": {
        "details": "Allows the current owner to transfer control of the contract to a newOwner.",
        "params": {
          "newOwner": "The address to transfer ownership to."
        }
      }
    }
  },
  "userdoc": {
    "methods": {
      "renounceOwnership()": {
        "notice": "Renouncing ownership will leave the contract without an owner, thereby removing any functionality that is only available to the owner."
      }
    }
  }
}