{
  "contractName": "StakingInfo",
  "abi": [
    {
      "constant": true,
      "inputs": [],
      "name": "registry",
      "outputs": [
        {
          "internalType": "contract Registry",
          "name": "",
          "type": "address"
        }
      ],
      "payable": false,
      "stateMutability": "view",
      "type": "function"
    },
    {
      "constant": true,
      "inputs": [
        {
          "internalType": "uint256",
          "name": "",
          "type": "uint256"
        }
      ],
      "name": "validatorNonce",
      "outputs": [
        {
          "internalType": "uint256",
          "name": "",
          "type": "uint256"
        }
      ],
      "payable": false,
      "stateMutability": "view",
      "type": "function"
    },
    {
      "inputs": [
        {
          "internalType": "address",
          "name": "_registry",
          "type": "address"
        }
      ],
      "payable": false,
      "stateMutability": "nonpayable",
      "type": "constructor"
    },
    {
      "anonymous": false,
      "inputs": [
        {
          "indexed": true,
          "internalType": "address",
          "name": "signer",
          "type": "address"
        },
        {
          "indexed": true,
          "internalType": "uint256",
          "name": "validatorId",
          "type": "uint256"
        },
        {
          "indexed": false,
          "internalType": "uint256",
          "name": "nonce",
          "type": "uint256"
        },
        {
          "indexed": true,
          "internalType": "uint256",
          "name": "activationEpoch",
          "type": "uint256"
        },
        {
          "indexed": false,
          "internalType": "uint256",
          "name": "amount",
          "type": "uint256"
        },
        {
          "indexed": false,
          "internalType": "uint256",
          "name": "total",
          "type": "uint256"
        },
        {
          "indexed": false,
          "internalType": "bytes",
          "name": "signerPubkey",
          "type": "bytes"
        }
      ],
      "name": "Staked",
      "type": "event"
    },
    {
      "anonymous": false,
      "inputs": [
        {
          "indexed": true,
          "internalType": "address",
          "name": "user",
          "type": "address"
        },
        {
          "indexed": true,
          "internalType": "uint256",
          "name": "validatorId",
          "type": "uint256"
        },
        {
          "indexed": false,
          "internalType": "uint256",
          "name": "amount",
          "type": "uint256"
        },
        {
          "indexed": false,
          "internalType": "uint256",
          "name": "total",
          "type": "uint256"
        }
      ],
      "name": "Unstaked",
      "type": "event"
    },
    {
      "anonymous": false,
      "inputs": [
        {
          "indexed": true,
          "internalType": "address",
          "name": "user",
          "type": "address"
        },
        {
          "indexed": true,
          "internalType": "uint256",
          "name": "validatorId",
          "type": "uint256"
        },
        {
          "indexed": false,
          "internalType": "uint256",
          "name": "nonce",
          "type": "uint256"
        },
        {
          "indexed": false,
          "internalType": "uint256",
          "name": "deactivationEpoch",
          "type": "uint256"
        },
        {
          "indexed": true,
          "internalType": "uint256",
          "name": "amount",
          "type": "uint256"
        }
      ],
      "name": "UnstakeInit",
      "type": "event"
    },
    {
      "anonymous": false,
      "inputs": [
        {
          "indexed": true,
          "internalType": "uint256",
          "name": "validatorId",
          "type": "uint256"
        },
        {
          "indexed": false,
          "internalType": "uint256",
          "name": "nonce",
          "type": "uint256"
        },
        {
          "indexed": true,
          "internalType": "address",
          "name": "oldSigner",
          "type": "address"
        },
        {
          "indexed": true,
          "internalType": "address",
          "name": "newSigner",
          "type": "address"
        },
        {
          "indexed": false,
          "internalType": "bytes",
          "name": "signerPubkey",
          "type": "bytes"
        }
      ],
      "name": "SignerChange",
      "type": "event"
    },
    {
      "anonymous": false,
      "inputs": [
        {
          "indexed": true,
          "internalType": "uint256",
          "name": "validatorId",
          "type": "uint256"
        },
        {
          "indexed": false,
          "internalType": "uint256",
          "name": "amount",
          "type": "uint256"
        },
        {
          "indexed": false,
          "internalType": "uint256",
          "name": "total",
          "type": "uint256"
        }
      ],
      "name": "Restaked",
      "type": "event"
    },
    {
      "anonymous": false,
      "inputs": [
        {
          "indexed": true,
          "internalType": "uint256",
          "name": "validatorId",
          "type": "uint256"
        },
        {
          "indexed": true,
          "internalType": "uint256",
          "name": "exitEpoch",
          "type": "uint256"
        },
        {
          "indexed": true,
          "internalType": "address",
          "name": "signer",
          "type": "address"
        }
      ],
      "name": "Jailed",
      "type": "event"
    },
    {
      "anonymous": false,
      "inputs": [
        {
          "indexed": true,
          "internalType": "uint256",
          "name": "validatorId",
          "type": "uint256"
        },
        {
          "indexed": true,
          "internalType": "address",
          "name": "signer",
          "type": "address"
        }
      ],
      "name": "UnJailed",
      "type": "event"
    },
    {
      "anonymous": false,
      "inputs": [
        {
          "indexed": true,
          "internalType": "uint256",
          "name": "nonce",
          "type": "uint256"
        },
        {
          "indexed": true,
          "internalType": "uint256",
          "name": "amount",
          "type": "uint256"
        }
      ],
      "name": "Slashed",
      "type": "event"
    },
    {
      "anonymous": false,
      "inputs": [
        {
          "indexed": false,
          "internalType": "uint256",
          "name": "newThreshold",
          "type": "uint256"
        },
        {
          "indexed": false,
          "internalType": "uint256",
          "name": "oldThreshold",
          "type": "uint256"
        }
      ],
      "name": "ThresholdChange",
      "type": "event"
    },
    {
      "anonymous": false,
      "inputs": [
        {
          "indexed": false,
          "internalType": "uint256",
          "name": "newDynasty",
          "type": "uint256"
        },
        {
          "indexed": false,
          "internalType": "uint256",
          "name": "oldDynasty",
          "type": "uint256"
        }
      ],
      "name": "DynastyValueChange",
      "type": "event"
    },
    {
      "anonymous": false,
      "inputs": [
        {
          "indexed": false,
          "internalType": "uint256",
          "name": "newProposerBonus",
          "type": "uint256"
        },
        {
          "indexed": false,
          "internalType": "uint256",
          "name": "oldProposerBonus",
          "type": "uint256"
        }
      ],
      "name": "ProposerBonusChange",
      "type": "event"
    },
    {
      "anonymous": false,
      "inputs": [
        {
          "indexed": false,
          "internalType": "uint256",
          "name": "newReward",
          "type": "uint256"
        },
        {
          "indexed": false,
          "internalType": "uint256",
          "name": "oldReward",
          "type": "uint256"
        }
      ],
      "name": "RewardUpdate",
      "type": "event"
    },
    {
      "anonymous": false,
      "inputs": [
        {
          "indexed": true,
          "internalType": "uint256",
          "name": "validatorId",
          "type": "uint256"
        },
        {
          "indexed": true,
          "internalType": "uint256",
          "name": "nonce",
          "type": "uint256"
        },
        {
          "indexed": true,
          "internalType": "uint256",
          "name": "newAmount",
          "type": "uint256"
        }
      ],
      "name": "StakeUpdate",
      "type": "event"
    },
    {
      "anonymous": false,
      "inputs": [
        {
          "indexed": true,
          "internalType": "uint256",
          "name": "validatorId",
          "type": "uint256"
        },
        {
          "indexed": true,
          "internalType": "uint256",
          "name": "amount",
          "type": "uint256"
        },
        {
          "indexed": true,
          "internalType": "uint256",
          "name": "totalAmount",
          "type": "uint256"
        }
      ],
      "name": "ClaimRewards",
      "type": "event"
    },
    {
      "anonymous": false,
      "inputs": [
        {
          "indexed": true,
          "internalType": "uint256",
          "name": "validatorId",
          "type": "uint256"
        },
        {
          "indexed": true,
          "internalType": "uint256",
          "name": "amount",
          "type": "uint256"
        },
        {
          "indexed": true,
          "internalType": "uint256",
          "name": "auctionAmount",
          "type": "uint256"
        }
      ],
      "name": "StartAuction",
      "type": "event"
    },
    {
      "anonymous": false,
      "inputs": [
        {
          "indexed": true,
          "internalType": "uint256",
          "name": "newValidatorId",
          "type": "uint256"
        },
        {
          "indexed": true,
          "internalType": "uint256",
          "name": "oldValidatorId",
          "type": "uint256"
        },
        {
          "indexed": true,
          "internalType": "uint256",
          "name": "amount",
          "type": "uint256"
        }
      ],
      "name": "ConfirmAuction",
      "type": "event"
    },
    {
      "anonymous": false,
      "inputs": [
        {
          "indexed": true,
          "internalType": "address",
          "name": "user",
          "type": "address"
        },
        {
          "indexed": true,
          "internalType": "uint256",
          "name": "fee",
          "type": "uint256"
        }
      ],
      "name": "TopUpFee",
      "type": "event"
    },
    {
      "anonymous": false,
      "inputs": [
        {
          "indexed": true,
          "internalType": "address",
          "name": "user",
          "type": "address"
        },
        {
          "indexed": true,
          "internalType": "uint256",
          "name": "fee",
          "type": "uint256"
        }
      ],
      "name": "ClaimFee",
      "type": "event"
    },
    {
      "anonymous": false,
      "inputs": [
        {
          "indexed": true,
          "internalType": "uint256",
          "name": "validatorId",
          "type": "uint256"
        },
        {
          "indexed": true,
          "internalType": "address",
          "name": "user",
          "type": "address"
        },
        {
          "indexed": true,
          "internalType": "uint256",
          "name": "amount",
          "type": "uint256"
        },
        {
          "indexed": false,
          "internalType": "uint256",
          "name": "tokens",
          "type": "uint256"
        }
      ],
      "name": "ShareMinted",
      "type": "event"
    },
    {
      "anonymous": false,
      "inputs": [
        {
          "indexed": true,
          "internalType": "uint256",
          "name": "validatorId",
          "type": "uint256"
        },
        {
          "indexed": true,
          "internalType": "address",
          "name": "user",
          "type": "address"
        },
        {
          "indexed": true,
          "internalType": "uint256",
          "name": "amount",
          "type": "uint256"
        },
        {
          "indexed": false,
          "internalType": "uint256",
          "name": "tokens",
          "type": "uint256"
        }
      ],
      "name": "ShareBurned",
      "type": "event"
    },
    {
      "anonymous": false,
      "inputs": [
        {
          "indexed": true,
          "internalType": "uint256",
          "name": "validatorId",
          "type": "uint256"
        },
        {
          "indexed": true,
          "internalType": "address",
          "name": "user",
          "type": "address"
        },
        {
          "indexed": true,
          "internalType": "uint256",
          "name": "rewards",
          "type": "uint256"
        },
        {
          "indexed": false,
          "internalType": "uint256",
          "name": "tokens",
          "type": "uint256"
        }
      ],
      "name": "DelegatorClaimedRewards",
      "type": "event"
    },
    {
      "anonymous": false,
      "inputs": [
        {
          "indexed": true,
          "internalType": "uint256",
          "name": "validatorId",
          "type": "uint256"
        },
        {
          "indexed": true,
          "internalType": "address",
          "name": "user",
          "type": "address"
        },
        {
          "indexed": true,
          "internalType": "uint256",
          "name": "totalStaked",
          "type": "uint256"
        }
      ],
      "name": "DelegatorRestaked",
      "type": "event"
    },
    {
      "anonymous": false,
      "inputs": [
        {
          "indexed": true,
          "internalType": "uint256",
          "name": "validatorId",
          "type": "uint256"
        },
        {
          "indexed": true,
          "internalType": "address",
          "name": "user",
          "type": "address"
        },
        {
          "indexed": false,
          "internalType": "uint256",
          "name": "amount",
          "type": "uint256"
        }
      ],
      "name": "DelegatorUnstaked",
      "type": "event"
    },
    {
      "anonymous": false,
      "inputs": [
        {
          "indexed": true,
          "internalType": "uint256",
          "name": "validatorId",
          "type": "uint256"
        },
        {
          "indexed": true,
          "internalType": "uint256",
          "name": "newCommissionRate",
          "type": "uint256"
        },
        {
          "indexed": true,
          "internalType": "uint256",
          "name": "oldCommissionRate",
          "type": "uint256"
        }
      ],
      "name": "UpdateCommissionRate",
      "type": "event"
    },
    {
      "constant": false,
      "inputs": [
        {
          "internalType": "address",
          "name": "signer",
          "type": "address"
        },
        {
          "internalType": "bytes",
          "name": "signerPubkey",
          "type": "bytes"
        },
        {
          "internalType": "uint256",
          "name": "validatorId",
          "type": "uint256"
        },
        {
          "internalType": "uint256",
          "name": "activationEpoch",
          "type": "uint256"
        },
        {
          "internalType": "uint256",
          "name": "amount",
          "type": "uint256"
        },
        {
          "internalType": "uint256",
          "name": "total",
          "type": "uint256"
        }
      ],
      "name": "logStaked",
      "outputs": [],
      "payable": false,
      "stateMutability": "nonpayable",
      "type": "function"
    },
    {
      "constant": false,
      "inputs": [
        {
          "internalType": "address",
          "name": "user",
          "type": "address"
        },
        {
          "internalType": "uint256",
          "name": "validatorId",
          "type": "uint256"
        },
        {
          "internalType": "uint256",
          "name": "amount",
          "type": "uint256"
        },
        {
          "internalType": "uint256",
          "name": "total",
          "type": "uint256"
        }
      ],
      "name": "logUnstaked",
      "outputs": [],
      "payable": false,
      "stateMutability": "nonpayable",
      "type": "function"
    },
    {
      "constant": false,
      "inputs": [
        {
          "internalType": "address",
          "name": "user",
          "type": "address"
        },
        {
          "internalType": "uint256",
          "name": "validatorId",
          "type": "uint256"
        },
        {
          "internalType": "uint256",
          "name": "deactivationEpoch",
          "type": "uint256"
        },
        {
          "internalType": "uint256",
          "name": "amount",
          "type": "uint256"
        }
      ],
      "name": "logUnstakeInit",
      "outputs": [],
      "payable": false,
      "stateMutability": "nonpayable",
      "type": "function"
    },
    {
      "constant": false,
      "inputs": [
        {
          "internalType": "uint256",
          "name": "validatorId",
          "type": "uint256"
        },
        {
          "internalType": "address",
          "name": "oldSigner",
          "type": "address"
        },
        {
          "internalType": "address",
          "name": "newSigner",
          "type": "address"
        },
        {
          "internalType": "bytes",
          "name": "signerPubkey",
          "type": "bytes"
        }
      ],
      "name": "logSignerChange",
      "outputs": [],
      "payable": false,
      "stateMutability": "nonpayable",
      "type": "function"
    },
    {
      "constant": false,
      "inputs": [
        {
          "internalType": "uint256",
          "name": "validatorId",
          "type": "uint256"
        },
        {
          "internalType": "uint256",
          "name": "amount",
          "type": "uint256"
        },
        {
          "internalType": "uint256",
          "name": "total",
          "type": "uint256"
        }
      ],
      "name": "logRestaked",
      "outputs": [],
      "payable": false,
      "stateMutability": "nonpayable",
      "type": "function"
    },
    {
      "constant": false,
      "inputs": [
        {
          "internalType": "uint256",
          "name": "validatorId",
          "type": "uint256"
        },
        {
          "internalType": "uint256",
          "name": "exitEpoch",
          "type": "uint256"
        },
        {
          "internalType": "address",
          "name": "signer",
          "type": "address"
        }
      ],
      "name": "logJailed",
      "outputs": [],
      "payable": false,
      "stateMutability": "nonpayable",
      "type": "function"
    },
    {
      "constant": false,
      "inputs": [
        {
          "internalType": "uint256",
          "name": "validatorId",
          "type": "uint256"
        },
        {
          "internalType": "address",
          "name": "signer",
          "type": "address"
        }
      ],
      "name": "logUnjailed",
      "outputs": [],
      "payable": false,
      "stateMutability": "nonpayable",
      "type": "function"
    },
    {
      "constant": false,
      "inputs": [
        {
          "internalType": "uint256",
          "name": "nonce",
          "type": "uint256"
        },
        {
          "internalType": "uint256",
          "name": "amount",
          "type": "uint256"
        }
      ],
      "name": "logSlashed",
      "outputs": [],
      "payable": false,
      "stateMutability": "nonpayable",
      "type": "function"
    },
    {
      "constant": false,
      "inputs": [
        {
          "internalType": "uint256",
          "name": "newThreshold",
          "type": "uint256"
        },
        {
          "internalType": "uint256",
          "name": "oldThreshold",
          "type": "uint256"
        }
      ],
      "name": "logThresholdChange",
      "outputs": [],
      "payable": false,
      "stateMutability": "nonpayable",
      "type": "function"
    },
    {
      "constant": false,
      "inputs": [
        {
          "internalType": "uint256",
          "name": "newDynasty",
          "type": "uint256"
        },
        {
          "internalType": "uint256",
          "name": "oldDynasty",
          "type": "uint256"
        }
      ],
      "name": "logDynastyValueChange",
      "outputs": [],
      "payable": false,
      "stateMutability": "nonpayable",
      "type": "function"
    },
    {
      "constant": false,
      "inputs": [
        {
          "internalType": "uint256",
          "name": "newProposerBonus",
          "type": "uint256"
        },
        {
          "internalType": "uint256",
          "name": "oldProposerBonus",
          "type": "uint256"
        }
      ],
      "name": "logProposerBonusChange",
      "outputs": [],
      "payable": false,
      "stateMutability": "nonpayable",
      "type": "function"
    },
    {
      "constant": false,
      "inputs": [
        {
          "internalType": "uint256",
          "name": "newReward",
          "type": "uint256"
        },
        {
          "internalType": "uint256",
          "name": "oldReward",
          "type": "uint256"
        }
      ],
      "name": "logRewardUpdate",
      "outputs": [],
      "payable": false,
      "stateMutability": "nonpayable",
      "type": "function"
    },
    {
      "constant": false,
      "inputs": [
        {
          "internalType": "uint256",
          "name": "validatorId",
          "type": "uint256"
        }
      ],
      "name": "logStakeUpdate",
      "outputs": [],
      "payable": false,
      "stateMutability": "nonpayable",
      "type": "function"
    },
    {
      "constant": false,
      "inputs": [
        {
          "internalType": "uint256",
          "name": "validatorId",
          "type": "uint256"
        },
        {
          "internalType": "uint256",
          "name": "amount",
          "type": "uint256"
        },
        {
          "internalType": "uint256",
          "name": "totalAmount",
          "type": "uint256"
        }
      ],
      "name": "logClaimRewards",
      "outputs": [],
      "payable": false,
      "stateMutability": "nonpayable",
      "type": "function"
    },
    {
      "constant": false,
      "inputs": [
        {
          "internalType": "uint256",
          "name": "validatorId",
          "type": "uint256"
        },
        {
          "internalType": "uint256",
          "name": "amount",
          "type": "uint256"
        },
        {
          "internalType": "uint256",
          "name": "auctionAmount",
          "type": "uint256"
        }
      ],
      "name": "logStartAuction",
      "outputs": [],
      "payable": false,
      "stateMutability": "nonpayable",
      "type": "function"
    },
    {
      "constant": false,
      "inputs": [
        {
          "internalType": "uint256",
          "name": "newValidatorId",
          "type": "uint256"
        },
        {
          "internalType": "uint256",
          "name": "oldValidatorId",
          "type": "uint256"
        },
        {
          "internalType": "uint256",
          "name": "amount",
          "type": "uint256"
        }
      ],
      "name": "logConfirmAuction",
      "outputs": [],
      "payable": false,
      "stateMutability": "nonpayable",
      "type": "function"
    },
    {
      "constant": false,
      "inputs": [
        {
          "internalType": "address",
          "name": "user",
          "type": "address"
        },
        {
          "internalType": "uint256",
          "name": "fee",
          "type": "uint256"
        }
      ],
      "name": "logTopUpFee",
      "outputs": [],
      "payable": false,
      "stateMutability": "nonpayable",
      "type": "function"
    },
    {
      "constant": false,
      "inputs": [
        {
          "internalType": "address",
          "name": "user",
          "type": "address"
        },
        {
          "internalType": "uint256",
          "name": "fee",
          "type": "uint256"
        }
      ],
      "name": "logClaimFee",
      "outputs": [],
      "payable": false,
      "stateMutability": "nonpayable",
      "type": "function"
    },
    {
      "constant": true,
      "inputs": [
        {
          "internalType": "uint256",
          "name": "validatorId",
          "type": "uint256"
        }
      ],
      "name": "getStakerDetails",
      "outputs": [
        {
          "internalType": "uint256",
          "name": "amount",
          "type": "uint256"
        },
        {
          "internalType": "uint256",
          "name": "reward",
          "type": "uint256"
        },
        {
          "internalType": "uint256",
          "name": "activationEpoch",
          "type": "uint256"
        },
        {
          "internalType": "uint256",
          "name": "deactivationEpoch",
          "type": "uint256"
        },
        {
          "internalType": "address",
          "name": "signer",
          "type": "address"
        },
        {
          "internalType": "uint256",
          "name": "_status",
          "type": "uint256"
        }
      ],
      "payable": false,
      "stateMutability": "view",
      "type": "function"
    },
    {
      "constant": true,
      "inputs": [
        {
          "internalType": "uint256",
          "name": "validatorId",
          "type": "uint256"
        }
      ],
      "name": "totalValidatorStake",
      "outputs": [
        {
          "internalType": "uint256",
          "name": "validatorStake",
          "type": "uint256"
        }
      ],
      "payable": false,
      "stateMutability": "view",
      "type": "function"
    },
    {
      "constant": true,
      "inputs": [],
      "name": "getAccountStateRoot",
      "outputs": [
        {
          "internalType": "bytes32",
          "name": "accountStateRoot",
          "type": "bytes32"
        }
      ],
      "payable": false,
      "stateMutability": "view",
      "type": "function"
    },
    {
      "constant": true,
      "inputs": [
        {
          "internalType": "uint256",
          "name": "validatorId",
          "type": "uint256"
        }
      ],
      "name": "getValidatorContractAddress",
      "outputs": [
        {
          "internalType": "address",
          "name": "ValidatorContract",
          "type": "address"
        }
      ],
      "payable": false,
      "stateMutability": "view",
      "type": "function"
    },
    {
      "constant": false,
      "inputs": [
        {
          "internalType": "uint256",
          "name": "validatorId",
          "type": "uint256"
        },
        {
          "internalType": "address",
          "name": "user",
          "type": "address"
        },
        {
          "internalType": "uint256",
          "name": "amount",
          "type": "uint256"
        },
        {
          "internalType": "uint256",
          "name": "tokens",
          "type": "uint256"
        }
      ],
      "name": "logShareMinted",
      "outputs": [],
      "payable": false,
      "stateMutability": "nonpayable",
      "type": "function"
    },
    {
      "constant": false,
      "inputs": [
        {
          "internalType": "uint256",
          "name": "validatorId",
          "type": "uint256"
        },
        {
          "internalType": "address",
          "name": "user",
          "type": "address"
        },
        {
          "internalType": "uint256",
          "name": "amount",
          "type": "uint256"
        },
        {
          "internalType": "uint256",
          "name": "tokens",
          "type": "uint256"
        }
      ],
      "name": "logShareBurned",
      "outputs": [],
      "payable": false,
      "stateMutability": "nonpayable",
      "type": "function"
    },
    {
      "constant": false,
      "inputs": [
        {
          "internalType": "uint256",
          "name": "validatorId",
          "type": "uint256"
        },
        {
          "internalType": "address",
          "name": "user",
          "type": "address"
        },
        {
          "internalType": "uint256",
          "name": "rewards",
          "type": "uint256"
        },
        {
          "internalType": "uint256",
          "name": "tokens",
          "type": "uint256"
        }
      ],
      "name": "logDelegatorClaimRewards",
      "outputs": [],
      "payable": false,
      "stateMutability": "nonpayable",
      "type": "function"
    },
    {
      "constant": false,
      "inputs": [
        {
          "internalType": "uint256",
          "name": "validatorId",
          "type": "uint256"
        },
        {
          "internalType": "address",
          "name": "user",
          "type": "address"
        },
        {
          "internalType": "uint256",
          "name": "totalStaked",
          "type": "uint256"
        }
      ],
      "name": "logDelegatorRestaked",
      "outputs": [],
      "payable": false,
      "stateMutability": "nonpayable",
      "type": "function"
    },
    {
      "constant": false,
      "inputs": [
        {
          "internalType": "uint256",
          "name": "validatorId",
          "type": "uint256"
        },
        {
          "internalType": "address",
          "name": "user",
          "type": "address"
        },
        {
          "internalType": "uint256",
          "name": "amount",
          "type": "uint256"
        }
      ],
      "name": "logDelegatorUnstaked",
      "outputs": [],
      "payable": false,
      "stateMutability": "nonpayable",
      "type": "function"
    },
    {
      "constant": false,
      "inputs": [
        {
          "internalType": "uint256",
          "name": "validatorId",
          "type": "uint256"
        },
        {
          "internalType": "uint256",
          "name": "newCommissionRate",
          "type": "uint256"
        },
        {
          "internalType": "uint256",
          "name": "oldCommissionRate",
          "type": "uint256"
        }
      ],
      "name": "logUpdateCommissionRate",
      "outputs": [],
      "payable": false,
      "stateMutability": "nonpayable",
      "type": "function"
    }
  ],
  "bytecode": "0x608060405234801561001057600080fd5b50604051612ba8380380612ba88339818101604052602081101561003357600080fd5b5051600180546001600160a01b0319166001600160a01b03909216919091179055612b45806100636000396000f3fe608060405234801561001057600080fd5b50600436106101da5760003560e01c8063a3b1d8cb11610104578063c98cc002116100a2578063f1382b5311610071578063f1382b531461077d578063f1980a50146107b5578063f92ec5af146107d8578063fb77c94e14610804576101da565b8063c98cc002146106f1578063ca7d34b61461071a578063e12ab1af14610737578063ebde9f9314610760576101da565b8063b685b26a116100de578063b685b26a146105a7578063b6fa74c4146105d0578063b80fbce5146105f3578063c69d0573146106b9576101da565b8063a3b1d8cb14610520578063a449d79514610543578063ae2e26b11461056f576101da565b80635e04d4831161017c5780637b1039991161014b5780637b103999146104915780637f88a9571461049957806381dc101b146104cb578063a0e300a6146104fd576101da565b80635e04d48314610396578063605be9be146103ce57806378a3f5ca1461040057806378daaf6914610438576101da565b806333a8383c116101b857806333a8383c1461026f5780634b6b87ce14610336578063532e19a9146103505780635616a7cc1461036d576101da565b80630934a6df146101df578063122b64811461020a578063178d46aa14610236575b600080fd5b610208600480360360608110156101f557600080fd5b5080359060208101359060400135610827565b005b6102086004803603604081101561022057600080fd5b506001600160a01b038135169060200135610910565b6102536004803603602081101561024c57600080fd5b50356109ff565b604080516001600160a01b039092168252519081900360200190f35b610208600480360360c081101561028557600080fd5b6001600160a01b0382351691908101906040810160208201356401000000008111156102b057600080fd5b8201836020820111156102c257600080fd5b803590602001918460018302840111640100000000831117156102e457600080fd5b91908080601f0160208091040260200160405190810160405280939291908181526020018383808284376000920191909152509295505082359350505060208101359060408101359060600135610af0565b61033e610cb2565b60408051918252519081900360200190f35b6102086004803603602081101561036657600080fd5b5035610d96565b6102086004803603606081101561038357600080fd5b5080359060208101359060400135610f64565b610208600480360360808110156103ac57600080fd5b506001600160a01b038135169060208101359060408101359060600135611058565b610208600480360360608110156103e457600080fd5b508035906001600160a01b03602082013516906040013561118b565b6102086004803603608081101561041657600080fd5b508035906001600160a01b036020820135169060408101359060600135611316565b6104556004803603602081101561044e57600080fd5b50356114a5565b6040805196875260208701959095528585019390935260608501919091526001600160a01b0316608084015260a0830152519081900360c00190f35b6102536116a1565b610208600480360360608110156104af57600080fd5b508035906001600160a01b0360208201351690604001356116b0565b610208600480360360608110156104e157600080fd5b50803590602081013590604001356001600160a01b0316611833565b6102086004803603604081101561051357600080fd5b5080359060200135611925565b6102086004803603604081101561053657600080fd5b5080359060200135611a19565b6102086004803603604081101561055957600080fd5b506001600160a01b038135169060200135611b0d565b6102086004803603608081101561058557600080fd5b506001600160a01b038135169060208101359060408101359060600135611bfc565b610208600480360360608110156105bd57600080fd5b5080359060208101359060400135611d01565b610208600480360360408110156105e657600080fd5b5080359060200135611dea565b6102086004803603608081101561060957600080fd5b8135916001600160a01b0360208201358116926040830135909116919081019060808101606082013564010000000081111561064457600080fd5b82018360208201111561065657600080fd5b8035906020019184600183028401116401000000008311171561067857600080fd5b91908080601f016020809104026020016040519081016040528093929190818152602001838380828437600092019190915250929550611ede945050505050565b610208600480360360808110156106cf57600080fd5b508035906001600160a01b03602082013516906040810135906060013561207f565b6102086004803603606081101561070757600080fd5b508035906020810135906040013561220e565b61033e6004803603602081101561073057600080fd5b5035612388565b6102086004803603606081101561074d57600080fd5b5080359060208101359060400135612508565b61033e6004803603602081101561077657600080fd5b50356125f1565b6102086004803603608081101561079357600080fd5b508035906001600160a01b036020820135169060408101359060600135612603565b610208600480360360408110156107cb57600080fd5b5080359060200135612792565b610208600480360360408110156107ee57600080fd5b50803590602001356001600160a01b0316612886565b6102086004803603604081101561081a57600080fd5b5080359060200135612975565b60015460408051630a1ef8f960e21b8152905133926001600160a01b03169163287be3e4916004808301926020929190829003018186803b15801561086b57600080fd5b505afa15801561087f573d6000803e3d6000fd5b505050506040513d602081101561089557600080fd5b50516001600160a01b0316146108dc5760405162461bcd60e51b8152600401808060200182810382526021815260200180612af06021913960400191505060405180910390fd5b8082847f683d0f47c7fa11331f4e9563b3f5a7fdc3d3c5b75c600357a91d991f5a13a43760405160405180910390a4505050565b60015460408051630a1ef8f960e21b8152905133926001600160a01b03169163287be3e4916004808301926020929190829003018186803b15801561095457600080fd5b505afa158015610968573d6000803e3d6000fd5b505050506040513d602081101561097e57600080fd5b50516001600160a01b0316146109c55760405162461bcd60e51b8152600401808060200182810382526021815260200180612af06021913960400191505060405180910390fd5b60405181906001600160a01b038416907ff40b9ca28516abde647ef8ed0e7b155e16347eb4d8dd6eb29989ed2c0c3d27e890600090a35050565b60015460408051630a1ef8f960e21b815290516000926001600160a01b03169163287be3e4916004808301926020929190829003018186803b158015610a4457600080fd5b505afa158015610a58573d6000803e3d6000fd5b505050506040513d6020811015610a6e57600080fd5b505160408051630d6a8b9160e21b81526004810185905290516001600160a01b03909216916335aa2e449160248082019261010092909190829003018186803b158015610aba57600080fd5b505afa158015610ace573d6000803e3d6000fd5b505050506040513d610100811015610ae557600080fd5b5060c0015192915050565b60015460408051630a1ef8f960e21b8152905133926001600160a01b03169163287be3e4916004808301926020929190829003018186803b158015610b3457600080fd5b505afa158015610b48573d6000803e3d6000fd5b505050506040513d6020811015610b5e57600080fd5b50516001600160a01b031614610ba55760405162461bcd60e51b8152600401808060200182810382526021815260200180612af06021913960400191505060405180910390fd5b600084815260208190526040902054610bc590600163ffffffff612a5b16565b600080868152602001908152602001600020819055508284876001600160a01b03167f68c13e4125b983d7e2d6114246f443e567ec6c4ee5b4d4a7ef6100b1402bfd846000808981526020019081526020016000205486868b6040518085815260200184815260200183815260200180602001828103825283818151815260200191508051906020019080838360005b83811015610c6d578181015183820152602001610c55565b50505050905090810190601f168015610c9a5780820380516001836020036101000a031916815260200191505b509550505050505060405180910390a4505050505050565b60015460408051630a1ef8f960e21b815290516000926001600160a01b03169163287be3e4916004808301926020929190829003018186803b158015610cf757600080fd5b505afa158015610d0b573d6000803e3d6000fd5b505050506040513d6020811015610d2157600080fd5b50516040805163017c2b9160e41b815290516001600160a01b03909216916317c2b91091600480820192602092909190829003018186803b158015610d6557600080fd5b505afa158015610d79573d6000803e3d6000fd5b505050506040513d6020811015610d8f57600080fd5b5051919050565b80600080600160009054906101000a90046001600160a01b03166001600160a01b031663287be3e46040518163ffffffff1660e01b815260040160206040518083038186803b158015610de857600080fd5b505afa158015610dfc573d6000803e3d6000fd5b505050506040513d6020811015610e1257600080fd5b505160408051630d6a8b9160e21b81526004810186905290519192506001600160a01b038316916335aa2e449160248082019261010092909190829003018186803b158015610e6057600080fd5b505afa158015610e74573d6000803e3d6000fd5b505050506040513d610100811015610e8b57600080fd5b5060c0015191506001600160a01b038216331480610eb157506001600160a01b03811633145b610eec5760405162461bcd60e51b8152600401808060200182810382526037815260200180612a996037913960400191505060405180910390fd5b600084815260208190526040902054610f0c90600163ffffffff612a5b16565b600085815260208190526040902055610f2484612388565b600085815260208190526040808220549051909187917f35af9eea1f0e7b300b0a14fae90139a072470e44daa3f14b5069bebbc1265bda9190a450505050565b60015460408051630a1ef8f960e21b8152905133926001600160a01b03169163287be3e4916004808301926020929190829003018186803b158015610fa857600080fd5b505afa158015610fbc573d6000803e3d6000fd5b505050506040513d6020811015610fd257600080fd5b50516001600160a01b0316146110195760405162461bcd60e51b8152600401808060200182810382526021815260200180612af06021913960400191505060405180910390fd5b6040805183815260208101839052815185927f09b24121f82c610c13909ec63bd0843468819a45f6eda5838c3a80568c2046a8928290030190a2505050565b60015460408051630a1ef8f960e21b8152905133926001600160a01b03169163287be3e4916004808301926020929190829003018186803b15801561109c57600080fd5b505afa1580156110b0573d6000803e3d6000fd5b505050506040513d60208110156110c657600080fd5b50516001600160a01b03161461110d5760405162461bcd60e51b8152600401808060200182810382526021815260200180612af06021913960400191505060405180910390fd5b60008381526020819052604090205461112d90600163ffffffff612a5b16565b60008481526020818152604091829020839055815192835282018490528051839286926001600160a01b038916927f69b288bb79cd5386c9fe0af060f650e823bcdfa96a44cdc07f862db060f571209281900390910190a450505050565b826000600160009054906101000a90046001600160a01b03166001600160a01b031663287be3e46040518163ffffffff1660e01b815260040160206040518083038186803b1580156111dc57600080fd5b505afa1580156111f0573d6000803e3d6000fd5b505050506040513d602081101561120657600080fd5b505160408051630d6a8b9160e21b81526004810185905290516001600160a01b03909216916335aa2e449160248082019261010092909190829003018186803b15801561125257600080fd5b505afa158015611266573d6000803e3d6000fd5b505050506040513d61010081101561127d57600080fd5b5060c0015190506001600160a01b03811633146112cf576040805162461bcd60e51b815260206004820152601d6024820152600080516020612ad0833981519152604482015290519081900360640190fd5b6040805184815290516001600160a01b0386169187917f770c7c7d8e20347e5080e2ac70e8519793bedaff621f044396fd8d6d052c4aa89181900360200190a35050505050565b836000600160009054906101000a90046001600160a01b03166001600160a01b031663287be3e46040518163ffffffff1660e01b815260040160206040518083038186803b15801561136757600080fd5b505afa15801561137b573d6000803e3d6000fd5b505050506040513d602081101561139157600080fd5b505160408051630d6a8b9160e21b81526004810185905290516001600160a01b03909216916335aa2e449160248082019261010092909190829003018186803b1580156113dd57600080fd5b505afa1580156113f1573d6000803e3d6000fd5b505050506040513d61010081101561140857600080fd5b5060c0015190506001600160a01b038116331461145a576040805162461bcd60e51b815260206004820152601d6024820152600080516020612ad0833981519152604482015290519081900360640190fd5b83856001600160a01b0316877fc87507979871ee2008561389fb61a6cccd698b2fb83948200cd93c512b8aa824866040518082815260200191505060405180910390a4505050505050565b6000806000806000806000600160009054906101000a90046001600160a01b03166001600160a01b031663287be3e46040518163ffffffff1660e01b815260040160206040518083038186803b1580156114fe57600080fd5b505afa158015611512573d6000803e3d6000fd5b505050506040513d602081101561152857600080fd5b505160408051630d6a8b9160e21b8152600481018b9052905191925060009182916001600160a01b038516916335aa2e449160248082019261010092909190829003018186803b15801561157b57600080fd5b505afa15801561158f573d6000803e3d6000fd5b505050506040513d6101008110156115a657600080fd5b81019080805190602001909291908051906020019092919080519060200190929190805190602001909291908051906020019092919080519060200190929190805190602001909291908051906020019092919050505090919250809750819850829b50839c50849d50859e50869f5050505050505050816001600160a01b0316635d1e36166040518163ffffffff1660e01b815260040160206040518083038186803b15801561165657600080fd5b505afa15801561166a573d6000803e3d6000fd5b505050506040513d602081101561168057600080fd5b5051979097019680600381111561169357fe5b935050505091939550919395565b6001546001600160a01b031681565b826000600160009054906101000a90046001600160a01b03166001600160a01b031663287be3e46040518163ffffffff1660e01b815260040160206040518083038186803b15801561170157600080fd5b505afa158015611715573d6000803e3d6000fd5b505050506040513d602081101561172b57600080fd5b505160408051630d6a8b9160e21b81526004810185905290516001600160a01b03909216916335aa2e449160248082019261010092909190829003018186803b15801561177757600080fd5b505afa15801561178b573d6000803e3d6000fd5b505050506040513d6101008110156117a257600080fd5b5060c0015190506001600160a01b03811633146117f4576040805162461bcd60e51b815260206004820152601d6024820152600080516020612ad0833981519152604482015290519081900360640190fd5b82846001600160a01b0316867f0f9ccdda16b467e719059c85ebd8383fcb7f8ffa5576629fe3b842836e04dad160405160405180910390a45050505050565b60015460408051630a1ef8f960e21b8152905133926001600160a01b03169163287be3e4916004808301926020929190829003018186803b15801561187757600080fd5b505afa15801561188b573d6000803e3d6000fd5b505050506040513d60208110156118a157600080fd5b50516001600160a01b0316146118e85760405162461bcd60e51b8152600401808060200182810382526021815260200180612af06021913960400191505060405180910390fd5b806001600160a01b031682847ff6566d8fbe8f23227826ba3da2ecc1ec48698c5be051a829965e3358fd5b965860405160405180910390a4505050565b60015460408051630a1ef8f960e21b8152905133926001600160a01b03169163287be3e4916004808301926020929190829003018186803b15801561196957600080fd5b505afa15801561197d573d6000803e3d6000fd5b505050506040513d602081101561199357600080fd5b50516001600160a01b0316146119da5760405162461bcd60e51b8152600401808060200182810382526021815260200180612af06021913960400191505060405180910390fd5b604080518381526020810183905281517f9444bfcfa6aed72a15da73de1220dcc07d7864119c44abfec0037bbcacefda98929181900390910190a15050565b60015460408051630a1ef8f960e21b8152905133926001600160a01b03169163287be3e4916004808301926020929190829003018186803b158015611a5d57600080fd5b505afa158015611a71573d6000803e3d6000fd5b505050506040513d6020811015611a8757600080fd5b50516001600160a01b031614611ace5760405162461bcd60e51b8152600401808060200182810382526021815260200180612af06021913960400191505060405180910390fd5b604080518381526020810183905281517f4a501a9c4d5cce5c32415945bbc8973764f31b844e3e8fd4c15f51f315ac8792929181900390910190a15050565b60015460408051630a1ef8f960e21b8152905133926001600160a01b03169163287be3e4916004808301926020929190829003018186803b158015611b5157600080fd5b505afa158015611b65573d6000803e3d6000fd5b505050506040513d6020811015611b7b57600080fd5b50516001600160a01b031614611bc25760405162461bcd60e51b8152600401808060200182810382526021815260200180612af06021913960400191505060405180910390fd5b60405181906001600160a01b038416907f2c3bb5458e3dd671c31974c4ca8e8ebc2cdd892ae8602374d9a6f789b00c6b9490600090a35050565b60015460408051630a1ef8f960e21b8152905133926001600160a01b03169163287be3e4916004808301926020929190829003018186803b158015611c4057600080fd5b505afa158015611c54573d6000803e3d6000fd5b505050506040513d6020811015611c6a57600080fd5b50516001600160a01b031614611cb15760405162461bcd60e51b8152600401808060200182810382526021815260200180612af06021913960400191505060405180910390fd5b82846001600160a01b03167f204fccf0d92ed8d48f204adb39b2e81e92bad0dedb93f5716ca9478cfb57de008484604051808381526020018281526020019250505060405180910390a350505050565b60015460408051630a1ef8f960e21b8152905133926001600160a01b03169163287be3e4916004808301926020929190829003018186803b158015611d4557600080fd5b505afa158015611d59573d6000803e3d6000fd5b505050506040513d6020811015611d6f57600080fd5b50516001600160a01b031614611db65760405162461bcd60e51b8152600401808060200182810382526021815260200180612af06021913960400191505060405180910390fd5b8082847f41e5e4590cfcde2f03ee9281c54d03acad8adffb83f8310d66b894532470ba3560405160405180910390a4505050565b60015460408051630a1ef8f960e21b8152905133926001600160a01b03169163287be3e4916004808301926020929190829003018186803b158015611e2e57600080fd5b505afa158015611e42573d6000803e3d6000fd5b505050506040513d6020811015611e5857600080fd5b50516001600160a01b031614611e9f5760405162461bcd60e51b8152600401808060200182810382526021815260200180612af06021913960400191505060405180910390fd5b604080518381526020810183905281517ff67f33e8589d3ea0356303c0f9a8e764873692159f777ff79e4fc523d389dfcd929181900390910190a15050565b60015460408051630a1ef8f960e21b8152905133926001600160a01b03169163287be3e4916004808301926020929190829003018186803b158015611f2257600080fd5b505afa158015611f36573d6000803e3d6000fd5b505050506040513d6020811015611f4c57600080fd5b50516001600160a01b031614611f935760405162461bcd60e51b8152600401808060200182810382526021815260200180612af06021913960400191505060405180910390fd5b600084815260208190526040902054611fb390600163ffffffff612a5b16565b600085815260208181526040808320849055805184815280830182815286519282019290925285516001600160a01b0380891696908a16958b957f086044c0612a8c965d4cccd907f0d588e40ad68438bd4c1274cac60f4c3a9d1f9592948a949093926060850192860191908190849084905b8381101561203e578181015183820152602001612026565b50505050905090810190601f16801561206b5780820380516001836020036101000a031916815260200191505b50935050505060405180910390a450505050565b836000600160009054906101000a90046001600160a01b03166001600160a01b031663287be3e46040518163ffffffff1660e01b815260040160206040518083038186803b1580156120d057600080fd5b505afa1580156120e4573d6000803e3d6000fd5b505050506040513d60208110156120fa57600080fd5b505160408051630d6a8b9160e21b81526004810185905290516001600160a01b03909216916335aa2e449160248082019261010092909190829003018186803b15801561214657600080fd5b505afa15801561215a573d6000803e3d6000fd5b505050506040513d61010081101561217157600080fd5b5060c0015190506001600160a01b03811633146121c3576040805162461bcd60e51b815260206004820152601d6024820152600080516020612ad0833981519152604482015290519081900360640190fd5b83856001600160a01b0316877fc9afff0972d33d68c8d330fe0ebd0e9f54491ad8c59ae17330a9206f280f0865866040518082815260200191505060405180910390a4505050505050565b826000600160009054906101000a90046001600160a01b03166001600160a01b031663287be3e46040518163ffffffff1660e01b815260040160206040518083038186803b15801561225f57600080fd5b505afa158015612273573d6000803e3d6000fd5b505050506040513d602081101561228957600080fd5b505160408051630d6a8b9160e21b81526004810185905290516001600160a01b03909216916335aa2e449160248082019261010092909190829003018186803b1580156122d557600080fd5b505afa1580156122e9573d6000803e3d6000fd5b505050506040513d61010081101561230057600080fd5b5060c0015190506001600160a01b0381163314612352576040805162461bcd60e51b815260206004820152601d6024820152600080516020612ad0833981519152604482015290519081900360640190fd5b8284867f7d5da5ece9d43013d62ab966f4704ca376b92be29ca6fbb958154baf1c0dc17e60405160405180910390a45050505050565b600080600160009054906101000a90046001600160a01b03166001600160a01b031663287be3e46040518163ffffffff1660e01b815260040160206040518083038186803b1580156123d957600080fd5b505afa1580156123ed573d6000803e3d6000fd5b505050506040513d602081101561240357600080fd5b505160408051630d6a8b9160e21b81526004810186905290516001600160a01b03909216916335aa2e449160248082019261010092909190829003018186803b15801561244f57600080fd5b505afa158015612463573d6000803e3d6000fd5b505050506040513d61010081101561247a57600080fd5b50805160c09091015190925090506001600160a01b0381161561250257806001600160a01b0316633a09bf446040518163ffffffff1660e01b815260040160206040518083038186803b1580156124d057600080fd5b505afa1580156124e4573d6000803e3d6000fd5b505050506040513d60208110156124fa57600080fd5b505191909101905b50919050565b60015460408051630a1ef8f960e21b8152905133926001600160a01b03169163287be3e4916004808301926020929190829003018186803b15801561254c57600080fd5b505afa158015612560573d6000803e3d6000fd5b505050506040513d602081101561257657600080fd5b50516001600160a01b0316146125bd5760405162461bcd60e51b8152600401808060200182810382526021815260200180612af06021913960400191505060405180910390fd5b8082847f1002381ecf76700f6f0ab4c90b9f523e39df7b0482b71ec63cf62cf85412047060405160405180910390a4505050565b60006020819052908152604090205481565b836000600160009054906101000a90046001600160a01b03166001600160a01b031663287be3e46040518163ffffffff1660e01b815260040160206040518083038186803b15801561265457600080fd5b505afa158015612668573d6000803e3d6000fd5b505050506040513d602081101561267e57600080fd5b505160408051630d6a8b9160e21b81526004810185905290516001600160a01b03909216916335aa2e449160248082019261010092909190829003018186803b1580156126ca57600080fd5b505afa1580156126de573d6000803e3d6000fd5b505050506040513d6101008110156126f557600080fd5b5060c0015190506001600160a01b0381163314612747576040805162461bcd60e51b815260206004820152601d6024820152600080516020612ad0833981519152604482015290519081900360640190fd5b83856001600160a01b0316877f7e86625aa6e668407f095af342e0cc237809c4c5086b4d665a0067de122980a9866040518082815260200191505060405180910390a4505050505050565b60015460408051630a1ef8f960e21b8152905133926001600160a01b03169163287be3e4916004808301926020929190829003018186803b1580156127d657600080fd5b505afa1580156127ea573d6000803e3d6000fd5b505050506040513d602081101561280057600080fd5b50516001600160a01b0316146128475760405162461bcd60e51b8152600401808060200182810382526021815260200180612af06021913960400191505060405180910390fd5b604080518381526020810183905281517f5d16a900896e1160c2033bc940e6b072d3dc3b6a996fefb9b3b9b9678841824c929181900390910190a15050565b60015460408051630a1ef8f960e21b8152905133926001600160a01b03169163287be3e4916004808301926020929190829003018186803b1580156128ca57600080fd5b505afa1580156128de573d6000803e3d6000fd5b505050506040513d60208110156128f457600080fd5b50516001600160a01b03161461293b5760405162461bcd60e51b8152600401808060200182810382526021815260200180612af06021913960400191505060405180910390fd5b6040516001600160a01b0382169083907fd3cb87a9c75a0d21336afc0f79f7e398f06748db5ce1815af01d315c7c135c0b90600090a35050565b60015460408051631ab0168360e31b8152905133926001600160a01b03169163d580b418916004808301926020929190829003018186803b1580156129b957600080fd5b505afa1580156129cd573d6000803e3d6000fd5b505050506040513d60208110156129e357600080fd5b50516001600160a01b031614612a2a5760405162461bcd60e51b8152600401808060200182810382526024815260200180612a756024913960400191505060405180910390fd5b604051819083907f4f5f38ee30b01a960b4dfdcd520a3ca59c1a664a32dcfe5418ca79b0de6b723690600090a35050565b600082820183811015612a6d57600080fd5b939250505056fe496e76616c69642073656e6465722c206e6f7420736c617368696e67206d616e61676572496e76616c69642073656e6465722c206e6f74207374616b65206d616e61676572206f722076616c696461746f7220636f6e7472616374496e76616c69642073656e6465722c206e6f742076616c696461746f72000000496e76616c69642073656e6465722c206e6f74207374616b65206d616e61676572a265627a7a72315820bd5f6b501efa82aa0fe3c73516abf65b52ddf2b19d052a82d3f517196b67dac464736f6c634300050b0032",
  "source": "pragma solidity ^0.5.2;\n\nimport {Registry} from \"../common/Registry.sol\";\nimport {SafeMath} from \"openzeppelin-solidity/contracts/math/SafeMath.sol\";\n\nimport {BytesLib} from \"../common/lib/BytesLib.sol\";\nimport {ECVerify} from \"../common/lib/ECVerify.sol\";\n\n\n// dummy interface to avoid cyclic dependency\ncontract IStakeManager {\n    enum Status {Inactive, Active, Locked, Unstaked}\n\n    struct Validator {\n        uint256 amount;\n        uint256 reward;\n        uint256 activationEpoch;\n        uint256 deactivationEpoch;\n        uint256 jailTime;\n        address signer;\n        address contractAddress;\n        Status status;\n    }\n\n    mapping(uint256 => Validator) public validators;\n    bytes32 public accountStateRoot;\n    uint256 public activeAmount; // delegation amount from validator contract\n    uint256 public validatorRewards;\n\n    function currentValidatorSetTotalStake() public view returns (uint256);\n\n    // signer to Validator mapping\n    function signerToValidator(address validatorAddress)\n        public\n        view\n        returns (uint256);\n\n    function isValidator(uint256 validatorId) public view returns (bool);\n}\n\n\ncontract StakingInfo {\n    using SafeMath for uint256;\n    mapping(uint256 => uint256) public validatorNonce;\n\n    /// @dev Emitted when validator stakes in '_stakeFor()' in StakeManager.\n    /// @param signer validator address.\n    /// @param validatorId unique integer to identify a validator.\n    /// @param nonce to synchronize the events in heimdal.\n    /// @param activationEpoch validator's first epoch as proposer.\n    /// @param amount staking amount.\n    /// @param total total staking amount.\n    /// @param signerPubkey public key of the validator\n    event Staked(\n        address indexed signer,\n        uint256 indexed validatorId,\n        uint256 nonce,\n        uint256 indexed activationEpoch,\n        uint256 amount,\n        uint256 total,\n        bytes signerPubkey\n    );\n\n    /// @dev Emitted when validator unstakes in 'unstakeClaim()'\n    /// @param user address of the validator.\n    /// @param validatorId unique integer to identify a validator.\n    /// @param amount staking amount.\n    /// @param total total staking amount.\n    event Unstaked(\n        address indexed user,\n        uint256 indexed validatorId,\n        uint256 amount,\n        uint256 total\n    );\n\n    /// @dev Emitted when validator unstakes in '_unstake()'.\n    /// @param user address of the validator.\n    /// @param validatorId unique integer to identify a validator.\n    /// @param nonce to synchronize the events in heimdal.\n    /// @param deactivationEpoch last epoch for validator.\n    /// @param amount staking amount.\n    event UnstakeInit(\n        address indexed user,\n        uint256 indexed validatorId,\n        uint256 nonce,\n        uint256 deactivationEpoch,\n        uint256 indexed amount\n    );\n\n    /// @dev Emitted when the validator public key is updated in 'updateSigner()'.\n    /// @param validatorId unique integer to identify a validator.\n    /// @param nonce to synchronize the events in heimdal.\n    /// @param oldSigner old address of the validator.\n    /// @param newSigner new address of the validator.\n    /// @param signerPubkey public key of the validator.\n    event SignerChange(\n        uint256 indexed validatorId,\n        uint256 nonce,\n        address indexed oldSigner,\n        address indexed newSigner,\n        bytes signerPubkey\n    );\n    event Restaked(uint256 indexed validatorId, uint256 amount, uint256 total);\n    event Jailed(\n        uint256 indexed validatorId,\n        uint256 indexed exitEpoch,\n        address indexed signer\n    );\n    event UnJailed(uint256 indexed validatorId, address indexed signer);\n    event Slashed(uint256 indexed nonce, uint256 indexed amount);\n    event ThresholdChange(uint256 newThreshold, uint256 oldThreshold);\n    event DynastyValueChange(uint256 newDynasty, uint256 oldDynasty);\n    event ProposerBonusChange(\n        uint256 newProposerBonus,\n        uint256 oldProposerBonus\n    );\n\n    event RewardUpdate(uint256 newReward, uint256 oldReward);\n\n    /// @dev Emitted when validator confirms the auction bid and at the time of restaking in confirmAuctionBid() and restake().\n    /// @param validatorId unique integer to identify a validator.\n    /// @param nonce to synchronize the events in heimdal.\n    /// @param newAmount the updated stake amount.\n    event StakeUpdate(\n        uint256 indexed validatorId,\n        uint256 indexed nonce,\n        uint256 indexed newAmount\n    );\n    event ClaimRewards(\n        uint256 indexed validatorId,\n        uint256 indexed amount,\n        uint256 indexed totalAmount\n    );\n    event StartAuction(\n        uint256 indexed validatorId,\n        uint256 indexed amount,\n        uint256 indexed auctionAmount\n    );\n    event ConfirmAuction(\n        uint256 indexed newValidatorId,\n        uint256 indexed oldValidatorId,\n        uint256 indexed amount\n    );\n    event TopUpFee(address indexed user, uint256 indexed fee);\n    event ClaimFee(address indexed user, uint256 indexed fee);\n    // Delegator events\n    event ShareMinted(\n        uint256 indexed validatorId,\n        address indexed user,\n        uint256 indexed amount,\n        uint256 tokens\n    );\n    event ShareBurned(\n        uint256 indexed validatorId,\n        address indexed user,\n        uint256 indexed amount,\n        uint256 tokens\n    );\n    event DelegatorClaimedRewards(\n        uint256 indexed validatorId,\n        address indexed user,\n        uint256 indexed rewards,\n        uint256 tokens\n    );\n    event DelegatorRestaked(\n        uint256 indexed validatorId,\n        address indexed user,\n        uint256 indexed totalStaked\n    );\n    event DelegatorUnstaked(\n        uint256 indexed validatorId,\n        address indexed user,\n        uint256 amount\n    );\n    event UpdateCommissionRate(\n        uint256 indexed validatorId,\n        uint256 indexed newCommissionRate,\n        uint256 indexed oldCommissionRate\n    );\n\n    Registry public registry;\n\n    modifier onlyValidatorContract(uint256 validatorId) {\n        address _contract;\n        (, , , , , , _contract, ) = IStakeManager(\n            registry.getStakeManagerAddress()\n        )\n            .validators(validatorId);\n        require(_contract == msg.sender,\n        \"Invalid sender, not validator\");\n        _;\n    }\n\n    modifier StakeManagerOrValidatorContract(uint256 validatorId) {\n        address _contract;\n        address _stakeManager = registry.getStakeManagerAddress();\n        (, , , , , , _contract, ) = IStakeManager(_stakeManager).validators(\n            validatorId\n        );\n        require(_contract == msg.sender || _stakeManager == msg.sender,\n        \"Invalid sender, not stake manager or validator contract\");\n        _;\n    }\n\n    modifier onlyStakeManager() {\n        require(registry.getStakeManagerAddress() == msg.sender,\n        \"Invalid sender, not stake manager\");\n        _;\n    }\n    modifier onlySlashingManager() {\n        require(registry.getSlashingManagerAddress() == msg.sender,\n        \"Invalid sender, not slashing manager\");\n        _;\n    }\n\n    constructor(address _registry) public {\n        registry = Registry(_registry);\n    }\n\n    function logStaked(\n        address signer,\n        bytes memory signerPubkey,\n        uint256 validatorId,\n        uint256 activationEpoch,\n        uint256 amount,\n        uint256 total\n    ) public onlyStakeManager {\n        validatorNonce[validatorId] = validatorNonce[validatorId].add(1);\n        emit Staked(\n            signer,\n            validatorId,\n            validatorNonce[validatorId],\n            activationEpoch,\n            amount,\n            total,\n            signerPubkey\n        );\n    }\n\n    function logUnstaked(\n        address user,\n        uint256 validatorId,\n        uint256 amount,\n        uint256 total\n    ) public onlyStakeManager {\n        emit Unstaked(user, validatorId, amount, total);\n    }\n\n    function logUnstakeInit(\n        address user,\n        uint256 validatorId,\n        uint256 deactivationEpoch,\n        uint256 amount\n    ) public onlyStakeManager {\n        validatorNonce[validatorId] = validatorNonce[validatorId].add(1);\n        emit UnstakeInit(\n            user,\n            validatorId,\n            validatorNonce[validatorId],\n            deactivationEpoch,\n            amount\n        );\n    }\n\n    function logSignerChange(\n        uint256 validatorId,\n        address oldSigner,\n        address newSigner,\n        bytes memory signerPubkey\n    ) public onlyStakeManager {\n        validatorNonce[validatorId] = validatorNonce[validatorId].add(1);\n        emit SignerChange(\n            validatorId,\n            validatorNonce[validatorId],\n            oldSigner,\n            newSigner,\n            signerPubkey\n        );\n    }\n\n    function logRestaked(uint256 validatorId, uint256 amount, uint256 total)\n        public\n        onlyStakeManager\n    {\n        emit Restaked(validatorId, amount, total);\n    }\n\n    function logJailed(uint256 validatorId, uint256 exitEpoch, address signer)\n        public\n        onlyStakeManager\n    {\n        emit Jailed(validatorId, exitEpoch, signer);\n    }\n\n    function logUnjailed(uint256 validatorId, address signer)\n        public\n        onlyStakeManager\n    {\n        emit UnJailed(validatorId, signer);\n    }\n\n    function logSlashed(uint256 nonce, uint256 amount)\n        public\n        onlySlashingManager\n    {\n        emit Slashed(nonce, amount);\n    }\n\n    function logThresholdChange(uint256 newThreshold, uint256 oldThreshold)\n        public\n        onlyStakeManager\n    {\n        emit ThresholdChange(newThreshold, oldThreshold);\n    }\n\n    function logDynastyValueChange(uint256 newDynasty, uint256 oldDynasty)\n        public\n        onlyStakeManager\n    {\n        emit DynastyValueChange(newDynasty, oldDynasty);\n    }\n\n    function logProposerBonusChange(\n        uint256 newProposerBonus,\n        uint256 oldProposerBonus\n    ) public onlyStakeManager {\n        emit ProposerBonusChange(newProposerBonus, oldProposerBonus);\n    }\n\n    function logRewardUpdate(uint256 newReward, uint256 oldReward)\n        public\n        onlyStakeManager\n    {\n        emit RewardUpdate(newReward, oldReward);\n    }\n\n    function logStakeUpdate(uint256 validatorId)\n        public\n        StakeManagerOrValidatorContract(validatorId)\n    {\n        validatorNonce[validatorId] = validatorNonce[validatorId].add(1);\n        emit StakeUpdate(\n            validatorId,\n            validatorNonce[validatorId],\n            totalValidatorStake(validatorId)\n        );\n    }\n\n    function logClaimRewards(\n        uint256 validatorId,\n        uint256 amount,\n        uint256 totalAmount\n    ) public onlyStakeManager {\n        emit ClaimRewards(validatorId, amount, totalAmount);\n    }\n\n    function logStartAuction(\n        uint256 validatorId,\n        uint256 amount,\n        uint256 auctionAmount\n    ) public onlyStakeManager {\n        emit StartAuction(validatorId, amount, auctionAmount);\n    }\n\n    function logConfirmAuction(\n        uint256 newValidatorId,\n        uint256 oldValidatorId,\n        uint256 amount\n    ) public onlyStakeManager {\n        emit ConfirmAuction(newValidatorId, oldValidatorId, amount);\n    }\n\n    function logTopUpFee(address user, uint256 fee) public onlyStakeManager {\n        emit TopUpFee(user, fee);\n    }\n\n    function logClaimFee(address user, uint256 fee) public onlyStakeManager {\n        emit ClaimFee(user, fee);\n    }\n\n    function getStakerDetails(uint256 validatorId)\n        public\n        view\n        returns (\n            uint256 amount,\n            uint256 reward,\n            uint256 activationEpoch,\n            uint256 deactivationEpoch,\n            address signer,\n            uint256 _status\n        )\n    {\n        IStakeManager stakeManager = IStakeManager(\n            registry.getStakeManagerAddress()\n        );\n        address _contract;\n        IStakeManager.Status status;\n        (\n            amount,\n            reward,\n            activationEpoch,\n            deactivationEpoch,\n            ,\n            signer,\n            _contract,\n            status\n        ) = stakeManager.validators(validatorId);\n        reward += IStakeManager(_contract).validatorRewards();\n        _status = uint256(status);\n    }\n\n    function totalValidatorStake(uint256 validatorId)\n        public\n        view\n        returns (uint256 validatorStake)\n    {\n        address contractAddress;\n        (validatorStake, , , , , , contractAddress, ) = IStakeManager(\n            registry.getStakeManagerAddress()\n        )\n            .validators(validatorId);\n        if (contractAddress != address(0x0)) {\n            validatorStake += IStakeManager(contractAddress).activeAmount();\n        }\n    }\n\n    function getAccountStateRoot()\n        public\n        view\n        returns (bytes32 accountStateRoot)\n    {\n        accountStateRoot = IStakeManager(registry.getStakeManagerAddress())\n            .accountStateRoot();\n    }\n\n    function getValidatorContractAddress(uint256 validatorId)\n        public\n        view\n        returns (address ValidatorContract)\n    {\n        (, , , , , , ValidatorContract, ) = IStakeManager(\n            registry.getStakeManagerAddress()\n        )\n            .validators(validatorId);\n    }\n\n    // validator Share contract logging func\n    function logShareMinted(\n        uint256 validatorId,\n        address user,\n        uint256 amount,\n        uint256 tokens\n    ) public onlyValidatorContract(validatorId) {\n        emit ShareMinted(validatorId, user, amount, tokens);\n    }\n\n    function logShareBurned(\n        uint256 validatorId,\n        address user,\n        uint256 amount,\n        uint256 tokens\n    ) public onlyValidatorContract(validatorId) {\n        emit ShareBurned(validatorId, user, amount, tokens);\n    }\n\n    function logDelegatorClaimRewards(\n        uint256 validatorId,\n        address user,\n        uint256 rewards,\n        uint256 tokens\n    ) public onlyValidatorContract(validatorId) {\n        emit DelegatorClaimedRewards(validatorId, user, rewards, tokens);\n    }\n\n    function logDelegatorRestaked(\n        uint256 validatorId,\n        address user,\n        uint256 totalStaked\n    ) public onlyValidatorContract(validatorId) {\n        emit DelegatorRestaked(validatorId, user, totalStaked);\n    }\n\n    function logDelegatorUnstaked(uint256 validatorId, address user, uint256 amount)\n        public\n        onlyValidatorContract(validatorId)\n    {\n        emit DelegatorUnstaked(validatorId, user, amount);\n    }\n\n    function logUpdateCommissionRate(\n        uint256 validatorId,\n        uint256 newCommissionRate,\n        uint256 oldCommissionRate\n    ) public onlyValidatorContract(validatorId) {\n        emit UpdateCommissionRate(\n            validatorId,\n            newCommissionRate,\n            oldCommissionRate\n        );\n    }\n}\n",
  "sourcePath": "/Users/ohm.jirapon/playground/blockhain/pos/plasma-ploygon/contracts/contracts/staking/StakingInfo.sol",
  "compiler": {
    "name": "solc",
    "version": "0.5.11+commit.c082d0b4.Emscripten.clang"
  },
  "schemaVersion": "3.0.14",
  "updatedAt": "2022-06-30T05:04:23.816Z",
  "devdoc": {
    "methods": {}
  },
  "userdoc": {
    "methods": {}
  }
}