{
  "contractName": "StakeManagerTestable",
  "abi": [
    {
      "constant": false,
      "inputs": [
        {
          "internalType": "uint256",
          "name": "amount",
          "type": "uint256"
        },
        {
          "internalType": "uint256",
          "name": "heimdallFee",
          "type": "uint256"
        },
        {
          "internalType": "bool",
          "name": "acceptDelegation",
          "type": "bool"
        },
        {
          "internalType": "bytes",
          "name": "signerPubkey",
          "type": "bytes"
        }
      ],
      "name": "stake",
      "outputs": [],
      "payable": false,
      "stateMutability": "nonpayable",
      "type": "function"
    },
    {
      "constant": false,
      "inputs": [
        {
          "internalType": "uint256",
          "name": "blockInterval",
          "type": "uint256"
        },
        {
          "internalType": "bytes32",
          "name": "voteHash",
          "type": "bytes32"
        },
        {
          "internalType": "bytes32",
          "name": "stateRoot",
          "type": "bytes32"
        },
        {
          "internalType": "address",
          "name": "proposer",
          "type": "address"
        },
        {
          "internalType": "bytes",
          "name": "sigs",
          "type": "bytes"
        }
      ],
      "name": "checkSignatures",
      "outputs": [
        {
          "internalType": "uint256",
          "name": "",
          "type": "uint256"
        }
      ],
      "payable": false,
      "stateMutability": "nonpayable",
      "type": "function"
    },
    {
      "constant": false,
      "inputs": [
        {
          "internalType": "uint256",
          "name": "_limit",
          "type": "uint256"
        }
      ],
      "name": "updateSignerUpdateLimit",
      "outputs": [],
      "payable": false,
      "stateMutability": "nonpayable",
      "type": "function"
    },
    {
      "constant": true,
      "inputs": [],
      "name": "auctionPeriod",
      "outputs": [
        {
          "internalType": "uint256",
          "name": "",
          "type": "uint256"
        }
      ],
      "payable": false,
      "stateMutability": "view",
      "type": "function"
    },
    {
      "constant": true,
      "inputs": [],
      "name": "totalRewards",
      "outputs": [
        {
          "internalType": "uint256",
          "name": "",
          "type": "uint256"
        }
      ],
      "payable": false,
      "stateMutability": "view",
      "type": "function"
    },
    {
      "constant": true,
      "inputs": [],
      "name": "WITHDRAWAL_DELAY",
      "outputs": [
        {
          "internalType": "uint256",
          "name": "",
          "type": "uint256"
        }
      ],
      "payable": false,
      "stateMutability": "view",
      "type": "function"
    },
    {
      "constant": false,
      "inputs": [
        {
          "internalType": "address",
          "name": "_token",
          "type": "address"
        }
      ],
      "name": "setToken",
      "outputs": [],
      "payable": false,
      "stateMutability": "nonpayable",
      "type": "function"
    },
    {
      "constant": false,
      "inputs": [
        {
          "internalType": "uint256",
          "name": "newThreshold",
          "type": "uint256"
        }
      ],
      "name": "updateValidatorThreshold",
      "outputs": [],
      "payable": false,
      "stateMutability": "nonpayable",
      "type": "function"
    },
    {
      "constant": true,
      "inputs": [
        {
          "internalType": "address",
          "name": "user",
          "type": "address"
        }
      ],
      "name": "getValidatorId",
      "outputs": [
        {
          "internalType": "uint256",
          "name": "",
          "type": "uint256"
        }
      ],
      "payable": false,
      "stateMutability": "view",
      "type": "function"
    },
    {
      "constant": false,
      "inputs": [
        {
          "internalType": "uint256",
          "name": "validatorId",
          "type": "uint256"
        }
      ],
      "name": "unjail",
      "outputs": [],
      "payable": false,
      "stateMutability": "nonpayable",
      "type": "function"
    },
    {
      "constant": true,
      "inputs": [],
      "name": "accountStateRoot",
      "outputs": [
        {
          "internalType": "bytes32",
          "name": "",
          "type": "bytes32"
        }
      ],
      "payable": false,
      "stateMutability": "view",
      "type": "function"
    },
    {
      "constant": true,
      "inputs": [],
      "name": "checkPointBlockInterval",
      "outputs": [
        {
          "internalType": "uint256",
          "name": "",
          "type": "uint256"
        }
      ],
      "payable": false,
      "stateMutability": "view",
      "type": "function"
    },
    {
      "constant": true,
      "inputs": [
        {
          "internalType": "uint256",
          "name": "validatorId",
          "type": "uint256"
        }
      ],
      "name": "isValidator",
      "outputs": [
        {
          "internalType": "bool",
          "name": "",
          "type": "bool"
        }
      ],
      "payable": false,
      "stateMutability": "view",
      "type": "function"
    },
    {
      "constant": false,
      "inputs": [
        {
          "internalType": "uint256",
          "name": "validatorId",
          "type": "uint256"
        },
        {
          "internalType": "uint256",
          "name": "amount",
          "type": "uint256"
        },
        {
          "internalType": "bool",
          "name": "stakeRewards",
          "type": "bool"
        }
      ],
      "name": "restake",
      "outputs": [],
      "payable": false,
      "stateMutability": "nonpayable",
      "type": "function"
    },
    {
      "constant": false,
      "inputs": [
        {
          "internalType": "uint256",
          "name": "validatorId",
          "type": "uint256"
        }
      ],
      "name": "unstake",
      "outputs": [],
      "payable": false,
      "stateMutability": "nonpayable",
      "type": "function"
    },
    {
      "constant": true,
      "inputs": [],
      "name": "NFTContract",
      "outputs": [
        {
          "internalType": "contract StakingNFT",
          "name": "",
          "type": "address"
        }
      ],
      "payable": false,
      "stateMutability": "view",
      "type": "function"
    },
    {
      "constant": true,
      "inputs": [],
      "name": "proposerBonus",
      "outputs": [
        {
          "internalType": "uint256",
          "name": "",
          "type": "uint256"
        }
      ],
      "payable": false,
      "stateMutability": "view",
      "type": "function"
    },
    {
      "constant": true,
      "inputs": [
        {
          "internalType": "uint256",
          "name": "",
          "type": "uint256"
        }
      ],
      "name": "validators",
      "outputs": [
        {
          "internalType": "uint256",
          "name": "amount",
          "type": "uint256"
        },
        {
          "internalType": "uint256",
          "name": "reward",
          "type": "uint256"
        },
        {
          "internalType": "uint256",
          "name": "activationEpoch",
          "type": "uint256"
        },
        {
          "internalType": "uint256",
          "name": "deactivationEpoch",
          "type": "uint256"
        },
        {
          "internalType": "uint256",
          "name": "jailTime",
          "type": "uint256"
        },
        {
          "internalType": "address",
          "name": "signer",
          "type": "address"
        },
        {
          "internalType": "address",
          "name": "contractAddress",
          "type": "address"
        },
        {
          "internalType": "enum StakeManagerStorage.Status",
          "name": "status",
          "type": "uint8"
        }
      ],
      "payable": false,
      "stateMutability": "view",
      "type": "function"
    },
    {
      "constant": true,
      "inputs": [
        {
          "internalType": "address",
          "name": "",
          "type": "address"
        }
      ],
      "name": "signerToValidator",
      "outputs": [
        {
          "internalType": "uint256",
          "name": "",
          "type": "uint256"
        }
      ],
      "payable": false,
      "stateMutability": "view",
      "type": "function"
    },
    {
      "constant": true,
      "inputs": [],
      "name": "minDeposit",
      "outputs": [
        {
          "internalType": "uint256",
          "name": "",
          "type": "uint256"
        }
      ],
      "payable": false,
      "stateMutability": "view",
      "type": "function"
    },
    {
      "constant": false,
      "inputs": [
        {
          "internalType": "uint256",
          "name": "validatorId",
          "type": "uint256"
        },
        {
          "internalType": "address",
          "name": "_token",
          "type": "address"
        },
        {
          "internalType": "address payable",
          "name": "destination",
          "type": "address"
        },
        {
          "internalType": "uint256",
          "name": "amount",
          "type": "uint256"
        }
      ],
      "name": "drainValidatorShares",
      "outputs": [],
      "payable": false,
      "stateMutability": "nonpayable",
      "type": "function"
    },
    {
      "constant": true,
      "inputs": [
        {
          "internalType": "address",
          "name": "user",
          "type": "address"
        }
      ],
      "name": "totalStakedFor",
      "outputs": [
        {
          "internalType": "uint256",
          "name": "",
          "type": "uint256"
        }
      ],
      "payable": false,
      "stateMutability": "view",
      "type": "function"
    },
    {
      "constant": true,
      "inputs": [],
      "name": "signerUpdateLimit",
      "outputs": [
        {
          "internalType": "uint256",
          "name": "",
          "type": "uint256"
        }
      ],
      "payable": false,
      "stateMutability": "view",
      "type": "function"
    },
    {
      "constant": true,
      "inputs": [],
      "name": "validatorThreshold",
      "outputs": [
        {
          "internalType": "uint256",
          "name": "",
          "type": "uint256"
        }
      ],
      "payable": false,
      "stateMutability": "view",
      "type": "function"
    },
    {
      "constant": false,
      "inputs": [
        {
          "internalType": "address",
          "name": "user",
          "type": "address"
        },
        {
          "internalType": "uint256",
          "name": "amount",
          "type": "uint256"
        },
        {
          "internalType": "uint256",
          "name": "heimdallFee",
          "type": "uint256"
        },
        {
          "internalType": "bool",
          "name": "acceptDelegation",
          "type": "bool"
        },
        {
          "internalType": "bytes",
          "name": "signerPubkey",
          "type": "bytes"
        }
      ],
      "name": "stakeFor",
      "outputs": [],
      "payable": false,
      "stateMutability": "nonpayable",
      "type": "function"
    },
    {
      "constant": false,
      "inputs": [
        {
          "internalType": "uint256",
          "name": "validatorId",
          "type": "uint256"
        },
        {
          "internalType": "uint256",
          "name": "amount",
          "type": "uint256"
        }
      ],
      "name": "startAuction",
      "outputs": [],
      "payable": false,
      "stateMutability": "nonpayable",
      "type": "function"
    },
    {
      "constant": true,
      "inputs": [
        {
          "internalType": "uint256",
          "name": "",
          "type": "uint256"
        }
      ],
      "name": "validatorAuction",
      "outputs": [
        {
          "internalType": "uint256",
          "name": "amount",
          "type": "uint256"
        },
        {
          "internalType": "uint256",
          "name": "startEpoch",
          "type": "uint256"
        },
        {
          "internalType": "address",
          "name": "user",
          "type": "address"
        }
      ],
      "payable": false,
      "stateMutability": "view",
      "type": "function"
    },
    {
      "constant": true,
      "inputs": [],
      "name": "delegationEnabled",
      "outputs": [
        {
          "internalType": "bool",
          "name": "",
          "type": "bool"
        }
      ],
      "payable": false,
      "stateMutability": "view",
      "type": "function"
    },
    {
      "constant": true,
      "inputs": [],
      "name": "NFTCounter",
      "outputs": [
        {
          "internalType": "uint256",
          "name": "",
          "type": "uint256"
        }
      ],
      "payable": false,
      "stateMutability": "view",
      "type": "function"
    },
    {
      "constant": true,
      "inputs": [
        {
          "internalType": "uint256",
          "name": "validatorId",
          "type": "uint256"
        }
      ],
      "name": "getValidatorContract",
      "outputs": [
        {
          "internalType": "address",
          "name": "",
          "type": "address"
        }
      ],
      "payable": false,
      "stateMutability": "view",
      "type": "function"
    },
    {
      "constant": true,
      "inputs": [],
      "name": "governance",
      "outputs": [
        {
          "internalType": "contract IGovernance",
          "name": "",
          "type": "address"
        }
      ],
      "payable": false,
      "stateMutability": "view",
      "type": "function"
    },
    {
      "constant": true,
      "inputs": [
        {
          "internalType": "uint256",
          "name": "",
          "type": "uint256"
        }
      ],
      "name": "validatorState",
      "outputs": [
        {
          "internalType": "int256",
          "name": "amount",
          "type": "int256"
        },
        {
          "internalType": "int256",
          "name": "stakerCount",
          "type": "int256"
        }
      ],
      "payable": false,
      "stateMutability": "view",
      "type": "function"
    },
    {
      "constant": false,
      "inputs": [
        {
          "internalType": "bytes",
          "name": "_slashingInfoList",
          "type": "bytes"
        }
      ],
      "name": "slash",
      "outputs": [
        {
          "internalType": "uint256",
          "name": "",
          "type": "uint256"
        }
      ],
      "payable": false,
      "stateMutability": "nonpayable",
      "type": "function"
    },
    {
      "constant": true,
      "inputs": [
        {
          "internalType": "uint256",
          "name": "tokenId",
          "type": "uint256"
        }
      ],
      "name": "ownerOf",
      "outputs": [
        {
          "internalType": "address",
          "name": "",
          "type": "address"
        }
      ],
      "payable": false,
      "stateMutability": "view",
      "type": "function"
    },
    {
      "constant": false,
      "inputs": [
        {
          "internalType": "address",
          "name": "user",
          "type": "address"
        },
        {
          "internalType": "uint256",
          "name": "heimdallFee",
          "type": "uint256"
        }
      ],
      "name": "topUpForFee",
      "outputs": [],
      "payable": false,
      "stateMutability": "nonpayable",
      "type": "function"
    },
    {
      "constant": false,
      "inputs": [
        {
          "internalType": "address",
          "name": "_NFTContract",
          "type": "address"
        },
        {
          "internalType": "address",
          "name": "_stakingLogger",
          "type": "address"
        },
        {
          "internalType": "address",
          "name": "_validatorShareFactory",
          "type": "address"
        }
      ],
      "name": "reinitialize",
      "outputs": [],
      "payable": false,
      "stateMutability": "nonpayable",
      "type": "function"
    },
    {
      "constant": false,
      "inputs": [
        {
          "internalType": "uint256",
          "name": "accumFeeAmount",
          "type": "uint256"
        },
        {
          "internalType": "uint256",
          "name": "index",
          "type": "uint256"
        },
        {
          "internalType": "bytes",
          "name": "proof",
          "type": "bytes"
        }
      ],
      "name": "claimFee",
      "outputs": [],
      "payable": false,
      "stateMutability": "nonpayable",
      "type": "function"
    },
    {
      "constant": false,
      "inputs": [
        {
          "internalType": "uint256",
          "name": "validatorId",
          "type": "uint256"
        },
        {
          "internalType": "uint256",
          "name": "amount",
          "type": "uint256"
        },
        {
          "internalType": "address",
          "name": "delegator",
          "type": "address"
        }
      ],
      "name": "delegationDeposit",
      "outputs": [
        {
          "internalType": "bool",
          "name": "",
          "type": "bool"
        }
      ],
      "payable": false,
      "stateMutability": "nonpayable",
      "type": "function"
    },
    {
      "constant": true,
      "inputs": [],
      "name": "supportsHistory",
      "outputs": [
        {
          "internalType": "bool",
          "name": "",
          "type": "bool"
        }
      ],
      "payable": false,
      "stateMutability": "pure",
      "type": "function"
    },
    {
      "constant": true,
      "inputs": [],
      "name": "dynasty",
      "outputs": [
        {
          "internalType": "uint256",
          "name": "",
          "type": "uint256"
        }
      ],
      "payable": false,
      "stateMutability": "view",
      "type": "function"
    },
    {
      "constant": false,
      "inputs": [],
      "name": "renounceOwnership",
      "outputs": [],
      "payable": false,
      "stateMutability": "nonpayable",
      "type": "function"
    },
    {
      "constant": true,
      "inputs": [],
      "name": "currentEpoch",
      "outputs": [
        {
          "internalType": "uint256",
          "name": "",
          "type": "uint256"
        }
      ],
      "payable": false,
      "stateMutability": "view",
      "type": "function"
    },
    {
      "constant": true,
      "inputs": [],
      "name": "replacementCoolDown",
      "outputs": [
        {
          "internalType": "uint256",
          "name": "",
          "type": "uint256"
        }
      ],
      "payable": false,
      "stateMutability": "view",
      "type": "function"
    },
    {
      "constant": true,
      "inputs": [
        {
          "internalType": "address",
          "name": "",
          "type": "address"
        }
      ],
      "name": "userFeeExit",
      "outputs": [
        {
          "internalType": "uint256",
          "name": "",
          "type": "uint256"
        }
      ],
      "payable": false,
      "stateMutability": "view",
      "type": "function"
    },
    {
      "constant": true,
      "inputs": [],
      "name": "registry",
      "outputs": [
        {
          "internalType": "address",
          "name": "",
          "type": "address"
        }
      ],
      "payable": false,
      "stateMutability": "view",
      "type": "function"
    },
    {
      "constant": true,
      "inputs": [],
      "name": "CHECKPOINT_REWARD",
      "outputs": [
        {
          "internalType": "uint256",
          "name": "",
          "type": "uint256"
        }
      ],
      "payable": false,
      "stateMutability": "view",
      "type": "function"
    },
    {
      "constant": true,
      "inputs": [],
      "name": "currentValidatorSetSize",
      "outputs": [
        {
          "internalType": "uint256",
          "name": "",
          "type": "uint256"
        }
      ],
      "payable": false,
      "stateMutability": "view",
      "type": "function"
    },
    {
      "constant": true,
      "inputs": [],
      "name": "totalStaked",
      "outputs": [
        {
          "internalType": "uint256",
          "name": "",
          "type": "uint256"
        }
      ],
      "payable": false,
      "stateMutability": "view",
      "type": "function"
    },
    {
      "constant": true,
      "inputs": [],
      "name": "owner",
      "outputs": [
        {
          "internalType": "address",
          "name": "",
          "type": "address"
        }
      ],
      "payable": false,
      "stateMutability": "view",
      "type": "function"
    },
    {
      "constant": true,
      "inputs": [],
      "name": "isOwner",
      "outputs": [
        {
          "internalType": "bool",
          "name": "",
          "type": "bool"
        }
      ],
      "payable": false,
      "stateMutability": "view",
      "type": "function"
    },
    {
      "constant": true,
      "inputs": [],
      "name": "epoch",
      "outputs": [
        {
          "internalType": "uint256",
          "name": "",
          "type": "uint256"
        }
      ],
      "payable": false,
      "stateMutability": "view",
      "type": "function"
    },
    {
      "constant": false,
      "inputs": [
        {
          "internalType": "uint256",
          "name": "validatorId",
          "type": "uint256"
        }
      ],
      "name": "forceUnstake",
      "outputs": [],
      "payable": false,
      "stateMutability": "nonpayable",
      "type": "function"
    },
    {
      "constant": false,
      "inputs": [
        {
          "internalType": "uint256",
          "name": "validatorId",
          "type": "uint256"
        }
      ],
      "name": "withdrawRewards",
      "outputs": [],
      "payable": false,
      "stateMutability": "nonpayable",
      "type": "function"
    },
    {
      "constant": true,
      "inputs": [],
      "name": "rootChain",
      "outputs": [
        {
          "internalType": "address",
          "name": "",
          "type": "address"
        }
      ],
      "payable": false,
      "stateMutability": "view",
      "type": "function"
    },
    {
      "constant": true,
      "inputs": [],
      "name": "totalHeimdallFee",
      "outputs": [
        {
          "internalType": "uint256",
          "name": "",
          "type": "uint256"
        }
      ],
      "payable": false,
      "stateMutability": "view",
      "type": "function"
    },
    {
      "constant": false,
      "inputs": [
        {
          "internalType": "uint256",
          "name": "newProposerBonus",
          "type": "uint256"
        }
      ],
      "name": "updateProposerBonus",
      "outputs": [],
      "payable": false,
      "stateMutability": "nonpayable",
      "type": "function"
    },
    {
      "constant": false,
      "inputs": [
        {
          "internalType": "uint256",
          "name": "validatorId",
          "type": "uint256"
        },
        {
          "internalType": "int256",
          "name": "amount",
          "type": "int256"
        }
      ],
      "name": "updateValidatorState",
      "outputs": [],
      "payable": false,
      "stateMutability": "nonpayable",
      "type": "function"
    },
    {
      "constant": false,
      "inputs": [
        {
          "internalType": "uint256",
          "name": "_blocks",
          "type": "uint256"
        }
      ],
      "name": "updateCheckPointBlockInterval",
      "outputs": [],
      "payable": false,
      "stateMutability": "nonpayable",
      "type": "function"
    },
    {
      "constant": true,
      "inputs": [],
      "name": "currentValidatorSetTotalStake",
      "outputs": [
        {
          "internalType": "uint256",
          "name": "",
          "type": "uint256"
        }
      ],
      "payable": false,
      "stateMutability": "view",
      "type": "function"
    },
    {
      "constant": false,
      "inputs": [],
      "name": "unlock",
      "outputs": [],
      "payable": false,
      "stateMutability": "nonpayable",
      "type": "function"
    },
    {
      "constant": true,
      "inputs": [],
      "name": "withdrawalDelay",
      "outputs": [
        {
          "internalType": "uint256",
          "name": "",
          "type": "uint256"
        }
      ],
      "payable": false,
      "stateMutability": "view",
      "type": "function"
    },
    {
      "constant": false,
      "inputs": [
        {
          "internalType": "address",
          "name": "destination",
          "type": "address"
        },
        {
          "internalType": "uint256",
          "name": "amount",
          "type": "uint256"
        }
      ],
      "name": "drain",
      "outputs": [],
      "payable": false,
      "stateMutability": "nonpayable",
      "type": "function"
    },
    {
      "constant": false,
      "inputs": [
        {
          "internalType": "uint256",
          "name": "_minDeposit",
          "type": "uint256"
        },
        {
          "internalType": "uint256",
          "name": "_minHeimdallFee",
          "type": "uint256"
        }
      ],
      "name": "updateMinAmounts",
      "outputs": [],
      "payable": false,
      "stateMutability": "nonpayable",
      "type": "function"
    },
    {
      "constant": false,
      "inputs": [
        {
          "internalType": "uint256",
          "name": "validatorId",
          "type": "uint256"
        },
        {
          "internalType": "uint256",
          "name": "amount",
          "type": "uint256"
        },
        {
          "internalType": "address",
          "name": "delegator",
          "type": "address"
        }
      ],
      "name": "transferFunds",
      "outputs": [
        {
          "internalType": "bool",
          "name": "",
          "type": "bool"
        }
      ],
      "payable": false,
      "stateMutability": "nonpayable",
      "type": "function"
    },
    {
      "constant": true,
      "inputs": [],
      "name": "factory",
      "outputs": [
        {
          "internalType": "contract ValidatorShareFactory",
          "name": "",
          "type": "address"
        }
      ],
      "payable": false,
      "stateMutability": "view",
      "type": "function"
    },
    {
      "constant": false,
      "inputs": [
        {
          "internalType": "uint256",
          "name": "validatorId",
          "type": "uint256"
        },
        {
          "internalType": "uint256",
          "name": "heimdallFee",
          "type": "uint256"
        },
        {
          "internalType": "bool",
          "name": "acceptDelegation",
          "type": "bool"
        },
        {
          "internalType": "bytes",
          "name": "signerPubkey",
          "type": "bytes"
        }
      ],
      "name": "confirmAuctionBid",
      "outputs": [],
      "payable": false,
      "stateMutability": "nonpayable",
      "type": "function"
    },
    {
      "constant": false,
      "inputs": [
        {
          "internalType": "uint256",
          "name": "newReward",
          "type": "uint256"
        }
      ],
      "name": "updateCheckpointReward",
      "outputs": [],
      "payable": false,
      "stateMutability": "nonpayable",
      "type": "function"
    },
    {
      "constant": true,
      "inputs": [],
      "name": "totalRewardsLiquidated",
      "outputs": [
        {
          "internalType": "uint256",
          "name": "",
          "type": "uint256"
        }
      ],
      "payable": false,
      "stateMutability": "view",
      "type": "function"
    },
    {
      "constant": true,
      "inputs": [],
      "name": "locked",
      "outputs": [
        {
          "internalType": "bool",
          "name": "",
          "type": "bool"
        }
      ],
      "payable": false,
      "stateMutability": "view",
      "type": "function"
    },
    {
      "constant": true,
      "inputs": [
        {
          "internalType": "bytes",
          "name": "pub",
          "type": "bytes"
        }
      ],
      "name": "pubToAddress",
      "outputs": [
        {
          "internalType": "address",
          "name": "",
          "type": "address"
        }
      ],
      "payable": false,
      "stateMutability": "pure",
      "type": "function"
    },
    {
      "constant": true,
      "inputs": [
        {
          "internalType": "uint256",
          "name": "",
          "type": "uint256"
        }
      ],
      "name": "latestSignerUpdateEpoch",
      "outputs": [
        {
          "internalType": "uint256",
          "name": "",
          "type": "uint256"
        }
      ],
      "payable": false,
      "stateMutability": "view",
      "type": "function"
    },
    {
      "constant": false,
      "inputs": [
        {
          "internalType": "uint256",
          "name": "validatorId",
          "type": "uint256"
        }
      ],
      "name": "unstakeClaim",
      "outputs": [],
      "payable": false,
      "stateMutability": "nonpayable",
      "type": "function"
    },
    {
      "constant": false,
      "inputs": [
        {
          "internalType": "address",
          "name": "newFactory",
          "type": "address"
        }
      ],
      "name": "updateContractFactory",
      "outputs": [],
      "payable": false,
      "stateMutability": "nonpayable",
      "type": "function"
    },
    {
      "constant": false,
      "inputs": [
        {
          "internalType": "uint256",
          "name": "newDynasty",
          "type": "uint256"
        }
      ],
      "name": "updateDynastyValue",
      "outputs": [],
      "payable": false,
      "stateMutability": "nonpayable",
      "type": "function"
    },
    {
      "constant": false,
      "inputs": [
        {
          "internalType": "address",
          "name": "newRootChain",
          "type": "address"
        }
      ],
      "name": "changeRootChain",
      "outputs": [],
      "payable": false,
      "stateMutability": "nonpayable",
      "type": "function"
    },
    {
      "constant": true,
      "inputs": [
        {
          "internalType": "uint256",
          "name": "validatorId",
          "type": "uint256"
        }
      ],
      "name": "validatorStake",
      "outputs": [
        {
          "internalType": "uint256",
          "name": "",
          "type": "uint256"
        }
      ],
      "payable": false,
      "stateMutability": "view",
      "type": "function"
    },
    {
      "constant": true,
      "inputs": [],
      "name": "logger",
      "outputs": [
        {
          "internalType": "contract StakingInfo",
          "name": "",
          "type": "address"
        }
      ],
      "payable": false,
      "stateMutability": "view",
      "type": "function"
    },
    {
      "constant": false,
      "inputs": [
        {
          "internalType": "bool",
          "name": "enabled",
          "type": "bool"
        }
      ],
      "name": "setDelegationEnabled",
      "outputs": [],
      "payable": false,
      "stateMutability": "nonpayable",
      "type": "function"
    },
    {
      "constant": false,
      "inputs": [
        {
          "internalType": "address",
          "name": "newOwner",
          "type": "address"
        }
      ],
      "name": "transferOwnership",
      "outputs": [],
      "payable": false,
      "stateMutability": "nonpayable",
      "type": "function"
    },
    {
      "constant": false,
      "inputs": [
        {
          "internalType": "uint256",
          "name": "validatorId",
          "type": "uint256"
        },
        {
          "internalType": "bytes",
          "name": "signerPubkey",
          "type": "bytes"
        }
      ],
      "name": "updateSigner",
      "outputs": [],
      "payable": false,
      "stateMutability": "nonpayable",
      "type": "function"
    },
    {
      "constant": false,
      "inputs": [
        {
          "internalType": "uint256",
          "name": "validatorId",
          "type": "uint256"
        },
        {
          "internalType": "address",
          "name": "newContractAddress",
          "type": "address"
        }
      ],
      "name": "updateContractAddress",
      "outputs": [],
      "payable": false,
      "stateMutability": "nonpayable",
      "type": "function"
    },
    {
      "constant": false,
      "inputs": [
        {
          "internalType": "uint256",
          "name": "forNCheckpoints",
          "type": "uint256"
        }
      ],
      "name": "stopAuctions",
      "outputs": [],
      "payable": false,
      "stateMutability": "nonpayable",
      "type": "function"
    },
    {
      "constant": false,
      "inputs": [],
      "name": "lock",
      "outputs": [],
      "payable": false,
      "stateMutability": "nonpayable",
      "type": "function"
    },
    {
      "constant": true,
      "inputs": [],
      "name": "minHeimdallFee",
      "outputs": [
        {
          "internalType": "uint256",
          "name": "",
          "type": "uint256"
        }
      ],
      "payable": false,
      "stateMutability": "view",
      "type": "function"
    },
    {
      "constant": true,
      "inputs": [],
      "name": "token",
      "outputs": [
        {
          "internalType": "contract IERC20",
          "name": "",
          "type": "address"
        }
      ],
      "payable": false,
      "stateMutability": "view",
      "type": "function"
    },
    {
      "anonymous": false,
      "inputs": [
        {
          "indexed": true,
          "internalType": "address",
          "name": "previousRootChain",
          "type": "address"
        },
        {
          "indexed": true,
          "internalType": "address",
          "name": "newRootChain",
          "type": "address"
        }
      ],
      "name": "RootChainChanged",
      "type": "event"
    },
    {
      "anonymous": false,
      "inputs": [
        {
          "indexed": true,
          "internalType": "address",
          "name": "previousOwner",
          "type": "address"
        },
        {
          "indexed": true,
          "internalType": "address",
          "name": "newOwner",
          "type": "address"
        }
      ],
      "name": "OwnershipTransferred",
      "type": "event"
    },
    {
      "constant": false,
      "inputs": [
        {
          "internalType": "uint256",
          "name": "delta",
          "type": "uint256"
        }
      ],
      "name": "advanceEpoch",
      "outputs": [],
      "payable": false,
      "stateMutability": "nonpayable",
      "type": "function"
    }
  ],
  "bytecode": "0x6080604052610dd86009556001600a55610dd8600b556901119931efd9147c0000600c55670de0b6b3a7640000600d55670de0b6b3a7640000600e55610100600f556064601055600b60115560016013556004600b548161005c57fe5b04601655600a601755601a805460ff19166001179055600080546001600160a01b031916331780825560405182916001600160a01b03169082907f8be0079c531659141344cd1fd0a4f28419497f9722a3daafe3b4186f6b6457e0908290a3600280546001600160a01b0319166001600160a01b039290921691909117905550615b9580620000ec6000396000f3fe608060405234801561001057600080fd5b50600436106104c25760003560e01c806378f84a4411610278578063c45a01551161015c578063eceec1d3116100ce578063f41a964211610092578063f41a9642146110b5578063f4547a4d14611160578063f771fc871461118c578063f83d08ba146111a9578063fba58f34146111b1578063fc0c546a146111b9576104c2565b8063eceec1d31461102e578063f24ccbfe1461104b578063f28699fa14611053578063f2fde38b14611072578063f3b8777914611098576104c2565b8063d011027411610120578063d011027414610ee7578063d7f5549d14610f8b578063d86d53e714610fa8578063e1edc93014610fc5578063e6692f4914610feb578063e8afa8e814611008576104c2565b8063c45a015514610e2f578063c8b194a214610e37578063cbf383d514610eba578063cd6b838814610ed7578063cf30901214610edf576104c2565b8063987ab9db116101f5578063a4769071116101b9578063a476907114610d96578063a69df4b514610d9e578063a7ab696114610da6578063b184be8114610dae578063b1d23f0214610dda578063bc8756a914610dfd576104c2565b8063987ab9db14610d295780639a8a624314610d315780639b33f43414610d395780639ff1150014610d56578063a440ab1e14610d79576104c2565b80638da5cb5b1161023c5780638da5cb5b14610cd75780638f32d59b14610cdf578063900cf0cf14610ce75780639146014914610cef5780639342c8f414610d0c576104c2565b806378f84a4414610c915780637b10399914610cb75780637d66975214610cbf5780637f952d9514610cc7578063817b1cd214610ccf576104c2565b80634b341aed116103aa5780635e47655f1161031c5780636901b253116102e05780636901b25314610c375780637033e4a614610c695780637060054d14610c71578063715018a614610c795780637667180814610c8157806377939d1014610c89576104c2565b80635e47655f14610a625780636352211e14610b065780636365679814610b235780636400e38514610b4f57806368cb812a14610b87576104c2565b80635325e1441161036e5780635325e144146109b357806354b8c601146109f75780635508d8e1146109ff57806356342d8c14610a075780635aa6e67514610a245780635c24885514610a2c576104c2565b80634b341aed146108935780634e3c83f1146108b95780634fd101d7146108c15780634fdd20f1146108c95780634fee13fc14610990576104c2565b806317c2b9101161044357806331c2273b1161040757806331c2273b14610767578063342745861461078b57806335aa2e44146107935780633862da0b1461082957806341b3d1851461084f57806348ab8b2a14610857576104c2565b806317c2b910146106de57806325316411146106e65780632649263a146106ee57806328cc4e411461071f5780632e17de781461074a576104c2565b80630ebb172a1161048a5780630ebb172a14610650578063144fa6d71461065857806316827b1b1461067e578063174e68321461069b578063178c2c83146106c1576104c2565b8063028c4c67146104c7578063066647a01461054c57806306cfb104146106235780630cccfc58146106405780630e15561a14610648575b600080fd5b61054a600480360360808110156104dd57600080fd5b813591602081013591604082013515159190810190608081016060820135600160201b81111561050c57600080fd5b82018360208201111561051e57600080fd5b803590602001918460018302840111600160201b8311171561053f57600080fd5b5090925090506111c1565b005b610611600480360360a081101561056257600080fd5b8135916020810135916040820135916001600160a01b036060820135169181019060a081016080820135600160201b81111561059d57600080fd5b8201836020820111156105af57600080fd5b803590602001918460018302840111600160201b831117156105d057600080fd5b91908080601f01602080910402602001604051908101604052809392919081815260200183838082843760009201919091525092955061120b945050505050565b60408051918252519081900360200190f35b61054a6004803603602081101561063957600080fd5b5035611384565b61061161139a565b6106116113a0565b6106116113a6565b61054a6004803603602081101561066e57600080fd5b50356001600160a01b03166113ac565b61054a6004803603602081101561069457600080fd5b50356113f2565b610611600480360360208110156106b157600080fd5b50356001600160a01b0316611487565b61054a600480360360208110156106d757600080fd5b5035611511565b610611611853565b610611611859565b61070b6004803603602081101561070457600080fd5b503561185f565b604080519115158252519081900360200190f35b61054a6004803603606081101561073557600080fd5b508035906020810135906040013515156118e0565b61054a6004803603602081101561076057600080fd5b5035611d0f565b61076f611ec1565b604080516001600160a01b039092168252519081900360200190f35b610611611ed0565b6107b0600480360360208110156107a957600080fd5b5035611ed6565b60405180898152602001888152602001878152602001868152602001858152602001846001600160a01b03166001600160a01b03168152602001836001600160a01b03166001600160a01b0316815260200182600381111561080e57fe5b60ff1681526020019850505050505050505060405180910390f35b6106116004803603602081101561083f57600080fd5b50356001600160a01b0316611f2c565b610611611f3e565b61054a6004803603608081101561086d57600080fd5b508035906001600160a01b03602082013581169160408101359091169060600135611f44565b610611600480360360208110156108a957600080fd5b50356001600160a01b031661203e565b610611612175565b61061161217b565b61054a600480360360a08110156108df57600080fd5b6001600160a01b0382351691602081013591604082013591606081013515159181019060a081016080820135600160201b81111561091c57600080fd5b82018360208201111561092e57600080fd5b803590602001918460018302840111600160201b8311171561094f57600080fd5b91908080601f016020809104026020016040519081016040528093929190818152602001838380828437600092019190915250929550612181945050505050565b61054a600480360360408110156109a657600080fd5b5080359060200135612288565b6109d0600480360360208110156109c957600080fd5b5035612840565b6040805193845260208401929092526001600160a01b031682820152519081900360600190f35b61070b61286a565b610611612873565b61076f60048036036020811015610a1d57600080fd5b5035612879565b61076f612897565b610a4960048036036020811015610a4257600080fd5b50356128a6565b6040805192835260208301919091528051918290030190f35b61061160048036036020811015610a7857600080fd5b810190602081018135600160201b811115610a9257600080fd5b820183602082011115610aa457600080fd5b803590602001918460018302840111600160201b83111715610ac557600080fd5b91908080601f0160208091040260200160405190810160405280939291908181526020018383808284376000920191909152509295506128bf945050505050565b61076f60048036036020811015610b1c57600080fd5b5035612ba0565b61054a60048036036040811015610b3957600080fd5b506001600160a01b038135169060200135612bec565b61054a60048036036060811015610b6557600080fd5b506001600160a01b038135811691602081013582169160409091013516612c47565b61054a60048036036060811015610b9d57600080fd5b813591602081013591810190606081016040820135600160201b811115610bc357600080fd5b820183602082011115610bd557600080fd5b803590602001918460018302840111600160201b83111715610bf657600080fd5b91908080601f016020809104026020016040519081016040528093929190818152602001838380828437600092019190915250929550612ccf945050505050565b61070b60048036036060811015610c4d57600080fd5b50803590602081013590604001356001600160a01b0316612f0d565b61070b61305d565b610611613062565b61054a613068565b6106116130c3565b6106116130c9565b61061160048036036020811015610ca757600080fd5b50356001600160a01b03166130cf565b61076f6130e1565b6106116130f0565b6106116130f6565b61061161310e565b61076f613114565b61070b613123565b610611613134565b61054a60048036036020811015610d0557600080fd5b503561313a565b61054a60048036036020811015610d2257600080fd5b503561315a565b61076f6133d6565b6106116133e5565b61054a60048036036020811015610d4f57600080fd5b50356133eb565b61054a60048036036040811015610d6c57600080fd5b50803590602001356134b0565b61054a60048036036020811015610d8f57600080fd5b5035613534565b61061161359f565b61054a6135b4565b61061161360c565b61054a60048036036040811015610dc457600080fd5b506001600160a01b038135169060200135613612565b61054a60048036036040811015610df057600080fd5b5080359060200135613721565b61070b60048036036060811015610e1357600080fd5b50803590602081013590604001356001600160a01b031661373d565b61076f613897565b61054a60048036036080811015610e4d57600080fd5b813591602081013591604082013515159190810190608081016060820135600160201b811115610e7c57600080fd5b820183602082011115610e8e57600080fd5b803590602001918460018302840111600160201b83111715610eaf57600080fd5b5090925090506138a6565b61054a60048036036020811015610ed057600080fd5b5035613cfe565b610611613d93565b61070b613d99565b61076f60048036036020811015610efd57600080fd5b810190602081018135600160201b811115610f1757600080fd5b820183602082011115610f2957600080fd5b803590602001918460018302840111600160201b83111715610f4a57600080fd5b91908080601f016020809104026020016040519081016040528093929190818152602001838380828437600092019190915250929550613da9945050505050565b61061160048036036020811015610fa157600080fd5b5035613dfe565b61054a60048036036020811015610fbe57600080fd5b5035613e0f565b61054a60048036036020811015610fdb57600080fd5b50356001600160a01b0316614109565b61054a6004803603602081101561100157600080fd5b503561413c565b61054a6004803603602081101561101e57600080fd5b50356001600160a01b0316614201565b6106116004803603602081101561104457600080fd5b5035614281565b61076f614293565b61054a6004803603602081101561106957600080fd5b503515156142a2565b61054a6004803603602081101561108857600080fd5b50356001600160a01b03166142fe565b61054a600480360360208110156110ae57600080fd5b5035614318565b61054a600480360360408110156110cb57600080fd5b81359190810190604081016020820135600160201b8111156110ec57600080fd5b8201836020820111156110fe57600080fd5b803590602001918460018302840111600160201b8311171561111f57600080fd5b91908080601f016020809104026020016040519081016040528093929190818152602001838380828437600092019190915250929550614331945050505050565b61054a6004803603604081101561117657600080fd5b50803590602001356001600160a01b031661460b565b61054a600480360360208110156111a257600080fd5b5035614701565b61054a614725565b610611614783565b61076f614789565b6112043386868686868080601f01602080910402602001604051908101604052809392919081815260200183838082843760009201919091525061218192505050565b5050505050565b6003546000906001600160a01b0316331461122557600080fd5b600061124e600f54611242600c548a61479890919063ffffffff16565b9063ffffffff6147c816565b905061125c600c54826147ea565b9050600061127a60646112426017548561479890919063ffffffff16565b6001600160a01b038087166000908152601c60209081526040808320548352601b909152902060068101549293509116156113245760068101548154604080516301a6632160e31b8152600481018690526024810192909252516001600160a01b0390921691630d3319089160448082019260009290919082900301818387803b15801561130757600080fd5b505af115801561131b573d6000803e3d6000fd5b5050505061133f565b6001810154611339908363ffffffff61480016565b60018201555b61134f838363ffffffff61481216565b9250600061135b61359f565b6018899055905061136a614827565b61137681858b89614879565b9a9950505050505050505050565b61138c613123565b61139557600080fd5b601055565b60165481565b60145481565b60095481565b6113b4613123565b6113bd57600080fd5b6001600160a01b0381166113d057600080fd5b600480546001600160a01b0319166001600160a01b0392909216919091179055565b6113fa613123565b61140357600080fd5b6000811161141057600080fd5b60065460115460408051630f1980a560e41b8152600481018590526024810192909252516001600160a01b039092169163f1980a509160448082019260009290919082900301818387803b15801561146757600080fd5b505af115801561147b573d6000803e3d6000fd5b50505060119190915550565b60075460408051632f745c5960e01b81526001600160a01b038481166004830152600060248301819052925192931691632f745c5991604480820192602092909190829003018186803b1580156114dd57600080fd5b505afa1580156114f1573d6000803e3d6000fd5b505050506040513d602081101561150757600080fd5b505190505b919050565b600754604080516331a9108f60e11b8152600481018490529051839233926001600160a01b0390911691636352211e91602480820192602092909190829003018186803b15801561156157600080fd5b505afa158015611575573d6000803e3d6000fd5b505050506040513d602081101561158b57600080fd5b50516001600160a01b0316146115a057600080fd5b60026000838152601b6020526040902060060154600160a01b900460ff1660038111156115c957fe5b1461161b576040805162461bcd60e51b815260206004820152601760248201527f56616c696461746f72206973206e6f74206a61696c6564000000000000000000604482015290519081900360640190fd5b6000828152601b60205260409020600301541561167f576040805162461bcd60e51b815260206004820152601b60248201527f56616c696461746f7220616c726561647920756e7374616b696e670000000000604482015290519081900360640190fd5b600a546000838152601b60205260409020600401548110156116e1576040805162461bcd60e51b8152602060048201526016602482015275125b98dbdb5c1b195d19481a985a5b081c195c9a5bd960521b604482015290519081900360640190fd5b6000838152601b6020526040902054600d548110156116ff57600080fd5b6000848152601b60205260408120600601546001600160a01b0316156117a3576000858152601b602090815260408083206006015481516322f0f2f960e01b815291516001600160a01b03909116936322f0f2f993600480850194919392918390030190829087803b15801561177457600080fd5b505af1158015611788573d6000803e3d6000fd5b505050506040513d602081101561179e57600080fd5b505190505b6117be836117b7848463ffffffff61480016565b6001614bb5565b6000858152601b60205260408082206006808201805460ff60a01b1916600160a01b17905554600590910154825163f92ec5af60e01b8152600481018a90526001600160a01b039182166024820152925191169263f92ec5af926044808201939182900301818387803b15801561183457600080fd5b505af1158015611848573d6000803e3d6000fd5b505050505050505050565b60185481565b600f5481565b6000818152601b60205260408120600281015460038201548254600690930154600a5492939192600160a01b90910460ff169082158015906118ab575084158015906118ab5750808511155b80156118be57508315806118be57508084115b80156118d5575060018260038111156118d357fe5b145b979650505050505050565b600254600160a01b900460ff161561192b576040805162461bcd60e51b8152602060048201526009602482015268125cc8131bd8dad95960ba1b604482015290519081900360640190fd5b600754604080516331a9108f60e11b8152600481018690529051859233926001600160a01b0390911691636352211e91602480820192602092909190829003018186803b15801561197b57600080fd5b505afa15801561198f573d6000803e3d6000fd5b505050506040513d60208110156119a557600080fd5b50516001600160a01b0316146119ba57600080fd5b6000848152601b602052604090206003015415611a14576040805162461bcd60e51b81526020600482015260136024820152724e6f20757365206f662072657374616b696e6760681b604482015290519081900360640190fd5b8215611aea5760048054604080516323b872dd60e01b8152339381019390935230602484015260448301869052516001600160a01b03909116916323b872dd9160648083019260209291908290030181600087803b158015611a7557600080fd5b505af1158015611a89573d6000803e3d6000fd5b505050506040513d6020811015611a9f57600080fd5b5051611aea576040805162461bcd60e51b8152602060048201526015602482015274151c985b9cd9995c881cdd185ad94819985a5b1959605a1b604482015290519081900360640190fd5b8115611bc5576000848152601b6020526040902060010154611b1390849063ffffffff61480016565b6000858152601b60205260409020600601549093506001600160a01b03168015611bb157611bae816001600160a01b03166332ba2e536040518163ffffffff1660e01b8152600401602060405180830381600087803b158015611b7557600080fd5b505af1158015611b89573d6000803e3d6000fd5b505050506040513d6020811015611b9f57600080fd5b5051859063ffffffff61480016565b93505b506000848152601b60205260408120600101555b601254600090611bdb908563ffffffff61480016565b60128190556000868152601b6020526040902054909150611c02908563ffffffff61480016565b6000868152601b6020908152604080832093909355600a54808352601d909152828220805488019055600654835163532e19a960e01b8152600481018a9052935191936001600160a01b039091169263532e19a99260248084019382900301818387803b158015611c7257600080fd5b505af1158015611c86573d6000803e3d6000fd5b50506006546000898152601b6020526040808220548151631585a9f360e21b8152600481018d905260248101919091526044810188905290516001600160a01b039093169450635616a7cc93506064808201939182900301818387803b158015611cef57600080fd5b505af1158015611d03573d6000803e3d6000fd5b50505050505050505050565b600754604080516331a9108f60e11b8152600481018490529051839233926001600160a01b0390911691636352211e91602480820192602092909190829003018186803b158015611d5f57600080fd5b505afa158015611d73573d6000803e3d6000fd5b505050506040513d6020811015611d8957600080fd5b50516001600160a01b031614611d9e57600080fd5b6000828152601f602052604090205415611dff576040805162461bcd60e51b815260206004820152601b60248201527f5761697420666f722061756374696f6e20636f6d706c6574696f6e0000000000604482015290519081900360640190fd5b6000828152601b602052604090206002015415801590611e2e57506000828152601b6020526040902060030154155b8015611e90575060016000838152601b6020526040902060060154600160a01b900460ff166003811115611e5e57fe5b1480611e90575060026000838152601b6020526040902060060154600160a01b900460ff166003811115611e8e57fe5b145b611e9957600080fd5b600a54600090611eb090600163ffffffff61480016565b9050611ebc8382614bd7565b505050565b6007546001600160a01b031681565b60175481565b601b602052600090815260409020805460018201546002830154600384015460048501546005860154600690960154949593949293919290916001600160a01b039081169190811690600160a01b900460ff1688565b601c6020526000908152604090205481565b600d5481565b6002546001600160a01b03163314611f8d5760405162461bcd60e51b8152600401808060200182810382526026815260200180615aeb6026913960400191505060405180910390fd5b6000848152601b60205260409020600601546001600160a01b031680611fe45760405162461bcd60e51b815260040180806020018281038252602a815260200180615b11602a913960400191505060405180910390fd5b6040805163abf59fc960e01b81526001600160a01b0386811660048301528581166024830152604482018590529151839283169163abf59fc991606480830192600092919082900301818387803b158015611cef57600080fd5b60006001600160a01b03821615806120cc5750600754604080516370a0823160e01b81526001600160a01b038581166004830152915191909216916370a08231916024808301926020929190829003018186803b15801561209e57600080fd5b505afa1580156120b2573d6000803e3d6000fd5b505050506040513d60208110156120c857600080fd5b5051155b156120d95750600061150c565b60075460408051632f745c5960e01b81526001600160a01b0385811660048301526000602483018190529251601b949190911691632f745c59916044808301926020929190829003018186803b15801561213257600080fd5b505afa158015612146573d6000803e3d6000fd5b505050506040513d602081101561215c57600080fd5b5051815260208101919091526040016000205492915050565b60105481565b60115481565b600254600160a01b900460ff16156121cc576040805162461bcd60e51b8152602060048201526009602482015268125cc8131bd8dad95960ba1b604482015290519081900360640190fd5b6011546121d76130f6565b106122135760405162461bcd60e51b8152600401808060200182810382526021815260200180615aa66021913960400191505060405180910390fd5b600d548411612269576040805162461bcd60e51b815260206004820152601960248201527f6d696e206465706f736974206c696d6974206661696c65642100000000000000604482015290519081900360640190fd5b612274858486614e66565b61228085858484615043565b505050505050565b600254600160a01b900460ff16156122d3576040805162461bcd60e51b8152602060048201526009602482015268125cc8131bd8dad95960ba1b604482015290519081900360640190fd5b6000828152601b6020526040902080546003909101541580156122f557508015155b612346576040805162461bcd60e51b815260206004820181905260248201527f496e76616c69642076616c696461746f7220666f7220616e2061756374696f6e604482015290519081900360640190fd5b336000818152601c60209081526040918290205460075483516370a0823160e01b81526004810195909552925190936001600160a01b03909316926370a08231926024808301939192829003018186803b1580156123a357600080fd5b505afa1580156123b7573d6000803e3d6000fd5b505050506040513d60208110156123cd57600080fd5b50511580156123de57506000198114155b612426576040805162461bcd60e51b8152602060048201526014602482015273416c72656164792075736564206164647265737360601b604482015290519081900360640190fd5b600a546019548015806124395750818111155b61247c576040805162461bcd60e51b815260206004820152600f60248201526e10dbdbdb191bdddb881c195c9a5bd9608a1b604482015290519081900360640190fd5b601654600b54612492908263ffffffff61480016565b6000888152601b60205260409020600201546124b590859063ffffffff61481216565b816124bc57fe5b061115612509576040805162461bcd60e51b8152602060048201526016602482015275125b9d985b1a5908185d58dd1a5bdb881c195c9a5bd960521b604482015290519081900360640190fd5b6000868152601b602052604090206006015484906001600160a01b031680156125a4576125a1816001600160a01b0316633a09bf446040518163ffffffff1660e01b815260040160206040518083038186803b15801561256857600080fd5b505afa15801561257c573d6000803e3d6000fd5b505050506040513d602081101561259257600080fd5b5051839063ffffffff61480016565b91505b6000888152601f6020526040902080546125be8482615458565b9350888410612606576040805162461bcd60e51b815260206004820152600f60248201526e26bab9ba103134b2103434b3b432b960891b604482015290519081900360640190fd5b60048054604080516323b872dd60e01b81523393810193909352306024840152604483018c9052516001600160a01b03909116916323b872dd9160648083019260209291908290030181600087803b15801561266157600080fd5b505af1158015612675573d6000803e3d6000fd5b505050506040513d602081101561268b57600080fd5b50516126d7576040805162461bcd60e51b8152602060048201526016602482015275151c985b9cd9995c88185b5bdd5b9d0819985a5b195960521b604482015290519081900360640190fd5b80156127a9576004805460028401546040805163a9059cbb60e01b81526001600160a01b0392831694810194909452602484018590525191169163a9059cbb9160448083019260209291908290030181600087803b15801561273857600080fd5b505af115801561274c573d6000803e3d6000fd5b505050506040513d602081101561276257600080fd5b50516127a9576040805162461bcd60e51b8152602060048201526011602482015270109a59081c995d1d5c9b8819985a5b1959607a1b604482015290519081900360640190fd5b8882556002820180546001600160a01b0319163317905560065460408051630934a6df60e01b8152600481018d9052602481018b9052604481018c905290516001600160a01b039290921691630934a6df9160648082019260009290919082900301818387803b15801561281c57600080fd5b505af1158015612830573d6000803e3d6000fd5b5050505050505050505050505050565b601f602052600090815260409020805460018201546002909201549091906001600160a01b031683565b601a5460ff1681565b60135481565b6000908152601b60205260409020600601546001600160a01b031690565b6002546001600160a01b031681565b601d602052600090815260409020805460019091015482565b6000336001600160a01b0316600560009054906101000a90046001600160a01b03166001600160a01b031663d580b4186040518163ffffffff1660e01b815260040160206040518083038186803b15801561291957600080fd5b505afa15801561292d573d6000803e3d6000fd5b505050506040513d602081101561294357600080fd5b50516001600160a01b0316146129a0576040805162461bcd60e51b815260206004820181905260248201527f53656e646572206d75737420626520736c617368696e67206d616e6167657221604482015290519081900360640190fd5b60606129b36129ae84615468565b61548d565b905060008080805b8451811015612b735760606129e28683815181106129d557fe5b602002602001015161548d565b90506000612a03826000815181106129f657fe5b602002602001015161555e565b90506000612a17836001815181106129f657fe5b9050612a29858263ffffffff61480016565b6000838152601b60205260409020600601549095506001600160a01b031615612af1576000828152601b602090815260408083206006810154905482516314454c8560e31b815260048101919091526024810186905291516001600160a01b039091169263a22a6428926044808201939182900301818787803b158015612aaf57600080fd5b505af1158015612ac3573d6000803e3d6000fd5b505050506040513d6020811015612ad957600080fd5b50519050612aed828263ffffffff61481216565b9150505b6000828152601b6020526040902054612b10908263ffffffff61481216565b6000838152601b60205260409020558251612b3f9084906002908110612b3257fe5b60200260200101516155ac565b15612b6857612b5f612b528360016155f0565b879063ffffffff61480016565b60019097019695505b5050506001016129bb565b50600a54612b9790612b8b838563ffffffff61480016565b60000385600003614bb5565b95945050505050565b600754604080516331a9108f60e11b81526004810184905290516000926001600160a01b031691636352211e916024808301926020929190829003018186803b1580156114dd57600080fd5b600254600160a01b900460ff1615612c37576040805162461bcd60e51b8152602060048201526009602482015268125cc8131bd8dad95960ba1b604482015290519081900360640190fd5b612c4382826000614e66565b5050565b6002546001600160a01b03163314612c905760405162461bcd60e51b8152600401808060200182810382526026815260200180615aeb6026913960400191505060405180910390fd5b600780546001600160a01b039485166001600160a01b031991821617909155600680549385169382169390931790925560088054919093169116179055565b604080513360208083018290528284018790528351808403850181526060840194859052805190820120601854631b23d15760e21b909552606484018181526084850188905260a48501869052608060c48601908152875160e48701528751949673__Merkle________________________________96636c8f455c9694958b9592948b9490939092610104019185019080838360005b83811015612d7e578181015183820152602001612d66565b50505050905090810190601f168015612dab5780820380516001836020036101000a031916815260200191505b509550505050505060206040518083038186803b158015612dcb57600080fd5b505af4158015612ddf573d6000803e3d6000fd5b505050506040513d6020811015612df557600080fd5b5051612e3a576040805162461bcd60e51b815260206004820152600f60248201526e2bb937b7339030b1b190383937b7b360891b604482015290519081900360640190fd5b6001600160a01b0381166000908152601e6020526040812054612e6490869063ffffffff61481216565b9050612e708282615766565b6001600160a01b038083166000818152601e602090815260408083208a905560048054825163a9059cbb60e01b815291820195909552602481018790529051939094169363a9059cbb9360448083019491928390030190829087803b158015612ed857600080fd5b505af1158015612eec573d6000803e3d6000fd5b505050506040513d6020811015612f0257600080fd5b505161120457600080fd5b601a5460009060ff16612f60576040805162461bcd60e51b815260206004820152601660248201527511195b1959d85d1a5bdb881a5cc8191a5cd8589b195960521b604482015290519081900360640190fd5b6000848152601b60205260409020600601546001600160a01b03163314612fc9576040805162461bcd60e51b8152602060048201526018602482015277496e76616c696420636f6e7472616374206164647265737360401b604482015290519081900360640190fd5b60048054604080516323b872dd60e01b81526001600160a01b038681169482019490945230602482015260448101879052905192909116916323b872dd916064808201926020929091908290030181600087803b15801561302957600080fd5b505af115801561303d573d6000803e3d6000fd5b505050506040513d602081101561305357600080fd5b5051949350505050565b600090565b600b5481565b613070613123565b61307957600080fd5b600080546040516001600160a01b03909116907f8be0079c531659141344cd1fd0a4f28419497f9722a3daafe3b4186f6b6457e0908390a3600080546001600160a01b0319169055565b600a5481565b60195481565b601e6020526000908152604090205481565b6005546001600160a01b031681565b600c5481565b600a546000908152601d602052604090206001015490565b60125481565b6000546001600160a01b031690565b6000546001600160a01b0316331490565b600a5490565b613142613123565b61314b57600080fd5b61315781600a54614bd7565b50565b600754604080516331a9108f60e11b8152600481018490529051839233926001600160a01b0390911691636352211e91602480820192602092909190829003018186803b1580156131aa57600080fd5b505afa1580156131be573d6000803e3d6000fd5b505050506040513d60208110156131d457600080fd5b50516001600160a01b0316146131e957600080fd5b6000828152601b6020526040902060018101546006909101546001600160a01b0316801561326657613263816001600160a01b03166332ba2e536040518163ffffffff1660e01b8152600401602060405180830381600087803b15801561324f57600080fd5b505af115801561257c573d6000803e3d6000fd5b91505b601554613279908363ffffffff61480016565b6015556000848152601b6020908152604080832060010183905560048054825163a9059cbb60e01b815233928101929092526024820187905291516001600160a01b039092169363a9059cbb9360448084019491939192918390030190829087803b1580156132e757600080fd5b505af11580156132fb573d6000803e3d6000fd5b505050506040513d602081101561331157600080fd5b505161335a576040805162461bcd60e51b8152602060048201526013602482015272496e737566666963656e74207265776172647360681b604482015290519081900360640190fd5b60065460155460408051635b42d93560e11b815260048101889052602481018690526044810192909252516001600160a01b039092169163b685b26a9160648082019260009290919082900301818387803b1580156133b857600080fd5b505af11580156133cc573d6000803e3d6000fd5b5050505050505050565b6003546001600160a01b031681565b60215481565b6133f3613123565b6133fc57600080fd5b6006546017546040805163a3b1d8cb60e01b8152600481018590526024810192909252516001600160a01b039092169163a3b1d8cb9160448082019260009290919082900301818387803b15801561345357600080fd5b505af1158015613467573d6000803e3d6000fd5b5050505060648111156134ab576040805162461bcd60e51b8152602060048201526007602482015266746f6f2062696760c81b604482015290519081900360640190fd5b601755565b6000828152601b60205260409020600601546001600160a01b03163314613519576040805162461bcd60e51b8152602060048201526018602482015277496e76616c696420636f6e7472616374206164647265737360401b604482015290519081900360640190fd5b600a546000908152601d602052604090208054909101905550565b61353c613123565b61354557600080fd5b6000811161359a576040805162461bcd60e51b815260206004820181905260248201527f426c6f636b7320696e74657276616c206d757374206265206e6f6e2d7a65726f604482015290519081900360640190fd5b600f55565b600a546000908152601d602052604090205490565b6002546001600160a01b031633146135fd5760405162461bcd60e51b8152600401808060200182810382526026815260200180615aeb6026913960400191505060405180910390fd5b6002805460ff60a01b19169055565b60095490565b6002546001600160a01b0316331461365b5760405162461bcd60e51b8152600401808060200182810382526026815260200180615aeb6026913960400191505060405180910390fd5b600480546040805163a9059cbb60e01b81526001600160a01b0386811694820194909452602481018590529051929091169163a9059cbb916044808201926020929091908290030181600087803b1580156136b557600080fd5b505af11580156136c9573d6000803e3d6000fd5b505050506040513d60208110156136df57600080fd5b5051612c43576040805162461bcd60e51b815260206004820152600c60248201526b111c985a5b8819985a5b195960a21b604482015290519081900360640190fd5b613729613123565b61373257600080fd5b600d91909155600e55565b6000336001600160a01b0316600560009054906101000a90046001600160a01b03166001600160a01b031663d580b4186040518163ffffffff1660e01b815260040160206040518083038186803b15801561379757600080fd5b505afa1580156137ab573d6000803e3d6000fd5b505050506040513d60208110156137c157600080fd5b50516001600160a01b031614806137f157506000848152601b60205260409020600601546001600160a01b031633145b61383d576040805162461bcd60e51b8152602060048201526018602482015277496e76616c696420636f6e7472616374206164647265737360401b604482015290519081900360640190fd5b600480546040805163a9059cbb60e01b81526001600160a01b0386811694820194909452602481018790529051929091169163a9059cbb916044808201926020929091908290030181600087803b15801561302957600080fd5b6008546001600160a01b031681565b600254600160a01b900460ff16156138f1576040805162461bcd60e51b8152602060048201526009602482015268125cc8131bd8dad95960ba1b604482015290519081900360640190fd5b6000858152601f6020526040902060028101546001600160a01b03163381148061392257508661392033611487565b145b61395d5760405162461bcd60e51b8152600401808060200182810382526024815260200180615ac76024913960400191505060405180910390fd5b600a54601654600b5461397790829063ffffffff61480016565b600185015461398d90849063ffffffff61481216565b8161399457fe5b0610156139e8576040805162461bcd60e51b815260206004820181905260248201527f4e6f7420616c6c6f776564206265666f72652061756374696f6e506572696f64604482015290519081900360640190fd5b6000888152601b6020526040902080548454600690920154909182916001600160a01b03168015613a8b57613a88816001600160a01b0316633a09bf446040518163ffffffff1660e01b815260040160206040518083038186803b158015613a4f57600080fd5b505afa158015613a63573d6000803e3d6000fd5b505050506040513d6020811015613a7957600080fd5b5051849063ffffffff61480016565b92505b818310158015613aaa575060008c8152601b6020526040902060030154155b15613bf957600480546040805163a9059cbb60e01b81526001600160a01b038a811694820194909452602481018690529051929091169163a9059cbb916044808201926020929091908290030181600087803b158015613b0957600080fd5b505af1158015613b1d573d6000803e3d6000fd5b505050506040513d6020811015613b3357600080fd5b5051613b7a576040805162461bcd60e51b8152602060048201526011602482015270109a59081c995d1d5c9b8819985a5b1959607a1b604482015290519081900360640190fd5b600187018590556006546040805163e12ab1af60e01b8152600481018f9052602481018f90526044810187905290516001600160a01b039092169163e12ab1af9160648082019260009290919082900301818387803b158015613bdc57600080fd5b505af1158015613bf0573d6000803e3d6000fd5b50505050613cda565b613c05868c6000614e66565b613c0f8c86614bd7565b6000613c5387848d8d8d8080601f01602080910402602001604051908101604052809392919081815260200183838082843760009201919091525061504392505050565b9050600660009054906101000a90046001600160a01b03166001600160a01b031663e12ab1af828f866040518463ffffffff1660e01b8152600401808481526020018381526020018281526020019350505050600060405180830381600087803b158015613cc057600080fd5b505af1158015613cd4573d6000803e3d6000fd5b50505050505b505060008555505050600290910180546001600160a01b0319169055505050505050565b613d06613123565b613d0f57600080fd5b60008111613d1c57600080fd5b600654600c5460408051632dbe9d3160e21b8152600481018590526024810192909252516001600160a01b039092169163b6fa74c49160448082019260009290919082900301818387803b158015613d7357600080fd5b505af1158015613d87573d6000803e3d6000fd5b505050600c9190915550565b60155481565b600254600160a01b900460ff1681565b60008151604014613df2576040805162461bcd60e51b815260206004820152600e60248201526d496e76616c6964207075626b657960901b604482015290519081900360640190fd5b50805160209091012090565b602080526000908152604090205481565b600754604080516331a9108f60e11b8152600481018490529051839233926001600160a01b0390911691636352211e91602480820192602092909190829003018186803b158015613e5f57600080fd5b505afa158015613e73573d6000803e3d6000fd5b505050506040513d6020811015613e8957600080fd5b50516001600160a01b031614613e9e57600080fd5b6000828152601b60205260409020600301548015801590613ed45750600a54600954613ed190839063ffffffff61480016565b11155b8015613f07575060036000848152601b6020526040902060060154600160a01b900460ff166003811115613f0457fe5b14155b613f1057600080fd5b6000838152601b6020526040812054601254909190613f35908363ffffffff61481216565b601281905560075460408051630852cd8d60e31b81526004810189905290519293506001600160a01b03909116916342966c689160248082019260009290919082900301818387803b158015613f8a57600080fd5b505af1158015613f9e573d6000803e3d6000fd5b5050506000868152601b6020818152604080842060058101546001600160a01b039081168652601c845282862060001990558b8652938352600601805460ff60a01b1916600360a01b17905560048054825163a9059cbb60e01b8152339281019290925260248201899052915191909316945063a9059cbb936044808501948390030190829087803b15801561403357600080fd5b505af1158015614047573d6000803e3d6000fd5b505050506040513d602081101561405d57600080fd5b50516140a8576040805162461bcd60e51b8152602060048201526015602482015274151c985b9cd9995c881cdd185ad94819985a5b1959605a1b604482015290519081900360640190fd5b6006546040805163ae2e26b160e01b815233600482015260248101889052604481018590526064810184905290516001600160a01b039092169163ae2e26b19160848082019260009290919082900301818387803b15801561183457600080fd5b614111613123565b61411a57600080fd5b600880546001600160a01b0319166001600160a01b0392909216919091179055565b614144613123565b61414d57600080fd5b6000811161415a57600080fd5b600654600b5460408051635071805360e11b8152600481018590526024810192909252516001600160a01b039092169163a0e300a69160448082019260009290919082900301818387803b1580156141b157600080fd5b505af11580156141c5573d6000803e3d6000fd5b505050600b8290555060098190556141e481600463ffffffff6147c816565b6016819055600a546141fb9163ffffffff61480016565b60195550565b614209613123565b61421257600080fd5b6001600160a01b03811661422557600080fd5b6003546040516001600160a01b038084169216907f211c9015fc81c0dbd45bd99f0f29fc1c143bfd53442d5ffd722bbbef7a887fe990600090a3600380546001600160a01b0319166001600160a01b0392909216919091179055565b6000908152601b602052604090205490565b6006546001600160a01b031681565b6002546001600160a01b031633146142eb5760405162461bcd60e51b8152600401808060200182810382526026815260200180615aeb6026913960400191505060405180910390fd5b601a805460ff1916911515919091179055565b614306613123565b61430f57600080fd5b613157816157e5565b600a5461432b908263ffffffff61480016565b600a5550565b600754604080516331a9108f60e11b8152600481018590529051849233926001600160a01b0390911691636352211e91602480820192602092909190829003018186803b15801561438157600080fd5b505afa158015614395573d6000803e3d6000fd5b505050506040513d60208110156143ab57600080fd5b50516001600160a01b0316146143c057600080fd5b60006143cb83613da9565b90506001600160a01b038116158015906143fb57506001600160a01b0381166000908152601c6020526040902054155b61443d576040805162461bcd60e51b815260206004820152600e60248201526d24b73b30b634b21039b4b3b732b960911b604482015290519081900360640190fd5b600a5460105460008681526020805260409020546144609163ffffffff61480016565b8110156144b4576040805162461bcd60e51b815260206004820152601a60248201527f496e76616c696420636865636b706f696e74206e756d62657221000000000000604482015290519081900360640190fd5b6000858152601b6020908152604080832060050154600654915163b80fbce560e01b8152600481018a81526001600160a01b039283166024830181905288841660448401526080606484019081528b5160848501528b519197949095169563b80fbce5958d9589958c958f95909460a490920192918601918190849084905b8381101561454b578181015183820152602001614533565b50505050905090810190601f1680156145785780820380516001836020036101000a031916815260200191505b5095505050505050600060405180830381600087803b15801561459a57600080fd5b505af11580156145ae573d6000803e3d6000fd5b5050506001600160a01b039182166000908152601c60209081526040808320600019905595909316808252858220899055978152601b835284812060050180546001600160a01b0319169098179097555080529320929092555050565b614613613123565b61461c57600080fd5b306001600160a01b0316816001600160a01b0316638da5cb5b6040518163ffffffff1660e01b815260040160206040518083038186803b15801561465f57600080fd5b505afa158015614673573d6000803e3d6000fd5b505050506040513d602081101561468957600080fd5b50516001600160a01b0316146146d05760405162461bcd60e51b8152600401808060200182810382526026815260200180615b3b6026913960400191505060405180910390fd5b6000918252601b602052604090912060060180546001600160a01b0319166001600160a01b03909216919091179055565b614709613123565b61471257600080fd5b600a546141fb908263ffffffff61480016565b6002546001600160a01b0316331461476e5760405162461bcd60e51b8152600401808060200182810382526026815260200180615aeb6026913960400191505060405180910390fd5b6002805460ff60a01b1916600160a01b179055565b600e5481565b6004546001600160a01b031681565b6000826147a7575060006147c2565b828202828482816147b457fe5b04146147bf57600080fd5b90505b92915050565b60008082116147d657600080fd5b60008284816147e157fe5b04949350505050565b60008183106147f957816147bf565b5090919050565b6000828201838110156147bf57600080fd5b60008282111561482157600080fd5b50900390565b600a54600061483d82600163ffffffff61480016565b6000818152601d602052604080822080549583529082208054909501815560019081018054918601805490920190559381905590925550600a55565b60008080805b84518167ffffffffffffffff161015614af957600073__ECVerify______________________________6377d32e94886148c58967ffffffffffffffff87166041615853565b6040518363ffffffff1660e01b81526004018083815260200180602001828103825283818151815260200191508051906020019080838360005b838110156149175781810151838201526020016148ff565b50505050905090810190601f1680156149445780820380516001836020036101000a031916815260200191505b50935050505060206040518083038186803b15801561496257600080fd5b505af4158015614976573d6000803e3d6000fd5b505050506040513d602081101561498c57600080fd5b50516001600160a01b038082166000818152601c602052604090205492935090851614156149bb575050614af9565b6149c48161185f565b80156149e15750836001600160a01b0316826001600160a01b0316115b15614aef576000818152601b60205260408120600681015493955085939091906001600160a01b03168015614aa157806001600160a01b031663b37f25908d8f614a2a88614281565b6040518463ffffffff1660e01b8152600401808481526020018381526020018281526020019350505050602060405180830381600087803b158015614a6e57600080fd5b505af1158015614a82573d6000803e3d6000fd5b505050506040513d6020811015614a9857600080fd5b50519150614ad9565b82600001549150614ad3614ac28e6112428f8661479890919063ffffffff16565b60018501549063ffffffff61480016565b60018401555b614ae9888363ffffffff61480016565b97505050505b505060410161487f565b50614b18614b0561359f565b600c54611242908563ffffffff61479816565b601454909650614b2e908763ffffffff61480016565b601455614b606001614b5460036112426002614b4861359f565b9063ffffffff61479816565b9063ffffffff61480016565b821015614baa576040805162461bcd60e51b8152602060048201526013602482015272322f332b31206e6f6e2d6d616a6f726974792160681b604482015290519081900360640190fd5b509395945050505050565b6000928352601d60205260409092208054909101815560010180549091019055565b6000828152601b602052604081205490614bf084612ba0565b6000858152601b6020526040812060038101869055600181015460069091015492935090916001600160a01b03168015614ce8576000819050614c7b816001600160a01b03166332ba2e536040518163ffffffff1660e01b8152600401602060405180830381600087803b158015614c6757600080fd5b505af1158015613a63573d6000803e3d6000fd5b9250806001600160a01b031663753868e36040518163ffffffff1660e01b8152600401602060405180830381600087803b158015614cb857600080fd5b505af1158015614ccc573d6000803e3d6000fd5b505050506040513d6020811015614ce257600080fd5b50519350505b6000878152601b6020908152604080832060010183905560048054825163a9059cbb60e01b81526001600160a01b038a81169382019390935260248101889052925191169363a9059cbb93604480850194919392918390030190829087803b158015614d5357600080fd5b505af1158015614d67573d6000803e3d6000fd5b505050506040513d6020811015614d7d57600080fd5b5051614dd0576040805162461bcd60e51b815260206004820152601760248201527f52657761726473207472616e73666572206661696c6564000000000000000000604482015290519081900360640190fd5b614de286848701600003600019614bb5565b60065460408051635e04d48360e01b81526001600160a01b038781166004830152602482018b9052604482018a90526064820189905291519190921691635e04d48391608480830192600092919082900301818387803b158015614e4557600080fd5b505af1158015614e59573d6000803e3d6000fd5b5050505050505050505050565b600e54821015614ebd576040805162461bcd60e51b815260206004820152601760248201527f4e6f7420656e6f756768206865696d64616c6c20666565000000000000000000604482015290519081900360640190fd5b6004546001600160a01b03166323b872dd3330614ee0868663ffffffff61480016565b6040518463ffffffff1660e01b815260040180846001600160a01b03166001600160a01b03168152602001836001600160a01b03166001600160a01b031681526020018281526020019350505050602060405180830381600087803b158015614f4857600080fd5b505af1158015614f5c573d6000803e3d6000fd5b505050506040513d6020811015614f7257600080fd5b5051614fbb576040805162461bcd60e51b8152602060048201526013602482015272119959481d1c985b9cd9995c8819985a5b1959606a1b604482015290519081900360640190fd5b602154614fce908363ffffffff61480016565b6021556006546040805163a449d79560e01b81526001600160a01b038681166004830152602482018690529151919092169163a449d79591604480830192600092919082900301818387803b15801561502657600080fd5b505af115801561503a573d6000803e3d6000fd5b50505050505050565b60008061504f83613da9565b90506001600160a01b0381161580159061507f57506001600160a01b0381166000908152601c6020526040902054155b6150c1576040805162461bcd60e51b815260206004820152600e60248201526d24b73b30b634b21039b4b3b732b960911b604482015290519081900360640190fd5b600a546013546006546012546001600160a01b03909116906000906150ec908a63ffffffff61480016565b9050806012819055506040518061010001604052808a8152602001600081526020018581526020016000815260200160008152602001866001600160a01b031681526020018961513d5760006151cb565b6008546005546040805163d4ad267360e01b8152600481018990526001600160a01b03888116602483015292831660448201529051919092169163d4ad26739160648083019260209291908290030181600087803b15801561519e57600080fd5b505af11580156151b2573d6000803e3d6000fd5b505050506040513d60208110156151c857600080fd5b50515b6001600160a01b03168152602001600190526000848152601b60209081526040918290208351815590830151600182015590820151600282015560608201516003808301919091556080830151600483015560a08301516005830180546001600160a01b039283166001600160a01b03199182161790915560c08501516006850180549190931691161780825560e08501519260ff60a01b1990911690600160a01b90849081111561527957fe5b02179055505050600083815260208052604080822086905560075481516340c10f1960e01b81526001600160a01b038e8116600483015260248201889052925192909116926340c10f199260448084019382900301818387803b1580156152df57600080fd5b505af11580156152f3573d6000803e3d6000fd5b5050506001600160a01b0386166000908152601c602052604090208490555061531e848a6001614bb5565b83601f600085815260200190815260200160002060010181905550816001600160a01b03166333a8383c868986888e876040518763ffffffff1660e01b815260040180876001600160a01b03166001600160a01b0316815260200180602001868152602001858152602001848152602001838152602001828103825287818151815260200191508051906020019080838360005b838110156153ca5781810151838201526020016153b2565b50505050905090810190601f1680156153f75780820380516001836020036101000a031916815260200191505b50975050505050505050600060405180830381600087803b15801561541b57600080fd5b505af115801561542f573d6000803e3d6000fd5b5050505061544760018461480090919063ffffffff16565b601355509098975050505050505050565b6000818310156147f957816147bf565b615470615a8b565b506040805180820190915281518152602082810190820152919050565b6060615498826158d3565b6154a157600080fd5b60006154ac8361590d565b90506060816040519080825280602002602001820160405280156154ea57816020015b6154d7615a8b565b8152602001906001900390816154cf5790505b50905060006154fc8560200151615969565b60208601510190506000805b8481101561555357615519836159cc565b915060405180604001604052808381526020018481525084828151811061553c57fe5b602090810291909101015291810191600101615508565b509195945050505050565b80516000901580159061557357508151602110155b61557c57600080fd5b60008061558884615a65565b8151919350915060208210156155a45760208290036101000a90045b949350505050565b80516000906001146155bd57600080fd5b6020820151805160001a908115806155d55750608082145b156155e55760009250505061150c565b60019250505061150c565b6000828152601b602052604081206006015481906001600160a01b031615615696576000848152601b6020908152604080832060060154815163753868e360e01b815291516001600160a01b039091169363753868e393600480850194919392918390030190829087803b15801561566757600080fd5b505af115801561567b573d6000803e3d6000fd5b505050506040513d602081101561569157600080fd5b505190505b600a546156a9818563ffffffff61480016565b6000868152601b60205260408082206004808201949094556006808201805460ff60a01b1916600160a11b1790555460059091015482516381dc101b60e01b81529485018a9052602485018690526001600160a01b03908116604486015291519116926381dc101b92606480830193919282900301818387803b15801561572f57600080fd5b505af1158015615743573d6000803e3d6000fd5b5050506000868152601b6020526040902054612b9791508363ffffffff61480016565b602154615779908263ffffffff61481216565b6021556006546040805163122b648160e01b81526001600160a01b038581166004830152602482018590529151919092169163122b648191604480830192600092919082900301818387803b1580156157d157600080fd5b505af1158015612280573d6000803e3d6000fd5b6001600160a01b0381166157f857600080fd5b600080546040516001600160a01b03808516939216917f8be0079c531659141344cd1fd0a4f28419497f9722a3daafe3b4186f6b6457e091a3600080546001600160a01b0319166001600160a01b0392909216919091179055565b60608183018451101561586557600080fd5b606082158015615880576040519150602082016040526158ca565b6040519150601f8416801560200281840101858101878315602002848b0101015b818310156158b95780518352602092830192016158a1565b5050858452601f01601f1916604052505b50949350505050565b80516000906158e45750600061150c565b6020820151805160001a9060c08210156159035760009250505061150c565b5060019392505050565b805160009061591e5750600061150c565b600080905060006159328460200151615969565b602085015185519181019250015b8082101561596057615951826159cc565b60019093019290910190615940565b50909392505050565b8051600090811a608081101561598357600091505061150c565b60b881108061599e575060c0811080159061599e575060f881105b156159ad57600191505061150c565b60c08110156159c15760b51901905061150c565b60f51901905061150c565b80516000908190811a60808110156159e75760019150615a5e565b60b88110156159fc57607e1981019150615a5e565b60c0811015615a295760b78103600185019450806020036101000a85510460018201810193505050615a5e565b60f8811015615a3e5760be1981019150615a5e565b60f78103600185019450806020036101000a855104600182018101935050505b5092915050565b6000806000615a778460200151615969565b602085015194519481019594039392505050565b60405180604001604052806000815260200160008152509056fe56616c696461746f7220736574205468726573686f6c64206578636565646564214f6e6c7920626964646572206f722076616c696461746f722063616e20636f6e6669726d4f6e6c7920676f7665726e616e636520636f6e747261637420697320617574686f72697a6564756e6b6e6f776e2076616c696461746f72206f72206e6f2064656c65676174696f6e20656e61626c65644f776e6572206f6620636f6e7472616374206d757374206265207374616b654d616e61676572a265627a7a723158209c357d089d2e950423888532756f3b90ea1756b7a6f36fcc8d226132da01497f64736f6c634300050b0032",
  "source": "pragma solidity ^0.5.2;\n\nimport {StakeManager} from \"../staking/stakeManager/StakeManager.sol\";\n\n\ncontract StakeManagerTestable is StakeManager {\n    function advanceEpoch(uint256 delta) public {\n        currentEpoch = currentEpoch.add(delta);\n    }\n}\n",
  "sourcePath": "/Users/ohm.jirapon/playground/blockhain/pos/plasma-ploygon/contracts/contracts/test/StakeManagerTestable.sol",
  "compiler": {
    "name": "solc",
    "version": "0.5.11+commit.c082d0b4.Emscripten.clang"
  },
  "schemaVersion": "3.0.14",
  "updatedAt": "2022-06-14T12:01:15.175Z",
  "devdoc": {
    "methods": {
      "changeRootChain(address)": {
        "details": "Allows the current owner to change root chain address.",
        "params": {
          "newRootChain": "The address to new rootchain."
        }
      },
      "isOwner()": {
        "return": "true if `msg.sender` is the owner of the contract."
      },
      "owner()": {
        "return": "the address of the owner."
      },
      "renounceOwnership()": {
        "details": "Allows the current owner to relinquish control of the contract. It will not be possible to call the functions with the `onlyOwner` modifier anymore."
      },
      "transferOwnership(address)": {
        "details": "Allows the current owner to transfer control of the contract to a newOwner.",
        "params": {
          "newOwner": "The address to transfer ownership to."
        }
      }
    }
  },
  "userdoc": {
    "methods": {
      "renounceOwnership()": {
        "notice": "Renouncing ownership will leave the contract without an owner, thereby removing any functionality that is only available to the owner."
      }
    }
  }
}