{
  "contractName": "StakeManagerExtension",
  "abi": [
    {
      "inputs": [],
      "payable": false,
      "stateMutability": "nonpayable",
      "type": "constructor"
    },
    {
      "anonymous": false,
      "inputs": [
        {
          "indexed": true,
          "internalType": "address",
          "name": "previousOwner",
          "type": "address"
        },
        {
          "indexed": true,
          "internalType": "address",
          "name": "newOwner",
          "type": "address"
        }
      ],
      "name": "OwnershipTransferred",
      "type": "event"
    },
    {
      "anonymous": false,
      "inputs": [
        {
          "indexed": true,
          "internalType": "address",
          "name": "previousRootChain",
          "type": "address"
        },
        {
          "indexed": true,
          "internalType": "address",
          "name": "newRootChain",
          "type": "address"
        }
      ],
      "name": "RootChainChanged",
      "type": "event"
    },
    {
      "constant": true,
      "inputs": [],
      "name": "CHECKPOINT_REWARD",
      "outputs": [
        {
          "internalType": "uint256",
          "name": "",
          "type": "uint256"
        }
      ],
      "payable": false,
      "stateMutability": "view",
      "type": "function"
    },
    {
      "constant": true,
      "inputs": [],
      "name": "NFTContract",
      "outputs": [
        {
          "internalType": "contract StakingNFT",
          "name": "",
          "type": "address"
        }
      ],
      "payable": false,
      "stateMutability": "view",
      "type": "function"
    },
    {
      "constant": true,
      "inputs": [],
      "name": "NFTCounter",
      "outputs": [
        {
          "internalType": "uint256",
          "name": "",
          "type": "uint256"
        }
      ],
      "payable": false,
      "stateMutability": "view",
      "type": "function"
    },
    {
      "constant": true,
      "inputs": [],
      "name": "WITHDRAWAL_DELAY",
      "outputs": [
        {
          "internalType": "uint256",
          "name": "",
          "type": "uint256"
        }
      ],
      "payable": false,
      "stateMutability": "view",
      "type": "function"
    },
    {
      "constant": true,
      "inputs": [],
      "name": "accountStateRoot",
      "outputs": [
        {
          "internalType": "bytes32",
          "name": "",
          "type": "bytes32"
        }
      ],
      "payable": false,
      "stateMutability": "view",
      "type": "function"
    },
    {
      "constant": true,
      "inputs": [],
      "name": "auctionPeriod",
      "outputs": [
        {
          "internalType": "uint256",
          "name": "",
          "type": "uint256"
        }
      ],
      "payable": false,
      "stateMutability": "view",
      "type": "function"
    },
    {
      "constant": false,
      "inputs": [
        {
          "internalType": "address",
          "name": "newRootChain",
          "type": "address"
        }
      ],
      "name": "changeRootChain",
      "outputs": [],
      "payable": false,
      "stateMutability": "nonpayable",
      "type": "function"
    },
    {
      "constant": true,
      "inputs": [],
      "name": "checkPointBlockInterval",
      "outputs": [
        {
          "internalType": "uint256",
          "name": "",
          "type": "uint256"
        }
      ],
      "payable": false,
      "stateMutability": "view",
      "type": "function"
    },
    {
      "constant": true,
      "inputs": [],
      "name": "checkpointRewardDelta",
      "outputs": [
        {
          "internalType": "uint256",
          "name": "",
          "type": "uint256"
        }
      ],
      "payable": false,
      "stateMutability": "view",
      "type": "function"
    },
    {
      "constant": true,
      "inputs": [],
      "name": "currentEpoch",
      "outputs": [
        {
          "internalType": "uint256",
          "name": "",
          "type": "uint256"
        }
      ],
      "payable": false,
      "stateMutability": "view",
      "type": "function"
    },
    {
      "constant": true,
      "inputs": [],
      "name": "delegationEnabled",
      "outputs": [
        {
          "internalType": "bool",
          "name": "",
          "type": "bool"
        }
      ],
      "payable": false,
      "stateMutability": "view",
      "type": "function"
    },
    {
      "constant": true,
      "inputs": [],
      "name": "dynasty",
      "outputs": [
        {
          "internalType": "uint256",
          "name": "",
          "type": "uint256"
        }
      ],
      "payable": false,
      "stateMutability": "view",
      "type": "function"
    },
    {
      "constant": true,
      "inputs": [],
      "name": "eventsHub",
      "outputs": [
        {
          "internalType": "address",
          "name": "",
          "type": "address"
        }
      ],
      "payable": false,
      "stateMutability": "view",
      "type": "function"
    },
    {
      "constant": true,
      "inputs": [],
      "name": "extensionCode",
      "outputs": [
        {
          "internalType": "address",
          "name": "",
          "type": "address"
        }
      ],
      "payable": false,
      "stateMutability": "view",
      "type": "function"
    },
    {
      "constant": true,
      "inputs": [],
      "name": "governance",
      "outputs": [
        {
          "internalType": "contract IGovernance",
          "name": "",
          "type": "address"
        }
      ],
      "payable": false,
      "stateMutability": "view",
      "type": "function"
    },
    {
      "constant": true,
      "inputs": [],
      "name": "isOwner",
      "outputs": [
        {
          "internalType": "bool",
          "name": "",
          "type": "bool"
        }
      ],
      "payable": false,
      "stateMutability": "view",
      "type": "function"
    },
    {
      "constant": true,
      "inputs": [
        {
          "internalType": "uint256",
          "name": "",
          "type": "uint256"
        }
      ],
      "name": "latestSignerUpdateEpoch",
      "outputs": [
        {
          "internalType": "uint256",
          "name": "",
          "type": "uint256"
        }
      ],
      "payable": false,
      "stateMutability": "view",
      "type": "function"
    },
    {
      "constant": false,
      "inputs": [],
      "name": "lock",
      "outputs": [],
      "payable": false,
      "stateMutability": "nonpayable",
      "type": "function"
    },
    {
      "constant": true,
      "inputs": [],
      "name": "locked",
      "outputs": [
        {
          "internalType": "bool",
          "name": "",
          "type": "bool"
        }
      ],
      "payable": false,
      "stateMutability": "view",
      "type": "function"
    },
    {
      "constant": true,
      "inputs": [],
      "name": "logger",
      "outputs": [
        {
          "internalType": "contract StakingInfo",
          "name": "",
          "type": "address"
        }
      ],
      "payable": false,
      "stateMutability": "view",
      "type": "function"
    },
    {
      "constant": true,
      "inputs": [],
      "name": "maxRewardedCheckpoints",
      "outputs": [
        {
          "internalType": "uint256",
          "name": "",
          "type": "uint256"
        }
      ],
      "payable": false,
      "stateMutability": "view",
      "type": "function"
    },
    {
      "constant": true,
      "inputs": [],
      "name": "minDeposit",
      "outputs": [
        {
          "internalType": "uint256",
          "name": "",
          "type": "uint256"
        }
      ],
      "payable": false,
      "stateMutability": "view",
      "type": "function"
    },
    {
      "constant": true,
      "inputs": [],
      "name": "minHeimdallFee",
      "outputs": [
        {
          "internalType": "uint256",
          "name": "",
          "type": "uint256"
        }
      ],
      "payable": false,
      "stateMutability": "view",
      "type": "function"
    },
    {
      "constant": true,
      "inputs": [],
      "name": "owner",
      "outputs": [
        {
          "internalType": "address",
          "name": "",
          "type": "address"
        }
      ],
      "payable": false,
      "stateMutability": "view",
      "type": "function"
    },
    {
      "constant": true,
      "inputs": [],
      "name": "prevBlockInterval",
      "outputs": [
        {
          "internalType": "uint256",
          "name": "",
          "type": "uint256"
        }
      ],
      "payable": false,
      "stateMutability": "view",
      "type": "function"
    },
    {
      "constant": true,
      "inputs": [],
      "name": "proposerBonus",
      "outputs": [
        {
          "internalType": "uint256",
          "name": "",
          "type": "uint256"
        }
      ],
      "payable": false,
      "stateMutability": "view",
      "type": "function"
    },
    {
      "constant": true,
      "inputs": [],
      "name": "registry",
      "outputs": [
        {
          "internalType": "address",
          "name": "",
          "type": "address"
        }
      ],
      "payable": false,
      "stateMutability": "view",
      "type": "function"
    },
    {
      "constant": false,
      "inputs": [],
      "name": "renounceOwnership",
      "outputs": [],
      "payable": false,
      "stateMutability": "nonpayable",
      "type": "function"
    },
    {
      "constant": true,
      "inputs": [],
      "name": "replacementCoolDown",
      "outputs": [
        {
          "internalType": "uint256",
          "name": "",
          "type": "uint256"
        }
      ],
      "payable": false,
      "stateMutability": "view",
      "type": "function"
    },
    {
      "constant": true,
      "inputs": [],
      "name": "rewardDecreasePerCheckpoint",
      "outputs": [
        {
          "internalType": "uint256",
          "name": "",
          "type": "uint256"
        }
      ],
      "payable": false,
      "stateMutability": "view",
      "type": "function"
    },
    {
      "constant": true,
      "inputs": [],
      "name": "rewardPerStake",
      "outputs": [
        {
          "internalType": "uint256",
          "name": "",
          "type": "uint256"
        }
      ],
      "payable": false,
      "stateMutability": "view",
      "type": "function"
    },
    {
      "constant": true,
      "inputs": [],
      "name": "rootChain",
      "outputs": [
        {
          "internalType": "address",
          "name": "",
          "type": "address"
        }
      ],
      "payable": false,
      "stateMutability": "view",
      "type": "function"
    },
    {
      "constant": true,
      "inputs": [
        {
          "internalType": "address",
          "name": "",
          "type": "address"
        }
      ],
      "name": "signerToValidator",
      "outputs": [
        {
          "internalType": "uint256",
          "name": "",
          "type": "uint256"
        }
      ],
      "payable": false,
      "stateMutability": "view",
      "type": "function"
    },
    {
      "constant": true,
      "inputs": [],
      "name": "signerUpdateLimit",
      "outputs": [
        {
          "internalType": "uint256",
          "name": "",
          "type": "uint256"
        }
      ],
      "payable": false,
      "stateMutability": "view",
      "type": "function"
    },
    {
      "constant": true,
      "inputs": [
        {
          "internalType": "uint256",
          "name": "",
          "type": "uint256"
        }
      ],
      "name": "signers",
      "outputs": [
        {
          "internalType": "address",
          "name": "",
          "type": "address"
        }
      ],
      "payable": false,
      "stateMutability": "view",
      "type": "function"
    },
    {
      "constant": true,
      "inputs": [],
      "name": "token",
      "outputs": [
        {
          "internalType": "contract IERC20",
          "name": "",
          "type": "address"
        }
      ],
      "payable": false,
      "stateMutability": "view",
      "type": "function"
    },
    {
      "constant": true,
      "inputs": [],
      "name": "totalHeimdallFee",
      "outputs": [
        {
          "internalType": "uint256",
          "name": "",
          "type": "uint256"
        }
      ],
      "payable": false,
      "stateMutability": "view",
      "type": "function"
    },
    {
      "constant": true,
      "inputs": [],
      "name": "totalRewards",
      "outputs": [
        {
          "internalType": "uint256",
          "name": "",
          "type": "uint256"
        }
      ],
      "payable": false,
      "stateMutability": "view",
      "type": "function"
    },
    {
      "constant": true,
      "inputs": [],
      "name": "totalRewardsLiquidated",
      "outputs": [
        {
          "internalType": "uint256",
          "name": "",
          "type": "uint256"
        }
      ],
      "payable": false,
      "stateMutability": "view",
      "type": "function"
    },
    {
      "constant": true,
      "inputs": [],
      "name": "totalStaked",
      "outputs": [
        {
          "internalType": "uint256",
          "name": "",
          "type": "uint256"
        }
      ],
      "payable": false,
      "stateMutability": "view",
      "type": "function"
    },
    {
      "constant": false,
      "inputs": [
        {
          "internalType": "address",
          "name": "newOwner",
          "type": "address"
        }
      ],
      "name": "transferOwnership",
      "outputs": [],
      "payable": false,
      "stateMutability": "nonpayable",
      "type": "function"
    },
    {
      "constant": false,
      "inputs": [],
      "name": "unlock",
      "outputs": [],
      "payable": false,
      "stateMutability": "nonpayable",
      "type": "function"
    },
    {
      "constant": true,
      "inputs": [
        {
          "internalType": "address",
          "name": "",
          "type": "address"
        }
      ],
      "name": "userFeeExit",
      "outputs": [
        {
          "internalType": "uint256",
          "name": "",
          "type": "uint256"
        }
      ],
      "payable": false,
      "stateMutability": "view",
      "type": "function"
    },
    {
      "constant": true,
      "inputs": [
        {
          "internalType": "uint256",
          "name": "",
          "type": "uint256"
        }
      ],
      "name": "validatorAuction",
      "outputs": [
        {
          "internalType": "uint256",
          "name": "amount",
          "type": "uint256"
        },
        {
          "internalType": "uint256",
          "name": "startEpoch",
          "type": "uint256"
        },
        {
          "internalType": "address",
          "name": "user",
          "type": "address"
        },
        {
          "internalType": "bool",
          "name": "acceptDelegation",
          "type": "bool"
        },
        {
          "internalType": "bytes",
          "name": "signerPubkey",
          "type": "bytes"
        }
      ],
      "payable": false,
      "stateMutability": "view",
      "type": "function"
    },
    {
      "constant": true,
      "inputs": [],
      "name": "validatorShareFactory",
      "outputs": [
        {
          "internalType": "contract ValidatorShareFactory",
          "name": "",
          "type": "address"
        }
      ],
      "payable": false,
      "stateMutability": "view",
      "type": "function"
    },
    {
      "constant": true,
      "inputs": [],
      "name": "validatorState",
      "outputs": [
        {
          "internalType": "uint256",
          "name": "amount",
          "type": "uint256"
        },
        {
          "internalType": "uint256",
          "name": "stakerCount",
          "type": "uint256"
        }
      ],
      "payable": false,
      "stateMutability": "view",
      "type": "function"
    },
    {
      "constant": true,
      "inputs": [
        {
          "internalType": "uint256",
          "name": "",
          "type": "uint256"
        }
      ],
      "name": "validatorStateChanges",
      "outputs": [
        {
          "internalType": "int256",
          "name": "amount",
          "type": "int256"
        },
        {
          "internalType": "int256",
          "name": "stakerCount",
          "type": "int256"
        }
      ],
      "payable": false,
      "stateMutability": "view",
      "type": "function"
    },
    {
      "constant": true,
      "inputs": [],
      "name": "validatorThreshold",
      "outputs": [
        {
          "internalType": "uint256",
          "name": "",
          "type": "uint256"
        }
      ],
      "payable": false,
      "stateMutability": "view",
      "type": "function"
    },
    {
      "constant": true,
      "inputs": [
        {
          "internalType": "uint256",
          "name": "",
          "type": "uint256"
        }
      ],
      "name": "validators",
      "outputs": [
        {
          "internalType": "uint256",
          "name": "amount",
          "type": "uint256"
        },
        {
          "internalType": "uint256",
          "name": "reward",
          "type": "uint256"
        },
        {
          "internalType": "uint256",
          "name": "activationEpoch",
          "type": "uint256"
        },
        {
          "internalType": "uint256",
          "name": "deactivationEpoch",
          "type": "uint256"
        },
        {
          "internalType": "uint256",
          "name": "jailTime",
          "type": "uint256"
        },
        {
          "internalType": "address",
          "name": "signer",
          "type": "address"
        },
        {
          "internalType": "address",
          "name": "contractAddress",
          "type": "address"
        },
        {
          "internalType": "enum StakeManagerStorage.Status",
          "name": "status",
          "type": "uint8"
        },
        {
          "internalType": "uint256",
          "name": "commissionRate",
          "type": "uint256"
        },
        {
          "internalType": "uint256",
          "name": "lastCommissionUpdate",
          "type": "uint256"
        },
        {
          "internalType": "uint256",
          "name": "delegatorsReward",
          "type": "uint256"
        },
        {
          "internalType": "uint256",
          "name": "delegatedAmount",
          "type": "uint256"
        },
        {
          "internalType": "uint256",
          "name": "initialRewardPerStake",
          "type": "uint256"
        }
      ],
      "payable": false,
      "stateMutability": "view",
      "type": "function"
    },
    {
      "constant": false,
      "inputs": [
        {
          "internalType": "uint256",
          "name": "validatorId",
          "type": "uint256"
        },
        {
          "internalType": "uint256",
          "name": "amount",
          "type": "uint256"
        },
        {
          "internalType": "bool",
          "name": "_acceptDelegation",
          "type": "bool"
        },
        {
          "internalType": "bytes",
          "name": "_signerPubkey",
          "type": "bytes"
        }
      ],
      "name": "startAuction",
      "outputs": [],
      "payable": false,
      "stateMutability": "nonpayable",
      "type": "function"
    },
    {
      "constant": false,
      "inputs": [
        {
          "internalType": "uint256",
          "name": "validatorId",
          "type": "uint256"
        },
        {
          "internalType": "uint256",
          "name": "heimdallFee",
          "type": "uint256"
        },
        {
          "internalType": "contract IStakeManager",
          "name": "stakeManager",
          "type": "address"
        }
      ],
      "name": "confirmAuctionBid",
      "outputs": [],
      "payable": false,
      "stateMutability": "nonpayable",
      "type": "function"
    },
    {
      "constant": false,
      "inputs": [
        {
          "internalType": "uint256",
          "name": "validatorIdFrom",
          "type": "uint256"
        },
        {
          "internalType": "uint256",
          "name": "validatorIdTo",
          "type": "uint256"
        }
      ],
      "name": "migrateValidatorsData",
      "outputs": [],
      "payable": false,
      "stateMutability": "nonpayable",
      "type": "function"
    },
    {
      "constant": false,
      "inputs": [
        {
          "internalType": "uint256",
          "name": "_rewardDecreasePerCheckpoint",
          "type": "uint256"
        },
        {
          "internalType": "uint256",
          "name": "_maxRewardedCheckpoints",
          "type": "uint256"
        },
        {
          "internalType": "uint256",
          "name": "_checkpointRewardDelta",
          "type": "uint256"
        }
      ],
      "name": "updateCheckpointRewardParams",
      "outputs": [],
      "payable": false,
      "stateMutability": "nonpayable",
      "type": "function"
    },
    {
      "constant": false,
      "inputs": [
        {
          "internalType": "uint256",
          "name": "validatorId",
          "type": "uint256"
        },
        {
          "internalType": "uint256",
          "name": "newCommissionRate",
          "type": "uint256"
        }
      ],
      "name": "updateCommissionRate",
      "outputs": [],
      "payable": false,
      "stateMutability": "nonpayable",
      "type": "function"
    }
  ],
  "bytecode": "0x60806040526023805460ff1916905534801561001a57600080fd5b5060008054610100600160a81b0319168155600180546001600160a01b0319163317908190556040516001600160a01b039190911691907f8be0079c531659141344cd1fd0a4f28419497f9722a3daafe3b4186f6b6457e0908290a3611e19806100856000396000f3fe608060405234801561001057600080fd5b50600436106103425760003560e01c80637c7eaf1a116101b8578063ac35ab9211610104578063e8afa8e8116100a2578063f83d08ba1161007c578063f83d08ba14610859578063f8a3176c14610861578063fba58f3414610869578063fc0c546a1461087157610342565b8063e8afa8e814610805578063f24ccbfe1461082b578063f2fde38b1461083357610342565b8063d7f5549d116100de578063d7f5549d146107b5578063dcd962b2146107d2578063e568959a146107f5578063e59ee0c6146107fd57610342565b8063ac35ab9214610773578063cd6b8388146107a5578063cf309012146107ad57610342565b806391f1a3a5116101715780639ddbbf851161014b5780639ddbbf85146106bb578063a6854877146106de578063a69df4b514610763578063a8dc889b1461076b57610342565b806391f1a3a5146106a3578063987ab9db146106ab5780639a8a6243146106b357610342565b80637c7eaf1a146106735780637d6697521461067b578063817b1cd214610683578063883b455f1461068b5780638da5cb5b146106935780638f32d59b1461069b57610342565b8063451b59851161029257806360c8d12211610230578063766718081161020a578063766718081461063557806377939d101461063d57806378f84a44146106455780637b1039991461066b57610342565b806360c8d122146105fa5780637060054d14610625578063715018a61461062d57610342565b80635325e1441161026c5780635325e1441461050757806354b8c601146105ce5780635508d8e1146105ea5780635aa6e675146105f257610342565b8063451b5985146104ef5780634e3c83f1146104f75780634fd101d7146104ff57610342565b806325316411116102ff57806334274586116102d9578063342745861461040057806335aa2e44146104085780633862da0b146104c157806341b3d185146104e757610342565b806325316411146103ba57806325726df2146103c257806331c2273b146103f857610342565b80630cccfc58146103475780630e15561a146103615780630ebb172a1461036957806317c2b910146103715780631ae4818f146103795780632079fb9a1461039d575b600080fd5b61034f610879565b60408051918252519081900360200190f35b61034f61087f565b61034f610885565b61034f61088b565b610381610891565b604080516001600160a01b039092168252519081900360200190f35b610381600480360360208110156103b357600080fd5b50356108a0565b61034f6108c7565b6103df600480360360208110156103d857600080fd5b50356108cd565b6040805192835260208301919091528051918290030190f35b6103816108e6565b61034f6108f5565b6104256004803603602081101561041e57600080fd5b50356108fb565b604051808e81526020018d81526020018c81526020018b81526020018a8152602001896001600160a01b03166001600160a01b03168152602001886001600160a01b03166001600160a01b0316815260200187600381111561048357fe5b60ff1681526020018681526020018581526020018481526020018381526020018281526020019d505050505050505050505050505060405180910390f35b61034f600480360360208110156104d757600080fd5b50356001600160a01b031661096c565b61034f61097e565b61034f610984565b61034f61098a565b61034f610990565b6105246004803603602081101561051d57600080fd5b5035610996565b60405180868152602001858152602001846001600160a01b03166001600160a01b031681526020018315151515815260200180602001828103825283818151815260200191508051906020019080838360005b8381101561058f578181015183820152602001610577565b50505050905090810190601f1680156105bc5780820380516001836020036101000a031916815260200191505b50965050505050505060405180910390f35b6105d6610a5c565b604080519115158252519081900360200190f35b61034f610a65565b610381610a6b565b6106236004803603606081101561061057600080fd5b5080359060208101359060400135610a7f565b005b61034f610b33565b610623610b39565b61034f610b94565b61034f610b9a565b61034f6004803603602081101561065b57600080fd5b50356001600160a01b0316610ba0565b610381610bb2565b61034f610bc1565b61034f610bc7565b61034f610bcd565b610381610bd3565b610381610be7565b6105d6610bf7565b61034f610c08565b610381610c0e565b61034f610c1d565b610623600480360360408110156106d157600080fd5b5080359060200135610c23565b610623600480360360808110156106f457600080fd5b81359160208101359160408201351515919081019060808101606082013564010000000081111561072457600080fd5b82018360208201111561073657600080fd5b8035906020019184600183028401116401000000008311171561075857600080fd5b509092509050610e33565b610623611347565b61034f611359565b6106236004803603606081101561078957600080fd5b50803590602081013590604001356001600160a01b031661135f565b61034f61185a565b6105d6611860565b61034f600480360360208110156107cb57600080fd5b5035611869565b610623600480360360408110156107e857600080fd5b508035906020013561187b565b61034f6119df565b6103df6119e5565b6106236004803603602081101561081b57600080fd5b50356001600160a01b03166119ee565b610381611a6e565b6106236004803603602081101561084957600080fd5b50356001600160a01b0316611a7d565b610623611a9a565b610381611aaa565b61034f611ab9565b610381611abf565b60155481565b60135481565b60085481565b60175481565b6007546001600160a01b031681565b602681815481106108ad57fe5b6000918252602090912001546001600160a01b0316905081565b600e5481565b601e602052600090815260409020805460019091015482565b6006546001600160a01b031681565b60165481565b601a60205260009081526040902080546001820154600283015460038401546004850154600586015460068701546007880154600889015460098a0154600a8b0154600b909b0154999a98999798969795966001600160a01b039586169695851695600160a01b90950460ff16948d565b601b6020526000908152604090205481565b600c5481565b60295481565b600f5481565b60105481565b60208080526000918252604091829020805460018083015460028085015460038601805489516101009682161596909602600019011692909204601f8101889004880285018801909852878452939691956001600160a01b03851695600160a01b90950460ff1694939290830182828015610a525780601f10610a2757610100808354040283529160200191610a52565b820191906000526020600020905b815481529060010190602001808311610a3557829003601f168201915b5050505050905085565b60195460ff1681565b60125481565b60005461010090046001600160a01b031681565b6064610a91838563ffffffff611ace16565b1115610a9c57600080fd5b6064811115610aaa57600080fd5b60288390556029829055602a819055610ac1611afe565b6001600160a01b031663abf158d58484846040518463ffffffff1660e01b8152600401808481526020018381526020018281526020019350505050600060405180830381600087803b158015610b1657600080fd5b505af1158015610b2a573d6000803e3d6000fd5b50505050505050565b600a5481565b610b41610bf7565b610b4a57600080fd5b6001546040516000916001600160a01b0316907f8be0079c531659141344cd1fd0a4f28419497f9722a3daafe3b4186f6b6457e0908390a3600180546001600160a01b0319169055565b60095481565b60185481565b601f6020526000908152604090205481565b6004546001600160a01b031681565b602a5481565b600b5481565b60115481565b60235461010090046001600160a01b031681565b6001546001600160a01b03165b90565b6001546001600160a01b0316331490565b60275481565b6002546001600160a01b031681565b60225481565b815b81811015610e2e576000818152601a60205260409020600601546001600160a01b03168015610dd957610cc46001826001600160a01b03166339c31e936040518163ffffffff1660e01b815260040160206040518083038186803b158015610c8c57600080fd5b505afa158015610ca0573d6000803e3d6000fd5b505050506040513d6020811015610cb657600080fd5b50519063ffffffff611bd016565b601a600084815260200190815260200160002060010181905550806001600160a01b0316633a09bf446040518163ffffffff1660e01b815260040160206040518083038186803b158015610d1757600080fd5b505afa158015610d2b573d6000803e3d6000fd5b505050506040513d6020811015610d4157600080fd5b50516000838152601a6020908152604091829020600a01929092558051638ccdd28960e01b815290516001600160a01b03841692638ccdd2899260048082019391829003018186803b158015610d9657600080fd5b505afa158015610daa573d6000803e3d6000fd5b505050506040513d6020811015610dc057600080fd5b50516000838152601a6020526040902060070155610e0f565b6000828152601a60205260409020600190810154610dfc9163ffffffff611bd016565b6000838152601a60205260409020600101555b506000818152601a602052604090206001600990910181905501610c25565b505050565b6000858152601a602052604090208054600390910154158015610e5557508015155b610ea6576040805162461bcd60e51b815260206004820181905260248201527f496e76616c69642076616c696461746f7220666f7220616e2061756374696f6e604482015290519081900360640190fd5b336000818152601b60209081526040918290205460065483516370a0823160e01b81526004810195909552925190936001600160a01b03909316926370a08231926024808301939192829003018186803b158015610f0357600080fd5b505afa158015610f17573d6000803e3d6000fd5b505050506040513d6020811015610f2d57600080fd5b5051158015610f3e57506000198114155b610f86576040805162461bcd60e51b8152602060048201526014602482015273416c72656164792075736564206164647265737360601b604482015290519081900360640190fd5b600954601854801580610f995750818111155b610fdc576040805162461bcd60e51b815260206004820152600f60248201526e10dbdbdb191bdddb881c195c9a5bd9608a1b604482015290519081900360640190fd5b601554600a54610ff2908263ffffffff611bd016565b60008b8152601a602052604090206002015461101590859063ffffffff611be216565b8161101c57fe5b0610611068576040805162461bcd60e51b8152602060048201526016602482015275125b9d985b1a5908185d58dd1a5bdb881c195c9a5bd960521b604482015290519081900360640190fd5b6000898152601a60205260409020600a0154849061108d90829063ffffffff611bd016565b60008b815260208052604090208054919250906110aa8382611bf7565b92508a83106110f2576040805162461bcd60e51b815260206004820152600f60248201526e26bab9ba103134b2103434b3b432b960891b604482015290519081900360640190fd5b600354604080516323b872dd60e01b8152336004820152306024820152604481018e905290516001600160a01b03909216916323b872dd916064808201926020929091908290030181600087803b15801561114c57600080fd5b505af1158015611160573d6000803e3d6000fd5b505050506040513d602081101561117657600080fd5b50516111bb576040805162461bcd60e51b815260206004820152600f60248201526e151c985b9cd9995c8819985a5b1959608a1b604482015290519081900360640190fd5b801561128d5760035460028301546040805163a9059cbb60e01b81526001600160a01b039283166004820152602481018590529051919092169163a9059cbb9160448083019260209291908290030181600087803b15801561121c57600080fd5b505af1158015611230573d6000803e3d6000fd5b505050506040513d602081101561124657600080fd5b505161128d576040805162461bcd60e51b8152602060048201526011602482015270109a59081c995d1d5c9b8819985a5b1959607a1b604482015290519081900360640190fd5b8a8255600282018054336001600160a01b03199091161760ff60a01b1916600160a01b8c1515021790556112c5600383018a8a611ce6565b5060055460408051630934a6df60e01b8152600481018f9052602481018a9052604481018e905290516001600160a01b0390921691630934a6df9160648082019260009290919082900301818387803b15801561132157600080fd5b505af1158015611335573d6000803e3d6000fd5b50505050505050505050505050505050565b61134f611c0e565b611357611c5c565b565b60245481565b6000838152602080526040902060028101546001600160a01b031633811480611402575060065460408051632f745c5960e01b815233600482015260006024820152905187926001600160a01b031691632f745c59916044808301926020929190829003018186803b1580156113d457600080fd5b505afa1580156113e8573d6000803e3d6000fd5b505050506040513d60208110156113fe57600080fd5b5051145b611453576040805162461bcd60e51b815260206004820152601760248201527f4f6e6c79206269646465722063616e20636f6e6669726d000000000000000000604482015290519081900360640190fd5b600954601554600a5461146d90829063ffffffff611bd016565b600185015461148390849063ffffffff611be216565b8161148a57fe5b0610156114de576040805162461bcd60e51b815260206004820181905260248201527f4e6f7420616c6c6f776564206265666f72652061756374696f6e506572696f64604482015290519081900360640190fd5b60028301546001600160a01b031661152f576040805162461bcd60e51b815260206004820152600f60248201526e24b73b30b634b21030bab1ba34b7b760891b604482015290519081900360640190fd5b6000868152601a6020526040902080548454600a909201549091829161155c90839063ffffffff611bd016565b915080821015801561157d57506000898152601a6020526040902060030154155b156116c8576003546040805163a9059cbb60e01b81526001600160a01b038881166004830152602482018590529151919092169163a9059cbb9160448083019260209291908290030181600087803b1580156115d857600080fd5b505af11580156115ec573d6000803e3d6000fd5b505050506040513d602081101561160257600080fd5b5051611649576040805162461bcd60e51b8152602060048201526011602482015270109a59081c995d1d5c9b8819985a5b1959607a1b604482015290519081900360640190fd5b600186018490556005546040805163e12ab1af60e01b8152600481018c9052602481018c90526044810186905290516001600160a01b039092169163e12ab1af9160648082019260009290919082900301818387803b1580156116ab57600080fd5b505af11580156116bf573d6000803e3d6000fd5b505050506117fb565b866001600160a01b03166352b8115d868a8c858b60020160149054906101000a900460ff168c6003016040518763ffffffff1660e01b815260040180876001600160a01b03166001600160a01b0316815260200186815260200185815260200184815260200183151515158152602001806020018281038252838181546001816001161561010002031660029004815260200191508054600181600116156101000203166002900480156117bd5780601f10611792576101008083540402835291602001916117bd565b820191906000526020600020905b8154815290600101906020018083116117a057829003601f168201915b5050975050505050505050600060405180830381600087803b1580156117e257600080fd5b505af11580156117f6573d6000803e3d6000fd5b505050505b60018087015460008b815260208052604081208181559283018190556002830180546001600160a81b03191690559091906118396003830182611d64565b50506000998a52602080526040909920600101989098555050505050505050565b60145481565b60005460ff1681565b60216020526000908152604090205481565b6009546000838152601a60205260409020600890810154905482906118a790839063ffffffff611bd016565b1115806118b2575080155b6118ee576040805162461bcd60e51b815260206004820152600860248201526721b7b7b63237bbb760c11b604482015290519081900360640190fd5b6064831115611936576040805162461bcd60e51b815260206004820152600f60248201526e496e636f72726563742076616c756560881b604482015290519081900360640190fd5b61193e611afe565b6001600160a01b031663c98cc0028585601a6000898152602001908152602001600020600701546040518463ffffffff1660e01b8152600401808481526020018381526020018281526020019350505050600060405180830381600087803b1580156119a957600080fd5b505af11580156119bd573d6000803e3d6000fd5b50505060009485525050601a6020526040909220600781019190915560080155565b60285481565b601c54601d5482565b6119f6610bf7565b6119ff57600080fd5b6001600160a01b038116611a1257600080fd5b6002546040516001600160a01b038084169216907f211c9015fc81c0dbd45bd99f0f29fc1c143bfd53442d5ffd722bbbef7a887fe990600090a3600280546001600160a01b0319166001600160a01b0392909216919091179055565b6005546001600160a01b031681565b611a85610bf7565b611a8e57600080fd5b611a9781611c68565b50565b611aa2611c0e565b611357611cd7565b6025546001600160a01b031681565b600d5481565b6003546001600160a01b031681565b600082611add57506000611af8565b82820282848281611aea57fe5b0414611af557600080fd5b90505b92915050565b60235460009061010090046001600160a01b031680611bcb5760048054604080516832bb32b73a39a43ab160b91b8152815190819003600901812063cac39a0560e01b825293810193909352516001600160a01b039091169163cac39a05916024808301926020929190829003018186803b158015611b7c57600080fd5b505afa158015611b90573d6000803e3d6000fd5b505050506040513d6020811015611ba657600080fd5b505160238054610100600160a81b0319166101006001600160a01b0384160217905590505b905090565b600082820183811015611af557600080fd5b600082821115611bf157600080fd5b50900390565b600081831015611c075781611af5565b5090919050565b60005461010090046001600160a01b031633146113575760405162461bcd60e51b8152600401808060200182810382526026815260200180611dbf6026913960400191505060405180910390fd5b6000805460ff19169055565b6001600160a01b038116611c7b57600080fd5b6001546040516001600160a01b038084169216907f8be0079c531659141344cd1fd0a4f28419497f9722a3daafe3b4186f6b6457e090600090a3600180546001600160a01b0319166001600160a01b0392909216919091179055565b6000805460ff19166001179055565b828054600181600116156101000203166002900490600052602060002090601f016020900481019282601f10611d275782800160ff19823516178555611d54565b82800160010185558215611d54579182015b82811115611d54578235825591602001919060010190611d39565b50611d60929150611da4565b5090565b50805460018160011615610100020316600290046000825580601f10611d8a5750611a97565b601f016020900490600052602060002090810190611a9791905b610bf491905b80821115611d605760008155600101611daa56fe4f6e6c7920676f7665726e616e636520636f6e747261637420697320617574686f72697a6564a265627a7a72315820a75cb707f989960728ec931832130d668923492adad673611fa3eae60d485b6464736f6c63430005110032",
  "source": "pragma solidity 0.5.17;\n\nimport {IERC20} from \"openzeppelin-solidity/contracts/token/ERC20/IERC20.sol\";\nimport {SafeMath} from \"openzeppelin-solidity/contracts/math/SafeMath.sol\";\nimport {Registry} from \"../../common/Registry.sol\";\nimport {GovernanceLockable} from \"../../common/mixin/GovernanceLockable.sol\";\nimport {IStakeManager} from \"./IStakeManager.sol\";\nimport {StakeManagerStorage} from \"./StakeManagerStorage.sol\";\nimport {StakeManagerStorageExtension} from \"./StakeManagerStorageExtension.sol\";\nimport {Math} from \"openzeppelin-solidity/contracts/math/Math.sol\";\nimport {Initializable} from \"../../common/mixin/Initializable.sol\";\nimport {EventsHub} from \"../EventsHub.sol\";\nimport {ValidatorShare} from \"../validatorShare/ValidatorShare.sol\";\n\ncontract StakeManagerExtension is StakeManagerStorage, Initializable, StakeManagerStorageExtension {\n    using SafeMath for uint256;\n\n    constructor() public GovernanceLockable(address(0x0)) {}\n\n    function startAuction(\n        uint256 validatorId,\n        uint256 amount,\n        bool _acceptDelegation,\n        bytes calldata _signerPubkey\n    ) external {\n        uint256 currentValidatorAmount = validators[validatorId].amount;\n\n        require(\n            validators[validatorId].deactivationEpoch == 0 && currentValidatorAmount != 0,\n            \"Invalid validator for an auction\"\n        );\n        uint256 senderValidatorId = signerToValidator[msg.sender];\n        // make sure that signer wasn't used already\n        require(\n            NFTContract.balanceOf(msg.sender) == 0 && // existing validators can't bid\n                senderValidatorId != INCORRECT_VALIDATOR_ID,\n            \"Already used address\"\n        );\n\n        uint256 _currentEpoch = currentEpoch;\n        uint256 _replacementCoolDown = replacementCoolDown;\n        // when dynasty period is updated validators are in cooldown period\n        require(_replacementCoolDown == 0 || _replacementCoolDown <= _currentEpoch, \"Cooldown period\");\n        // (auctionPeriod--dynasty)--(auctionPeriod--dynasty)--(auctionPeriod--dynasty)\n        // if it's auctionPeriod then will get residue smaller then auctionPeriod\n        // from (CurrentPeriod of validator )%(auctionPeriod--dynasty)\n        // make sure that its `auctionPeriod` window\n        // dynasty = 30, auctionPeriod = 7, activationEpoch = 1, currentEpoch = 39\n        // residue 1 = (39-1)% (7+30), if residue <= auctionPeriod it's `auctionPeriod`\n\n        require(\n            (_currentEpoch.sub(validators[validatorId].activationEpoch) % dynasty.add(auctionPeriod)) < auctionPeriod,\n            \"Invalid auction period\"\n        );\n\n        uint256 perceivedStake = currentValidatorAmount;\n        perceivedStake = perceivedStake.add(validators[validatorId].delegatedAmount);\n\n        Auction storage auction = validatorAuction[validatorId];\n        uint256 currentAuctionAmount = auction.amount;\n\n        perceivedStake = Math.max(perceivedStake, currentAuctionAmount);\n\n        require(perceivedStake < amount, \"Must bid higher\");\n        require(token.transferFrom(msg.sender, address(this), amount), \"Transfer failed\");\n\n        //replace prev auction\n        if (currentAuctionAmount != 0) {\n            require(token.transfer(auction.user, currentAuctionAmount), \"Bid return failed\");\n        }\n\n        // create new auction\n        auction.amount = amount;\n        auction.user = msg.sender;\n        auction.acceptDelegation = _acceptDelegation;\n        auction.signerPubkey = _signerPubkey;\n\n        logger.logStartAuction(validatorId, currentValidatorAmount, amount);\n    }\n\n    function confirmAuctionBid(\n        uint256 validatorId,\n        uint256 heimdallFee, /** for new validator */\n        IStakeManager stakeManager\n    ) external {\n        Auction storage auction = validatorAuction[validatorId];\n        address auctionUser = auction.user;\n\n        require(\n            msg.sender == auctionUser || NFTContract.tokenOfOwnerByIndex(msg.sender, 0) == validatorId,\n            \"Only bidder can confirm\"\n        );\n\n        uint256 _currentEpoch = currentEpoch;\n        require(\n            _currentEpoch.sub(auction.startEpoch) % auctionPeriod.add(dynasty) >= auctionPeriod,\n            \"Not allowed before auctionPeriod\"\n        );\n        require(auction.user != address(0x0), \"Invalid auction\");\n\n        uint256 validatorAmount = validators[validatorId].amount;\n        uint256 perceivedStake = validatorAmount;\n        uint256 auctionAmount = auction.amount;\n\n        perceivedStake = perceivedStake.add(validators[validatorId].delegatedAmount);\n\n        // validator is last auctioner\n        if (perceivedStake >= auctionAmount && validators[validatorId].deactivationEpoch == 0) {\n            require(token.transfer(auctionUser, auctionAmount), \"Bid return failed\");\n            //cleanup auction data\n            auction.startEpoch = _currentEpoch;\n            logger.logConfirmAuction(validatorId, validatorId, validatorAmount);\n        } else {\n            stakeManager.dethroneAndStake(\n                auctionUser, \n                heimdallFee,\n                validatorId,\n                auctionAmount,\n                auction.acceptDelegation,\n                auction.signerPubkey\n            );\n        }\n        uint256 startEpoch = auction.startEpoch;\n        delete validatorAuction[validatorId];\n        validatorAuction[validatorId].startEpoch = startEpoch;\n    }\n\n    function migrateValidatorsData(uint256 validatorIdFrom, uint256 validatorIdTo) external {       \n        for (uint256 i = validatorIdFrom; i < validatorIdTo; ++i) {\n            ValidatorShare contractAddress = ValidatorShare(validators[i].contractAddress);\n            if (contractAddress != ValidatorShare(0)) {\n                // move validator rewards out from ValidatorShare contract\n                validators[i].reward = contractAddress.validatorRewards_deprecated().add(INITIALIZED_AMOUNT);\n                validators[i].delegatedAmount = contractAddress.activeAmount();\n                validators[i].commissionRate = contractAddress.commissionRate_deprecated();\n            } else {\n                validators[i].reward = validators[i].reward.add(INITIALIZED_AMOUNT);\n            }\n\n            validators[i].delegatorsReward = INITIALIZED_AMOUNT;\n        }\n    }\n\n    function updateCheckpointRewardParams(\n        uint256 _rewardDecreasePerCheckpoint,\n        uint256 _maxRewardedCheckpoints,\n        uint256 _checkpointRewardDelta\n    ) external {\n        require(_maxRewardedCheckpoints.mul(_rewardDecreasePerCheckpoint) <= CHK_REWARD_PRECISION);\n        require(_checkpointRewardDelta <= CHK_REWARD_PRECISION);\n\n        rewardDecreasePerCheckpoint = _rewardDecreasePerCheckpoint;\n        maxRewardedCheckpoints = _maxRewardedCheckpoints;\n        checkpointRewardDelta = _checkpointRewardDelta;\n\n        _getOrCacheEventsHub().logRewardParams(_rewardDecreasePerCheckpoint, _maxRewardedCheckpoints, _checkpointRewardDelta);\n    }\n\n    function updateCommissionRate(uint256 validatorId, uint256 newCommissionRate) external {\n        uint256 _epoch = currentEpoch;\n        uint256 _lastCommissionUpdate = validators[validatorId].lastCommissionUpdate;\n\n        require( // withdrawalDelay == dynasty\n            (_lastCommissionUpdate.add(WITHDRAWAL_DELAY) <= _epoch) || _lastCommissionUpdate == 0, // For initial setting of commission rate\n            \"Cooldown\"\n        );\n\n        require(newCommissionRate <= MAX_COMMISION_RATE, \"Incorrect value\");\n        _getOrCacheEventsHub().logUpdateCommissionRate(validatorId, newCommissionRate, validators[validatorId].commissionRate);\n        validators[validatorId].commissionRate = newCommissionRate;\n        validators[validatorId].lastCommissionUpdate = _epoch;\n    }\n\n    function _getOrCacheEventsHub() private returns(EventsHub) {\n        EventsHub _eventsHub = EventsHub(eventsHub);\n        if (_eventsHub == EventsHub(0x0)) {\n            _eventsHub = EventsHub(Registry(registry).contractMap(keccak256(\"eventsHub\")));\n            eventsHub = address(_eventsHub);\n        }\n        return _eventsHub;\n    }\n}\n",
  "sourcePath": "/Users/ohm.jirapon/playground/blockhain/pos/plasma-ploygon/contracts/contracts/staking/stakeManager/StakeManagerExtension.sol",
  "compiler": {
    "name": "solc",
    "version": "0.5.17+commit.d19bba13.Linux.g++"
  },
  "schemaVersion": "3.4.7",
  "updatedAt": "2022-07-08T08:23:54.583Z",
  "devdoc": {
    "methods": {
      "changeRootChain(address)": {
        "details": "Allows the current owner to change root chain address.",
        "params": {
          "newRootChain": "The address to new rootchain."
        }
      },
      "isOwner()": {
        "return": "true if `msg.sender` is the owner of the contract."
      },
      "owner()": {
        "return": "the address of the owner."
      },
      "renounceOwnership()": {
        "details": "Allows the current owner to relinquish control of the contract. It will not be possible to call the functions with the `onlyOwner` modifier anymore."
      },
      "transferOwnership(address)": {
        "details": "Allows the current owner to transfer control of the contract to a newOwner.",
        "params": {
          "newOwner": "The address to transfer ownership to."
        }
      }
    }
  },
  "userdoc": {
    "methods": {
      "renounceOwnership()": {
        "notice": "Renouncing ownership will leave the contract without an owner, thereby removing any functionality that is only available to the owner."
      }
    }
  }
}