{
  "contractName": "StakeManagerStorageExtension",
  "abi": [
    {
      "constant": true,
      "inputs": [],
      "name": "checkpointRewardDelta",
      "outputs": [
        {
          "internalType": "uint256",
          "name": "",
          "type": "uint256"
        }
      ],
      "payable": false,
      "stateMutability": "view",
      "type": "function"
    },
    {
      "constant": true,
      "inputs": [],
      "name": "eventsHub",
      "outputs": [
        {
          "internalType": "address",
          "name": "",
          "type": "address"
        }
      ],
      "payable": false,
      "stateMutability": "view",
      "type": "function"
    },
    {
      "constant": true,
      "inputs": [],
      "name": "extensionCode",
      "outputs": [
        {
          "internalType": "address",
          "name": "",
          "type": "address"
        }
      ],
      "payable": false,
      "stateMutability": "view",
      "type": "function"
    },
    {
      "constant": true,
      "inputs": [],
      "name": "maxRewardedCheckpoints",
      "outputs": [
        {
          "internalType": "uint256",
          "name": "",
          "type": "uint256"
        }
      ],
      "payable": false,
      "stateMutability": "view",
      "type": "function"
    },
    {
      "constant": true,
      "inputs": [],
      "name": "prevBlockInterval",
      "outputs": [
        {
          "internalType": "uint256",
          "name": "",
          "type": "uint256"
        }
      ],
      "payable": false,
      "stateMutability": "view",
      "type": "function"
    },
    {
      "constant": true,
      "inputs": [],
      "name": "rewardDecreasePerCheckpoint",
      "outputs": [
        {
          "internalType": "uint256",
          "name": "",
          "type": "uint256"
        }
      ],
      "payable": false,
      "stateMutability": "view",
      "type": "function"
    },
    {
      "constant": true,
      "inputs": [],
      "name": "rewardPerStake",
      "outputs": [
        {
          "internalType": "uint256",
          "name": "",
          "type": "uint256"
        }
      ],
      "payable": false,
      "stateMutability": "view",
      "type": "function"
    },
    {
      "constant": true,
      "inputs": [
        {
          "internalType": "uint256",
          "name": "",
          "type": "uint256"
        }
      ],
      "name": "signers",
      "outputs": [
        {
          "internalType": "address",
          "name": "",
          "type": "address"
        }
      ],
      "payable": false,
      "stateMutability": "view",
      "type": "function"
    }
  ],
  "bytecode": "0x608060405234801561001057600080fd5b506101a8806100206000396000f3fe608060405234801561001057600080fd5b50600436106100885760003560e01c806391f1a3a51161005b57806391f1a3a5146100f0578063a8dc889b146100f8578063e568959a14610100578063f8a3176c1461010857610088565b80632079fb9a1461008d578063451b5985146100c65780637c7eaf1a146100e0578063883b455f146100e8575b600080fd5b6100aa600480360360208110156100a357600080fd5b5035610110565b604080516001600160a01b039092168252519081900360200190f35b6100ce610137565b60408051918252519081900360200190f35b6100ce61013d565b6100aa610143565b6100ce610152565b6100ce610158565b6100ce61015e565b6100aa610164565b6003818154811061011d57fe5b6000918252602090912001546001600160a01b0316905081565b60065481565b60075481565b6000546001600160a01b031681565b60045481565b60015481565b60055481565b6002546001600160a01b03168156fea265627a7a723158206eaf2d55517e8e31e7588e7e820282bebd8e1748016ecc6544e2ff7324f5dda364736f6c63430005110032",
  "source": "pragma solidity 0.5.17;\n\ncontract StakeManagerStorageExtension {\n    address public eventsHub;\n    uint256 public rewardPerStake;\n    address public extensionCode;\n    address[] public signers;\n\n    uint256 constant CHK_REWARD_PRECISION = 100;\n    uint256 public prevBlockInterval;\n    // how much less reward per skipped checkpoint, 0 - 100%\n    uint256 public rewardDecreasePerCheckpoint;\n    // how many checkpoints to reward\n    uint256 public maxRewardedCheckpoints;\n    // increase / decrease value for faster or slower checkpoints, 0 - 100%\n    uint256 public checkpointRewardDelta;\n}   \n",
  "sourcePath": "/Users/ohm.jirapon/playground/blockhain/pos/plasma-ploygon/contracts/contracts/staking/stakeManager/StakeManagerStorageExtension.sol",
  "compiler": {
    "name": "solc",
    "version": "0.5.17+commit.d19bba13.Linux.g++"
  },
  "schemaVersion": "3.4.7",
  "updatedAt": "2022-07-08T08:23:54.605Z",
  "devdoc": {
    "methods": {}
  },
  "userdoc": {
    "methods": {}
  }
}