{
  "contractName": "StateSyncerVerifier",
  "abi": [
    {
      "inputs": [],
      "payable": false,
      "stateMutability": "nonpayable",
      "type": "constructor"
    },
    {
      "anonymous": false,
      "inputs": [
        {
          "indexed": true,
          "internalType": "address",
          "name": "previousOwner",
          "type": "address"
        },
        {
          "indexed": true,
          "internalType": "address",
          "name": "newOwner",
          "type": "address"
        }
      ],
      "name": "OwnershipTransferred",
      "type": "event"
    },
    {
      "anonymous": false,
      "inputs": [
        {
          "indexed": true,
          "internalType": "address",
          "name": "previousAddress",
          "type": "address"
        },
        {
          "indexed": true,
          "internalType": "address",
          "name": "newAddress",
          "type": "address"
        }
      ],
      "name": "StateSyncerAddressChanged",
      "type": "event"
    },
    {
      "constant": true,
      "inputs": [],
      "name": "isOwner",
      "outputs": [
        {
          "internalType": "bool",
          "name": "",
          "type": "bool"
        }
      ],
      "payable": false,
      "stateMutability": "view",
      "type": "function"
    },
    {
      "constant": true,
      "inputs": [],
      "name": "owner",
      "outputs": [
        {
          "internalType": "address",
          "name": "",
          "type": "address"
        }
      ],
      "payable": false,
      "stateMutability": "view",
      "type": "function"
    },
    {
      "constant": false,
      "inputs": [],
      "name": "renounceOwnership",
      "outputs": [],
      "payable": false,
      "stateMutability": "nonpayable",
      "type": "function"
    },
    {
      "constant": true,
      "inputs": [],
      "name": "stateSyncer",
      "outputs": [
        {
          "internalType": "address",
          "name": "",
          "type": "address"
        }
      ],
      "payable": false,
      "stateMutability": "view",
      "type": "function"
    },
    {
      "constant": false,
      "inputs": [
        {
          "internalType": "address",
          "name": "newOwner",
          "type": "address"
        }
      ],
      "name": "transferOwnership",
      "outputs": [],
      "payable": false,
      "stateMutability": "nonpayable",
      "type": "function"
    },
    {
      "constant": true,
      "inputs": [],
      "name": "isOnlyStateSyncerContract",
      "outputs": [
        {
          "internalType": "bool",
          "name": "",
          "type": "bool"
        }
      ],
      "payable": false,
      "stateMutability": "view",
      "type": "function"
    },
    {
      "constant": false,
      "inputs": [
        {
          "internalType": "address",
          "name": "newAddress",
          "type": "address"
        }
      ],
      "name": "changeStateSyncerAddress",
      "outputs": [],
      "payable": false,
      "stateMutability": "nonpayable",
      "type": "function"
    }
  ],
  "bytecode": "0x608060405234801561001057600080fd5b50600080546001600160a01b03191633178082556040516001600160a01b039190911691907f8be0079c531659141344cd1fd0a4f28419497f9722a3daafe3b4186f6b6457e0908290a3600180546001600160a01b03191661100117908190556040516001600160a01b0391909116906000907f98e6a46aa139a033b9c7f3ae4ad1c103ffdce3e7cf509326808ba8c4b5af11c0908290a361036f806100b76000396000f3fe608060405234801561001057600080fd5b506004361061007d5760003560e01c80638f32d59b1161005b5780638f32d59b146100cc578063df555007146100d4578063f2fde38b146100fa578063f4ef4d69146101205761007d565b806355651f7114610082578063715018a61461009e5780638da5cb5b146100a8575b600080fd5b61008a610128565b604080519115158252519081900360200190f35b6100a6610139565b005b6100b0610194565b604080516001600160a01b039092168252519081900360200190f35b61008a6101a3565b6100a6600480360360208110156100ea57600080fd5b50356001600160a01b03166101b4565b6100a66004803603602081101561011057600080fd5b50356001600160a01b0316610266565b6100b0610283565b6001546001600160a01b0316331490565b6101416101a3565b61014a57600080fd5b600080546040516001600160a01b03909116907f8be0079c531659141344cd1fd0a4f28419497f9722a3daafe3b4186f6b6457e0908390a3600080546001600160a01b0319169055565b6000546001600160a01b031690565b6000546001600160a01b0316331490565b6101bc6101a3565b6101c557600080fd5b6001600160a01b03811661020a5760405162461bcd60e51b815260040180806020018281038252603a815260200180610301603a913960400191505060405180910390fd5b6001546040516001600160a01b038084169216907f98e6a46aa139a033b9c7f3ae4ad1c103ffdce3e7cf509326808ba8c4b5af11c090600090a3600180546001600160a01b0319166001600160a01b0392909216919091179055565b61026e6101a3565b61027757600080fd5b61028081610292565b50565b6001546001600160a01b031681565b6001600160a01b0381166102a557600080fd5b600080546040516001600160a01b03808516939216917f8be0079c531659141344cd1fd0a4f28419497f9722a3daafe3b4186f6b6457e091a3600080546001600160a01b0319166001600160a01b039290921691909117905556fe53746174652073796e6365723a206e65772073746174652073796e636572206164647265737320697320746865207a65726f2061646472657373a265627a7a72315820983511888d1ed39e1318d0f26d53e3dc8f8ee9963b627f848c270cca79dacc2664736f6c63430005110032",
  "source": "pragma solidity ^0.5.2;\n\nimport {Ownable} from \"openzeppelin-solidity/contracts/ownership/Ownable.sol\";\n\ncontract StateSyncerVerifier is Ownable {\n    address public stateSyncer;\n\n    event StateSyncerAddressChanged(\n        address indexed previousAddress,\n        address indexed newAddress\n    );\n\n    /**\n   * @dev Throws if called by any account other than state syncer\n   */\n    modifier onlyStateSyncer() {\n        require(\n            isOnlyStateSyncerContract(),\n            \"State syncer: caller is not the state syncer contract\"\n        );\n        _;\n    }\n\n    // initial setup\n    constructor() public {\n        // default state syncer contract\n        stateSyncer = 0x0000000000000000000000000000000000001001;\n\n        // emit event for first change\n        emit StateSyncerAddressChanged(address(0), stateSyncer);\n    }\n\n    /**\n   * @dev Returns true if the caller is the state syncer contract\n   * TODO: replace onlyOwner ownership with 0x1000 for validator majority\n   */\n    function isOnlyStateSyncerContract() public view returns (bool) {\n        return msg.sender == stateSyncer;\n    }\n\n    // change state syncer address\n    function changeStateSyncerAddress(address newAddress) public onlyOwner {\n        require(\n            newAddress != address(0),\n            \"State syncer: new state syncer address is the zero address\"\n        );\n        emit StateSyncerAddressChanged(stateSyncer, newAddress);\n        stateSyncer = newAddress;\n    }\n}\n",
  "sourcePath": "/Users/ohm.jirapon/playground/blockhain/pos/plasma-ploygon/contracts/contracts/child/bor/StateSyncerVerifier.sol",
  "compiler": {
    "name": "solc",
    "version": "0.5.17+commit.d19bba13.Linux.g++"
  },
  "schemaVersion": "3.4.7",
  "updatedAt": "2022-07-08T08:23:53.423Z",
  "devdoc": {
    "methods": {
      "isOnlyStateSyncerContract()": {
        "details": "Returns true if the caller is the state syncer contract TODO: replace onlyOwner ownership with 0x1000 for validator majority"
      },
      "isOwner()": {
        "return": "true if `msg.sender` is the owner of the contract."
      },
      "owner()": {
        "return": "the address of the owner."
      },
      "renounceOwnership()": {
        "details": "Allows the current owner to relinquish control of the contract. It will not be possible to call the functions with the `onlyOwner` modifier anymore."
      },
      "transferOwnership(address)": {
        "details": "Allows the current owner to transfer control of the contract to a newOwner.",
        "params": {
          "newOwner": "The address to transfer ownership to."
        }
      }
    }
  },
  "userdoc": {
    "methods": {
      "renounceOwnership()": {
        "notice": "Renouncing ownership will leave the contract without an owner, thereby removing any functionality that is only available to the owner."
      }
    }
  }
}