{
  "contractName": "StateSender",
  "abi": [
    {
      "anonymous": false,
      "inputs": [
        {
          "indexed": true,
          "internalType": "address",
          "name": "user",
          "type": "address"
        },
        {
          "indexed": true,
          "internalType": "address",
          "name": "sender",
          "type": "address"
        },
        {
          "indexed": true,
          "internalType": "address",
          "name": "receiver",
          "type": "address"
        }
      ],
      "name": "NewRegistration",
      "type": "event"
    },
    {
      "anonymous": false,
      "inputs": [
        {
          "indexed": true,
          "internalType": "address",
          "name": "previousOwner",
          "type": "address"
        },
        {
          "indexed": true,
          "internalType": "address",
          "name": "newOwner",
          "type": "address"
        }
      ],
      "name": "OwnershipTransferred",
      "type": "event"
    },
    {
      "anonymous": false,
      "inputs": [
        {
          "indexed": true,
          "internalType": "address",
          "name": "user",
          "type": "address"
        },
        {
          "indexed": true,
          "internalType": "address",
          "name": "sender",
          "type": "address"
        },
        {
          "indexed": true,
          "internalType": "address",
          "name": "receiver",
          "type": "address"
        }
      ],
      "name": "RegistrationUpdated",
      "type": "event"
    },
    {
      "anonymous": false,
      "inputs": [
        {
          "indexed": true,
          "internalType": "uint256",
          "name": "id",
          "type": "uint256"
        },
        {
          "indexed": true,
          "internalType": "address",
          "name": "contractAddress",
          "type": "address"
        },
        {
          "indexed": false,
          "internalType": "bytes",
          "name": "data",
          "type": "bytes"
        }
      ],
      "name": "StateSynced",
      "type": "event"
    },
    {
      "constant": true,
      "inputs": [],
      "name": "counter",
      "outputs": [
        {
          "internalType": "uint256",
          "name": "",
          "type": "uint256"
        }
      ],
      "payable": false,
      "stateMutability": "view",
      "type": "function"
    },
    {
      "constant": true,
      "inputs": [],
      "name": "isOwner",
      "outputs": [
        {
          "internalType": "bool",
          "name": "",
          "type": "bool"
        }
      ],
      "payable": false,
      "stateMutability": "view",
      "type": "function"
    },
    {
      "constant": true,
      "inputs": [],
      "name": "owner",
      "outputs": [
        {
          "internalType": "address",
          "name": "",
          "type": "address"
        }
      ],
      "payable": false,
      "stateMutability": "view",
      "type": "function"
    },
    {
      "constant": true,
      "inputs": [
        {
          "internalType": "address",
          "name": "",
          "type": "address"
        }
      ],
      "name": "registrations",
      "outputs": [
        {
          "internalType": "address",
          "name": "",
          "type": "address"
        }
      ],
      "payable": false,
      "stateMutability": "view",
      "type": "function"
    },
    {
      "constant": false,
      "inputs": [],
      "name": "renounceOwnership",
      "outputs": [],
      "payable": false,
      "stateMutability": "nonpayable",
      "type": "function"
    },
    {
      "constant": false,
      "inputs": [
        {
          "internalType": "address",
          "name": "newOwner",
          "type": "address"
        }
      ],
      "name": "transferOwnership",
      "outputs": [],
      "payable": false,
      "stateMutability": "nonpayable",
      "type": "function"
    },
    {
      "constant": false,
      "inputs": [
        {
          "internalType": "address",
          "name": "receiver",
          "type": "address"
        },
        {
          "internalType": "bytes",
          "name": "data",
          "type": "bytes"
        }
      ],
      "name": "syncState",
      "outputs": [],
      "payable": false,
      "stateMutability": "nonpayable",
      "type": "function"
    },
    {
      "constant": false,
      "inputs": [
        {
          "internalType": "address",
          "name": "sender",
          "type": "address"
        },
        {
          "internalType": "address",
          "name": "receiver",
          "type": "address"
        }
      ],
      "name": "register",
      "outputs": [],
      "payable": false,
      "stateMutability": "nonpayable",
      "type": "function"
    }
  ],
  "bytecode": "0x60806040819052600080546001600160a01b03191633178082556001600160a01b0316917f8be0079c531659141344cd1fd0a4f28419497f9722a3daafe3b4186f6b6457e0908290a3610596806100576000396000f3fe608060405234801561001057600080fd5b50600436106100885760003560e01c80638f32d59b1161005b5780638f32d59b14610155578063942e6bcf14610171578063aa67735414610197578063f2fde38b146101c557610088565b806316f198311461008d57806361bc221a1461010f578063715018a6146101295780638da5cb5b14610131575b600080fd5b61010d600480360360408110156100a357600080fd5b6001600160a01b0382351691908101906040810160208201356401000000008111156100ce57600080fd5b8201836020820111156100e057600080fd5b8035906020019184600183028401116401000000008311171561010257600080fd5b5090925090506101eb565b005b6101176102d8565b60408051918252519081900360200190f35b61010d6102de565b610139610339565b604080516001600160a01b039092168252519081900360200190f35b61015d610348565b604080519115158252519081900360200190f35b6101396004803603602081101561018757600080fd5b50356001600160a01b0316610359565b61010d600480360360408110156101ad57600080fd5b506001600160a01b0381358116916020013516610374565b61010d600480360360208110156101db57600080fd5b50356001600160a01b031661048d565b6001600160a01b03808416600090815260026020526040902054849116331461024c576040805162461bcd60e51b815260206004820152600e60248201526d24b73b30b634b21039b2b73232b960911b604482015290519081900360640190fd5b6001805461025f9163ffffffff6104aa16565b600181905550836001600160a01b03166001547f103fed9db65eac19c4d870f49ab7520fe03b99f1838e5996caf47e9e43308392858560405180806020018281038252848482818152602001925080828437600083820152604051601f909101601f19169092018290039550909350505050a350505050565b60015481565b6102e6610348565b6102ef57600080fd5b600080546040516001600160a01b03909116907f8be0079c531659141344cd1fd0a4f28419497f9722a3daafe3b4186f6b6457e0908390a3600080546001600160a01b0319169055565b6000546001600160a01b031690565b6000546001600160a01b0316331490565b6002602052600090815260409020546001600160a01b031681565b61037c610348565b806103a057506001600160a01b038181166000908152600260205260409020541633145b6103db5760405162461bcd60e51b81526004018080602001828103825260308152602001806105326030913960400191505060405180910390fd5b6001600160a01b03818116600090815260026020526040902080546001600160a01b03191684831617908190551661044d576040516001600160a01b03808316919084169033907f3f4512aacd7a664fdb321a48e8340120d63253a91c6367a143abd19ecf68aedd90600090a4610489565b6040516001600160a01b03808316919084169033907fc51cb1a93ec91e927852b3445875ec77b148271953e5c0b43698c968ad6fc47d90600090a45b5050565b610495610348565b61049e57600080fd5b6104a7816104c3565b50565b6000828201838110156104bc57600080fd5b9392505050565b6001600160a01b0381166104d657600080fd5b600080546040516001600160a01b03808516939216917f8be0079c531659141344cd1fd0a4f28419497f9722a3daafe3b4186f6b6457e091a3600080546001600160a01b0319166001600160a01b039290921691909117905556fe537461746553656e6465722e72656769737465723a204e6f7420617574686f72697a656420746f207265676973746572a265627a7a72315820181b22c0d0d94645743714c24de5ffaf235c6c761dfa35e37b9640341983661564736f6c63430005110032",
  "source": "pragma solidity ^0.5.2;\n\nimport {Ownable} from \"openzeppelin-solidity/contracts/ownership/Ownable.sol\";\nimport {SafeMath} from \"openzeppelin-solidity/contracts/math/SafeMath.sol\";\n\ncontract StateSender is Ownable {\n    using SafeMath for uint256;\n\n    uint256 public counter;\n    mapping(address => address) public registrations;\n\n    event NewRegistration(\n        address indexed user,\n        address indexed sender,\n        address indexed receiver\n    );\n    event RegistrationUpdated(\n        address indexed user,\n        address indexed sender,\n        address indexed receiver\n    );\n    event StateSynced(\n        uint256 indexed id,\n        address indexed contractAddress,\n        bytes data\n    );\n\n    modifier onlyRegistered(address receiver) {\n        require(registrations[receiver] == msg.sender, \"Invalid sender\");\n        _;\n    }\n\n    function syncState(address receiver, bytes calldata data)\n        external\n        onlyRegistered(receiver)\n    {\n        counter = counter.add(1);\n        emit StateSynced(counter, receiver, data);\n    }\n\n    // register new contract for state sync\n    function register(address sender, address receiver) public {\n        require(\n            isOwner() || registrations[receiver] == msg.sender,\n            \"StateSender.register: Not authorized to register\"\n        );\n        registrations[receiver] = sender;\n        if (registrations[receiver] == address(0)) {\n            emit NewRegistration(msg.sender, sender, receiver);\n        } else {\n            emit RegistrationUpdated(msg.sender, sender, receiver);\n        }\n    }\n}\n",
  "sourcePath": "/Users/ohm.jirapon/playground/blockhain/pos/plasma-ploygon/contracts/contracts/root/stateSyncer/StateSender.sol",
  "compiler": {
    "name": "solc",
    "version": "0.5.17+commit.d19bba13.Linux.g++"
  },
  "schemaVersion": "3.4.7",
  "updatedAt": "2022-07-08T08:23:54.398Z",
  "devdoc": {
    "methods": {
      "isOwner()": {
        "return": "true if `msg.sender` is the owner of the contract."
      },
      "owner()": {
        "return": "the address of the owner."
      },
      "renounceOwnership()": {
        "details": "Allows the current owner to relinquish control of the contract. It will not be possible to call the functions with the `onlyOwner` modifier anymore."
      },
      "transferOwnership(address)": {
        "details": "Allows the current owner to transfer control of the contract to a newOwner.",
        "params": {
          "newOwner": "The address to transfer ownership to."
        }
      }
    }
  },
  "userdoc": {
    "methods": {
      "renounceOwnership()": {
        "notice": "Renouncing ownership will leave the contract without an owner, thereby removing any functionality that is only available to the owner."
      }
    }
  }
}