{
  "contractName": "TransferWithSigPredicate",
  "abi": [
    {
      "inputs": [
        {
          "internalType": "address",
          "name": "_rootChain",
          "type": "address"
        },
        {
          "internalType": "address",
          "name": "_withdrawManager",
          "type": "address"
        },
        {
          "internalType": "address",
          "name": "_registry",
          "type": "address"
        }
      ],
      "payable": false,
      "stateMutability": "nonpayable",
      "type": "constructor"
    },
    {
      "constant": true,
      "inputs": [],
      "name": "CHAINID",
      "outputs": [
        {
          "internalType": "uint256",
          "name": "",
          "type": "uint256"
        }
      ],
      "payable": false,
      "stateMutability": "view",
      "type": "function"
    },
    {
      "constant": true,
      "inputs": [],
      "name": "networkId",
      "outputs": [
        {
          "internalType": "bytes",
          "name": "",
          "type": "bytes"
        }
      ],
      "payable": false,
      "stateMutability": "view",
      "type": "function"
    },
    {
      "constant": false,
      "inputs": [
        {
          "internalType": "bytes",
          "name": "data",
          "type": "bytes"
        }
      ],
      "name": "onFinalizeExit",
      "outputs": [],
      "payable": false,
      "stateMutability": "nonpayable",
      "type": "function"
    },
    {
      "constant": true,
      "inputs": [],
      "name": "registry",
      "outputs": [
        {
          "internalType": "contract Registry",
          "name": "",
          "type": "address"
        }
      ],
      "payable": false,
      "stateMutability": "view",
      "type": "function"
    },
    {
      "constant": true,
      "inputs": [],
      "name": "rootChain",
      "outputs": [
        {
          "internalType": "contract IRootChain",
          "name": "",
          "type": "address"
        }
      ],
      "payable": false,
      "stateMutability": "view",
      "type": "function"
    },
    {
      "constant": false,
      "inputs": [
        {
          "internalType": "bytes",
          "name": "data",
          "type": "bytes"
        },
        {
          "internalType": "bytes",
          "name": "exitTx",
          "type": "bytes"
        }
      ],
      "name": "startExitForOutgoingErc20Transfer",
      "outputs": [],
      "payable": true,
      "stateMutability": "payable",
      "type": "function"
    },
    {
      "constant": false,
      "inputs": [
        {
          "internalType": "bytes",
          "name": "data",
          "type": "bytes"
        },
        {
          "internalType": "bytes",
          "name": "exitTx",
          "type": "bytes"
        }
      ],
      "name": "startExitForIncomingErc20Transfer",
      "outputs": [],
      "payable": true,
      "stateMutability": "payable",
      "type": "function"
    },
    {
      "constant": true,
      "inputs": [
        {
          "internalType": "bytes",
          "name": "exit",
          "type": "bytes"
        },
        {
          "internalType": "bytes",
          "name": "inputUtxo",
          "type": "bytes"
        },
        {
          "internalType": "bytes",
          "name": "challengeData",
          "type": "bytes"
        }
      ],
      "name": "verifyDeprecation",
      "outputs": [
        {
          "internalType": "bool",
          "name": "",
          "type": "bool"
        }
      ],
      "payable": false,
      "stateMutability": "view",
      "type": "function"
    }
  ],
  "bytecode": "0x608060405234801561001057600080fd5b50604051612a5d380380612a5d8339818101604052606081101561003357600080fd5b5080516020820151604090920151600080546001600160a01b03199081166001600160a01b039586161782556003805482169486169490941790935560028054909316939091169290921790556129cd90819061009090396000f3fe60806040526004361061007b5760003560e01c80639025e64c1161004e5780639025e64c146102aa578063987ab9db14610334578063cc79f97b14610349578063ec58410c146103705761007b565b8063378383b3146100805780633cccdaaf146101405780637b103999146101fe5780637bd94e031461022f575b600080fd5b61013e6004803603604081101561009657600080fd5b810190602081018135600160201b8111156100b057600080fd5b8201836020820111156100c257600080fd5b803590602001918460018302840111600160201b831117156100e357600080fd5b919390929091602081019035600160201b81111561010057600080fd5b82018360208201111561011257600080fd5b803590602001918460018302840111600160201b8311171561013357600080fd5b50909250905061049f565b005b61013e6004803603604081101561015657600080fd5b810190602081018135600160201b81111561017057600080fd5b82018360208201111561018257600080fd5b803590602001918460018302840111600160201b831117156101a357600080fd5b919390929091602081019035600160201b8111156101c057600080fd5b8201836020820111156101d257600080fd5b803590602001918460018302840111600160201b831117156101f357600080fd5b509092509050610ace565b34801561020a57600080fd5b50610213610f6d565b604080516001600160a01b039092168252519081900360200190f35b34801561023b57600080fd5b5061013e6004803603602081101561025257600080fd5b810190602081018135600160201b81111561026c57600080fd5b82018360208201111561027e57600080fd5b803590602001918460018302840111600160201b8311171561029f57600080fd5b509092509050610f7c565b3480156102b657600080fd5b506102bf61109a565b6040805160208082528351818301528351919283929083019185019080838360005b838110156102f95781810151838201526020016102e1565b50505050905090810190601f1680156103265780820380516001836020036101000a031916815260200191505b509250505060405180910390f35b34801561034057600080fd5b506102136110b9565b34801561035557600080fd5b5061035e6110c8565b60408051918252519081900360200190f35b34801561037c57600080fd5b5061048b6004803603606081101561039357600080fd5b810190602081018135600160201b8111156103ad57600080fd5b8201836020820111156103bf57600080fd5b803590602001918460018302840111600160201b831117156103e057600080fd5b919390929091602081019035600160201b8111156103fd57600080fd5b82018360208201111561040f57600080fd5b803590602001918460018302840111600160201b8311171561043057600080fd5b919390929091602081019035600160201b81111561044d57600080fd5b82018360208201111561045f57600080fd5b803590602001918460018302840111600160201b8311171561048057600080fd5b5090925090506110cf565b604080519115158252519081900360200190f35b67016345785d8a000034146104f1576040805162461bcd60e51b8152602060048201526013602482015272125b9d985b1a5908109bdb9908185b5bdd5b9d606a1b604482015290519081900360640190fd5b606061053a61053586868080601f0160208091040260200160405190810160405280939291908181526020018383808284376000920191909152506114ae92505050565b6114d4565b9050606061055b8260008151811061054e57fe5b60200260200101516115a5565b9050610565612678565b60006105a686868080601f01602080910402602001604051908101604052809392919081815260200183838082843760009201919091525061160b92505050565b91509150600360009054906101000a90046001600160a01b03166001600160a01b031663b87e1b666040518163ffffffff1660e01b815260040160206040518083038186803b1580156105f857600080fd5b505afa15801561060c573d6000803e3d6000fd5b505050506040513d602081101561062257600080fd5b505181116106615760405162461bcd60e51b81526004018080602001828103825260448152602001806127296044913960600191505060405180910390fd5b60608201516001600160a01b03163314156106c3576040805162461bcd60e51b815260206004820152601e60248201527f53686f756c6420626520616e20696e636f6d696e67207472616e736665720000604482015290519081900360640190fd5b60025460408051635b4324bb60e11b815290516000926001600160a01b03169163b6864976916004808301926020929190829003018186803b15801561070857600080fd5b505afa15801561071c573d6000803e3d6000fd5b505050506040513d602081101561073257600080fd5b5051905061073e61269f565b610751828686606001516001600061185d565b905080604001516001600160a01b031684604001516001600160a01b0316146107ab5760405162461bcd60e51b815260040180806020018281038252603f81526020018061295a603f913960400191505060405180910390fd5b8351815110156107ec5760405162461bcd60e51b815260040180806020018281038252602881526020018061283a6028913960400191505060405180910390fd5b6107f461269f565b6001875111156108d15761080e8760018151811061054e57fe5b955061081f8387336001600061185d565b905081604001516001600160a01b031681604001516001600160a01b0316146108795760405162461bcd60e51b815260040180806020018281038252602f81526020018061280b602f913960400191505060405180910390fd5b81606001516001600160a01b031681606001516001600160a01b0316146108d15760405162461bcd60e51b815260040180806020018281038252602e8152602001806128e4602e913960400191505060405180910390fd5b6108d9611b06565b600060016108ef84602001518460200151611b45565b6000546040860151606087015186518b519490951b95506001600160a01b039092169363d931a8699333939161092b919063ffffffff611b6016565b60208c0151604080516001600160e01b031960e089901b1681526001600160a01b039687166004820152948616602486015292909416604484015260648301526084820192909252600060a4820181905260c48201869052915160e4808301939282900301818387803b1580156109a157600080fd5b505af11580156109b5573d6000803e3d6000fd5b50506000805460208701516060808c015190890151604080516322f192af60e01b8152600481018a905260248101949094526001600160a01b039283166044850152908216606484015251921694506322f192af9350608480820193929182900301818387803b158015610a2857600080fd5b505af1158015610a3c573d6000803e3d6000fd5b50506000805460208601516060880151604080516322f192af60e01b81526004810189905260248101939093523360448401526001600160a01b03918216606484015251921694506322f192af9350608480820193929182900301818387803b158015610aa857600080fd5b505af1158015610abc573d6000803e3d6000fd5b50505050505050505050505050505050565b67016345785d8a00003414610b20576040805162461bcd60e51b8152602060048201526013602482015272125b9d985b1a5908109bdb9908185b5bdd5b9d606a1b604482015290519081900360640190fd5b6060610b6461053586868080601f0160208091040260200160405190810160405280939291908181526020018383808284376000920191909152506114ae92505050565b90506060610b788260008151811061054e57fe5b9050610b82612678565b6000610bc386868080601f01602080910402602001604051908101604052809392919081815260200183838082843760009201919091525061160b92505050565b91509150600360009054906101000a90046001600160a01b03166001600160a01b031663b87e1b666040518163ffffffff1660e01b815260040160206040518083038186803b158015610c1557600080fd5b505afa158015610c29573d6000803e3d6000fd5b505050506040513d6020811015610c3f57600080fd5b50518111610c7e5760405162461bcd60e51b81526004018080602001828103825260448152602001806127296044913960600191505060405180910390fd5b60608201516001600160a01b03163314610cdf576040805162461bcd60e51b815260206004820152601e60248201527f53686f756c6420626520616e206f7574676f696e67207472616e736665720000604482015290519081900360640190fd5b60025460408051635b4324bb60e11b815290516000926001600160a01b03169163b6864976916004808301926020929190829003018186803b158015610d2457600080fd5b505afa158015610d38573d6000803e3d6000fd5b505050506040513d6020811015610d4e57600080fd5b50519050610d5a61269f565b610d698286336001600061185d565b905080604001516001600160a01b031684604001516001600160a01b031614610dc35760405162461bcd60e51b815260040180806020018281038252603f81526020018061295a603f913960400191505060405180910390fd5b835181511015610e045760405162461bcd60e51b815260040180806020018281038252602881526020018061283a6028913960400191505060405180910390fd5b610e0c611b06565b60208101516000546040830151606084015187518551600195861b909517946001600160a01b039094169363d931a86993339390929091610e529163ffffffff611b7216565b60208b0151604080516001600160e01b031960e089901b1681526001600160a01b039687166004820152948616602486015292909416604484015260648301526084820192909252600060a4820181905260c48201869052915160e4808301939282900301818387803b158015610ec857600080fd5b505af1158015610edc573d6000803e3d6000fd5b50506000805460208601516060870151604080516322f192af60e01b81526004810189905260248101939093523360448401526001600160a01b03918216606484015251921694506322f192af9350608480820193929182900301818387803b158015610f4857600080fd5b505af1158015610f5c573d6000803e3d6000fd5b505050505050505050505050505050565b6002546001600160a01b031681565b6000546001600160a01b03163314610fd3576040805162461bcd60e51b815260206004820152601560248201527427a7262cafaba4aa24222920abafa6a0a720a3a2a960591b604482015290519081900360640190fd5b600080600061101785858080601f016020809104026020016040519081016040528093929190818152602001838380828437600092019190915250611b8792505050565b600154604080516349f4cc1760e01b81526001600160a01b03808716600483015280861660248301526044820185905291519599509397509195501692506349f4cc1791606480830192600092919082900301818387803b15801561107b57600080fd5b505af115801561108f573d6000803e3d6000fd5b505050505050505050565b6040518060400160405280600381526020016201752160e91b81525081565b6003546001600160a01b031681565b6202ea4281565b60006110d96126d9565b61111888888080601f016020809104026020016040519081016040528093929190818152602001838380828437600092019190915250611bc492505050565b905060008060008061115f8a8a8080601f016020809104026020016040519081016040528093929190818152602001838380828437600092019190915250611b8792505050565b935093509350935060606111ab6105358a8a8080601f0160208091040260200160405190810160405280939291908181526020018383808284376000920191909152506114ae92505050565b90506111b5612678565b60006111cf6111ca84600a8151811061054e57fe5b61160b565b91509150856001600160a01b031682606001516001600160a01b0316146112275760405162461bcd60e51b815260040180806020018281038252602781526020018061276d6027913960400191505060405180910390fd5b61122f61269f565b611275868d8d8080601f0160208091040260200160405190810160405280939291908181526020018383808284376000920191909152508c92506001915081905061185d565b905060028054604080516337b1d58560e01b81526001600160a01b038a81166004830152915191909216916337b1d585916024808301926020929190829003018186803b1580156112c557600080fd5b505afa1580156112d9573d6000803e3d6000fd5b505050506040513d60208110156112ef57600080fd5b505160038111156112fc57fe5b141561134f5788518151148015611314575088518351145b61134f5760405162461bcd60e51b81526004018080602001828103825260488152602001806129126048913960600191505060405180910390fd5b8161135d8260200151611c48565b111561139a5760405162461bcd60e51b81526004018080602001828103825260368152602001806128626036913960400191505060405180910390fd5b846001600160a01b031681604001516001600160a01b03161480156113d45750846001600160a01b031683604001516001600160a01b0316145b61140f5760405162461bcd60e51b815260040180806020018281038252604c815260200180612898604c913960600191505060405180910390fd5b8860200151836020015114156114565760405162461bcd60e51b81526004018080602001828103825260218152602001806127ea6021913960400191505060405180910390fd5b878160200151116114985760405162461bcd60e51b81526004018080602001828103825260568152602001806127946056913960600191505060405180910390fd5b5060019f9e505050505050505050505050505050565b6114b661270e565b5060408051808201909152815181526020828101908201525b919050565b60606114df82611c5c565b6114e857600080fd5b60006114f383611c96565b905060608160405190808252806020026020018201604052801561153157816020015b61151e61270e565b8152602001906001900390816115165790505b50905060006115438560200151611cf2565b60208601510190506000805b8481101561159a5761156083611d55565b915060405180604001604052808381526020018481525084828151811061158357fe5b60209081029190910101529181019160010161154f565b509195945050505050565b80516060906115b357600080fd5b6000806115bf84611dee565b915091506060816040519080825280601f01601f1916602001820160405280156115f0576020820181803883390190505b50905060208101611602848285611e14565b50949350505050565b611613612678565b60006060611623610535856114ae565b9050805160091461166a576040805162461bcd60e51b815260206004820152600c60248201526b09a82988c9ea49a8a88bea8b60a31b604482015290519081900360640190fd5b6116878160038151811061167a57fe5b6020026020010151611e65565b6001600160a01b0316604084015260006116a082611e7f565b602086015282519091506060906116be908490600590811061054e57fe5b905060006116d76116d2836000600461221c565b61229b565b90506001600160e01b031981166306749f6760e21b1461173e576040805162461bcd60e51b815260206004820152601f60248201527f4e6f74207472616e7366657257697468536967207472616e73616374696f6e00604482015290519081900360640190fd5b6117498260246122a2565b865260006117588360446122a2565b90506117658360646122a2565b955060006117748460a46122a2565b905060606117848560c48461221c565b6040808b01518b51825163250e38bf60e01b81526001600160a01b039283166004820152918a166024830152604482015260648101869052608481018b9052905191925060009173__TransferWithSigUtils__________________9163250e38bf9160a4808301926020929190829003018186803b15801561180657600080fd5b505af415801561181a573d6000803e3d6000fd5b505050506040513d602081101561183057600080fd5b5051905061183e81836122be565b6001600160a01b031660608b0152509799969850959650505050505050565b61186561269f565b6060866001600160a01b03166382e3464c878787876040516020018080602001856001600160a01b03166001600160a01b031681526020018415151515815260200183151515158152602001828103825286818151815260200191508051906020019080838360005b838110156118e65781810151838201526020016118ce565b50505050905090810190601f1680156119135780820380516001836020036101000a031916815260200191505b50955050505050506040516020818303038152906040526040518263ffffffff1660e01b81526004018080602001828103825283818151815260200191508051906020019080838360005b8381101561197657818101518382015260200161195e565b50505050905090810190601f1680156119a35780820380516001836020036101000a031916815260200191505b509250505060006040518083038186803b1580156119c057600080fd5b505afa1580156119d4573d6000803e3d6000fd5b505050506040513d6000823e601f3d908101601f1916820160405260208110156119fd57600080fd5b8101908080516040519392919084600160201b821115611a1c57600080fd5b908301906020820185811115611a3157600080fd5b8251600160201b811182820188101715611a4a57600080fd5b82525081516020918201929091019080838360005b83811015611a77578181015183820152602001611a5f565b50505050905090810190601f168015611aa45780820380516001836020036101000a031916815260200191505b506040525050509050808060200190516080811015611ac257600080fd5b5080516020808301516040808501516060958601516001600160a01b0390811696890196909652949094169386019390935284019190915282525095945050505050565b600080546040516001600160a01b03909116919067016345785d8a00009082818181858883f19350505050158015611b42573d6000803e3d6000fd5b50565b600081831015611b555781611b57565b825b90505b92915050565b600082820183811015611b5757600080fd5b600082821115611b8157600080fd5b50900390565b600080600080848060200190516080811015611ba257600080fd5b5080516020820151604083015160609093015191989097509195509350915050565b611bcc6126d9565b60008060008060008680602001905160a0811015611be957600080fd5b508051602080830151604080850151606080870151608097880151845160c081018652938452958301526001600160a01b03958616928201929092529390911690830152151591810191909152600060a0820152979650505050505050565b60201c6b7fffffffffffffffffffffff1690565b8051600090611c6d575060006114cf565b6020820151805160001a9060c0821015611c8c576000925050506114cf565b5060019392505050565b8051600090611ca7575060006114cf565b60008090506000611cbb8460200151611cf2565b602085015185519181019250015b80821015611ce957611cda82611d55565b60019093019290910190611cc9565b50909392505050565b8051600090811a6080811015611d0c5760009150506114cf565b60b8811080611d27575060c08110801590611d27575060f881105b15611d365760019150506114cf565b60c0811015611d4a5760b5190190506114cf565b60f5190190506114cf565b80516000908190811a6080811015611d705760019150611de7565b60b8811015611d8557607e1981019150611de7565b60c0811015611db25760b78103600185019450806020036101000a85510460018201810193505050611de7565b60f8811015611dc75760be1981019150611de7565b60f78103600185019450806020036101000a855104600182018101935050505b5092915050565b6000806000611e008460200151611cf2565b602085015194519481019594039392505050565b80611e1e57611e60565b5b60208110611e3e578251825260209283019290910190601f1901611e1f565b8015611e60578251825160208390036101000a60001901801990921691161782525b505050565b8051600090601514611e7657600080fd5b611b5a826123a6565b60408051600980825261014082019092526000918291606091816020015b6060815260200190600190039081611e9d57905050905060005b60058160ff1611611ef657611ed4858260ff168151811061054e57fe5b828260ff1681518110611ee357fe5b6020908102919091010152600101611eb7565b506040518060400160405280600381526020016201752160e91b81525081600681518110611f2057fe5b60200260200101819052506040518060200160405280600081525081600781518110611f4857fe5b60200260200101819052506040518060200160405280600081525081600881518110611f7057fe5b6020026020010181905250611f84816123f4565b80519060200120915060018273__Common________________________________63b40b539b611fba8860068151811061054e57fe5b604080518082018252600381526201752160e91b602080830191825292516326b3515760e11b81526004810193845282516024820152825173__Common________________________________94634d66a2ae9493909283926044909101919080838360005b83811015612038578181015183820152602001612020565b50505050905090810190601f1680156120655780820380516001836020036101000a031916815260200191505b509250505060206040518083038186803b15801561208257600080fd5b505af4158015612096573d6000803e3d6000fd5b505050506040513d60208110156120ac57600080fd5b5051604080516001600160e01b031960e086901b16815261ffff8316602482015260048101918252835160448201528351829160640190602086019080838360005b838110156121065781810151838201526020016120ee565b50505050905090810190601f1680156121335780820380516001836020036101000a031916815260200191505b50935050505060206040518083038186803b15801561215157600080fd5b505af4158015612165573d6000803e3d6000fd5b505050506040513d602081101561217b57600080fd5b5051865161219d908890600790811061219057fe5b60200260200101516123a6565b60001b6121b08860088151811061219057fe5b60001b60405160008152602001604052604051808581526020018460ff1660ff1681526020018381526020018281526020019450505050506020604051602081039080840390855afa15801561220a573d6000803e3d6000fd5b50505060206040510351925050915091565b60608183018451101561222e57600080fd5b60608215801561224957604051915060208201604052611602565b6040519150601f8416801560200281840101858101878315602002848b0101015b8183101561228257805183526020928301920161226a565b5050858452601f01601f19166040525050949350505050565b6020015190565b600081602001835110156122b557600080fd5b50016020015190565b60008060008084516041146122d95760009350505050611b5a565b50505060208201516040830151604184015160ff16601b8110156122fb57601b015b8060ff16601b1415801561231357508060ff16601c14155b156123245760009350505050611b5a565b60408051600080825260208083018085528a905260ff85168385015260608301879052608083018690529251909260019260a080820193601f1981019281900390910190855afa15801561237c573d6000803e3d6000fd5b5050604051601f1901519150506001600160a01b03811661239c57600080fd5b9695505050505050565b8051600090158015906123bb57508151602110155b6123c457600080fd5b6000806123d084611dee565b8151919350915060208210156123ec5760208290036101000a90045b949350505050565b60608060005b8351811015612432576124288261242386848151811061241657fe5b602002602001015161244f565b6124b3565b91506001016123fa565b50612448612442825160c0612530565b826124b3565b9392505050565b60608082516001148015612477575060808360008151811061246d57fe5b016020015160f81c105b156124a2576040805160018082528183019092529060208201818038833950859350611b5a92505050565b611b576124b184516080612530565b845b6060806040519050835180825260208201818101602087015b818310156124e45780518352602092830192016124cc565b50855184518101855292509050808201602086015b818310156125115780518352602092830192016124f9565b508651929092011591909101601f01601f191660405250905092915050565b6060603883101561258d5760408051600180825281830190925260609160208201818038833901905050905082840160f81b8160008151811061256f57fe5b60200101906001600160f81b031916908160001a9053509050611b5a565b600060015b80858161259b57fe5b04156125b05760019091019061010002612592565b60606125c08386603701016125e4565b905060606125cd876125e4565b90506125d982826124b3565b945050505050611b5a565b6060600160ff8311156125f5575060025b806040519080825280601f01601f191660200182016040528015612620576020820181803883390190505b50915060005b818110156126715780600183030360080260020a848161264257fe5b0460f81b83828151811061265257fe5b60200101906001600160f81b031916908160001a905350600101612626565b5050919050565b60408051608081018252600080825260208201819052918101829052606081019190915290565b6040518060800160405280600081526020016000815260200160006001600160a01b0316815260200160006001600160a01b031681525090565b6040805160c081018252600080825260208201819052918101829052606081018290526080810182905260a081019190915290565b60405180604001604052806000815260200160008152509056fe54686520696e666c696768742065786974206973206e6f742076616c69642c206265636175736520746865207472616e73666572207369672068617320657870697265647574786f4f776e6572206973206e6f74207472616e7366657257697468536967207369676e6572416765206f66206368616c6c656e6765206c6f6720696e207468652072656365697074206e6565647320746f206265206d6f726520726563656e74207468616e205574786f206265696e67206368616c6c656e67656443616e6e6f74206368616c6c656e676520776974682074686520657869742074786368696c6420746f6b656e7320696e20746865207265666572656e6365642074787320646f206e6f74206d6174636845786974696e672077697468206d6f726520746f6b656e73207468616e207265666572656e636564546865207472616e7366657257697468536967206f726465722065787069726564207768656e2069742077617320696e636c756465644c6f675472616e73666572526563656970742c206368616c6c656e6765547820746f6b656e20616e64206368616c6c656e676564207574786f20746f6b656e20646f206e6f74206d61746368726f6f7420746f6b656e7320696e20746865207265666572656e6365642074787320646f206e6f74206d617463684c6f675472616e73666572526563656970742c206368616c6c656e67655478204e465420616e64206368616c6c656e676564207574786f204e465420646f206e6f74206d617463685265666572656e636520616e64206578697420747820646f206e6f7420636f72726573706f6e6420746f207468652073616d65206368696c6420746f6b656ea265627a7a72315820f99d208c6f7a34d195ae0267c548f9124d3f74f5d081e1005cfc381827b19cf464736f6c63430005110032",
  "source": "pragma solidity ^0.5.2;\n\nimport {Math} from \"openzeppelin-solidity/contracts/math/Math.sol\";\nimport {RLPReader} from \"solidity-rlp/contracts/RLPReader.sol\";\nimport {SafeMath} from \"openzeppelin-solidity/contracts/math/SafeMath.sol\";\n\nimport {BytesLib} from \"../../common/lib/BytesLib.sol\";\nimport {ECVerify} from \"../../common/lib/ECVerify.sol\";\n\nimport {IPredicate, PredicateUtils} from \"./IPredicate.sol\";\nimport {IRootChain} from \"../IRootChain.sol\";\nimport {IWithdrawManager} from \"../withdrawManager/IWithdrawManager.sol\";\nimport {Registry} from \"../../common/Registry.sol\";\nimport {TransferWithSigUtils} from \"./TransferWithSigUtils.sol\";\n\ncontract TransferWithSigPredicate is PredicateUtils {\n    using RLPReader for bytes;\n    using RLPReader for RLPReader.RLPItem;\n    using SafeMath for uint256;\n\n    // 0xe660b9e4 = keccak256('transferWithSig(bytes,uint256,bytes32,uint256,address)').slice(0, 4)\n    bytes4 constant TRANSFER_WITH_SIG_FUNC_SIG = 0x19d27d9c;\n\n    Registry public registry;\n    IRootChain public rootChain;\n\n    struct ReferenceTxData {\n        uint256 closingBalance;\n        uint256 age;\n        address childToken;\n        address rootToken;\n    }\n\n    struct ExitTxData {\n        uint256 amountOrToken;\n        bytes32 txHash;\n        address childToken;\n        address signer;\n    }\n\n    constructor(address _rootChain, address _withdrawManager, address _registry)\n        public\n    {\n        withdrawManager = IWithdrawManager(_withdrawManager);\n        rootChain = IRootChain(_rootChain);\n        registry = Registry(_registry);\n    }\n\n    /**\n   * @notice Start an exit from in-flight transferWithSig tx while referencing the exitor's pre-existing balance on the chain for the token\n   * @param data RLP encoded array of 1 input utxo (data format is to keep it consistent with other startExit methods)\n      * data[0] should be the exitor's proof-of-funds and encodes the following fields\n        * headerNumber Header block number of which the reference tx was a part of\n        * blockProof Proof that the block header (in the child chain) is a leaf in the submitted merkle root\n        * blockNumber Block number of which the reference tx is a part of\n        * blockTime Reference tx block time\n        * blocktxRoot Transactions root of block\n        * blockReceiptsRoot Receipts root of block\n        * receipt Receipt of the reference transaction\n        * receiptProof Merkle proof of the reference receipt\n        * branchMask Merkle proof branchMask for the receipt\n        * logIndex Log Index to read from the receipt\n   * @param exitTx ERC20 transfer executed using a transferWithSig\n   */\n    function startExitForOutgoingErc20Transfer(\n        bytes calldata data,\n        bytes calldata exitTx\n    ) external payable isBondProvided {\n        RLPReader.RLPItem[] memory referenceTx = data.toRlpItem().toList();\n        bytes memory preState = referenceTx[0].toBytes();\n        (ExitTxData memory exitTxData, uint256 expiration) = processExitTx(\n            exitTx\n        );\n        require(\n            expiration > rootChain.getLastChildBlock(),\n            \"The inflight exit is not valid, because the transfer sig has expired\"\n        );\n        require(\n            exitTxData.signer == msg.sender,\n            \"Should be an outgoing transfer\"\n        );\n        address erc20Predicate = registry.erc20Predicate();\n        ReferenceTxData memory referenceTxData = processLogTransferReceipt(\n            erc20Predicate,\n            preState,\n            msg.sender,\n            true, /* verifyInclusionInCheckpoint */\n            false /* isChallenge */\n        );\n        require(\n            exitTxData.childToken == referenceTxData.childToken,\n            \"Reference and exit tx do not correspond to the same child token\"\n        );\n        // The closing balance of the referenced tx should be >= exit amount in exitTx\n        require(\n            referenceTxData.closingBalance >= exitTxData.amountOrToken,\n            \"Exiting with more tokens than referenced\"\n        );\n\n        sendBond(); // send BOND_AMOUNT to withdrawManager\n\n        // last bit is to differentiate whether the sender or receiver of the in-flight tx is starting an exit\n        uint256 exitId = referenceTxData.age << 1;\n        exitId |= 1; // since msg.sender == exitTxData.signer\n        withdrawManager.addExitToQueue(\n            msg.sender,\n            referenceTxData.childToken,\n            referenceTxData.rootToken,\n            referenceTxData.closingBalance.sub(exitTxData.amountOrToken),\n            exitTxData.txHash,\n            false, /* isRegularExit */\n            exitId\n        );\n        withdrawManager.addInput(\n            exitId,\n            referenceTxData.age,\n            msg.sender,\n            referenceTxData.rootToken\n        );\n    }\n\n    /**\n   * @notice Start an exit from in-flight transferWithSig tx while also referencing the exitor's pre-existing balance on the chain for the token\n   * @param data RLP encoded array of 2 input utxos\n      * data[0] should be the counterparty's proof-of-funds\n      * data[1] should be the exitor's proof-of-funds\n      * data[n] encodes the following fields\n        * headerNumber Header block number of which the reference tx was a part of\n        * blockProof Proof that the block header (in the child chain) is a leaf in the submitted merkle root\n        * blockNumber Block number of which the reference tx is a part of\n        * blockTime Reference tx block time\n        * blocktxRoot Transactions root of block\n        * blockReceiptsRoot Receipts root of block\n        * receipt Receipt of the reference transaction\n        * receiptProof Merkle proof of the reference receipt\n        * branchMask Merkle proof branchMask for the receipt\n        * logIndex Log Index to read from the receipt\n   * @param exitTx ERC20 transfer executed using a transferWithSig\n   */\n    function startExitForIncomingErc20Transfer(\n        bytes calldata data,\n        bytes calldata exitTx\n    ) external payable isBondProvided {\n        RLPReader.RLPItem[] memory referenceTx = data.toRlpItem().toList();\n        bytes memory preState = referenceTx[0].toBytes();\n        (ExitTxData memory exitTxData, uint256 expiration) = processExitTx(\n            exitTx\n        );\n        require(\n            expiration > rootChain.getLastChildBlock(),\n            \"The inflight exit is not valid, because the transfer sig has expired\"\n        );\n        require(\n            exitTxData.signer != msg.sender,\n            \"Should be an incoming transfer\"\n        );\n        address erc20Predicate = registry.erc20Predicate();\n        // Process the receipt (i.e. proof-of-funds of the counterparty) of the referenced tx\n        ReferenceTxData memory referenceTxData = processLogTransferReceipt(\n            erc20Predicate,\n            preState,\n            exitTxData.signer,\n            true, /* verifyInclusionInCheckpoint */\n            false /* isChallenge */\n        );\n        require(\n            exitTxData.childToken == referenceTxData.childToken,\n            \"Reference and exit tx do not correspond to the same child token\"\n        );\n        // The closing balance of the referenced tx should be >= exit amount in exitTx\n        require(\n            referenceTxData.closingBalance >= exitTxData.amountOrToken,\n            \"Exiting with more tokens than referenced\"\n        );\n\n        // referenceTx.length == 2 means the exitor sent along another input UTXO to the exit tx\n        // This will be used to exit with the exitor's pre-existing balance on the chain for the token\n        ReferenceTxData memory _referenceTxData;\n        if (referenceTx.length > 1) {\n            preState = referenceTx[1].toBytes();\n            _referenceTxData = processLogTransferReceipt(\n                erc20Predicate,\n                preState,\n                msg.sender,\n                true, /* verifyInclusionInCheckpoint */\n                false /* isChallenge */\n            );\n            require(\n                _referenceTxData.childToken == referenceTxData.childToken,\n                \"child tokens in the referenced txs do not match\"\n            );\n            require(\n                _referenceTxData.rootToken == referenceTxData.rootToken,\n                \"root tokens in the referenced txs do not match\"\n            );\n        }\n\n        sendBond(); // send BOND_AMOUNT to withdrawManager\n\n        // last bit is to differentiate whether the sender or receiver of the in-flight tx is starting an exit\n        uint256 exitId = Math.max(referenceTxData.age, _referenceTxData.age) <<\n            1;\n        withdrawManager.addExitToQueue(\n            msg.sender,\n            referenceTxData.childToken,\n            referenceTxData.rootToken,\n            exitTxData.amountOrToken.add(_referenceTxData.closingBalance),\n            exitTxData.txHash,\n            false, /* isRegularExit */\n            exitId\n        );\n        withdrawManager.addInput(\n            exitId,\n            referenceTxData.age,\n            exitTxData.signer,\n            referenceTxData.rootToken\n        );\n        // Even if referenceTx.length == 1, the following input acts as a \"dummy\" input UTXO to challenge token spends by the exitor\n        withdrawManager.addInput(\n            exitId,\n            _referenceTxData.age,\n            msg.sender,\n            referenceTxData.rootToken\n        );\n    }\n\n    /**\n   * @notice Verify the deprecation of a state update\n   * @param exit ABI encoded PlasmaExit data\n   * @param inputUtxo ABI encoded Input UTXO data\n   * @param challengeData RLP encoded data of the challenge reference tx that encodes the following fields\n      * headerNumber Header block number of which the reference tx was a part of\n      * blockProof Proof that the block header (in the child chain) is a leaf in the submitted merkle root\n      * blockNumber Block number of which the reference tx is a part of\n      * blockTime Reference tx block time\n      * blocktxRoot Transactions root of block\n      * blockReceiptsRoot Receipts root of block\n      * receipt Receipt of the reference transaction\n      * receiptProof Merkle proof of the reference receipt\n      * branchMask Merkle proof branchMask for the receipt\n      * logIndex Log Index to read from the receipt\n      * tx Challenge transaction\n      * txProof Merkle proof of the challenge tx\n   * @return Whether or not the state is deprecated\n   */\n    function verifyDeprecation(\n        bytes calldata exit,\n        bytes calldata inputUtxo,\n        bytes calldata challengeData\n    ) external view returns (bool) {\n        PlasmaExit memory _exit = decodeExit(exit);\n        (uint256 age, address utxoOwner, address predicate, address childToken) = decodeInputUtxo(\n            inputUtxo\n        );\n\n        RLPReader.RLPItem[] memory _challengeData = challengeData\n            .toRlpItem()\n            .toList();\n        (ExitTxData memory challengeTxData, uint256 expiration) = processExitTx(\n            _challengeData[10].toBytes()\n        );\n        require(\n            challengeTxData.signer == utxoOwner,\n            \"utxoOwner is not transferWithSig signer\"\n        );\n        // receipt alone is not enough for a challenge. It is required to check that the challenge tx was included as well\n        // Challenge will be considered successful if a more recent LogTransfer event is found\n        // Interestingly, that will be determined by erc20/721 predicate\n        ReferenceTxData memory referenceTxData = processLogTransferReceipt(\n            predicate,\n            challengeData,\n            utxoOwner,\n            true, /* verifyInclusionInCheckpoint */\n            true /* isChallenge */\n        );\n        // this assertion is required only for erc721 because the spend should correspond to the same NFT\n        if (registry.predicates(predicate) == Registry.Type.ERC721) {\n            require(\n                referenceTxData.closingBalance == _exit.receiptAmountOrNFTId &&\n                    challengeTxData.amountOrToken == _exit.receiptAmountOrNFTId,\n                \"LogTransferReceipt, challengeTx NFT and challenged utxo NFT do not match\"\n            );\n        }\n        // assert transferWithSig was still valid when it was included in the child chain\n        require(\n            getChildBlockNumberFromAge(referenceTxData.age) <= expiration,\n            \"The transferWithSig order expired when it was included\"\n        );\n        require(\n            referenceTxData.childToken == childToken &&\n                challengeTxData.childToken == childToken,\n            \"LogTransferReceipt, challengeTx token and challenged utxo token do not match\"\n        );\n        require(\n            challengeTxData.txHash != _exit.txHash,\n            \"Cannot challenge with the exit tx\"\n        );\n        require(\n            referenceTxData.age > age,\n            \"Age of challenge log in the receipt needs to be more recent than Utxo being challenged\"\n        );\n        return true;\n    }\n\n    function getChildBlockNumberFromAge(uint256 age)\n        internal\n        pure\n        returns (uint256)\n    {\n        // age is represented as (getExitableAt(createdAt) << 127) | (blockNumber << 32) | branchMask.toRlpItem().toUint();\n        return (age << 129) >> 161;\n    }\n\n    function processLogTransferReceipt(\n        address predicate,\n        bytes memory preState,\n        address participant,\n        bool verifyInclusionInCheckpoint,\n        bool isChallenge\n    ) internal view returns (ReferenceTxData memory _referenceTx) {\n        bytes memory _preState = IPredicate(predicate).interpretStateUpdate(\n            abi.encode(\n                preState,\n                participant,\n                verifyInclusionInCheckpoint,\n                isChallenge\n            )\n        );\n        (\n            _referenceTx.closingBalance,\n            _referenceTx.age,\n            _referenceTx.childToken,\n            _referenceTx.rootToken\n        ) = abi.decode(_preState, (uint256, uint256, address, address));\n    }\n\n    /**\n   * @notice Process the challenge transaction\n   * @param exitTx Challenge transaction\n   * @return ExitTxData Parsed challenge transaction data\n   */\n    function processExitTx(bytes memory exitTx)\n        internal\n        pure\n        returns (ExitTxData memory txData, uint256 expiration)\n    {\n        RLPReader.RLPItem[] memory txList = exitTx.toRlpItem().toList();\n        require(txList.length == 9, \"MALFORMED_TX\");\n        txData.childToken = RLPReader.toAddress(txList[3]); // corresponds to \"to\" field in tx\n        address spender;\n        // Signer of this tx is supposed to be the authorized spender\n        (spender, txData.txHash) = getAddressFromTx(txList);\n\n        bytes memory txPayload = RLPReader.toBytes(txList[5]);\n        bytes4 funcSig = BytesLib.toBytes4(BytesLib.slice(txPayload, 0, 4));\n        require(\n            funcSig == TRANSFER_WITH_SIG_FUNC_SIG,\n            \"Not transferWithSig transaction\"\n        );\n        // 32 bytes offset\n        txData.amountOrToken = BytesLib.toUint(txPayload, 36);\n        bytes32 data = bytes32(BytesLib.toUint(txPayload, 68));\n        expiration = BytesLib.toUint(txPayload, 100);\n        // address to = address(BytesLib.toUint(txPayload, 132));\n        uint256 siglength = BytesLib.toUint(txPayload, 164);\n        bytes memory sig = BytesLib.slice(txPayload, 196, siglength);\n        bytes32 dataHash = TransferWithSigUtils.getTokenTransferOrderHash(\n            txData.childToken,\n            spender,\n            txData.amountOrToken,\n            data,\n            expiration\n        );\n        // The signer of the transfer order is the \"real signer\" of the exit tx\n        txData.signer = ECVerify.ecrecovery(dataHash, sig);\n    }\n}\n",
  "sourcePath": "/Users/ohm.jirapon/playground/blockhain/pos/plasma-ploygon/contracts/contracts/root/predicates/TransferWithSigPredicate.sol",
  "compiler": {
    "name": "solc",
    "version": "0.5.17+commit.d19bba13.Linux.g++"
  },
  "schemaVersion": "3.4.7",
  "updatedAt": "2022-07-08T08:23:54.377Z",
  "devdoc": {
    "methods": {
      "startExitForIncomingErc20Transfer(bytes,bytes)": {
        "params": {
          "data": "RLP encoded array of 2 input utxos data[0] should be the counterparty's proof-of-funds data[1] should be the exitor's proof-of-funds data[n] encodes the following fields headerNumber Header block number of which the reference tx was a part of blockProof Proof that the block header (in the child chain) is a leaf in the submitted merkle root blockNumber Block number of which the reference tx is a part of blockTime Reference tx block time blocktxRoot Transactions root of block blockReceiptsRoot Receipts root of block receipt Receipt of the reference transaction receiptProof Merkle proof of the reference receipt branchMask Merkle proof branchMask for the receipt logIndex Log Index to read from the receipt",
          "exitTx": "ERC20 transfer executed using a transferWithSig"
        }
      },
      "startExitForOutgoingErc20Transfer(bytes,bytes)": {
        "params": {
          "data": "RLP encoded array of 1 input utxo (data format is to keep it consistent with other startExit methods) data[0] should be the exitor's proof-of-funds and encodes the following fields headerNumber Header block number of which the reference tx was a part of blockProof Proof that the block header (in the child chain) is a leaf in the submitted merkle root blockNumber Block number of which the reference tx is a part of blockTime Reference tx block time blocktxRoot Transactions root of block blockReceiptsRoot Receipts root of block receipt Receipt of the reference transaction receiptProof Merkle proof of the reference receipt branchMask Merkle proof branchMask for the receipt logIndex Log Index to read from the receipt",
          "exitTx": "ERC20 transfer executed using a transferWithSig"
        }
      },
      "verifyDeprecation(bytes,bytes,bytes)": {
        "params": {
          "challengeData": "RLP encoded data of the challenge reference tx that encodes the following fields headerNumber Header block number of which the reference tx was a part of blockProof Proof that the block header (in the child chain) is a leaf in the submitted merkle root blockNumber Block number of which the reference tx is a part of blockTime Reference tx block time blocktxRoot Transactions root of block blockReceiptsRoot Receipts root of block receipt Receipt of the reference transaction receiptProof Merkle proof of the reference receipt branchMask Merkle proof branchMask for the receipt logIndex Log Index to read from the receipt tx Challenge transaction txProof Merkle proof of the challenge tx",
          "exit": "ABI encoded PlasmaExit data",
          "inputUtxo": "ABI encoded Input UTXO data"
        },
        "return": "Whether or not the state is deprecated"
      }
    }
  },
  "userdoc": {
    "methods": {
      "startExitForIncomingErc20Transfer(bytes,bytes)": {
        "notice": "Start an exit from in-flight transferWithSig tx while also referencing the exitor's pre-existing balance on the chain for the token"
      },
      "startExitForOutgoingErc20Transfer(bytes,bytes)": {
        "notice": "Start an exit from in-flight transferWithSig tx while referencing the exitor's pre-existing balance on the chain for the token"
      },
      "verifyDeprecation(bytes,bytes,bytes)": {
        "notice": "Verify the deprecation of a state update"
      }
    }
  }
}