{
  "contractName": "TransferWithSigUtils",
  "abi": [
    {
      "constant": true,
      "inputs": [
        {
          "internalType": "address",
          "name": "token",
          "type": "address"
        },
        {
          "internalType": "address",
          "name": "spender",
          "type": "address"
        },
        {
          "internalType": "uint256",
          "name": "amount",
          "type": "uint256"
        },
        {
          "internalType": "bytes32",
          "name": "data",
          "type": "bytes32"
        },
        {
          "internalType": "uint256",
          "name": "expiration",
          "type": "uint256"
        }
      ],
      "name": "getTokenTransferOrderHash",
      "outputs": [
        {
          "internalType": "bytes32",
          "name": "orderHash",
          "type": "bytes32"
        }
      ],
      "payable": false,
      "stateMutability": "pure",
      "type": "function"
    }
  ],
  "bytecode": "0x6103a5610026600b82828239805160001a60731461001957fe5b30600052607381538281f3fe73000000000000000000000000000000000000000030146080604052600436106100355760003560e01c8063250e38bf1461003a575b600080fd5b61007c600480360360a081101561005057600080fd5b506001600160a01b0381358116916020810135909116906040810135906060810135906080013561008e565b60408051918252519081900360200190f35b60006100a5866100a0878787876100af565b61016f565b9695505050505050565b600060606040518060800160405280605b8152602001610316605b913990506000816040516020018082805190602001908083835b602083106101035780518252601f1990920191602091820191016100e4565b51815160209384036101000a60001901801990921691161790526040805192909401828103601f1901835280855282519282019290922082526001600160a01b039c909c169b81019b909b525089019790975250505050606084019190915260808301525060a0902090565b600060606040518060800160405280605281526020016102c46052913990506000816040516020018082805190602001908083835b602083106101c35780518252601f1990920191602091820191016101a4565b51815160209384036101000a60001901801990921691161790526040805192909401828103601f190183528085528251928201929092208285018552600d83526c4d61746963204e6574776f726b60981b8383019081528551808701875260018152603160f81b908401529251909220845180830193909352828501527fc89efdaa54c0f20c7adf612882df0950f5a951637e0307cdcb4c672f298b8bc660608301526202ea4260808301526001600160a01b039a909a1660a0808301919091528351808303909101815260c082019384905280519a019990992061190160f01b835260c28a01525060e29097019590955250506042909320939250505056fe454950373132446f6d61696e28737472696e67206e616d652c737472696e672076657273696f6e2c75696e7432353620636861696e49642c6164647265737320766572696679696e67436f6e747261637429546f6b656e5472616e736665724f726465722861646472657373207370656e6465722c75696e7432353620746f6b656e49644f72416d6f756e742c6279746573333220646174612c75696e743235362065787069726174696f6e29a265627a7a723158209ab8fd913ea7b3dbddf449ca5ff1e1924c469c56c885113bbb51133b98266da464736f6c63430005110032",
  "source": "pragma solidity ^0.5.2;\n\n\nlibrary TransferWithSigUtils {\n  function getTokenTransferOrderHash(address token, address spender, uint256 amount, bytes32 data, uint256 expiration)\n    public\n    pure\n    returns (bytes32 orderHash)\n  {\n    orderHash = hashEIP712Message(token, hashTokenTransferOrder(spender, amount, data, expiration));\n  }\n\n  function hashTokenTransferOrder(address spender, uint256 amount, bytes32 data, uint256 expiration)\n    internal\n    pure\n    returns (bytes32 result)\n  {\n    string memory EIP712_TOKEN_TRANSFER_ORDER_SCHEMA =  \"TokenTransferOrder(address spender,uint256 tokenIdOrAmount,bytes32 data,uint256 expiration)\";\n    bytes32 EIP712_TOKEN_TRANSFER_ORDER_SCHEMA_HASH = keccak256(abi.encodePacked(EIP712_TOKEN_TRANSFER_ORDER_SCHEMA));\n    bytes32 schemaHash = EIP712_TOKEN_TRANSFER_ORDER_SCHEMA_HASH;\n    assembly {\n      // Load free memory pointer\n      let memPtr := mload(64)\n      mstore(memPtr, schemaHash)                                                         // hash of schema\n      mstore(add(memPtr, 32), and(spender, 0xffffffffffffffffffffffffffffffffffffffff))  // spender\n      mstore(add(memPtr, 64), amount)                                           // amount\n      mstore(add(memPtr, 96), data)                                                      // hash of data\n      mstore(add(memPtr, 128), expiration)                                               // expiration\n      // Compute hash\n      result := keccak256(memPtr, 160)\n    }\n  }\n\n  function hashEIP712Message(address token, bytes32 hashStruct)\n    internal\n    pure\n    returns (bytes32 result)\n  {\n    string memory EIP712_DOMAIN_SCHEMA = \"EIP712Domain(string name,string version,uint256 chainId,address verifyingContract)\";\n    bytes32 EIP712_DOMAIN_SCHEMA_HASH = keccak256(abi.encodePacked(EIP712_DOMAIN_SCHEMA));\n    string memory EIP712_DOMAIN_NAME = \"Matic Network\";\n    string memory EIP712_DOMAIN_VERSION = \"1\";\n    uint256 EIP712_DOMAIN_CHAINID = 191042;\n    bytes32 EIP712_DOMAIN_HASH = keccak256(abi.encode(\n      EIP712_DOMAIN_SCHEMA_HASH,\n      keccak256(bytes(EIP712_DOMAIN_NAME)),\n      keccak256(bytes(EIP712_DOMAIN_VERSION)),\n      EIP712_DOMAIN_CHAINID,\n      token\n    ));\n    bytes32 domainHash = EIP712_DOMAIN_HASH;\n    assembly {\n      // Load free memory pointer\n      let memPtr := mload(64)\n      mstore(memPtr, 0x1901000000000000000000000000000000000000000000000000000000000000)  // EIP191 header\n      mstore(add(memPtr, 2), domainHash)                                          // EIP712 domain hash\n      mstore(add(memPtr, 34), hashStruct)                                                 // Hash of struct\n      // Compute hash\n      result := keccak256(memPtr, 66)\n    }\n  }\n}\n",
  "sourcePath": "/root/matic-cli/devnet/code/contracts/contracts/root/predicates/TransferWithSigUtils.sol",
  "compiler": {
    "name": "solc",
    "version": "0.5.17+commit.d19bba13.Linux.g++"
  },
  "schemaVersion": "3.0.14",
  "updatedAt": "2022-07-06T11:11:58.490Z",
  "devdoc": {
    "methods": {}
  },
  "userdoc": {
    "methods": {}
  }
}