{
  "contractName": "UpgradableProxy",
  "abi": [
    {
      "inputs": [
        {
          "internalType": "address",
          "name": "_proxyTo",
          "type": "address"
        }
      ],
      "payable": false,
      "stateMutability": "nonpayable",
      "type": "constructor"
    },
    {
      "anonymous": false,
      "inputs": [
        {
          "indexed": false,
          "internalType": "address",
          "name": "_new",
          "type": "address"
        },
        {
          "indexed": false,
          "internalType": "address",
          "name": "_old",
          "type": "address"
        }
      ],
      "name": "OwnerUpdate",
      "type": "event"
    },
    {
      "anonymous": false,
      "inputs": [
        {
          "indexed": true,
          "internalType": "address",
          "name": "_new",
          "type": "address"
        },
        {
          "indexed": true,
          "internalType": "address",
          "name": "_old",
          "type": "address"
        }
      ],
      "name": "ProxyUpdated",
      "type": "event"
    },
    {
      "payable": true,
      "stateMutability": "payable",
      "type": "fallback"
    },
    {
      "constant": true,
      "inputs": [],
      "name": "proxyType",
      "outputs": [
        {
          "internalType": "uint256",
          "name": "proxyTypeId",
          "type": "uint256"
        }
      ],
      "payable": false,
      "stateMutability": "pure",
      "type": "function"
    },
    {
      "constant": true,
      "inputs": [],
      "name": "owner",
      "outputs": [
        {
          "internalType": "address",
          "name": "",
          "type": "address"
        }
      ],
      "payable": false,
      "stateMutability": "view",
      "type": "function"
    },
    {
      "constant": true,
      "inputs": [],
      "name": "implementation",
      "outputs": [
        {
          "internalType": "address",
          "name": "",
          "type": "address"
        }
      ],
      "payable": false,
      "stateMutability": "view",
      "type": "function"
    },
    {
      "constant": false,
      "inputs": [
        {
          "internalType": "address",
          "name": "newOwner",
          "type": "address"
        }
      ],
      "name": "transferOwnership",
      "outputs": [],
      "payable": false,
      "stateMutability": "nonpayable",
      "type": "function"
    },
    {
      "constant": false,
      "inputs": [
        {
          "internalType": "address",
          "name": "_newProxyTo",
          "type": "address"
        }
      ],
      "name": "updateImplementation",
      "outputs": [],
      "payable": false,
      "stateMutability": "nonpayable",
      "type": "function"
    },
    {
      "constant": false,
      "inputs": [
        {
          "internalType": "address",
          "name": "_newProxyTo",
          "type": "address"
        },
        {
          "internalType": "bytes",
          "name": "data",
          "type": "bytes"
        }
      ],
      "name": "updateAndCall",
      "outputs": [],
      "payable": true,
      "stateMutability": "payable",
      "type": "function"
    }
  ],
  "bytecode": "0x608060405234801561001057600080fd5b506040516108613803806108618339818101604052602081101561003357600080fd5b5051610047336001600160e01b0361005f16565b610059816001600160e01b0361009416565b506100b6565b604080517f6d617469632e6e6574776f726b2e70726f78792e6f776e6572000000000000008152905190819003601901902055565b6000604051808061083f60229139604051908190036022019020929092555050565b61077a806100c56000396000f3fe6080604052600436106100555760003560e01c8063025b22bc1461009f5780634555d5c9146100d25780635c60da1b146100f95780638da5cb5b1461012a578063d88ca2c81461013f578063f2fde38b146101f5575b61009d610060610228565b6000368080601f01602080910402602001604051908101604052809392919081815260200183838082843760009201919091525061024e92505050565b005b3480156100ab57600080fd5b5061009d600480360360208110156100c257600080fd5b50356001600160a01b0316610276565b3480156100de57600080fd5b506100e76103b0565b60408051918252519081900360200190f35b34801561010557600080fd5b5061010e6103b5565b604080516001600160a01b039092168252519081900360200190f35b34801561013657600080fd5b5061010e6103c4565b61009d6004803603604081101561015557600080fd5b6001600160a01b03823516919081019060408101602082013564010000000081111561018057600080fd5b82018360208201111561019257600080fd5b803590602001918460018302840111640100000000831117156101b457600080fd5b91908080601f0160208091040260200160405190810160405280939291908181526020018383808284376000920191909152509295506103ce945050505050565b34801561020157600080fd5b5061009d6004803603602081101561021857600080fd5b50356001600160a01b0316610564565b600080600060405180806107246022913960405190819003602201902054935050505090565b600080825160208401856127105a03f43d604051816000823e828015610272578282f35b8282fd5b3361027f610656565b6001600160a01b0316146102c6576040805162461bcd60e51b81526020600482015260096024820152682727aa2fa7aba722a960b91b604482015290519081900360640190fd5b6001600160a01b038116610319576040805162461bcd60e51b8152602060048201526015602482015274494e56414c49445f50524f58595f4144445245535360581b604482015290519081900360640190fd5b61032281610688565b61035d5760405162461bcd60e51b81526004018080602001828103825260258152602001806106ff6025913960400191505060405180910390fd5b610365610228565b6001600160a01b0316816001600160a01b03167fd32d24edea94f55e932d9a008afc425a8561462d1b1f57bc6e508e9a6b9509e160405160405180910390a36103ad816106ab565b50565b600290565b60006103bf610228565b905090565b60006103bf610656565b336103d7610656565b6001600160a01b03161461041e576040805162461bcd60e51b81526020600482015260096024820152682727aa2fa7aba722a960b91b604482015290519081900360640190fd5b61042782610276565b60006060306001600160a01b031634846040518082805190602001908083835b602083106104665780518252601f199092019160209182019101610447565b6001836020036101000a03801982511681845116808217855250505050505090500191505060006040518083038185875af1925050503d80600081146104c8576040519150601f19603f3d011682016040523d82523d6000602084013e6104cd565b606091505b509150915081819061055d5760405162461bcd60e51b81526004018080602001828103825283818151815260200191508051906020019080838360005b8381101561052257818101518382015260200161050a565b50505050905090810190601f16801561054f5780820380516001836020036101000a031916815260200191505b509250505060405180910390fd5b5050505050565b3361056d610656565b6001600160a01b0316146105b4576040805162461bcd60e51b81526020600482015260096024820152682727aa2fa7aba722a960b91b604482015290519081900360640190fd5b6001600160a01b0381166105fe576040805162461bcd60e51b815260206004820152600c60248201526b5a45524f5f4144445245535360a01b604482015290519081900360640190fd5b7f343765429aea5a34b3ff6a3785a98a5abb2597aca87bfbb58632c173d585373a81610628610656565b604080516001600160a01b03938416815291909216602082015281519081900390910190a16103ad816106cd565b604080517836b0ba34b1973732ba3bb7b93597383937bc3c9737bbb732b960391b815290519081900360190190205490565b60006001600160a01b0382166106a0575060006106a6565b50803b15155b919050565b6000604051808061072460229139604051908190036022019020929092555050565b604080517836b0ba34b1973732ba3bb7b93597383937bc3c9737bbb732b960391b815290519081900360190190205556fe44455354494e4154494f4e5f414444524553535f49535f4e4f545f415f434f4e54524143546d617469632e6e6574776f726b2e70726f78792e696d706c656d656e746174696f6ea265627a7a72315820b0a03bf4a038051b6f93d52d427f9aa82d46e7b5819f5ee530e6f4ee490e2f3d64736f6c634300051100326d617469632e6e6574776f726b2e70726f78792e696d706c656d656e746174696f6e",
  "source": "pragma solidity ^0.5.2;\n\nimport {DelegateProxy} from \"./DelegateProxy.sol\";\n\ncontract UpgradableProxy is DelegateProxy {\n    event ProxyUpdated(address indexed _new, address indexed _old);\n    event OwnerUpdate(address _new, address _old);\n\n    bytes32 constant IMPLEMENTATION_SLOT = keccak256(\"matic.network.proxy.implementation\");\n    bytes32 constant OWNER_SLOT = keccak256(\"matic.network.proxy.owner\");\n\n    constructor(address _proxyTo) public {\n        setOwner(msg.sender);\n        setImplementation(_proxyTo);\n    }\n\n    function() external payable {\n        // require(currentContract != 0, \"If app code has not been set yet, do not call\");\n        // Todo: filter out some calls or handle in the end fallback\n        delegatedFwd(loadImplementation(), msg.data);\n    }\n\n    modifier onlyProxyOwner() {\n        require(loadOwner() == msg.sender, \"NOT_OWNER\");\n        _;\n    }\n\n    function owner() external view returns(address) {\n        return loadOwner();\n    }\n\n    function loadOwner() internal view returns(address) {\n        address _owner;\n        bytes32 position = OWNER_SLOT;\n        assembly {\n            _owner := sload(position)\n        }\n        return _owner;\n    }\n\n    function implementation() external view returns (address) {\n        return loadImplementation();\n    }\n\n    function loadImplementation() internal view returns(address) {\n        address _impl;\n        bytes32 position = IMPLEMENTATION_SLOT;\n        assembly {\n            _impl := sload(position)\n        }\n        return _impl;\n    }\n\n    function transferOwnership(address newOwner) public onlyProxyOwner {\n        require(newOwner != address(0), \"ZERO_ADDRESS\");\n        emit OwnerUpdate(newOwner, loadOwner());\n        setOwner(newOwner);\n    }\n\n    function setOwner(address newOwner) private {\n        bytes32 position = OWNER_SLOT;\n        assembly {\n            sstore(position, newOwner)\n        }\n    }\n\n    function updateImplementation(address _newProxyTo) public onlyProxyOwner {\n        require(_newProxyTo != address(0x0), \"INVALID_PROXY_ADDRESS\");\n        require(isContract(_newProxyTo), \"DESTINATION_ADDRESS_IS_NOT_A_CONTRACT\");\n\n        emit ProxyUpdated(_newProxyTo, loadImplementation());\n        \n        setImplementation(_newProxyTo);\n    }\n\n    function updateAndCall(address _newProxyTo, bytes memory data) payable public onlyProxyOwner {\n        updateImplementation(_newProxyTo);\n\n        (bool success, bytes memory returnData) = address(this).call.value(msg.value)(data);\n        require(success, string(returnData));\n    }\n\n    function setImplementation(address _newProxyTo) private {\n        bytes32 position = IMPLEMENTATION_SLOT;\n        assembly {\n            sstore(position, _newProxyTo)\n        }\n    }\n}\n",
  "sourcePath": "/Users/ohm.jirapon/playground/blockhain/pos/plasma-ploygon/contracts/contracts/common/misc/UpgradableProxy.sol",
  "compiler": {
    "name": "solc",
    "version": "0.5.17+commit.d19bba13.Linux.g++"
  },
  "schemaVersion": "3.4.7",
  "updatedAt": "2022-07-08T08:23:54.093Z",
  "devdoc": {
    "methods": {}
  },
  "userdoc": {
    "methods": {}
  }
}