{
  "contractName": "ValidatorShare",
  "abi": [
    {
      "constant": false,
      "inputs": [
        {
          "internalType": "address",
          "name": "spender",
          "type": "address"
        },
        {
          "internalType": "uint256",
          "name": "value",
          "type": "uint256"
        }
      ],
      "name": "approve",
      "outputs": [
        {
          "internalType": "bool",
          "name": "",
          "type": "bool"
        }
      ],
      "payable": false,
      "stateMutability": "nonpayable",
      "type": "function"
    },
    {
      "constant": true,
      "inputs": [],
      "name": "lastCommissionUpdate",
      "outputs": [
        {
          "internalType": "uint256",
          "name": "",
          "type": "uint256"
        }
      ],
      "payable": false,
      "stateMutability": "view",
      "type": "function"
    },
    {
      "constant": true,
      "inputs": [],
      "name": "totalSupply",
      "outputs": [
        {
          "internalType": "uint256",
          "name": "",
          "type": "uint256"
        }
      ],
      "payable": false,
      "stateMutability": "view",
      "type": "function"
    },
    {
      "constant": false,
      "inputs": [
        {
          "internalType": "address",
          "name": "from",
          "type": "address"
        },
        {
          "internalType": "address",
          "name": "to",
          "type": "address"
        },
        {
          "internalType": "uint256",
          "name": "value",
          "type": "uint256"
        }
      ],
      "name": "transferFrom",
      "outputs": [
        {
          "internalType": "bool",
          "name": "",
          "type": "bool"
        }
      ],
      "payable": false,
      "stateMutability": "nonpayable",
      "type": "function"
    },
    {
      "constant": false,
      "inputs": [
        {
          "internalType": "address",
          "name": "spender",
          "type": "address"
        },
        {
          "internalType": "uint256",
          "name": "addedValue",
          "type": "uint256"
        }
      ],
      "name": "increaseAllowance",
      "outputs": [
        {
          "internalType": "bool",
          "name": "",
          "type": "bool"
        }
      ],
      "payable": false,
      "stateMutability": "nonpayable",
      "type": "function"
    },
    {
      "constant": true,
      "inputs": [],
      "name": "activeAmount",
      "outputs": [
        {
          "internalType": "uint256",
          "name": "",
          "type": "uint256"
        }
      ],
      "payable": false,
      "stateMutability": "view",
      "type": "function"
    },
    {
      "constant": true,
      "inputs": [],
      "name": "stakingLogger",
      "outputs": [
        {
          "internalType": "contract StakingInfo",
          "name": "",
          "type": "address"
        }
      ],
      "payable": false,
      "stateMutability": "view",
      "type": "function"
    },
    {
      "constant": true,
      "inputs": [],
      "name": "governance",
      "outputs": [
        {
          "internalType": "contract IGovernance",
          "name": "",
          "type": "address"
        }
      ],
      "payable": false,
      "stateMutability": "view",
      "type": "function"
    },
    {
      "constant": true,
      "inputs": [],
      "name": "withdrawPool",
      "outputs": [
        {
          "internalType": "uint256",
          "name": "",
          "type": "uint256"
        }
      ],
      "payable": false,
      "stateMutability": "view",
      "type": "function"
    },
    {
      "constant": true,
      "inputs": [],
      "name": "validatorId",
      "outputs": [
        {
          "internalType": "uint256",
          "name": "",
          "type": "uint256"
        }
      ],
      "payable": false,
      "stateMutability": "view",
      "type": "function"
    },
    {
      "constant": true,
      "inputs": [],
      "name": "validatorRewards",
      "outputs": [
        {
          "internalType": "uint256",
          "name": "",
          "type": "uint256"
        }
      ],
      "payable": false,
      "stateMutability": "view",
      "type": "function"
    },
    {
      "constant": true,
      "inputs": [],
      "name": "commissionRate",
      "outputs": [
        {
          "internalType": "uint256",
          "name": "",
          "type": "uint256"
        }
      ],
      "payable": false,
      "stateMutability": "view",
      "type": "function"
    },
    {
      "constant": true,
      "inputs": [
        {
          "internalType": "address",
          "name": "owner",
          "type": "address"
        }
      ],
      "name": "balanceOf",
      "outputs": [
        {
          "internalType": "uint256",
          "name": "",
          "type": "uint256"
        }
      ],
      "payable": false,
      "stateMutability": "view",
      "type": "function"
    },
    {
      "constant": false,
      "inputs": [],
      "name": "renounceOwnership",
      "outputs": [],
      "payable": false,
      "stateMutability": "nonpayable",
      "type": "function"
    },
    {
      "constant": true,
      "inputs": [],
      "name": "stakeManager",
      "outputs": [
        {
          "internalType": "contract IStakeManager",
          "name": "",
          "type": "address"
        }
      ],
      "payable": false,
      "stateMutability": "view",
      "type": "function"
    },
    {
      "constant": true,
      "inputs": [],
      "name": "totalStake",
      "outputs": [
        {
          "internalType": "uint256",
          "name": "",
          "type": "uint256"
        }
      ],
      "payable": false,
      "stateMutability": "view",
      "type": "function"
    },
    {
      "constant": true,
      "inputs": [],
      "name": "withdrawShares",
      "outputs": [
        {
          "internalType": "uint256",
          "name": "",
          "type": "uint256"
        }
      ],
      "payable": false,
      "stateMutability": "view",
      "type": "function"
    },
    {
      "constant": true,
      "inputs": [
        {
          "internalType": "address",
          "name": "",
          "type": "address"
        }
      ],
      "name": "delegators",
      "outputs": [
        {
          "internalType": "uint256",
          "name": "share",
          "type": "uint256"
        },
        {
          "internalType": "uint256",
          "name": "withdrawEpoch",
          "type": "uint256"
        }
      ],
      "payable": false,
      "stateMutability": "view",
      "type": "function"
    },
    {
      "constant": true,
      "inputs": [],
      "name": "owner",
      "outputs": [
        {
          "internalType": "address",
          "name": "",
          "type": "address"
        }
      ],
      "payable": false,
      "stateMutability": "view",
      "type": "function"
    },
    {
      "constant": true,
      "inputs": [],
      "name": "isOwner",
      "outputs": [
        {
          "internalType": "bool",
          "name": "",
          "type": "bool"
        }
      ],
      "payable": false,
      "stateMutability": "view",
      "type": "function"
    },
    {
      "constant": true,
      "inputs": [],
      "name": "minAmount",
      "outputs": [
        {
          "internalType": "uint256",
          "name": "",
          "type": "uint256"
        }
      ],
      "payable": false,
      "stateMutability": "view",
      "type": "function"
    },
    {
      "constant": true,
      "inputs": [],
      "name": "rewards",
      "outputs": [
        {
          "internalType": "uint256",
          "name": "",
          "type": "uint256"
        }
      ],
      "payable": false,
      "stateMutability": "view",
      "type": "function"
    },
    {
      "constant": false,
      "inputs": [
        {
          "internalType": "address",
          "name": "spender",
          "type": "address"
        },
        {
          "internalType": "uint256",
          "name": "subtractedValue",
          "type": "uint256"
        }
      ],
      "name": "decreaseAllowance",
      "outputs": [
        {
          "internalType": "bool",
          "name": "",
          "type": "bool"
        }
      ],
      "payable": false,
      "stateMutability": "nonpayable",
      "type": "function"
    },
    {
      "constant": false,
      "inputs": [],
      "name": "unlock",
      "outputs": [],
      "payable": false,
      "stateMutability": "nonpayable",
      "type": "function"
    },
    {
      "constant": false,
      "inputs": [
        {
          "internalType": "address",
          "name": "to",
          "type": "address"
        },
        {
          "internalType": "uint256",
          "name": "value",
          "type": "uint256"
        }
      ],
      "name": "transfer",
      "outputs": [
        {
          "internalType": "bool",
          "name": "",
          "type": "bool"
        }
      ],
      "payable": false,
      "stateMutability": "nonpayable",
      "type": "function"
    },
    {
      "constant": true,
      "inputs": [],
      "name": "locked",
      "outputs": [
        {
          "internalType": "bool",
          "name": "",
          "type": "bool"
        }
      ],
      "payable": false,
      "stateMutability": "view",
      "type": "function"
    },
    {
      "constant": true,
      "inputs": [
        {
          "internalType": "address",
          "name": "owner",
          "type": "address"
        },
        {
          "internalType": "address",
          "name": "spender",
          "type": "address"
        }
      ],
      "name": "allowance",
      "outputs": [
        {
          "internalType": "uint256",
          "name": "",
          "type": "uint256"
        }
      ],
      "payable": false,
      "stateMutability": "view",
      "type": "function"
    },
    {
      "constant": true,
      "inputs": [],
      "name": "delegation",
      "outputs": [
        {
          "internalType": "bool",
          "name": "",
          "type": "bool"
        }
      ],
      "payable": false,
      "stateMutability": "view",
      "type": "function"
    },
    {
      "constant": true,
      "inputs": [
        {
          "internalType": "address",
          "name": "",
          "type": "address"
        }
      ],
      "name": "amountStaked",
      "outputs": [
        {
          "internalType": "uint256",
          "name": "",
          "type": "uint256"
        }
      ],
      "payable": false,
      "stateMutability": "view",
      "type": "function"
    },
    {
      "constant": false,
      "inputs": [
        {
          "internalType": "address",
          "name": "newOwner",
          "type": "address"
        }
      ],
      "name": "transferOwnership",
      "outputs": [],
      "payable": false,
      "stateMutability": "nonpayable",
      "type": "function"
    },
    {
      "constant": false,
      "inputs": [],
      "name": "lock",
      "outputs": [],
      "payable": false,
      "stateMutability": "nonpayable",
      "type": "function"
    },
    {
      "inputs": [
        {
          "internalType": "address",
          "name": "_registry",
          "type": "address"
        },
        {
          "internalType": "uint256",
          "name": "_validatorId",
          "type": "uint256"
        },
        {
          "internalType": "address",
          "name": "_stakingLogger",
          "type": "address"
        },
        {
          "internalType": "address",
          "name": "_stakeManager",
          "type": "address"
        }
      ],
      "payable": false,
      "stateMutability": "nonpayable",
      "type": "constructor"
    },
    {
      "anonymous": false,
      "inputs": [
        {
          "indexed": true,
          "internalType": "address",
          "name": "from",
          "type": "address"
        },
        {
          "indexed": true,
          "internalType": "address",
          "name": "to",
          "type": "address"
        },
        {
          "indexed": false,
          "internalType": "uint256",
          "name": "value",
          "type": "uint256"
        }
      ],
      "name": "Transfer",
      "type": "event"
    },
    {
      "anonymous": false,
      "inputs": [
        {
          "indexed": true,
          "internalType": "address",
          "name": "owner",
          "type": "address"
        },
        {
          "indexed": true,
          "internalType": "address",
          "name": "spender",
          "type": "address"
        },
        {
          "indexed": false,
          "internalType": "uint256",
          "name": "value",
          "type": "uint256"
        }
      ],
      "name": "Approval",
      "type": "event"
    },
    {
      "anonymous": false,
      "inputs": [
        {
          "indexed": true,
          "internalType": "address",
          "name": "previousOwner",
          "type": "address"
        },
        {
          "indexed": true,
          "internalType": "address",
          "name": "newOwner",
          "type": "address"
        }
      ],
      "name": "OwnershipTransferred",
      "type": "event"
    },
    {
      "constant": false,
      "inputs": [
        {
          "internalType": "uint256",
          "name": "newCommissionRate",
          "type": "uint256"
        }
      ],
      "name": "updateCommissionRate",
      "outputs": [],
      "payable": false,
      "stateMutability": "nonpayable",
      "type": "function"
    },
    {
      "constant": false,
      "inputs": [],
      "name": "withdrawRewardsValidator",
      "outputs": [
        {
          "internalType": "uint256",
          "name": "",
          "type": "uint256"
        }
      ],
      "payable": false,
      "stateMutability": "nonpayable",
      "type": "function"
    },
    {
      "constant": true,
      "inputs": [],
      "name": "exchangeRate",
      "outputs": [
        {
          "internalType": "uint256",
          "name": "",
          "type": "uint256"
        }
      ],
      "payable": false,
      "stateMutability": "view",
      "type": "function"
    },
    {
      "constant": true,
      "inputs": [],
      "name": "withdrawExchangeRate",
      "outputs": [
        {
          "internalType": "uint256",
          "name": "",
          "type": "uint256"
        }
      ],
      "payable": false,
      "stateMutability": "view",
      "type": "function"
    },
    {
      "constant": false,
      "inputs": [
        {
          "internalType": "uint256",
          "name": "_amount",
          "type": "uint256"
        },
        {
          "internalType": "uint256",
          "name": "_minSharesToMint",
          "type": "uint256"
        }
      ],
      "name": "buyVoucher",
      "outputs": [],
      "payable": false,
      "stateMutability": "nonpayable",
      "type": "function"
    },
    {
      "constant": false,
      "inputs": [
        {
          "internalType": "uint256",
          "name": "_minClaimAmount",
          "type": "uint256"
        }
      ],
      "name": "sellVoucher",
      "outputs": [],
      "payable": false,
      "stateMutability": "nonpayable",
      "type": "function"
    },
    {
      "constant": false,
      "inputs": [],
      "name": "withdrawRewards",
      "outputs": [],
      "payable": false,
      "stateMutability": "nonpayable",
      "type": "function"
    },
    {
      "constant": false,
      "inputs": [],
      "name": "restake",
      "outputs": [],
      "payable": false,
      "stateMutability": "nonpayable",
      "type": "function"
    },
    {
      "constant": true,
      "inputs": [
        {
          "internalType": "address",
          "name": "user",
          "type": "address"
        }
      ],
      "name": "getLiquidRewards",
      "outputs": [
        {
          "internalType": "uint256",
          "name": "",
          "type": "uint256"
        }
      ],
      "payable": false,
      "stateMutability": "view",
      "type": "function"
    },
    {
      "constant": false,
      "inputs": [],
      "name": "unstakeClaimTokens",
      "outputs": [],
      "payable": false,
      "stateMutability": "nonpayable",
      "type": "function"
    },
    {
      "constant": false,
      "inputs": [
        {
          "internalType": "uint256",
          "name": "valPow",
          "type": "uint256"
        },
        {
          "internalType": "uint256",
          "name": "totalAmountToSlash",
          "type": "uint256"
        }
      ],
      "name": "slash",
      "outputs": [
        {
          "internalType": "uint256",
          "name": "",
          "type": "uint256"
        }
      ],
      "payable": false,
      "stateMutability": "nonpayable",
      "type": "function"
    },
    {
      "constant": false,
      "inputs": [
        {
          "internalType": "address",
          "name": "token",
          "type": "address"
        },
        {
          "internalType": "address payable",
          "name": "destination",
          "type": "address"
        },
        {
          "internalType": "uint256",
          "name": "amount",
          "type": "uint256"
        }
      ],
      "name": "drain",
      "outputs": [],
      "payable": false,
      "stateMutability": "nonpayable",
      "type": "function"
    },
    {
      "constant": false,
      "inputs": [],
      "name": "unlockContract",
      "outputs": [
        {
          "internalType": "uint256",
          "name": "",
          "type": "uint256"
        }
      ],
      "payable": false,
      "stateMutability": "nonpayable",
      "type": "function"
    },
    {
      "constant": false,
      "inputs": [],
      "name": "lockContract",
      "outputs": [
        {
          "internalType": "uint256",
          "name": "",
          "type": "uint256"
        }
      ],
      "payable": false,
      "stateMutability": "nonpayable",
      "type": "function"
    }
  ],
  "bytecode": "0x6080604052670de0b6b3a7640000600c556010805460ff1916600117905534801561002957600080fd5b506040516123143803806123148339818101604052608081101561004c57600080fd5b5080516020820151604080840151606090940151600080546001600160a01b03191633178082559251949593949192839283926001600160a01b039290921691907f8be0079c531659141344cd1fd0a4f28419497f9722a3daafe3b4186f6b6457e0908290a3600580546001600160a01b039092166001600160a01b0319909216919091179055505050505061222d806100e76000396000f3fe608060405234801561001057600080fd5b506004361061027e5760003560e01c8063753868e31161015c578063a457c2d7116100ce578063cf30901211610087578063cf309012146105be578063dd62ed3e146105c6578063df5cf723146105f4578063ef40a670146105fc578063f2fde38b14610622578063f83d08ba146106485761027e565b8063a457c2d714610518578063a69df4b514610544578063a9059cbb1461054c578063abf59fc914610578578063bfb18f29146105ae578063c7b8981c146105b65761027e565b80638d23fc61116101205780638d23fc61146104965780638da5cb5b146104d55780638f32d59b146104dd5780639b2cb5d8146104e55780639ec5a894146104ed578063a22a6428146104f55761027e565b8063753868e31461046e5780637542ff95146104765780638b0e9f3f1461047e5780638d086da4146104865780638d16a14a1461048e5761027e565b80634f91440d116101f55780635ea1d6f8116101b95780635ea1d6f8146103d2578063676e5550146103da5780636ab15071146104005780636c7518971461042357806370a0823114610440578063715018a6146104665761027e565b80634f91440d146103aa5780635aa6e675146103b25780635c42c733146103ba5780635c5f7dae146103c25780635d1e3616146103ca5761027e565b806323b872dd1161024757806323b872dd1461030c57806332ba2e5314610342578063395093511461034a5780633a09bf44146103765780633ba0b9a91461037e5780633d94eb05146103865761027e565b8062fa3d5014610283578063095ea7b3146102a25780630d58a5f3146102e257806318160ddd146102fc57806322f0f2f914610304575b600080fd5b6102a06004803603602081101561029957600080fd5b5035610650565b005b6102ce600480360360408110156102b857600080fd5b506001600160a01b0381351690602001356108e4565b604080519115158252519081900360200190f35b6102ea6108fb565b60408051918252519081900360200190f35b6102ea610901565b6102ea610907565b6102ce6004803603606081101561032257600080fd5b506001600160a01b0381358116916020810135909116906040013561092e565b6102ea610985565b6102ce6004803603604081101561036057600080fd5b506001600160a01b0381351690602001356109a5565b6102ea6109e1565b6102ea6109e7565b61038e610a40565b604080516001600160a01b039092168252519081900360200190f35b6102a0610a4f565b61038e610c7f565b6102ea610c8e565b6102ea610c94565b6102ea610c9a565b6102ea610ca0565b6102ea600480360360208110156103f057600080fd5b50356001600160a01b0316610ca6565b6102a06004803603604081101561041657600080fd5b5080359060200135610d19565b6102a06004803603602081101561043957600080fd5b50356110db565b6102ea6004803603602081101561045657600080fd5b50356001600160a01b031661150b565b6102a0611526565b6102ea611581565b61038e6115ae565b6102ea6115bd565b6102ea6115c3565b6102a06115c9565b6104bc600480360360208110156104ac57600080fd5b50356001600160a01b03166118e8565b6040805192835260208301919091528051918290030190f35b61038e611901565b6102ce611910565b6102ea611921565b6102ea611927565b6102ea6004803603604081101561050b57600080fd5b508035906020013561192d565b6102ce6004803603604081101561052e57600080fd5b506001600160a01b0381351690602001356119ec565b6102a0611a28565b6102ce6004803603604081101561056257600080fd5b506001600160a01b038135169060200135611a80565b6102a06004803603606081101561058e57600080fd5b506001600160a01b03813581169160208101359091169060400135611a8d565b6102ea611bb9565b6102a0611bdf565b6102ce611db8565b6102ea600480360360408110156105dc57600080fd5b506001600160a01b0381358116916020013516611dc8565b6102ce611df3565b6102ea6004803603602081101561061257600080fd5b50356001600160a01b0316611dfc565b6102a06004803603602081101561063857600080fd5b50356001600160a01b0316611e0e565b6102a0611e2b565b600754600854604080516331a9108f60e11b815260048101929092525133926001600160a01b031691636352211e916024808301926020929190829003018186803b15801561069e57600080fd5b505afa1580156106b2573d6000803e3d6000fd5b505050506040513d60208110156106c857600080fd5b50516001600160a01b0316146106dd57600080fd5b6007546040805163900cf0cf60e01b815290516000926001600160a01b03169163900cf0cf916004808301926020929190829003018186803b15801561072257600080fd5b505afa158015610736573d6000803e3d6000fd5b505050506040513d602081101561074c57600080fd5b5051600b546007546040805163a7ab696160e01b81529051939450919284926107d8926001600160a01b03169163a7ab696191600480820192602092909190829003018186803b15801561079f57600080fd5b505afa1580156107b3573d6000803e3d6000fd5b505050506040513d60208110156107c957600080fd5b5051839063ffffffff611e8916565b1115806107e3575080155b61081e5760405162461bcd60e51b81526004018080602001828103825260268152602001806121ad6026913960400191505060405180910390fd5b606483111561085e5760405162461bcd60e51b815260040180806020018281038252602b815260200180612182602b913960400191505060405180910390fd5b600654600854600a54604080516364c6600160e11b81526004810193909352602483018790526044830191909152516001600160a01b039092169163c98cc0029160648082019260009290919082900301818387803b1580156108c057600080fd5b505af11580156108d4573d6000803e3d6000fd5b505050600a9390935550600b5550565b60006108f1338484611ea2565b5060015b92915050565b600b5481565b60045490565b6000610911611910565b61091a57600080fd5b506005805460ff60a01b19169055600f5490565b600061093b848484611f2a565b6001600160a01b03841660009081526003602090815260408083203380855292529091205461097b918691610976908663ffffffff611f6216565b611ea2565b5060019392505050565b600061098f611910565b61099857600080fd5b5060098054600090915590565b3360008181526003602090815260408083206001600160a01b038716845290915281205490916108f1918590610976908663ffffffff611e8916565b600f5481565b6000806109f2610901565b90508015610a3757610a3281610a266064610a1a600e54600f54611e8990919063ffffffff16565b9063ffffffff611f7716565b9063ffffffff611f9e16565b610a3a565b60645b91505090565b6006546001600160a01b031681565b6000610a5a33610ca6565b9050600c54811015610ab3576040805162461bcd60e51b815260206004820152601c60248201527f546f6f20736d616c6c207265776172647320746f2072657374616b6500000000604482015290519081900360640190fd5b33600090815260136020526040902054610ad3908263ffffffff611e8916565b33600090815260136020526040902055600d54610af6908263ffffffff611e8916565b600d55600f54610b0c908263ffffffff611e8916565b600f5560075460085460408051629ff11560e81b8152600481019290925260248201849052516001600160a01b0390921691639ff115009160448082019260009290919082900301818387803b158015610b6557600080fd5b505af1158015610b79573d6000803e3d6000fd5b5050600e54610b91925090508263ffffffff611f6216565b600e556006546008546040805163532e19a960e01b81526004810192909252516001600160a01b0390921691829163532e19a991602480830192600092919082900301818387803b158015610be557600080fd5b505af1158015610bf9573d6000803e3d6000fd5b505060085433600081815260136020526040808220548151637f88a95760e01b815260048101959095526024850193909352604484019290925290516001600160a01b0386169450637f88a957935060648084019382900301818387803b158015610c6357600080fd5b505af1158015610c77573d6000803e3d6000fd5b505050505050565b6005546001600160a01b031681565b60115481565b60085481565b60095481565b600a5481565b600080610cb28361150b565b905080610cc3576000915050610d14565b600080610cd76064610a2685610a1a6109e7565b6001600160a01b038616600090815260136020526040902054909150808210610d0d57610d0a828263ffffffff611f6216565b92505b5090925050505b919050565b600554600160a01b900460ff1615610d64576040805162461bcd60e51b8152602060048201526009602482015268125cc8131bd8dad95960ba1b604482015290519081900360640190fd5b6000610d6e6109e7565b90506000610d8782610a2686606463ffffffff611f7716565b905082811015610dd2576040805162461bcd60e51b8152602060048201526011602482015270546f6f206d75636820736c69707061676560781b604482015290519081900360640190fd5b3360009081526014602052604090205415610e23576040805162461bcd60e51b815260206004820152600c60248201526b13db99dbda5b99c8195e1a5d60a21b604482015290519081900360640190fd5b610e2d3382611fc0565b610e5c610e456064610a26858563ffffffff611f7716565b8581610e4d57fe5b8691900663ffffffff611f6216565b600d54909450610e72908563ffffffff611e8916565b600d5533600090815260136020526040902054610e95908563ffffffff611e8916565b336000818152601360209081526040808320949094556007546008548551636901b25360e01b81526004810191909152602481018a9052604481019490945293516001600160a01b0390941693636901b25393606480820194918390030190829087803b158015610f0557600080fd5b505af1158015610f19573d6000803e3d6000fd5b505050506040513d6020811015610f2f57600080fd5b5051610f73576040805162461bcd60e51b815260206004820152600e60248201526d19195c1bdcda5d0819985a5b195960921b604482015290519081900360640190fd5b600f54610f86908563ffffffff611e8916565b600f5560075460085460408051629ff11560e81b8152600481019290925260248201879052516001600160a01b0390921691639ff115009160448082019260009290919082900301818387803b158015610fdf57600080fd5b505af1158015610ff3573d6000803e3d6000fd5b50506006546008546040805163c69d057360e01b815260048101929092523360248301526044820189905260648201869052516001600160a01b03909216935083925063c69d057391608480830192600092919082900301818387803b15801561105c57600080fd5b505af1158015611070573d6000803e3d6000fd5b50505050806001600160a01b031663532e19a96008546040518263ffffffff1660e01b815260040180828152602001915050600060405180830381600087803b1580156110bc57600080fd5b505af11580156110d0573d6000803e3d6000fd5b505050505050505050565b60006110e63361150b565b90506000811161112c576040805162461bcd60e51b815260206004820152600c60248201526b5a65726f2062616c616e636560a01b604482015290519081900360640190fd5b60006111366109e7565b9050600061114f6064610a26848663ffffffff611f7716565b90508381101561119a576040805162461bcd60e51b8152602060048201526011602482015270546f6f206d75636820736c69707061676560781b604482015290519081900360640190fd5b6111a4338461206a565b60075460085460408051629ff11560e81b815260048101929092526000848103602484015290516001600160a01b0390931692639ff1150092604480820193929182900301818387803b1580156111fa57600080fd5b505af115801561120e573d6000803e3d6000fd5b5050336000908152601360205260409020549150508082111561131657600061123d838363ffffffff611f6216565b6007546008546040805163bc8756a960e01b8152600481019290925260248201849052336044830152519293506001600160a01b039091169163bc8756a9916064808201926020929091908290030181600087803b15801561129e57600080fd5b505af11580156112b2573d6000803e3d6000fd5b505050506040513d60208110156112c857600080fd5b5051611311576040805162461bcd60e51b8152602060048201526013602482015272496e737566666963656e74207265776172647360681b604482015290519081900360640190fd5b819250505b600f54611329908363ffffffff611f6216565b600f55600061134a611339611bb9565b610a2685606463ffffffff611f7716565b601154909150611360908463ffffffff611e8916565b601155601254611376908263ffffffff611e8916565b601255604080518082018252828152600754825163900cf0cf60e01b8152925191926020808501936001600160a01b039093169263900cf0cf926004808201939291829003018186803b1580156113cc57600080fd5b505afa1580156113e0573d6000803e3d6000fd5b505050506040513d60208110156113f657600080fd5b50519052336000818152601460209081526040808320855181559482015160019095019490945560139052828120819055600654600854845163f1382b5360e01b815260048101919091526024810193909352604483018790526064830189905292516001600160a01b0390931692839263f1382b5392608480830193919282900301818387803b15801561148a57600080fd5b505af115801561149e573d6000803e3d6000fd5b50505050806001600160a01b031663532e19a96008546040518263ffffffff1660e01b815260040180828152602001915050600060405180830381600087803b1580156114ea57600080fd5b505af11580156114fe573d6000803e3d6000fd5b5050505050505050505050565b6001600160a01b031660009081526002602052604090205490565b61152e611910565b61153757600080fd5b600080546040516001600160a01b03909116907f8be0079c531659141344cd1fd0a4f28419497f9722a3daafe3b4186f6b6457e0908390a3600080546001600160a01b0319169055565b600061158b611910565b61159457600080fd5b506005805460ff60a01b1916600160a01b179055600f5490565b6007546001600160a01b031681565b600d5481565b60125481565b336000908152601460209081526040918290208054600754845163900cf0cf60e01b81529451929491936001600160a01b039091169263900cf0cf926004808201939291829003018186803b15801561162157600080fd5b505afa158015611635573d6000803e3d6000fd5b505050506040513d602081101561164b57600080fd5b50516007546040805163a7ab696160e01b815290516116d0926001600160a01b03169163a7ab6961916004808301926020929190829003018186803b15801561169357600080fd5b505afa1580156116a7573d6000803e3d6000fd5b505050506040513d60208110156116bd57600080fd5b505160018501549063ffffffff611e8916565b111580156116de5750600081115b61172f576040805162461bcd60e51b815260206004820152601c60248201527f496e636f6d706c657465207769746864726177616c20706572696f6400000000604482015290519081900360640190fd5b60006117426064610a2684610a1a611bb9565b601254909150611758908363ffffffff611f6216565b60125560115461176e908263ffffffff611f6216565b601155600d54611784908263ffffffff611f6216565b600d556007546008546040805163bc8756a960e01b8152600481019290925260248201849052336044830152516001600160a01b039092169163bc8756a9916064808201926020929091908290030181600087803b1580156117e557600080fd5b505af11580156117f9573d6000803e3d6000fd5b505050506040513d602081101561180f57600080fd5b5051611858576040805162461bcd60e51b8152602060048201526013602482015272496e737566666963656e74207265776172647360681b604482015290519081900360640190fd5b6006546008546040805163302df4df60e11b8152600481019290925233602483015260448201849052516001600160a01b039092169163605be9be9160648082019260009290919082900301818387803b1580156118b557600080fd5b505af11580156118c9573d6000803e3d6000fd5b5050336000908152601460205260408120818155600101555050505050565b6014602052600090815260409020805460019091015482565b6000546001600160a01b031690565b6000546001600160a01b0316331490565b600c5481565b600e5481565b6000611937611910565b61194057600080fd5b601154600f54600090611959908363ffffffff611e8916565b90508061196b576000925050506108f5565b6000611990611980878463ffffffff611e8916565b610a26848863ffffffff611f7716565b905060006119a883610a26868563ffffffff611f7716565b90506119ba848263ffffffff611f6216565b6011556119df6119d0838363ffffffff611f6216565b600f549063ffffffff611f6216565b600f555095945050505050565b3360008181526003602090815260408083206001600160a01b038716845290915281205490916108f1918590610976908663ffffffff611f6216565b6005546001600160a01b03163314611a715760405162461bcd60e51b81526004018080602001828103825260268152602001806121d36026913960400191505060405180910390fd5b6005805460ff60a01b19169055565b60006108f1338484611f2a565b611a95611910565b611a9e57600080fd5b6001600160a01b038316611ae8576040516001600160a01b0383169082156108fc029083906000818181858888f19350505050158015611ae2573d6000803e3d6000fd5b50611bb4565b826001600160a01b031663a9059cbb83836040518363ffffffff1660e01b815260040180836001600160a01b03166001600160a01b0316815260200182815260200192505050602060405180830381600087803b158015611b4857600080fd5b505af1158015611b5c573d6000803e3d6000fd5b505050506040513d6020811015611b7257600080fd5b5051611bb4576040805162461bcd60e51b815260206004820152600c60248201526b111c985a5b8819985a5b195960a21b604482015290519081900360640190fd5b505050565b6012546000908015610a3757610a3281610a266064601154611f7790919063ffffffff16565b6000611bea33610ca6565b9050600c54811015611c43576040805162461bcd60e51b815260206004820152601860248201527f546f6f20736d616c6c207265776172647320616d6f756e740000000000000000604482015290519081900360640190fd5b6000611c61611c506109e7565b610a2684606463ffffffff611f7716565b9050611c6d338261206a565b600e54611c80908363ffffffff611f6216565b600e556007546008546040805163bc8756a960e01b8152600481019290925260248201859052336044830152516001600160a01b039092169163bc8756a9916064808201926020929091908290030181600087803b158015611ce157600080fd5b505af1158015611cf5573d6000803e3d6000fd5b505050506040513d6020811015611d0b57600080fd5b5051611d54576040805162461bcd60e51b8152602060048201526013602482015272496e737566666963656e74207265776172647360681b604482015290519081900360640190fd5b60065460085460408051633c51fae560e11b815260048101929092523360248301526044820185905260648201849052516001600160a01b03909216916378a3f5ca9160848082019260009290919082900301818387803b158015610c6357600080fd5b600554600160a01b900460ff1681565b6001600160a01b03918216600090815260036020908152604080832093909416825291909152205490565b60105460ff1681565b60136020526000908152604090205481565b611e16611910565b611e1f57600080fd5b611e2881612113565b50565b6005546001600160a01b03163314611e745760405162461bcd60e51b81526004018080602001828103825260268152602001806121d36026913960400191505060405180910390fd5b6005805460ff60a01b1916600160a01b179055565b600082820183811015611e9b57600080fd5b9392505050565b6001600160a01b038216611eb557600080fd5b6001600160a01b038316611ec857600080fd5b6001600160a01b03808416600081815260036020908152604080832094871680845294825291829020859055815185815291517f8c5be1e5ebec7d5bd14f71427d1e84f3dd0314c0f7b2291e5b200ac8c7c3b9259281900390910190a3505050565b6040805162461bcd60e51b8152602060048201526008602482015267111a5cd8589b195960c21b604482015290519081900360640190fd5b600082821115611f7157600080fd5b50900390565b600082611f86575060006108f5565b82820282848281611f9357fe5b0414611e9b57600080fd5b6000808211611fac57600080fd5b6000828481611fb757fe5b04949350505050565b6001600160a01b038216611fd357600080fd5b600454611fe6908263ffffffff611e8916565b6004556001600160a01b038216600090815260026020526040902054612012908263ffffffff611e8916565b6001600160a01b03831660008181526002602090815260408083209490945583518581529351929391927fddf252ad1be2c89b69c2b068fc378daa952ba7f163c4a11628f55a4df523b3ef9281900390910190a35050565b6001600160a01b03821661207d57600080fd5b600454612090908263ffffffff611f6216565b6004556001600160a01b0382166000908152600260205260409020546120bc908263ffffffff611f6216565b6001600160a01b0383166000818152600260209081526040808320949094558351858152935191937fddf252ad1be2c89b69c2b068fc378daa952ba7f163c4a11628f55a4df523b3ef929081900390910190a35050565b6001600160a01b03811661212657600080fd5b600080546040516001600160a01b03808516939216917f8be0079c531659141344cd1fd0a4f28419497f9722a3daafe3b4186f6b6457e091a3600080546001600160a01b0319166001600160a01b039290921691909117905556fe436f6d6d697373696f6e20726174652073686f756c6420626520696e2072616e6765206f6620302d313030436f6d6d697373696f6e20726174652075706461746520636f6f6c646f776e20706572696f644f6e6c7920676f7665726e616e636520636f6e747261637420697320617574686f72697a6564a265627a7a72315820a9c978bab6eeac43bf7e9976bfd7a42054e5df8d8b3eb2263355e4dfbb41f93364736f6c634300050b0032",
  "source": "pragma solidity ^0.5.2;\nimport {ERC20} from \"openzeppelin-solidity/contracts/token/ERC20/ERC20.sol\";\n\nimport {Registry} from \"../../common/Registry.sol\";\nimport {ValidatorShareStorage} from \"./ValidatorShareStorage.sol\";\nimport {StakingInfo} from \"./../StakingInfo.sol\";\nimport {Lockable} from \"../../common/mixin/Lockable.sol\";\n\n\ncontract ValidatorShare is ValidatorShareStorage {\n    modifier onlyValidator() {\n        require(stakeManager.ownerOf(validatorId) == msg.sender);\n        _;\n    }\n\n    constructor(\n        address _registry,\n        uint256 _validatorId,\n        address _stakingLogger,\n        address _stakeManager\n    ) public Lockable(_stakeManager) {} // dummy constructor\n\n    function updateCommissionRate(uint256 newCommissionRate) external onlyValidator {\n        uint256 epoch = stakeManager.epoch();\n        uint256 _lastCommissionUpdate = lastCommissionUpdate;\n\n        require( // withdrawalDelay == dynasty\n            (_lastCommissionUpdate.add(stakeManager.withdrawalDelay()) <= epoch) || _lastCommissionUpdate == 0, // For initial setting of commission rate\n            \"Commission rate update cooldown period\"\n        );\n\n        require(newCommissionRate <= 100, \"Commission rate should be in range of 0-100\");\n        stakingLogger.logUpdateCommissionRate(validatorId, newCommissionRate, commissionRate);\n        commissionRate = newCommissionRate;\n        lastCommissionUpdate = epoch;\n    }\n\n    function withdrawRewardsValidator() external onlyOwner returns (uint256) {\n        uint256 _validatorRewards = validatorRewards;\n        validatorRewards = 0;\n        return _validatorRewards;\n    }\n\n    function exchangeRate() public view returns (uint256) {\n        uint256 totalStaked = totalSupply();\n        return\n            totalStaked == 0\n                ? EXCHANGE_RATE_PRECISION\n                : activeAmount.add(rewards).mul(EXCHANGE_RATE_PRECISION).div(totalStaked);\n    }\n\n    function withdrawExchangeRate() public view returns (uint256) {\n        uint256 _withdrawShares = withdrawShares;\n        return\n            _withdrawShares == 0\n                ? EXCHANGE_RATE_PRECISION\n                : withdrawPool.mul(EXCHANGE_RATE_PRECISION).div(_withdrawShares);\n    }\n\n    function buyVoucher(uint256 _amount, uint256 _minSharesToMint) public onlyWhenUnlocked {\n        uint256 rate = exchangeRate();\n        uint256 share = _amount.mul(EXCHANGE_RATE_PRECISION).div(rate);\n        require(share >= _minSharesToMint, \"Too much slippage\");\n\n        require(delegators[msg.sender].share == 0, \"Ongoing exit\");\n\n        _mint(msg.sender, share);\n        _amount = _amount.sub(_amount % rate.mul(share).div(EXCHANGE_RATE_PRECISION));\n\n        totalStake = totalStake.add(_amount);\n        amountStaked[msg.sender] = amountStaked[msg.sender].add(_amount);\n        require(stakeManager.delegationDeposit(validatorId, _amount, msg.sender), \"deposit failed\");\n\n        activeAmount = activeAmount.add(_amount);\n        stakeManager.updateValidatorState(validatorId, int256(_amount));\n\n        StakingInfo logger = stakingLogger;\n        logger.logShareMinted(validatorId, msg.sender, _amount, share);\n        logger.logStakeUpdate(validatorId);\n    }\n\n    function sellVoucher(uint256 _minClaimAmount) public {\n        uint256 share = balanceOf(msg.sender);\n        require(share > 0, \"Zero balance\");\n        uint256 rate = exchangeRate();\n        uint256 _amount = rate.mul(share).div(EXCHANGE_RATE_PRECISION);\n        require(_amount >= _minClaimAmount, \"Too much slippage\");\n        _burn(msg.sender, share);\n        stakeManager.updateValidatorState(validatorId, -int256(_amount));\n\n        uint256 userStake = amountStaked[msg.sender];\n\n        if (_amount > userStake) {\n            uint256 _rewards = _amount.sub(userStake);\n            //withdrawTransfer\n            require(stakeManager.transferFunds(validatorId, _rewards, msg.sender), \"Insufficent rewards\");\n            _amount = userStake;\n        }\n\n        activeAmount = activeAmount.sub(_amount);\n        uint256 _withdrawPoolShare = _amount.mul(EXCHANGE_RATE_PRECISION).div(withdrawExchangeRate());\n\n        withdrawPool = withdrawPool.add(_amount);\n        withdrawShares = withdrawShares.add(_withdrawPoolShare);\n        delegators[msg.sender] = Delegator({share: _withdrawPoolShare, withdrawEpoch: stakeManager.epoch()});\n        amountStaked[msg.sender] = 0;\n\n        StakingInfo logger = stakingLogger;\n        logger.logShareBurned(validatorId, msg.sender, _amount, share);\n        logger.logStakeUpdate(validatorId);\n    }\n\n    function withdrawRewards() public {\n        uint256 liquidRewards = getLiquidRewards(msg.sender);\n        require(liquidRewards >= minAmount, \"Too small rewards amount\");\n        uint256 sharesToBurn = liquidRewards.mul(EXCHANGE_RATE_PRECISION).div(exchangeRate());\n        _burn(msg.sender, sharesToBurn);\n        rewards = rewards.sub(liquidRewards);\n        require(stakeManager.transferFunds(validatorId, liquidRewards, msg.sender), \"Insufficent rewards\");\n        stakingLogger.logDelegatorClaimRewards(validatorId, msg.sender, liquidRewards, sharesToBurn);\n    }\n\n    function restake() public {\n        /**\n        restaking is simply buying more shares of pool\n        but those needs to be nonswapable/transferrable to prevent https://en.wikipedia.org/wiki/Tragedy_of_the_commons\n\n        - only active amount is considers as active stake\n        - move reward amount to active stake pool\n        - no shares are minted\n        */\n        uint256 liquidRewards = getLiquidRewards(msg.sender);\n        require(liquidRewards >= minAmount, \"Too small rewards to restake\");\n\n        amountStaked[msg.sender] = amountStaked[msg.sender].add(liquidRewards);\n        totalStake = totalStake.add(liquidRewards);\n        activeAmount = activeAmount.add(liquidRewards);\n        stakeManager.updateValidatorState(validatorId, int256(liquidRewards));\n        rewards = rewards.sub(liquidRewards);\n\n        StakingInfo logger = stakingLogger;\n        logger.logStakeUpdate(validatorId);\n        logger.logDelegatorRestaked(validatorId, msg.sender, amountStaked[msg.sender]);\n    }\n\n    function getLiquidRewards(address user) public view returns (uint256) {\n        uint256 share = balanceOf(user);\n        if (share == 0) {\n            return 0;\n        }\n\n        uint256 liquidRewards;\n        uint256 totalTokens = exchangeRate().mul(share).div(EXCHANGE_RATE_PRECISION);\n        uint256 stake = amountStaked[user];\n        if (totalTokens >= stake) {\n            liquidRewards = totalTokens.sub(stake);\n        }\n\n        return liquidRewards;\n    }\n\n    function unstakeClaimTokens() public {\n        Delegator storage delegator = delegators[msg.sender];\n\n        uint256 share = delegator.share;\n        require(\n            delegator.withdrawEpoch.add(stakeManager.withdrawalDelay()) <= stakeManager.epoch() && share > 0,\n            \"Incomplete withdrawal period\"\n        );\n\n        uint256 _amount = withdrawExchangeRate().mul(share).div(EXCHANGE_RATE_PRECISION);\n        withdrawShares = withdrawShares.sub(share);\n        withdrawPool = withdrawPool.sub(_amount);\n\n        totalStake = totalStake.sub(_amount);\n\n        require(stakeManager.transferFunds(validatorId, _amount, msg.sender), \"Insufficent rewards\");\n        stakingLogger.logDelegatorUnstaked(validatorId, msg.sender, _amount);\n        delete delegators[msg.sender];\n    }\n\n    function slash(uint256 valPow, uint256 totalAmountToSlash) external onlyOwner returns (uint256) {\n        uint256 _withdrawPool = withdrawPool;\n        uint256 delegationAmount = activeAmount.add(_withdrawPool);\n        if (delegationAmount == 0) {\n            return 0;\n        }\n        // total amount to be slashed from delegation pool (active + inactive)\n        uint256 _amountToSlash = delegationAmount.mul(totalAmountToSlash).div(valPow.add(delegationAmount));\n        uint256 _amountToSlashWithdrawalPool = _withdrawPool.mul(_amountToSlash).div(delegationAmount);\n\n        // slash inactive pool\n        withdrawPool = _withdrawPool.sub(_amountToSlashWithdrawalPool);\n        activeAmount = activeAmount.sub(_amountToSlash.sub(_amountToSlashWithdrawalPool));\n        return _amountToSlash;\n    }\n\n    function drain(\n        address token,\n        address payable destination,\n        uint256 amount\n    ) external onlyOwner {\n        if (token == address(0x0)) {\n            destination.transfer(amount);\n        } else {\n            require(ERC20(token).transfer(destination, amount), \"Drain failed\");\n        }\n    }\n\n    function unlockContract() external onlyOwner returns (uint256) {\n        locked = false;\n        return activeAmount;\n    }\n\n    function lockContract() external onlyOwner returns (uint256) {\n        locked = true;\n        return activeAmount;\n    }\n}\n",
  "sourcePath": "/Users/ohm.jirapon/playground/blockhain/pos/plasma-ploygon/contracts/contracts/staking/validatorShare/ValidatorShare.sol",
  "compiler": {
    "name": "solc",
    "version": "0.5.11+commit.c082d0b4.Emscripten.clang"
  },
  "schemaVersion": "3.0.14",
  "updatedAt": "2022-06-30T05:05:38.068Z",
  "devdoc": {
    "methods": {
      "allowance(address,address)": {
        "details": "Function to check the amount of tokens that an owner allowed to a spender.",
        "params": {
          "owner": "address The address which owns the funds.",
          "spender": "address The address which will spend the funds."
        },
        "return": "A uint256 specifying the amount of tokens still available for the spender."
      },
      "approve(address,uint256)": {
        "details": "Approve the passed address to spend the specified amount of tokens on behalf of msg.sender. Beware that changing an allowance with this method brings the risk that someone may use both the old and the new allowance by unfortunate transaction ordering. One possible solution to mitigate this race condition is to first reduce the spender's allowance to 0 and set the desired value afterwards: https://github.com/ethereum/EIPs/issues/20#issuecomment-263524729",
        "params": {
          "spender": "The address which will spend the funds.",
          "value": "The amount of tokens to be spent."
        }
      },
      "balanceOf(address)": {
        "details": "Gets the balance of the specified address.",
        "params": {
          "owner": "The address to query the balance of."
        },
        "return": "A uint256 representing the amount owned by the passed address."
      },
      "decreaseAllowance(address,uint256)": {
        "details": "Decrease the amount of tokens that an owner allowed to a spender. approve should be called when _allowed[msg.sender][spender] == 0. To decrement allowed value is better to use this function to avoid 2 calls (and wait until the first transaction is mined) From MonolithDAO Token.sol Emits an Approval event.",
        "params": {
          "spender": "The address which will spend the funds.",
          "subtractedValue": "The amount of tokens to decrease the allowance by."
        }
      },
      "increaseAllowance(address,uint256)": {
        "details": "Increase the amount of tokens that an owner allowed to a spender. approve should be called when _allowed[msg.sender][spender] == 0. To increment allowed value is better to use this function to avoid 2 calls (and wait until the first transaction is mined) From MonolithDAO Token.sol Emits an Approval event.",
        "params": {
          "addedValue": "The amount of tokens to increase the allowance by.",
          "spender": "The address which will spend the funds."
        }
      },
      "isOwner()": {
        "return": "true if `msg.sender` is the owner of the contract."
      },
      "owner()": {
        "return": "the address of the owner."
      },
      "renounceOwnership()": {
        "details": "Allows the current owner to relinquish control of the contract. It will not be possible to call the functions with the `onlyOwner` modifier anymore."
      },
      "totalSupply()": {
        "details": "Total number of tokens in existence"
      },
      "transfer(address,uint256)": {
        "details": "Transfer token to a specified address",
        "params": {
          "to": "The address to transfer to.",
          "value": "The amount to be transferred."
        }
      },
      "transferFrom(address,address,uint256)": {
        "details": "Transfer tokens from one address to another. Note that while this function emits an Approval event, this is not required as per the specification, and other compliant implementations may not emit the event.",
        "params": {
          "from": "address The address which you want to send tokens from",
          "to": "address The address which you want to transfer to",
          "value": "uint256 the amount of tokens to be transferred"
        }
      },
      "transferOwnership(address)": {
        "details": "Allows the current owner to transfer control of the contract to a newOwner.",
        "params": {
          "newOwner": "The address to transfer ownership to."
        }
      }
    }
  },
  "userdoc": {
    "methods": {
      "renounceOwnership()": {
        "notice": "Renouncing ownership will leave the contract without an owner, thereby removing any functionality that is only available to the owner."
      }
    }
  }
}