{
  "contractName": "ValidatorShareFactory",
  "abi": [
    {
      "constant": false,
      "inputs": [
        {
          "internalType": "uint256",
          "name": "validatorId",
          "type": "uint256"
        },
        {
          "internalType": "address",
          "name": "loggerAddress",
          "type": "address"
        },
        {
          "internalType": "address",
          "name": "registry",
          "type": "address"
        }
      ],
      "name": "create",
      "outputs": [
        {
          "internalType": "address",
          "name": "",
          "type": "address"
        }
      ],
      "payable": false,
      "stateMutability": "nonpayable",
      "type": "function"
    }
  ],
  "bytecode": "0x608060405234801561001057600080fd5b50610bcf806100206000396000f3fe608060405234801561001057600080fd5b506004361061002b5760003560e01c8063d4ad267314610030575b600080fd5b6100646004803603606081101561004657600080fd5b508035906001600160a01b0360208201358116916040013516610080565b604080516001600160a01b039092168252519081900360200190f35b60008082604051610090906102b7565b6001600160a01b03909116815260405190819003602001906000f0801580156100bd573d6000803e3d6000fd5b506040805163f2fde38b60e01b815233600482015290519192506001600160a01b0383169163f2fde38b9160248082019260009290919082900301818387803b15801561010957600080fd5b505af115801561011d573d6000803e3d6000fd5b50505050600081905060006060826001600160a01b03165a60408051602481018c90526001600160a01b038b1660448201523360648083019190915282518083039091018152608490910182526020810180516001600160e01b0316630b4988fd60e41b17815291518151919290918291908083835b602083106101b25780518252601f199092019160209182019101610193565b6001836020036101000a03801982511681845116808217855250505050505090500191505060006040518083038160008787f1925050503d8060008114610215576040519150601f19603f3d011682016040523d82523d6000602084013e61021a565b606091505b50915091508181906102aa5760405162461bcd60e51b81526004018080602001828103825283818151815260200191508051906020019080838360005b8381101561026f578181015183820152602001610257565b50505050905090810190601f16801561029c5780820380516001836020036101000a031916815260200191505b509250505060405180910390fd5b5091979650505050505050565b6108d6806102c58339019056fe608060405234801561001057600080fd5b506040516108d63803806108d68339818101604052602081101561003357600080fd5b505180610048336001600160e01b0361006116565b61005a816001600160e01b0361009616565b50506100b8565b604080517f6d617469632e6e6574776f726b2e70726f78792e6f776e6572000000000000008152905190819003601901902055565b600060405180806108b460229139604051908190036022019020929092555050565b6107ed806100c76000396000f3fe6080604052600436106100555760003560e01c8063025b22bc1461009f5780634555d5c9146100d25780635c60da1b146100f95780638da5cb5b1461012a578063d88ca2c81461013f578063f2fde38b146101f5575b61009d610060610228565b6000368080601f01602080910402602001604051908101604052809392919081815260200183838082843760009201919091525061029b92505050565b005b3480156100ab57600080fd5b5061009d600480360360208110156100c257600080fd5b50356001600160a01b03166102c3565b3480156100de57600080fd5b506100e76103fd565b60408051918252519081900360200190f35b34801561010557600080fd5b5061010e610402565b604080516001600160a01b039092168252519081900360200190f35b34801561013657600080fd5b5061010e610411565b61009d6004803603604081101561015557600080fd5b6001600160a01b03823516919081019060408101602082013564010000000081111561018057600080fd5b82018360208201111561019257600080fd5b803590602001918460018302840111640100000000831117156101b457600080fd5b91908080601f01602080910402602001604051908101604052809392919081815260200183838082843760009201919091525092955061041b945050505050565b34801561020157600080fd5b5061009d6004803603602081101561021857600080fd5b50356001600160a01b03166105b1565b60006102326106a3565b6001600160a01b0316631c9486ef6040518163ffffffff1660e01b815260040160206040518083038186803b15801561026a57600080fd5b505afa15801561027e573d6000803e3d6000fd5b505050506040513d602081101561029457600080fd5b5051905090565b600080825160208401856127105a03f43d604051816000823e8280156102bf578282f35b8282fd5b336102cc6106c9565b6001600160a01b031614610313576040805162461bcd60e51b81526020600482015260096024820152682727aa2fa7aba722a960b91b604482015290519081900360640190fd5b6001600160a01b038116610366576040805162461bcd60e51b8152602060048201526015602482015274494e56414c49445f50524f58595f4144445245535360581b604482015290519081900360640190fd5b61036f816106fb565b6103aa5760405162461bcd60e51b81526004018080602001828103825260258152602001806107726025913960400191505060405180910390fd5b6103b2610228565b6001600160a01b0316816001600160a01b03167fd32d24edea94f55e932d9a008afc425a8561462d1b1f57bc6e508e9a6b9509e160405160405180910390a36103fa8161071e565b50565b600290565b600061040c610228565b905090565b600061040c6106c9565b336104246106c9565b6001600160a01b03161461046b576040805162461bcd60e51b81526020600482015260096024820152682727aa2fa7aba722a960b91b604482015290519081900360640190fd5b610474826102c3565b60006060306001600160a01b031634846040518082805190602001908083835b602083106104b35780518252601f199092019160209182019101610494565b6001836020036101000a03801982511681845116808217855250505050505090500191505060006040518083038185875af1925050503d8060008114610515576040519150601f19603f3d011682016040523d82523d6000602084013e61051a565b606091505b50915091508181906105aa5760405162461bcd60e51b81526004018080602001828103825283818151815260200191508051906020019080838360005b8381101561056f578181015183820152602001610557565b50505050905090810190601f16801561059c5780820380516001836020036101000a031916815260200191505b509250505060405180910390fd5b5050505050565b336105ba6106c9565b6001600160a01b031614610601576040805162461bcd60e51b81526020600482015260096024820152682727aa2fa7aba722a960b91b604482015290519081900360640190fd5b6001600160a01b03811661064b576040805162461bcd60e51b815260206004820152600c60248201526b5a45524f5f4144445245535360a01b604482015290519081900360640190fd5b7f343765429aea5a34b3ff6a3785a98a5abb2597aca87bfbb58632c173d585373a816106756106c9565b604080516001600160a01b03938416815291909216602082015281519081900390910190a16103fa81610740565b600080600060405180806107976022913960405190819003602201902054935050505090565b604080517836b0ba34b1973732ba3bb7b93597383937bc3c9737bbb732b960391b815290519081900360190190205490565b60006001600160a01b03821661071357506000610719565b50803b15155b919050565b6000604051808061079760229139604051908190036022019020929092555050565b604080517836b0ba34b1973732ba3bb7b93597383937bc3c9737bbb732b960391b815290519081900360190190205556fe44455354494e4154494f4e5f414444524553535f49535f4e4f545f415f434f4e54524143546d617469632e6e6574776f726b2e70726f78792e696d706c656d656e746174696f6ea265627a7a72315820c2355234473082c613d3e3fc7b7671fc26240ecdb9a5ec02ea7cbf5bc0d9ea1264736f6c634300051100326d617469632e6e6574776f726b2e70726f78792e696d706c656d656e746174696f6ea265627a7a72315820c4b244134896ad89d438f3b9975191e87d24823b8b2a0fb070cc2f14eba7482c64736f6c63430005110032",
  "source": "pragma solidity ^0.5.2;\n\nimport {ValidatorShareProxy} from \"./ValidatorShareProxy.sol\";\nimport {ValidatorShare} from \"./ValidatorShare.sol\";\n\ncontract ValidatorShareFactory {\n    /**\n    - factory to create new validatorShare contracts\n   */\n    function create(uint256 validatorId, address loggerAddress, address registry) public returns (address) {\n        ValidatorShareProxy proxy = new ValidatorShareProxy(registry);\n\n        proxy.transferOwnership(msg.sender);\n\n        address proxyAddr = address(proxy);\n        (bool success, bytes memory data) = proxyAddr.call.gas(gasleft())(\n            abi.encodeWithSelector(\n                ValidatorShare(proxyAddr).initialize.selector, \n                validatorId, \n                loggerAddress, \n                msg.sender\n            )\n        );\n        require(success, string(data));\n\n        return proxyAddr;\n    }\n}\n",
  "sourcePath": "/Users/ohm.jirapon/playground/blockhain/pos/plasma-ploygon/contracts/contracts/staking/validatorShare/ValidatorShareFactory.sol",
  "compiler": {
    "name": "solc",
    "version": "0.5.17+commit.d19bba13.Linux.g++"
  },
  "schemaVersion": "3.4.7",
  "updatedAt": "2022-07-08T08:23:54.645Z",
  "devdoc": {
    "methods": {}
  },
  "userdoc": {
    "methods": {
      "create(uint256,address,address)": {
        "notice": "- factory to create new validatorShare contracts"
      }
    }
  }
}