{
  "contractName": "ValidatorShare",
  "abi": [
    {
      "anonymous": false,
      "inputs": [
        {
          "indexed": true,
          "internalType": "address",
          "name": "owner",
          "type": "address"
        },
        {
          "indexed": true,
          "internalType": "address",
          "name": "spender",
          "type": "address"
        },
        {
          "indexed": false,
          "internalType": "uint256",
          "name": "value",
          "type": "uint256"
        }
      ],
      "name": "Approval",
      "type": "event"
    },
    {
      "anonymous": false,
      "inputs": [
        {
          "indexed": true,
          "internalType": "address",
          "name": "previousOwner",
          "type": "address"
        },
        {
          "indexed": true,
          "internalType": "address",
          "name": "newOwner",
          "type": "address"
        }
      ],
      "name": "OwnershipTransferred",
      "type": "event"
    },
    {
      "anonymous": false,
      "inputs": [
        {
          "indexed": true,
          "internalType": "address",
          "name": "from",
          "type": "address"
        },
        {
          "indexed": true,
          "internalType": "address",
          "name": "to",
          "type": "address"
        },
        {
          "indexed": false,
          "internalType": "uint256",
          "name": "value",
          "type": "uint256"
        }
      ],
      "name": "Transfer",
      "type": "event"
    },
    {
      "constant": true,
      "inputs": [],
      "name": "activeAmount",
      "outputs": [
        {
          "internalType": "uint256",
          "name": "",
          "type": "uint256"
        }
      ],
      "payable": false,
      "stateMutability": "view",
      "type": "function"
    },
    {
      "constant": true,
      "inputs": [
        {
          "internalType": "address",
          "name": "owner",
          "type": "address"
        },
        {
          "internalType": "address",
          "name": "spender",
          "type": "address"
        }
      ],
      "name": "allowance",
      "outputs": [
        {
          "internalType": "uint256",
          "name": "",
          "type": "uint256"
        }
      ],
      "payable": false,
      "stateMutability": "view",
      "type": "function"
    },
    {
      "constant": false,
      "inputs": [
        {
          "internalType": "address",
          "name": "spender",
          "type": "address"
        },
        {
          "internalType": "uint256",
          "name": "value",
          "type": "uint256"
        }
      ],
      "name": "approve",
      "outputs": [
        {
          "internalType": "bool",
          "name": "",
          "type": "bool"
        }
      ],
      "payable": false,
      "stateMutability": "nonpayable",
      "type": "function"
    },
    {
      "constant": true,
      "inputs": [
        {
          "internalType": "address",
          "name": "owner",
          "type": "address"
        }
      ],
      "name": "balanceOf",
      "outputs": [
        {
          "internalType": "uint256",
          "name": "",
          "type": "uint256"
        }
      ],
      "payable": false,
      "stateMutability": "view",
      "type": "function"
    },
    {
      "constant": true,
      "inputs": [],
      "name": "commissionRate_deprecated",
      "outputs": [
        {
          "internalType": "uint256",
          "name": "",
          "type": "uint256"
        }
      ],
      "payable": false,
      "stateMutability": "view",
      "type": "function"
    },
    {
      "constant": false,
      "inputs": [
        {
          "internalType": "address",
          "name": "spender",
          "type": "address"
        },
        {
          "internalType": "uint256",
          "name": "subtractedValue",
          "type": "uint256"
        }
      ],
      "name": "decreaseAllowance",
      "outputs": [
        {
          "internalType": "bool",
          "name": "",
          "type": "bool"
        }
      ],
      "payable": false,
      "stateMutability": "nonpayable",
      "type": "function"
    },
    {
      "constant": true,
      "inputs": [],
      "name": "delegation",
      "outputs": [
        {
          "internalType": "bool",
          "name": "",
          "type": "bool"
        }
      ],
      "payable": false,
      "stateMutability": "view",
      "type": "function"
    },
    {
      "constant": true,
      "inputs": [],
      "name": "eventsHub",
      "outputs": [
        {
          "internalType": "contract EventsHub",
          "name": "",
          "type": "address"
        }
      ],
      "payable": false,
      "stateMutability": "view",
      "type": "function"
    },
    {
      "constant": false,
      "inputs": [
        {
          "internalType": "address",
          "name": "spender",
          "type": "address"
        },
        {
          "internalType": "uint256",
          "name": "addedValue",
          "type": "uint256"
        }
      ],
      "name": "increaseAllowance",
      "outputs": [
        {
          "internalType": "bool",
          "name": "",
          "type": "bool"
        }
      ],
      "payable": false,
      "stateMutability": "nonpayable",
      "type": "function"
    },
    {
      "constant": true,
      "inputs": [
        {
          "internalType": "address",
          "name": "",
          "type": "address"
        }
      ],
      "name": "initalRewardPerShare",
      "outputs": [
        {
          "internalType": "uint256",
          "name": "",
          "type": "uint256"
        }
      ],
      "payable": false,
      "stateMutability": "view",
      "type": "function"
    },
    {
      "constant": true,
      "inputs": [],
      "name": "isOwner",
      "outputs": [
        {
          "internalType": "bool",
          "name": "",
          "type": "bool"
        }
      ],
      "payable": false,
      "stateMutability": "view",
      "type": "function"
    },
    {
      "constant": true,
      "inputs": [],
      "name": "lastCommissionUpdate_deprecated",
      "outputs": [
        {
          "internalType": "uint256",
          "name": "",
          "type": "uint256"
        }
      ],
      "payable": false,
      "stateMutability": "view",
      "type": "function"
    },
    {
      "constant": false,
      "inputs": [],
      "name": "lock",
      "outputs": [],
      "payable": false,
      "stateMutability": "nonpayable",
      "type": "function"
    },
    {
      "constant": true,
      "inputs": [],
      "name": "locked",
      "outputs": [
        {
          "internalType": "bool",
          "name": "",
          "type": "bool"
        }
      ],
      "payable": false,
      "stateMutability": "view",
      "type": "function"
    },
    {
      "constant": true,
      "inputs": [],
      "name": "minAmount",
      "outputs": [
        {
          "internalType": "uint256",
          "name": "",
          "type": "uint256"
        }
      ],
      "payable": false,
      "stateMutability": "view",
      "type": "function"
    },
    {
      "constant": true,
      "inputs": [],
      "name": "owner",
      "outputs": [
        {
          "internalType": "address",
          "name": "",
          "type": "address"
        }
      ],
      "payable": false,
      "stateMutability": "view",
      "type": "function"
    },
    {
      "constant": false,
      "inputs": [],
      "name": "renounceOwnership",
      "outputs": [],
      "payable": false,
      "stateMutability": "nonpayable",
      "type": "function"
    },
    {
      "constant": true,
      "inputs": [],
      "name": "rewardPerShare",
      "outputs": [
        {
          "internalType": "uint256",
          "name": "",
          "type": "uint256"
        }
      ],
      "payable": false,
      "stateMutability": "view",
      "type": "function"
    },
    {
      "constant": true,
      "inputs": [],
      "name": "stakeManager",
      "outputs": [
        {
          "internalType": "contract IStakeManager",
          "name": "",
          "type": "address"
        }
      ],
      "payable": false,
      "stateMutability": "view",
      "type": "function"
    },
    {
      "constant": true,
      "inputs": [],
      "name": "stakingLogger",
      "outputs": [
        {
          "internalType": "contract StakingInfo",
          "name": "",
          "type": "address"
        }
      ],
      "payable": false,
      "stateMutability": "view",
      "type": "function"
    },
    {
      "constant": true,
      "inputs": [],
      "name": "totalStake_deprecated",
      "outputs": [
        {
          "internalType": "uint256",
          "name": "",
          "type": "uint256"
        }
      ],
      "payable": false,
      "stateMutability": "view",
      "type": "function"
    },
    {
      "constant": true,
      "inputs": [],
      "name": "totalSupply",
      "outputs": [
        {
          "internalType": "uint256",
          "name": "",
          "type": "uint256"
        }
      ],
      "payable": false,
      "stateMutability": "view",
      "type": "function"
    },
    {
      "constant": false,
      "inputs": [
        {
          "internalType": "address",
          "name": "to",
          "type": "address"
        },
        {
          "internalType": "uint256",
          "name": "value",
          "type": "uint256"
        }
      ],
      "name": "transfer",
      "outputs": [
        {
          "internalType": "bool",
          "name": "",
          "type": "bool"
        }
      ],
      "payable": false,
      "stateMutability": "nonpayable",
      "type": "function"
    },
    {
      "constant": false,
      "inputs": [
        {
          "internalType": "address",
          "name": "from",
          "type": "address"
        },
        {
          "internalType": "address",
          "name": "to",
          "type": "address"
        },
        {
          "internalType": "uint256",
          "name": "value",
          "type": "uint256"
        }
      ],
      "name": "transferFrom",
      "outputs": [
        {
          "internalType": "bool",
          "name": "",
          "type": "bool"
        }
      ],
      "payable": false,
      "stateMutability": "nonpayable",
      "type": "function"
    },
    {
      "constant": false,
      "inputs": [
        {
          "internalType": "address",
          "name": "newOwner",
          "type": "address"
        }
      ],
      "name": "transferOwnership",
      "outputs": [],
      "payable": false,
      "stateMutability": "nonpayable",
      "type": "function"
    },
    {
      "constant": true,
      "inputs": [
        {
          "internalType": "address",
          "name": "",
          "type": "address"
        }
      ],
      "name": "unbondNonces",
      "outputs": [
        {
          "internalType": "uint256",
          "name": "",
          "type": "uint256"
        }
      ],
      "payable": false,
      "stateMutability": "view",
      "type": "function"
    },
    {
      "constant": true,
      "inputs": [
        {
          "internalType": "address",
          "name": "",
          "type": "address"
        }
      ],
      "name": "unbonds",
      "outputs": [
        {
          "internalType": "uint256",
          "name": "shares",
          "type": "uint256"
        },
        {
          "internalType": "uint256",
          "name": "withdrawEpoch",
          "type": "uint256"
        }
      ],
      "payable": false,
      "stateMutability": "view",
      "type": "function"
    },
    {
      "constant": true,
      "inputs": [
        {
          "internalType": "address",
          "name": "",
          "type": "address"
        },
        {
          "internalType": "uint256",
          "name": "",
          "type": "uint256"
        }
      ],
      "name": "unbonds_new",
      "outputs": [
        {
          "internalType": "uint256",
          "name": "shares",
          "type": "uint256"
        },
        {
          "internalType": "uint256",
          "name": "withdrawEpoch",
          "type": "uint256"
        }
      ],
      "payable": false,
      "stateMutability": "view",
      "type": "function"
    },
    {
      "constant": false,
      "inputs": [],
      "name": "unlock",
      "outputs": [],
      "payable": false,
      "stateMutability": "nonpayable",
      "type": "function"
    },
    {
      "constant": true,
      "inputs": [],
      "name": "validatorId",
      "outputs": [
        {
          "internalType": "uint256",
          "name": "",
          "type": "uint256"
        }
      ],
      "payable": false,
      "stateMutability": "view",
      "type": "function"
    },
    {
      "constant": true,
      "inputs": [],
      "name": "validatorRewards_deprecated",
      "outputs": [
        {
          "internalType": "uint256",
          "name": "",
          "type": "uint256"
        }
      ],
      "payable": false,
      "stateMutability": "view",
      "type": "function"
    },
    {
      "constant": true,
      "inputs": [],
      "name": "withdrawPool",
      "outputs": [
        {
          "internalType": "uint256",
          "name": "",
          "type": "uint256"
        }
      ],
      "payable": false,
      "stateMutability": "view",
      "type": "function"
    },
    {
      "constant": true,
      "inputs": [],
      "name": "withdrawShares",
      "outputs": [
        {
          "internalType": "uint256",
          "name": "",
          "type": "uint256"
        }
      ],
      "payable": false,
      "stateMutability": "view",
      "type": "function"
    },
    {
      "constant": false,
      "inputs": [
        {
          "internalType": "uint256",
          "name": "_validatorId",
          "type": "uint256"
        },
        {
          "internalType": "address",
          "name": "_stakingLogger",
          "type": "address"
        },
        {
          "internalType": "address",
          "name": "_stakeManager",
          "type": "address"
        }
      ],
      "name": "initialize",
      "outputs": [],
      "payable": false,
      "stateMutability": "nonpayable",
      "type": "function"
    },
    {
      "constant": true,
      "inputs": [],
      "name": "exchangeRate",
      "outputs": [
        {
          "internalType": "uint256",
          "name": "",
          "type": "uint256"
        }
      ],
      "payable": false,
      "stateMutability": "view",
      "type": "function"
    },
    {
      "constant": true,
      "inputs": [
        {
          "internalType": "address",
          "name": "user",
          "type": "address"
        }
      ],
      "name": "getTotalStake",
      "outputs": [
        {
          "internalType": "uint256",
          "name": "",
          "type": "uint256"
        },
        {
          "internalType": "uint256",
          "name": "",
          "type": "uint256"
        }
      ],
      "payable": false,
      "stateMutability": "view",
      "type": "function"
    },
    {
      "constant": true,
      "inputs": [],
      "name": "withdrawExchangeRate",
      "outputs": [
        {
          "internalType": "uint256",
          "name": "",
          "type": "uint256"
        }
      ],
      "payable": false,
      "stateMutability": "view",
      "type": "function"
    },
    {
      "constant": true,
      "inputs": [
        {
          "internalType": "address",
          "name": "user",
          "type": "address"
        }
      ],
      "name": "getLiquidRewards",
      "outputs": [
        {
          "internalType": "uint256",
          "name": "",
          "type": "uint256"
        }
      ],
      "payable": false,
      "stateMutability": "view",
      "type": "function"
    },
    {
      "constant": true,
      "inputs": [],
      "name": "getRewardPerShare",
      "outputs": [
        {
          "internalType": "uint256",
          "name": "",
          "type": "uint256"
        }
      ],
      "payable": false,
      "stateMutability": "view",
      "type": "function"
    },
    {
      "constant": false,
      "inputs": [
        {
          "internalType": "uint256",
          "name": "_amount",
          "type": "uint256"
        },
        {
          "internalType": "uint256",
          "name": "_minSharesToMint",
          "type": "uint256"
        }
      ],
      "name": "buyVoucher",
      "outputs": [
        {
          "internalType": "uint256",
          "name": "amountToDeposit",
          "type": "uint256"
        }
      ],
      "payable": false,
      "stateMutability": "nonpayable",
      "type": "function"
    },
    {
      "constant": false,
      "inputs": [],
      "name": "restake",
      "outputs": [
        {
          "internalType": "uint256",
          "name": "",
          "type": "uint256"
        },
        {
          "internalType": "uint256",
          "name": "",
          "type": "uint256"
        }
      ],
      "payable": false,
      "stateMutability": "nonpayable",
      "type": "function"
    },
    {
      "constant": false,
      "inputs": [
        {
          "internalType": "uint256",
          "name": "claimAmount",
          "type": "uint256"
        },
        {
          "internalType": "uint256",
          "name": "maximumSharesToBurn",
          "type": "uint256"
        }
      ],
      "name": "sellVoucher",
      "outputs": [],
      "payable": false,
      "stateMutability": "nonpayable",
      "type": "function"
    },
    {
      "constant": false,
      "inputs": [],
      "name": "withdrawRewards",
      "outputs": [],
      "payable": false,
      "stateMutability": "nonpayable",
      "type": "function"
    },
    {
      "constant": false,
      "inputs": [
        {
          "internalType": "address",
          "name": "user",
          "type": "address"
        },
        {
          "internalType": "uint256",
          "name": "amount",
          "type": "uint256"
        }
      ],
      "name": "migrateOut",
      "outputs": [],
      "payable": false,
      "stateMutability": "nonpayable",
      "type": "function"
    },
    {
      "constant": false,
      "inputs": [
        {
          "internalType": "address",
          "name": "user",
          "type": "address"
        },
        {
          "internalType": "uint256",
          "name": "amount",
          "type": "uint256"
        }
      ],
      "name": "migrateIn",
      "outputs": [],
      "payable": false,
      "stateMutability": "nonpayable",
      "type": "function"
    },
    {
      "constant": false,
      "inputs": [],
      "name": "unstakeClaimTokens",
      "outputs": [],
      "payable": false,
      "stateMutability": "nonpayable",
      "type": "function"
    },
    {
      "constant": false,
      "inputs": [
        {
          "internalType": "uint256",
          "name": "validatorStake",
          "type": "uint256"
        },
        {
          "internalType": "uint256",
          "name": "delegatedAmount",
          "type": "uint256"
        },
        {
          "internalType": "uint256",
          "name": "totalAmountToSlash",
          "type": "uint256"
        }
      ],
      "name": "slash",
      "outputs": [
        {
          "internalType": "uint256",
          "name": "",
          "type": "uint256"
        }
      ],
      "payable": false,
      "stateMutability": "nonpayable",
      "type": "function"
    },
    {
      "constant": false,
      "inputs": [
        {
          "internalType": "bool",
          "name": "_delegation",
          "type": "bool"
        }
      ],
      "name": "updateDelegation",
      "outputs": [],
      "payable": false,
      "stateMutability": "nonpayable",
      "type": "function"
    },
    {
      "constant": false,
      "inputs": [
        {
          "internalType": "address",
          "name": "token",
          "type": "address"
        },
        {
          "internalType": "address payable",
          "name": "destination",
          "type": "address"
        },
        {
          "internalType": "uint256",
          "name": "amount",
          "type": "uint256"
        }
      ],
      "name": "drain",
      "outputs": [],
      "payable": false,
      "stateMutability": "nonpayable",
      "type": "function"
    },
    {
      "constant": false,
      "inputs": [
        {
          "internalType": "uint256",
          "name": "claimAmount",
          "type": "uint256"
        },
        {
          "internalType": "uint256",
          "name": "maximumSharesToBurn",
          "type": "uint256"
        }
      ],
      "name": "sellVoucher_new",
      "outputs": [],
      "payable": false,
      "stateMutability": "nonpayable",
      "type": "function"
    },
    {
      "constant": false,
      "inputs": [
        {
          "internalType": "uint256",
          "name": "unbondNonce",
          "type": "uint256"
        }
      ],
      "name": "unstakeClaimTokens_new",
      "outputs": [],
      "payable": false,
      "stateMutability": "nonpayable",
      "type": "function"
    }
  ],
  "bytecode": "0x6080604081905260038054610100600160b01b03191661010033810291909117918290556001600160a01b03910416906000907f8be0079c531659141344cd1fd0a4f28419497f9722a3daafe3b4186f6b6457e0908290a3612b39806100666000396000f3fe608060405234801561001057600080fd5b50600436106102f15760003560e01c80637542ff951161019d578063a9059cbb116100e9578063cf309012116100a2578063e4cd1aec1161007c578063e4cd1aec14610794578063e97fddc2146107ba578063f2fde38b146107d7578063f83d08ba146107fd576102f1565b8063cf30901214610756578063dd62ed3e1461075e578063df5cf7231461078c576102f1565b8063a9059cbb1461068d578063abf59fc9146106b9578063b4988fd0146106ef578063bfb18f2914610723578063c7b8981c1461072b578063c83ec04d14610733576102f1565b80638d16a14a116101565780639b2cb5d8116101305780639b2cb5d814610625578063a0c1ca341461062d578063a457c2d714610659578063a69df4b514610685576102f1565b80638d16a14a1461060d5780638da5cb5b146106155780638f32d59b1461061d576102f1565b80637542ff95146105a2578063795be587146105aa5780637ba8c820146105d6578063883b455f146105f55780638ccdd289146105fd5780638d086da414610605576102f1565b80633d94eb051161025c578063653ec134116102155780636cbb6050116101ef5780636cbb60501461051f5780636e7ce5911461054857806370a0823114610574578063715018a61461059a576102f1565b8063653ec134146104b0578063676e5550146104d65780636ab15071146104fc576102f1565b80633d94eb0514610464578063446a2ec8146104885780634f91440d146104905780635c42c733146104985780635c5f7dae146104a05780635f0c80cc146104a8576102f1565b806323b872dd116102ae57806323b872dd146103c45780633046c204146103fa578063395093511461042057806339c31e931461044c5780633a09bf44146104545780633ba0b9a91461045c576102f1565b8063029d3040146102f6578063095ea7b31461031b57806318160ddd1461035b5780631bf494a7146103755780631e7ff8f61461037d57806323440679146103bc575b600080fd5b6103196004803603604081101561030c57600080fd5b5080359060200135610805565b005b6103476004803603604081101561033157600080fd5b506001600160a01b0381351690602001356109d4565b604080519115158252519081900360200190f35b6103636109eb565b60408051918252519081900360200190f35b6103636109f2565b6103a36004803603602081101561039357600080fd5b50356001600160a01b0316610a7e565b6040805192835260208301919091528051918290030190f35b610363610ade565b610347600480360360608110156103da57600080fd5b506001600160a01b03813581169160208101359091169060400135610ae4565b6103636004803603602081101561041057600080fd5b50356001600160a01b0316610b3c565b6103476004803603604081101561043657600080fd5b506001600160a01b038135169060200135610b4e565b610363610b8a565b610363610b90565b610363610b96565b61046c610c53565b604080516001600160a01b039092168252519081900360200190f35b610363610c62565b6103a3610c68565b610363610ec9565b610363610ecf565b610363610ed5565b6103a3600480360360208110156104c657600080fd5b50356001600160a01b0316610edb565b610363600480360360208110156104ec57600080fd5b50356001600160a01b0316610ef4565b6103636004803603604081101561051257600080fd5b5080359060200135610f07565b6103636004803603606081101561053557600080fd5b5080359060208101359060400135610fed565b6103196004803603604081101561055e57600080fd5b506001600160a01b038135169060200135611124565b6103636004803603602081101561058a57600080fd5b50356001600160a01b031661138e565b6103196113a9565b61046c61140a565b6103a3600480360360408110156105c057600080fd5b506001600160a01b038135169060200135611419565b610319600480360360208110156105ec57600080fd5b5035151561143d565b61046c611461565b610363611470565b610363611476565b61031961147c565b61046c611547565b61034761155b565b610363611571565b6103196004803603604081101561064357600080fd5b506001600160a01b038135169060200135611577565b6103476004803603604081101561066f57600080fd5b506001600160a01b0381351690602001356115a3565b6103196115df565b610347600480360360408110156106a357600080fd5b506001600160a01b0381351690602001356115fa565b610319600480360360608110156106cf57600080fd5b506001600160a01b03813581169160208101359091169060400135611607565b6103196004803603606081101561070557600080fd5b508035906001600160a01b036020820135811691604001351661172e565b6103636117f6565b61031961183d565b6103196004803603604081101561074957600080fd5b50803590602001356118a4565b610347611a7d565b6103636004803603604081101561077457600080fd5b506001600160a01b0381358116916020013516611a86565b610347611ab1565b610363600480360360208110156107aa57600080fd5b50356001600160a01b0316611aba565b610319600480360360208110156107d057600080fd5b5035611acc565b610319600480360360208110156107ed57600080fd5b50356001600160a01b0316611bba565b610319611bd4565b6000806108128484611bed565b9150915061081e612aea565b5033600090815260126020908152604091829020825180840190935280548084526001909101549183019190915261085c908363ffffffff611db716565b81526005546040805163900cf0cf60e01b815290516001600160a01b039092169163900cf0cf91600480820192602092909190829003018186803b1580156108a357600080fd5b505afa1580156108b7573d6000803e3d6000fd5b505050506040513d60208110156108cd57600080fd5b505160208281019182523360008181526012909252604080832085518155935160019094019390935560048054600654855163f1382b5360e01b8152928301526024820192909252604481018990526064810187905292516001600160a01b0390911692839263f1382b539260848084019382900301818387803b15801561095457600080fd5b505af1158015610968573d6000803e3d6000fd5b50505050806001600160a01b031663532e19a96006546040518263ffffffff1660e01b815260040180828152602001915050600060405180830381600087803b1580156109b457600080fd5b505af11580156109c8573d6000803e3d6000fd5b50505050505050505050565b60006109e1338484611dc9565b5060015b92915050565b6002545b90565b6005546006546040805163072c21ef60e31b8152600481019290925251600092610a79926001600160a01b03909116916339610f7891602480820192602092909190829003018186803b158015610a4857600080fd5b505afa158015610a5c573d6000803e3d6000fd5b505050506040513d6020811015610a7257600080fd5b5051611e01565b905090565b6000806000610a8c8461138e565b90506000610a98610b96565b905081610aac57600093509150610ad99050565b610ad3610ab7611e58565b610ac7838563ffffffff611e7f16565b9063ffffffff611ea616565b93509150505b915091565b60095481565b6000610af1848484611ec8565b6001600160a01b038416600090815260016020908152604080832033808552925290912054610b31918691610b2c908663ffffffff611ee716565b611dc9565b5060015b9392505050565b60146020526000908152604090205481565b3360008181526001602090815260408083206001600160a01b038716845290915281205490916109e1918590610b2c908663ffffffff611db716565b60075481565b600d5481565b600080610ba16109eb565b90506000610bad611e58565b90508115610c4a5760055460065460408051637f4b432360e01b8152600481019290925251610c45928592610ac79286926001600160a01b031691637f4b4323916024808301926020929190829003018186803b158015610c0d57600080fd5b505afa158015610c21573d6000803e3d6000fd5b505050506040513d6020811015610c3757600080fd5b50519063ffffffff611e7f16565b610c4c565b805b9250505090565b6004546001600160a01b031681565b600c5481565b6000803381610c7682611efc565b90506000600a54821015610cd1576040805162461bcd60e51b815260206004820152601c60248201527f546f6f20736d616c6c207265776172647320746f2072657374616b6500000000604482015290519081900360640190fd5b8115610ec057610ce382600085611faa565b905080821115610e39576005546006546040805163bc8756a960e01b8152600481019290925283850360248301526001600160a01b038681166044840152905192169163bc8756a9916064808201926020929091908290030181600087803b158015610d4e57600080fd5b505af1158015610d62573d6000803e3d6000fd5b505050506040513d6020811015610d7857600080fd5b5051610dc1576040805162461bcd60e51b8152602060048201526013602482015272496e737566666963656e74207265776172647360681b604482015290519081900360640190fd5b600480546006546040805163b7721d2d60e01b8152938401919091526001600160a01b0386811660248501528486036044850152905191169163b7721d2d91606480830192600092919082900301818387803b158015610e2057600080fd5b505af1158015610e34573d6000803e3d6000fd5b505050505b6000610e4484610a7e565b506004805460065460408051637f88a95760e01b8152938401919091526001600160a01b0388811660248501526044840185905290519394501691637f88a9579160648082019260009290919082900301818387803b158015610ea657600080fd5b505af1158015610eba573d6000803e3d6000fd5b50505050505b93509150509091565b600f5481565b60065481565b600b5481565b6012602052600090815260409020805460019091015482565b60006109e582610f026109f2565b612269565b6000610f12336122ea565b50610f1e838333611faa565b60055460065460408051636901b25360e01b8152600481019290925260248201849052336044830152519293506001600160a01b0390911691636901b253916064808201926020929091908290030181600087803b158015610f7f57600080fd5b505af1158015610f93573d6000803e3d6000fd5b505050506040513d6020811015610fa957600080fd5b50516109e5576040805162461bcd60e51b815260206004820152600e60248201526d19195c1bdcda5d0819985a5b195960921b604482015290519081900360640190fd5b6000610ff761155b565b61100057600080fd5b600f546000611015858363ffffffff611db716565b90508061102757600092505050610b35565b600061104c61103c888463ffffffff611db716565b610ac7848863ffffffff611e7f16565b9050600061106483610ac7868563ffffffff611e7f16565b90506000611078838363ffffffff611ee716565b6005546006546040805163858a7c0360e01b8152600481019290925260248201849052519293506001600160a01b039091169163858a7c039160448082019260009290919082900301818387803b1580156110d257600080fd5b505af11580156110e6573d6000803e3d6000fd5b5050600d546110fe925090508263ffffffff611ee716565b600d55600f54611114908363ffffffff611ee716565b600f555090979650505050505050565b61112c61155b565b61113557600080fd5b61113e826122ea565b5060008061114b84610a7e565b9150915082821015611199576040805162461bcd60e51b815260206004820152601260248201527109ad2cee4c2e8d2dcce40e8dede40daeac6d60731b604482015290519081900360640190fd5b60006111a3611e58565b905060006111bb83610ac7878563ffffffff611e7f16565b90506111c7868261244e565b60055460065460408051629ff11560e81b815260048101929092526000888103602484015290516001600160a01b0390931692639ff1150092604480820193929182900301818387803b15801561121d57600080fd5b505af1158015611231573d6000803e3d6000fd5b5050600d54611249925090508663ffffffff611ee716565b600d55600480546006546040805163f1382b5360e01b8152938401919091526001600160a01b0389811660248501526044840189905260648401859052905191169163f1382b5391608480830192600092919082900301818387803b1580156112b157600080fd5b505af11580156112c5573d6000803e3d6000fd5b5050600480546006546040805163532e19a960e01b815293840191909152516001600160a01b03909116935063532e19a99250602480830192600092919082900301818387803b15801561131857600080fd5b505af115801561132c573d6000803e3d6000fd5b5050600480546006546040805163302df4df60e11b8152938401919091526001600160a01b038b81166024850152604484018b905290519116935063605be9be9250606480830192600092919082900301818387803b1580156109b457600080fd5b6001600160a01b031660009081526020819052604090205490565b6113b161155b565b6113ba57600080fd5b60035460405160009161010090046001600160a01b0316907f8be0079c531659141344cd1fd0a4f28419497f9722a3daafe3b4186f6b6457e0908390a360038054610100600160a81b0319169055565b6005546001600160a01b031681565b60156020908152600092835260408084209091529082529020805460019091015482565b61144561155b565b61144e57600080fd5b600e805460ff1916911515919091179055565b6016546001600160a01b031681565b60085481565b60105481565b611484612aea565b503360009081526012602090815260408083208151808301909252805482526001015491810191909152906114b8826124f5565b3360008181526012602052604080822082815560010182905560048054600654835163302df4df60e11b81529283015260248201949094526044810185905290519394506001600160a01b039092169263605be9be92606480820193929182900301818387803b15801561152b57600080fd5b505af115801561153f573d6000803e3d6000fd5b505050505050565b60035461010090046001600160a01b031690565b60035461010090046001600160a01b0316331490565b600a5481565b61157f61155b565b61158857600080fd5b611591826122ea565b5061159e81600084611faa565b505050565b3360008181526001602090815260408083206001600160a01b038716845290915281205490916109e1918590610b2c908663ffffffff611ee716565b6115e761155b565b6115f057600080fd5b6115f8612764565b565b60006109e1338484611ec8565b61160f61155b565b61161857600080fd5b6001600160a01b038316611662576040516001600160a01b0383169082156108fc029083906000818181858888f1935050505015801561165c573d6000803e3d6000fd5b5061159e565b826001600160a01b031663a9059cbb83836040518363ffffffff1660e01b815260040180836001600160a01b03166001600160a01b0316815260200182815260200192505050602060405180830381600087803b1580156116c257600080fd5b505af11580156116d6573d6000803e3d6000fd5b505050506040513d60208110156116ec57600080fd5b505161159e576040805162461bcd60e51b815260206004820152600c60248201526b111c985a5b8819985a5b195960a21b604482015290519081900360640190fd5b600354600160a81b900460ff161561177e576040805162461bcd60e51b815260206004820152600e60248201526d185b1c9958591e481a5b9a5d195960921b604482015290519081900360640190fd5b6003805460ff60a81b1916600160a81b1790556006839055600480546001600160a01b038085166001600160a01b03199283161790925560058054928416929091169190911790556117cf81612770565b6117d76127ea565b5050670de0b6b3a7640000600a555050600e805460ff19166001179055565b600080611801611e58565b9050600860065410156118155790506109ef565b601054801561183757610c4581610ac784600f54611e7f90919063ffffffff16565b50919050565b6000611848336122ea565b9050600a548110156118a1576040805162461bcd60e51b815260206004820152601860248201527f546f6f20736d616c6c207265776172647320616d6f756e740000000000000000604482015290519081900360640190fd5b50565b6000806118b18484611bed565b33600090815260146020526040812054929450909250906118d990600163ffffffff611db716565b90506118e3612aea565b6040518060400160405280848152602001600560009054906101000a90046001600160a01b03166001600160a01b031663900cf0cf6040518163ffffffff1660e01b815260040160206040518083038186803b15801561194257600080fd5b505afa158015611956573d6000803e3d6000fd5b505050506040513d602081101561196c57600080fd5b5051905233600081815260156020908152604080832087845282528083208551815585830151600190910155928252601490522083905590506119ad6127ea565b60065460408051632a9b5b4160e11b81526004810192909252336024830152604482018990526064820187905260848201859052516001600160a01b039290921691635536b6829160a48082019260009290919082900301818387803b158015611a1657600080fd5b505af1158015611a2a573d6000803e3d6000fd5b5050600480546006546040805163532e19a960e01b815293840191909152516001600160a01b03909116935063532e19a99250602480830192600092919082900301818387803b1580156109b457600080fd5b60035460ff1681565b6001600160a01b03918216600090815260016020908152604080832093909416825291909152205490565b600e5460ff1681565b60136020526000908152604090205481565b611ad4612aea565b503360009081526015602090815260408083208484528252808320815180830190925280548252600101549181019190915290611b10826124f5565b3360009081526015602090815260408083208784529091528120818155600101559050611b3b6127ea565b60065460408051636e699d8760e01b815260048101929092523360248301526044820184905260648201869052516001600160a01b039290921691636e699d879160848082019260009290919082900301818387803b158015611b9d57600080fd5b505af1158015611bb1573d6000803e3d6000fd5b50505050505050565b611bc261155b565b611bcb57600080fd5b6118a181612770565b611bdc61155b565b611be557600080fd5b6115f8612927565b600080600080611bfc33610a7e565b9150915081600014158015611c115750858210155b611c57576040805162461bcd60e51b8152602060048201526012602482015271151bdbc81b5d58da081c995c5d595cdd195960721b604482015290519081900360640190fd5b6000611c61611e58565b90506000611c7983610ac78a8563ffffffff611e7f16565b905086811115611cc4576040805162461bcd60e51b8152602060048201526011602482015270746f6f206d75636820736c69707061676560781b604482015290519081900360640190fd5b611ccd336122ea565b50611cd8338261244e565b60055460065460408051629ff11560e81b8152600481019290925260008b8103602484015290516001600160a01b0390931692639ff1150092604480820193929182900301818387803b158015611d2e57600080fd5b505af1158015611d42573d6000803e3d6000fd5b5050600d54611d5a925090508963ffffffff611ee716565b600d556000611d7a611d6a6117f6565b610ac78b8663ffffffff611e7f16565b600f54909150611d90908a63ffffffff611db716565b600f55601054611da6908263ffffffff611db716565b601055909890975095505050505050565b600082820183811015610b3557600080fd5b6040805162461bcd60e51b8152602060048201526008602482015267191a5cd8589b195960c21b604482015290519081900360640190fd5b600c5460009082156109e5576000611e176109eb565b90508015611e5157611e4e611e4182610ac7876a084595161401484a00000063ffffffff611e7f16565b839063ffffffff611db716565b91505b5092915050565b600060086006541015611e6d575060646109ef565b506c01431e0fae6d7217caa000000090565b600082611e8e575060006109e5565b82820282848281611e9b57fe5b0414610b3557600080fd5b6000808211611eb457600080fd5b6000828481611ebf57fe5b04949350505050565b611ed1826122ea565b50611edb836122ea565b5061159e838383612936565b600082821115611ef657600080fd5b50900390565b600080611f73600560009054906101000a90046001600160a01b03166001600160a01b0316637ed4b27c6006546040518263ffffffff1660e01b815260040180828152602001915050602060405180830381600087803b158015611f5f57600080fd5b505af1158015610a5c573d6000803e3d6000fd5b90506000611f818483612269565b600c8390556001600160a01b038516600090815260136020526040902092909255509050919050565b6000611fb4612a01565b600e5460ff16612004576040805162461bcd60e51b815260206004820152601660248201527511195b1959d85d1a5bdb881a5cc8191a5cd8589b195960521b604482015290519081900360640190fd5b600061200e610b96565b9050600061201a611e58565b9050600061203283610ac7898563ffffffff611e7f16565b90508581101561207d576040805162461bcd60e51b8152602060048201526011602482015270546f6f206d75636820736c69707061676560781b604482015290519081900360640190fd5b6001600160a01b038516600090815260126020526040902054156120d7576040805162461bcd60e51b815260206004820152600c60248201526b13db99dbda5b99c8195e1a5d60a21b604482015290519081900360640190fd5b6120e18582612a42565b6120f582610ac7858463ffffffff611e7f16565b60055460065460408051629ff11560e81b8152600481019290925260248201849052519299506001600160a01b0390911691639ff115009160448082019260009290919082900301818387803b15801561214e57600080fd5b505af1158015612162573d6000803e3d6000fd5b5050600d5461217a925090508863ffffffff611db716565b600d55600480546006546040805163c69d057360e01b8152938401919091526001600160a01b038881166024850152604484018b9052606484018590529051911691829163c69d05739160848082019260009290919082900301818387803b1580156121e557600080fd5b505af11580156121f9573d6000803e3d6000fd5b50505050806001600160a01b031663532e19a96006546040518263ffffffff1660e01b815260040180828152602001915050600060405180830381600087803b15801561224557600080fd5b505af1158015612259573d6000803e3d6000fd5b50999a9950505050505050505050565b6000806122758461138e565b9050806122865760009150506109e5565b6001600160a01b038416600090815260136020526040902054838114156122b2576000925050506109e5565b6122e16a084595161401484a000000610ac7846122d5888663ffffffff611ee716565b9063ffffffff611e7f16565b95945050505050565b6000806122f683611efc565b905080156109e5576005546006546040805163bc8756a960e01b81526004810192909252602482018490526001600160a01b038681166044840152905192169163bc8756a9916064808201926020929091908290030181600087803b15801561235e57600080fd5b505af1158015612372573d6000803e3d6000fd5b505050506040513d602081101561238857600080fd5b50516123d1576040805162461bcd60e51b8152602060048201526013602482015272496e737566666963656e74207265776172647360681b604482015290519081900360640190fd5b600480546006546040805163b7721d2d60e01b8152938401919091526001600160a01b03868116602485015260448401859052905191169163b7721d2d91606480830192600092919082900301818387803b15801561242f57600080fd5b505af1158015612443573d6000803e3d6000fd5b505050509050919050565b6001600160a01b03821661246157600080fd5b600254612474908263ffffffff611ee716565b6002556001600160a01b0382166000908152602081905260409020546124a0908263ffffffff611ee716565b6001600160a01b038316600081815260208181526040808320949094558351858152935191937fddf252ad1be2c89b69c2b068fc378daa952ba7f163c4a11628f55a4df523b3ef929081900390910190a35050565b80516005546040805163900cf0cf60e01b81529051600093926001600160a01b03169163900cf0cf916004808301926020929190829003018186803b15801561253d57600080fd5b505afa158015612551573d6000803e3d6000fd5b505050506040513d602081101561256757600080fd5b50516005546040805163a7ab696160e01b815290516125ec926001600160a01b03169163a7ab6961916004808301926020929190829003018186803b1580156125af57600080fd5b505afa1580156125c3573d6000803e3d6000fd5b505050506040513d60208110156125d957600080fd5b505160208601519063ffffffff611db716565b111580156125fa5750600081115b61264b576040805162461bcd60e51b815260206004820152601c60248201527f496e636f6d706c657465207769746864726177616c20706572696f6400000000604482015290519081900360640190fd5b6000612664612658611e58565b610ac7846122d56117f6565b60105490915061267a908363ffffffff611ee716565b601055600f54612690908263ffffffff611ee716565b600f556005546006546040805163bc8756a960e01b8152600481019290925260248201849052336044830152516001600160a01b039092169163bc8756a9916064808201926020929091908290030181600087803b1580156126f157600080fd5b505af1158015612705573d6000803e3d6000fd5b505050506040513d602081101561271b57600080fd5b5051610b35576040805162461bcd60e51b8152602060048201526013602482015272496e737566666963656e74207265776172647360681b604482015290519081900360640190fd5b6003805460ff19169055565b6001600160a01b03811661278357600080fd5b6003546040516001600160a01b0380841692610100900416907f8be0079c531659141344cd1fd0a4f28419497f9722a3daafe3b4186f6b6457e090600090a3600380546001600160a01b0390921661010002610100600160a81b0319909216919091179055565b6016546000906001600160a01b031680610a7957600560009054906101000a90046001600160a01b03166001600160a01b0316635ab1bd536040518163ffffffff1660e01b815260040160206040518083038186803b15801561284c57600080fd5b505afa158015612860573d6000803e3d6000fd5b505050506040513d602081101561287657600080fd5b5051604080516832bb32b73a39a43ab160b91b8152815190819003600901812063cac39a0560e01b8252600482015290516001600160a01b039092169163cac39a0591602480820192602092909190829003018186803b1580156128d957600080fd5b505afa1580156128ed573d6000803e3d6000fd5b505050506040513d602081101561290357600080fd5b5051601680546001600160a01b0319166001600160a01b0383161790559050905090565b6003805460ff19166001179055565b6001600160a01b03821661294957600080fd5b6001600160a01b038316600090815260208190526040902054612972908263ffffffff611ee716565b6001600160a01b0380851660009081526020819052604080822093909355908416815220546129a7908263ffffffff611db716565b6001600160a01b038084166000818152602081815260409182902094909455805185815290519193928716927fddf252ad1be2c89b69c2b068fc378daa952ba7f163c4a11628f55a4df523b3ef92918290030190a3505050565b60035460ff16156115f8576040805162461bcd60e51b81526020600482015260066024820152651b1bd8dad95960d21b604482015290519081900360640190fd5b6001600160a01b038216612a5557600080fd5b600254612a68908263ffffffff611db716565b6002556001600160a01b038216600090815260208190526040902054612a94908263ffffffff611db716565b6001600160a01b0383166000818152602081815260408083209490945583518581529351929391927fddf252ad1be2c89b69c2b068fc378daa952ba7f163c4a11628f55a4df523b3ef9281900390910190a35050565b60405180604001604052806000815260200160008152509056fea265627a7a723158209fca0e080347987759726363cecfc2df4c1eab48581a93cae5937acf790033e964736f6c63430005110032",
  "source": "pragma solidity 0.5.17;\n\nimport {Registry} from \"../../common/Registry.sol\";\nimport {ERC20NonTradable} from \"../../common/tokens/ERC20NonTradable.sol\";\nimport {ERC20} from \"openzeppelin-solidity/contracts/token/ERC20/ERC20.sol\";\nimport {StakingInfo} from \"./../StakingInfo.sol\";\nimport {EventsHub} from \"./../EventsHub.sol\";\nimport {OwnableLockable} from \"../../common/mixin/OwnableLockable.sol\";\nimport {IStakeManager} from \"../stakeManager/IStakeManager.sol\";\nimport {IValidatorShare} from \"./IValidatorShare.sol\";\nimport {Initializable} from \"../../common/mixin/Initializable.sol\";\n\ncontract ValidatorShare is IValidatorShare, ERC20NonTradable, OwnableLockable, Initializable {\n    struct DelegatorUnbond {\n        uint256 shares;\n        uint256 withdrawEpoch;\n    }\n\n    uint256 constant EXCHANGE_RATE_PRECISION = 100;\n    // maximum matic possible, even if rate will be 1 and all matic will be staken in one go, it will result in 10 ^ 58 shares\n    uint256 constant EXCHANGE_RATE_HIGH_PRECISION = 10**29;\n    uint256 constant MAX_COMMISION_RATE = 100;\n    uint256 constant REWARD_PRECISION = 10**25;\n\n    StakingInfo public stakingLogger;\n    IStakeManager public stakeManager;\n    uint256 public validatorId;\n    uint256 public validatorRewards_deprecated;\n    uint256 public commissionRate_deprecated;\n    uint256 public lastCommissionUpdate_deprecated;\n    uint256 public minAmount;\n\n    uint256 public totalStake_deprecated;\n    uint256 public rewardPerShare;\n    uint256 public activeAmount;\n\n    bool public delegation;\n\n    uint256 public withdrawPool;\n    uint256 public withdrawShares;\n\n    mapping(address => uint256) amountStaked_deprecated; // deprecated, keep for foundation delegators\n    mapping(address => DelegatorUnbond) public unbonds;\n    mapping(address => uint256) public initalRewardPerShare;\n\n    mapping(address => uint256) public unbondNonces;\n    mapping(address => mapping(uint256 => DelegatorUnbond)) public unbonds_new;\n\n    EventsHub public eventsHub;\n\n    // onlyOwner will prevent this contract from initializing, since it's owner is going to be 0x0 address\n    function initialize(\n        uint256 _validatorId,\n        address _stakingLogger,\n        address _stakeManager\n    ) external initializer {\n        validatorId = _validatorId;\n        stakingLogger = StakingInfo(_stakingLogger);\n        stakeManager = IStakeManager(_stakeManager);\n        _transferOwnership(_stakeManager);\n        _getOrCacheEventsHub();\n\n        minAmount = 10**18;\n        delegation = true;\n    }\n\n    /**\n        Public View Methods\n    */\n\n    function exchangeRate() public view returns (uint256) {\n        uint256 totalShares = totalSupply();\n        uint256 precision = _getRatePrecision();\n        return totalShares == 0 ? precision : stakeManager.delegatedAmount(validatorId).mul(precision).div(totalShares);\n    }\n\n    function getTotalStake(address user) public view returns (uint256, uint256) {\n        uint256 shares = balanceOf(user);\n        uint256 rate = exchangeRate();\n        if (shares == 0) {\n            return (0, rate);\n        }\n\n        return (rate.mul(shares).div(_getRatePrecision()), rate);\n    }\n\n    function withdrawExchangeRate() public view returns (uint256) {\n        uint256 precision = _getRatePrecision();\n        if (validatorId < 8) {\n            // fix of potentially broken withdrawals for future unbonding\n            // foundation validators have no slashing enabled and thus we can return default exchange rate\n            // because without slashing rate will stay constant\n            return precision;\n        }\n\n        uint256 _withdrawShares = withdrawShares;\n        return _withdrawShares == 0 ? precision : withdrawPool.mul(precision).div(_withdrawShares);\n    }\n\n    function getLiquidRewards(address user) public view returns (uint256) {\n        return _calculateReward(user, getRewardPerShare());\n    }\n\n    function getRewardPerShare() public view returns (uint256) {\n        return _calculateRewardPerShareWithRewards(stakeManager.delegatorsReward(validatorId));\n    }\n\n    /**\n        Public Methods\n     */\n\n    function buyVoucher(uint256 _amount, uint256 _minSharesToMint) public returns(uint256 amountToDeposit) {\n        _withdrawAndTransferReward(msg.sender);\n        \n        amountToDeposit = _buyShares(_amount, _minSharesToMint, msg.sender);\n        require(stakeManager.delegationDeposit(validatorId, amountToDeposit, msg.sender), \"deposit failed\");\n        \n        return amountToDeposit;\n    }\n\n    function restake() public returns(uint256, uint256) {\n        address user = msg.sender;\n        uint256 liquidReward = _withdrawReward(user);\n        uint256 amountRestaked;\n\n        require(liquidReward >= minAmount, \"Too small rewards to restake\");\n\n        if (liquidReward != 0) {\n            amountRestaked = _buyShares(liquidReward, 0, user);\n\n            if (liquidReward > amountRestaked) {\n                // return change to the user\n                require(\n                    stakeManager.transferFunds(validatorId, liquidReward - amountRestaked, user),\n                    \"Insufficent rewards\"\n                );\n                stakingLogger.logDelegatorClaimRewards(validatorId, user, liquidReward - amountRestaked);\n            }\n\n            (uint256 totalStaked, ) = getTotalStake(user);\n            stakingLogger.logDelegatorRestaked(validatorId, user, totalStaked);\n        }\n        \n        return (amountRestaked, liquidReward);\n    }\n\n    function sellVoucher(uint256 claimAmount, uint256 maximumSharesToBurn) public {\n        (uint256 shares, uint256 _withdrawPoolShare) = _sellVoucher(claimAmount, maximumSharesToBurn);\n\n        DelegatorUnbond memory unbond = unbonds[msg.sender];\n        unbond.shares = unbond.shares.add(_withdrawPoolShare);\n        // refresh undond period\n        unbond.withdrawEpoch = stakeManager.epoch();\n        unbonds[msg.sender] = unbond;\n\n        StakingInfo logger = stakingLogger;\n        logger.logShareBurned(validatorId, msg.sender, claimAmount, shares);\n        logger.logStakeUpdate(validatorId);\n    }\n\n    function withdrawRewards() public {\n        uint256 rewards = _withdrawAndTransferReward(msg.sender);\n        require(rewards >= minAmount, \"Too small rewards amount\");\n    }\n\n    function migrateOut(address user, uint256 amount) external onlyOwner {\n        _withdrawAndTransferReward(user);\n        (uint256 totalStaked, uint256 rate) = getTotalStake(user);\n        require(totalStaked >= amount, \"Migrating too much\");\n\n        uint256 precision = _getRatePrecision();\n        uint256 shares = amount.mul(precision).div(rate);\n        _burn(user, shares);\n\n        stakeManager.updateValidatorState(validatorId, -int256(amount));\n        activeAmount = activeAmount.sub(amount);\n\n        stakingLogger.logShareBurned(validatorId, user, amount, shares);\n        stakingLogger.logStakeUpdate(validatorId);\n        stakingLogger.logDelegatorUnstaked(validatorId, user, amount);\n    }\n\n    function migrateIn(address user, uint256 amount) external onlyOwner {\n        _withdrawAndTransferReward(user);\n        _buyShares(amount, 0, user);\n    }\n\n    function unstakeClaimTokens() public {\n        DelegatorUnbond memory unbond = unbonds[msg.sender];\n        uint256 amount = _unstakeClaimTokens(unbond);\n        delete unbonds[msg.sender];\n        stakingLogger.logDelegatorUnstaked(validatorId, msg.sender, amount);\n    }\n\n    function slash(\n        uint256 validatorStake,\n        uint256 delegatedAmount,\n        uint256 totalAmountToSlash\n    ) external onlyOwner returns (uint256) {\n        uint256 _withdrawPool = withdrawPool;\n        uint256 delegationAmount = delegatedAmount.add(_withdrawPool);\n        if (delegationAmount == 0) {\n            return 0;\n        }\n        // total amount to be slashed from delegation pool (active + inactive)\n        uint256 _amountToSlash = delegationAmount.mul(totalAmountToSlash).div(validatorStake.add(delegationAmount));\n        uint256 _amountToSlashWithdrawalPool = _withdrawPool.mul(_amountToSlash).div(delegationAmount);\n\n        // slash inactive pool\n        uint256 stakeSlashed = _amountToSlash.sub(_amountToSlashWithdrawalPool);\n        stakeManager.decreaseValidatorDelegatedAmount(validatorId, stakeSlashed);\n        activeAmount = activeAmount.sub(stakeSlashed);\n\n        withdrawPool = withdrawPool.sub(_amountToSlashWithdrawalPool);\n        return _amountToSlash;\n    }\n\n    function updateDelegation(bool _delegation) external onlyOwner {\n        delegation = _delegation;\n    }\n\n    function drain(\n        address token,\n        address payable destination,\n        uint256 amount\n    ) external onlyOwner {\n        if (token == address(0x0)) {\n            destination.transfer(amount);\n        } else {\n            require(ERC20(token).transfer(destination, amount), \"Drain failed\");\n        }\n    }\n\n    /**\n        New shares exit API\n     */\n\n    function sellVoucher_new(uint256 claimAmount, uint256 maximumSharesToBurn) public {\n        (uint256 shares, uint256 _withdrawPoolShare) = _sellVoucher(claimAmount, maximumSharesToBurn);\n\n        uint256 unbondNonce = unbondNonces[msg.sender].add(1);\n\n        DelegatorUnbond memory unbond = DelegatorUnbond({\n            shares: _withdrawPoolShare,\n            withdrawEpoch: stakeManager.epoch()\n        });\n        unbonds_new[msg.sender][unbondNonce] = unbond;\n        unbondNonces[msg.sender] = unbondNonce;\n\n        _getOrCacheEventsHub().logShareBurnedWithId(validatorId, msg.sender, claimAmount, shares, unbondNonce);\n        stakingLogger.logStakeUpdate(validatorId);\n    }\n\n    function unstakeClaimTokens_new(uint256 unbondNonce) public {\n        DelegatorUnbond memory unbond = unbonds_new[msg.sender][unbondNonce];\n        uint256 amount = _unstakeClaimTokens(unbond);\n        delete unbonds_new[msg.sender][unbondNonce];\n        _getOrCacheEventsHub().logDelegatorUnstakedWithId(validatorId, msg.sender, amount, unbondNonce);\n    }\n\n    /**\n        Private Methods\n     */\n\n    function _getOrCacheEventsHub() private returns(EventsHub) {\n        EventsHub _eventsHub = eventsHub;\n        if (_eventsHub == EventsHub(0x0)) {\n            _eventsHub = EventsHub(Registry(stakeManager.getRegistry()).contractMap(keccak256(\"eventsHub\")));\n            eventsHub = _eventsHub;\n        }\n        return _eventsHub;\n    }\n\n    function _sellVoucher(uint256 claimAmount, uint256 maximumSharesToBurn) private returns(uint256, uint256) {\n        // first get how much staked in total and compare to target unstake amount\n        (uint256 totalStaked, uint256 rate) = getTotalStake(msg.sender);\n        require(totalStaked != 0 && totalStaked >= claimAmount, \"Too much requested\");\n\n        // convert requested amount back to shares\n        uint256 precision = _getRatePrecision();\n        uint256 shares = claimAmount.mul(precision).div(rate);\n        require(shares <= maximumSharesToBurn, \"too much slippage\");\n\n        _withdrawAndTransferReward(msg.sender);\n\n        _burn(msg.sender, shares);\n        stakeManager.updateValidatorState(validatorId, -int256(claimAmount));\n        activeAmount = activeAmount.sub(claimAmount);\n\n        uint256 _withdrawPoolShare = claimAmount.mul(precision).div(withdrawExchangeRate());\n        withdrawPool = withdrawPool.add(claimAmount);\n        withdrawShares = withdrawShares.add(_withdrawPoolShare);\n\n        return (shares, _withdrawPoolShare);\n    }\n\n    function _unstakeClaimTokens(DelegatorUnbond memory unbond) private returns(uint256) {\n        uint256 shares = unbond.shares;\n        require(\n            unbond.withdrawEpoch.add(stakeManager.withdrawalDelay()) <= stakeManager.epoch() && shares > 0,\n            \"Incomplete withdrawal period\"\n        );\n\n        uint256 _amount = withdrawExchangeRate().mul(shares).div(_getRatePrecision());\n        withdrawShares = withdrawShares.sub(shares);\n        withdrawPool = withdrawPool.sub(_amount);\n\n        require(stakeManager.transferFunds(validatorId, _amount, msg.sender), \"Insufficent rewards\");\n\n        return _amount;\n    }\n\n    function _getRatePrecision() private view returns (uint256) {\n        // if foundation validator, use old precision\n        if (validatorId < 8) {\n            return EXCHANGE_RATE_PRECISION;\n        }\n\n        return EXCHANGE_RATE_HIGH_PRECISION;\n    }\n\n    function _calculateRewardPerShareWithRewards(uint256 accumulatedReward) private view returns (uint256) {\n        uint256 _rewardPerShare = rewardPerShare;\n        if (accumulatedReward != 0) {\n            uint256 totalShares = totalSupply();\n            \n            if (totalShares != 0) {\n                _rewardPerShare = _rewardPerShare.add(accumulatedReward.mul(REWARD_PRECISION).div(totalShares));\n            }\n        }\n\n        return _rewardPerShare;\n    }\n\n    function _calculateReward(address user, uint256 _rewardPerShare) private view returns (uint256) {\n        uint256 shares = balanceOf(user);\n        if (shares == 0) {\n            return 0;\n        }\n\n        uint256 _initialRewardPerShare = initalRewardPerShare[user];\n\n        if (_initialRewardPerShare == _rewardPerShare) {\n            return 0;\n        }\n\n        return _rewardPerShare.sub(_initialRewardPerShare).mul(shares).div(REWARD_PRECISION);\n    }\n\n    function _withdrawReward(address user) private returns (uint256) {\n        uint256 _rewardPerShare = _calculateRewardPerShareWithRewards(\n            stakeManager.withdrawDelegatorsReward(validatorId)\n        );\n        uint256 liquidRewards = _calculateReward(user, _rewardPerShare);\n        \n        rewardPerShare = _rewardPerShare;\n        initalRewardPerShare[user] = _rewardPerShare;\n        return liquidRewards;\n    }\n\n    function _withdrawAndTransferReward(address user) private returns (uint256) {\n        uint256 liquidRewards = _withdrawReward(user);\n        if (liquidRewards != 0) {\n            require(stakeManager.transferFunds(validatorId, liquidRewards, user), \"Insufficent rewards\");\n            stakingLogger.logDelegatorClaimRewards(validatorId, user, liquidRewards);\n        }\n        return liquidRewards;\n    }\n\n    function _buyShares(\n        uint256 _amount,\n        uint256 _minSharesToMint,\n        address user\n    ) private onlyWhenUnlocked returns (uint256) {\n        require(delegation, \"Delegation is disabled\");\n\n        uint256 rate = exchangeRate();\n        uint256 precision = _getRatePrecision();\n        uint256 shares = _amount.mul(precision).div(rate);\n        require(shares >= _minSharesToMint, \"Too much slippage\");\n        require(unbonds[user].shares == 0, \"Ongoing exit\");\n\n        _mint(user, shares);\n\n        // clamp amount of tokens in case resulted shares requires less tokens than anticipated\n        _amount = rate.mul(shares).div(precision);\n\n        stakeManager.updateValidatorState(validatorId, int256(_amount));\n        activeAmount = activeAmount.add(_amount);\n\n        StakingInfo logger = stakingLogger;\n        logger.logShareMinted(validatorId, user, _amount, shares);\n        logger.logStakeUpdate(validatorId);\n\n        return _amount;\n    }\n\n    function _transfer(\n        address from,\n        address to,\n        uint256 value\n    ) internal {\n        // get rewards for recipient \n        _withdrawAndTransferReward(to);\n        // convert rewards to shares\n        _withdrawAndTransferReward(from);\n        // move shares to recipient\n        super._transfer(from, to, value);\n    }\n}\n",
  "sourcePath": "/root/matic-cli/devnet/code/contracts/contracts/staking/validatorShare/ValidatorShare.sol",
  "compiler": {
    "name": "solc",
    "version": "0.5.17+commit.d19bba13.Linux.g++"
  },
  "schemaVersion": "3.0.14",
  "updatedAt": "2022-07-11T04:28:48.595Z",
  "devdoc": {
    "methods": {
      "allowance(address,address)": {
        "details": "Function to check the amount of tokens that an owner allowed to a spender.",
        "params": {
          "owner": "address The address which owns the funds.",
          "spender": "address The address which will spend the funds."
        },
        "return": "A uint256 specifying the amount of tokens still available for the spender."
      },
      "approve(address,uint256)": {
        "details": "Approve the passed address to spend the specified amount of tokens on behalf of msg.sender. Beware that changing an allowance with this method brings the risk that someone may use both the old and the new allowance by unfortunate transaction ordering. One possible solution to mitigate this race condition is to first reduce the spender's allowance to 0 and set the desired value afterwards: https://github.com/ethereum/EIPs/issues/20#issuecomment-263524729",
        "params": {
          "spender": "The address which will spend the funds.",
          "value": "The amount of tokens to be spent."
        }
      },
      "balanceOf(address)": {
        "details": "Gets the balance of the specified address.",
        "params": {
          "owner": "The address to query the balance of."
        },
        "return": "A uint256 representing the amount owned by the passed address."
      },
      "decreaseAllowance(address,uint256)": {
        "details": "Decrease the amount of tokens that an owner allowed to a spender. approve should be called when _allowed[msg.sender][spender] == 0. To decrement allowed value is better to use this function to avoid 2 calls (and wait until the first transaction is mined) From MonolithDAO Token.sol Emits an Approval event.",
        "params": {
          "spender": "The address which will spend the funds.",
          "subtractedValue": "The amount of tokens to decrease the allowance by."
        }
      },
      "increaseAllowance(address,uint256)": {
        "details": "Increase the amount of tokens that an owner allowed to a spender. approve should be called when _allowed[msg.sender][spender] == 0. To increment allowed value is better to use this function to avoid 2 calls (and wait until the first transaction is mined) From MonolithDAO Token.sol Emits an Approval event.",
        "params": {
          "addedValue": "The amount of tokens to increase the allowance by.",
          "spender": "The address which will spend the funds."
        }
      },
      "isOwner()": {
        "return": "true if `msg.sender` is the owner of the contract."
      },
      "owner()": {
        "return": "the address of the owner."
      },
      "renounceOwnership()": {
        "details": "Allows the current owner to relinquish control of the contract. It will not be possible to call the functions with the `onlyOwner` modifier anymore."
      },
      "totalSupply()": {
        "details": "Total number of tokens in existence"
      },
      "transfer(address,uint256)": {
        "details": "Transfer token to a specified address",
        "params": {
          "to": "The address to transfer to.",
          "value": "The amount to be transferred."
        }
      },
      "transferFrom(address,address,uint256)": {
        "details": "Transfer tokens from one address to another. Note that while this function emits an Approval event, this is not required as per the specification, and other compliant implementations may not emit the event.",
        "params": {
          "from": "address The address which you want to send tokens from",
          "to": "address The address which you want to transfer to",
          "value": "uint256 the amount of tokens to be transferred"
        }
      },
      "transferOwnership(address)": {
        "details": "Allows the current owner to transfer control of the contract to a newOwner.",
        "params": {
          "newOwner": "The address to transfer ownership to."
        }
      }
    }
  },
  "userdoc": {
    "methods": {
      "buyVoucher(uint256,uint256)": {
        "notice": "Public Methods"
      },
      "exchangeRate()": {
        "notice": "Public View Methods"
      },
      "renounceOwnership()": {
        "notice": "Renouncing ownership will leave the contract without an owner, thereby removing any functionality that is only available to the owner."
      },
      "sellVoucher_new(uint256,uint256)": {
        "notice": "New shares exit API"
      }
    }
  }
}