{
  "contractName": "WithdrawManager",
  "abi": [
    {
      "anonymous": false,
      "inputs": [
        {
          "indexed": true,
          "internalType": "uint256",
          "name": "exitId",
          "type": "uint256"
        }
      ],
      "name": "ExitCancelled",
      "type": "event"
    },
    {
      "anonymous": false,
      "inputs": [
        {
          "indexed": true,
          "internalType": "uint256",
          "name": "oldExitPeriod",
          "type": "uint256"
        },
        {
          "indexed": true,
          "internalType": "uint256",
          "name": "newExitPeriod",
          "type": "uint256"
        }
      ],
      "name": "ExitPeriodUpdate",
      "type": "event"
    },
    {
      "anonymous": false,
      "inputs": [
        {
          "indexed": true,
          "internalType": "address",
          "name": "exitor",
          "type": "address"
        },
        {
          "indexed": true,
          "internalType": "uint256",
          "name": "exitId",
          "type": "uint256"
        },
        {
          "indexed": true,
          "internalType": "address",
          "name": "token",
          "type": "address"
        },
        {
          "indexed": false,
          "internalType": "uint256",
          "name": "amount",
          "type": "uint256"
        },
        {
          "indexed": false,
          "internalType": "bool",
          "name": "isRegularExit",
          "type": "bool"
        }
      ],
      "name": "ExitStarted",
      "type": "event"
    },
    {
      "anonymous": false,
      "inputs": [
        {
          "indexed": true,
          "internalType": "uint256",
          "name": "exitId",
          "type": "uint256"
        },
        {
          "indexed": true,
          "internalType": "uint256",
          "name": "age",
          "type": "uint256"
        },
        {
          "indexed": false,
          "internalType": "address",
          "name": "signer",
          "type": "address"
        }
      ],
      "name": "ExitUpdated",
      "type": "event"
    },
    {
      "anonymous": false,
      "inputs": [
        {
          "indexed": true,
          "internalType": "address",
          "name": "previousOwner",
          "type": "address"
        },
        {
          "indexed": true,
          "internalType": "address",
          "name": "newOwner",
          "type": "address"
        }
      ],
      "name": "OwnershipTransferred",
      "type": "event"
    },
    {
      "anonymous": false,
      "inputs": [
        {
          "indexed": true,
          "internalType": "uint256",
          "name": "exitId",
          "type": "uint256"
        },
        {
          "indexed": true,
          "internalType": "address",
          "name": "user",
          "type": "address"
        },
        {
          "indexed": true,
          "internalType": "address",
          "name": "token",
          "type": "address"
        },
        {
          "indexed": false,
          "internalType": "uint256",
          "name": "amount",
          "type": "uint256"
        }
      ],
      "name": "Withdraw",
      "type": "event"
    },
    {
      "payable": true,
      "stateMutability": "payable",
      "type": "fallback"
    },
    {
      "constant": true,
      "inputs": [],
      "name": "HALF_EXIT_PERIOD",
      "outputs": [
        {
          "internalType": "uint256",
          "name": "",
          "type": "uint256"
        }
      ],
      "payable": false,
      "stateMutability": "view",
      "type": "function"
    },
    {
      "constant": true,
      "inputs": [],
      "name": "ON_FINALIZE_GAS_LIMIT",
      "outputs": [
        {
          "internalType": "uint32",
          "name": "",
          "type": "uint32"
        }
      ],
      "payable": false,
      "stateMutability": "view",
      "type": "function"
    },
    {
      "constant": true,
      "inputs": [],
      "name": "exitNft",
      "outputs": [
        {
          "internalType": "contract ExitNFT",
          "name": "",
          "type": "address"
        }
      ],
      "payable": false,
      "stateMutability": "view",
      "type": "function"
    },
    {
      "constant": true,
      "inputs": [],
      "name": "exitWindow",
      "outputs": [
        {
          "internalType": "uint256",
          "name": "",
          "type": "uint256"
        }
      ],
      "payable": false,
      "stateMutability": "view",
      "type": "function"
    },
    {
      "constant": true,
      "inputs": [
        {
          "internalType": "uint256",
          "name": "",
          "type": "uint256"
        }
      ],
      "name": "exits",
      "outputs": [
        {
          "internalType": "uint256",
          "name": "receiptAmountOrNFTId",
          "type": "uint256"
        },
        {
          "internalType": "bytes32",
          "name": "txHash",
          "type": "bytes32"
        },
        {
          "internalType": "address",
          "name": "owner",
          "type": "address"
        },
        {
          "internalType": "address",
          "name": "token",
          "type": "address"
        },
        {
          "internalType": "bool",
          "name": "isRegularExit",
          "type": "bool"
        },
        {
          "internalType": "address",
          "name": "predicate",
          "type": "address"
        }
      ],
      "payable": false,
      "stateMutability": "view",
      "type": "function"
    },
    {
      "constant": true,
      "inputs": [
        {
          "internalType": "address",
          "name": "",
          "type": "address"
        }
      ],
      "name": "exitsQueues",
      "outputs": [
        {
          "internalType": "address",
          "name": "",
          "type": "address"
        }
      ],
      "payable": false,
      "stateMutability": "view",
      "type": "function"
    },
    {
      "constant": true,
      "inputs": [],
      "name": "isOwner",
      "outputs": [
        {
          "internalType": "bool",
          "name": "",
          "type": "bool"
        }
      ],
      "payable": false,
      "stateMutability": "view",
      "type": "function"
    },
    {
      "constant": true,
      "inputs": [],
      "name": "owner",
      "outputs": [
        {
          "internalType": "address",
          "name": "",
          "type": "address"
        }
      ],
      "payable": false,
      "stateMutability": "view",
      "type": "function"
    },
    {
      "constant": true,
      "inputs": [
        {
          "internalType": "bytes32",
          "name": "",
          "type": "bytes32"
        }
      ],
      "name": "ownerExits",
      "outputs": [
        {
          "internalType": "uint256",
          "name": "",
          "type": "uint256"
        }
      ],
      "payable": false,
      "stateMutability": "view",
      "type": "function"
    },
    {
      "constant": false,
      "inputs": [],
      "name": "renounceOwnership",
      "outputs": [],
      "payable": false,
      "stateMutability": "nonpayable",
      "type": "function"
    },
    {
      "constant": false,
      "inputs": [
        {
          "internalType": "address",
          "name": "newOwner",
          "type": "address"
        }
      ],
      "name": "transferOwnership",
      "outputs": [],
      "payable": false,
      "stateMutability": "nonpayable",
      "type": "function"
    },
    {
      "constant": false,
      "inputs": [
        {
          "internalType": "address",
          "name": "token",
          "type": "address"
        }
      ],
      "name": "createExitQueue",
      "outputs": [],
      "payable": false,
      "stateMutability": "nonpayable",
      "type": "function"
    },
    {
      "constant": true,
      "inputs": [
        {
          "internalType": "bytes",
          "name": "data",
          "type": "bytes"
        },
        {
          "internalType": "uint8",
          "name": "offset",
          "type": "uint8"
        },
        {
          "internalType": "bool",
          "name": "verifyTxInclusion",
          "type": "bool"
        }
      ],
      "name": "verifyInclusion",
      "outputs": [
        {
          "internalType": "uint256",
          "name": "",
          "type": "uint256"
        }
      ],
      "payable": false,
      "stateMutability": "view",
      "type": "function"
    },
    {
      "constant": false,
      "inputs": [
        {
          "internalType": "uint256",
          "name": "depositId",
          "type": "uint256"
        },
        {
          "internalType": "address",
          "name": "token",
          "type": "address"
        },
        {
          "internalType": "uint256",
          "name": "amountOrToken",
          "type": "uint256"
        }
      ],
      "name": "startExitWithDepositedTokens",
      "outputs": [],
      "payable": true,
      "stateMutability": "payable",
      "type": "function"
    },
    {
      "constant": false,
      "inputs": [
        {
          "internalType": "address",
          "name": "exitor",
          "type": "address"
        },
        {
          "internalType": "address",
          "name": "childToken",
          "type": "address"
        },
        {
          "internalType": "address",
          "name": "rootToken",
          "type": "address"
        },
        {
          "internalType": "uint256",
          "name": "exitAmountOrTokenId",
          "type": "uint256"
        },
        {
          "internalType": "bytes32",
          "name": "txHash",
          "type": "bytes32"
        },
        {
          "internalType": "bool",
          "name": "isRegularExit",
          "type": "bool"
        },
        {
          "internalType": "uint256",
          "name": "priority",
          "type": "uint256"
        }
      ],
      "name": "addExitToQueue",
      "outputs": [],
      "payable": false,
      "stateMutability": "nonpayable",
      "type": "function"
    },
    {
      "constant": false,
      "inputs": [
        {
          "internalType": "uint256",
          "name": "exitId",
          "type": "uint256"
        },
        {
          "internalType": "uint256",
          "name": "inputId",
          "type": "uint256"
        },
        {
          "internalType": "bytes",
          "name": "challengeData",
          "type": "bytes"
        },
        {
          "internalType": "address",
          "name": "adjudicatorPredicate",
          "type": "address"
        }
      ],
      "name": "challengeExit",
      "outputs": [],
      "payable": false,
      "stateMutability": "nonpayable",
      "type": "function"
    },
    {
      "constant": false,
      "inputs": [
        {
          "internalType": "address",
          "name": "_token",
          "type": "address"
        }
      ],
      "name": "processExits",
      "outputs": [],
      "payable": false,
      "stateMutability": "nonpayable",
      "type": "function"
    },
    {
      "constant": false,
      "inputs": [
        {
          "internalType": "address[]",
          "name": "_tokens",
          "type": "address[]"
        }
      ],
      "name": "processExitsBatch",
      "outputs": [],
      "payable": false,
      "stateMutability": "nonpayable",
      "type": "function"
    },
    {
      "constant": false,
      "inputs": [
        {
          "internalType": "uint256",
          "name": "exitId",
          "type": "uint256"
        },
        {
          "internalType": "uint256",
          "name": "age",
          "type": "uint256"
        },
        {
          "internalType": "address",
          "name": "utxoOwner",
          "type": "address"
        },
        {
          "internalType": "address",
          "name": "token",
          "type": "address"
        }
      ],
      "name": "addInput",
      "outputs": [],
      "payable": false,
      "stateMutability": "nonpayable",
      "type": "function"
    },
    {
      "constant": false,
      "inputs": [
        {
          "internalType": "uint256",
          "name": "halfExitPeriod",
          "type": "uint256"
        }
      ],
      "name": "updateExitPeriod",
      "outputs": [],
      "payable": false,
      "stateMutability": "nonpayable",
      "type": "function"
    }
  ],
  "bytecode": "0x6080604081905262049d4060025560098054760493e0000000000000000000000000000000000000000063ffffffff60a01b19909116179055600080546001600160a01b03191633178082556001600160a01b0316917f8be0079c531659141344cd1fd0a4f28419497f9722a3daafe3b4186f6b6457e0908290a3613bdd806100896000396000f3fe6080604052600436106200013a5760003560e01c80639145e6df11620000af578063d11f045c116200006d578063d11f045c1462000571578063d931a86914620005a8578063ed4a0be81462000609578063edeca09b1462000621578063f2fde38b1462000639576200013a565b80639145e6df146200035d5780639492b0b8146200039457806396cbd812146200042d578063ad1d8069146200045e578063c74ab88a14620004ed576200013a565b8063433c76bf11620000fd578063433c76bf1462000289578063661429c814620002b7578063715018a614620002e55780638da5cb5b14620002fd5780638f32d59b1462000331576200013a565b80630f6795f2146200013c578063144a03b314620001735780631e29848b14620001a857806322f192af14620001d2578063342de179146200021d575b005b3480156200014957600080fd5b506200013a600480360360208110156200016257600080fd5b50356001600160a01b031662000670565b6200013a600480360360608110156200018b57600080fd5b508035906001600160a01b03602082013516906040013562000bed565b348015620001b557600080fd5b50620001c062000c45565b60408051918252519081900360200190f35b348015620001df57600080fd5b506200013a60048036036080811015620001f857600080fd5b508035906020810135906001600160a01b036040820135811691606001351662000c4b565b3480156200022a57600080fd5b506200024b600480360360208110156200024357600080fd5b503562000d96565b6040805196875260208701959095526001600160a01b03938416868601529183166060860152151560808501521660a0830152519081900360c00190f35b3480156200029657600080fd5b506200013a60048036036020811015620002af57600080fd5b503562000ddf565b348015620002c457600080fd5b50620001c060048036036020811015620002dd57600080fd5b503562000e27565b348015620002f257600080fd5b506200013a62000e39565b3480156200030a57600080fd5b506200031562000e97565b604080516001600160a01b039092168252519081900360200190f35b3480156200033e57600080fd5b506200034962000ea6565b604080519115158252519081900360200190f35b3480156200036a57600080fd5b506200013a600480360360208110156200038357600080fd5b50356001600160a01b031662000eb7565b348015620003a157600080fd5b506200013a60048036036080811015620003ba57600080fd5b813591602081013591810190606081016040820135640100000000811115620003e257600080fd5b820183602082011115620003f557600080fd5b803590602001918460018302840111640100000000831117156200041857600080fd5b9193509150356001600160a01b031662000f71565b3480156200043a57600080fd5b506200044562001362565b6040805163ffffffff9092168252519081900360200190f35b3480156200046b57600080fd5b50620001c0600480360360608110156200048457600080fd5b810190602081018135640100000000811115620004a057600080fd5b820183602082011115620004b357600080fd5b80359060200191846001830284011164010000000083111715620004d657600080fd5b919350915060ff8135169060200135151562001375565b348015620004fa57600080fd5b506200013a600480360360208110156200051357600080fd5b8101906020810181356401000000008111156200052f57600080fd5b8201836020820111156200054257600080fd5b803590602001918460208302840111640100000000831117156200056557600080fd5b509092509050620015f4565b3480156200057e57600080fd5b5062000315600480360360208110156200059757600080fd5b50356001600160a01b031662001630565b348015620005b557600080fd5b506200013a600480360360e0811015620005ce57600080fd5b506001600160a01b03813581169160208101358216916040820135169060608101359060808101359060a081013515159060c001356200164b565b3480156200061657600080fd5b50620001c062001a9a565b3480156200062e57600080fd5b506200031562001aa0565b3480156200064657600080fd5b506200013a600480360360208110156200065f57600080fd5b50356001600160a01b031662001aaf565b6001600160a01b0380821660009081526008602052604081205490918291165b6000816001600160a01b031663bda1504b6040518163ffffffff1660e01b815260040160206040518083038186803b158015620006cc57600080fd5b505afa158015620006e1573d6000803e3d6000fd5b505050506040513d6020811015620006f857600080fd5b5051118015620007165750600954600160a01b900463ffffffff165a115b1562000be657806001600160a01b031663d6362e976040518163ffffffff1660e01b8152600401604080518083038186803b1580156200075557600080fd5b505afa1580156200076a573d6000803e3d6000fd5b505050506040513d60408110156200078157600080fd5b508051602090910151909350608084901b1791506200079f620031ec565b50600082815260066020908152604091829020825160c0810184528154815260018201549281019290925260028101546001600160a01b039081169383019390935260038101548084166060840152600160a01b900460ff16151560808301526004015490911660a0820152428411156200081e575050505062000bea565b816001600160a01b031663b07576ac6040518163ffffffff1660e01b81526004016040805180830381600087803b1580156200085957600080fd5b505af11580156200086e573d6000803e3d6000fd5b505050506040513d60408110156200088557600080fd5b505060095460408051634f558e7960e01b81526004810186905290516001600160a01b0390921691634f558e7991602480820192602092909190829003018186803b158015620008d457600080fd5b505afa158015620008e9573d6000803e3d6000fd5b505050506040513d60208110156200090057600080fd5b50516200090e575062000690565b600954604080516331a9108f60e11b81526004810186905290516000926001600160a01b031691636352211e916024808301926020929190829003018186803b1580156200095b57600080fd5b505afa15801562000970573d6000803e3d6000fd5b505050506040513d60208110156200098757600080fd5b505160008581526006602052604080822060020180546001600160a01b0319166001600160a01b03808616919091179091556009548251630852cd8d60e31b8152600481018a9052925194955016926342966c689260248084019391929182900301818387803b158015620009fb57600080fd5b505af115801562000a10573d6000803e3d6000fd5b505050508160a001516001600160a01b031662000a2d8562001ace565b6040516024018080602001828103825283818151815260200191508051906020019080838360005b8381101562000a6f57818101518382015260200162000a55565b50505050905090810190601f16801562000a9d5780820380516001836020036101000a031916815260200191505b5060408051601f198184030181529181526020820180516001600160e01b0316637bd94e0360e01b178152905182519295509350839250908083835b6020831062000afa5780518252601f19909201916020918201910162000ad9565b6001836020036101000a0380198251168184511680821785525050505050509050019150506000604051808303816000865af19150503d806000811462000b5e576040519150601f19603f3d011682016040523d82523d6000602084013e62000b63565b606091505b5050825160408051918252516001600160a01b03808a16935084169187917ffeb2000dca3e617cd6f3a8bbb63014bb54a124aac6ccbf73ee7229b4cd01f1209181900360200190a4816080015162000bde576040516001600160a01b0382169060009067016345785d8a00009082818181858883f150505050505b505062000690565b5050505b50565b67016345785d8a0000341462000c40576040805162461bcd60e51b8152602060048201526013602482015272125b9d985b1a5908109bdb9908185b5bdd5b9d606a1b604482015290519081900360640190fd5b505050565b600a5481565b600354604080516337b1d58560e01b815233600482015290516000926001600160a01b0316916337b1d585916024808301926020929190829003018186803b15801562000c9757600080fd5b505afa15801562000cac573d6000803e3d6000fd5b505050506040513d602081101562000cc357600080fd5b5051600381111562000cd157fe5b141562000d20576040805162461bcd60e51b8152602060048201526018602482015277141491511250d0551157d393d517d055551213d49256915160421b604482015290519081900360640190fd5b600084815260066020526040902060028101546001600160a01b031662000d80576040805162461bcd60e51b815260206004820152600f60248201526e1253959053125117d156125517d251608a1b604482015290519081900360640190fd5b62000d8f858585338662001b2b565b5050505050565b60066020526000908152604090208054600182015460028301546003840154600490940154929391926001600160a01b039182169282811692600160a01b90910460ff16911686565b62000de962000ea6565b62000df357600080fd5b6002546040518291907f06b98f3947a8966918fef150b41170e78ba1d91dd2b1d2fd48a59c91ffbd66a190600090a3600255565b60076020526000908152604090205481565b62000e4362000ea6565b62000e4d57600080fd5b600080546040516001600160a01b03909116907f8be0079c531659141344cd1fd0a4f28419497f9722a3daafe3b4186f6b6457e0908390a3600080546001600160a01b0319169055565b6000546001600160a01b031690565b6000546001600160a01b0316331490565b6003546001600160a01b0316331462000f17576040805162461bcd60e51b815260206004820152601a60248201527f554e415554484f52495a45445f52454749535452595f4f4e4c59000000000000604482015290519081900360640190fd5b60405162000f259062003221565b604051809103906000f08015801562000f42573d6000803e3d6000fd5b506001600160a01b03918216600090815260086020526040902080546001600160a01b03191691909216179055565b60008581526006602090815260408083208784526005810190925290912060028201546001600160a01b03161580159062000fb5575080546001600160a01b031615155b62001007576040805162461bcd60e51b815260206004820152601860248201527f496e76616c69642065786974206f7220696e7075742069640000000000000000604482015290519081900360640190fd5b6000600354604080516337b1d58560e01b81526001600160a01b038781166004830152915191909216916337b1d585916024808301926020929190829003018186803b1580156200105757600080fd5b505afa1580156200106c573d6000803e3d6000fd5b505050506040513d60208110156200108357600080fd5b505160038111156200109157fe5b1415620010d9576040805162461bcd60e51b8152602060048201526011602482015270494e56414c49445f50524544494341544560781b604482015290519081900360640190fd5b826001600160a01b031663ec58410c620010f38462001bea565b620010ff898562001cd9565b88886040518563ffffffff1660e01b815260040180806020018060200180602001848103845288818151815260200191508051906020019080838360005b83811015620011575781810151838201526020016200113d565b50505050905090810190601f168015620011855780820380516001836020036101000a031916815260200191505b50848103835287518152875160209182019189019080838360005b83811015620011ba578181015183820152602001620011a0565b50505050905090810190601f168015620011e85780820380516001836020036101000a031916815260200191505b508481038252858152602001868680828437600081840152601f19601f820116905080830192505050975050505050505050602060405180830381600087803b1580156200123557600080fd5b505af11580156200124a573d6000803e3d6000fd5b505050506040513d60208110156200126157600080fd5b5051620012a8576040805162461bcd60e51b815260206004820152601060248201526f10da185b1b195b99d94819985a5b195960821b604482015290519081900360640190fd5b60095460408051630852cd8d60e31b8152600481018a905290516001600160a01b03909216916342966c689160248082019260009290919082900301818387803b158015620012f657600080fd5b505af11580156200130b573d6000803e3d6000fd5b50506040513392506000915067016345785d8a00009082818181858883f150506040518a93507f93a8052a01c184f88312af177ab8fae2e56a9973b6aa4bdc62dfcf744e09d041925060009150a250505050505050565b600954600160a01b900463ffffffff1681565b6000620013816200322f565b620013c286868080601f01602080910402602001604051908101604052809392919081815260200183838082843760009201919091525062001db392505050565b9050620013ce62003242565b620013d98262001de9565b8152620013e68262001e15565b60c0820152620013f68262001e3b565b6080820152620014068262001e53565b60a08201526200143f620014246200141e8462001e6b565b62001f56565b8260c00151620014348562001f5d565b8460a0015162001f75565b62001491576040805162461bcd60e51b815260206004820152601c60248201527f494e56414c49445f524543454950545f4d45524b4c455f50524f4f4600000000604482015290519081900360640190fd5b83156200151457620014c2620014a783620021fc565b8260c00151620014b78562002214565b846080015162001f75565b62001514576040805162461bcd60e51b815260206004820152601760248201527f494e56414c49445f54585f4d45524b4c455f50524f4f46000000000000000000604482015290519081900360640190fd5b6200151f826200222c565b602082018190526200155390620015368462002244565b608084015160a085015185516200154d886200225c565b62002274565b60408201526200156382620023d8565b6060820181905263ffffffff191615620015c4576040805162461bcd60e51b815260206004820152601d60248201527f4272616e6368206d61736b2073686f756c642062652033322062697473000000604482015290519081900360640190fd5b806060015160208260200151901b607f620015e38460400151620023f0565b901b1717925050505b949350505050565b60005b8181101562000c4057620016278383838181106200161157fe5b905060200201356001600160a01b031662000670565b600101620015f7565b6008602052600090815260409020546001600160a01b031681565b600354604080516337b1d58560e01b8152336004820152905187926000926001600160a01b03909116916337b1d58591602480820192602092909190829003018186803b1580156200169c57600080fd5b505afa158015620016b1573d6000803e3d6000fd5b505050506040513d6020811015620016c857600080fd5b505160035460408051633a9831f160e21b81526001600160a01b0386811660048301529151939450600093919092169163ea60c7c4916024808301926020929190829003018186803b1580156200171e57600080fd5b505afa15801562001733573d6000803e3d6000fd5b505050506040513d60208110156200174a57600080fd5b50516001600160a01b03161415620017a9576040805162461bcd60e51b815260206004820152601760248201527f726f6f74546f6b656e206e6f7420737570706f72746564000000000000000000604482015290519081900360640190fd5b6001816003811115620017b857fe5b14156200187f57600354604080516336a8279560e21b81526001600160a01b0385811660048301529151919092169163daa09e54916024808301926020929190829003018186803b1580156200180d57600080fd5b505afa15801562001822573d6000803e3d6000fd5b505050506040513d60208110156200183957600080fd5b505115620018795760405162461bcd60e51b815260040180806020018281038252602481526020018062003b626024913960400191505060405180910390fd5b620019b7565b60028160038111156200188e57fe5b14156200195357600354604080516336a8279560e21b81526001600160a01b0385811660048301529151919092169163daa09e54916024808301926020929190829003018186803b158015620018e357600080fd5b505afa158015620018f8573d6000803e3d6000fd5b505050506040513d60208110156200190f57600080fd5b50511515600114620018795760405162461bcd60e51b815260040180806020018281038252602581526020018062003b106025913960400191505060405180910390fd5b60038160038111156200196257fe5b14156200196f57620019b7565b6040805162461bcd60e51b8152602060048201526018602482015277141491511250d0551157d393d517d055551213d49256915160421b604482015290519081900360640190fd5b60035460408051633a9831f160e21b81526001600160a01b038a811660048301529151828c16939092169163ea60c7c491602480820192602092909190829003018186803b15801562001a0957600080fd5b505afa15801562001a1e573d6000803e3d6000fd5b505050506040513d602081101562001a3557600080fd5b50516001600160a01b03161462001a7e5760405162461bcd60e51b815260040180806020018281038252602381526020018062003b866023913960400191505060405180910390fd5b62001a8f8988888888883362002409565b505050505050505050565b60025481565b6009546001600160a01b031681565b62001ab962000ea6565b62001ac357600080fd5b62000bea8162002791565b60008181526006602090815260409182902060038101546002820154915484519384018690526001600160a01b0391821684860152911660608301526080808301919091528251808303909101815260a09091019091525b919050565b604080516060810182526001600160a01b03808616808352858216602080850191825286841685870190815260008c8152600683528781208c82526005018352879020955186549086166001600160a01b03199182161787559251600187018054918716918516919091179055516002909501805495909416949091169390931790915582519081529151869288927f87d2daa6e85f166015ebbcf09f5ee4bc50f93677579339fe128e3561a6807cb692918290030190a35050505050565b6002810154600380549083015460408051633a9831f160e21b81526001600160a01b03928316600482015290516060948316939092169163ea60c7c491602480820192602092909190829003018186803b15801562001c4857600080fd5b505afa15801562001c5d573d6000803e3d6000fd5b505050506040513d602081101562001c7457600080fd5b5051835460018501546003860154604080516001600160a01b03968716602082015295909416858501526060850192909252608084015260ff600160a01b90910416151560a0808401919091528151808403909101815260c090920190529050919050565b80546001820154600354600284015460408051633a9831f160e21b81526001600160a01b039283166004820152905160609588959084169490841693169163ea60c7c4916024808301926020929190829003018186803b15801562001d3d57600080fd5b505afa15801562001d52573d6000803e3d6000fd5b505050506040513d602081101562001d6957600080fd5b50516040805160208101959095526001600160a01b03938416858201529183166060850152919091166080808401919091528151808403909101815260a090920190529392505050565b62001dbd6200322f565b606062001dd462001dce8462002800565b62002827565b60408051602081019091529081529392505050565b600062001e0f826000015160008151811062001e0157fe5b602002602001015162002908565b92915050565b606062001e0f826000015160088151811062001e2d57fe5b60200260200101516200296d565b600062001e0f826000015160048151811062001e0157fe5b600062001e0f826000015160058151811062001e0157fe5b62001e7562003285565b62001e8b826000015160068151811062001e2d57fe5b602082015262001e9a620032a6565b62001ea9826020015162002800565b905062001eb681620029e3565b1562001ecf5762001ec78162002827565b825262001f40565b606082602001519050606060018251036040519080825280601f01601f19166020018201604052801562001f0a576020820181803883390190505b50905060008083602101915082602001905062001f2a8282855162002a21565b62001f3962001dce8462002800565b8652505050505b62001f4b8362002a70565b604083015250919050565b6020015190565b606062001e0f826000015160078151811062001e2d57fe5b600062001f81620032a6565b62001f8c8462002800565b9050606062001f9b8262002827565b90506060808560008262001faf8b62002a88565b905080516000141562001fcd576000975050505050505050620015ec565b60005b8651811015620021ec57815183111562001ff657600098505050505050505050620015ec565b620020158782815181106200200757fe5b602002602001015162002bd0565b9550858051906020012084146200203857600098505050505050505050620015ec565b620020578782815181106200204957fe5b602002602001015162002827565b945084516011141562002122578151831415620020ba578c80519060200120620020888660108151811062001e2d57fe5b805190602001201415620020a857600198505050505050505050620015ec565b600098505050505050505050620015ec565b6000828481518110620020c957fe5b016020015160f81c90506010811115620020f05760009950505050505050505050620015ec565b62002112868260ff16815181106200210457fe5b602002602001015162002c3d565b94505060019290920191620021e3565b845160021415620020a85760006200214d620021458760008151811062001e2d57fe5b848662002c5b565b905082518185011415620021a9578d80519060200120620021758760018151811062001e2d57fe5b805190602001201415620021965760019950505050505050505050620015ec565b60009950505050505050505050620015ec565b80620021c25760009950505050505050505050620015ec565b8084019350620021d9866001815181106200210457fe5b9450620021e39050565b60010162001fd0565b5050505050505050949350505050565b606062001e0f8260000151600a8151811062001e2d57fe5b606062001e0f8260000151600b8151811062001e2d57fe5b600062001e0f826000015160028151811062001e0157fe5b600062001e0f826000015160038151811062001e0157fe5b606062001e0f826000015160018151811062001e2d57fe5b60048054604080516320a9cea560e11b8152928301859052516000928392839283926001600160a01b03909216916341539d4a9160248083019260a0929190829003018186803b158015620022c857600080fd5b505afa158015620022dd573d6000803e3d6000fd5b505050506040513d60a0811015620022f457600080fd5b81019080805190602001909291908051906020019092919080519060200190929190805190602001909291908051906020019092919050505050935050925092506200238e828b0384878d8d8d8d604051602001808581526020018481526020018381526020018281526020019450505050506040516020818303038152906040528051906020012062002d2e909392919063ffffffff16565b620023cb5760405162461bcd60e51b815260040180806020018281038252602d81526020018062003b35602d913960400191505060405180910390fd5b9998505050505050505050565b600062001e0f826000015160088151811062001e0157fe5b600062001e0f6002546002028301600254420162002e8c565b6000828152600660205260409020600301546001600160a01b0316156200246d576040805162461bcd60e51b8152602060048201526013602482015272455849545f414c52454144595f45584953545360681b604482015290519081900360640190fd5b6040805160c08101825286815260208082018781526001600160a01b03808c168486019081528b8216606086019081528915156080870190815288841660a0880190815260008b8152600690975297862096518088559451600188015591516002870180549185166001600160a01b03199283161790819055915160038801805494511515600160a01b0260ff60a01b199287169584169590951791909116939093179283905596516004870180549185169190981617909655939492936200253d939082169291169062002ea5565b90508415620025cb576001600160801b03841660009081526005602052604090205460ff1615620025a2576040805162461bcd60e51b815260206004820152600a60248201526912d393d5d397d156125560b21b604482015290519081900360640190fd5b6001600160801b0384166000908152600560205260409020805460ff191660011790556200263f565b600081815260076020526040902054156200262d576040805162461bcd60e51b815260206004820152601860248201527f455849545f414c52454144595f494e5f50524f47524553530000000000000000604482015290519081900360640190fd5b60008181526007602052604090208490555b60038201546001600160a01b03908116600090815260086020526040808220548151631d834a1b60e01b8152608089901c60048201526001600160801b038916602482015291519316928392631d834a1b926044808201939182900301818387803b158015620026ae57600080fd5b505af1158015620026c3573d6000803e3d6000fd5b50506009546002860154604080516340c10f1960e01b81526001600160a01b039283166004820152602481018b905290519190921693506340c10f199250604480830192600092919082900301818387803b1580156200272257600080fd5b505af115801562002737573d6000803e3d6000fd5b5050604080518b8152891515602082015281516001600160a01b03808f1695508a94508f16927faa5303fdad123ab5ecaefaf69137bf8632257839546d43a3b3dd148cc2879d6f928290030190a450505050505050505050565b6001600160a01b038116620027a557600080fd5b600080546040516001600160a01b03808516939216917f8be0079c531659141344cd1fd0a4f28419497f9722a3daafe3b4186f6b6457e091a3600080546001600160a01b0319166001600160a01b0392909216919091179055565b6200280a620032a6565b506040805180820190915281518152602082810190820152919050565b60606200283482620029e3565b6200283e57600080fd5b60006200284b836200301d565b90506060816040519080825280602002602001820160405280156200288d57816020015b62002879620032a6565b8152602001906001900390816200286f5790505b5090506000620028a1856020015162003081565b60208601510190506000805b84811015620028fd57620028c183620030ed565b9150604051806040016040528083815260200184815250848281518110620028e557fe5b602090810291909101015291810191600101620028ad565b509195945050505050565b8051600090158015906200291e57508151602110155b6200292857600080fd5b600062002939836020015162003081565b835160208086015183018051939450918490039291908310156200296457826020036101000a820491505b50949350505050565b80516060906200297c57600080fd5b60006200298d836020015162003081565b83516040805191839003808352601f19601f8201168301602001909152919250606090828015620029c5576020820181803883390190505b50905060008160200190506200296484876020015101828562002a21565b8051600090620029f65750600062001b26565b6020820151805160001a9060c082101562002a175760009250505062001b26565b5060019392505050565b8062002a2d5762000c40565b5b6020811062002a4f578251825260209283019290910190601f190162002a2e565b915181516020939093036101000a6000190180199091169216919091179052565b600062001e0f826000015160098151811062001e0157fe5b60608060008351111562001e0f5760008062002aa660008662003189565b60f81c9050600181148062002abe57508060ff166003145b1562002b3c5760018551600202036040519080825280601f01601f19166020018201604052801562002af7576020820181803883390190505b509250600062002b0960018762003189565b9050808460008151811062002b1a57fe5b60200101906001600160f81b031916908160001a905350600192505062002b77565b60028551600202036040519080825280601f01601f19166020018201604052801562002b6f576020820181803883390190505b509250600091505b60ff82165b835181101562002bc75762002b9a8360ff1682036002018762003189565b84828151811062002ba757fe5b60200101906001600160f81b031916908160001a90535060010162002b7c565b50505092915050565b60608082600001516040519080825280601f01601f19166020018201604052801562002c03576020820181803883390190505b50905080516000141562002c1957905062001b26565b600081602001905062002c36846020015182866000015162002a21565b5092915050565b805160009060211462002c4f57600080fd5b50602001516001015190565b600080606062002c6b8662002a88565b9050606081516040519080825280601f01601f19166020018201604052801562002c9c576020820181803883390190505b509050845b8251860181101562002cfa57600087828151811062002cbc57fe5b602001015160f81c60f81b905080838884038151811062002cd957fe5b60200101906001600160f81b031916908160001a9053505060010162002ca1565b5080805190602001208280519060200120141562002d1c578151925062002d21565b600092505b50909150505b9392505050565b6000602082518162002d3c57fe5b061562002d87576040805162461bcd60e51b8152602060048201526014602482015273092dcecc2d8d2c840e0e4dedecc40d8cadccee8d60631b604482015290519081900360640190fd5b6000602083518162002d9557fe5b0490508060020a851062002de8576040805162461bcd60e51b81526020600482015260156024820152744c65616620696e64657820697320746f6f2062696760581b604482015290519081900360640190fd5b60008660205b8551811162002e7e578581015192506002880662002e3d578183604051602001808381526020018281526020019250505060405160208183030381529060405280519060200120915062002e6f565b828260405160200180838152602001828152602001925050506040516020818303038152906040528051906020012091505b60028804975060200162002dee565b509094149695505050505050565b60008183101562002e9e578162002d27565b5090919050565b600354604080516336a8279560e21b81526001600160a01b0386811660048301529151600093929092169163daa09e5491602480820192602092909190829003018186803b15801562002ef757600080fd5b505afa15801562002f0c573d6000803e3d6000fd5b505050506040513d602081101562002f2357600080fd5b50511562002f7e575060408051606085811b6bffffffffffffffffffffffff199081166020808501919091529186901b1660348301526048808301859052835180840390910181526068909201909252805191012062002d27565b6000821162002fd4576040805162461bcd60e51b815260206004820152601860248201527f43414e4e4f545f455849545f5a45524f5f414d4f554e54530000000000000000604482015290519081900360640190fd5b5050604080516bffffffffffffffffffffffff19606094851b81166020808401919091529390941b90931660348401528051602881850301815260489093019052815191012090565b8051600090620030305750600062001b26565b6000809050600062003046846020015162003081565b602085015185519181019250015b8082101562003078576200306882620030ed565b6001909301929091019062003054565b50909392505050565b8051600090811a60808110156200309d57600091505062001b26565b60b8811080620030ba575060c08110801590620030ba575060f881105b15620030cb57600191505062001b26565b60c0811015620030e15760b51901905062001b26565b60f51901905062001b26565b80516000908190811a60808110156200310a576001915062002c36565b60b88110156200312157607e198101915062002c36565b60c0811015620031505760b78103600185019450806020036101000a8551046001820181019350505062002c36565b60f8811015620031675760be198101915062002c36565b60019390930151602084900360f7016101000a900490920160f5190192915050565b60006002830615620031be576010826002850481518110620031a757fe5b016020015160f81c81620031b757fe5b06620031e2565b6010826002850481518110620031d057fe5b016020015160f81c81620031e057fe5b045b60f81b9392505050565b6040805160c081018252600080825260208201819052918101829052606081018290526080810182905260a081019190915290565b61084f80620032c183390190565b6040518060200160405280606081525090565b6040518060e00160405280600081526020016000815260200160008152602001600081526020016000801916815260200160008019168152602001606081525090565b60405180606001604052806060815260200160608152602001600081525090565b60405180604001604052806000815260200160008152509056fe608060405234801561001057600080fd5b50600080546001600160a01b03191633178082556040516001600160a01b039190911691907f8be0079c531659141344cd1fd0a4f28419497f9722a3daafe3b4186f6b6457e0908290a3604080516020810190915260008152610076906001908161007c565b506100e9565b8280548282559060005260206000209081019282156100bc579160200282015b828111156100bc578251829060ff1690559160200191906001019061009c565b506100c89291506100cc565b5090565b6100e691905b808211156100c857600081556001016100d2565b90565b610757806100f86000396000f3fe608060405234801561001057600080fd5b50600436106100885760003560e01c8063b07576ac1161005b578063b07576ac146100fa578063bda1504b1461011b578063d6362e9714610135578063f2fde38b1461013d57610088565b80631d834a1b1461008d578063715018a6146100b25780638da5cb5b146100ba5780638f32d59b146100de575b600080fd5b6100b0600480360360408110156100a357600080fd5b5080359060200135610163565b005b6100b06101d8565b6100c2610233565b604080516001600160a01b039092168252519081900360200190f35b6100e6610243565b604080519115158252519081900360200190f35b610102610254565b6040805192835260208301919091528051918290030190f35b610123610325565b60408051918252519081900360200190f35b61010261032b565b6100b06004803603602081101561015357600080fd5b50356001600160a01b0316610356565b61016b610243565b61017457600080fd5b6001805480820182556000829052608084901b83177fb10e2d527612073b26eecdfd717e6a320cf44b4afac2b0732d9fcbe2b7fa0cf690910181905560025490916101c5919063ffffffff61037316565b60028190556101d39061038e565b505050565b6101e0610243565b6101e957600080fd5b600080546040516001600160a01b03909116907f8be0079c531659141344cd1fd0a4f28419497f9722a3daafe3b4186f6b6457e0908390a3600080546001600160a01b0319169055565b6000546001600160a01b03165b90565b6000546001600160a01b0316331490565b60008061025f610243565b61026857600080fd5b60006001808154811061027757fe5b9060005260206000200154905060016002548154811061029357fe5b9060005260206000200154600180815481106102ab57fe5b90600052602060002001819055506001600254815481106102c857fe5b60009182526020822001556002546102e790600163ffffffff61046216565b6002556102f46001610477565b600180546103079163ffffffff61046216565b6103126001826106e5565b5061031c81610542565b92509250509091565b60025481565b60008061034e6001808154811061033e57fe5b9060005260206000200154610542565b915091509091565b61035e610243565b61036757600080fd5b6103708161055f565b50565b60008282018381101561038557600080fd5b90505b92915050565b600180548291829160009190839081106103a457fe5b906000526020600020015490505b60016103c584600263ffffffff6105cd16565b815481106103cf57fe5b906000526020600020015481101561043a5760016103f484600263ffffffff6105cd16565b815481106103fe57fe5b90600052602060002001546001848154811061041657fe5b60009182526020909120015561043383600263ffffffff6105cd16565b92506103b2565b81831461045c57806001848154811061044f57fe5b6000918252602090912001555b50505050565b60008282111561047157600080fd5b50900390565b6001805482918291600091908390811061048d57fe5b9060005260206000200154905060006104a5846105ef565b90505b60025481111580156104d05750600181815481106104c257fe5b906000526020600020015482115b1561051957600181815481106104e257fe5b9060005260206000200154600185815481106104fa57fe5b600091825260209091200155925082610512816105ef565b90506104a8565b82841461053b57816001858154811061052e57fe5b6000918252602090912001555b5050505050565b608081901c6fffffffffffffffffffffffffffffffff8216915091565b6001600160a01b03811661057257600080fd5b600080546040516001600160a01b03808516939216917f8be0079c531659141344cd1fd0a4f28419497f9722a3daafe3b4186f6b6457e091a3600080546001600160a01b0319166001600160a01b0392909216919091179055565b60008082116105db57600080fd5b60008284816105e657fe5b04949350505050565b6000600254610619600161060d6002866106be90919063ffffffff16565b9063ffffffff61037316565b11156106375761063082600263ffffffff6106be16565b90506106b9565b600161064e8161060d85600263ffffffff6106be16565b8154811061065857fe5b600091825260209091200154600161067784600263ffffffff6106be16565b8154811061068157fe5b906000526020600020015410156106a35761063082600263ffffffff6106be16565b610630600161060d84600263ffffffff6106be16565b919050565b6000826106cd57506000610388565b828202828482816106da57fe5b041461038557600080fd5b8154818355818111156101d3576000838152602090206101d391810190830161024091905b8082111561071e576000815560010161070a565b509056fea265627a7a723158209286642ee3ce3c6c0b61e1e2587d60f3f34e529b470b256cedfa0e704f794d8564736f6c6343000511003250726564696361746520737570706f727473206f6e6c792045524337323120746f6b656e7357495448445241575f424c4f434b5f4e4f545f415f504152545f4f465f5355424d49545445445f48454144455250726564696361746520737570706f727473206f6e6c7920455243323020746f6b656e73494e56414c49445f524f4f545f544f5f4348494c445f544f4b454e5f4d415050494e47a265627a7a723158201f31131991cb0467669607096bd2f82351f4b8d25a51f00693a3259cbbfd969564736f6c63430005110032",
  "source": "pragma solidity ^0.5.2;\n\nimport {ERC20} from \"openzeppelin-solidity/contracts/token/ERC20/ERC20.sol\";\nimport {ERC721} from \"openzeppelin-solidity/contracts/token/ERC721/ERC721.sol\";\nimport {Math} from \"openzeppelin-solidity/contracts/math/Math.sol\";\nimport {RLPReader} from \"solidity-rlp/contracts/RLPReader.sol\";\n\nimport {Merkle} from \"../../common/lib/Merkle.sol\";\nimport {MerklePatriciaProof} from \"../../common/lib/MerklePatriciaProof.sol\";\nimport {PriorityQueue} from \"../../common/lib/PriorityQueue.sol\";\nimport {ExitPayloadReader} from \"../../common/lib/ExitPayloadReader.sol\";\n\nimport {ExitNFT} from \"./ExitNFT.sol\";\nimport {DepositManager} from \"../depositManager/DepositManager.sol\";\nimport {IPredicate} from \"../predicates/IPredicate.sol\";\nimport {IWithdrawManager} from \"./IWithdrawManager.sol\";\nimport {RootChainHeader} from \"../RootChainStorage.sol\";\nimport {Registry} from \"../../common/Registry.sol\";\nimport {WithdrawManagerStorage} from \"./WithdrawManagerStorage.sol\";\n\n\ncontract WithdrawManager is WithdrawManagerStorage, IWithdrawManager {\n    using RLPReader for bytes;\n    using RLPReader for RLPReader.RLPItem;\n    using Merkle for bytes32;\n\n    using ExitPayloadReader for bytes;\n    using ExitPayloadReader for ExitPayloadReader.ExitPayload;\n    using ExitPayloadReader for ExitPayloadReader.Receipt;\n    using ExitPayloadReader for ExitPayloadReader.Log;\n    using ExitPayloadReader for ExitPayloadReader.LogTopics;\n\n    modifier isBondProvided() {\n        require(msg.value == BOND_AMOUNT, \"Invalid Bond amount\");\n        _;\n    }\n\n    modifier isPredicateAuthorized() {\n        require(registry.predicates(msg.sender) != Registry.Type.Invalid, \"PREDICATE_NOT_AUTHORIZED\");\n        _;\n    }\n\n    modifier checkPredicateAndTokenMapping(address rootToken) {\n        Registry.Type _type = registry.predicates(msg.sender);\n        require(registry.rootToChildToken(rootToken) != address(0x0), \"rootToken not supported\");\n        if (_type == Registry.Type.ERC20) {\n            require(registry.isERC721(rootToken) == false, \"Predicate supports only ERC20 tokens\");\n        } else if (_type == Registry.Type.ERC721) {\n            require(registry.isERC721(rootToken) == true, \"Predicate supports only ERC721 tokens\");\n        } else if (_type == Registry.Type.Custom) {} else {\n            revert(\"PREDICATE_NOT_AUTHORIZED\");\n        }\n        _;\n    }\n\n    /**\n     * @dev Receive bond for bonded exits\n     */\n    function() external payable {}\n\n    function createExitQueue(address token) external {\n        require(msg.sender == address(registry), \"UNAUTHORIZED_REGISTRY_ONLY\");\n        exitsQueues[token] = address(new PriorityQueue());\n    }\n\n    /**\n     During coverage tests verifyInclusion fails co compile with \"stack too deep\" error.\n     */\n    struct VerifyInclusionVars {\n        uint256 headerNumber;\n        uint256 blockNumber;\n        uint256 createdAt;\n        uint256 branchMask;\n        bytes32 txRoot;\n        bytes32 receiptRoot;\n        bytes branchMaskBytes;\n    }\n\n    /**\n     * @dev Verify the inclusion of the receipt in the checkpoint\n     * @param data RLP encoded data of the reference tx(s) that encodes the following fields for each tx\n     * headerNumber Header block number of which the reference tx was a part of\n     * blockProof Proof that the block header (in the child chain) is a leaf in the submitted merkle root\n     * blockNumber Block number of which the reference tx is a part of\n     * blockTime Reference tx block time\n     * blocktxRoot Transactions root of block\n     * blockReceiptsRoot Receipts root of block\n     * receipt Receipt of the reference transaction\n     * receiptProof Merkle proof of the reference receipt\n     * branchMask Merkle proof branchMask for the receipt\n     * logIndex Log Index to read from the receipt\n     * @param offset offset in the data array\n     * @param verifyTxInclusion Whether to also verify the inclusion of the raw tx in the txRoot\n     * @return ageOfInput Measure of the position of the receipt and the log in the child chain\n     */\n    function verifyInclusion(\n        bytes calldata data,\n        uint8 offset,\n        bool verifyTxInclusion\n    )\n        external\n        view\n        returns (\n            uint256 /* ageOfInput */\n        )\n    {\n        ExitPayloadReader.ExitPayload memory payload = data.toExitPayload();\n        VerifyInclusionVars memory vars;\n\n        vars.headerNumber = payload.getHeaderNumber();\n        vars.branchMaskBytes = payload.getBranchMaskAsBytes();\n        vars.txRoot = payload.getTxRoot();\n        vars.receiptRoot = payload.getReceiptRoot();\n        require(\n            MerklePatriciaProof.verify(\n                payload.getReceipt().toBytes(),\n                vars.branchMaskBytes,\n                payload.getReceiptProof(),\n                vars.receiptRoot\n            ),\n            \"INVALID_RECEIPT_MERKLE_PROOF\"\n        );\n\n        if (verifyTxInclusion) {\n            require(\n                MerklePatriciaProof.verify(\n                    payload.getTx(),\n                    vars.branchMaskBytes,\n                    payload.getTxProof(), \n                    vars.txRoot\n                ),\n                \"INVALID_TX_MERKLE_PROOF\"\n            );\n        }\n\n        vars.blockNumber = payload.getBlockNumber();\n        vars.createdAt = checkBlockMembershipInCheckpoint(\n            vars.blockNumber,\n            payload.getBlockTime(),\n            vars.txRoot,\n            vars.receiptRoot,\n            vars.headerNumber,\n            payload.getBlockProof()\n        );\n\n        vars.branchMask = payload.getBranchMaskAsUint();\n        require(\n            vars.branchMask & 0xFFFFFFFFFFFFFFFFFFFFFFFFFFFFFFFFFFFFFFFFFFFFFFFFFFFFFFFF00000000 == 0,\n            \"Branch mask should be 32 bits\"\n        );\n        // ageOfInput is denoted as\n        // 1 reserve bit (see last 2 lines in comment)\n        // 128 bits for exitableAt timestamp\n        // 95 bits for child block number\n        // 32 bits for receiptPos + logIndex * MAX_LOGS + oIndex\n        // In predicates, the exitId will be evaluated by shifting the ageOfInput left by 1 bit\n        // (Only in erc20Predicate) Last bit is to differentiate whether the sender or receiver of the in-flight tx is starting an exit\n        return (getExitableAt(vars.createdAt) << 127) | (vars.blockNumber << 32) | vars.branchMask;\n    }\n\n    function startExitWithDepositedTokens(\n        uint256 depositId,\n        address token,\n        uint256 amountOrToken\n    ) external payable isBondProvided {\n        // (bytes32 depositHash, uint256 createdAt) = getDepositManager().deposits(depositId);\n        // require(keccak256(abi.encodePacked(msg.sender, token, amountOrToken)) == depositHash, \"UNAUTHORIZED_EXIT\");\n        // uint256 ageOfInput = getExitableAt(createdAt) << 127 | (depositId % 10000 /* MAX_DEPOSITS */);\n        // uint256 exitId = ageOfInput << 1;\n        // address predicate = registry.isTokenMappedAndGetPredicate(token);\n        // _addExitToQueue(\n        //     msg.sender,\n        //     token,\n        //     amountOrToken,\n        //     bytes32(0), /* txHash */\n        //     false, /* isRegularExit */\n        //     exitId,\n        //     predicate\n        // );\n        // _addInput(\n        //     exitId,\n        //     ageOfInput,\n        //     msg.sender, /* utxoOwner */\n        //     predicate,\n        //     token\n        // );\n    }\n\n    function addExitToQueue(\n        address exitor,\n        address childToken,\n        address rootToken,\n        uint256 exitAmountOrTokenId,\n        bytes32 txHash,\n        bool isRegularExit,\n        uint256 priority\n    ) external checkPredicateAndTokenMapping(rootToken) {\n        require(registry.rootToChildToken(rootToken) == childToken, \"INVALID_ROOT_TO_CHILD_TOKEN_MAPPING\");\n        _addExitToQueue(exitor, rootToken, exitAmountOrTokenId, txHash, isRegularExit, priority, msg.sender);\n    }\n\n    function challengeExit(\n        uint256 exitId,\n        uint256 inputId,\n        bytes calldata challengeData,\n        address adjudicatorPredicate\n    ) external {\n        PlasmaExit storage exit = exits[exitId];\n        Input storage input = exit.inputs[inputId];\n        require(exit.owner != address(0x0) && input.utxoOwner != address(0x0), \"Invalid exit or input id\");\n        require(registry.predicates(adjudicatorPredicate) != Registry.Type.Invalid, \"INVALID_PREDICATE\");\n        require(\n            IPredicate(adjudicatorPredicate).verifyDeprecation(\n                encodeExit(exit),\n                encodeInputUtxo(inputId, input),\n                challengeData\n            ),\n            \"Challenge failed\"\n        );\n        // In the call to burn(exitId), there is an implicit check that prevents challenging the same exit twice\n        ExitNFT(exitNft).burn(exitId);\n\n        // Send bond amount to challenger\n        msg.sender.send(BOND_AMOUNT);\n\n        // delete exits[exitId];\n        emit ExitCancelled(exitId);\n    }\n\n    function processExits(address _token) public {\n        uint256 exitableAt;\n        uint256 exitId;\n\n        PriorityQueue exitQueue = PriorityQueue(exitsQueues[_token]);\n\n        while (exitQueue.currentSize() > 0 && gasleft() > ON_FINALIZE_GAS_LIMIT) {\n            (exitableAt, exitId) = exitQueue.getMin();\n            exitId = (exitableAt << 128) | exitId;\n            PlasmaExit memory currentExit = exits[exitId];\n\n            // Stop processing exits if the exit that is next is queue is still in its challenge period\n            if (exitableAt > block.timestamp) return;\n\n            exitQueue.delMin();\n            // If the exitNft was deleted as a result of a challenge, skip processing this exit\n            if (!exitNft.exists(exitId)) continue;\n            address exitor = exitNft.ownerOf(exitId);\n            exits[exitId].owner = exitor;\n            exitNft.burn(exitId);\n            // If finalizing a particular exit is reverting, it will block any following exits from being processed.\n            // Hence, call predicate.onFinalizeExit in a revertless manner.\n            // (bool success, bytes memory result) =\n            currentExit.predicate.call(\n                abi.encodeWithSignature(\"onFinalizeExit(bytes)\", encodeExitForProcessExit(exitId))\n            );\n\n            emit Withdraw(exitId, exitor, _token, currentExit.receiptAmountOrNFTId);\n\n            if (!currentExit.isRegularExit) {\n                // return the bond amount if this was a MoreVp style exit\n                address(uint160(exitor)).send(BOND_AMOUNT);\n            }\n        }\n    }\n\n    function processExitsBatch(address[] calldata _tokens) external {\n        for (uint256 i = 0; i < _tokens.length; i++) {\n            processExits(_tokens[i]);\n        }\n    }\n\n    /**\n     * @dev Add a state update (UTXO style input) to an exit\n     * @param exitId Exit ID\n     * @param age age of the UTXO style input\n     * @param utxoOwner User for whom the input acts as a proof-of-funds\n     * (alternate expression) User who could have potentially spent this UTXO\n     * @param token Token (Think of it like Utxo color)\n     */\n    function addInput(\n        uint256 exitId,\n        uint256 age,\n        address utxoOwner,\n        address token\n    ) external isPredicateAuthorized {\n        PlasmaExit storage exitObject = exits[exitId];\n        require(exitObject.owner != address(0x0), \"INVALID_EXIT_ID\");\n        _addInput(\n            exitId,\n            age,\n            utxoOwner,\n            /* predicate */\n            msg.sender,\n            token\n        );\n    }\n\n    function _addInput(\n        uint256 exitId,\n        uint256 age,\n        address utxoOwner,\n        address predicate,\n        address token\n    ) internal {\n        exits[exitId].inputs[age] = Input(utxoOwner, predicate, token);\n        emit ExitUpdated(exitId, age, utxoOwner);\n    }\n\n    function encodeExit(PlasmaExit storage exit) internal view returns (bytes memory) {\n        return\n            abi.encode(\n                exit.owner,\n                registry.rootToChildToken(exit.token),\n                exit.receiptAmountOrNFTId,\n                exit.txHash,\n                exit.isRegularExit\n            );\n    }\n\n    function encodeExitForProcessExit(uint256 exitId) internal view returns (bytes memory) {\n        PlasmaExit storage exit = exits[exitId];\n        return abi.encode(exitId, exit.token, exit.owner, exit.receiptAmountOrNFTId);\n    }\n\n    function encodeInputUtxo(uint256 age, Input storage input) internal view returns (bytes memory) {\n        return abi.encode(age, input.utxoOwner, input.predicate, registry.rootToChildToken(input.token));\n    }\n\n    function _addExitToQueue(\n        address exitor,\n        address rootToken,\n        uint256 exitAmountOrTokenId,\n        bytes32 txHash,\n        bool isRegularExit,\n        uint256 exitId,\n        address predicate\n    ) internal {\n        require(exits[exitId].token == address(0x0), \"EXIT_ALREADY_EXISTS\");\n        exits[exitId] = PlasmaExit(\n            exitAmountOrTokenId,\n            txHash,\n            exitor,\n            rootToken,\n            isRegularExit,\n            predicate\n        );\n        PlasmaExit storage _exitObject = exits[exitId];\n\n        bytes32 key = getKey(_exitObject.token, _exitObject.owner, _exitObject.receiptAmountOrNFTId);\n\n        if (isRegularExit) {\n            require(!isKnownExit[uint128(exitId)], \"KNOWN_EXIT\");\n            isKnownExit[uint128(exitId)] = true;\n        } else {\n            // a user cannot start 2 MoreVP exits for the same erc20 token or nft\n            require(ownerExits[key] == 0, \"EXIT_ALREADY_IN_PROGRESS\");\n            ownerExits[key] = exitId;\n        }\n\n        PriorityQueue queue = PriorityQueue(exitsQueues[_exitObject.token]);\n\n        // Way priority queue is implemented is such that it expects 2 uint256 params with most significant 128 bits masked out\n        // This is a workaround to split exitId, which otherwise is conclusive in itself\n        // exitId >> 128 gives 128 most significant bits\n        // uint256(uint128(exitId)) gives 128 least significant bits\n        // @todo Fix this mess\n        queue.insert(exitId >> 128, uint256(uint128(exitId)));\n\n        // create exit nft\n        exitNft.mint(_exitObject.owner, exitId);\n        emit ExitStarted(exitor, exitId, rootToken, exitAmountOrTokenId, isRegularExit);\n    }\n\n    function checkBlockMembershipInCheckpoint(\n        uint256 blockNumber,\n        uint256 blockTime,\n        bytes32 txRoot,\n        bytes32 receiptRoot,\n        uint256 headerNumber,\n        bytes memory blockProof\n    )\n        internal\n        view\n        returns (\n            uint256 /* createdAt */\n        )\n    {\n        (bytes32 headerRoot, uint256 startBlock, , uint256 createdAt, ) = rootChain.headerBlocks(headerNumber);\n        require(\n            keccak256(abi.encodePacked(blockNumber, blockTime, txRoot, receiptRoot)).checkMembership(\n                blockNumber - startBlock,\n                headerRoot,\n                blockProof\n            ),\n            \"WITHDRAW_BLOCK_NOT_A_PART_OF_SUBMITTED_HEADER\"\n        );\n        return createdAt;\n    }\n\n    function getKey(\n        address token,\n        address exitor,\n        uint256 amountOrToken\n    ) internal view returns (bytes32 key) {\n        if (registry.isERC721(token)) {\n            key = keccak256(abi.encodePacked(token, exitor, amountOrToken));\n        } else {\n            // validate amount\n            require(amountOrToken > 0, \"CANNOT_EXIT_ZERO_AMOUNTS\");\n            key = keccak256(abi.encodePacked(token, exitor));\n        }\n    }\n\n    function getDepositManager() internal view returns (DepositManager) {\n        return DepositManager(address(uint160(registry.getDepositManagerAddress())));\n    }\n\n    function getExitableAt(uint256 createdAt) internal view returns (uint256) {\n        return Math.max(createdAt + 2 * HALF_EXIT_PERIOD, now + HALF_EXIT_PERIOD);\n    }\n\n    // Housekeeping function. @todo remove later\n    function updateExitPeriod(uint256 halfExitPeriod) public onlyOwner {\n        emit ExitPeriodUpdate(HALF_EXIT_PERIOD, halfExitPeriod);\n        HALF_EXIT_PERIOD = halfExitPeriod;\n    }\n}\n",
  "sourcePath": "/root/matic-cli/devnet/code/contracts/contracts/root/withdrawManager/WithdrawManager.sol",
  "compiler": {
    "name": "solc",
    "version": "0.5.17+commit.d19bba13.Linux.g++"
  },
  "schemaVersion": "3.0.14",
  "updatedAt": "2022-07-06T11:11:58.281Z",
  "devdoc": {
    "methods": {
      "addInput(uint256,uint256,address,address)": {
        "details": "Add a state update (UTXO style input) to an exit",
        "params": {
          "age": "age of the UTXO style input",
          "exitId": "Exit ID",
          "token": "Token (Think of it like Utxo color)",
          "utxoOwner": "User for whom the input acts as a proof-of-funds (alternate expression) User who could have potentially spent this UTXO"
        }
      },
      "isOwner()": {
        "return": "true if `msg.sender` is the owner of the contract."
      },
      "owner()": {
        "return": "the address of the owner."
      },
      "renounceOwnership()": {
        "details": "Allows the current owner to relinquish control of the contract. It will not be possible to call the functions with the `onlyOwner` modifier anymore."
      },
      "transferOwnership(address)": {
        "details": "Allows the current owner to transfer control of the contract to a newOwner.",
        "params": {
          "newOwner": "The address to transfer ownership to."
        }
      },
      "verifyInclusion(bytes,uint8,bool)": {
        "details": "Verify the inclusion of the receipt in the checkpoint",
        "params": {
          "data": "RLP encoded data of the reference tx(s) that encodes the following fields for each tx headerNumber Header block number of which the reference tx was a part of blockProof Proof that the block header (in the child chain) is a leaf in the submitted merkle root blockNumber Block number of which the reference tx is a part of blockTime Reference tx block time blocktxRoot Transactions root of block blockReceiptsRoot Receipts root of block receipt Receipt of the reference transaction receiptProof Merkle proof of the reference receipt branchMask Merkle proof branchMask for the receipt logIndex Log Index to read from the receipt",
          "offset": "offset in the data array",
          "verifyTxInclusion": "Whether to also verify the inclusion of the raw tx in the txRoot"
        },
        "return": "ageOfInput Measure of the position of the receipt and the log in the child chain"
      }
    }
  },
  "userdoc": {
    "methods": {
      "renounceOwnership()": {
        "notice": "Renouncing ownership will leave the contract without an owner, thereby removing any functionality that is only available to the owner."
      }
    }
  }
}