{
  "contractName": "WithdrawManagerStorage",
  "abi": [
    {
      "constant": true,
      "inputs": [],
      "name": "exitWindow",
      "outputs": [
        {
          "internalType": "uint256",
          "name": "",
          "type": "uint256"
        }
      ],
      "payable": false,
      "stateMutability": "view",
      "type": "function"
    },
    {
      "constant": true,
      "inputs": [
        {
          "internalType": "uint256",
          "name": "",
          "type": "uint256"
        }
      ],
      "name": "exits",
      "outputs": [
        {
          "internalType": "uint256",
          "name": "receiptAmountOrNFTId",
          "type": "uint256"
        },
        {
          "internalType": "bytes32",
          "name": "txHash",
          "type": "bytes32"
        },
        {
          "internalType": "address",
          "name": "owner",
          "type": "address"
        },
        {
          "internalType": "address",
          "name": "token",
          "type": "address"
        },
        {
          "internalType": "bool",
          "name": "isRegularExit",
          "type": "bool"
        },
        {
          "internalType": "address",
          "name": "predicate",
          "type": "address"
        }
      ],
      "payable": false,
      "stateMutability": "view",
      "type": "function"
    },
    {
      "constant": true,
      "inputs": [
        {
          "internalType": "bytes32",
          "name": "",
          "type": "bytes32"
        }
      ],
      "name": "ownerExits",
      "outputs": [
        {
          "internalType": "uint256",
          "name": "",
          "type": "uint256"
        }
      ],
      "payable": false,
      "stateMutability": "view",
      "type": "function"
    },
    {
      "constant": false,
      "inputs": [],
      "name": "renounceOwnership",
      "outputs": [],
      "payable": false,
      "stateMutability": "nonpayable",
      "type": "function"
    },
    {
      "constant": true,
      "inputs": [],
      "name": "owner",
      "outputs": [
        {
          "internalType": "address",
          "name": "",
          "type": "address"
        }
      ],
      "payable": false,
      "stateMutability": "view",
      "type": "function"
    },
    {
      "constant": true,
      "inputs": [],
      "name": "isOwner",
      "outputs": [
        {
          "internalType": "bool",
          "name": "",
          "type": "bool"
        }
      ],
      "payable": false,
      "stateMutability": "view",
      "type": "function"
    },
    {
      "constant": true,
      "inputs": [],
      "name": "ON_FINALIZE_GAS_LIMIT",
      "outputs": [
        {
          "internalType": "uint32",
          "name": "",
          "type": "uint32"
        }
      ],
      "payable": false,
      "stateMutability": "view",
      "type": "function"
    },
    {
      "constant": true,
      "inputs": [
        {
          "internalType": "address",
          "name": "",
          "type": "address"
        }
      ],
      "name": "exitsQueues",
      "outputs": [
        {
          "internalType": "address",
          "name": "",
          "type": "address"
        }
      ],
      "payable": false,
      "stateMutability": "view",
      "type": "function"
    },
    {
      "constant": true,
      "inputs": [],
      "name": "HALF_EXIT_PERIOD",
      "outputs": [
        {
          "internalType": "uint256",
          "name": "",
          "type": "uint256"
        }
      ],
      "payable": false,
      "stateMutability": "view",
      "type": "function"
    },
    {
      "constant": true,
      "inputs": [],
      "name": "exitNft",
      "outputs": [
        {
          "internalType": "contract ExitNFT",
          "name": "",
          "type": "address"
        }
      ],
      "payable": false,
      "stateMutability": "view",
      "type": "function"
    },
    {
      "constant": false,
      "inputs": [
        {
          "internalType": "address",
          "name": "newOwner",
          "type": "address"
        }
      ],
      "name": "transferOwnership",
      "outputs": [],
      "payable": false,
      "stateMutability": "nonpayable",
      "type": "function"
    },
    {
      "anonymous": false,
      "inputs": [
        {
          "indexed": true,
          "internalType": "uint256",
          "name": "exitId",
          "type": "uint256"
        },
        {
          "indexed": true,
          "internalType": "address",
          "name": "user",
          "type": "address"
        },
        {
          "indexed": true,
          "internalType": "address",
          "name": "token",
          "type": "address"
        },
        {
          "indexed": false,
          "internalType": "uint256",
          "name": "amount",
          "type": "uint256"
        }
      ],
      "name": "Withdraw",
      "type": "event"
    },
    {
      "anonymous": false,
      "inputs": [
        {
          "indexed": true,
          "internalType": "address",
          "name": "exitor",
          "type": "address"
        },
        {
          "indexed": true,
          "internalType": "uint256",
          "name": "exitId",
          "type": "uint256"
        },
        {
          "indexed": true,
          "internalType": "address",
          "name": "token",
          "type": "address"
        },
        {
          "indexed": false,
          "internalType": "uint256",
          "name": "amount",
          "type": "uint256"
        },
        {
          "indexed": false,
          "internalType": "bool",
          "name": "isRegularExit",
          "type": "bool"
        }
      ],
      "name": "ExitStarted",
      "type": "event"
    },
    {
      "anonymous": false,
      "inputs": [
        {
          "indexed": true,
          "internalType": "uint256",
          "name": "exitId",
          "type": "uint256"
        },
        {
          "indexed": true,
          "internalType": "uint256",
          "name": "age",
          "type": "uint256"
        },
        {
          "indexed": false,
          "internalType": "address",
          "name": "signer",
          "type": "address"
        }
      ],
      "name": "ExitUpdated",
      "type": "event"
    },
    {
      "anonymous": false,
      "inputs": [
        {
          "indexed": true,
          "internalType": "uint256",
          "name": "oldExitPeriod",
          "type": "uint256"
        },
        {
          "indexed": true,
          "internalType": "uint256",
          "name": "newExitPeriod",
          "type": "uint256"
        }
      ],
      "name": "ExitPeriodUpdate",
      "type": "event"
    },
    {
      "anonymous": false,
      "inputs": [
        {
          "indexed": true,
          "internalType": "uint256",
          "name": "exitId",
          "type": "uint256"
        }
      ],
      "name": "ExitCancelled",
      "type": "event"
    },
    {
      "anonymous": false,
      "inputs": [
        {
          "indexed": true,
          "internalType": "address",
          "name": "previousOwner",
          "type": "address"
        },
        {
          "indexed": true,
          "internalType": "address",
          "name": "newOwner",
          "type": "address"
        }
      ],
      "name": "OwnershipTransferred",
      "type": "event"
    }
  ],
  "bytecode": "0x6080604081905262049d4060025560098054760493e0000000000000000000000000000000000000000063ffffffff60a01b19909116179055600080546001600160a01b03191633178082556001600160a01b0316917f8be0079c531659141344cd1fd0a4f28419497f9722a3daafe3b4186f6b6457e0908290a36103e6806100896000396000f3fe608060405234801561001057600080fd5b50600436106100a95760003560e01c80638f32d59b116100715780638f32d59b1461016e57806396cbd8121461018a578063d11f045c146101ab578063ed4a0be8146101d1578063edeca09b146101d9578063f2fde38b146101e1576100a9565b80631e29848b146100ae578063342de179146100c8578063661429c814610123578063715018a6146101405780638da5cb5b1461014a575b600080fd5b6100b6610207565b60408051918252519081900360200190f35b6100e5600480360360208110156100de57600080fd5b503561020d565b6040805196875260208701959095526001600160a01b03938416868601529183166060860152151560808501521660a0830152519081900360c00190f35b6100b66004803603602081101561013957600080fd5b5035610256565b610148610268565b005b6101526102c3565b604080516001600160a01b039092168252519081900360200190f35b6101766102d2565b604080519115158252519081900360200190f35b6101926102e3565b6040805163ffffffff9092168252519081900360200190f35b610152600480360360208110156101c157600080fd5b50356001600160a01b03166102f6565b6100b6610311565b610152610317565b610148600480360360208110156101f757600080fd5b50356001600160a01b0316610326565b600a5481565b60066020526000908152604090208054600182015460028301546003840154600490940154929391926001600160a01b039182169282811692600160a01b90910460ff16911686565b60076020526000908152604090205481565b6102706102d2565b61027957600080fd5b600080546040516001600160a01b03909116907f8be0079c531659141344cd1fd0a4f28419497f9722a3daafe3b4186f6b6457e0908390a3600080546001600160a01b0319169055565b6000546001600160a01b031690565b6000546001600160a01b0316331490565b600954600160a01b900463ffffffff1681565b6008602052600090815260409020546001600160a01b031681565b60025481565b6009546001600160a01b031681565b61032e6102d2565b61033757600080fd5b61034081610343565b50565b6001600160a01b03811661035657600080fd5b600080546040516001600160a01b03808516939216917f8be0079c531659141344cd1fd0a4f28419497f9722a3daafe3b4186f6b6457e091a3600080546001600160a01b0319166001600160a01b039290921691909117905556fea265627a7a72315820b1362d978036503f04a2ccba67a5d23525f1f7e5f71922d189b4b4512bd6315064736f6c634300050b0032",
  "source": "pragma solidity ^0.5.2;\n\nimport {ProxyStorage} from \"../../common/misc/ProxyStorage.sol\";\nimport {Registry} from \"../../common/Registry.sol\";\nimport {RootChain} from \"../RootChain.sol\";\nimport {ExitNFT} from \"./ExitNFT.sol\";\n\n\ncontract ExitsDataStructure {\n    struct Input {\n        address utxoOwner;\n        address predicate;\n        address token;\n    }\n\n    struct PlasmaExit {\n        uint256 receiptAmountOrNFTId;\n        bytes32 txHash;\n        address owner;\n        address token;\n        bool isRegularExit;\n        address predicate;\n        // Mapping from age of input to Input\n        mapping(uint256 => Input) inputs;\n    }\n}\n\n\ncontract WithdrawManagerHeader is ExitsDataStructure {\n    event Withdraw(uint256 indexed exitId, address indexed user, address indexed token, uint256 amount);\n\n    event ExitStarted(\n        address indexed exitor,\n        uint256 indexed exitId,\n        address indexed token,\n        uint256 amount,\n        bool isRegularExit\n    );\n\n    event ExitUpdated(uint256 indexed exitId, uint256 indexed age, address signer);\n    event ExitPeriodUpdate(uint256 indexed oldExitPeriod, uint256 indexed newExitPeriod);\n\n    event ExitCancelled(uint256 indexed exitId);\n}\n\n\ncontract WithdrawManagerStorage is ProxyStorage, WithdrawManagerHeader {\n    // 0.5 week = 7 * 86400 / 2 = 302400\n    uint256 public HALF_EXIT_PERIOD = 302400;\n\n    // Bonded exits collaterized at 0.1 ETH\n    uint256 internal constant BOND_AMOUNT = 10**17;\n\n    Registry internal registry;\n    RootChain internal rootChain;\n\n    mapping(uint128 => bool) isKnownExit;\n    mapping(uint256 => PlasmaExit) public exits;\n    // mapping with token => (owner => exitId) keccak(token+owner) keccak(token+owner+tokenId)\n    mapping(bytes32 => uint256) public ownerExits;\n    mapping(address => address) public exitsQueues;\n    ExitNFT public exitNft;\n\n    // ERC721, ERC20 and Weth transfers require 155000, 100000, 52000 gas respectively\n    // Processing each exit in a while loop iteration requires ~52000 gas (@todo check if this changed)\n    // uint32 constant internal ITERATION_GAS = 52000;\n\n    // So putting an upper limit of 155000 + 52000 + leeway\n    uint32 public ON_FINALIZE_GAS_LIMIT = 300000;\n\n    uint256 public exitWindow;\n}\n",
  "sourcePath": "/Users/ohm.jirapon/playground/blockhain/pos/plasma-ploygon/contracts/contracts/root/withdrawManager/WithdrawManagerStorage.sol",
  "compiler": {
    "name": "solc",
    "version": "0.5.11+commit.c082d0b4.Emscripten.clang"
  },
  "schemaVersion": "3.0.14",
  "updatedAt": "2022-06-30T04:57:18.887Z",
  "devdoc": {
    "methods": {
      "isOwner()": {
        "return": "true if `msg.sender` is the owner of the contract."
      },
      "owner()": {
        "return": "the address of the owner."
      },
      "renounceOwnership()": {
        "details": "Allows the current owner to relinquish control of the contract. It will not be possible to call the functions with the `onlyOwner` modifier anymore."
      },
      "transferOwnership(address)": {
        "details": "Allows the current owner to transfer control of the contract to a newOwner.",
        "params": {
          "newOwner": "The address to transfer ownership to."
        }
      }
    }
  },
  "userdoc": {
    "methods": {
      "renounceOwnership()": {
        "notice": "Renouncing ownership will leave the contract without an owner, thereby removing any functionality that is only available to the owner."
      }
    }
  }
}