{
  "contractName": "BorValidatorSet",
  "abi": [
    {
      "constant": true,
      "inputs": [],
      "name": "SPRINT",
      "outputs": [
        {
          "internalType": "uint256",
          "name": "",
          "type": "uint256"
        }
      ],
      "payable": false,
      "stateMutability": "view",
      "type": "function"
    },
    {
      "constant": true,
      "inputs": [],
      "name": "SYSTEM_ADDRESS",
      "outputs": [
        {
          "internalType": "address",
          "name": "",
          "type": "address"
        }
      ],
      "payable": false,
      "stateMutability": "view",
      "type": "function"
    },
    {
      "constant": true,
      "inputs": [],
      "name": "CHAIN",
      "outputs": [
        {
          "internalType": "bytes32",
          "name": "",
          "type": "bytes32"
        }
      ],
      "payable": false,
      "stateMutability": "view",
      "type": "function"
    },
    {
      "constant": true,
      "inputs": [],
      "name": "FIRST_END_BLOCK",
      "outputs": [
        {
          "internalType": "uint256",
          "name": "",
          "type": "uint256"
        }
      ],
      "payable": false,
      "stateMutability": "view",
      "type": "function"
    },
    {
      "constant": true,
      "inputs": [
        {
          "internalType": "uint256",
          "name": "",
          "type": "uint256"
        },
        {
          "internalType": "uint256",
          "name": "",
          "type": "uint256"
        }
      ],
      "name": "producers",
      "outputs": [
        {
          "internalType": "uint256",
          "name": "id",
          "type": "uint256"
        },
        {
          "internalType": "uint256",
          "name": "power",
          "type": "uint256"
        },
        {
          "internalType": "address",
          "name": "signer",
          "type": "address"
        }
      ],
      "payable": false,
      "stateMutability": "view",
      "type": "function"
    },
    {
      "constant": true,
      "inputs": [],
      "name": "ROUND_TYPE",
      "outputs": [
        {
          "internalType": "bytes32",
          "name": "",
          "type": "bytes32"
        }
      ],
      "payable": false,
      "stateMutability": "view",
      "type": "function"
    },
    {
      "constant": true,
      "inputs": [],
      "name": "BOR_ID",
      "outputs": [
        {
          "internalType": "bytes32",
          "name": "",
          "type": "bytes32"
        }
      ],
      "payable": false,
      "stateMutability": "view",
      "type": "function"
    },
    {
      "constant": true,
      "inputs": [
        {
          "internalType": "uint256",
          "name": "",
          "type": "uint256"
        }
      ],
      "name": "spanNumbers",
      "outputs": [
        {
          "internalType": "uint256",
          "name": "",
          "type": "uint256"
        }
      ],
      "payable": false,
      "stateMutability": "view",
      "type": "function"
    },
    {
      "constant": true,
      "inputs": [],
      "name": "VOTE_TYPE",
      "outputs": [
        {
          "internalType": "uint8",
          "name": "",
          "type": "uint8"
        }
      ],
      "payable": false,
      "stateMutability": "view",
      "type": "function"
    },
    {
      "constant": true,
      "inputs": [
        {
          "internalType": "uint256",
          "name": "",
          "type": "uint256"
        },
        {
          "internalType": "uint256",
          "name": "",
          "type": "uint256"
        }
      ],
      "name": "validators",
      "outputs": [
        {
          "internalType": "uint256",
          "name": "id",
          "type": "uint256"
        },
        {
          "internalType": "uint256",
          "name": "power",
          "type": "uint256"
        },
        {
          "internalType": "address",
          "name": "signer",
          "type": "address"
        }
      ],
      "payable": false,
      "stateMutability": "view",
      "type": "function"
    },
    {
      "constant": true,
      "inputs": [
        {
          "internalType": "uint256",
          "name": "",
          "type": "uint256"
        }
      ],
      "name": "spans",
      "outputs": [
        {
          "internalType": "uint256",
          "name": "number",
          "type": "uint256"
        },
        {
          "internalType": "uint256",
          "name": "startBlock",
          "type": "uint256"
        },
        {
          "internalType": "uint256",
          "name": "endBlock",
          "type": "uint256"
        }
      ],
      "payable": false,
      "stateMutability": "view",
      "type": "function"
    },
    {
      "inputs": [],
      "payable": false,
      "stateMutability": "nonpayable",
      "type": "constructor"
    },
    {
      "anonymous": false,
      "inputs": [
        {
          "indexed": true,
          "internalType": "uint256",
          "name": "id",
          "type": "uint256"
        },
        {
          "indexed": true,
          "internalType": "uint256",
          "name": "startBlock",
          "type": "uint256"
        },
        {
          "indexed": true,
          "internalType": "uint256",
          "name": "endBlock",
          "type": "uint256"
        }
      ],
      "name": "NewSpan",
      "type": "event"
    },
    {
      "constant": true,
      "inputs": [],
      "name": "currentSprint",
      "outputs": [
        {
          "internalType": "uint256",
          "name": "",
          "type": "uint256"
        }
      ],
      "payable": false,
      "stateMutability": "view",
      "type": "function"
    },
    {
      "constant": true,
      "inputs": [
        {
          "internalType": "uint256",
          "name": "span",
          "type": "uint256"
        }
      ],
      "name": "getSpan",
      "outputs": [
        {
          "internalType": "uint256",
          "name": "number",
          "type": "uint256"
        },
        {
          "internalType": "uint256",
          "name": "startBlock",
          "type": "uint256"
        },
        {
          "internalType": "uint256",
          "name": "endBlock",
          "type": "uint256"
        }
      ],
      "payable": false,
      "stateMutability": "view",
      "type": "function"
    },
    {
      "constant": true,
      "inputs": [],
      "name": "getCurrentSpan",
      "outputs": [
        {
          "internalType": "uint256",
          "name": "number",
          "type": "uint256"
        },
        {
          "internalType": "uint256",
          "name": "startBlock",
          "type": "uint256"
        },
        {
          "internalType": "uint256",
          "name": "endBlock",
          "type": "uint256"
        }
      ],
      "payable": false,
      "stateMutability": "view",
      "type": "function"
    },
    {
      "constant": true,
      "inputs": [],
      "name": "getNextSpan",
      "outputs": [
        {
          "internalType": "uint256",
          "name": "number",
          "type": "uint256"
        },
        {
          "internalType": "uint256",
          "name": "startBlock",
          "type": "uint256"
        },
        {
          "internalType": "uint256",
          "name": "endBlock",
          "type": "uint256"
        }
      ],
      "payable": false,
      "stateMutability": "view",
      "type": "function"
    },
    {
      "constant": true,
      "inputs": [
        {
          "internalType": "uint256",
          "name": "number",
          "type": "uint256"
        }
      ],
      "name": "getSpanByBlock",
      "outputs": [
        {
          "internalType": "uint256",
          "name": "",
          "type": "uint256"
        }
      ],
      "payable": false,
      "stateMutability": "view",
      "type": "function"
    },
    {
      "constant": true,
      "inputs": [],
      "name": "currentSpanNumber",
      "outputs": [
        {
          "internalType": "uint256",
          "name": "",
          "type": "uint256"
        }
      ],
      "payable": false,
      "stateMutability": "view",
      "type": "function"
    },
    {
      "constant": true,
      "inputs": [
        {
          "internalType": "uint256",
          "name": "span",
          "type": "uint256"
        }
      ],
      "name": "getValidatorsTotalStakeBySpan",
      "outputs": [
        {
          "internalType": "uint256",
          "name": "",
          "type": "uint256"
        }
      ],
      "payable": false,
      "stateMutability": "view",
      "type": "function"
    },
    {
      "constant": true,
      "inputs": [
        {
          "internalType": "uint256",
          "name": "span",
          "type": "uint256"
        }
      ],
      "name": "getProducersTotalStakeBySpan",
      "outputs": [
        {
          "internalType": "uint256",
          "name": "",
          "type": "uint256"
        }
      ],
      "payable": false,
      "stateMutability": "view",
      "type": "function"
    },
    {
      "constant": true,
      "inputs": [
        {
          "internalType": "uint256",
          "name": "span",
          "type": "uint256"
        },
        {
          "internalType": "address",
          "name": "signer",
          "type": "address"
        }
      ],
      "name": "getValidatorBySigner",
      "outputs": [
        {
          "components": [
            {
              "internalType": "uint256",
              "name": "id",
              "type": "uint256"
            },
            {
              "internalType": "uint256",
              "name": "power",
              "type": "uint256"
            },
            {
              "internalType": "address",
              "name": "signer",
              "type": "address"
            }
          ],
          "internalType": "struct BorValidatorSet.Validator",
          "name": "result",
          "type": "tuple"
        }
      ],
      "payable": false,
      "stateMutability": "view",
      "type": "function"
    },
    {
      "constant": true,
      "inputs": [
        {
          "internalType": "uint256",
          "name": "span",
          "type": "uint256"
        },
        {
          "internalType": "address",
          "name": "signer",
          "type": "address"
        }
      ],
      "name": "isValidator",
      "outputs": [
        {
          "internalType": "bool",
          "name": "",
          "type": "bool"
        }
      ],
      "payable": false,
      "stateMutability": "view",
      "type": "function"
    },
    {
      "constant": true,
      "inputs": [
        {
          "internalType": "uint256",
          "name": "span",
          "type": "uint256"
        },
        {
          "internalType": "address",
          "name": "signer",
          "type": "address"
        }
      ],
      "name": "isProducer",
      "outputs": [
        {
          "internalType": "bool",
          "name": "",
          "type": "bool"
        }
      ],
      "payable": false,
      "stateMutability": "view",
      "type": "function"
    },
    {
      "constant": true,
      "inputs": [
        {
          "internalType": "address",
          "name": "signer",
          "type": "address"
        }
      ],
      "name": "isCurrentValidator",
      "outputs": [
        {
          "internalType": "bool",
          "name": "",
          "type": "bool"
        }
      ],
      "payable": false,
      "stateMutability": "view",
      "type": "function"
    },
    {
      "constant": true,
      "inputs": [
        {
          "internalType": "address",
          "name": "signer",
          "type": "address"
        }
      ],
      "name": "isCurrentProducer",
      "outputs": [
        {
          "internalType": "bool",
          "name": "",
          "type": "bool"
        }
      ],
      "payable": false,
      "stateMutability": "view",
      "type": "function"
    },
    {
      "constant": true,
      "inputs": [
        {
          "internalType": "uint256",
          "name": "number",
          "type": "uint256"
        }
      ],
      "name": "getBorValidators",
      "outputs": [
        {
          "internalType": "address[]",
          "name": "",
          "type": "address[]"
        },
        {
          "internalType": "uint256[]",
          "name": "",
          "type": "uint256[]"
        }
      ],
      "payable": false,
      "stateMutability": "view",
      "type": "function"
    },
    {
      "constant": true,
      "inputs": [],
      "name": "getInitialValidators",
      "outputs": [
        {
          "internalType": "address[]",
          "name": "",
          "type": "address[]"
        },
        {
          "internalType": "uint256[]",
          "name": "",
          "type": "uint256[]"
        }
      ],
      "payable": false,
      "stateMutability": "view",
      "type": "function"
    },
    {
      "constant": true,
      "inputs": [],
      "name": "getValidators",
      "outputs": [
        {
          "internalType": "address[]",
          "name": "",
          "type": "address[]"
        },
        {
          "internalType": "uint256[]",
          "name": "",
          "type": "uint256[]"
        }
      ],
      "payable": false,
      "stateMutability": "view",
      "type": "function"
    },
    {
      "constant": false,
      "inputs": [
        {
          "internalType": "uint256",
          "name": "newSpan",
          "type": "uint256"
        },
        {
          "internalType": "uint256",
          "name": "startBlock",
          "type": "uint256"
        },
        {
          "internalType": "uint256",
          "name": "endBlock",
          "type": "uint256"
        },
        {
          "internalType": "bytes",
          "name": "validatorBytes",
          "type": "bytes"
        },
        {
          "internalType": "bytes",
          "name": "producerBytes",
          "type": "bytes"
        }
      ],
      "name": "commitSpan",
      "outputs": [],
      "payable": false,
      "stateMutability": "nonpayable",
      "type": "function"
    },
    {
      "constant": true,
      "inputs": [
        {
          "internalType": "uint256",
          "name": "span",
          "type": "uint256"
        },
        {
          "internalType": "bytes32",
          "name": "dataHash",
          "type": "bytes32"
        },
        {
          "internalType": "bytes",
          "name": "sigs",
          "type": "bytes"
        }
      ],
      "name": "getStakePowerBySigs",
      "outputs": [
        {
          "internalType": "uint256",
          "name": "",
          "type": "uint256"
        }
      ],
      "payable": false,
      "stateMutability": "view",
      "type": "function"
    },
    {
      "constant": true,
      "inputs": [
        {
          "internalType": "bytes32",
          "name": "rootHash",
          "type": "bytes32"
        },
        {
          "internalType": "bytes32",
          "name": "leaf",
          "type": "bytes32"
        },
        {
          "internalType": "bytes",
          "name": "proof",
          "type": "bytes"
        }
      ],
      "name": "checkMembership",
      "outputs": [
        {
          "internalType": "bool",
          "name": "",
          "type": "bool"
        }
      ],
      "payable": false,
      "stateMutability": "pure",
      "type": "function"
    },
    {
      "constant": true,
      "inputs": [
        {
          "internalType": "bytes32",
          "name": "d",
          "type": "bytes32"
        }
      ],
      "name": "leafNode",
      "outputs": [
        {
          "internalType": "bytes32",
          "name": "",
          "type": "bytes32"
        }
      ],
      "payable": false,
      "stateMutability": "pure",
      "type": "function"
    },
    {
      "constant": true,
      "inputs": [
        {
          "internalType": "bytes32",
          "name": "left",
          "type": "bytes32"
        },
        {
          "internalType": "bytes32",
          "name": "right",
          "type": "bytes32"
        }
      ],
      "name": "innerNode",
      "outputs": [
        {
          "internalType": "bytes32",
          "name": "",
          "type": "bytes32"
        }
      ],
      "payable": false,
      "stateMutability": "pure",
      "type": "function"
    }
  ],
  "bytecode": "0x608060405234801561001057600080fd5b506136c4806100206000396000f3fe608060405234801561001057600080fd5b506004361061020d576000357c01000000000000000000000000000000000000000000000000000000009004806360c8614d1161012c578063af26aa96116100bf578063d5b844eb1161008e578063d5b844eb14610683578063dcf2793a146106a1578063e3b7c924146106d3578063f59cf565146106f15761020d565b8063af26aa96146105e4578063b71d7a6914610604578063b7ab4db514610634578063c1b3c919146106535761020d565b806370ba5707116100fb57806370ba57071461054857806398ab2b62146105785780639d11b80714610596578063ae756451146105c65761020d565b806360c8614d146104b957806365b3a1e2146104d957806366332354146104f8578063687a9bd6146105165761020d565b80633434735f116101a457806344d6528f1161017357806344d6528f1461040b5780634dbc959f1461043b57806355614fcc14610459578063582a8d08146104895761020d565b80633434735f1461036f57806335ddfeea1461038d57806343ee8213146103bd57806344c15cb1146103db5761020d565b806323f2a73f116101e057806323f2a73f146102c15780632bc06564146102f15780632de3a1801461030f5780632eddf3521461033f5761020d565b8063047a6c5b146102125780630c35b1cb146102445780631270b5741461027557806323c2a2b4146102a5575b600080fd5b61022c60048036036102279190810190612acd565b610723565b60405161023b9392919061340c565b60405180910390f35b61025e60048036036102599190810190612acd565b61077a565b60405161026c92919061322d565b60405180910390f35b61028f600480360361028a9190810190612af6565b610956565b60405161029c9190613264565b60405180910390f35b6102bf60048036036102ba9190810190612bd5565b610aae565b005b6102db60048036036102d69190810190612af6565b611147565b6040516102e89190613264565b60405180910390f35b6102f961129e565b60405161030691906133ba565b60405180910390f35b61032960048036036103249190810190612a2a565b6112a3565b604051610336919061327f565b60405180910390f35b61035960048036036103549190810190612acd565b611343565b60405161036691906133ba565b60405180910390f35b610377611473565b6040516103849190613212565b60405180910390f35b6103a760048036036103a29190810190612a66565b61148b565b6040516103b49190613264565b60405180910390f35b6103c5611594565b6040516103d2919061327f565b60405180910390f35b6103f560048036036103f09190810190612b32565b6115ab565b60405161040291906133ba565b60405180910390f35b61042560048036036104209190810190612af6565b611693565b604051610432919061339f565b60405180910390f35b6104436117fb565b60405161045091906133ba565b60405180910390f35b610473600480360361046e91908101906129af565b61180b565b6040516104809190613264565b60405180910390f35b6104a3600480360361049e91908101906129d8565b611825565b6040516104b0919061327f565b60405180910390f35b6104c16118c2565b6040516104d09392919061340c565b60405180910390f35b6104e1611936565b6040516104ef92919061322d565b60405180910390f35b610500611b17565b60405161050d91906133ba565b60405180910390f35b610530600480360361052b9190810190612b99565b611b1c565b60405161053f939291906133d5565b60405180910390f35b610562600480360361055d91908101906129af565b611b80565b60405161056f9190613264565b60405180910390f35b610580611b9a565b60405161058d919061327f565b60405180910390f35b6105b060048036036105ab9190810190612acd565b611bb1565b6040516105bd91906133ba565b60405180910390f35b6105ce611ce2565b6040516105db919061327f565b60405180910390f35b6105ec611cf9565b6040516105fb9392919061340c565b60405180910390f35b61061e60048036036106199190810190612acd565b611d5a565b60405161062b91906133ba565b60405180910390f35b61063c611e5a565b60405161064a92919061322d565b60405180910390f35b61066d60048036036106689190810190612acd565b611e6e565b60405161067a91906133ba565b60405180910390f35b61068b611e8f565b6040516106989190613443565b60405180910390f35b6106bb60048036036106b69190810190612b99565b611e94565b6040516106ca939291906133d5565b60405180910390f35b6106db611ef8565b6040516106e891906133ba565b60405180910390f35b61070b60048036036107069190810190612acd565b611f0a565b60405161071a9392919061340c565b60405180910390f35b60008060006002600085815260200190815260200160002060000154600260008681526020019081526020016000206001015460026000878152602001908152602001600020600201549250925092509193909250565b60608060ff83116107965761078d611936565b91509150610951565b60006107a184611d5a565b9050606060016000838152602001908152602001600020805490506040519080825280602002602001820160405280156107ea5781602001602082028038833980820191505090505b509050606060016000848152602001908152602001600020805490506040519080825280602002602001820160405280156108345781602001602082028038833980820191505090505b50905060008090505b60016000858152602001908152602001600020805490508110156109465760016000858152602001908152602001600020818154811061087957fe5b906000526020600020906003020160020160009054906101000a900473ffffffffffffffffffffffffffffffffffffffff168382815181106108b757fe5b602002602001019073ffffffffffffffffffffffffffffffffffffffff16908173ffffffffffffffffffffffffffffffffffffffff168152505060016000858152602001908152602001600020818154811061090f57fe5b90600052602060002090600302016001015482828151811061092d57fe5b602002602001018181525050808060010191505061083d565b508181945094505050505b915091565b6000606060016000858152602001908152602001600020805480602002602001604051908101604052809291908181526020016000905b82821015610a29578382906000526020600020906003020160405180606001604052908160008201548152602001600182015481526020016002820160009054906101000a900473ffffffffffffffffffffffffffffffffffffffff1673ffffffffffffffffffffffffffffffffffffffff1673ffffffffffffffffffffffffffffffffffffffff16815250508152602001906001019061098d565b50505050905060008090505b8151811015610aa1578373ffffffffffffffffffffffffffffffffffffffff16828281518110610a6157fe5b60200260200101516040015173ffffffffffffffffffffffffffffffffffffffff161415610a9457600192505050610aa8565b8080600101915050610a35565b5060009150505b92915050565b73fffffffffffffffffffffffffffffffffffffffe73ffffffffffffffffffffffffffffffffffffffff163373ffffffffffffffffffffffffffffffffffffffff1614610b30576040517f08c379a0000000000000000000000000000000000000000000000000000000008152600401610b279061337f565b60405180910390fd5b6000610b3a6117fb565b90506000811415610b4e57610b4d611f34565b5b610b6260018261225590919063ffffffff16565b8814610ba3576040517f08c379a0000000000000000000000000000000000000000000000000000000008152600401610b9a906132ff565b60405180910390fd5b868611610be5576040517f08c379a0000000000000000000000000000000000000000000000000000000008152600401610bdc9061335f565b60405180910390fd5b6000604060018989030181610bf657fe5b0614610c37576040517f08c379a0000000000000000000000000000000000000000000000000000000008152600401610c2e9061333f565b60405180910390fd5b8660026000838152602001908152602001600020600101541115610c90576040517f08c379a0000000000000000000000000000000000000000000000000000000008152600401610c87906132df565b60405180910390fd5b6000600260008a81526020019081526020016000206000015414610ce9576040517f08c379a0000000000000000000000000000000000000000000000000000000008152600401610ce09061331f565b60405180910390fd5b604051806060016040528089815260200188815260200187815250600260008a8152602001908152602001600020600082015181600001556020820151816001015560408201518160020155905050600388908060018154018082558091505090600182039060005260206000200160009091929091909150555060008060008a815260200190815260200160002081610d8391906127a9565b506000600160008a815260200190815260200160002081610da491906127a9565b506060610dfc610df787878080601f016020809104026020016040519081016040528093929190818152602001838380828437600081840152601f19601f82011690508083019250505050505050612274565b6122a2565b905060008090505b8151811015610f6e576060610e2b838381518110610e1e57fe5b60200260200101516122a2565b90506000808c81526020019081526020016000208054809190600101610e5191906127a9565b506040518060600160405280610e7a83600081518110610e6d57fe5b602002602001015161237f565b8152602001610e9c83600181518110610e8f57fe5b602002602001015161237f565b8152602001610ebe83600281518110610eb157fe5b60200260200101516123f0565b73ffffffffffffffffffffffffffffffffffffffff168152506000808d81526020019081526020016000208381548110610ef457fe5b9060005260206000209060030201600082015181600001556020820151816001015560408201518160020160006101000a81548173ffffffffffffffffffffffffffffffffffffffff021916908373ffffffffffffffffffffffffffffffffffffffff160217905550905050508080600101915050610e04565b506060610fc6610fc186868080601f016020809104026020016040519081016040528093929190818152602001838380828437600081840152601f19601f82011690508083019250505050505050612274565b6122a2565b905060008090505b815181101561113a576060610ff5838381518110610fe857fe5b60200260200101516122a2565b9050600160008d8152602001908152602001600020805480919060010161101c91906127a9565b5060405180606001604052806110458360008151811061103857fe5b602002602001015161237f565b81526020016110678360018151811061105a57fe5b602002602001015161237f565b81526020016110898360028151811061107c57fe5b60200260200101516123f0565b73ffffffffffffffffffffffffffffffffffffffff16815250600160008e815260200190815260200160002083815481106110c057fe5b9060005260206000209060030201600082015181600001556020820151816001015560408201518160020160006101000a81548173ffffffffffffffffffffffffffffffffffffffff021916908373ffffffffffffffffffffffffffffffffffffffff160217905550905050508080600101915050610fce565b5050505050505050505050565b60006060600080858152602001908152602001600020805480602002602001604051908101604052809291908181526020016000905b82821015611219578382906000526020600020906003020160405180606001604052908160008201548152602001600182015481526020016002820160009054906101000a900473ffffffffffffffffffffffffffffffffffffffff1673ffffffffffffffffffffffffffffffffffffffff1673ffffffffffffffffffffffffffffffffffffffff16815250508152602001906001019061117d565b50505050905060008090505b8151811015611291578373ffffffffffffffffffffffffffffffffffffffff1682828151811061125157fe5b60200260200101516040015173ffffffffffffffffffffffffffffffffffffffff16141561128457600192505050611298565b8080600101915050611225565b5060009150505b92915050565b604081565b6000600260017f01000000000000000000000000000000000000000000000000000000000000000284846040516020016112df9392919061317f565b6040516020818303038152906040526040516112fb91906131bc565b602060405180830381855afa158015611318573d6000803e3d6000fd5b5050506040513d601f19601f8201168201806040525061133b9190810190612a01565b905092915050565b60006060600080848152602001908152602001600020805480602002602001604051908101604052809291908181526020016000905b82821015611415578382906000526020600020906003020160405180606001604052908160008201548152602001600182015481526020016002820160009054906101000a900473ffffffffffffffffffffffffffffffffffffffff1673ffffffffffffffffffffffffffffffffffffffff1673ffffffffffffffffffffffffffffffffffffffff168152505081526020019060010190611379565b505050509050600080905060008090505b82518110156114685761145983828151811061143e57fe5b6020026020010151602001518361225590919063ffffffff16565b91508080600101915050611426565b508092505050919050565b73fffffffffffffffffffffffffffffffffffffffe81565b60008060008085905060006021808751816114a257fe5b0402905060008111156114bb576114b887611825565b91505b6000602190505b818111611583576000600182038801519050818801519550806000602081106114e757fe5b1a7f010000000000000000000000000000000000000000000000000000000000000002945060007f010000000000000000000000000000000000000000000000000000000000000002857effffffffffffffffffffffffffffffffffffffffffffffffffffffffffffff1916141561156a5761156386856112a3565b9350611577565b61157484876112a3565b93505b506021810190506114c2565b508782149450505050509392505050565b6040516115a0906131fd565b604051809103902081565b60008060009050600080905060008090505b84518167ffffffffffffffff1610156116865760606115e8868367ffffffffffffffff166041612413565b905060006115ff828961249f90919063ffffffff16565b90506116096127db565b6116138a83611693565b905061161f8a83611147565b801561165657508473ffffffffffffffffffffffffffffffffffffffff168273ffffffffffffffffffffffffffffffffffffffff16115b156116785781945061167581602001518761225590919063ffffffff16565b95505b5050506041810190506115bd565b5081925050509392505050565b61169b6127db565b6060600080858152602001908152602001600020805480602002602001604051908101604052809291908181526020016000905b8282101561176b578382906000526020600020906003020160405180606001604052908160008201548152602001600182015481526020016002820160009054906101000a900473ffffffffffffffffffffffffffffffffffffffff1673ffffffffffffffffffffffffffffffffffffffff1673ffffffffffffffffffffffffffffffffffffffff1681525050815260200190600101906116cf565b50505050905060008090505b81518110156117f3578373ffffffffffffffffffffffffffffffffffffffff168282815181106117a357fe5b60200260200101516040015173ffffffffffffffffffffffffffffffffffffffff1614156117e6578181815181106117d757fe5b602002602001015192506117f3565b8080600101915050611777565b505092915050565b600061180643611d5a565b905090565b600061181e6118186117fb565b83611147565b9050919050565b6000600260007f0100000000000000000000000000000000000000000000000000000000000000028360405160200161185f929190613153565b60405160208183030381529060405260405161187b91906131bc565b602060405180830381855afa158015611898573d6000803e3d6000fd5b5050506040513d601f19601f820116820180604052506118bb9190810190612a01565b9050919050565b6000806000806118e360016118d56117fb565b61225590919063ffffffff16565b905060026000828152602001908152602001600020600001546002600083815260200190815260200160002060010154600260008481526020019081526020016000206002015493509350935050909192565b6060806060600360405190808252806020026020018201604052801561196b5781602001602082028038833980820191505090505b50905073f0c269d079239ca9d2d801471ca23bf3ff46a3938160008151811061199057fe5b602002602001019073ffffffffffffffffffffffffffffffffffffffff16908173ffffffffffffffffffffffffffffffffffffffff1681525050736af9fb2e5ba00032f2d178e63ed3b42167a663ee816001815181106119ec57fe5b602002602001019073ffffffffffffffffffffffffffffffffffffffff16908173ffffffffffffffffffffffffffffffffffffffff1681525050739571e8fb58190519c9d707cfb83ec3f7d93bc8ae81600281518110611a4857fe5b602002602001019073ffffffffffffffffffffffffffffffffffffffff16908173ffffffffffffffffffffffffffffffffffffffff168152505060606003604051908082528060200260200182016040528015611ab45781602001602082028038833980820191505090505b50905061271081600081518110611ac757fe5b60200260200101818152505061271081600181518110611ae357fe5b60200260200101818152505061271081600281518110611aff57fe5b60200260200101818152505081819350935050509091565b60ff81565b60016020528160005260406000208181548110611b3557fe5b9060005260206000209060030201600091509150508060000154908060010154908060020160009054906101000a900473ffffffffffffffffffffffffffffffffffffffff16905083565b6000611b93611b8d6117fb565b83610956565b9050919050565b604051611ba6906131d3565b604051809103902081565b6000606060016000848152602001908152602001600020805480602002602001604051908101604052809291908181526020016000905b82821015611c84578382906000526020600020906003020160405180606001604052908160008201548152602001600182015481526020016002820160009054906101000a900473ffffffffffffffffffffffffffffffffffffffff1673ffffffffffffffffffffffffffffffffffffffff1673ffffffffffffffffffffffffffffffffffffffff168152505081526020019060010190611be8565b505050509050600080905060008090505b8251811015611cd757611cc8838281518110611cad57fe5b6020026020010151602001518361225590919063ffffffff16565b91508080600101915050611c95565b508092505050919050565b604051611cee906131e8565b604051809103902081565b600080600080611d076117fb565b905060026000828152602001908152602001600020600001546002600083815260200190815260200160002060010154600260008481526020019081526020016000206002015493509350935050909192565b60008060038054905090505b6000811115611e1a57611d77612812565b6002600060036001850381548110611d8b57fe5b906000526020600020015481526020019081526020016000206040518060600160405290816000820154815260200160018201548152602001600282015481525050905083816020015111158015611de857506000816040015114155b8015611df8575080604001518411155b15611e0b57806000015192505050611e55565b50808060019003915050611d66565b5060006003805490501115611e5057600360016003805490500381548110611e3e57fe5b90600052602060002001549050611e55565b600090505b919050565b606080611e664361077a565b915091509091565b60038181548110611e7b57fe5b906000526020600020016000915090505481565b600281565b60006020528160005260406000208181548110611ead57fe5b9060005260206000209060030201600091509150508060000154908060010154908060020160009054906101000a900473ffffffffffffffffffffffffffffffffffffffff16905083565b600060404381611f0457fe5b04905090565b60026020528060005260406000206000915090508060000154908060010154908060020154905083565b606080611f3f611936565b8092508193505050600080905060405180606001604052808281526020016000815260200160ff815250600260008381526020019081526020016000206000820151816000015560208201518160010155604082015181600201559050506003819080600181540180825580915050906001820390600052602060002001600090919290919091505550600080600083815260200190815260200160002081611fe891906127a9565b506000600160008381526020019081526020016000208161200991906127a9565b5060008090505b835181101561212b57600080838152602001908152602001600020805480919060010161203d91906127a9565b50604051806060016040528082815260200184838151811061205b57fe5b6020026020010151815260200185838151811061207457fe5b602002602001015173ffffffffffffffffffffffffffffffffffffffff1681525060008084815260200190815260200160002082815481106120b257fe5b9060005260206000209060030201600082015181600001556020820151816001015560408201518160020160006101000a81548173ffffffffffffffffffffffffffffffffffffffff021916908373ffffffffffffffffffffffffffffffffffffffff1602179055509050508080600101915050612010565b5060008090505b835181101561224f5760016000838152602001908152602001600020805480919060010161216091906127a9565b50604051806060016040528082815260200184838151811061217e57fe5b6020026020010151815260200185838151811061219757fe5b602002602001015173ffffffffffffffffffffffffffffffffffffffff168152506001600084815260200190815260200160002082815481106121d657fe5b9060005260206000209060030201600082015181600001556020820151816001015560408201518160020160006101000a81548173ffffffffffffffffffffffffffffffffffffffff021916908373ffffffffffffffffffffffffffffffffffffffff1602179055509050508080600101915050612132565b50505050565b60008082840190508381101561226a57600080fd5b8091505092915050565b61227c612833565b600060208301905060405180604001604052808451815260200182815250915050919050565b60606122ad826125a9565b6122b657600080fd5b60006122c1836125f7565b90506060816040519080825280602002602001820160405280156122ff57816020015b6122ec61284d565b8152602001906001900390816122e45790505b50905060006123118560200151612668565b8560200151019050600080600090505b8481101561237257612332836126f1565b915060405180604001604052808381526020018481525084828151811061235557fe5b602002602001018190525081830192508080600101915050612321565b5082945050505050919050565b600080826000015111801561239957506021826000015111155b6123a257600080fd5b60006123b18360200151612668565b905060008184600001510390506000808386602001510190508051915060208310156123e457826020036101000a820491505b81945050505050919050565b6000601582600001511461240357600080fd5b61240c8261237f565b9050919050565b60608183018451101561242557600080fd5b606082156000811461244257604051915060208201604052612493565b6040519150601f8416801560200281840101858101878315602002848b0101015b818310156124805780518352602083019250602081019050612463565b50868552601f19601f8301166040525050505b50809150509392505050565b60008060008060418551146124ba57600093505050506125a3565b602085015192506040850151915060ff6041860151169050601b8160ff1610156124e557601b810190505b601b8160ff16141580156124fd5750601c8160ff1614155b1561250e57600093505050506125a3565b600060018783868660405160008152602001604052604051612533949392919061329a565b6020604051602081039080840390855afa158015612555573d6000803e3d6000fd5b505050602060405103519050600073ffffffffffffffffffffffffffffffffffffffff168173ffffffffffffffffffffffffffffffffffffffff16141561259b57600080fd5b809450505050505b92915050565b600080826000015114156125c057600090506125f2565b60008083602001519050805160001a915060c060ff168260ff1610156125eb576000925050506125f2565b6001925050505b919050565b6000808260000151141561260e5760009050612663565b600080905060006126228460200151612668565b84602001510190506000846000015185602001510190505b8082101561265c5761264b826126f1565b82019150828060010193505061263a565b8293505050505b919050565b600080825160001a9050608060ff168110156126885760009150506126ec565b60b860ff168110806126ad575060c060ff1681101580156126ac575060f860ff1681105b5b156126bc5760019150506126ec565b60c060ff168110156126dc5760018060b80360ff168203019150506126ec565b60018060f80360ff168203019150505b919050565b6000806000835160001a9050608060ff16811015612712576001915061279f565b60b860ff1681101561272f576001608060ff16820301915061279e565b60c060ff1681101561275f5760b78103600185019450806020036101000a8551046001820181019350505061279d565b60f860ff1681101561277c57600160c060ff16820301915061279c565b60f78103600185019450806020036101000a855104600182018101935050505b5b5b5b8192505050919050565b8154818355818111156127d6576003028160030283600052602060002091820191016127d59190612867565b5b505050565b60405180606001604052806000815260200160008152602001600073ffffffffffffffffffffffffffffffffffffffff1681525090565b60405180606001604052806000815260200160008152602001600081525090565b604051806040016040528060008152602001600081525090565b604051806040016040528060008152602001600081525090565b6128ba91905b808211156128b65760008082016000905560018201600090556002820160006101000a81549073ffffffffffffffffffffffffffffffffffffffff02191690555060030161286d565b5090565b90565b6000813590506128cc8161363c565b92915050565b6000813590506128e181613653565b92915050565b6000815190506128f681613653565b92915050565b60008083601f84011261290e57600080fd5b8235905067ffffffffffffffff81111561292757600080fd5b60208301915083600182028301111561293f57600080fd5b9250929050565b600082601f83011261295757600080fd5b813561296a6129658261348b565b61345e565b9150808252602083016020830185838301111561298657600080fd5b6129918382846135e6565b50505092915050565b6000813590506129a98161366a565b92915050565b6000602082840312156129c157600080fd5b60006129cf848285016128bd565b91505092915050565b6000602082840312156129ea57600080fd5b60006129f8848285016128d2565b91505092915050565b600060208284031215612a1357600080fd5b6000612a21848285016128e7565b91505092915050565b60008060408385031215612a3d57600080fd5b6000612a4b858286016128d2565b9250506020612a5c858286016128d2565b9150509250929050565b600080600060608486031215612a7b57600080fd5b6000612a89868287016128d2565b9350506020612a9a868287016128d2565b925050604084013567ffffffffffffffff811115612ab757600080fd5b612ac386828701612946565b9150509250925092565b600060208284031215612adf57600080fd5b6000612aed8482850161299a565b91505092915050565b60008060408385031215612b0957600080fd5b6000612b178582860161299a565b9250506020612b28858286016128bd565b9150509250929050565b600080600060608486031215612b4757600080fd5b6000612b558682870161299a565b9350506020612b66868287016128d2565b925050604084013567ffffffffffffffff811115612b8357600080fd5b612b8f86828701612946565b9150509250925092565b60008060408385031215612bac57600080fd5b6000612bba8582860161299a565b9250506020612bcb8582860161299a565b9150509250929050565b600080600080600080600060a0888a031215612bf057600080fd5b6000612bfe8a828b0161299a565b9750506020612c0f8a828b0161299a565b9650506040612c208a828b0161299a565b955050606088013567ffffffffffffffff811115612c3d57600080fd5b612c498a828b016128fc565b9450945050608088013567ffffffffffffffff811115612c6857600080fd5b612c748a828b016128fc565b925092505092959891949750929550565b6000612c918383612cb5565b60208301905092915050565b6000612ca98383613126565b60208301905092915050565b612cbe8161355b565b82525050565b612ccd8161355b565b82525050565b6000612cde826134d7565b612ce88185613512565b9350612cf3836134b7565b8060005b83811015612d24578151612d0b8882612c85565b9750612d16836134f8565b925050600181019050612cf7565b5085935050505092915050565b6000612d3c826134e2565b612d468185613523565b9350612d51836134c7565b8060005b83811015612d82578151612d698882612c9d565b9750612d7483613505565b925050600181019050612d55565b5085935050505092915050565b612d988161356d565b82525050565b612daf612daa82613579565b613628565b82525050565b612dbe816135a5565b82525050565b612dd5612dd0826135a5565b613632565b82525050565b6000612de6826134ed565b612df08185613534565b9350612e008185602086016135f5565b80840191505092915050565b6000612e19600483613550565b91507f766f7465000000000000000000000000000000000000000000000000000000006000830152600482019050919050565b6000612e59602d8361353f565b91507f537461727420626c6f636b206d7573742062652067726561746572207468616e60008301527f2063757272656e74207370616e000000000000000000000000000000000000006020830152604082019050919050565b6000612ebf600683613550565b91507f31393130343200000000000000000000000000000000000000000000000000006000830152600682019050919050565b6000612eff600f8361353f565b91507f496e76616c6964207370616e20696400000000000000000000000000000000006000830152602082019050919050565b6000612f3f60138361353f565b91507f5370616e20616c726561647920657869737473000000000000000000000000006000830152602082019050919050565b6000612f7f60458361353f565b91507f446966666572656e6365206265747765656e20737461727420616e6420656e6460008301527f20626c6f636b206d75737420626520696e206d756c7469706c6573206f66207360208301527f7072696e740000000000000000000000000000000000000000000000000000006040830152606082019050919050565b600061300b602a8361353f565b91507f456e6420626c6f636b206d7573742062652067726561746572207468616e207360008301527f7461727420626c6f636b000000000000000000000000000000000000000000006020830152604082019050919050565b600061307160128361353f565b91507f4e6f742053797374656d204164646573732100000000000000000000000000006000830152602082019050919050565b60006130b1600f83613550565b91507f6865696d64616c6c2d31393130343200000000000000000000000000000000006000830152600f82019050919050565b6060820160008201516130fa6000850182613126565b50602082015161310d6020850182613126565b5060408201516131206040850182612cb5565b50505050565b61312f816135cf565b82525050565b61313e816135cf565b82525050565b61314d816135d9565b82525050565b600061315f8285612d9e565b60018201915061316f8284612dc4565b6020820191508190509392505050565b600061318b8286612d9e565b60018201915061319b8285612dc4565b6020820191506131ab8284612dc4565b602082019150819050949350505050565b60006131c88284612ddb565b915081905092915050565b60006131de82612e0c565b9150819050919050565b60006131f382612eb2565b9150819050919050565b6000613208826130a4565b9150819050919050565b60006020820190506132276000830184612cc4565b92915050565b600060408201905081810360008301526132478185612cd3565b9050818103602083015261325b8184612d31565b90509392505050565b60006020820190506132796000830184612d8f565b92915050565b60006020820190506132946000830184612db5565b92915050565b60006080820190506132af6000830187612db5565b6132bc6020830186613144565b6132c96040830185612db5565b6132d66060830184612db5565b95945050505050565b600060208201905081810360008301526132f881612e4c565b9050919050565b6000602082019050818103600083015261331881612ef2565b9050919050565b6000602082019050818103600083015261333881612f32565b9050919050565b6000602082019050818103600083015261335881612f72565b9050919050565b6000602082019050818103600083015261337881612ffe565b9050919050565b6000602082019050818103600083015261339881613064565b9050919050565b60006060820190506133b460008301846130e4565b92915050565b60006020820190506133cf6000830184613135565b92915050565b60006060820190506133ea6000830186613135565b6133f76020830185613135565b6134046040830184612cc4565b949350505050565b60006060820190506134216000830186613135565b61342e6020830185613135565b61343b6040830184613135565b949350505050565b60006020820190506134586000830184613144565b92915050565b6000604051905081810181811067ffffffffffffffff8211171561348157600080fd5b8060405250919050565b600067ffffffffffffffff8211156134a257600080fd5b601f19601f8301169050602081019050919050565b6000819050602082019050919050565b6000819050602082019050919050565b600081519050919050565b600081519050919050565b600081519050919050565b6000602082019050919050565b6000602082019050919050565b600082825260208201905092915050565b600082825260208201905092915050565b600081905092915050565b600082825260208201905092915050565b600081905092915050565b6000613566826135af565b9050919050565b60008115159050919050565b60007fff0000000000000000000000000000000000000000000000000000000000000082169050919050565b6000819050919050565b600073ffffffffffffffffffffffffffffffffffffffff82169050919050565b6000819050919050565b600060ff82169050919050565b82818337600083830152505050565b60005b838110156136135780820151818401526020810190506135f8565b83811115613622576000848401525b50505050565b6000819050919050565b6000819050919050565b6136458161355b565b811461365057600080fd5b50565b61365c816135a5565b811461366757600080fd5b50565b613673816135cf565b811461367e57600080fd5b5056fea365627a7a72315820a7010cf13eb0a9a4da13856bed4cc4d489aab386230b36c4cc313326fe4e8afc6c6578706572696d656e74616cf564736f6c634300050b0040",
  "source": "pragma solidity ^0.5.11;\npragma experimental ABIEncoderV2;\n\nimport { SafeMath } from \"openzeppelin-solidity/contracts/math/SafeMath.sol\";\nimport { RLPReader } from \"solidity-rlp/contracts/RLPReader.sol\";\n\nimport { BytesLib } from \"../matic-contracts/contracts/common/lib/BytesLib.sol\";\nimport { System } from \"./System.sol\";\nimport { ECVerify } from \"./ECVerify.sol\";\nimport { ValidatorSet } from \"./ValidatorSet.sol\";\n\ncontract BorValidatorSet is System {\n  using SafeMath for uint256;\n  using RLPReader for bytes;\n  using RLPReader for RLPReader.RLPItem;\n  using ECVerify for bytes32;\n\n  bytes32 public constant CHAIN = keccak256(\"heimdall-191042\");\n  bytes32 public constant ROUND_TYPE = keccak256(\"vote\");\n  bytes32 public constant BOR_ID = keccak256(\"191042\");\n  uint8 public constant VOTE_TYPE = 2;\n  uint256 public constant FIRST_END_BLOCK = 255;\n  uint256 public constant SPRINT = 64;\n\n  struct Validator {\n    uint256 id;\n    uint256 power;\n    address signer;\n  }\n\n  // span details\n  struct Span {\n    uint256 number;\n    uint256 startBlock;\n    uint256 endBlock;\n  }\n\n  mapping(uint256 => Validator[]) public validators;\n  mapping(uint256 => Validator[]) public producers;\n\n  mapping (uint256 => Span) public spans; // span number => span\n  uint256[] public spanNumbers; // recent span numbers\n\n  // event\n  event NewSpan(uint256 indexed id, uint256 indexed startBlock, uint256 indexed endBlock);\n\n  constructor() public {}\n\n  modifier onlyValidator() {\n    uint256 span = currentSpanNumber();\n    require(isValidator(span, msg.sender));\n    _;\n  }\n\n  function setInitialValidators() internal {\n    address[] memory d;\n    uint256[] memory p;\n\n    // get initial validators\n    (d, p) = getInitialValidators();\n\n    // initial span\n    uint256 span = 0;\n    spans[span] = Span({\n      number: span,\n      startBlock: 0,\n      endBlock: FIRST_END_BLOCK\n    });\n    spanNumbers.push(span);\n    validators[span].length = 0;\n    producers[span].length = 0;\n\n    for (uint256 i = 0; i < d.length; i++) {\n      validators[span].length++;\n      validators[span][i] = Validator({\n        id: i,\n        power: p[i],\n        signer: d[i]\n      });\n    }\n\n    for (uint256 i = 0; i < d.length; i++) {\n      producers[span].length++;\n      producers[span][i] = Validator({\n        id: i,\n        power: p[i],\n        signer: d[i]\n      });\n    }\n  }\n\n  function currentSprint() public view returns (uint256) {\n    return block.number / SPRINT;\n  }\n\n  function getSpan(uint256 span) public view returns (uint256 number, uint256 startBlock, uint256 endBlock) {\n    return (spans[span].number, spans[span].startBlock, spans[span].endBlock);\n  }\n\n  function getCurrentSpan() public view returns (uint256 number, uint256 startBlock, uint256 endBlock) {\n    uint256 span = currentSpanNumber();\n    return (spans[span].number, spans[span].startBlock, spans[span].endBlock);\n  }\n\n  function getNextSpan() public view returns (uint256 number, uint256 startBlock, uint256 endBlock) {\n    uint256 span = currentSpanNumber().add(1);\n    return (spans[span].number, spans[span].startBlock, spans[span].endBlock);\n  }\n\n  function getValidatorsBySpan(uint256 span) internal view returns (Validator[] memory) {\n    return validators[span];\n  }\n\n  function getProducersBySpan(uint256 span) internal view returns (Validator[] memory) {\n    return producers[span];\n  }\n\n  // get span number by block\n  function getSpanByBlock(uint256 number) public view returns (uint256) {\n    for (uint256 i = spanNumbers.length; i > 0; i--) {\n      Span memory span = spans[spanNumbers[i - 1]];\n      if (span.startBlock <= number && span.endBlock != 0 && number <= span.endBlock) {\n        return span.number;\n      }\n    }\n\n    // if cannot find matching span, return latest span\n    if (spanNumbers.length > 0) {\n      return spanNumbers[spanNumbers.length - 1];\n    }\n\n    // return default if not found any thing\n    return 0;\n  }\n\n  function currentSpanNumber() public view returns (uint256) {\n    return getSpanByBlock(block.number);\n  }\n\n  function getValidatorsTotalStakeBySpan(uint256 span) public view returns (uint256) {\n    Validator[] memory vals = validators[span];\n    uint256 result = 0;\n    for (uint256 i = 0; i < vals.length; i++) {\n      result = result.add(vals[i].power);\n    }\n    return result;\n  }\n\n  function getProducersTotalStakeBySpan(uint256 span) public view returns (uint256) {\n    Validator[] memory vals = producers[span];\n    uint256 result = 0;\n    for (uint256 i = 0; i < vals.length; i++) {\n      result = result.add(vals[i].power);\n    }\n    return result;\n  }\n\n  function getValidatorBySigner(uint256 span, address signer) public view returns (Validator memory result) {\n    Validator[] memory vals = validators[span];\n    for (uint256 i = 0; i < vals.length; i++) {\n      if (vals[i].signer == signer) {\n        result = vals[i];\n        break;\n      }\n    }\n  }\n\n  function isValidator(uint256 span, address signer) public view returns (bool) {\n    Validator[] memory vals = validators[span];\n    for (uint256 i = 0; i < vals.length; i++) {\n      if (vals[i].signer == signer) {\n        return true;\n      }\n    }\n    return false;\n  }\n\n  function isProducer(uint256 span, address signer) public view returns (bool) {\n    Validator[] memory vals = producers[span];\n    for (uint256 i = 0; i < vals.length; i++) {\n      if (vals[i].signer == signer) {\n        return true;\n      }\n    }\n    return false;\n  }\n\n  function isCurrentValidator(address signer) public view returns (bool) {\n    return isValidator(currentSpanNumber(), signer);\n  }\n\n  function isCurrentProducer(address signer) public view returns (bool) {\n    return isProducer(currentSpanNumber(), signer);\n  }\n\n  // get bor validator\n  function getBorValidators(uint256 number) public view returns (address[] memory, uint256[] memory) {\n    if (number <= FIRST_END_BLOCK) {\n      return getInitialValidators();\n    }\n\n    // span number by block\n    uint256 span = getSpanByBlock(number);\n\n    address[] memory addrs = new address[](producers[span].length);\n    uint256[] memory powers = new uint256[](producers[span].length);\n    for (uint256 i = 0; i < producers[span].length; i++) {\n      addrs[i] = producers[span][i].signer;\n      powers[i] = producers[span][i].power;\n    }\n\n    return (addrs, powers);\n  }\n\n  /// Get current validator set (last enacted or initial if no changes ever made) with current stake.\n  function getInitialValidators() public view returns (address[] memory, uint256[] memory) {\n    address[] memory addrs = new address[](3);\n    addrs[0] = 0xF0C269d079239CA9d2D801471ca23bf3ff46A393;\n    addrs[1] = 0x6af9fB2e5ba00032f2d178e63Ed3b42167A663EE;\n    addrs[2] = 0x9571E8fb58190519C9d707cFb83eC3f7D93Bc8AE;\n    uint256[] memory powers = new uint256[](3);\n    powers[0] = 10000;\n    powers[1] = 10000;\n    powers[2] = 10000;\n    return (addrs, powers);\n  }\n\n  /// Get current validator set (last enacted or initial if no changes ever made) with current stake.\n  function getValidators() public view returns (address[] memory, uint256[] memory) {\n    return getBorValidators(block.number);\n  }\n\n  function commitSpan(\n    uint256 newSpan,\n    uint256 startBlock,\n    uint256 endBlock,\n    bytes calldata validatorBytes,\n    bytes calldata producerBytes\n  ) external onlySystem {\n    // current span\n    uint256 span = currentSpanNumber();\n    // set initial validators if current span is zero\n    if (span == 0) {\n      setInitialValidators();\n    }\n\n    // check conditions\n    require(newSpan == span.add(1), \"Invalid span id\");\n    require(endBlock > startBlock, \"End block must be greater than start block\");\n    require((endBlock - startBlock + 1) % SPRINT == 0, \"Difference between start and end block must be in multiples of sprint\");\n    require(spans[span].startBlock <= startBlock, \"Start block must be greater than current span\");\n\n    // check if already in the span\n    require(spans[newSpan].number == 0, \"Span already exists\");\n\n    // store span\n    spans[newSpan] = Span({\n      number: newSpan,\n      startBlock: startBlock,\n      endBlock: endBlock\n    });\n    spanNumbers.push(newSpan);\n    validators[newSpan].length = 0;\n    producers[newSpan].length = 0;\n\n    // set validators\n    RLPReader.RLPItem[] memory validatorItems = validatorBytes.toRlpItem().toList();\n    for (uint256 i = 0; i < validatorItems.length; i++) {\n      RLPReader.RLPItem[] memory v = validatorItems[i].toList();\n      validators[newSpan].length++;\n      validators[newSpan][i] = Validator({\n        id: v[0].toUint(),\n        power: v[1].toUint(),\n        signer: v[2].toAddress()\n      });\n    }\n\n    // set producers\n    RLPReader.RLPItem[] memory producerItems = producerBytes.toRlpItem().toList();\n    for (uint256 i = 0; i < producerItems.length; i++) {\n      RLPReader.RLPItem[] memory v = producerItems[i].toList();\n        producers[newSpan].length++;\n        producers[newSpan][i] = Validator({\n          id: v[0].toUint(),\n          power: v[1].toUint(),\n          signer: v[2].toAddress()\n        });\n    }\n  }\n\n  // Get stake power by sigs and data hash\n  function getStakePowerBySigs(uint256 span, bytes32 dataHash, bytes memory sigs) public view returns (uint256) {\n    uint256 stakePower = 0;\n    address lastAdd = address(0x0); // cannot have address(0x0) as an owner\n\n    for (uint64 i = 0; i < sigs.length; i += 65) {\n      bytes memory sigElement = BytesLib.slice(sigs, i, 65);\n      address signer = dataHash.ecrecovery(sigElement);\n\n      // check if signer is stacker and not proposer\n      Validator memory validator = getValidatorBySigner(span, signer);\n      if (isValidator(span, signer) && signer > lastAdd) {\n        lastAdd = signer;\n        stakePower = stakePower.add(validator.power);\n      }\n    }\n\n    return stakePower;\n  }\n\n  //\n  // Utility functions\n  //\n\n  function checkMembership(\n    bytes32 rootHash,\n    bytes32 leaf,\n    bytes memory proof\n  ) public pure returns (bool) {\n    bytes32 proofElement;\n    byte direction;\n    bytes32 computedHash = leaf;\n\n    uint256 len = (proof.length / 33) * 33;\n    if (len > 0) {\n      computedHash = leafNode(leaf);\n    }\n\n    for (uint256 i = 33; i <= len; i += 33) {\n      bytes32 tempBytes;\n      assembly {\n        // Get a location of some free memory and store it in tempBytes as\n        // Solidity does for memory variables.\n        tempBytes := mload(add(proof, sub(i, 1)))\n        proofElement := mload(add(proof, i))\n      }\n\n      direction = tempBytes[0];\n      if (direction == 0) {\n        computedHash = innerNode(proofElement, computedHash);\n      } else {\n        computedHash = innerNode(computedHash, proofElement);\n      }\n    }\n\n    return computedHash == rootHash;\n  }\n\n  function leafNode(bytes32 d) public pure returns (bytes32) {\n    return sha256(abi.encodePacked(byte(uint8(0)), d));\n  }\n\n  function innerNode(bytes32 left, bytes32 right) public pure returns (bytes32) {\n    return sha256(abi.encodePacked(byte(uint8(1)), left, right));\n  }\n}\n",
  "sourcePath": "/Users/ohm.jirapon/internal/layer-2/layer2-plasma-cli/devnet/code/genesis-contracts/contracts/BorValidatorSet.sol",
  "compiler": {
    "name": "solc",
    "version": "0.5.11+commit.c082d0b4.Emscripten.clang"
  },
  "schemaVersion": "3.0.14",
  "updatedAt": "2022-09-15T09:24:45.262Z",
  "devdoc": {
    "methods": {}
  },
  "userdoc": {
    "methods": {
      "getInitialValidators()": {
        "notice": "Get current validator set (last enacted or initial if no changes ever made) with current stake."
      },
      "getValidators()": {
        "notice": "Get current validator set (last enacted or initial if no changes ever made) with current stake."
      }
    }
  }
}