{
  "contractName": "BorValidatorSet",
  "abi": [
    {
      "constant": true,
      "inputs": [],
      "name": "SPRINT",
      "outputs": [
        {
          "internalType": "uint256",
          "name": "",
          "type": "uint256"
        }
      ],
      "payable": false,
      "stateMutability": "view",
      "type": "function"
    },
    {
      "constant": true,
      "inputs": [],
      "name": "SYSTEM_ADDRESS",
      "outputs": [
        {
          "internalType": "address",
          "name": "",
          "type": "address"
        }
      ],
      "payable": false,
      "stateMutability": "view",
      "type": "function"
    },
    {
      "constant": true,
      "inputs": [],
      "name": "CHAIN",
      "outputs": [
        {
          "internalType": "bytes32",
          "name": "",
          "type": "bytes32"
        }
      ],
      "payable": false,
      "stateMutability": "view",
      "type": "function"
    },
    {
      "constant": true,
      "inputs": [],
      "name": "FIRST_END_BLOCK",
      "outputs": [
        {
          "internalType": "uint256",
          "name": "",
          "type": "uint256"
        }
      ],
      "payable": false,
      "stateMutability": "view",
      "type": "function"
    },
    {
      "constant": true,
      "inputs": [
        {
          "internalType": "uint256",
          "name": "",
          "type": "uint256"
        },
        {
          "internalType": "uint256",
          "name": "",
          "type": "uint256"
        }
      ],
      "name": "producers",
      "outputs": [
        {
          "internalType": "uint256",
          "name": "id",
          "type": "uint256"
        },
        {
          "internalType": "uint256",
          "name": "power",
          "type": "uint256"
        },
        {
          "internalType": "address",
          "name": "signer",
          "type": "address"
        }
      ],
      "payable": false,
      "stateMutability": "view",
      "type": "function"
    },
    {
      "constant": true,
      "inputs": [],
      "name": "ROUND_TYPE",
      "outputs": [
        {
          "internalType": "bytes32",
          "name": "",
          "type": "bytes32"
        }
      ],
      "payable": false,
      "stateMutability": "view",
      "type": "function"
    },
    {
      "constant": true,
      "inputs": [],
      "name": "BOR_ID",
      "outputs": [
        {
          "internalType": "bytes32",
          "name": "",
          "type": "bytes32"
        }
      ],
      "payable": false,
      "stateMutability": "view",
      "type": "function"
    },
    {
      "constant": true,
      "inputs": [
        {
          "internalType": "uint256",
          "name": "",
          "type": "uint256"
        }
      ],
      "name": "spanNumbers",
      "outputs": [
        {
          "internalType": "uint256",
          "name": "",
          "type": "uint256"
        }
      ],
      "payable": false,
      "stateMutability": "view",
      "type": "function"
    },
    {
      "constant": true,
      "inputs": [],
      "name": "VOTE_TYPE",
      "outputs": [
        {
          "internalType": "uint8",
          "name": "",
          "type": "uint8"
        }
      ],
      "payable": false,
      "stateMutability": "view",
      "type": "function"
    },
    {
      "constant": true,
      "inputs": [
        {
          "internalType": "uint256",
          "name": "",
          "type": "uint256"
        },
        {
          "internalType": "uint256",
          "name": "",
          "type": "uint256"
        }
      ],
      "name": "validators",
      "outputs": [
        {
          "internalType": "uint256",
          "name": "id",
          "type": "uint256"
        },
        {
          "internalType": "uint256",
          "name": "power",
          "type": "uint256"
        },
        {
          "internalType": "address",
          "name": "signer",
          "type": "address"
        }
      ],
      "payable": false,
      "stateMutability": "view",
      "type": "function"
    },
    {
      "constant": true,
      "inputs": [
        {
          "internalType": "uint256",
          "name": "",
          "type": "uint256"
        }
      ],
      "name": "spans",
      "outputs": [
        {
          "internalType": "uint256",
          "name": "number",
          "type": "uint256"
        },
        {
          "internalType": "uint256",
          "name": "startBlock",
          "type": "uint256"
        },
        {
          "internalType": "uint256",
          "name": "endBlock",
          "type": "uint256"
        }
      ],
      "payable": false,
      "stateMutability": "view",
      "type": "function"
    },
    {
      "inputs": [],
      "payable": false,
      "stateMutability": "nonpayable",
      "type": "constructor"
    },
    {
      "anonymous": false,
      "inputs": [
        {
          "indexed": true,
          "internalType": "uint256",
          "name": "id",
          "type": "uint256"
        },
        {
          "indexed": true,
          "internalType": "uint256",
          "name": "startBlock",
          "type": "uint256"
        },
        {
          "indexed": true,
          "internalType": "uint256",
          "name": "endBlock",
          "type": "uint256"
        }
      ],
      "name": "NewSpan",
      "type": "event"
    },
    {
      "constant": true,
      "inputs": [],
      "name": "currentSprint",
      "outputs": [
        {
          "internalType": "uint256",
          "name": "",
          "type": "uint256"
        }
      ],
      "payable": false,
      "stateMutability": "view",
      "type": "function"
    },
    {
      "constant": true,
      "inputs": [
        {
          "internalType": "uint256",
          "name": "span",
          "type": "uint256"
        }
      ],
      "name": "getSpan",
      "outputs": [
        {
          "internalType": "uint256",
          "name": "number",
          "type": "uint256"
        },
        {
          "internalType": "uint256",
          "name": "startBlock",
          "type": "uint256"
        },
        {
          "internalType": "uint256",
          "name": "endBlock",
          "type": "uint256"
        }
      ],
      "payable": false,
      "stateMutability": "view",
      "type": "function"
    },
    {
      "constant": true,
      "inputs": [],
      "name": "getCurrentSpan",
      "outputs": [
        {
          "internalType": "uint256",
          "name": "number",
          "type": "uint256"
        },
        {
          "internalType": "uint256",
          "name": "startBlock",
          "type": "uint256"
        },
        {
          "internalType": "uint256",
          "name": "endBlock",
          "type": "uint256"
        }
      ],
      "payable": false,
      "stateMutability": "view",
      "type": "function"
    },
    {
      "constant": true,
      "inputs": [],
      "name": "getNextSpan",
      "outputs": [
        {
          "internalType": "uint256",
          "name": "number",
          "type": "uint256"
        },
        {
          "internalType": "uint256",
          "name": "startBlock",
          "type": "uint256"
        },
        {
          "internalType": "uint256",
          "name": "endBlock",
          "type": "uint256"
        }
      ],
      "payable": false,
      "stateMutability": "view",
      "type": "function"
    },
    {
      "constant": true,
      "inputs": [
        {
          "internalType": "uint256",
          "name": "number",
          "type": "uint256"
        }
      ],
      "name": "getSpanByBlock",
      "outputs": [
        {
          "internalType": "uint256",
          "name": "",
          "type": "uint256"
        }
      ],
      "payable": false,
      "stateMutability": "view",
      "type": "function"
    },
    {
      "constant": true,
      "inputs": [],
      "name": "currentSpanNumber",
      "outputs": [
        {
          "internalType": "uint256",
          "name": "",
          "type": "uint256"
        }
      ],
      "payable": false,
      "stateMutability": "view",
      "type": "function"
    },
    {
      "constant": true,
      "inputs": [
        {
          "internalType": "uint256",
          "name": "span",
          "type": "uint256"
        }
      ],
      "name": "getValidatorsTotalStakeBySpan",
      "outputs": [
        {
          "internalType": "uint256",
          "name": "",
          "type": "uint256"
        }
      ],
      "payable": false,
      "stateMutability": "view",
      "type": "function"
    },
    {
      "constant": true,
      "inputs": [
        {
          "internalType": "uint256",
          "name": "span",
          "type": "uint256"
        }
      ],
      "name": "getProducersTotalStakeBySpan",
      "outputs": [
        {
          "internalType": "uint256",
          "name": "",
          "type": "uint256"
        }
      ],
      "payable": false,
      "stateMutability": "view",
      "type": "function"
    },
    {
      "constant": true,
      "inputs": [
        {
          "internalType": "uint256",
          "name": "span",
          "type": "uint256"
        },
        {
          "internalType": "address",
          "name": "signer",
          "type": "address"
        }
      ],
      "name": "getValidatorBySigner",
      "outputs": [
        {
          "components": [
            {
              "internalType": "uint256",
              "name": "id",
              "type": "uint256"
            },
            {
              "internalType": "uint256",
              "name": "power",
              "type": "uint256"
            },
            {
              "internalType": "address",
              "name": "signer",
              "type": "address"
            }
          ],
          "internalType": "struct BorValidatorSet.Validator",
          "name": "result",
          "type": "tuple"
        }
      ],
      "payable": false,
      "stateMutability": "view",
      "type": "function"
    },
    {
      "constant": true,
      "inputs": [
        {
          "internalType": "uint256",
          "name": "span",
          "type": "uint256"
        },
        {
          "internalType": "address",
          "name": "signer",
          "type": "address"
        }
      ],
      "name": "isValidator",
      "outputs": [
        {
          "internalType": "bool",
          "name": "",
          "type": "bool"
        }
      ],
      "payable": false,
      "stateMutability": "view",
      "type": "function"
    },
    {
      "constant": true,
      "inputs": [
        {
          "internalType": "uint256",
          "name": "span",
          "type": "uint256"
        },
        {
          "internalType": "address",
          "name": "signer",
          "type": "address"
        }
      ],
      "name": "isProducer",
      "outputs": [
        {
          "internalType": "bool",
          "name": "",
          "type": "bool"
        }
      ],
      "payable": false,
      "stateMutability": "view",
      "type": "function"
    },
    {
      "constant": true,
      "inputs": [
        {
          "internalType": "address",
          "name": "signer",
          "type": "address"
        }
      ],
      "name": "isCurrentValidator",
      "outputs": [
        {
          "internalType": "bool",
          "name": "",
          "type": "bool"
        }
      ],
      "payable": false,
      "stateMutability": "view",
      "type": "function"
    },
    {
      "constant": true,
      "inputs": [
        {
          "internalType": "address",
          "name": "signer",
          "type": "address"
        }
      ],
      "name": "isCurrentProducer",
      "outputs": [
        {
          "internalType": "bool",
          "name": "",
          "type": "bool"
        }
      ],
      "payable": false,
      "stateMutability": "view",
      "type": "function"
    },
    {
      "constant": true,
      "inputs": [
        {
          "internalType": "uint256",
          "name": "number",
          "type": "uint256"
        }
      ],
      "name": "getBorValidators",
      "outputs": [
        {
          "internalType": "address[]",
          "name": "",
          "type": "address[]"
        },
        {
          "internalType": "uint256[]",
          "name": "",
          "type": "uint256[]"
        }
      ],
      "payable": false,
      "stateMutability": "view",
      "type": "function"
    },
    {
      "constant": true,
      "inputs": [],
      "name": "getInitialValidators",
      "outputs": [
        {
          "internalType": "address[]",
          "name": "",
          "type": "address[]"
        },
        {
          "internalType": "uint256[]",
          "name": "",
          "type": "uint256[]"
        }
      ],
      "payable": false,
      "stateMutability": "view",
      "type": "function"
    },
    {
      "constant": true,
      "inputs": [],
      "name": "getValidators",
      "outputs": [
        {
          "internalType": "address[]",
          "name": "",
          "type": "address[]"
        },
        {
          "internalType": "uint256[]",
          "name": "",
          "type": "uint256[]"
        }
      ],
      "payable": false,
      "stateMutability": "view",
      "type": "function"
    },
    {
      "constant": false,
      "inputs": [
        {
          "internalType": "uint256",
          "name": "newSpan",
          "type": "uint256"
        },
        {
          "internalType": "uint256",
          "name": "startBlock",
          "type": "uint256"
        },
        {
          "internalType": "uint256",
          "name": "endBlock",
          "type": "uint256"
        },
        {
          "internalType": "bytes",
          "name": "validatorBytes",
          "type": "bytes"
        },
        {
          "internalType": "bytes",
          "name": "producerBytes",
          "type": "bytes"
        }
      ],
      "name": "commitSpan",
      "outputs": [],
      "payable": false,
      "stateMutability": "nonpayable",
      "type": "function"
    },
    {
      "constant": true,
      "inputs": [
        {
          "internalType": "uint256",
          "name": "span",
          "type": "uint256"
        },
        {
          "internalType": "bytes32",
          "name": "dataHash",
          "type": "bytes32"
        },
        {
          "internalType": "bytes",
          "name": "sigs",
          "type": "bytes"
        }
      ],
      "name": "getStakePowerBySigs",
      "outputs": [
        {
          "internalType": "uint256",
          "name": "",
          "type": "uint256"
        }
      ],
      "payable": false,
      "stateMutability": "view",
      "type": "function"
    },
    {
      "constant": true,
      "inputs": [
        {
          "internalType": "bytes32",
          "name": "rootHash",
          "type": "bytes32"
        },
        {
          "internalType": "bytes32",
          "name": "leaf",
          "type": "bytes32"
        },
        {
          "internalType": "bytes",
          "name": "proof",
          "type": "bytes"
        }
      ],
      "name": "checkMembership",
      "outputs": [
        {
          "internalType": "bool",
          "name": "",
          "type": "bool"
        }
      ],
      "payable": false,
      "stateMutability": "pure",
      "type": "function"
    },
    {
      "constant": true,
      "inputs": [
        {
          "internalType": "bytes32",
          "name": "d",
          "type": "bytes32"
        }
      ],
      "name": "leafNode",
      "outputs": [
        {
          "internalType": "bytes32",
          "name": "",
          "type": "bytes32"
        }
      ],
      "payable": false,
      "stateMutability": "pure",
      "type": "function"
    },
    {
      "constant": true,
      "inputs": [
        {
          "internalType": "bytes32",
          "name": "left",
          "type": "bytes32"
        },
        {
          "internalType": "bytes32",
          "name": "right",
          "type": "bytes32"
        }
      ],
      "name": "innerNode",
      "outputs": [
        {
          "internalType": "bytes32",
          "name": "",
          "type": "bytes32"
        }
      ],
      "payable": false,
      "stateMutability": "pure",
      "type": "function"
    }
  ],
  "bytecode": "0x608060405234801561001057600080fd5b506135d4806100206000396000f3fe608060405234801561001057600080fd5b506004361061020d576000357c01000000000000000000000000000000000000000000000000000000009004806360c8614d1161012c578063af26aa96116100bf578063d5b844eb1161008e578063d5b844eb14610683578063dcf2793a146106a1578063e3b7c924146106d3578063f59cf565146106f15761020d565b8063af26aa96146105e4578063b71d7a6914610604578063b7ab4db514610634578063c1b3c919146106535761020d565b806370ba5707116100fb57806370ba57071461054857806398ab2b62146105785780639d11b80714610596578063ae756451146105c65761020d565b806360c8614d146104b957806365b3a1e2146104d957806366332354146104f8578063687a9bd6146105165761020d565b80633434735f116101a457806344d6528f1161017357806344d6528f1461040b5780634dbc959f1461043b57806355614fcc14610459578063582a8d08146104895761020d565b80633434735f1461036f57806335ddfeea1461038d57806343ee8213146103bd57806344c15cb1146103db5761020d565b806323f2a73f116101e057806323f2a73f146102c15780632bc06564146102f15780632de3a1801461030f5780632eddf3521461033f5761020d565b8063047a6c5b146102125780630c35b1cb146102445780631270b5741461027557806323c2a2b4146102a5575b600080fd5b61022c600480360361022791908101906129dd565b610723565b60405161023b9392919061331c565b60405180910390f35b61025e600480360361025991908101906129dd565b61077a565b60405161026c92919061313d565b60405180910390f35b61028f600480360361028a9190810190612a06565b610956565b60405161029c9190613174565b60405180910390f35b6102bf60048036036102ba9190810190612ae5565b610aae565b005b6102db60048036036102d69190810190612a06565b611147565b6040516102e89190613174565b60405180910390f35b6102f961129e565b60405161030691906132ca565b60405180910390f35b6103296004803603610324919081019061293a565b6112a3565b604051610336919061318f565b60405180910390f35b610359600480360361035491908101906129dd565b611343565b60405161036691906132ca565b60405180910390f35b610377611473565b6040516103849190613122565b60405180910390f35b6103a760048036036103a29190810190612976565b61148b565b6040516103b49190613174565b60405180910390f35b6103c5611594565b6040516103d2919061318f565b60405180910390f35b6103f560048036036103f09190810190612a42565b6115ab565b60405161040291906132ca565b60405180910390f35b61042560048036036104209190810190612a06565b611693565b60405161043291906132af565b60405180910390f35b6104436117fb565b60405161045091906132ca565b60405180910390f35b610473600480360361046e91908101906128bf565b61180b565b6040516104809190613174565b60405180910390f35b6104a3600480360361049e91908101906128e8565b611825565b6040516104b0919061318f565b60405180910390f35b6104c16118c2565b6040516104d09392919061331c565b60405180910390f35b6104e1611936565b6040516104ef92919061313d565b60405180910390f35b610500611a27565b60405161050d91906132ca565b60405180910390f35b610530600480360361052b9190810190612aa9565b611a2c565b60405161053f939291906132e5565b60405180910390f35b610562600480360361055d91908101906128bf565b611a90565b60405161056f9190613174565b60405180910390f35b610580611aaa565b60405161058d919061318f565b60405180910390f35b6105b060048036036105ab91908101906129dd565b611ac1565b6040516105bd91906132ca565b60405180910390f35b6105ce611bf2565b6040516105db919061318f565b60405180910390f35b6105ec611c09565b6040516105fb9392919061331c565b60405180910390f35b61061e600480360361061991908101906129dd565b611c6a565b60405161062b91906132ca565b60405180910390f35b61063c611d6a565b60405161064a92919061313d565b60405180910390f35b61066d600480360361066891908101906129dd565b611d7e565b60405161067a91906132ca565b60405180910390f35b61068b611d9f565b6040516106989190613353565b60405180910390f35b6106bb60048036036106b69190810190612aa9565b611da4565b6040516106ca939291906132e5565b60405180910390f35b6106db611e08565b6040516106e891906132ca565b60405180910390f35b61070b600480360361070691908101906129dd565b611e1a565b60405161071a9392919061331c565b60405180910390f35b60008060006002600085815260200190815260200160002060000154600260008681526020019081526020016000206001015460026000878152602001908152602001600020600201549250925092509193909250565b60608060ff83116107965761078d611936565b91509150610951565b60006107a184611c6a565b9050606060016000838152602001908152602001600020805490506040519080825280602002602001820160405280156107ea5781602001602082028038833980820191505090505b509050606060016000848152602001908152602001600020805490506040519080825280602002602001820160405280156108345781602001602082028038833980820191505090505b50905060008090505b60016000858152602001908152602001600020805490508110156109465760016000858152602001908152602001600020818154811061087957fe5b906000526020600020906003020160020160009054906101000a900473ffffffffffffffffffffffffffffffffffffffff168382815181106108b757fe5b602002602001019073ffffffffffffffffffffffffffffffffffffffff16908173ffffffffffffffffffffffffffffffffffffffff168152505060016000858152602001908152602001600020818154811061090f57fe5b90600052602060002090600302016001015482828151811061092d57fe5b602002602001018181525050808060010191505061083d565b508181945094505050505b915091565b6000606060016000858152602001908152602001600020805480602002602001604051908101604052809291908181526020016000905b82821015610a29578382906000526020600020906003020160405180606001604052908160008201548152602001600182015481526020016002820160009054906101000a900473ffffffffffffffffffffffffffffffffffffffff1673ffffffffffffffffffffffffffffffffffffffff1673ffffffffffffffffffffffffffffffffffffffff16815250508152602001906001019061098d565b50505050905060008090505b8151811015610aa1578373ffffffffffffffffffffffffffffffffffffffff16828281518110610a6157fe5b60200260200101516040015173ffffffffffffffffffffffffffffffffffffffff161415610a9457600192505050610aa8565b8080600101915050610a35565b5060009150505b92915050565b73fffffffffffffffffffffffffffffffffffffffe73ffffffffffffffffffffffffffffffffffffffff163373ffffffffffffffffffffffffffffffffffffffff1614610b30576040517f08c379a0000000000000000000000000000000000000000000000000000000008152600401610b279061328f565b60405180910390fd5b6000610b3a6117fb565b90506000811415610b4e57610b4d611e44565b5b610b6260018261216590919063ffffffff16565b8814610ba3576040517f08c379a0000000000000000000000000000000000000000000000000000000008152600401610b9a9061320f565b60405180910390fd5b868611610be5576040517f08c379a0000000000000000000000000000000000000000000000000000000008152600401610bdc9061326f565b60405180910390fd5b6000604060018989030181610bf657fe5b0614610c37576040517f08c379a0000000000000000000000000000000000000000000000000000000008152600401610c2e9061324f565b60405180910390fd5b8660026000838152602001908152602001600020600101541115610c90576040517f08c379a0000000000000000000000000000000000000000000000000000000008152600401610c87906131ef565b60405180910390fd5b6000600260008a81526020019081526020016000206000015414610ce9576040517f08c379a0000000000000000000000000000000000000000000000000000000008152600401610ce09061322f565b60405180910390fd5b604051806060016040528089815260200188815260200187815250600260008a8152602001908152602001600020600082015181600001556020820151816001015560408201518160020155905050600388908060018154018082558091505090600182039060005260206000200160009091929091909150555060008060008a815260200190815260200160002081610d8391906126b9565b506000600160008a815260200190815260200160002081610da491906126b9565b506060610dfc610df787878080601f016020809104026020016040519081016040528093929190818152602001838380828437600081840152601f19601f82011690508083019250505050505050612184565b6121b2565b905060008090505b8151811015610f6e576060610e2b838381518110610e1e57fe5b60200260200101516121b2565b90506000808c81526020019081526020016000208054809190600101610e5191906126b9565b506040518060600160405280610e7a83600081518110610e6d57fe5b602002602001015161228f565b8152602001610e9c83600181518110610e8f57fe5b602002602001015161228f565b8152602001610ebe83600281518110610eb157fe5b6020026020010151612300565b73ffffffffffffffffffffffffffffffffffffffff168152506000808d81526020019081526020016000208381548110610ef457fe5b9060005260206000209060030201600082015181600001556020820151816001015560408201518160020160006101000a81548173ffffffffffffffffffffffffffffffffffffffff021916908373ffffffffffffffffffffffffffffffffffffffff160217905550905050508080600101915050610e04565b506060610fc6610fc186868080601f016020809104026020016040519081016040528093929190818152602001838380828437600081840152601f19601f82011690508083019250505050505050612184565b6121b2565b905060008090505b815181101561113a576060610ff5838381518110610fe857fe5b60200260200101516121b2565b9050600160008d8152602001908152602001600020805480919060010161101c91906126b9565b5060405180606001604052806110458360008151811061103857fe5b602002602001015161228f565b81526020016110678360018151811061105a57fe5b602002602001015161228f565b81526020016110898360028151811061107c57fe5b6020026020010151612300565b73ffffffffffffffffffffffffffffffffffffffff16815250600160008e815260200190815260200160002083815481106110c057fe5b9060005260206000209060030201600082015181600001556020820151816001015560408201518160020160006101000a81548173ffffffffffffffffffffffffffffffffffffffff021916908373ffffffffffffffffffffffffffffffffffffffff160217905550905050508080600101915050610fce565b5050505050505050505050565b60006060600080858152602001908152602001600020805480602002602001604051908101604052809291908181526020016000905b82821015611219578382906000526020600020906003020160405180606001604052908160008201548152602001600182015481526020016002820160009054906101000a900473ffffffffffffffffffffffffffffffffffffffff1673ffffffffffffffffffffffffffffffffffffffff1673ffffffffffffffffffffffffffffffffffffffff16815250508152602001906001019061117d565b50505050905060008090505b8151811015611291578373ffffffffffffffffffffffffffffffffffffffff1682828151811061125157fe5b60200260200101516040015173ffffffffffffffffffffffffffffffffffffffff16141561128457600192505050611298565b8080600101915050611225565b5060009150505b92915050565b604081565b6000600260017f01000000000000000000000000000000000000000000000000000000000000000284846040516020016112df9392919061308f565b6040516020818303038152906040526040516112fb91906130cc565b602060405180830381855afa158015611318573d6000803e3d6000fd5b5050506040513d601f19601f8201168201806040525061133b9190810190612911565b905092915050565b60006060600080848152602001908152602001600020805480602002602001604051908101604052809291908181526020016000905b82821015611415578382906000526020600020906003020160405180606001604052908160008201548152602001600182015481526020016002820160009054906101000a900473ffffffffffffffffffffffffffffffffffffffff1673ffffffffffffffffffffffffffffffffffffffff1673ffffffffffffffffffffffffffffffffffffffff168152505081526020019060010190611379565b505050509050600080905060008090505b82518110156114685761145983828151811061143e57fe5b6020026020010151602001518361216590919063ffffffff16565b91508080600101915050611426565b508092505050919050565b73fffffffffffffffffffffffffffffffffffffffe81565b60008060008085905060006021808751816114a257fe5b0402905060008111156114bb576114b887611825565b91505b6000602190505b818111611583576000600182038801519050818801519550806000602081106114e757fe5b1a7f010000000000000000000000000000000000000000000000000000000000000002945060007f010000000000000000000000000000000000000000000000000000000000000002857effffffffffffffffffffffffffffffffffffffffffffffffffffffffffffff1916141561156a5761156386856112a3565b9350611577565b61157484876112a3565b93505b506021810190506114c2565b508782149450505050509392505050565b6040516115a09061310d565b604051809103902081565b60008060009050600080905060008090505b84518167ffffffffffffffff1610156116865760606115e8868367ffffffffffffffff166041612323565b905060006115ff82896123af90919063ffffffff16565b90506116096126eb565b6116138a83611693565b905061161f8a83611147565b801561165657508473ffffffffffffffffffffffffffffffffffffffff168273ffffffffffffffffffffffffffffffffffffffff16115b156116785781945061167581602001518761216590919063ffffffff16565b95505b5050506041810190506115bd565b5081925050509392505050565b61169b6126eb565b6060600080858152602001908152602001600020805480602002602001604051908101604052809291908181526020016000905b8282101561176b578382906000526020600020906003020160405180606001604052908160008201548152602001600182015481526020016002820160009054906101000a900473ffffffffffffffffffffffffffffffffffffffff1673ffffffffffffffffffffffffffffffffffffffff1673ffffffffffffffffffffffffffffffffffffffff1681525050815260200190600101906116cf565b50505050905060008090505b81518110156117f3578373ffffffffffffffffffffffffffffffffffffffff168282815181106117a357fe5b60200260200101516040015173ffffffffffffffffffffffffffffffffffffffff1614156117e6578181815181106117d757fe5b602002602001015192506117f3565b8080600101915050611777565b505092915050565b600061180643611c6a565b905090565b600061181e6118186117fb565b83611147565b9050919050565b6000600260007f0100000000000000000000000000000000000000000000000000000000000000028360405160200161185f929190613063565b60405160208183030381529060405260405161187b91906130cc565b602060405180830381855afa158015611898573d6000803e3d6000fd5b5050506040513d601f19601f820116820180604052506118bb9190810190612911565b9050919050565b6000806000806118e360016118d56117fb565b61216590919063ffffffff16565b905060026000828152602001908152602001600020600001546002600083815260200190815260200160002060010154600260008481526020019081526020016000206002015493509350935050909192565b6060806060600160405190808252806020026020018201604052801561196b5781602001602082028038833980820191505090505b5090507394f8a71be3e7f216dccb5760badf81cc4df9f5ff8160008151811061199057fe5b602002602001019073ffffffffffffffffffffffffffffffffffffffff16908173ffffffffffffffffffffffffffffffffffffffff1681525050606060016040519080825280602002602001820160405280156119fc5781602001602082028038833980820191505090505b50905061271081600081518110611a0f57fe5b60200260200101818152505081819350935050509091565b60ff81565b60016020528160005260406000208181548110611a4557fe5b9060005260206000209060030201600091509150508060000154908060010154908060020160009054906101000a900473ffffffffffffffffffffffffffffffffffffffff16905083565b6000611aa3611a9d6117fb565b83610956565b9050919050565b604051611ab6906130e3565b604051809103902081565b6000606060016000848152602001908152602001600020805480602002602001604051908101604052809291908181526020016000905b82821015611b94578382906000526020600020906003020160405180606001604052908160008201548152602001600182015481526020016002820160009054906101000a900473ffffffffffffffffffffffffffffffffffffffff1673ffffffffffffffffffffffffffffffffffffffff1673ffffffffffffffffffffffffffffffffffffffff168152505081526020019060010190611af8565b505050509050600080905060008090505b8251811015611be757611bd8838281518110611bbd57fe5b6020026020010151602001518361216590919063ffffffff16565b91508080600101915050611ba5565b508092505050919050565b604051611bfe906130f8565b604051809103902081565b600080600080611c176117fb565b905060026000828152602001908152602001600020600001546002600083815260200190815260200160002060010154600260008481526020019081526020016000206002015493509350935050909192565b60008060038054905090505b6000811115611d2a57611c87612722565b6002600060036001850381548110611c9b57fe5b906000526020600020015481526020019081526020016000206040518060600160405290816000820154815260200160018201548152602001600282015481525050905083816020015111158015611cf857506000816040015114155b8015611d08575080604001518411155b15611d1b57806000015192505050611d65565b50808060019003915050611c76565b5060006003805490501115611d6057600360016003805490500381548110611d4e57fe5b90600052602060002001549050611d65565b600090505b919050565b606080611d764361077a565b915091509091565b60038181548110611d8b57fe5b906000526020600020016000915090505481565b600281565b60006020528160005260406000208181548110611dbd57fe5b9060005260206000209060030201600091509150508060000154908060010154908060020160009054906101000a900473ffffffffffffffffffffffffffffffffffffffff16905083565b600060404381611e1457fe5b04905090565b60026020528060005260406000206000915090508060000154908060010154908060020154905083565b606080611e4f611936565b8092508193505050600080905060405180606001604052808281526020016000815260200160ff815250600260008381526020019081526020016000206000820151816000015560208201518160010155604082015181600201559050506003819080600181540180825580915050906001820390600052602060002001600090919290919091505550600080600083815260200190815260200160002081611ef891906126b9565b5060006001600083815260200190815260200160002081611f1991906126b9565b5060008090505b835181101561203b576000808381526020019081526020016000208054809190600101611f4d91906126b9565b506040518060600160405280828152602001848381518110611f6b57fe5b60200260200101518152602001858381518110611f8457fe5b602002602001015173ffffffffffffffffffffffffffffffffffffffff168152506000808481526020019081526020016000208281548110611fc257fe5b9060005260206000209060030201600082015181600001556020820151816001015560408201518160020160006101000a81548173ffffffffffffffffffffffffffffffffffffffff021916908373ffffffffffffffffffffffffffffffffffffffff1602179055509050508080600101915050611f20565b5060008090505b835181101561215f5760016000838152602001908152602001600020805480919060010161207091906126b9565b50604051806060016040528082815260200184838151811061208e57fe5b602002602001015181526020018583815181106120a757fe5b602002602001015173ffffffffffffffffffffffffffffffffffffffff168152506001600084815260200190815260200160002082815481106120e657fe5b9060005260206000209060030201600082015181600001556020820151816001015560408201518160020160006101000a81548173ffffffffffffffffffffffffffffffffffffffff021916908373ffffffffffffffffffffffffffffffffffffffff1602179055509050508080600101915050612042565b50505050565b60008082840190508381101561217a57600080fd5b8091505092915050565b61218c612743565b600060208301905060405180604001604052808451815260200182815250915050919050565b60606121bd826124b9565b6121c657600080fd5b60006121d183612507565b905060608160405190808252806020026020018201604052801561220f57816020015b6121fc61275d565b8152602001906001900390816121f45790505b50905060006122218560200151612578565b8560200151019050600080600090505b848110156122825761224283612601565b915060405180604001604052808381526020018481525084828151811061226557fe5b602002602001018190525081830192508080600101915050612231565b5082945050505050919050565b60008082600001511180156122a957506021826000015111155b6122b257600080fd5b60006122c18360200151612578565b905060008184600001510390506000808386602001510190508051915060208310156122f457826020036101000a820491505b81945050505050919050565b6000601582600001511461231357600080fd5b61231c8261228f565b9050919050565b60608183018451101561233557600080fd5b6060821560008114612352576040519150602082016040526123a3565b6040519150601f8416801560200281840101858101878315602002848b0101015b818310156123905780518352602083019250602081019050612373565b50868552601f19601f8301166040525050505b50809150509392505050565b60008060008060418551146123ca57600093505050506124b3565b602085015192506040850151915060ff6041860151169050601b8160ff1610156123f557601b810190505b601b8160ff161415801561240d5750601c8160ff1614155b1561241e57600093505050506124b3565b60006001878386866040516000815260200160405260405161244394939291906131aa565b6020604051602081039080840390855afa158015612465573d6000803e3d6000fd5b505050602060405103519050600073ffffffffffffffffffffffffffffffffffffffff168173ffffffffffffffffffffffffffffffffffffffff1614156124ab57600080fd5b809450505050505b92915050565b600080826000015114156124d05760009050612502565b60008083602001519050805160001a915060c060ff168260ff1610156124fb57600092505050612502565b6001925050505b919050565b6000808260000151141561251e5760009050612573565b600080905060006125328460200151612578565b84602001510190506000846000015185602001510190505b8082101561256c5761255b82612601565b82019150828060010193505061254a565b8293505050505b919050565b600080825160001a9050608060ff168110156125985760009150506125fc565b60b860ff168110806125bd575060c060ff1681101580156125bc575060f860ff1681105b5b156125cc5760019150506125fc565b60c060ff168110156125ec5760018060b80360ff168203019150506125fc565b60018060f80360ff168203019150505b919050565b6000806000835160001a9050608060ff1681101561262257600191506126af565b60b860ff1681101561263f576001608060ff1682030191506126ae565b60c060ff1681101561266f5760b78103600185019450806020036101000a855104600182018101935050506126ad565b60f860ff1681101561268c57600160c060ff1682030191506126ac565b60f78103600185019450806020036101000a855104600182018101935050505b5b5b5b8192505050919050565b8154818355818111156126e6576003028160030283600052602060002091820191016126e59190612777565b5b505050565b60405180606001604052806000815260200160008152602001600073ffffffffffffffffffffffffffffffffffffffff1681525090565b60405180606001604052806000815260200160008152602001600081525090565b604051806040016040528060008152602001600081525090565b604051806040016040528060008152602001600081525090565b6127ca91905b808211156127c65760008082016000905560018201600090556002820160006101000a81549073ffffffffffffffffffffffffffffffffffffffff02191690555060030161277d565b5090565b90565b6000813590506127dc8161354c565b92915050565b6000813590506127f181613563565b92915050565b60008151905061280681613563565b92915050565b60008083601f84011261281e57600080fd5b8235905067ffffffffffffffff81111561283757600080fd5b60208301915083600182028301111561284f57600080fd5b9250929050565b600082601f83011261286757600080fd5b813561287a6128758261339b565b61336e565b9150808252602083016020830185838301111561289657600080fd5b6128a18382846134f6565b50505092915050565b6000813590506128b98161357a565b92915050565b6000602082840312156128d157600080fd5b60006128df848285016127cd565b91505092915050565b6000602082840312156128fa57600080fd5b6000612908848285016127e2565b91505092915050565b60006020828403121561292357600080fd5b6000612931848285016127f7565b91505092915050565b6000806040838503121561294d57600080fd5b600061295b858286016127e2565b925050602061296c858286016127e2565b9150509250929050565b60008060006060848603121561298b57600080fd5b6000612999868287016127e2565b93505060206129aa868287016127e2565b925050604084013567ffffffffffffffff8111156129c757600080fd5b6129d386828701612856565b9150509250925092565b6000602082840312156129ef57600080fd5b60006129fd848285016128aa565b91505092915050565b60008060408385031215612a1957600080fd5b6000612a27858286016128aa565b9250506020612a38858286016127cd565b9150509250929050565b600080600060608486031215612a5757600080fd5b6000612a65868287016128aa565b9350506020612a76868287016127e2565b925050604084013567ffffffffffffffff811115612a9357600080fd5b612a9f86828701612856565b9150509250925092565b60008060408385031215612abc57600080fd5b6000612aca858286016128aa565b9250506020612adb858286016128aa565b9150509250929050565b600080600080600080600060a0888a031215612b0057600080fd5b6000612b0e8a828b016128aa565b9750506020612b1f8a828b016128aa565b9650506040612b308a828b016128aa565b955050606088013567ffffffffffffffff811115612b4d57600080fd5b612b598a828b0161280c565b9450945050608088013567ffffffffffffffff811115612b7857600080fd5b612b848a828b0161280c565b925092505092959891949750929550565b6000612ba18383612bc5565b60208301905092915050565b6000612bb98383613036565b60208301905092915050565b612bce8161346b565b82525050565b612bdd8161346b565b82525050565b6000612bee826133e7565b612bf88185613422565b9350612c03836133c7565b8060005b83811015612c34578151612c1b8882612b95565b9750612c2683613408565b925050600181019050612c07565b5085935050505092915050565b6000612c4c826133f2565b612c568185613433565b9350612c61836133d7565b8060005b83811015612c92578151612c798882612bad565b9750612c8483613415565b925050600181019050612c65565b5085935050505092915050565b612ca88161347d565b82525050565b612cbf612cba82613489565b613538565b82525050565b612cce816134b5565b82525050565b612ce5612ce0826134b5565b613542565b82525050565b6000612cf6826133fd565b612d008185613444565b9350612d10818560208601613505565b80840191505092915050565b6000612d29600483613460565b91507f766f7465000000000000000000000000000000000000000000000000000000006000830152600482019050919050565b6000612d69602d8361344f565b91507f537461727420626c6f636b206d7573742062652067726561746572207468616e60008301527f2063757272656e74207370616e000000000000000000000000000000000000006020830152604082019050919050565b6000612dcf600683613460565b91507f31393130343200000000000000000000000000000000000000000000000000006000830152600682019050919050565b6000612e0f600f8361344f565b91507f496e76616c6964207370616e20696400000000000000000000000000000000006000830152602082019050919050565b6000612e4f60138361344f565b91507f5370616e20616c726561647920657869737473000000000000000000000000006000830152602082019050919050565b6000612e8f60458361344f565b91507f446966666572656e6365206265747765656e20737461727420616e6420656e6460008301527f20626c6f636b206d75737420626520696e206d756c7469706c6573206f66207360208301527f7072696e740000000000000000000000000000000000000000000000000000006040830152606082019050919050565b6000612f1b602a8361344f565b91507f456e6420626c6f636b206d7573742062652067726561746572207468616e207360008301527f7461727420626c6f636b000000000000000000000000000000000000000000006020830152604082019050919050565b6000612f8160128361344f565b91507f4e6f742053797374656d204164646573732100000000000000000000000000006000830152602082019050919050565b6000612fc1600f83613460565b91507f6865696d64616c6c2d31393130343200000000000000000000000000000000006000830152600f82019050919050565b60608201600082015161300a6000850182613036565b50602082015161301d6020850182613036565b5060408201516130306040850182612bc5565b50505050565b61303f816134df565b82525050565b61304e816134df565b82525050565b61305d816134e9565b82525050565b600061306f8285612cae565b60018201915061307f8284612cd4565b6020820191508190509392505050565b600061309b8286612cae565b6001820191506130ab8285612cd4565b6020820191506130bb8284612cd4565b602082019150819050949350505050565b60006130d88284612ceb565b915081905092915050565b60006130ee82612d1c565b9150819050919050565b600061310382612dc2565b9150819050919050565b600061311882612fb4565b9150819050919050565b60006020820190506131376000830184612bd4565b92915050565b600060408201905081810360008301526131578185612be3565b9050818103602083015261316b8184612c41565b90509392505050565b60006020820190506131896000830184612c9f565b92915050565b60006020820190506131a46000830184612cc5565b92915050565b60006080820190506131bf6000830187612cc5565b6131cc6020830186613054565b6131d96040830185612cc5565b6131e66060830184612cc5565b95945050505050565b6000602082019050818103600083015261320881612d5c565b9050919050565b6000602082019050818103600083015261322881612e02565b9050919050565b6000602082019050818103600083015261324881612e42565b9050919050565b6000602082019050818103600083015261326881612e82565b9050919050565b6000602082019050818103600083015261328881612f0e565b9050919050565b600060208201905081810360008301526132a881612f74565b9050919050565b60006060820190506132c46000830184612ff4565b92915050565b60006020820190506132df6000830184613045565b92915050565b60006060820190506132fa6000830186613045565b6133076020830185613045565b6133146040830184612bd4565b949350505050565b60006060820190506133316000830186613045565b61333e6020830185613045565b61334b6040830184613045565b949350505050565b60006020820190506133686000830184613054565b92915050565b6000604051905081810181811067ffffffffffffffff8211171561339157600080fd5b8060405250919050565b600067ffffffffffffffff8211156133b257600080fd5b601f19601f8301169050602081019050919050565b6000819050602082019050919050565b6000819050602082019050919050565b600081519050919050565b600081519050919050565b600081519050919050565b6000602082019050919050565b6000602082019050919050565b600082825260208201905092915050565b600082825260208201905092915050565b600081905092915050565b600082825260208201905092915050565b600081905092915050565b6000613476826134bf565b9050919050565b60008115159050919050565b60007fff0000000000000000000000000000000000000000000000000000000000000082169050919050565b6000819050919050565b600073ffffffffffffffffffffffffffffffffffffffff82169050919050565b6000819050919050565b600060ff82169050919050565b82818337600083830152505050565b60005b83811015613523578082015181840152602081019050613508565b83811115613532576000848401525b50505050565b6000819050919050565b6000819050919050565b6135558161346b565b811461356057600080fd5b50565b61356c816134b5565b811461357757600080fd5b50565b613583816134df565b811461358e57600080fd5b5056fea365627a7a72315820fd57b30e0813686aa25176474832739847ed33dca3cec248545e50ef8d13e3126c6578706572696d656e74616cf564736f6c634300050b0040",
  "source": "pragma solidity ^0.5.11;\npragma experimental ABIEncoderV2;\n\nimport { SafeMath } from \"openzeppelin-solidity/contracts/math/SafeMath.sol\";\nimport { RLPReader } from \"solidity-rlp/contracts/RLPReader.sol\";\n\nimport { BytesLib } from \"../matic-contracts/contracts/common/lib/BytesLib.sol\";\nimport { System } from \"./System.sol\";\nimport { ECVerify } from \"./ECVerify.sol\";\nimport { ValidatorSet } from \"./ValidatorSet.sol\";\n\ncontract BorValidatorSet is System {\n  using SafeMath for uint256;\n  using RLPReader for bytes;\n  using RLPReader for RLPReader.RLPItem;\n  using ECVerify for bytes32;\n\n  bytes32 public constant CHAIN = keccak256(\"heimdall-191042\");\n  bytes32 public constant ROUND_TYPE = keccak256(\"vote\");\n  bytes32 public constant BOR_ID = keccak256(\"191042\");\n  uint8 public constant VOTE_TYPE = 2;\n  uint256 public constant FIRST_END_BLOCK = 255;\n  uint256 public constant SPRINT = 64;\n\n  struct Validator {\n    uint256 id;\n    uint256 power;\n    address signer;\n  }\n\n  // span details\n  struct Span {\n    uint256 number;\n    uint256 startBlock;\n    uint256 endBlock;\n  }\n\n  mapping(uint256 => Validator[]) public validators;\n  mapping(uint256 => Validator[]) public producers;\n\n  mapping (uint256 => Span) public spans; // span number => span\n  uint256[] public spanNumbers; // recent span numbers\n\n  // event\n  event NewSpan(uint256 indexed id, uint256 indexed startBlock, uint256 indexed endBlock);\n\n  constructor() public {}\n\n  modifier onlyValidator() {\n    uint256 span = currentSpanNumber();\n    require(isValidator(span, msg.sender));\n    _;\n  }\n\n  function setInitialValidators() internal {\n    address[] memory d;\n    uint256[] memory p;\n\n    // get initial validators\n    (d, p) = getInitialValidators();\n\n    // initial span\n    uint256 span = 0;\n    spans[span] = Span({\n      number: span,\n      startBlock: 0,\n      endBlock: FIRST_END_BLOCK\n    });\n    spanNumbers.push(span);\n    validators[span].length = 0;\n    producers[span].length = 0;\n\n    for (uint256 i = 0; i < d.length; i++) {\n      validators[span].length++;\n      validators[span][i] = Validator({\n        id: i,\n        power: p[i],\n        signer: d[i]\n      });\n    }\n\n    for (uint256 i = 0; i < d.length; i++) {\n      producers[span].length++;\n      producers[span][i] = Validator({\n        id: i,\n        power: p[i],\n        signer: d[i]\n      });\n    }\n  }\n\n  function currentSprint() public view returns (uint256) {\n    return block.number / SPRINT;\n  }\n\n  function getSpan(uint256 span) public view returns (uint256 number, uint256 startBlock, uint256 endBlock) {\n    return (spans[span].number, spans[span].startBlock, spans[span].endBlock);\n  }\n\n  function getCurrentSpan() public view returns (uint256 number, uint256 startBlock, uint256 endBlock) {\n    uint256 span = currentSpanNumber();\n    return (spans[span].number, spans[span].startBlock, spans[span].endBlock);\n  }\n\n  function getNextSpan() public view returns (uint256 number, uint256 startBlock, uint256 endBlock) {\n    uint256 span = currentSpanNumber().add(1);\n    return (spans[span].number, spans[span].startBlock, spans[span].endBlock);\n  }\n\n  function getValidatorsBySpan(uint256 span) internal view returns (Validator[] memory) {\n    return validators[span];\n  }\n\n  function getProducersBySpan(uint256 span) internal view returns (Validator[] memory) {\n    return producers[span];\n  }\n\n  // get span number by block\n  function getSpanByBlock(uint256 number) public view returns (uint256) {\n    for (uint256 i = spanNumbers.length; i > 0; i--) {\n      Span memory span = spans[spanNumbers[i - 1]];\n      if (span.startBlock <= number && span.endBlock != 0 && number <= span.endBlock) {\n        return span.number;\n      }\n    }\n\n    // if cannot find matching span, return latest span\n    if (spanNumbers.length > 0) {\n      return spanNumbers[spanNumbers.length - 1];\n    }\n\n    // return default if not found any thing\n    return 0;\n  }\n\n  function currentSpanNumber() public view returns (uint256) {\n    return getSpanByBlock(block.number);\n  }\n\n  function getValidatorsTotalStakeBySpan(uint256 span) public view returns (uint256) {\n    Validator[] memory vals = validators[span];\n    uint256 result = 0;\n    for (uint256 i = 0; i < vals.length; i++) {\n      result = result.add(vals[i].power);\n    }\n    return result;\n  }\n\n  function getProducersTotalStakeBySpan(uint256 span) public view returns (uint256) {\n    Validator[] memory vals = producers[span];\n    uint256 result = 0;\n    for (uint256 i = 0; i < vals.length; i++) {\n      result = result.add(vals[i].power);\n    }\n    return result;\n  }\n\n  function getValidatorBySigner(uint256 span, address signer) public view returns (Validator memory result) {\n    Validator[] memory vals = validators[span];\n    for (uint256 i = 0; i < vals.length; i++) {\n      if (vals[i].signer == signer) {\n        result = vals[i];\n        break;\n      }\n    }\n  }\n\n  function isValidator(uint256 span, address signer) public view returns (bool) {\n    Validator[] memory vals = validators[span];\n    for (uint256 i = 0; i < vals.length; i++) {\n      if (vals[i].signer == signer) {\n        return true;\n      }\n    }\n    return false;\n  }\n\n  function isProducer(uint256 span, address signer) public view returns (bool) {\n    Validator[] memory vals = producers[span];\n    for (uint256 i = 0; i < vals.length; i++) {\n      if (vals[i].signer == signer) {\n        return true;\n      }\n    }\n    return false;\n  }\n\n  function isCurrentValidator(address signer) public view returns (bool) {\n    return isValidator(currentSpanNumber(), signer);\n  }\n\n  function isCurrentProducer(address signer) public view returns (bool) {\n    return isProducer(currentSpanNumber(), signer);\n  }\n\n  // get bor validator\n  function getBorValidators(uint256 number) public view returns (address[] memory, uint256[] memory) {\n    if (number <= FIRST_END_BLOCK) {\n      return getInitialValidators();\n    }\n\n    // span number by block\n    uint256 span = getSpanByBlock(number);\n\n    address[] memory addrs = new address[](producers[span].length);\n    uint256[] memory powers = new uint256[](producers[span].length);\n    for (uint256 i = 0; i < producers[span].length; i++) {\n      addrs[i] = producers[span][i].signer;\n      powers[i] = producers[span][i].power;\n    }\n\n    return (addrs, powers);\n  }\n\n  /// Get current validator set (last enacted or initial if no changes ever made) with current stake.\n  function getInitialValidators() public view returns (address[] memory, uint256[] memory) {\n    address[] memory addrs = new address[](1);\n    addrs[0] = 0x94F8A71Be3e7F216DccB5760BadF81CC4dF9f5Ff;\n    uint256[] memory powers = new uint256[](1);\n    powers[0] = 10000;\n    return (addrs, powers);\n  }\n\n  /// Get current validator set (last enacted or initial if no changes ever made) with current stake.\n  function getValidators() public view returns (address[] memory, uint256[] memory) {\n    return getBorValidators(block.number);\n  }\n\n  function commitSpan(\n    uint256 newSpan,\n    uint256 startBlock,\n    uint256 endBlock,\n    bytes calldata validatorBytes,\n    bytes calldata producerBytes\n  ) external onlySystem {\n    // current span\n    uint256 span = currentSpanNumber();\n    // set initial validators if current span is zero\n    if (span == 0) {\n      setInitialValidators();\n    }\n\n    // check conditions\n    require(newSpan == span.add(1), \"Invalid span id\");\n    require(endBlock > startBlock, \"End block must be greater than start block\");\n    require((endBlock - startBlock + 1) % SPRINT == 0, \"Difference between start and end block must be in multiples of sprint\");\n    require(spans[span].startBlock <= startBlock, \"Start block must be greater than current span\");\n\n    // check if already in the span\n    require(spans[newSpan].number == 0, \"Span already exists\");\n\n    // store span\n    spans[newSpan] = Span({\n      number: newSpan,\n      startBlock: startBlock,\n      endBlock: endBlock\n    });\n    spanNumbers.push(newSpan);\n    validators[newSpan].length = 0;\n    producers[newSpan].length = 0;\n\n    // set validators\n    RLPReader.RLPItem[] memory validatorItems = validatorBytes.toRlpItem().toList();\n    for (uint256 i = 0; i < validatorItems.length; i++) {\n      RLPReader.RLPItem[] memory v = validatorItems[i].toList();\n      validators[newSpan].length++;\n      validators[newSpan][i] = Validator({\n        id: v[0].toUint(),\n        power: v[1].toUint(),\n        signer: v[2].toAddress()\n      });\n    }\n\n    // set producers\n    RLPReader.RLPItem[] memory producerItems = producerBytes.toRlpItem().toList();\n    for (uint256 i = 0; i < producerItems.length; i++) {\n      RLPReader.RLPItem[] memory v = producerItems[i].toList();\n        producers[newSpan].length++;\n        producers[newSpan][i] = Validator({\n          id: v[0].toUint(),\n          power: v[1].toUint(),\n          signer: v[2].toAddress()\n        });\n    }\n  }\n\n  // Get stake power by sigs and data hash\n  function getStakePowerBySigs(uint256 span, bytes32 dataHash, bytes memory sigs) public view returns (uint256) {\n    uint256 stakePower = 0;\n    address lastAdd = address(0x0); // cannot have address(0x0) as an owner\n\n    for (uint64 i = 0; i < sigs.length; i += 65) {\n      bytes memory sigElement = BytesLib.slice(sigs, i, 65);\n      address signer = dataHash.ecrecovery(sigElement);\n\n      // check if signer is stacker and not proposer\n      Validator memory validator = getValidatorBySigner(span, signer);\n      if (isValidator(span, signer) && signer > lastAdd) {\n        lastAdd = signer;\n        stakePower = stakePower.add(validator.power);\n      }\n    }\n\n    return stakePower;\n  }\n\n  //\n  // Utility functions\n  //\n\n  function checkMembership(\n    bytes32 rootHash,\n    bytes32 leaf,\n    bytes memory proof\n  ) public pure returns (bool) {\n    bytes32 proofElement;\n    byte direction;\n    bytes32 computedHash = leaf;\n\n    uint256 len = (proof.length / 33) * 33;\n    if (len > 0) {\n      computedHash = leafNode(leaf);\n    }\n\n    for (uint256 i = 33; i <= len; i += 33) {\n      bytes32 tempBytes;\n      assembly {\n        // Get a location of some free memory and store it in tempBytes as\n        // Solidity does for memory variables.\n        tempBytes := mload(add(proof, sub(i, 1)))\n        proofElement := mload(add(proof, i))\n      }\n\n      direction = tempBytes[0];\n      if (direction == 0) {\n        computedHash = innerNode(proofElement, computedHash);\n      } else {\n        computedHash = innerNode(computedHash, proofElement);\n      }\n    }\n\n    return computedHash == rootHash;\n  }\n\n  function leafNode(bytes32 d) public pure returns (bytes32) {\n    return sha256(abi.encodePacked(byte(uint8(0)), d));\n  }\n\n  function innerNode(bytes32 left, bytes32 right) public pure returns (bytes32) {\n    return sha256(abi.encodePacked(byte(uint8(1)), left, right));\n  }\n}\n",
  "sourcePath": "/Users/ohm.jirapon/playground/blockhain/layer-2/plasma-ploygon/matic-cli/devnet/code/genesis-contracts/contracts/BorValidatorSet.sol",
  "compiler": {
    "name": "solc",
    "version": "0.5.11+commit.c082d0b4.Emscripten.clang"
  },
  "schemaVersion": "3.0.14",
  "updatedAt": "2022-08-16T05:17:47.569Z",
  "devdoc": {
    "methods": {}
  },
  "userdoc": {
    "methods": {
      "getInitialValidators()": {
        "notice": "Get current validator set (last enacted or initial if no changes ever made) with current stake."
      },
      "getValidators()": {
        "notice": "Get current validator set (last enacted or initial if no changes ever made) with current stake."
      }
    }
  }
}