{
  "contractName": "StateReceiver",
  "abi": [
    {
      "constant": true,
      "inputs": [],
      "name": "SYSTEM_ADDRESS",
      "outputs": [
        {
          "internalType": "address",
          "name": "",
          "type": "address"
        }
      ],
      "payable": false,
      "stateMutability": "view",
      "type": "function"
    },
    {
      "constant": true,
      "inputs": [],
      "name": "lastStateId",
      "outputs": [
        {
          "internalType": "uint256",
          "name": "",
          "type": "uint256"
        }
      ],
      "payable": false,
      "stateMutability": "view",
      "type": "function"
    },
    {
      "constant": false,
      "inputs": [
        {
          "internalType": "uint256",
          "name": "syncTime",
          "type": "uint256"
        },
        {
          "internalType": "bytes",
          "name": "recordBytes",
          "type": "bytes"
        }
      ],
      "name": "commitState",
      "outputs": [
        {
          "internalType": "bool",
          "name": "success",
          "type": "bool"
        }
      ],
      "payable": false,
      "stateMutability": "nonpayable",
      "type": "function"
    }
  ],
  "bytecode": "0x608060405234801561001057600080fd5b506109e2806100206000396000f3fe608060405234801561001057600080fd5b506004361061005e576000357c01000000000000000000000000000000000000000000000000000000009004806319494a17146100635780633434735f146100fe5780635407ca6714610148575b600080fd5b6100e46004803603604081101561007957600080fd5b8101908080359060200190929190803590602001906401000000008111156100a057600080fd5b8201836020820111156100b257600080fd5b803590602001918460018302840111640100000000831117156100d457600080fd5b9091929391929390505050610166565b604051808215151515815260200191505060405180910390f35b610106610497565b604051808273ffffffffffffffffffffffffffffffffffffffff1673ffffffffffffffffffffffffffffffffffffffff16815260200191505060405180910390f35b6101506104af565b6040518082815260200191505060405180910390f35b600073fffffffffffffffffffffffffffffffffffffffe73ffffffffffffffffffffffffffffffffffffffff163373ffffffffffffffffffffffffffffffffffffffff161461021d576040517f08c379a00000000000000000000000000000000000000000000000000000000081526004018080602001828103825260128152602001807f4e6f742053797374656d2041646465737321000000000000000000000000000081525060200191505060405180910390fd5b606061027461026f85858080601f016020809104026020016040519081016040528093929190818152602001838380828437600081840152601f19601f820116905080830192505050505050506104b5565b6104e3565b905060006102958260008151811061028857fe5b60200260200101516105c0565b90508060016000540114610311576040517f08c379a000000000000000000000000000000000000000000000000000000000815260040180806020018281038252601b8152602001807f537461746549647320617265206e6f742073657175656e7469616c000000000081525060200191505060405180910390fd5b600080815480929190600101919050555060006103418360018151811061033457fe5b602002602001015161061a565b905060606103628460028151811061035557fe5b602002602001015161063d565b905061036d826106b7565b1561048c576000624c4b409050606084836040516024018083815260200180602001828103825283818151815260200191508051906020019080838360005b838110156103c75780820151818401526020810190506103ac565b50505050905090810190601f1680156103f45780820380516001836020036101000a031916815260200191505b5093505050506040516020818303038152906040527f26c53bea000000000000000000000000000000000000000000000000000000007bffffffffffffffffffffffffffffffffffffffffffffffffffffffff19166020820180517bffffffffffffffffffffffffffffffffffffffffffffffffffffffff8381831617835250505050905060008082516020840160008887f1965050505b505050509392505050565b73fffffffffffffffffffffffffffffffffffffffe81565b60005481565b6104bd610979565b600060208301905060405180604001604052808451815260200182815250915050919050565b60606104ee826106d0565b6104f757600080fd5b60006105028361071e565b905060608160405190808252806020026020018201604052801561054057816020015b61052d610993565b8152602001906001900390816105255790505b5090506000610552856020015161078f565b8560200151019050600080600090505b848110156105b35761057383610818565b915060405180604001604052808381526020018481525084828151811061059657fe5b602002602001018190525081830192508080600101915050610562565b5082945050505050919050565b60008082600001511180156105da57506021826000015111155b6105e357600080fd5b6000806105ef846108d0565b91509150600082519050602082101561060f57816020036101000a810490505b809350505050919050565b6000601582600001511461062d57600080fd5b610636826105c0565b9050919050565b6060600082600001511161065057600080fd5b60008061065c846108d0565b915091506060816040519080825280601f01601f1916602001820160405280156106955781602001600182028038833980820191505090505b50905060008160200190506106ab848285610908565b81945050505050919050565b600080823b905060008163ffffffff1611915050919050565b600080826000015114156106e75760009050610719565b60008083602001519050805160001a915060c060ff168260ff16101561071257600092505050610719565b6001925050505b919050565b60008082600001511415610735576000905061078a565b60008090506000610749846020015161078f565b84602001510190506000846000015185602001510190505b808210156107835761077282610818565b820191508280600101935050610761565b8293505050505b919050565b600080825160001a9050608060ff168110156107af576000915050610813565b60b860ff168110806107d4575060c060ff1681101580156107d3575060f860ff1681105b5b156107e3576001915050610813565b60c060ff168110156108035760018060b80360ff16820301915050610813565b60018060f80360ff168203019150505b919050565b6000806000835160001a9050608060ff1681101561083957600191506108c6565b60b860ff16811015610856576001608060ff1682030191506108c5565b60c060ff168110156108865760b78103600185019450806020036101000a855104600182018101935050506108c4565b60f860ff168110156108a357600160c060ff1682030191506108c3565b60f78103600185019450806020036101000a855104600182018101935050505b5b5b5b8192505050919050565b60008060006108e2846020015161078f565b905060008185602001510190506000828660000151039050818194509450505050915091565b600081141561091657610974565b5b602060ff1681106109465782518252602060ff1683019250602060ff1682019150602060ff1681039050610917565b6000811115610973576000600182602060ff16036101000a03905080198451168184511681811785525050505b5b505050565b604051806040016040528060008152602001600081525090565b60405180604001604052806000815260200160008152509056fea265627a7a72315820fde409f1e7744c5f93f78944c6ab593e4c659a8cb518cfca4a05f22e9b704ef564736f6c634300050b0032",
  "source": "pragma solidity ^0.5.11;\n\nimport { RLPReader } from \"solidity-rlp/contracts/RLPReader.sol\";\n\nimport { System } from \"./System.sol\";\nimport { IStateReceiver } from \"./IStateReceiver.sol\";\n\ncontract StateReceiver is System {\n  using RLPReader for bytes;\n  using RLPReader for RLPReader.RLPItem;\n\n  uint256 public lastStateId;\n\n  function commitState(uint256 syncTime, bytes calldata recordBytes) onlySystem external returns(bool success) {\n    // parse state data\n    RLPReader.RLPItem[] memory dataList = recordBytes.toRlpItem().toList();\n    uint256 stateId = dataList[0].toUint();\n    require(\n      lastStateId + 1 == stateId,\n      \"StateIds are not sequential\"\n    );\n    lastStateId++;\n\n    address receiver = dataList[1].toAddress();\n    bytes memory stateData = dataList[2].toBytes();\n    // notify state receiver contract, in a non-revert manner\n    if (isContract(receiver)) {\n      uint256 txGas = 5000000;\n      bytes memory data = abi.encodeWithSignature(\"onStateReceive(uint256,bytes)\", stateId, stateData);\n      // solium-disable-next-line security/no-inline-assembly\n      assembly {\n        success := call(txGas, receiver, 0, add(data, 0x20), mload(data), 0, 0)\n      }\n    }\n  }\n\n  // check if address is contract\n  function isContract(address _addr) private view returns (bool){\n    uint32 size;\n    assembly {\n      size := extcodesize(_addr)\n    }\n    return (size > 0);\n  }\n}\n",
  "sourcePath": "/Users/ohm.jirapon/playground/blockhain/pos/plasma-ploygon/genesis-contracts/contracts/StateReceiver.sol",
  "compiler": {
    "name": "solc",
    "version": "0.5.11+commit.c082d0b4.Emscripten.clang"
  },
  "schemaVersion": "3.4.7",
  "updatedAt": "2022-06-13T05:23:23.963Z",
  "devdoc": {
    "methods": {}
  },
  "userdoc": {
    "methods": {}
  }
}