{
  "contractName": "System",
  "abi": [
    {
      "constant": true,
      "inputs": [],
      "name": "SYSTEM_ADDRESS",
      "outputs": [
        {
          "internalType": "address",
          "name": "",
          "type": "address"
        }
      ],
      "payable": false,
      "stateMutability": "view",
      "type": "function"
    }
  ],
  "bytecode": "0x608060405234801561001057600080fd5b5060df8061001f6000396000f3fe6080604052348015600f57600080fd5b50600436106045576000357c0100000000000000000000000000000000000000000000000000000000900480633434735f14604a575b600080fd5b60506092565b604051808273ffffffffffffffffffffffffffffffffffffffff1673ffffffffffffffffffffffffffffffffffffffff16815260200191505060405180910390f35b73fffffffffffffffffffffffffffffffffffffffe8156fea265627a7a72315820fcfc17fcd3c4bb05d2d7055b66f04c6f5c49779cc479d5c5a83e57a0763ec2ee64736f6c634300050b0032",
  "source": "pragma solidity ^0.5.11;\n\ncontract System {\n  address public constant SYSTEM_ADDRESS = 0xffffFFFfFFffffffffffffffFfFFFfffFFFfFFfE;\n\n  modifier onlySystem() {\n    require(msg.sender == SYSTEM_ADDRESS, \"Not System Addess!\");\n    _;\n  }\n}\n",
  "sourcePath": "/Users/ohm.jirapon/playground/blockhain/layer-2/plasma-ploygon/matic-cli/devnet/code/genesis-contracts/contracts/System.sol",
  "compiler": {
    "name": "solc",
    "version": "0.5.11+commit.c082d0b4.Emscripten.clang"
  },
  "schemaVersion": "3.0.14",
  "updatedAt": "2022-08-16T05:17:47.587Z",
  "devdoc": {
    "methods": {}
  },
  "userdoc": {
    "methods": {}
  }
}