{
  "contractName": "TestStateReceiver",
  "abi": [
    {
      "constant": false,
      "inputs": [
        {
          "internalType": "address",
          "name": "_system",
          "type": "address"
        }
      ],
      "name": "setSystemAddress",
      "outputs": [],
      "payable": false,
      "stateMutability": "nonpayable",
      "type": "function"
    },
    {
      "constant": false,
      "inputs": [
        {
          "internalType": "uint256",
          "name": "syncTime",
          "type": "uint256"
        },
        {
          "internalType": "bytes",
          "name": "recordBytes",
          "type": "bytes"
        }
      ],
      "name": "commitState",
      "outputs": [
        {
          "internalType": "bool",
          "name": "success",
          "type": "bool"
        }
      ],
      "payable": false,
      "stateMutability": "nonpayable",
      "type": "function"
    },
    {
      "constant": true,
      "inputs": [],
      "name": "SYSTEM_ADDRESS",
      "outputs": [
        {
          "internalType": "address",
          "name": "",
          "type": "address"
        }
      ],
      "payable": false,
      "stateMutability": "view",
      "type": "function"
    },
    {
      "constant": true,
      "inputs": [],
      "name": "lastStateId",
      "outputs": [
        {
          "internalType": "uint256",
          "name": "",
          "type": "uint256"
        }
      ],
      "payable": false,
      "stateMutability": "view",
      "type": "function"
    },
    {
      "constant": true,
      "inputs": [],
      "name": "dummySystem",
      "outputs": [
        {
          "internalType": "address",
          "name": "",
          "type": "address"
        }
      ],
      "payable": false,
      "stateMutability": "view",
      "type": "function"
    }
  ],
  "bytecode": "0x608060405234801561001057600080fd5b50610cba806100206000396000f3fe608060405234801561001057600080fd5b5060043610610074576000357c010000000000000000000000000000000000000000000000000000000090048063062101971461007957806319494a17146100955780633434735f146100c55780635407ca67146100e3578063d029191714610101575b600080fd5b610093600480360361008e9190810190610968565b61011f565b005b6100af60048036036100aa9190810190610991565b610163565b6040516100bc9190610aea565b60405180910390f35b6100cd6103d1565b6040516100da9190610acf565b60405180910390f35b6100eb6103e9565b6040516100f89190610b45565b60405180910390f35b6101096103ef565b6040516101169190610acf565b60405180910390f35b80600160006101000a81548173ffffffffffffffffffffffffffffffffffffffff021916908373ffffffffffffffffffffffffffffffffffffffff16021790555050565b6000600160009054906101000a900473ffffffffffffffffffffffffffffffffffffffff1673ffffffffffffffffffffffffffffffffffffffff163373ffffffffffffffffffffffffffffffffffffffff16146101f5576040517f08c379a00000000000000000000000000000000000000000000000000000000081526004016101ec90610b25565b60405180910390fd5b606061024c61024785858080601f016020809104026020016040519081016040528093929190818152602001838380828437600081840152601f19601f82011690508083019250505050505050610415565b610443565b9050600061026d8260008151811061026057fe5b6020026020010151610520565b905080600160005401146102b6576040517f08c379a00000000000000000000000000000000000000000000000000000000081526004016102ad90610b05565b60405180910390fd5b600080815480929190600101919050555060006102e6836001815181106102d957fe5b6020026020010151610591565b90506060610307846002815181106102fa57fe5b60200260200101516105b4565b905061031282610640565b156103c6576000624c4b40905060608483604051602401610334929190610b60565b6040516020818303038152906040527f26c53bea000000000000000000000000000000000000000000000000000000007bffffffffffffffffffffffffffffffffffffffffffffffffffffffff19166020820180517bffffffffffffffffffffffffffffffffffffffffffffffffffffffff8381831617835250505050905060008082516020840160008887f1965050505b505050509392505050565b73fffffffffffffffffffffffffffffffffffffffe81565b60005481565b600160009054906101000a900473ffffffffffffffffffffffffffffffffffffffff1681565b61041d6108c0565b600060208301905060405180604001604052808451815260200182815250915050919050565b606061044e82610659565b61045757600080fd5b6000610462836106a7565b90506060816040519080825280602002602001820160405280156104a057816020015b61048d6108da565b8152602001906001900390816104855790505b50905060006104b28560200151610718565b8560200151019050600080600090505b84811015610513576104d3836107a1565b91506040518060400160405280838152602001848152508482815181106104f657fe5b6020026020010181905250818301925080806001019150506104c2565b5082945050505050919050565b600080826000015111801561053a57506021826000015111155b61054357600080fd5b60006105528360200151610718565b9050600081846000015103905060008083866020015101905080519150602083101561058557826020036101000a820491505b81945050505050919050565b600060158260000151146105a457600080fd5b6105ad82610520565b9050919050565b606060008260000151116105c757600080fd5b60006105d68360200151610718565b905060008184600001510390506060816040519080825280601f01601f1916602001820160405280156106185781602001600182028038833980820191505090505b5090506000816020019050610634848760200151018285610859565b81945050505050919050565b600080823b905060008163ffffffff1611915050919050565b6000808260000151141561067057600090506106a2565b60008083602001519050805160001a915060c060ff168260ff16101561069b576000925050506106a2565b6001925050505b919050565b600080826000015114156106be5760009050610713565b600080905060006106d28460200151610718565b84602001510190506000846000015185602001510190505b8082101561070c576106fb826107a1565b8201915082806001019350506106ea565b8293505050505b919050565b600080825160001a9050608060ff1681101561073857600091505061079c565b60b860ff1681108061075d575060c060ff16811015801561075c575060f860ff1681105b5b1561076c57600191505061079c565b60c060ff1681101561078c5760018060b80360ff1682030191505061079c565b60018060f80360ff168203019150505b919050565b6000806000835160001a9050608060ff168110156107c2576001915061084f565b60b860ff168110156107df576001608060ff16820301915061084e565b60c060ff1681101561080f5760b78103600185019450806020036101000a8551046001820181019350505061084d565b60f860ff1681101561082c57600160c060ff16820301915061084c565b60f78103600185019450806020036101000a855104600182018101935050505b5b5b5b8192505050919050565b6000811415610867576108bb565b5b602060ff1681106108975782518252602060ff1683019250602060ff1682019150602060ff1681039050610868565b6000600182602060ff16036101000a03905080198451168184511681811785525050505b505050565b604051806040016040528060008152602001600081525090565b604051806040016040528060008152602001600081525090565b60008135905061090381610c49565b92915050565b60008083601f84011261091b57600080fd5b8235905067ffffffffffffffff81111561093457600080fd5b60208301915083600182028301111561094c57600080fd5b9250929050565b60008135905061096281610c60565b92915050565b60006020828403121561097a57600080fd5b6000610988848285016108f4565b91505092915050565b6000806000604084860312156109a657600080fd5b60006109b486828701610953565b935050602084013567ffffffffffffffff8111156109d157600080fd5b6109dd86828701610909565b92509250509250925092565b6109f281610bbd565b82525050565b610a0181610bcf565b82525050565b6000610a1282610b90565b610a1c8185610b9b565b9350610a2c818560208601610c05565b610a3581610c38565b840191505092915050565b6000610a4d601b83610bac565b91507f537461746549647320617265206e6f742073657175656e7469616c00000000006000830152602082019050919050565b6000610a8d601283610bac565b91507f4e6f742053797374656d204164646573732100000000000000000000000000006000830152602082019050919050565b610ac981610bfb565b82525050565b6000602082019050610ae460008301846109e9565b92915050565b6000602082019050610aff60008301846109f8565b92915050565b60006020820190508181036000830152610b1e81610a40565b9050919050565b60006020820190508181036000830152610b3e81610a80565b9050919050565b6000602082019050610b5a6000830184610ac0565b92915050565b6000604082019050610b756000830185610ac0565b8181036020830152610b878184610a07565b90509392505050565b600081519050919050565b600082825260208201905092915050565b600082825260208201905092915050565b6000610bc882610bdb565b9050919050565b60008115159050919050565b600073ffffffffffffffffffffffffffffffffffffffff82169050919050565b6000819050919050565b60005b83811015610c23578082015181840152602081019050610c08565b83811115610c32576000848401525b50505050565b6000601f19601f8301169050919050565b610c5281610bbd565b8114610c5d57600080fd5b50565b610c6981610bfb565b8114610c7457600080fd5b5056fea365627a7a72315820db6e3ea4d26550f866824dd600d4a02b5f128560dbc2aaa184a9c60bf5f21d726c6578706572696d656e74616cf564736f6c634300050b0040",
  "source": "pragma solidity ^0.5.11;\npragma experimental ABIEncoderV2;\n\nimport {StateReceiver} from \"../StateReceiver.sol\";\nimport {TestSystem} from \"./TestSystem.sol\";\n\ncontract TestStateReceiver is StateReceiver, TestSystem {}\n",
  "sourcePath": "/root/matic-cli/devnet/code/genesis-contracts/contracts/test/TestStateReceiver.sol",
  "compiler": {
    "name": "solc",
    "version": "0.5.11+commit.c082d0b4.Emscripten.clang"
  },
  "schemaVersion": "3.0.14",
  "updatedAt": "2022-07-11T06:06:04.788Z",
  "devdoc": {
    "methods": {}
  },
  "userdoc": {
    "methods": {}
  }
}