{
  "contractName": "TestBorValidatorSet",
  "abi": [
    {
      "constant": true,
      "inputs": [
        {
          "internalType": "uint256",
          "name": "span",
          "type": "uint256"
        }
      ],
      "name": "getSpan",
      "outputs": [
        {
          "internalType": "uint256",
          "name": "number",
          "type": "uint256"
        },
        {
          "internalType": "uint256",
          "name": "startBlock",
          "type": "uint256"
        },
        {
          "internalType": "uint256",
          "name": "endBlock",
          "type": "uint256"
        }
      ],
      "payable": false,
      "stateMutability": "view",
      "type": "function"
    },
    {
      "constant": false,
      "inputs": [
        {
          "internalType": "address",
          "name": "_system",
          "type": "address"
        }
      ],
      "name": "setSystemAddress",
      "outputs": [],
      "payable": false,
      "stateMutability": "nonpayable",
      "type": "function"
    },
    {
      "constant": true,
      "inputs": [
        {
          "internalType": "uint256",
          "name": "number",
          "type": "uint256"
        }
      ],
      "name": "getBorValidators",
      "outputs": [
        {
          "internalType": "address[]",
          "name": "",
          "type": "address[]"
        },
        {
          "internalType": "uint256[]",
          "name": "",
          "type": "uint256[]"
        }
      ],
      "payable": false,
      "stateMutability": "view",
      "type": "function"
    },
    {
      "constant": true,
      "inputs": [
        {
          "internalType": "uint256",
          "name": "span",
          "type": "uint256"
        },
        {
          "internalType": "address",
          "name": "signer",
          "type": "address"
        }
      ],
      "name": "isProducer",
      "outputs": [
        {
          "internalType": "bool",
          "name": "",
          "type": "bool"
        }
      ],
      "payable": false,
      "stateMutability": "view",
      "type": "function"
    },
    {
      "constant": false,
      "inputs": [
        {
          "internalType": "uint256",
          "name": "newSpan",
          "type": "uint256"
        },
        {
          "internalType": "uint256",
          "name": "startBlock",
          "type": "uint256"
        },
        {
          "internalType": "uint256",
          "name": "endBlock",
          "type": "uint256"
        },
        {
          "internalType": "bytes",
          "name": "validatorBytes",
          "type": "bytes"
        },
        {
          "internalType": "bytes",
          "name": "producerBytes",
          "type": "bytes"
        }
      ],
      "name": "commitSpan",
      "outputs": [],
      "payable": false,
      "stateMutability": "nonpayable",
      "type": "function"
    },
    {
      "constant": true,
      "inputs": [
        {
          "internalType": "uint256",
          "name": "span",
          "type": "uint256"
        },
        {
          "internalType": "address",
          "name": "signer",
          "type": "address"
        }
      ],
      "name": "isValidator",
      "outputs": [
        {
          "internalType": "bool",
          "name": "",
          "type": "bool"
        }
      ],
      "payable": false,
      "stateMutability": "view",
      "type": "function"
    },
    {
      "constant": true,
      "inputs": [],
      "name": "SPRINT",
      "outputs": [
        {
          "internalType": "uint256",
          "name": "",
          "type": "uint256"
        }
      ],
      "payable": false,
      "stateMutability": "view",
      "type": "function"
    },
    {
      "constant": true,
      "inputs": [
        {
          "internalType": "bytes32",
          "name": "left",
          "type": "bytes32"
        },
        {
          "internalType": "bytes32",
          "name": "right",
          "type": "bytes32"
        }
      ],
      "name": "innerNode",
      "outputs": [
        {
          "internalType": "bytes32",
          "name": "",
          "type": "bytes32"
        }
      ],
      "payable": false,
      "stateMutability": "pure",
      "type": "function"
    },
    {
      "constant": true,
      "inputs": [
        {
          "internalType": "uint256",
          "name": "span",
          "type": "uint256"
        }
      ],
      "name": "getValidatorsTotalStakeBySpan",
      "outputs": [
        {
          "internalType": "uint256",
          "name": "",
          "type": "uint256"
        }
      ],
      "payable": false,
      "stateMutability": "view",
      "type": "function"
    },
    {
      "constant": true,
      "inputs": [],
      "name": "SYSTEM_ADDRESS",
      "outputs": [
        {
          "internalType": "address",
          "name": "",
          "type": "address"
        }
      ],
      "payable": false,
      "stateMutability": "view",
      "type": "function"
    },
    {
      "constant": true,
      "inputs": [
        {
          "internalType": "bytes32",
          "name": "rootHash",
          "type": "bytes32"
        },
        {
          "internalType": "bytes32",
          "name": "leaf",
          "type": "bytes32"
        },
        {
          "internalType": "bytes",
          "name": "proof",
          "type": "bytes"
        }
      ],
      "name": "checkMembership",
      "outputs": [
        {
          "internalType": "bool",
          "name": "",
          "type": "bool"
        }
      ],
      "payable": false,
      "stateMutability": "pure",
      "type": "function"
    },
    {
      "constant": true,
      "inputs": [],
      "name": "CHAIN",
      "outputs": [
        {
          "internalType": "bytes32",
          "name": "",
          "type": "bytes32"
        }
      ],
      "payable": false,
      "stateMutability": "view",
      "type": "function"
    },
    {
      "constant": true,
      "inputs": [
        {
          "internalType": "uint256",
          "name": "span",
          "type": "uint256"
        },
        {
          "internalType": "bytes32",
          "name": "dataHash",
          "type": "bytes32"
        },
        {
          "internalType": "bytes",
          "name": "sigs",
          "type": "bytes"
        }
      ],
      "name": "getStakePowerBySigs",
      "outputs": [
        {
          "internalType": "uint256",
          "name": "",
          "type": "uint256"
        }
      ],
      "payable": false,
      "stateMutability": "view",
      "type": "function"
    },
    {
      "constant": true,
      "inputs": [
        {
          "internalType": "uint256",
          "name": "span",
          "type": "uint256"
        },
        {
          "internalType": "address",
          "name": "signer",
          "type": "address"
        }
      ],
      "name": "getValidatorBySigner",
      "outputs": [
        {
          "components": [
            {
              "internalType": "uint256",
              "name": "id",
              "type": "uint256"
            },
            {
              "internalType": "uint256",
              "name": "power",
              "type": "uint256"
            },
            {
              "internalType": "address",
              "name": "signer",
              "type": "address"
            }
          ],
          "internalType": "struct BorValidatorSet.Validator",
          "name": "result",
          "type": "tuple"
        }
      ],
      "payable": false,
      "stateMutability": "view",
      "type": "function"
    },
    {
      "constant": true,
      "inputs": [],
      "name": "currentSpanNumber",
      "outputs": [
        {
          "internalType": "uint256",
          "name": "",
          "type": "uint256"
        }
      ],
      "payable": false,
      "stateMutability": "view",
      "type": "function"
    },
    {
      "constant": true,
      "inputs": [
        {
          "internalType": "address",
          "name": "signer",
          "type": "address"
        }
      ],
      "name": "isCurrentValidator",
      "outputs": [
        {
          "internalType": "bool",
          "name": "",
          "type": "bool"
        }
      ],
      "payable": false,
      "stateMutability": "view",
      "type": "function"
    },
    {
      "constant": true,
      "inputs": [
        {
          "internalType": "bytes32",
          "name": "d",
          "type": "bytes32"
        }
      ],
      "name": "leafNode",
      "outputs": [
        {
          "internalType": "bytes32",
          "name": "",
          "type": "bytes32"
        }
      ],
      "payable": false,
      "stateMutability": "pure",
      "type": "function"
    },
    {
      "constant": true,
      "inputs": [],
      "name": "getNextSpan",
      "outputs": [
        {
          "internalType": "uint256",
          "name": "number",
          "type": "uint256"
        },
        {
          "internalType": "uint256",
          "name": "startBlock",
          "type": "uint256"
        },
        {
          "internalType": "uint256",
          "name": "endBlock",
          "type": "uint256"
        }
      ],
      "payable": false,
      "stateMutability": "view",
      "type": "function"
    },
    {
      "constant": true,
      "inputs": [],
      "name": "getInitialValidators",
      "outputs": [
        {
          "internalType": "address[]",
          "name": "",
          "type": "address[]"
        },
        {
          "internalType": "uint256[]",
          "name": "",
          "type": "uint256[]"
        }
      ],
      "payable": false,
      "stateMutability": "view",
      "type": "function"
    },
    {
      "constant": true,
      "inputs": [],
      "name": "FIRST_END_BLOCK",
      "outputs": [
        {
          "internalType": "uint256",
          "name": "",
          "type": "uint256"
        }
      ],
      "payable": false,
      "stateMutability": "view",
      "type": "function"
    },
    {
      "constant": true,
      "inputs": [
        {
          "internalType": "uint256",
          "name": "",
          "type": "uint256"
        },
        {
          "internalType": "uint256",
          "name": "",
          "type": "uint256"
        }
      ],
      "name": "producers",
      "outputs": [
        {
          "internalType": "uint256",
          "name": "id",
          "type": "uint256"
        },
        {
          "internalType": "uint256",
          "name": "power",
          "type": "uint256"
        },
        {
          "internalType": "address",
          "name": "signer",
          "type": "address"
        }
      ],
      "payable": false,
      "stateMutability": "view",
      "type": "function"
    },
    {
      "constant": true,
      "inputs": [
        {
          "internalType": "address",
          "name": "signer",
          "type": "address"
        }
      ],
      "name": "isCurrentProducer",
      "outputs": [
        {
          "internalType": "bool",
          "name": "",
          "type": "bool"
        }
      ],
      "payable": false,
      "stateMutability": "view",
      "type": "function"
    },
    {
      "constant": true,
      "inputs": [],
      "name": "ROUND_TYPE",
      "outputs": [
        {
          "internalType": "bytes32",
          "name": "",
          "type": "bytes32"
        }
      ],
      "payable": false,
      "stateMutability": "view",
      "type": "function"
    },
    {
      "constant": true,
      "inputs": [
        {
          "internalType": "uint256",
          "name": "span",
          "type": "uint256"
        }
      ],
      "name": "getProducersTotalStakeBySpan",
      "outputs": [
        {
          "internalType": "uint256",
          "name": "",
          "type": "uint256"
        }
      ],
      "payable": false,
      "stateMutability": "view",
      "type": "function"
    },
    {
      "constant": true,
      "inputs": [],
      "name": "BOR_ID",
      "outputs": [
        {
          "internalType": "bytes32",
          "name": "",
          "type": "bytes32"
        }
      ],
      "payable": false,
      "stateMutability": "view",
      "type": "function"
    },
    {
      "constant": true,
      "inputs": [],
      "name": "getCurrentSpan",
      "outputs": [
        {
          "internalType": "uint256",
          "name": "number",
          "type": "uint256"
        },
        {
          "internalType": "uint256",
          "name": "startBlock",
          "type": "uint256"
        },
        {
          "internalType": "uint256",
          "name": "endBlock",
          "type": "uint256"
        }
      ],
      "payable": false,
      "stateMutability": "view",
      "type": "function"
    },
    {
      "constant": true,
      "inputs": [
        {
          "internalType": "uint256",
          "name": "number",
          "type": "uint256"
        }
      ],
      "name": "getSpanByBlock",
      "outputs": [
        {
          "internalType": "uint256",
          "name": "",
          "type": "uint256"
        }
      ],
      "payable": false,
      "stateMutability": "view",
      "type": "function"
    },
    {
      "constant": true,
      "inputs": [],
      "name": "getValidators",
      "outputs": [
        {
          "internalType": "address[]",
          "name": "",
          "type": "address[]"
        },
        {
          "internalType": "uint256[]",
          "name": "",
          "type": "uint256[]"
        }
      ],
      "payable": false,
      "stateMutability": "view",
      "type": "function"
    },
    {
      "constant": true,
      "inputs": [
        {
          "internalType": "uint256",
          "name": "",
          "type": "uint256"
        }
      ],
      "name": "spanNumbers",
      "outputs": [
        {
          "internalType": "uint256",
          "name": "",
          "type": "uint256"
        }
      ],
      "payable": false,
      "stateMutability": "view",
      "type": "function"
    },
    {
      "constant": true,
      "inputs": [],
      "name": "dummySystem",
      "outputs": [
        {
          "internalType": "address",
          "name": "",
          "type": "address"
        }
      ],
      "payable": false,
      "stateMutability": "view",
      "type": "function"
    },
    {
      "constant": true,
      "inputs": [],
      "name": "VOTE_TYPE",
      "outputs": [
        {
          "internalType": "uint8",
          "name": "",
          "type": "uint8"
        }
      ],
      "payable": false,
      "stateMutability": "view",
      "type": "function"
    },
    {
      "constant": true,
      "inputs": [
        {
          "internalType": "uint256",
          "name": "",
          "type": "uint256"
        },
        {
          "internalType": "uint256",
          "name": "",
          "type": "uint256"
        }
      ],
      "name": "validators",
      "outputs": [
        {
          "internalType": "uint256",
          "name": "id",
          "type": "uint256"
        },
        {
          "internalType": "uint256",
          "name": "power",
          "type": "uint256"
        },
        {
          "internalType": "address",
          "name": "signer",
          "type": "address"
        }
      ],
      "payable": false,
      "stateMutability": "view",
      "type": "function"
    },
    {
      "constant": true,
      "inputs": [],
      "name": "currentSprint",
      "outputs": [
        {
          "internalType": "uint256",
          "name": "",
          "type": "uint256"
        }
      ],
      "payable": false,
      "stateMutability": "view",
      "type": "function"
    },
    {
      "constant": true,
      "inputs": [
        {
          "internalType": "uint256",
          "name": "",
          "type": "uint256"
        }
      ],
      "name": "spans",
      "outputs": [
        {
          "internalType": "uint256",
          "name": "number",
          "type": "uint256"
        },
        {
          "internalType": "uint256",
          "name": "startBlock",
          "type": "uint256"
        },
        {
          "internalType": "uint256",
          "name": "endBlock",
          "type": "uint256"
        }
      ],
      "payable": false,
      "stateMutability": "view",
      "type": "function"
    },
    {
      "anonymous": false,
      "inputs": [
        {
          "indexed": true,
          "internalType": "uint256",
          "name": "id",
          "type": "uint256"
        },
        {
          "indexed": true,
          "internalType": "uint256",
          "name": "startBlock",
          "type": "uint256"
        },
        {
          "indexed": true,
          "internalType": "uint256",
          "name": "endBlock",
          "type": "uint256"
        }
      ],
      "name": "NewSpan",
      "type": "event"
    }
  ],
  "bytecode": "0x60806040526136bc806100136000396000f3fe608060405234801561001057600080fd5b5060043610610223576000357c01000000000000000000000000000000000000000000000000000000009004806360c8614d11610137578063af26aa96116100ca578063d029191711610099578063d0291917146106b5578063d5b844eb146106d3578063dcf2793a146106f1578063e3b7c92414610723578063f59cf5651461074157610223565b8063af26aa9614610616578063b71d7a6914610636578063b7ab4db514610666578063c1b3c9191461068557610223565b806370ba57071161010657806370ba57071461057a57806398ab2b62146105aa5780639d11b807146105c8578063ae756451146105f857610223565b806360c8614d146104eb57806365b3a1e21461050b578063663323541461052a578063687a9bd61461054857610223565b80632eddf352116101ba57806344c15cb11161018957806344c15cb11461040d57806344d6528f1461043d5780634dbc959f1461046d57806355614fcc1461048b578063582a8d08146104bb57610223565b80632eddf352146103715780633434735f146103a157806335ddfeea146103bf57806343ee8213146103ef57610223565b806323c2a2b4116101f657806323c2a2b4146102d757806323f2a73f146102f35780632bc06564146103235780632de3a1801461034157610223565b8063047a6c5b14610228578063062101971461025a5780630c35b1cb146102765780631270b574146102a7575b600080fd5b610242600480360361023d9190810190612ac5565b610773565b60405161025193929190613404565b60405180910390f35b610274600480360361026f91908101906129a7565b6107ca565b005b610290600480360361028b9190810190612ac5565b61080e565b60405161029e929190613225565b60405180910390f35b6102c160048036036102bc9190810190612aee565b6109ea565b6040516102ce919061325c565b60405180910390f35b6102f160048036036102ec9190810190612bcd565b610b42565b005b61030d60048036036103089190810190612aee565b6111e9565b60405161031a919061325c565b60405180910390f35b61032b611340565b60405161033891906133b2565b60405180910390f35b61035b60048036036103569190810190612a22565b611345565b6040516103689190613277565b60405180910390f35b61038b60048036036103869190810190612ac5565b6113e5565b60405161039891906133b2565b60405180910390f35b6103a9611515565b6040516103b6919061320a565b60405180910390f35b6103d960048036036103d49190810190612a5e565b61152d565b6040516103e6919061325c565b60405180910390f35b6103f7611636565b6040516104049190613277565b60405180910390f35b61042760048036036104229190810190612b2a565b61164d565b60405161043491906133b2565b60405180910390f35b61045760048036036104529190810190612aee565b611735565b6040516104649190613397565b60405180910390f35b61047561189d565b60405161048291906133b2565b60405180910390f35b6104a560048036036104a091908101906129a7565b6118ad565b6040516104b2919061325c565b60405180910390f35b6104d560048036036104d091908101906129d0565b6118c7565b6040516104e29190613277565b60405180910390f35b6104f3611964565b60405161050293929190613404565b60405180910390f35b6105136119d8565b604051610521929190613225565b60405180910390f35b610532611ac8565b60405161053f91906133b2565b60405180910390f35b610562600480360361055d9190810190612b91565b611acd565b604051610571939291906133cd565b60405180910390f35b610594600480360361058f91908101906129a7565b611b31565b6040516105a1919061325c565b60405180910390f35b6105b2611b4b565b6040516105bf9190613277565b60405180910390f35b6105e260048036036105dd9190810190612ac5565b611b62565b6040516105ef91906133b2565b60405180910390f35b610600611c93565b60405161060d9190613277565b60405180910390f35b61061e611caa565b60405161062d93929190613404565b60405180910390f35b610650600480360361064b9190810190612ac5565b611d0b565b60405161065d91906133b2565b60405180910390f35b61066e611e0b565b60405161067c929190613225565b60405180910390f35b61069f600480360361069a9190810190612ac5565b611e1f565b6040516106ac91906133b2565b60405180910390f35b6106bd611e40565b6040516106ca919061320a565b60405180910390f35b6106db611e66565b6040516106e8919061343b565b60405180910390f35b61070b60048036036107069190810190612b91565b611e6b565b60405161071a939291906133cd565b60405180910390f35b61072b611ecf565b60405161073891906133b2565b60405180910390f35b61075b60048036036107569190810190612ac5565b611ee1565b60405161076a93929190613404565b60405180910390f35b60008060006002600085815260200190815260200160002060000154600260008681526020019081526020016000206001015460026000878152602001908152602001600020600201549250925092509193909250565b80600460006101000a81548173ffffffffffffffffffffffffffffffffffffffff021916908373ffffffffffffffffffffffffffffffffffffffff16021790555050565b60608060ff831161082a576108216119d8565b915091506109e5565b600061083584611d0b565b90506060600160008381526020019081526020016000208054905060405190808252806020026020018201604052801561087e5781602001602082028038833980820191505090505b509050606060016000848152602001908152602001600020805490506040519080825280602002602001820160405280156108c85781602001602082028038833980820191505090505b50905060008090505b60016000858152602001908152602001600020805490508110156109da5760016000858152602001908152602001600020818154811061090d57fe5b906000526020600020906003020160020160009054906101000a900473ffffffffffffffffffffffffffffffffffffffff1683828151811061094b57fe5b602002602001019073ffffffffffffffffffffffffffffffffffffffff16908173ffffffffffffffffffffffffffffffffffffffff16815250506001600085815260200190815260200160002081815481106109a357fe5b9060005260206000209060030201600101548282815181106109c157fe5b60200260200101818152505080806001019150506108d1565b508181945094505050505b915091565b6000606060016000858152602001908152602001600020805480602002602001604051908101604052809291908181526020016000905b82821015610abd578382906000526020600020906003020160405180606001604052908160008201548152602001600182015481526020016002820160009054906101000a900473ffffffffffffffffffffffffffffffffffffffff1673ffffffffffffffffffffffffffffffffffffffff1673ffffffffffffffffffffffffffffffffffffffff168152505081526020019060010190610a21565b50505050905060008090505b8151811015610b35578373ffffffffffffffffffffffffffffffffffffffff16828281518110610af557fe5b60200260200101516040015173ffffffffffffffffffffffffffffffffffffffff161415610b2857600192505050610b3c565b8080600101915050610ac9565b5060009150505b92915050565b600460009054906101000a900473ffffffffffffffffffffffffffffffffffffffff1673ffffffffffffffffffffffffffffffffffffffff163373ffffffffffffffffffffffffffffffffffffffff1614610bd2576040517f08c379a0000000000000000000000000000000000000000000000000000000008152600401610bc990613377565b60405180910390fd5b6000610bdc61189d565b90506000811415610bf057610bef611f0b565b5b610c0460018261222c90919063ffffffff16565b8814610c45576040517f08c379a0000000000000000000000000000000000000000000000000000000008152600401610c3c906132f7565b60405180910390fd5b868611610c87576040517f08c379a0000000000000000000000000000000000000000000000000000000008152600401610c7e90613357565b60405180910390fd5b6000604060018989030181610c9857fe5b0614610cd9576040517f08c379a0000000000000000000000000000000000000000000000000000000008152600401610cd090613337565b60405180910390fd5b8660026000838152602001908152602001600020600101541115610d32576040517f08c379a0000000000000000000000000000000000000000000000000000000008152600401610d29906132d7565b60405180910390fd5b6000600260008a81526020019081526020016000206000015414610d8b576040517f08c379a0000000000000000000000000000000000000000000000000000000008152600401610d8290613317565b60405180910390fd5b604051806060016040528089815260200188815260200187815250600260008a8152602001908152602001600020600082015181600001556020820151816001015560408201518160020155905050600388908060018154018082558091505090600182039060005260206000200160009091929091909150555060008060008a815260200190815260200160002081610e2591906127a1565b506000600160008a815260200190815260200160002081610e4691906127a1565b506060610e9e610e9987878080601f016020809104026020016040519081016040528093929190818152602001838380828437600081840152601f19601f8201169050808301925050505050505061224b565b612279565b905060008090505b8151811015611010576060610ecd838381518110610ec057fe5b6020026020010151612279565b90506000808c81526020019081526020016000208054809190600101610ef391906127a1565b506040518060600160405280610f1c83600081518110610f0f57fe5b6020026020010151612356565b8152602001610f3e83600181518110610f3157fe5b6020026020010151612356565b8152602001610f6083600281518110610f5357fe5b60200260200101516123b0565b73ffffffffffffffffffffffffffffffffffffffff168152506000808d81526020019081526020016000208381548110610f9657fe5b9060005260206000209060030201600082015181600001556020820151816001015560408201518160020160006101000a81548173ffffffffffffffffffffffffffffffffffffffff021916908373ffffffffffffffffffffffffffffffffffffffff160217905550905050508080600101915050610ea6565b50606061106861106386868080601f016020809104026020016040519081016040528093929190818152602001838380828437600081840152601f19601f8201169050808301925050505050505061224b565b612279565b905060008090505b81518110156111dc57606061109783838151811061108a57fe5b6020026020010151612279565b9050600160008d815260200190815260200160002080548091906001016110be91906127a1565b5060405180606001604052806110e7836000815181106110da57fe5b6020026020010151612356565b8152602001611109836001815181106110fc57fe5b6020026020010151612356565b815260200161112b8360028151811061111e57fe5b60200260200101516123b0565b73ffffffffffffffffffffffffffffffffffffffff16815250600160008e8152602001908152602001600020838154811061116257fe5b9060005260206000209060030201600082015181600001556020820151816001015560408201518160020160006101000a81548173ffffffffffffffffffffffffffffffffffffffff021916908373ffffffffffffffffffffffffffffffffffffffff160217905550905050508080600101915050611070565b5050505050505050505050565b60006060600080858152602001908152602001600020805480602002602001604051908101604052809291908181526020016000905b828210156112bb578382906000526020600020906003020160405180606001604052908160008201548152602001600182015481526020016002820160009054906101000a900473ffffffffffffffffffffffffffffffffffffffff1673ffffffffffffffffffffffffffffffffffffffff1673ffffffffffffffffffffffffffffffffffffffff16815250508152602001906001019061121f565b50505050905060008090505b8151811015611333578373ffffffffffffffffffffffffffffffffffffffff168282815181106112f357fe5b60200260200101516040015173ffffffffffffffffffffffffffffffffffffffff1614156113265760019250505061133a565b80806001019150506112c7565b5060009150505b92915050565b604081565b6000600260017f010000000000000000000000000000000000000000000000000000000000000002848460405160200161138193929190613177565b60405160208183030381529060405260405161139d91906131b4565b602060405180830381855afa1580156113ba573d6000803e3d6000fd5b5050506040513d601f19601f820116820180604052506113dd91908101906129f9565b905092915050565b60006060600080848152602001908152602001600020805480602002602001604051908101604052809291908181526020016000905b828210156114b7578382906000526020600020906003020160405180606001604052908160008201548152602001600182015481526020016002820160009054906101000a900473ffffffffffffffffffffffffffffffffffffffff1673ffffffffffffffffffffffffffffffffffffffff1673ffffffffffffffffffffffffffffffffffffffff16815250508152602001906001019061141b565b505050509050600080905060008090505b825181101561150a576114fb8382815181106114e057fe5b6020026020010151602001518361222c90919063ffffffff16565b915080806001019150506114c8565b508092505050919050565b73fffffffffffffffffffffffffffffffffffffffe81565b600080600080859050600060218087518161154457fe5b04029050600081111561155d5761155a876118c7565b91505b6000602190505b8181116116255760006001820388015190508188015195508060006020811061158957fe5b1a7f010000000000000000000000000000000000000000000000000000000000000002945060007f010000000000000000000000000000000000000000000000000000000000000002857effffffffffffffffffffffffffffffffffffffffffffffffffffffffffffff1916141561160c576116058685611345565b9350611619565b6116168487611345565b93505b50602181019050611564565b508782149450505050509392505050565b604051611642906131e0565b604051809103902081565b60008060009050600080905060008090505b84518167ffffffffffffffff16101561172857606061168a868367ffffffffffffffff1660416123d3565b905060006116a1828961245f90919063ffffffff16565b90506116ab6127d3565b6116b58a83611735565b90506116c18a836111e9565b80156116f857508473ffffffffffffffffffffffffffffffffffffffff168273ffffffffffffffffffffffffffffffffffffffff16115b1561171a5781945061171781602001518761222c90919063ffffffff16565b95505b50505060418101905061165f565b5081925050509392505050565b61173d6127d3565b6060600080858152602001908152602001600020805480602002602001604051908101604052809291908181526020016000905b8282101561180d578382906000526020600020906003020160405180606001604052908160008201548152602001600182015481526020016002820160009054906101000a900473ffffffffffffffffffffffffffffffffffffffff1673ffffffffffffffffffffffffffffffffffffffff1673ffffffffffffffffffffffffffffffffffffffff168152505081526020019060010190611771565b50505050905060008090505b8151811015611895578373ffffffffffffffffffffffffffffffffffffffff1682828151811061184557fe5b60200260200101516040015173ffffffffffffffffffffffffffffffffffffffff1614156118885781818151811061187957fe5b60200260200101519250611895565b8080600101915050611819565b505092915050565b60006118a843611d0b565b905090565b60006118c06118ba61189d565b836111e9565b9050919050565b6000600260007f0100000000000000000000000000000000000000000000000000000000000000028360405160200161190192919061314b565b60405160208183030381529060405260405161191d91906131b4565b602060405180830381855afa15801561193a573d6000803e3d6000fd5b5050506040513d601f19601f8201168201806040525061195d91908101906129f9565b9050919050565b600080600080611985600161197761189d565b61222c90919063ffffffff16565b905060026000828152602001908152602001600020600001546002600083815260200190815260200160002060010154600260008481526020019081526020016000206002015493509350935050909192565b60608060606001604051908082528060200260200182016040528015611a0d5781602001602082028038833980820191505090505b5090507394ca9a6d2e423fca0ea098a4a8fd187cd847c6b681600081518110611a3257fe5b602002602001019073ffffffffffffffffffffffffffffffffffffffff16908173ffffffffffffffffffffffffffffffffffffffff168152505060606001604051908082528060200260200182016040528015611a9e5781602001602082028038833980820191505090505b509050602881600081518110611ab057fe5b60200260200101818152505081819350935050509091565b60ff81565b60016020528160005260406000208181548110611ae657fe5b9060005260206000209060030201600091509150508060000154908060010154908060020160009054906101000a900473ffffffffffffffffffffffffffffffffffffffff16905083565b6000611b44611b3e61189d565b836109ea565b9050919050565b604051611b57906131cb565b604051809103902081565b6000606060016000848152602001908152602001600020805480602002602001604051908101604052809291908181526020016000905b82821015611c35578382906000526020600020906003020160405180606001604052908160008201548152602001600182015481526020016002820160009054906101000a900473ffffffffffffffffffffffffffffffffffffffff1673ffffffffffffffffffffffffffffffffffffffff1673ffffffffffffffffffffffffffffffffffffffff168152505081526020019060010190611b99565b505050509050600080905060008090505b8251811015611c8857611c79838281518110611c5e57fe5b6020026020010151602001518361222c90919063ffffffff16565b91508080600101915050611c46565b508092505050919050565b604051611c9f906131f5565b604051809103902081565b600080600080611cb861189d565b905060026000828152602001908152602001600020600001546002600083815260200190815260200160002060010154600260008481526020019081526020016000206002015493509350935050909192565b60008060038054905090505b6000811115611dcb57611d2861280a565b6002600060036001850381548110611d3c57fe5b906000526020600020015481526020019081526020016000206040518060600160405290816000820154815260200160018201548152602001600282015481525050905083816020015111158015611d9957506000816040015114155b8015611da9575080604001518411155b15611dbc57806000015192505050611e06565b50808060019003915050611d17565b5060006003805490501115611e0157600360016003805490500381548110611def57fe5b90600052602060002001549050611e06565b600090505b919050565b606080611e174361080e565b915091509091565b60038181548110611e2c57fe5b906000526020600020016000915090505481565b600460009054906101000a900473ffffffffffffffffffffffffffffffffffffffff1681565b600281565b60006020528160005260406000208181548110611e8457fe5b9060005260206000209060030201600091509150508060000154908060010154908060020160009054906101000a900473ffffffffffffffffffffffffffffffffffffffff16905083565b600060404381611edb57fe5b04905090565b60026020528060005260406000206000915090508060000154908060010154908060020154905083565b606080611f166119d8565b8092508193505050600080905060405180606001604052808281526020016000815260200160ff815250600260008381526020019081526020016000206000820151816000015560208201518160010155604082015181600201559050506003819080600181540180825580915050906001820390600052602060002001600090919290919091505550600080600083815260200190815260200160002081611fbf91906127a1565b5060006001600083815260200190815260200160002081611fe091906127a1565b5060008090505b835181101561210257600080838152602001908152602001600020805480919060010161201491906127a1565b50604051806060016040528082815260200184838151811061203257fe5b6020026020010151815260200185838151811061204b57fe5b602002602001015173ffffffffffffffffffffffffffffffffffffffff16815250600080848152602001908152602001600020828154811061208957fe5b9060005260206000209060030201600082015181600001556020820151816001015560408201518160020160006101000a81548173ffffffffffffffffffffffffffffffffffffffff021916908373ffffffffffffffffffffffffffffffffffffffff1602179055509050508080600101915050611fe7565b5060008090505b83518110156122265760016000838152602001908152602001600020805480919060010161213791906127a1565b50604051806060016040528082815260200184838151811061215557fe5b6020026020010151815260200185838151811061216e57fe5b602002602001015173ffffffffffffffffffffffffffffffffffffffff168152506001600084815260200190815260200160002082815481106121ad57fe5b9060005260206000209060030201600082015181600001556020820151816001015560408201518160020160006101000a81548173ffffffffffffffffffffffffffffffffffffffff021916908373ffffffffffffffffffffffffffffffffffffffff1602179055509050508080600101915050612109565b50505050565b60008082840190508381101561224157600080fd5b8091505092915050565b61225361282b565b600060208301905060405180604001604052808451815260200182815250915050919050565b606061228482612569565b61228d57600080fd5b6000612298836125b7565b90506060816040519080825280602002602001820160405280156122d657816020015b6122c3612845565b8152602001906001900390816122bb5790505b50905060006122e88560200151612628565b8560200151019050600080600090505b8481101561234957612309836126b1565b915060405180604001604052808381526020018481525084828151811061232c57fe5b6020026020010181905250818301925080806001019150506122f8565b5082945050505050919050565b600080826000015111801561237057506021826000015111155b61237957600080fd5b60008061238584612769565b9150915060008251905060208210156123a557816020036101000a810490505b809350505050919050565b600060158260000151146123c357600080fd5b6123cc82612356565b9050919050565b6060818301845110156123e557600080fd5b606082156000811461240257604051915060208201604052612453565b6040519150601f8416801560200281840101858101878315602002848b0101015b818310156124405780518352602083019250602081019050612423565b50868552601f19601f8301166040525050505b50809150509392505050565b600080600080604185511461247a5760009350505050612563565b602085015192506040850151915060ff6041860151169050601b8160ff1610156124a557601b810190505b601b8160ff16141580156124bd5750601c8160ff1614155b156124ce5760009350505050612563565b6000600187838686604051600081526020016040526040516124f39493929190613292565b6020604051602081039080840390855afa158015612515573d6000803e3d6000fd5b505050602060405103519050600073ffffffffffffffffffffffffffffffffffffffff168173ffffffffffffffffffffffffffffffffffffffff16141561255b57600080fd5b809450505050505b92915050565b6000808260000151141561258057600090506125b2565b60008083602001519050805160001a915060c060ff168260ff1610156125ab576000925050506125b2565b6001925050505b919050565b600080826000015114156125ce5760009050612623565b600080905060006125e28460200151612628565b84602001510190506000846000015185602001510190505b8082101561261c5761260b826126b1565b8201915082806001019350506125fa565b8293505050505b919050565b600080825160001a9050608060ff168110156126485760009150506126ac565b60b860ff1681108061266d575060c060ff16811015801561266c575060f860ff1681105b5b1561267c5760019150506126ac565b60c060ff1681101561269c5760018060b80360ff168203019150506126ac565b60018060f80360ff168203019150505b919050565b6000806000835160001a9050608060ff168110156126d2576001915061275f565b60b860ff168110156126ef576001608060ff16820301915061275e565b60c060ff1681101561271f5760b78103600185019450806020036101000a8551046001820181019350505061275d565b60f860ff1681101561273c57600160c060ff16820301915061275c565b60f78103600185019450806020036101000a855104600182018101935050505b5b5b5b8192505050919050565b600080600061277b8460200151612628565b905060008185602001510190506000828660000151039050818194509450505050915091565b8154818355818111156127ce576003028160030283600052602060002091820191016127cd919061285f565b5b505050565b60405180606001604052806000815260200160008152602001600073ffffffffffffffffffffffffffffffffffffffff1681525090565b60405180606001604052806000815260200160008152602001600081525090565b604051806040016040528060008152602001600081525090565b604051806040016040528060008152602001600081525090565b6128b291905b808211156128ae5760008082016000905560018201600090556002820160006101000a81549073ffffffffffffffffffffffffffffffffffffffff021916905550600301612865565b5090565b90565b6000813590506128c481613634565b92915050565b6000813590506128d98161364b565b92915050565b6000815190506128ee8161364b565b92915050565b60008083601f84011261290657600080fd5b8235905067ffffffffffffffff81111561291f57600080fd5b60208301915083600182028301111561293757600080fd5b9250929050565b600082601f83011261294f57600080fd5b813561296261295d82613483565b613456565b9150808252602083016020830185838301111561297e57600080fd5b6129898382846135de565b50505092915050565b6000813590506129a181613662565b92915050565b6000602082840312156129b957600080fd5b60006129c7848285016128b5565b91505092915050565b6000602082840312156129e257600080fd5b60006129f0848285016128ca565b91505092915050565b600060208284031215612a0b57600080fd5b6000612a19848285016128df565b91505092915050565b60008060408385031215612a3557600080fd5b6000612a43858286016128ca565b9250506020612a54858286016128ca565b9150509250929050565b600080600060608486031215612a7357600080fd5b6000612a81868287016128ca565b9350506020612a92868287016128ca565b925050604084013567ffffffffffffffff811115612aaf57600080fd5b612abb8682870161293e565b9150509250925092565b600060208284031215612ad757600080fd5b6000612ae584828501612992565b91505092915050565b60008060408385031215612b0157600080fd5b6000612b0f85828601612992565b9250506020612b20858286016128b5565b9150509250929050565b600080600060608486031215612b3f57600080fd5b6000612b4d86828701612992565b9350506020612b5e868287016128ca565b925050604084013567ffffffffffffffff811115612b7b57600080fd5b612b878682870161293e565b9150509250925092565b60008060408385031215612ba457600080fd5b6000612bb285828601612992565b9250506020612bc385828601612992565b9150509250929050565b600080600080600080600060a0888a031215612be857600080fd5b6000612bf68a828b01612992565b9750506020612c078a828b01612992565b9650506040612c188a828b01612992565b955050606088013567ffffffffffffffff811115612c3557600080fd5b612c418a828b016128f4565b9450945050608088013567ffffffffffffffff811115612c6057600080fd5b612c6c8a828b016128f4565b925092505092959891949750929550565b6000612c898383612cad565b60208301905092915050565b6000612ca1838361311e565b60208301905092915050565b612cb681613553565b82525050565b612cc581613553565b82525050565b6000612cd6826134cf565b612ce0818561350a565b9350612ceb836134af565b8060005b83811015612d1c578151612d038882612c7d565b9750612d0e836134f0565b925050600181019050612cef565b5085935050505092915050565b6000612d34826134da565b612d3e818561351b565b9350612d49836134bf565b8060005b83811015612d7a578151612d618882612c95565b9750612d6c836134fd565b925050600181019050612d4d565b5085935050505092915050565b612d9081613565565b82525050565b612da7612da282613571565b613620565b82525050565b612db68161359d565b82525050565b612dcd612dc88261359d565b61362a565b82525050565b6000612dde826134e5565b612de8818561352c565b9350612df88185602086016135ed565b80840191505092915050565b6000612e11600483613548565b91507f766f7465000000000000000000000000000000000000000000000000000000006000830152600482019050919050565b6000612e51602d83613537565b91507f537461727420626c6f636b206d7573742062652067726561746572207468616e60008301527f2063757272656e74207370616e000000000000000000000000000000000000006020830152604082019050919050565b6000612eb7600f83613548565b91507f6865696d64616c6c2d50357258776700000000000000000000000000000000006000830152600f82019050919050565b6000612ef7600683613548565b91507f31393130343200000000000000000000000000000000000000000000000000006000830152600682019050919050565b6000612f37600f83613537565b91507f496e76616c6964207370616e20696400000000000000000000000000000000006000830152602082019050919050565b6000612f77601383613537565b91507f5370616e20616c726561647920657869737473000000000000000000000000006000830152602082019050919050565b6000612fb7604583613537565b91507f446966666572656e6365206265747765656e20737461727420616e6420656e6460008301527f20626c6f636b206d75737420626520696e206d756c7469706c6573206f66207360208301527f7072696e740000000000000000000000000000000000000000000000000000006040830152606082019050919050565b6000613043602a83613537565b91507f456e6420626c6f636b206d7573742062652067726561746572207468616e207360008301527f7461727420626c6f636b000000000000000000000000000000000000000000006020830152604082019050919050565b60006130a9601283613537565b91507f4e6f742053797374656d204164646573732100000000000000000000000000006000830152602082019050919050565b6060820160008201516130f2600085018261311e565b506020820151613105602085018261311e565b5060408201516131186040850182612cad565b50505050565b613127816135c7565b82525050565b613136816135c7565b82525050565b613145816135d1565b82525050565b60006131578285612d96565b6001820191506131678284612dbc565b6020820191508190509392505050565b60006131838286612d96565b6001820191506131938285612dbc565b6020820191506131a38284612dbc565b602082019150819050949350505050565b60006131c08284612dd3565b915081905092915050565b60006131d682612e04565b9150819050919050565b60006131eb82612eaa565b9150819050919050565b600061320082612eea565b9150819050919050565b600060208201905061321f6000830184612cbc565b92915050565b6000604082019050818103600083015261323f8185612ccb565b905081810360208301526132538184612d29565b90509392505050565b60006020820190506132716000830184612d87565b92915050565b600060208201905061328c6000830184612dad565b92915050565b60006080820190506132a76000830187612dad565b6132b4602083018661313c565b6132c16040830185612dad565b6132ce6060830184612dad565b95945050505050565b600060208201905081810360008301526132f081612e44565b9050919050565b6000602082019050818103600083015261331081612f2a565b9050919050565b6000602082019050818103600083015261333081612f6a565b9050919050565b6000602082019050818103600083015261335081612faa565b9050919050565b6000602082019050818103600083015261337081613036565b9050919050565b600060208201905081810360008301526133908161309c565b9050919050565b60006060820190506133ac60008301846130dc565b92915050565b60006020820190506133c7600083018461312d565b92915050565b60006060820190506133e2600083018661312d565b6133ef602083018561312d565b6133fc6040830184612cbc565b949350505050565b6000606082019050613419600083018661312d565b613426602083018561312d565b613433604083018461312d565b949350505050565b6000602082019050613450600083018461313c565b92915050565b6000604051905081810181811067ffffffffffffffff8211171561347957600080fd5b8060405250919050565b600067ffffffffffffffff82111561349a57600080fd5b601f19601f8301169050602081019050919050565b6000819050602082019050919050565b6000819050602082019050919050565b600081519050919050565b600081519050919050565b600081519050919050565b6000602082019050919050565b6000602082019050919050565b600082825260208201905092915050565b600082825260208201905092915050565b600081905092915050565b600082825260208201905092915050565b600081905092915050565b600061355e826135a7565b9050919050565b60008115159050919050565b60007fff0000000000000000000000000000000000000000000000000000000000000082169050919050565b6000819050919050565b600073ffffffffffffffffffffffffffffffffffffffff82169050919050565b6000819050919050565b600060ff82169050919050565b82818337600083830152505050565b60005b8381101561360b5780820151818401526020810190506135f0565b8381111561361a576000848401525b50505050565b6000819050919050565b6000819050919050565b61363d81613553565b811461364857600080fd5b50565b6136548161359d565b811461365f57600080fd5b50565b61366b816135c7565b811461367657600080fd5b5056fea365627a7a723158204ed36eae759d69604b0d74ead6d7126fd9039ef3efe94505fd894519d9190b1b6c6578706572696d656e74616cf564736f6c634300050b0040",
  "source": "pragma solidity ^0.5.11;\npragma experimental ABIEncoderV2;\n\nimport {BorValidatorSet} from \"../BorValidatorSet.sol\";\nimport {TestSystem} from \"./TestSystem.sol\";\n\ncontract TestBorValidatorSet is BorValidatorSet, TestSystem {}\n",
  "sourcePath": "/Users/ohm.jirapon/playground/blockhain/pos/plasma-ploygon/genesis-contracts/contracts/test/TestBorValidatorSet.sol",
  "compiler": {
    "name": "solc",
    "version": "0.5.11+commit.c082d0b4.Emscripten.clang"
  },
  "schemaVersion": "3.4.7",
  "updatedAt": "2022-06-13T05:23:23.966Z",
  "devdoc": {
    "methods": {}
  },
  "userdoc": {
    "methods": {
      "getInitialValidators()": {
        "notice": "Get current validator set (last enacted or initial if no changes ever made) with current stake."
      },
      "getValidators()": {
        "notice": "Get current validator set (last enacted or initial if no changes ever made) with current stake."
      }
    }
  }
}