{
  "contractName": "TestStateReceiver",
  "abi": [
    {
      "constant": false,
      "inputs": [
        {
          "internalType": "address",
          "name": "_system",
          "type": "address"
        }
      ],
      "name": "setSystemAddress",
      "outputs": [],
      "payable": false,
      "stateMutability": "nonpayable",
      "type": "function"
    },
    {
      "constant": false,
      "inputs": [
        {
          "internalType": "uint256",
          "name": "syncTime",
          "type": "uint256"
        },
        {
          "internalType": "bytes",
          "name": "recordBytes",
          "type": "bytes"
        }
      ],
      "name": "commitState",
      "outputs": [
        {
          "internalType": "bool",
          "name": "success",
          "type": "bool"
        }
      ],
      "payable": false,
      "stateMutability": "nonpayable",
      "type": "function"
    },
    {
      "constant": true,
      "inputs": [],
      "name": "SYSTEM_ADDRESS",
      "outputs": [
        {
          "internalType": "address",
          "name": "",
          "type": "address"
        }
      ],
      "payable": false,
      "stateMutability": "view",
      "type": "function"
    },
    {
      "constant": true,
      "inputs": [],
      "name": "lastStateId",
      "outputs": [
        {
          "internalType": "uint256",
          "name": "",
          "type": "uint256"
        }
      ],
      "payable": false,
      "stateMutability": "view",
      "type": "function"
    },
    {
      "constant": true,
      "inputs": [],
      "name": "dummySystem",
      "outputs": [
        {
          "internalType": "address",
          "name": "",
          "type": "address"
        }
      ],
      "payable": false,
      "stateMutability": "view",
      "type": "function"
    }
  ],
  "bytecode": "0x608060405234801561001057600080fd5b50610cd3806100206000396000f3fe608060405234801561001057600080fd5b5060043610610074576000357c010000000000000000000000000000000000000000000000000000000090048063062101971461007957806319494a17146100955780633434735f146100c55780635407ca67146100e3578063d029191714610101575b600080fd5b610093600480360361008e9190810190610981565b61011f565b005b6100af60048036036100aa91908101906109aa565b610163565b6040516100bc9190610b03565b60405180910390f35b6100cd6103d1565b6040516100da9190610ae8565b60405180910390f35b6100eb6103e9565b6040516100f89190610b5e565b60405180910390f35b6101096103ef565b6040516101169190610ae8565b60405180910390f35b80600160006101000a81548173ffffffffffffffffffffffffffffffffffffffff021916908373ffffffffffffffffffffffffffffffffffffffff16021790555050565b6000600160009054906101000a900473ffffffffffffffffffffffffffffffffffffffff1673ffffffffffffffffffffffffffffffffffffffff163373ffffffffffffffffffffffffffffffffffffffff16146101f5576040517f08c379a00000000000000000000000000000000000000000000000000000000081526004016101ec90610b3e565b60405180910390fd5b606061024c61024785858080601f016020809104026020016040519081016040528093929190818152602001838380828437600081840152601f19601f82011690508083019250505050505050610415565b610443565b9050600061026d8260008151811061026057fe5b6020026020010151610520565b905080600160005401146102b6576040517f08c379a00000000000000000000000000000000000000000000000000000000081526004016102ad90610b1e565b60405180910390fd5b600080815480929190600101919050555060006102e6836001815181106102d957fe5b602002602001015161057a565b90506060610307846002815181106102fa57fe5b602002602001015161059d565b905061031282610617565b156103c6576000624c4b40905060608483604051602401610334929190610b79565b6040516020818303038152906040527f26c53bea000000000000000000000000000000000000000000000000000000007bffffffffffffffffffffffffffffffffffffffffffffffffffffffff19166020820180517bffffffffffffffffffffffffffffffffffffffffffffffffffffffff8381831617835250505050905060008082516020840160008887f1965050505b505050509392505050565b73fffffffffffffffffffffffffffffffffffffffe81565b60005481565b600160009054906101000a900473ffffffffffffffffffffffffffffffffffffffff1681565b61041d6108d9565b600060208301905060405180604001604052808451815260200182815250915050919050565b606061044e82610630565b61045757600080fd5b60006104628361067e565b90506060816040519080825280602002602001820160405280156104a057816020015b61048d6108f3565b8152602001906001900390816104855790505b50905060006104b285602001516106ef565b8560200151019050600080600090505b84811015610513576104d383610778565b91506040518060400160405280838152602001848152508482815181106104f657fe5b6020026020010181905250818301925080806001019150506104c2565b5082945050505050919050565b600080826000015111801561053a57506021826000015111155b61054357600080fd5b60008061054f84610830565b91509150600082519050602082101561056f57816020036101000a810490505b809350505050919050565b6000601582600001511461058d57600080fd5b61059682610520565b9050919050565b606060008260000151116105b057600080fd5b6000806105bc84610830565b915091506060816040519080825280601f01601f1916602001820160405280156105f55781602001600182028038833980820191505090505b509050600081602001905061060b848285610868565b81945050505050919050565b600080823b905060008163ffffffff1611915050919050565b600080826000015114156106475760009050610679565b60008083602001519050805160001a915060c060ff168260ff16101561067257600092505050610679565b6001925050505b919050565b6000808260000151141561069557600090506106ea565b600080905060006106a984602001516106ef565b84602001510190506000846000015185602001510190505b808210156106e3576106d282610778565b8201915082806001019350506106c1565b8293505050505b919050565b600080825160001a9050608060ff1681101561070f576000915050610773565b60b860ff16811080610734575060c060ff168110158015610733575060f860ff1681105b5b15610743576001915050610773565b60c060ff168110156107635760018060b80360ff16820301915050610773565b60018060f80360ff168203019150505b919050565b6000806000835160001a9050608060ff168110156107995760019150610826565b60b860ff168110156107b6576001608060ff168203019150610825565b60c060ff168110156107e65760b78103600185019450806020036101000a85510460018201810193505050610824565b60f860ff1681101561080357600160c060ff168203019150610823565b60f78103600185019450806020036101000a855104600182018101935050505b5b5b5b8192505050919050565b600080600061084284602001516106ef565b905060008185602001510190506000828660000151039050818194509450505050915091565b6000811415610876576108d4565b5b602060ff1681106108a65782518252602060ff1683019250602060ff1682019150602060ff1681039050610877565b60008111156108d3576000600182602060ff16036101000a03905080198451168184511681811785525050505b5b505050565b604051806040016040528060008152602001600081525090565b604051806040016040528060008152602001600081525090565b60008135905061091c81610c62565b92915050565b60008083601f84011261093457600080fd5b8235905067ffffffffffffffff81111561094d57600080fd5b60208301915083600182028301111561096557600080fd5b9250929050565b60008135905061097b81610c79565b92915050565b60006020828403121561099357600080fd5b60006109a18482850161090d565b91505092915050565b6000806000604084860312156109bf57600080fd5b60006109cd8682870161096c565b935050602084013567ffffffffffffffff8111156109ea57600080fd5b6109f686828701610922565b92509250509250925092565b610a0b81610bd6565b82525050565b610a1a81610be8565b82525050565b6000610a2b82610ba9565b610a358185610bb4565b9350610a45818560208601610c1e565b610a4e81610c51565b840191505092915050565b6000610a66601b83610bc5565b91507f537461746549647320617265206e6f742073657175656e7469616c00000000006000830152602082019050919050565b6000610aa6601283610bc5565b91507f4e6f742053797374656d204164646573732100000000000000000000000000006000830152602082019050919050565b610ae281610c14565b82525050565b6000602082019050610afd6000830184610a02565b92915050565b6000602082019050610b186000830184610a11565b92915050565b60006020820190508181036000830152610b3781610a59565b9050919050565b60006020820190508181036000830152610b5781610a99565b9050919050565b6000602082019050610b736000830184610ad9565b92915050565b6000604082019050610b8e6000830185610ad9565b8181036020830152610ba08184610a20565b90509392505050565b600081519050919050565b600082825260208201905092915050565b600082825260208201905092915050565b6000610be182610bf4565b9050919050565b60008115159050919050565b600073ffffffffffffffffffffffffffffffffffffffff82169050919050565b6000819050919050565b60005b83811015610c3c578082015181840152602081019050610c21565b83811115610c4b576000848401525b50505050565b6000601f19601f8301169050919050565b610c6b81610bd6565b8114610c7657600080fd5b50565b610c8281610c14565b8114610c8d57600080fd5b5056fea365627a7a723158204e5ca265cdc1797fee28bc5812aeb11711eaac53b470dfbe28c152f41fc134456c6578706572696d656e74616cf564736f6c634300050b0040",
  "source": "pragma solidity ^0.5.11;\npragma experimental ABIEncoderV2;\n\nimport {StateReceiver} from \"../StateReceiver.sol\";\nimport {TestSystem} from \"./TestSystem.sol\";\n\ncontract TestStateReceiver is StateReceiver, TestSystem {}\n",
  "sourcePath": "/Users/ohm.jirapon/playground/blockhain/pos/plasma-ploygon/genesis-contracts/contracts/test/TestStateReceiver.sol",
  "compiler": {
    "name": "solc",
    "version": "0.5.11+commit.c082d0b4.Emscripten.clang"
  },
  "schemaVersion": "3.4.7",
  "updatedAt": "2022-06-13T05:23:23.968Z",
  "devdoc": {
    "methods": {}
  },
  "userdoc": {
    "methods": {}
  }
}