{
  "contractName": "TestSystem",
  "abi": [
    {
      "constant": true,
      "inputs": [],
      "name": "dummySystem",
      "outputs": [
        {
          "internalType": "address",
          "name": "",
          "type": "address"
        }
      ],
      "payable": false,
      "stateMutability": "view",
      "type": "function"
    },
    {
      "constant": false,
      "inputs": [
        {
          "internalType": "address",
          "name": "_system",
          "type": "address"
        }
      ],
      "name": "setSystemAddress",
      "outputs": [],
      "payable": false,
      "stateMutability": "nonpayable",
      "type": "function"
    }
  ],
  "bytecode": "0x608060405234801561001057600080fd5b50610183806100206000396000f3fe608060405234801561001057600080fd5b5060043610610053576000357c0100000000000000000000000000000000000000000000000000000000900480630621019714610058578063d02919171461009c575b600080fd5b61009a6004803603602081101561006e57600080fd5b81019080803573ffffffffffffffffffffffffffffffffffffffff1690602001909291905050506100e6565b005b6100a4610129565b604051808273ffffffffffffffffffffffffffffffffffffffff1673ffffffffffffffffffffffffffffffffffffffff16815260200191505060405180910390f35b806000806101000a81548173ffffffffffffffffffffffffffffffffffffffff021916908373ffffffffffffffffffffffffffffffffffffffff16021790555050565b6000809054906101000a900473ffffffffffffffffffffffffffffffffffffffff168156fea265627a7a72315820621099f20e65ddc5ef9595582a06010c5ec453e72f34e196f316bda1bc4441ae64736f6c634300050b0032",
  "source": "pragma solidity ^0.5.11;\n\ncontract TestSystem {\n  address public dummySystem;\n\n  function setSystemAddress(address _system) public {\n    dummySystem = _system;\n  }\n\n  modifier onlySystem() {\n    require(msg.sender == dummySystem, \"Not System Addess!\");\n    _;\n  }\n}\n",
  "sourcePath": "/root/matic-cli/devnet/code/genesis-contracts/contracts/test/TestSystem.sol",
  "compiler": {
    "name": "solc",
    "version": "0.5.11+commit.c082d0b4.Emscripten.clang"
  },
  "schemaVersion": "3.0.14",
  "updatedAt": "2022-07-11T06:06:04.788Z",
  "devdoc": {
    "methods": {}
  },
  "userdoc": {
    "methods": {}
  }
}