{
  "contractName": "TestCommitState",
  "abi": [
    {
      "constant": true,
      "inputs": [],
      "name": "data",
      "outputs": [
        {
          "internalType": "bytes",
          "name": "",
          "type": "bytes"
        }
      ],
      "payable": false,
      "stateMutability": "view",
      "type": "function"
    },
    {
      "constant": true,
      "inputs": [],
      "name": "id",
      "outputs": [
        {
          "internalType": "uint256",
          "name": "",
          "type": "uint256"
        }
      ],
      "payable": false,
      "stateMutability": "view",
      "type": "function"
    },
    {
      "constant": false,
      "inputs": [
        {
          "internalType": "uint256",
          "name": "_id",
          "type": "uint256"
        },
        {
          "internalType": "bytes",
          "name": "_data",
          "type": "bytes"
        }
      ],
      "name": "onStateReceive",
      "outputs": [],
      "payable": false,
      "stateMutability": "nonpayable",
      "type": "function"
    }
  ],
  "bytecode": "0x608060405234801561001057600080fd5b5061051d806100206000396000f3fe608060405234801561001057600080fd5b506004361061005e576000357c01000000000000000000000000000000000000000000000000000000009004806326c53bea1461006357806373d4a13a1461007f578063af640d0f1461009d575b600080fd5b61007d60048036036100789190810190610333565b6100bb565b005b610087610113565b60405161009491906103d3565b60405180910390f35b6100a56101b1565b6040516100b291906103f5565b60405180910390f35b600082826100cc91908101906102d0565b935050505060008090505b818110156100f3578060008190555080806001019150506100d7565b508360008190555082826001919061010c9291906101b7565b5050505050565b60018054600181600116156101000203166002900480601f0160208091040260200160405190810160405280929190818152602001828054600181600116156101000203166002900480156101a95780601f1061017e576101008083540402835291602001916101a9565b820191906000526020600020905b81548152906001019060200180831161018c57829003601f168201915b505050505081565b60005481565b828054600181600116156101000203166002900490600052602060002090601f016020900481019282601f106101f857803560ff1916838001178555610226565b82800160010185558215610226579182015b8281111561022557823582559160200191906001019061020a565b5b5090506102339190610237565b5090565b61025991905b8082111561025557600081600090555060010161023d565b5090565b90565b60008135905061026b816104ac565b92915050565b60008083601f84011261028357600080fd5b8235905067ffffffffffffffff81111561029c57600080fd5b6020830191508360018202830111156102b457600080fd5b9250929050565b6000813590506102ca816104c3565b92915050565b600080600080608085870312156102e657600080fd5b60006102f48782880161025c565b94505060206103058782880161025c565b9350506040610316878288016102bb565b9250506060610327878288016102bb565b91505092959194509250565b60008060006040848603121561034857600080fd5b6000610356868287016102bb565b935050602084013567ffffffffffffffff81111561037357600080fd5b61037f86828701610271565b92509250509250925092565b600061039682610410565b6103a0818561041b565b93506103b0818560208601610468565b6103b98161049b565b840191505092915050565b6103cd8161045e565b82525050565b600060208201905081810360008301526103ed818461038b565b905092915050565b600060208201905061040a60008301846103c4565b92915050565b600081519050919050565b600082825260208201905092915050565b60006104378261043e565b9050919050565b600073ffffffffffffffffffffffffffffffffffffffff82169050919050565b6000819050919050565b60005b8381101561048657808201518184015260208101905061046b565b83811115610495576000848401525b50505050565b6000601f19601f8301169050919050565b6104b58161042c565b81146104c057600080fd5b50565b6104cc8161045e565b81146104d757600080fd5b5056fea365627a7a7231582077de9b0396b35e59f7796f2ecf8b35caa71112f7a4844c82614c4029d6fd3c056c6578706572696d656e74616cf564736f6c634300050b0040",
  "source": "pragma solidity ^0.5.11;\npragma experimental ABIEncoderV2;\n\n\ncontract TestCommitState {\n\n    uint256 public id;\n    bytes public data;\n\n    function onStateReceive(\n        uint256 _id, /* id */\n        bytes calldata _data\n    ) external {\n        (,,,uint256 num) = abi.decode(_data, (address, address, uint256, uint256));\n        // dummy loop\n        for (uint256 i = 0; i < num; i++) {\n            id = i;\n        }\n        id = _id;\n        data = _data;\n    }\n}\n",
  "sourcePath": "/Users/ohm.jirapon/playground/blockhain/pos/plasma-ploygon/genesis-contracts/contracts/test/TestCommitState.sol",
  "compiler": {
    "name": "solc",
    "version": "0.5.11+commit.c082d0b4.Emscripten.clang"
  },
  "schemaVersion": "3.4.7",
  "updatedAt": "2022-06-13T05:23:23.967Z",
  "devdoc": {
    "methods": {}
  },
  "userdoc": {
    "methods": {}
  }
}