{
  "contractName": "ValidatorVerifier",
  "abi": [
    {
      "constant": true,
      "inputs": [],
      "name": "validatorSet",
      "outputs": [
        {
          "internalType": "address",
          "name": "",
          "type": "address"
        }
      ],
      "payable": false,
      "stateMutability": "view",
      "type": "function"
    },
    {
      "inputs": [],
      "payable": false,
      "stateMutability": "nonpayable",
      "type": "constructor"
    },
    {
      "constant": true,
      "inputs": [],
      "name": "isValidatorSetContract",
      "outputs": [
        {
          "internalType": "bool",
          "name": "",
          "type": "bool"
        }
      ],
      "payable": false,
      "stateMutability": "view",
      "type": "function"
    },
    {
      "constant": true,
      "inputs": [
        {
          "internalType": "address",
          "name": "signer",
          "type": "address"
        }
      ],
      "name": "isValidator",
      "outputs": [
        {
          "internalType": "bool",
          "name": "",
          "type": "bool"
        }
      ],
      "payable": false,
      "stateMutability": "view",
      "type": "function"
    },
    {
      "constant": true,
      "inputs": [
        {
          "internalType": "address",
          "name": "signer",
          "type": "address"
        }
      ],
      "name": "isProducer",
      "outputs": [
        {
          "internalType": "bool",
          "name": "",
          "type": "bool"
        }
      ],
      "payable": false,
      "stateMutability": "view",
      "type": "function"
    }
  ],
  "bytecode": "0x608060405234801561001057600080fd5b506103c3806100206000396000f3fe608060405234801561001057600080fd5b5060043610610069576000357c0100000000000000000000000000000000000000000000000000000000900480639426e2261461006e578063d79e60b7146100b8578063f5521022146100da578063facd743b14610136575b600080fd5b610076610192565b604051808273ffffffffffffffffffffffffffffffffffffffff1673ffffffffffffffffffffffffffffffffffffffff16815260200191505060405180910390f35b6100c0610198565b604051808215151515815260200191505060405180910390f35b61011c600480360360208110156100f057600080fd5b81019080803573ffffffffffffffffffffffffffffffffffffffff1690602001909291905050506101d0565b604051808215151515815260200191505060405180910390f35b6101786004803603602081101561014c57600080fd5b81019080803573ffffffffffffffffffffffffffffffffffffffff1690602001909291905050506102af565b604051808215151515815260200191505060405180910390f35b61100081565b600061100073ffffffffffffffffffffffffffffffffffffffff163373ffffffffffffffffffffffffffffffffffffffff1614905090565b600061100073ffffffffffffffffffffffffffffffffffffffff166370ba5707836040518263ffffffff167c0100000000000000000000000000000000000000000000000000000000028152600401808273ffffffffffffffffffffffffffffffffffffffff1673ffffffffffffffffffffffffffffffffffffffff16815260200191505060206040518083038186803b15801561026d57600080fd5b505afa158015610281573d6000803e3d6000fd5b505050506040513d602081101561029757600080fd5b81019080805190602001909291905050509050919050565b600061100073ffffffffffffffffffffffffffffffffffffffff166355614fcc836040518263ffffffff167c0100000000000000000000000000000000000000000000000000000000028152600401808273ffffffffffffffffffffffffffffffffffffffff1673ffffffffffffffffffffffffffffffffffffffff16815260200191505060206040518083038186803b15801561034c57600080fd5b505afa158015610360573d6000803e3d6000fd5b505050506040513d602081101561037657600080fd5b8101908080519060200190929190505050905091905056fea265627a7a72315820b2b8321a262a7d05632db46ae8f77601bdddc7756c5887e88b4f61daf5e31a4964736f6c634300050b0032",
  "source": "pragma solidity ^0.5.11;\n\nimport { ValidatorSet } from \"./ValidatorSet.sol\";\n\n\ncontract ValidatorVerifier {\n  address constant public validatorSet = 0x0000000000000000000000000000000000001000;\n\n  /**\n   * @dev Throws if called by any account other than the validator set.\n   */\n  modifier onlyValidatorSetContract() {\n    require(isValidatorSetContract(), \"Verifiable: caller is not the verifiable contract\");\n    _;\n  }\n\n  constructor () public {\n    // Doesn't work since contract is in genesis\n  }\n\n  /**\n   * @dev Returns true if the caller is the current validator set contract.\n   */\n  function isValidatorSetContract() public view returns (bool) {\n    return msg.sender == validatorSet;\n  }\n\n  // check if signer is validator\n  function isValidator(address signer) public view returns (bool) {\n    return ValidatorSet(validatorSet).isCurrentValidator(signer);\n  }\n\n  // check if signer is producer\n  function isProducer(address signer) public view returns (bool) {\n    return ValidatorSet(validatorSet).isCurrentProducer(signer);\n  }\n}\n",
  "sourcePath": "/Users/ohm.jirapon/playground/blockhain/layer-2/plasma-ploygon/matic-cli/devnet/code/genesis-contracts/contracts/ValidatorVerifier.sol",
  "compiler": {
    "name": "solc",
    "version": "0.5.11+commit.c082d0b4.Emscripten.clang"
  },
  "schemaVersion": "3.0.14",
  "updatedAt": "2022-08-16T05:17:47.588Z",
  "devdoc": {
    "methods": {
      "isValidatorSetContract()": {
        "details": "Returns true if the caller is the current validator set contract."
      }
    }
  },
  "userdoc": {
    "methods": {}
  }
}